{
	"contracts/homework/06 RoleManagement.sol": {
		"RoleManagement": {
			"abi": [
				{
					"inputs": [],
					"stateMutability": "nonpayable",
					"type": "constructor"
				},
				{
					"inputs": [
						{
							"internalType": "address",
							"name": "user",
							"type": "address"
						}
					],
					"name": "addAdmin",
					"outputs": [],
					"stateMutability": "nonpayable",
					"type": "function"
				},
				{
					"inputs": [
						{
							"internalType": "address",
							"name": "user",
							"type": "address"
						}
					],
					"name": "addUser",
					"outputs": [],
					"stateMutability": "nonpayable",
					"type": "function"
				},
				{
					"inputs": [
						{
							"internalType": "address",
							"name": "user",
							"type": "address"
						}
					],
					"name": "getRole",
					"outputs": [
						{
							"internalType": "enum RoleManagement.Role",
							"name": "",
							"type": "uint8"
						}
					],
					"stateMutability": "view",
					"type": "function"
				},
				{
					"inputs": [],
					"name": "owner",
					"outputs": [
						{
							"internalType": "address",
							"name": "",
							"type": "address"
						}
					],
					"stateMutability": "view",
					"type": "function"
				},
				{
					"inputs": [
						{
							"internalType": "address",
							"name": "",
							"type": "address"
						}
					],
					"name": "roles",
					"outputs": [
						{
							"internalType": "enum RoleManagement.Role",
							"name": "",
							"type": "uint8"
						}
					],
					"stateMutability": "view",
					"type": "function"
				}
			],
			"devdoc": {
				"kind": "dev",
				"methods": {},
				"version": 1
			},
			"evm": {
				"assembly": "    /* \"contracts/homework/06 RoleManagement.sol\":59:1199  contract RoleManagement  {... */\n  mstore(0x40, 0x80)\n    /* \"contracts/homework/06 RoleManagement.sol\":290:382  constructor() {... */\n  callvalue\n  dup1\n  iszero\n  tag_1\n  jumpi\n  revert(0x00, 0x00)\ntag_1:\n  pop\n    /* \"contracts/homework/06 RoleManagement.sol\":323:333  msg.sender */\n  caller\n    /* \"contracts/homework/06 RoleManagement.sol\":315:320  owner */\n  0x01\n  0x00\n    /* \"contracts/homework/06 RoleManagement.sol\":315:333  owner = msg.sender */\n  0x0100\n  exp\n  dup2\n  sload\n  dup2\n  0xffffffffffffffffffffffffffffffffffffffff\n  mul\n  not\n  and\n  swap1\n  dup4\n  0xffffffffffffffffffffffffffffffffffffffff\n  and\n  mul\n  or\n  swap1\n  sstore\n  pop\n    /* \"contracts/homework/06 RoleManagement.sol\":364:374  Role.Owner */\n  0x03\n    /* \"contracts/homework/06 RoleManagement.sol\":344:349  roles */\n  0x00\n    /* \"contracts/homework/06 RoleManagement.sol\":344:361  roles[msg.sender] */\n  0x00\n    /* \"contracts/homework/06 RoleManagement.sol\":350:360  msg.sender */\n  caller\n    /* \"contracts/homework/06 RoleManagement.sol\":344:361  roles[msg.sender] */\n  0xffffffffffffffffffffffffffffffffffffffff\n  and\n  0xffffffffffffffffffffffffffffffffffffffff\n  and\n  dup2\n  mstore\n  0x20\n  add\n  swap1\n  dup2\n  mstore\n  0x20\n  add\n  0x00\n  keccak256\n  0x00\n    /* \"contracts/homework/06 RoleManagement.sol\":344:374  roles[msg.sender] = Role.Owner */\n  0x0100\n  exp\n  dup2\n  sload\n  dup2\n  0xff\n  mul\n  not\n  and\n  swap1\n  dup4\n  0x03\n  dup2\n  gt\n  iszero\n  tag_4\n  jumpi\n  tag_5\n  tag_6\n  jump\t// in\ntag_5:\ntag_4:\n  mul\n  or\n  swap1\n  sstore\n  pop\n    /* \"contracts/homework/06 RoleManagement.sol\":59:1199  contract RoleManagement  {... */\n  jump(tag_7)\n    /* \"#utility.yul\":7:187   */\ntag_6:\n    /* \"#utility.yul\":55:132   */\n  0x4e487b7100000000000000000000000000000000000000000000000000000000\n    /* \"#utility.yul\":52:53   */\n  0x00\n    /* \"#utility.yul\":45:133   */\n  mstore\n    /* \"#utility.yul\":152:156   */\n  0x21\n    /* \"#utility.yul\":149:150   */\n  0x04\n    /* \"#utility.yul\":142:157   */\n  mstore\n    /* \"#utility.yul\":176:180   */\n  0x24\n    /* \"#utility.yul\":173:174   */\n  0x00\n    /* \"#utility.yul\":166:181   */\n  revert\n    /* \"contracts/homework/06 RoleManagement.sol\":59:1199  contract RoleManagement  {... */\ntag_7:\n  dataSize(sub_0)\n  dup1\n  dataOffset(sub_0)\n  0x00\n  codecopy\n  0x00\n  return\nstop\n\nsub_0: assembly {\n        /* \"contracts/homework/06 RoleManagement.sol\":59:1199  contract RoleManagement  {... */\n      mstore(0x40, 0x80)\n      callvalue\n      dup1\n      iszero\n      tag_1\n      jumpi\n      revert(0x00, 0x00)\n    tag_1:\n      pop\n      jumpi(tag_2, lt(calldatasize, 0x04))\n      shr(0xe0, calldataload(0x00))\n      dup1\n      0x421b2d8b\n      eq\n      tag_3\n      jumpi\n      dup1\n      0x44276733\n      eq\n      tag_4\n      jumpi\n      dup1\n      0x70480275\n      eq\n      tag_5\n      jumpi\n      dup1\n      0x8da5cb5b\n      eq\n      tag_6\n      jumpi\n      dup1\n      0x99374642\n      eq\n      tag_7\n      jumpi\n    tag_2:\n      revert(0x00, 0x00)\n        /* \"contracts/homework/06 RoleManagement.sol\":946:1064  function addUser(address user) public onlyAdmin {... */\n    tag_3:\n      tag_8\n      0x04\n      dup1\n      calldatasize\n      sub\n      dup2\n      add\n      swap1\n      tag_9\n      swap2\n      swap1\n      tag_10\n      jump\t// in\n    tag_9:\n      tag_11\n      jump\t// in\n    tag_8:\n      stop\n        /* \"contracts/homework/06 RoleManagement.sol\":1076:1196  function getRole(address user) public view returns (Role) {... */\n    tag_4:\n      tag_12\n      0x04\n      dup1\n      calldatasize\n      sub\n      dup2\n      add\n      swap1\n      tag_13\n      swap2\n      swap1\n      tag_10\n      jump\t// in\n    tag_13:\n      tag_14\n      jump\t// in\n    tag_12:\n      mload(0x40)\n      tag_15\n      swap2\n      swap1\n      tag_16\n      jump\t// in\n    tag_15:\n      mload(0x40)\n      dup1\n      swap2\n      sub\n      swap1\n      return\n        /* \"contracts/homework/06 RoleManagement.sol\":813:934  function addAdmin(address user) public onlyOwner {... */\n    tag_5:\n      tag_17\n      0x04\n      dup1\n      calldatasize\n      sub\n      dup2\n      add\n      swap1\n      tag_18\n      swap2\n      swap1\n      tag_10\n      jump\t// in\n    tag_18:\n      tag_19\n      jump\t// in\n    tag_17:\n      stop\n        /* \"contracts/homework/06 RoleManagement.sol\":257:277  address public owner */\n    tag_6:\n      tag_20\n      tag_21\n      jump\t// in\n    tag_20:\n      mload(0x40)\n      tag_22\n      swap2\n      swap1\n      tag_23\n      jump\t// in\n    tag_22:\n      mload(0x40)\n      dup1\n      swap2\n      sub\n      swap1\n      return\n        /* \"contracts/homework/06 RoleManagement.sol\":207:244  mapping(address => Role) public roles */\n    tag_7:\n      tag_24\n      0x04\n      dup1\n      calldatasize\n      sub\n      dup2\n      add\n      swap1\n      tag_25\n      swap2\n      swap1\n      tag_10\n      jump\t// in\n    tag_25:\n      tag_26\n      jump\t// in\n    tag_24:\n      mload(0x40)\n      tag_27\n      swap2\n      swap1\n      tag_16\n      jump\t// in\n    tag_27:\n      mload(0x40)\n      dup1\n      swap2\n      sub\n      swap1\n      return\n        /* \"contracts/homework/06 RoleManagement.sol\":946:1064  function addUser(address user) public onlyAdmin {... */\n    tag_11:\n        /* \"contracts/homework/06 RoleManagement.sol\":675:685  Role.Owner */\n      0x03\n        /* \"contracts/homework/06 RoleManagement.sol\":659:685  roles[owner] == Role.Owner */\n      dup1\n      dup2\n      gt\n      iszero\n      tag_29\n      jumpi\n      tag_30\n      tag_31\n      jump\t// in\n    tag_30:\n    tag_29:\n        /* \"contracts/homework/06 RoleManagement.sol\":659:664  roles */\n      0x00\n        /* \"contracts/homework/06 RoleManagement.sol\":659:671  roles[owner] */\n      0x00\n        /* \"contracts/homework/06 RoleManagement.sol\":665:670  owner */\n      0x01\n      0x00\n      swap1\n      sload\n      swap1\n      0x0100\n      exp\n      swap1\n      div\n      0xffffffffffffffffffffffffffffffffffffffff\n      and\n        /* \"contracts/homework/06 RoleManagement.sol\":659:671  roles[owner] */\n      0xffffffffffffffffffffffffffffffffffffffff\n      and\n      0xffffffffffffffffffffffffffffffffffffffff\n      and\n      dup2\n      mstore\n      0x20\n      add\n      swap1\n      dup2\n      mstore\n      0x20\n      add\n      0x00\n      keccak256\n      0x00\n      swap1\n      sload\n      swap1\n      0x0100\n      exp\n      swap1\n      div\n      0xff\n      and\n        /* \"contracts/homework/06 RoleManagement.sol\":659:685  roles[owner] == Role.Owner */\n      0x03\n      dup2\n      gt\n      iszero\n      tag_32\n      jumpi\n      tag_33\n      tag_31\n      jump\t// in\n    tag_33:\n    tag_32:\n      eq\n        /* \"contracts/homework/06 RoleManagement.sol\":659:715  roles[owner] == Role.Owner || roles[owner] == Role.Admin */\n      dup1\n      tag_34\n      jumpi\n      pop\n        /* \"contracts/homework/06 RoleManagement.sol\":705:715  Role.Admin */\n      0x02\n        /* \"contracts/homework/06 RoleManagement.sol\":689:715  roles[owner] == Role.Admin */\n      0x03\n      dup2\n      gt\n      iszero\n      tag_35\n      jumpi\n      tag_36\n      tag_31\n      jump\t// in\n    tag_36:\n    tag_35:\n        /* \"contracts/homework/06 RoleManagement.sol\":689:694  roles */\n      0x00\n        /* \"contracts/homework/06 RoleManagement.sol\":689:701  roles[owner] */\n      0x00\n        /* \"contracts/homework/06 RoleManagement.sol\":695:700  owner */\n      0x01\n      0x00\n      swap1\n      sload\n      swap1\n      0x0100\n      exp\n      swap1\n      div\n      0xffffffffffffffffffffffffffffffffffffffff\n      and\n        /* \"contracts/homework/06 RoleManagement.sol\":689:701  roles[owner] */\n      0xffffffffffffffffffffffffffffffffffffffff\n      and\n      0xffffffffffffffffffffffffffffffffffffffff\n      and\n      dup2\n      mstore\n      0x20\n      add\n      swap1\n      dup2\n      mstore\n      0x20\n      add\n      0x00\n      keccak256\n      0x00\n      swap1\n      sload\n      swap1\n      0x0100\n      exp\n      swap1\n      div\n      0xff\n      and\n        /* \"contracts/homework/06 RoleManagement.sol\":689:715  roles[owner] == Role.Admin */\n      0x03\n      dup2\n      gt\n      iszero\n      tag_37\n      jumpi\n      tag_38\n      tag_31\n      jump\t// in\n    tag_38:\n    tag_37:\n      eq\n        /* \"contracts/homework/06 RoleManagement.sol\":659:715  roles[owner] == Role.Owner || roles[owner] == Role.Admin */\n    tag_34:\n        /* \"contracts/homework/06 RoleManagement.sol\":651:748  require(roles[owner] == Role.Owner || roles[owner] == Role.Admin, \"user is not a owner or admin\") */\n      tag_39\n      jumpi\n      mload(0x40)\n      0x08c379a000000000000000000000000000000000000000000000000000000000\n      dup2\n      mstore\n      0x04\n      add\n      tag_40\n      swap1\n      tag_41\n      jump\t// in\n    tag_40:\n      mload(0x40)\n      dup1\n      swap2\n      sub\n      swap1\n      revert\n    tag_39:\n        /* \"contracts/homework/06 RoleManagement.sol\":1047:1056  Role.User */\n      0x01\n        /* \"contracts/homework/06 RoleManagement.sol\":1033:1038  roles */\n      0x00\n        /* \"contracts/homework/06 RoleManagement.sol\":1033:1044  roles[user] */\n      0x00\n        /* \"contracts/homework/06 RoleManagement.sol\":1039:1043  user */\n      dup4\n        /* \"contracts/homework/06 RoleManagement.sol\":1033:1044  roles[user] */\n      0xffffffffffffffffffffffffffffffffffffffff\n      and\n      0xffffffffffffffffffffffffffffffffffffffff\n      and\n      dup2\n      mstore\n      0x20\n      add\n      swap1\n      dup2\n      mstore\n      0x20\n      add\n      0x00\n      keccak256\n      0x00\n        /* \"contracts/homework/06 RoleManagement.sol\":1033:1056  roles[user] = Role.User */\n      0x0100\n      exp\n      dup2\n      sload\n      dup2\n      0xff\n      mul\n      not\n      and\n      swap1\n      dup4\n      0x03\n      dup2\n      gt\n      iszero\n      tag_43\n      jumpi\n      tag_44\n      tag_31\n      jump\t// in\n    tag_44:\n    tag_43:\n      mul\n      or\n      swap1\n      sstore\n      pop\n        /* \"contracts/homework/06 RoleManagement.sol\":946:1064  function addUser(address user) public onlyAdmin {... */\n      pop\n      jump\t// out\n        /* \"contracts/homework/06 RoleManagement.sol\":1076:1196  function getRole(address user) public view returns (Role) {... */\n    tag_14:\n        /* \"contracts/homework/06 RoleManagement.sol\":1128:1132  Role */\n      0x00\n        /* \"contracts/homework/06 RoleManagement.sol\":1177:1182  roles */\n      0x00\n        /* \"contracts/homework/06 RoleManagement.sol\":1177:1188  roles[user] */\n      0x00\n        /* \"contracts/homework/06 RoleManagement.sol\":1183:1187  user */\n      dup4\n        /* \"contracts/homework/06 RoleManagement.sol\":1177:1188  roles[user] */\n      0xffffffffffffffffffffffffffffffffffffffff\n      and\n      0xffffffffffffffffffffffffffffffffffffffff\n      and\n      dup2\n      mstore\n      0x20\n      add\n      swap1\n      dup2\n      mstore\n      0x20\n      add\n      0x00\n      keccak256\n      0x00\n      swap1\n      sload\n      swap1\n      0x0100\n      exp\n      swap1\n      div\n      0xff\n      and\n        /* \"contracts/homework/06 RoleManagement.sol\":1170:1188  return roles[user] */\n      swap1\n      pop\n        /* \"contracts/homework/06 RoleManagement.sol\":1076:1196  function getRole(address user) public view returns (Role) {... */\n      swap2\n      swap1\n      pop\n      jump\t// out\n        /* \"contracts/homework/06 RoleManagement.sol\":813:934  function addAdmin(address user) public onlyOwner {... */\n    tag_19:\n        /* \"contracts/homework/06 RoleManagement.sol\":512:522  Role.Owner */\n      0x03\n        /* \"contracts/homework/06 RoleManagement.sol\":496:522  roles[owner] == Role.Owner */\n      dup1\n      dup2\n      gt\n      iszero\n      tag_47\n      jumpi\n      tag_48\n      tag_31\n      jump\t// in\n    tag_48:\n    tag_47:\n        /* \"contracts/homework/06 RoleManagement.sol\":496:501  roles */\n      0x00\n        /* \"contracts/homework/06 RoleManagement.sol\":496:508  roles[owner] */\n      0x00\n        /* \"contracts/homework/06 RoleManagement.sol\":502:507  owner */\n      0x01\n      0x00\n      swap1\n      sload\n      swap1\n      0x0100\n      exp\n      swap1\n      div\n      0xffffffffffffffffffffffffffffffffffffffff\n      and\n        /* \"contracts/homework/06 RoleManagement.sol\":496:508  roles[owner] */\n      0xffffffffffffffffffffffffffffffffffffffff\n      and\n      0xffffffffffffffffffffffffffffffffffffffff\n      and\n      dup2\n      mstore\n      0x20\n      add\n      swap1\n      dup2\n      mstore\n      0x20\n      add\n      0x00\n      keccak256\n      0x00\n      swap1\n      sload\n      swap1\n      0x0100\n      exp\n      swap1\n      div\n      0xff\n      and\n        /* \"contracts/homework/06 RoleManagement.sol\":496:522  roles[owner] == Role.Owner */\n      0x03\n      dup2\n      gt\n      iszero\n      tag_49\n      jumpi\n      tag_50\n      tag_31\n      jump\t// in\n    tag_50:\n    tag_49:\n      eq\n        /* \"contracts/homework/06 RoleManagement.sol\":488:546  require(roles[owner] == Role.Owner, \"user is not a owner\") */\n      tag_51\n      jumpi\n      mload(0x40)\n      0x08c379a000000000000000000000000000000000000000000000000000000000\n      dup2\n      mstore\n      0x04\n      add\n      tag_52\n      swap1\n      tag_53\n      jump\t// in\n    tag_52:\n      mload(0x40)\n      dup1\n      swap2\n      sub\n      swap1\n      revert\n    tag_51:\n        /* \"contracts/homework/06 RoleManagement.sol\":916:926  Role.Admin */\n      0x02\n        /* \"contracts/homework/06 RoleManagement.sol\":902:907  roles */\n      0x00\n        /* \"contracts/homework/06 RoleManagement.sol\":902:913  roles[user] */\n      0x00\n        /* \"contracts/homework/06 RoleManagement.sol\":908:912  user */\n      dup4\n        /* \"contracts/homework/06 RoleManagement.sol\":902:913  roles[user] */\n      0xffffffffffffffffffffffffffffffffffffffff\n      and\n      0xffffffffffffffffffffffffffffffffffffffff\n      and\n      dup2\n      mstore\n      0x20\n      add\n      swap1\n      dup2\n      mstore\n      0x20\n      add\n      0x00\n      keccak256\n      0x00\n        /* \"contracts/homework/06 RoleManagement.sol\":902:926  roles[user] = Role.Admin */\n      0x0100\n      exp\n      dup2\n      sload\n      dup2\n      0xff\n      mul\n      not\n      and\n      swap1\n      dup4\n      0x03\n      dup2\n      gt\n      iszero\n      tag_55\n      jumpi\n      tag_56\n      tag_31\n      jump\t// in\n    tag_56:\n    tag_55:\n      mul\n      or\n      swap1\n      sstore\n      pop\n        /* \"contracts/homework/06 RoleManagement.sol\":813:934  function addAdmin(address user) public onlyOwner {... */\n      pop\n      jump\t// out\n        /* \"contracts/homework/06 RoleManagement.sol\":257:277  address public owner */\n    tag_21:\n      0x01\n      0x00\n      swap1\n      sload\n      swap1\n      0x0100\n      exp\n      swap1\n      div\n      0xffffffffffffffffffffffffffffffffffffffff\n      and\n      dup2\n      jump\t// out\n        /* \"contracts/homework/06 RoleManagement.sol\":207:244  mapping(address => Role) public roles */\n    tag_26:\n      mstore(0x20, 0x00)\n      dup1\n      0x00\n      mstore\n      keccak256(0x00, 0x40)\n      0x00\n      swap2\n      pop\n      sload\n      swap1\n      0x0100\n      exp\n      swap1\n      div\n      0xff\n      and\n      dup2\n      jump\t// out\n        /* \"#utility.yul\":88:205   */\n    tag_58:\n        /* \"#utility.yul\":197:198   */\n      0x00\n        /* \"#utility.yul\":194:195   */\n      0x00\n        /* \"#utility.yul\":187:199   */\n      revert\n        /* \"#utility.yul\":334:460   */\n    tag_60:\n        /* \"#utility.yul\":371:378   */\n      0x00\n        /* \"#utility.yul\":411:453   */\n      0xffffffffffffffffffffffffffffffffffffffff\n        /* \"#utility.yul\":404:409   */\n      dup3\n        /* \"#utility.yul\":400:454   */\n      and\n        /* \"#utility.yul\":389:454   */\n      swap1\n      pop\n        /* \"#utility.yul\":334:460   */\n      swap2\n      swap1\n      pop\n      jump\t// out\n        /* \"#utility.yul\":466:562   */\n    tag_61:\n        /* \"#utility.yul\":503:510   */\n      0x00\n        /* \"#utility.yul\":532:556   */\n      tag_80\n        /* \"#utility.yul\":550:555   */\n      dup3\n        /* \"#utility.yul\":532:556   */\n      tag_60\n      jump\t// in\n    tag_80:\n        /* \"#utility.yul\":521:556   */\n      swap1\n      pop\n        /* \"#utility.yul\":466:562   */\n      swap2\n      swap1\n      pop\n      jump\t// out\n        /* \"#utility.yul\":568:690   */\n    tag_62:\n        /* \"#utility.yul\":641:665   */\n      tag_82\n        /* \"#utility.yul\":659:664   */\n      dup2\n        /* \"#utility.yul\":641:665   */\n      tag_61\n      jump\t// in\n    tag_82:\n        /* \"#utility.yul\":634:639   */\n      dup2\n        /* \"#utility.yul\":631:666   */\n      eq\n        /* \"#utility.yul\":621:684   */\n      tag_83\n      jumpi\n        /* \"#utility.yul\":680:681   */\n      0x00\n        /* \"#utility.yul\":677:678   */\n      0x00\n        /* \"#utility.yul\":670:682   */\n      revert\n        /* \"#utility.yul\":621:684   */\n    tag_83:\n        /* \"#utility.yul\":568:690   */\n      pop\n      jump\t// out\n        /* \"#utility.yul\":696:835   */\n    tag_63:\n        /* \"#utility.yul\":742:747   */\n      0x00\n        /* \"#utility.yul\":780:786   */\n      dup2\n        /* \"#utility.yul\":767:787   */\n      calldataload\n        /* \"#utility.yul\":758:787   */\n      swap1\n      pop\n        /* \"#utility.yul\":796:829   */\n      tag_85\n        /* \"#utility.yul\":823:828   */\n      dup2\n        /* \"#utility.yul\":796:829   */\n      tag_62\n      jump\t// in\n    tag_85:\n        /* \"#utility.yul\":696:835   */\n      swap3\n      swap2\n      pop\n      pop\n      jump\t// out\n        /* \"#utility.yul\":841:1170   */\n    tag_10:\n        /* \"#utility.yul\":900:906   */\n      0x00\n        /* \"#utility.yul\":949:951   */\n      0x20\n        /* \"#utility.yul\":937:946   */\n      dup3\n        /* \"#utility.yul\":928:935   */\n      dup5\n        /* \"#utility.yul\":924:947   */\n      sub\n        /* \"#utility.yul\":920:952   */\n      slt\n        /* \"#utility.yul\":917:1036   */\n      iszero\n      tag_87\n      jumpi\n        /* \"#utility.yul\":955:1034   */\n      tag_88\n      tag_58\n      jump\t// in\n    tag_88:\n        /* \"#utility.yul\":917:1036   */\n    tag_87:\n        /* \"#utility.yul\":1075:1076   */\n      0x00\n        /* \"#utility.yul\":1100:1153   */\n      tag_89\n        /* \"#utility.yul\":1145:1152   */\n      dup5\n        /* \"#utility.yul\":1136:1142   */\n      dup3\n        /* \"#utility.yul\":1125:1134   */\n      dup6\n        /* \"#utility.yul\":1121:1143   */\n      add\n        /* \"#utility.yul\":1100:1153   */\n      tag_63\n      jump\t// in\n    tag_89:\n        /* \"#utility.yul\":1090:1153   */\n      swap2\n      pop\n        /* \"#utility.yul\":1046:1163   */\n      pop\n        /* \"#utility.yul\":841:1170   */\n      swap3\n      swap2\n      pop\n      pop\n      jump\t// out\n        /* \"#utility.yul\":1176:1356   */\n    tag_31:\n        /* \"#utility.yul\":1224:1301   */\n      0x4e487b7100000000000000000000000000000000000000000000000000000000\n        /* \"#utility.yul\":1221:1222   */\n      0x00\n        /* \"#utility.yul\":1214:1302   */\n      mstore\n        /* \"#utility.yul\":1321:1325   */\n      0x21\n        /* \"#utility.yul\":1318:1319   */\n      0x04\n        /* \"#utility.yul\":1311:1326   */\n      mstore\n        /* \"#utility.yul\":1345:1349   */\n      0x24\n        /* \"#utility.yul\":1342:1343   */\n      0x00\n        /* \"#utility.yul\":1335:1350   */\n      revert\n        /* \"#utility.yul\":1362:1473   */\n    tag_64:\n        /* \"#utility.yul\":1441:1442   */\n      0x04\n        /* \"#utility.yul\":1434:1439   */\n      dup2\n        /* \"#utility.yul\":1431:1443   */\n      lt\n        /* \"#utility.yul\":1421:1467   */\n      tag_92\n      jumpi\n        /* \"#utility.yul\":1447:1465   */\n      tag_93\n      tag_31\n      jump\t// in\n    tag_93:\n        /* \"#utility.yul\":1421:1467   */\n    tag_92:\n        /* \"#utility.yul\":1362:1473   */\n      pop\n      jump\t// out\n        /* \"#utility.yul\":1479:1602   */\n    tag_65:\n        /* \"#utility.yul\":1522:1529   */\n      0x00\n        /* \"#utility.yul\":1551:1556   */\n      dup2\n        /* \"#utility.yul\":1540:1556   */\n      swap1\n      pop\n        /* \"#utility.yul\":1557:1596   */\n      tag_95\n        /* \"#utility.yul\":1590:1595   */\n      dup3\n        /* \"#utility.yul\":1557:1596   */\n      tag_64\n      jump\t// in\n    tag_95:\n        /* \"#utility.yul\":1479:1602   */\n      swap2\n      swap1\n      pop\n      jump\t// out\n        /* \"#utility.yul\":1608:1731   */\n    tag_66:\n        /* \"#utility.yul\":1662:1671   */\n      0x00\n        /* \"#utility.yul\":1695:1725   */\n      tag_97\n        /* \"#utility.yul\":1719:1724   */\n      dup3\n        /* \"#utility.yul\":1695:1725   */\n      tag_65\n      jump\t// in\n    tag_97:\n        /* \"#utility.yul\":1682:1725   */\n      swap1\n      pop\n        /* \"#utility.yul\":1608:1731   */\n      swap2\n      swap1\n      pop\n      jump\t// out\n        /* \"#utility.yul\":1737:1876   */\n    tag_67:\n        /* \"#utility.yul\":1828:1869   */\n      tag_99\n        /* \"#utility.yul\":1863:1868   */\n      dup2\n        /* \"#utility.yul\":1828:1869   */\n      tag_66\n      jump\t// in\n    tag_99:\n        /* \"#utility.yul\":1823:1826   */\n      dup3\n        /* \"#utility.yul\":1816:1870   */\n      mstore\n        /* \"#utility.yul\":1737:1876   */\n      pop\n      pop\n      jump\t// out\n        /* \"#utility.yul\":1882:2112   */\n    tag_16:\n        /* \"#utility.yul\":1979:1983   */\n      0x00\n        /* \"#utility.yul\":2017:2019   */\n      0x20\n        /* \"#utility.yul\":2006:2015   */\n      dup3\n        /* \"#utility.yul\":2002:2020   */\n      add\n        /* \"#utility.yul\":1994:2020   */\n      swap1\n      pop\n        /* \"#utility.yul\":2030:2105   */\n      tag_101\n        /* \"#utility.yul\":2102:2103   */\n      0x00\n        /* \"#utility.yul\":2091:2100   */\n      dup4\n        /* \"#utility.yul\":2087:2104   */\n      add\n        /* \"#utility.yul\":2078:2084   */\n      dup5\n        /* \"#utility.yul\":2030:2105   */\n      tag_67\n      jump\t// in\n    tag_101:\n        /* \"#utility.yul\":1882:2112   */\n      swap3\n      swap2\n      pop\n      pop\n      jump\t// out\n        /* \"#utility.yul\":2118:2236   */\n    tag_68:\n        /* \"#utility.yul\":2205:2229   */\n      tag_103\n        /* \"#utility.yul\":2223:2228   */\n      dup2\n        /* \"#utility.yul\":2205:2229   */\n      tag_61\n      jump\t// in\n    tag_103:\n        /* \"#utility.yul\":2200:2203   */\n      dup3\n        /* \"#utility.yul\":2193:2230   */\n      mstore\n        /* \"#utility.yul\":2118:2236   */\n      pop\n      pop\n      jump\t// out\n        /* \"#utility.yul\":2242:2464   */\n    tag_23:\n        /* \"#utility.yul\":2335:2339   */\n      0x00\n        /* \"#utility.yul\":2373:2375   */\n      0x20\n        /* \"#utility.yul\":2362:2371   */\n      dup3\n        /* \"#utility.yul\":2358:2376   */\n      add\n        /* \"#utility.yul\":2350:2376   */\n      swap1\n      pop\n        /* \"#utility.yul\":2386:2457   */\n      tag_105\n        /* \"#utility.yul\":2454:2455   */\n      0x00\n        /* \"#utility.yul\":2443:2452   */\n      dup4\n        /* \"#utility.yul\":2439:2456   */\n      add\n        /* \"#utility.yul\":2430:2436   */\n      dup5\n        /* \"#utility.yul\":2386:2457   */\n      tag_68\n      jump\t// in\n    tag_105:\n        /* \"#utility.yul\":2242:2464   */\n      swap3\n      swap2\n      pop\n      pop\n      jump\t// out\n        /* \"#utility.yul\":2470:2639   */\n    tag_69:\n        /* \"#utility.yul\":2554:2565   */\n      0x00\n        /* \"#utility.yul\":2588:2594   */\n      dup3\n        /* \"#utility.yul\":2583:2586   */\n      dup3\n        /* \"#utility.yul\":2576:2595   */\n      mstore\n        /* \"#utility.yul\":2628:2632   */\n      0x20\n        /* \"#utility.yul\":2623:2626   */\n      dup3\n        /* \"#utility.yul\":2619:2633   */\n      add\n        /* \"#utility.yul\":2604:2633   */\n      swap1\n      pop\n        /* \"#utility.yul\":2470:2639   */\n      swap3\n      swap2\n      pop\n      pop\n      jump\t// out\n        /* \"#utility.yul\":2645:2823   */\n    tag_70:\n        /* \"#utility.yul\":2785:2815   */\n      0x75736572206973206e6f742061206f776e6572206f722061646d696e00000000\n        /* \"#utility.yul\":2781:2782   */\n      0x00\n        /* \"#utility.yul\":2773:2779   */\n      dup3\n        /* \"#utility.yul\":2769:2783   */\n      add\n        /* \"#utility.yul\":2762:2816   */\n      mstore\n        /* \"#utility.yul\":2645:2823   */\n      pop\n      jump\t// out\n        /* \"#utility.yul\":2829:3195   */\n    tag_71:\n        /* \"#utility.yul\":2971:2974   */\n      0x00\n        /* \"#utility.yul\":2992:3059   */\n      tag_109\n        /* \"#utility.yul\":3056:3058   */\n      0x1c\n        /* \"#utility.yul\":3051:3054   */\n      dup4\n        /* \"#utility.yul\":2992:3059   */\n      tag_69\n      jump\t// in\n    tag_109:\n        /* \"#utility.yul\":2985:3059   */\n      swap2\n      pop\n        /* \"#utility.yul\":3068:3161   */\n      tag_110\n        /* \"#utility.yul\":3157:3160   */\n      dup3\n        /* \"#utility.yul\":3068:3161   */\n      tag_70\n      jump\t// in\n    tag_110:\n        /* \"#utility.yul\":3186:3188   */\n      0x20\n        /* \"#utility.yul\":3181:3184   */\n      dup3\n        /* \"#utility.yul\":3177:3189   */\n      add\n        /* \"#utility.yul\":3170:3189   */\n      swap1\n      pop\n        /* \"#utility.yul\":2829:3195   */\n      swap2\n      swap1\n      pop\n      jump\t// out\n        /* \"#utility.yul\":3201:3620   */\n    tag_41:\n        /* \"#utility.yul\":3367:3371   */\n      0x00\n        /* \"#utility.yul\":3405:3407   */\n      0x20\n        /* \"#utility.yul\":3394:3403   */\n      dup3\n        /* \"#utility.yul\":3390:3408   */\n      add\n        /* \"#utility.yul\":3382:3408   */\n      swap1\n      pop\n        /* \"#utility.yul\":3454:3463   */\n      dup2\n        /* \"#utility.yul\":3448:3452   */\n      dup2\n        /* \"#utility.yul\":3444:3464   */\n      sub\n        /* \"#utility.yul\":3440:3441   */\n      0x00\n        /* \"#utility.yul\":3429:3438   */\n      dup4\n        /* \"#utility.yul\":3425:3442   */\n      add\n        /* \"#utility.yul\":3418:3465   */\n      mstore\n        /* \"#utility.yul\":3482:3613   */\n      tag_112\n        /* \"#utility.yul\":3608:3612   */\n      dup2\n        /* \"#utility.yul\":3482:3613   */\n      tag_71\n      jump\t// in\n    tag_112:\n        /* \"#utility.yul\":3474:3613   */\n      swap1\n      pop\n        /* \"#utility.yul\":3201:3620   */\n      swap2\n      swap1\n      pop\n      jump\t// out\n        /* \"#utility.yul\":3626:3795   */\n    tag_72:\n        /* \"#utility.yul\":3766:3787   */\n      0x75736572206973206e6f742061206f776e657200000000000000000000000000\n        /* \"#utility.yul\":3762:3763   */\n      0x00\n        /* \"#utility.yul\":3754:3760   */\n      dup3\n        /* \"#utility.yul\":3750:3764   */\n      add\n        /* \"#utility.yul\":3743:3788   */\n      mstore\n        /* \"#utility.yul\":3626:3795   */\n      pop\n      jump\t// out\n        /* \"#utility.yul\":3801:4167   */\n    tag_73:\n        /* \"#utility.yul\":3943:3946   */\n      0x00\n        /* \"#utility.yul\":3964:4031   */\n      tag_115\n        /* \"#utility.yul\":4028:4030   */\n      0x13\n        /* \"#utility.yul\":4023:4026   */\n      dup4\n        /* \"#utility.yul\":3964:4031   */\n      tag_69\n      jump\t// in\n    tag_115:\n        /* \"#utility.yul\":3957:4031   */\n      swap2\n      pop\n        /* \"#utility.yul\":4040:4133   */\n      tag_116\n        /* \"#utility.yul\":4129:4132   */\n      dup3\n        /* \"#utility.yul\":4040:4133   */\n      tag_72\n      jump\t// in\n    tag_116:\n        /* \"#utility.yul\":4158:4160   */\n      0x20\n        /* \"#utility.yul\":4153:4156   */\n      dup3\n        /* \"#utility.yul\":4149:4161   */\n      add\n        /* \"#utility.yul\":4142:4161   */\n      swap1\n      pop\n        /* \"#utility.yul\":3801:4167   */\n      swap2\n      swap1\n      pop\n      jump\t// out\n        /* \"#utility.yul\":4173:4592   */\n    tag_53:\n        /* \"#utility.yul\":4339:4343   */\n      0x00\n        /* \"#utility.yul\":4377:4379   */\n      0x20\n        /* \"#utility.yul\":4366:4375   */\n      dup3\n        /* \"#utility.yul\":4362:4380   */\n      add\n        /* \"#utility.yul\":4354:4380   */\n      swap1\n      pop\n        /* \"#utility.yul\":4426:4435   */\n      dup2\n        /* \"#utility.yul\":4420:4424   */\n      dup2\n        /* \"#utility.yul\":4416:4436   */\n      sub\n        /* \"#utility.yul\":4412:4413   */\n      0x00\n        /* \"#utility.yul\":4401:4410   */\n      dup4\n        /* \"#utility.yul\":4397:4414   */\n      add\n        /* \"#utility.yul\":4390:4437   */\n      mstore\n        /* \"#utility.yul\":4454:4585   */\n      tag_118\n        /* \"#utility.yul\":4580:4584   */\n      dup2\n        /* \"#utility.yul\":4454:4585   */\n      tag_73\n      jump\t// in\n    tag_118:\n        /* \"#utility.yul\":4446:4585   */\n      swap1\n      pop\n        /* \"#utility.yul\":4173:4592   */\n      swap2\n      swap1\n      pop\n      jump\t// out\n\n    auxdata: 0xa2646970667358221220a139e9eb199887379fcb5db3f392ebd8786a79c2e05bb22415c0fea5eb671c9d64736f6c634300081e0033\n}\n",
				"bytecode": {
					"linkReferences": {},
					"object": "6080604052348015600e575f5ffd5b503360015f6101000a81548173ffffffffffffffffffffffffffffffffffffffff021916908373ffffffffffffffffffffffffffffffffffffffff16021790555060035f5f3373ffffffffffffffffffffffffffffffffffffffff1673ffffffffffffffffffffffffffffffffffffffff1681526020019081526020015f205f6101000a81548160ff0219169083600381111560ab5760aa60b4565b5b021790555060e1565b7f4e487b71000000000000000000000000000000000000000000000000000000005f52602160045260245ffd5b6106f8806100ee5f395ff3fe608060405234801561000f575f5ffd5b5060043610610055575f3560e01c8063421b2d8b14610059578063442767331461007557806370480275146100a55780638da5cb5b146100c157806399374642146100df575b5f5ffd5b610073600480360381019061006e9190610503565b61010f565b005b61008f600480360381019061008a9190610503565b6102dd565b60405161009c91906105a1565b60405180910390f35b6100bf60048036038101906100ba9190610503565b61032e565b005b6100c9610464565b6040516100d691906105c9565b60405180910390f35b6100f960048036038101906100f49190610503565b610489565b60405161010691906105a1565b60405180910390f35b6003808111156101225761012161052e565b5b5f5f60015f9054906101000a900473ffffffffffffffffffffffffffffffffffffffff1673ffffffffffffffffffffffffffffffffffffffff1673ffffffffffffffffffffffffffffffffffffffff1681526020019081526020015f205f9054906101000a900460ff16600381111561019e5761019d61052e565b5b14806102375750600260038111156101b9576101b861052e565b5b5f5f60015f9054906101000a900473ffffffffffffffffffffffffffffffffffffffff1673ffffffffffffffffffffffffffffffffffffffff1673ffffffffffffffffffffffffffffffffffffffff1681526020019081526020015f205f9054906101000a900460ff1660038111156102355761023461052e565b5b145b610276576040517f08c379a000000000000000000000000000000000000000000000000000000000815260040161026d9061063c565b60405180910390fd5b60015f5f8373ffffffffffffffffffffffffffffffffffffffff1673ffffffffffffffffffffffffffffffffffffffff1681526020019081526020015f205f6101000a81548160ff021916908360038111156102d5576102d461052e565b5b021790555050565b5f5f5f8373ffffffffffffffffffffffffffffffffffffffff1673ffffffffffffffffffffffffffffffffffffffff1681526020019081526020015f205f9054906101000a900460ff169050919050565b6003808111156103415761034061052e565b5b5f5f60015f9054906101000a900473ffffffffffffffffffffffffffffffffffffffff1673ffffffffffffffffffffffffffffffffffffffff1673ffffffffffffffffffffffffffffffffffffffff1681526020019081526020015f205f9054906101000a900460ff1660038111156103bd576103bc61052e565b5b146103fd576040517f08c379a00000000000000000000000000000000000000000000000000000000081526004016103f4906106a4565b60405180910390fd5b60025f5f8373ffffffffffffffffffffffffffffffffffffffff1673ffffffffffffffffffffffffffffffffffffffff1681526020019081526020015f205f6101000a81548160ff0219169083600381111561045c5761045b61052e565b5b021790555050565b60015f9054906101000a900473ffffffffffffffffffffffffffffffffffffffff1681565b5f602052805f5260405f205f915054906101000a900460ff1681565b5f5ffd5b5f73ffffffffffffffffffffffffffffffffffffffff82169050919050565b5f6104d2826104a9565b9050919050565b6104e2816104c8565b81146104ec575f5ffd5b50565b5f813590506104fd816104d9565b92915050565b5f60208284031215610518576105176104a5565b5b5f610525848285016104ef565b91505092915050565b7f4e487b71000000000000000000000000000000000000000000000000000000005f52602160045260245ffd5b6004811061056c5761056b61052e565b5b50565b5f81905061057c8261055b565b919050565b5f61058b8261056f565b9050919050565b61059b81610581565b82525050565b5f6020820190506105b45f830184610592565b92915050565b6105c3816104c8565b82525050565b5f6020820190506105dc5f8301846105ba565b92915050565b5f82825260208201905092915050565b7f75736572206973206e6f742061206f776e6572206f722061646d696e000000005f82015250565b5f610626601c836105e2565b9150610631826105f2565b602082019050919050565b5f6020820190508181035f8301526106538161061a565b9050919050565b7f75736572206973206e6f742061206f776e6572000000000000000000000000005f82015250565b5f61068e6013836105e2565b91506106998261065a565b602082019050919050565b5f6020820190508181035f8301526106bb81610682565b905091905056fea2646970667358221220a139e9eb199887379fcb5db3f392ebd8786a79c2e05bb22415c0fea5eb671c9d64736f6c634300081e0033",
					"opcodes": "PUSH1 0x80 PUSH1 0x40 MSTORE CALLVALUE DUP1 ISZERO PUSH1 0xE JUMPI PUSH0 PUSH0 REVERT JUMPDEST POP CALLER PUSH1 0x1 PUSH0 PUSH2 0x100 EXP DUP2 SLOAD DUP2 PUSH20 0xFFFFFFFFFFFFFFFFFFFFFFFFFFFFFFFFFFFFFFFF MUL NOT AND SWAP1 DUP4 PUSH20 0xFFFFFFFFFFFFFFFFFFFFFFFFFFFFFFFFFFFFFFFF AND MUL OR SWAP1 SSTORE POP PUSH1 0x3 PUSH0 PUSH0 CALLER PUSH20 0xFFFFFFFFFFFFFFFFFFFFFFFFFFFFFFFFFFFFFFFF AND PUSH20 0xFFFFFFFFFFFFFFFFFFFFFFFFFFFFFFFFFFFFFFFF AND DUP2 MSTORE PUSH1 0x20 ADD SWAP1 DUP2 MSTORE PUSH1 0x20 ADD PUSH0 KECCAK256 PUSH0 PUSH2 0x100 EXP DUP2 SLOAD DUP2 PUSH1 0xFF MUL NOT AND SWAP1 DUP4 PUSH1 0x3 DUP2 GT ISZERO PUSH1 0xAB JUMPI PUSH1 0xAA PUSH1 0xB4 JUMP JUMPDEST JUMPDEST MUL OR SWAP1 SSTORE POP PUSH1 0xE1 JUMP JUMPDEST PUSH32 0x4E487B7100000000000000000000000000000000000000000000000000000000 PUSH0 MSTORE PUSH1 0x21 PUSH1 0x4 MSTORE PUSH1 0x24 PUSH0 REVERT JUMPDEST PUSH2 0x6F8 DUP1 PUSH2 0xEE PUSH0 CODECOPY PUSH0 RETURN INVALID PUSH1 0x80 PUSH1 0x40 MSTORE CALLVALUE DUP1 ISZERO PUSH2 0xF JUMPI PUSH0 PUSH0 REVERT JUMPDEST POP PUSH1 0x4 CALLDATASIZE LT PUSH2 0x55 JUMPI PUSH0 CALLDATALOAD PUSH1 0xE0 SHR DUP1 PUSH4 0x421B2D8B EQ PUSH2 0x59 JUMPI DUP1 PUSH4 0x44276733 EQ PUSH2 0x75 JUMPI DUP1 PUSH4 0x70480275 EQ PUSH2 0xA5 JUMPI DUP1 PUSH4 0x8DA5CB5B EQ PUSH2 0xC1 JUMPI DUP1 PUSH4 0x99374642 EQ PUSH2 0xDF JUMPI JUMPDEST PUSH0 PUSH0 REVERT JUMPDEST PUSH2 0x73 PUSH1 0x4 DUP1 CALLDATASIZE SUB DUP2 ADD SWAP1 PUSH2 0x6E SWAP2 SWAP1 PUSH2 0x503 JUMP JUMPDEST PUSH2 0x10F JUMP JUMPDEST STOP JUMPDEST PUSH2 0x8F PUSH1 0x4 DUP1 CALLDATASIZE SUB DUP2 ADD SWAP1 PUSH2 0x8A SWAP2 SWAP1 PUSH2 0x503 JUMP JUMPDEST PUSH2 0x2DD JUMP JUMPDEST PUSH1 0x40 MLOAD PUSH2 0x9C SWAP2 SWAP1 PUSH2 0x5A1 JUMP JUMPDEST PUSH1 0x40 MLOAD DUP1 SWAP2 SUB SWAP1 RETURN JUMPDEST PUSH2 0xBF PUSH1 0x4 DUP1 CALLDATASIZE SUB DUP2 ADD SWAP1 PUSH2 0xBA SWAP2 SWAP1 PUSH2 0x503 JUMP JUMPDEST PUSH2 0x32E JUMP JUMPDEST STOP JUMPDEST PUSH2 0xC9 PUSH2 0x464 JUMP JUMPDEST PUSH1 0x40 MLOAD PUSH2 0xD6 SWAP2 SWAP1 PUSH2 0x5C9 JUMP JUMPDEST PUSH1 0x40 MLOAD DUP1 SWAP2 SUB SWAP1 RETURN JUMPDEST PUSH2 0xF9 PUSH1 0x4 DUP1 CALLDATASIZE SUB DUP2 ADD SWAP1 PUSH2 0xF4 SWAP2 SWAP1 PUSH2 0x503 JUMP JUMPDEST PUSH2 0x489 JUMP JUMPDEST PUSH1 0x40 MLOAD PUSH2 0x106 SWAP2 SWAP1 PUSH2 0x5A1 JUMP JUMPDEST PUSH1 0x40 MLOAD DUP1 SWAP2 SUB SWAP1 RETURN JUMPDEST PUSH1 0x3 DUP1 DUP2 GT ISZERO PUSH2 0x122 JUMPI PUSH2 0x121 PUSH2 0x52E JUMP JUMPDEST JUMPDEST PUSH0 PUSH0 PUSH1 0x1 PUSH0 SWAP1 SLOAD SWAP1 PUSH2 0x100 EXP SWAP1 DIV PUSH20 0xFFFFFFFFFFFFFFFFFFFFFFFFFFFFFFFFFFFFFFFF AND PUSH20 0xFFFFFFFFFFFFFFFFFFFFFFFFFFFFFFFFFFFFFFFF AND PUSH20 0xFFFFFFFFFFFFFFFFFFFFFFFFFFFFFFFFFFFFFFFF AND DUP2 MSTORE PUSH1 0x20 ADD SWAP1 DUP2 MSTORE PUSH1 0x20 ADD PUSH0 KECCAK256 PUSH0 SWAP1 SLOAD SWAP1 PUSH2 0x100 EXP SWAP1 DIV PUSH1 0xFF AND PUSH1 0x3 DUP2 GT ISZERO PUSH2 0x19E JUMPI PUSH2 0x19D PUSH2 0x52E JUMP JUMPDEST JUMPDEST EQ DUP1 PUSH2 0x237 JUMPI POP PUSH1 0x2 PUSH1 0x3 DUP2 GT ISZERO PUSH2 0x1B9 JUMPI PUSH2 0x1B8 PUSH2 0x52E JUMP JUMPDEST JUMPDEST PUSH0 PUSH0 PUSH1 0x1 PUSH0 SWAP1 SLOAD SWAP1 PUSH2 0x100 EXP SWAP1 DIV PUSH20 0xFFFFFFFFFFFFFFFFFFFFFFFFFFFFFFFFFFFFFFFF AND PUSH20 0xFFFFFFFFFFFFFFFFFFFFFFFFFFFFFFFFFFFFFFFF AND PUSH20 0xFFFFFFFFFFFFFFFFFFFFFFFFFFFFFFFFFFFFFFFF AND DUP2 MSTORE PUSH1 0x20 ADD SWAP1 DUP2 MSTORE PUSH1 0x20 ADD PUSH0 KECCAK256 PUSH0 SWAP1 SLOAD SWAP1 PUSH2 0x100 EXP SWAP1 DIV PUSH1 0xFF AND PUSH1 0x3 DUP2 GT ISZERO PUSH2 0x235 JUMPI PUSH2 0x234 PUSH2 0x52E JUMP JUMPDEST JUMPDEST EQ JUMPDEST PUSH2 0x276 JUMPI PUSH1 0x40 MLOAD PUSH32 0x8C379A000000000000000000000000000000000000000000000000000000000 DUP2 MSTORE PUSH1 0x4 ADD PUSH2 0x26D SWAP1 PUSH2 0x63C JUMP JUMPDEST PUSH1 0x40 MLOAD DUP1 SWAP2 SUB SWAP1 REVERT JUMPDEST PUSH1 0x1 PUSH0 PUSH0 DUP4 PUSH20 0xFFFFFFFFFFFFFFFFFFFFFFFFFFFFFFFFFFFFFFFF AND PUSH20 0xFFFFFFFFFFFFFFFFFFFFFFFFFFFFFFFFFFFFFFFF AND DUP2 MSTORE PUSH1 0x20 ADD SWAP1 DUP2 MSTORE PUSH1 0x20 ADD PUSH0 KECCAK256 PUSH0 PUSH2 0x100 EXP DUP2 SLOAD DUP2 PUSH1 0xFF MUL NOT AND SWAP1 DUP4 PUSH1 0x3 DUP2 GT ISZERO PUSH2 0x2D5 JUMPI PUSH2 0x2D4 PUSH2 0x52E JUMP JUMPDEST JUMPDEST MUL OR SWAP1 SSTORE POP POP JUMP JUMPDEST PUSH0 PUSH0 PUSH0 DUP4 PUSH20 0xFFFFFFFFFFFFFFFFFFFFFFFFFFFFFFFFFFFFFFFF AND PUSH20 0xFFFFFFFFFFFFFFFFFFFFFFFFFFFFFFFFFFFFFFFF AND DUP2 MSTORE PUSH1 0x20 ADD SWAP1 DUP2 MSTORE PUSH1 0x20 ADD PUSH0 KECCAK256 PUSH0 SWAP1 SLOAD SWAP1 PUSH2 0x100 EXP SWAP1 DIV PUSH1 0xFF AND SWAP1 POP SWAP2 SWAP1 POP JUMP JUMPDEST PUSH1 0x3 DUP1 DUP2 GT ISZERO PUSH2 0x341 JUMPI PUSH2 0x340 PUSH2 0x52E JUMP JUMPDEST JUMPDEST PUSH0 PUSH0 PUSH1 0x1 PUSH0 SWAP1 SLOAD SWAP1 PUSH2 0x100 EXP SWAP1 DIV PUSH20 0xFFFFFFFFFFFFFFFFFFFFFFFFFFFFFFFFFFFFFFFF AND PUSH20 0xFFFFFFFFFFFFFFFFFFFFFFFFFFFFFFFFFFFFFFFF AND PUSH20 0xFFFFFFFFFFFFFFFFFFFFFFFFFFFFFFFFFFFFFFFF AND DUP2 MSTORE PUSH1 0x20 ADD SWAP1 DUP2 MSTORE PUSH1 0x20 ADD PUSH0 KECCAK256 PUSH0 SWAP1 SLOAD SWAP1 PUSH2 0x100 EXP SWAP1 DIV PUSH1 0xFF AND PUSH1 0x3 DUP2 GT ISZERO PUSH2 0x3BD JUMPI PUSH2 0x3BC PUSH2 0x52E JUMP JUMPDEST JUMPDEST EQ PUSH2 0x3FD JUMPI PUSH1 0x40 MLOAD PUSH32 0x8C379A000000000000000000000000000000000000000000000000000000000 DUP2 MSTORE PUSH1 0x4 ADD PUSH2 0x3F4 SWAP1 PUSH2 0x6A4 JUMP JUMPDEST PUSH1 0x40 MLOAD DUP1 SWAP2 SUB SWAP1 REVERT JUMPDEST PUSH1 0x2 PUSH0 PUSH0 DUP4 PUSH20 0xFFFFFFFFFFFFFFFFFFFFFFFFFFFFFFFFFFFFFFFF AND PUSH20 0xFFFFFFFFFFFFFFFFFFFFFFFFFFFFFFFFFFFFFFFF AND DUP2 MSTORE PUSH1 0x20 ADD SWAP1 DUP2 MSTORE PUSH1 0x20 ADD PUSH0 KECCAK256 PUSH0 PUSH2 0x100 EXP DUP2 SLOAD DUP2 PUSH1 0xFF MUL NOT AND SWAP1 DUP4 PUSH1 0x3 DUP2 GT ISZERO PUSH2 0x45C JUMPI PUSH2 0x45B PUSH2 0x52E JUMP JUMPDEST JUMPDEST MUL OR SWAP1 SSTORE POP POP JUMP JUMPDEST PUSH1 0x1 PUSH0 SWAP1 SLOAD SWAP1 PUSH2 0x100 EXP SWAP1 DIV PUSH20 0xFFFFFFFFFFFFFFFFFFFFFFFFFFFFFFFFFFFFFFFF AND DUP2 JUMP JUMPDEST PUSH0 PUSH1 0x20 MSTORE DUP1 PUSH0 MSTORE PUSH1 0x40 PUSH0 KECCAK256 PUSH0 SWAP2 POP SLOAD SWAP1 PUSH2 0x100 EXP SWAP1 DIV PUSH1 0xFF AND DUP2 JUMP JUMPDEST PUSH0 PUSH0 REVERT JUMPDEST PUSH0 PUSH20 0xFFFFFFFFFFFFFFFFFFFFFFFFFFFFFFFFFFFFFFFF DUP3 AND SWAP1 POP SWAP2 SWAP1 POP JUMP JUMPDEST PUSH0 PUSH2 0x4D2 DUP3 PUSH2 0x4A9 JUMP JUMPDEST SWAP1 POP SWAP2 SWAP1 POP JUMP JUMPDEST PUSH2 0x4E2 DUP2 PUSH2 0x4C8 JUMP JUMPDEST DUP2 EQ PUSH2 0x4EC JUMPI PUSH0 PUSH0 REVERT JUMPDEST POP JUMP JUMPDEST PUSH0 DUP2 CALLDATALOAD SWAP1 POP PUSH2 0x4FD DUP2 PUSH2 0x4D9 JUMP JUMPDEST SWAP3 SWAP2 POP POP JUMP JUMPDEST PUSH0 PUSH1 0x20 DUP3 DUP5 SUB SLT ISZERO PUSH2 0x518 JUMPI PUSH2 0x517 PUSH2 0x4A5 JUMP JUMPDEST JUMPDEST PUSH0 PUSH2 0x525 DUP5 DUP3 DUP6 ADD PUSH2 0x4EF JUMP JUMPDEST SWAP2 POP POP SWAP3 SWAP2 POP POP JUMP JUMPDEST PUSH32 0x4E487B7100000000000000000000000000000000000000000000000000000000 PUSH0 MSTORE PUSH1 0x21 PUSH1 0x4 MSTORE PUSH1 0x24 PUSH0 REVERT JUMPDEST PUSH1 0x4 DUP2 LT PUSH2 0x56C JUMPI PUSH2 0x56B PUSH2 0x52E JUMP JUMPDEST JUMPDEST POP JUMP JUMPDEST PUSH0 DUP2 SWAP1 POP PUSH2 0x57C DUP3 PUSH2 0x55B JUMP JUMPDEST SWAP2 SWAP1 POP JUMP JUMPDEST PUSH0 PUSH2 0x58B DUP3 PUSH2 0x56F JUMP JUMPDEST SWAP1 POP SWAP2 SWAP1 POP JUMP JUMPDEST PUSH2 0x59B DUP2 PUSH2 0x581 JUMP JUMPDEST DUP3 MSTORE POP POP JUMP JUMPDEST PUSH0 PUSH1 0x20 DUP3 ADD SWAP1 POP PUSH2 0x5B4 PUSH0 DUP4 ADD DUP5 PUSH2 0x592 JUMP JUMPDEST SWAP3 SWAP2 POP POP JUMP JUMPDEST PUSH2 0x5C3 DUP2 PUSH2 0x4C8 JUMP JUMPDEST DUP3 MSTORE POP POP JUMP JUMPDEST PUSH0 PUSH1 0x20 DUP3 ADD SWAP1 POP PUSH2 0x5DC PUSH0 DUP4 ADD DUP5 PUSH2 0x5BA JUMP JUMPDEST SWAP3 SWAP2 POP POP JUMP JUMPDEST PUSH0 DUP3 DUP3 MSTORE PUSH1 0x20 DUP3 ADD SWAP1 POP SWAP3 SWAP2 POP POP JUMP JUMPDEST PUSH32 0x75736572206973206E6F742061206F776E6572206F722061646D696E00000000 PUSH0 DUP3 ADD MSTORE POP JUMP JUMPDEST PUSH0 PUSH2 0x626 PUSH1 0x1C DUP4 PUSH2 0x5E2 JUMP JUMPDEST SWAP2 POP PUSH2 0x631 DUP3 PUSH2 0x5F2 JUMP JUMPDEST PUSH1 0x20 DUP3 ADD SWAP1 POP SWAP2 SWAP1 POP JUMP JUMPDEST PUSH0 PUSH1 0x20 DUP3 ADD SWAP1 POP DUP2 DUP2 SUB PUSH0 DUP4 ADD MSTORE PUSH2 0x653 DUP2 PUSH2 0x61A JUMP JUMPDEST SWAP1 POP SWAP2 SWAP1 POP JUMP JUMPDEST PUSH32 0x75736572206973206E6F742061206F776E657200000000000000000000000000 PUSH0 DUP3 ADD MSTORE POP JUMP JUMPDEST PUSH0 PUSH2 0x68E PUSH1 0x13 DUP4 PUSH2 0x5E2 JUMP JUMPDEST SWAP2 POP PUSH2 0x699 DUP3 PUSH2 0x65A JUMP JUMPDEST PUSH1 0x20 DUP3 ADD SWAP1 POP SWAP2 SWAP1 POP JUMP JUMPDEST PUSH0 PUSH1 0x20 DUP3 ADD SWAP1 POP DUP2 DUP2 SUB PUSH0 DUP4 ADD MSTORE PUSH2 0x6BB DUP2 PUSH2 0x682 JUMP JUMPDEST SWAP1 POP SWAP2 SWAP1 POP JUMP INVALID LOG2 PUSH5 0x6970667358 0x22 SLT KECCAK256 LOG1 CODECOPY 0xE9 0xEB NOT SWAP9 DUP8 CALLDATACOPY SWAP16 0xCB TSTORE 0xB3 RETURN SWAP3 0xEB 0xD8 PUSH25 0x6A79C2E05BB22415C0FEA5EB671C9D64736F6C634300081E00 CALLER "
				},
				"gasEstimates": {
					"creation": {
						"codeDepositCost": "356800",
						"executionCost": "49040",
						"totalCost": "405840"
					},
					"external": {
						"addAdmin(address)": "29276",
						"addUser(address)": "33669",
						"getRole(address)": "2957",
						"owner()": "2552",
						"roles(address)": "2986"
					}
				},
				"methodIdentifiers": {
					"addAdmin(address)": "70480275",
					"addUser(address)": "421b2d8b",
					"getRole(address)": "44276733",
					"owner()": "8da5cb5b",
					"roles(address)": "99374642"
				}
			},
			"storageLayout": {
				"storage": [
					{
						"astId": 11,
						"contract": "contracts/homework/06 RoleManagement.sol:RoleManagement",
						"label": "roles",
						"offset": 0,
						"slot": "0",
						"type": "t_mapping(t_address,t_enum(Role)6)"
					},
					{
						"astId": 13,
						"contract": "contracts/homework/06 RoleManagement.sol:RoleManagement",
						"label": "owner",
						"offset": 0,
						"slot": "1",
						"type": "t_address"
					}
				],
				"types": {
					"t_address": {
						"encoding": "inplace",
						"label": "address",
						"numberOfBytes": "20"
					},
					"t_enum(Role)6": {
						"encoding": "inplace",
						"label": "enum RoleManagement.Role",
						"numberOfBytes": "1"
					},
					"t_mapping(t_address,t_enum(Role)6)": {
						"encoding": "mapping",
						"key": "t_address",
						"label": "mapping(address => enum RoleManagement.Role)",
						"numberOfBytes": "32",
						"value": "t_enum(Role)6"
					}
				}
			},
			"userdoc": {
				"kind": "user",
				"methods": {},
				"version": 1
			}
		}
	}
}