{
	"contracts/lesson8.1/SimpleTokenSwap.sol": {
		"TokenSwap": {
			"abi": [
				{
					"inputs": [
						{
							"internalType": "address",
							"name": "_tokenA",
							"type": "address"
						},
						{
							"internalType": "address",
							"name": "_tokenB",
							"type": "address"
						}
					],
					"stateMutability": "nonpayable",
					"type": "constructor"
				},
				{
					"anonymous": false,
					"inputs": [
						{
							"indexed": true,
							"internalType": "address",
							"name": "user",
							"type": "address"
						},
						{
							"indexed": true,
							"internalType": "address",
							"name": "tokenIn",
							"type": "address"
						},
						{
							"indexed": true,
							"internalType": "address",
							"name": "tokenOut",
							"type": "address"
						},
						{
							"indexed": false,
							"internalType": "uint256",
							"name": "amountIn",
							"type": "uint256"
						},
						{
							"indexed": false,
							"internalType": "uint256",
							"name": "amountOut",
							"type": "uint256"
						}
					],
					"name": "Swap",
					"type": "event"
				},
				{
					"inputs": [],
					"name": "getContractBalances",
					"outputs": [
						{
							"internalType": "uint256",
							"name": "balanceA",
							"type": "uint256"
						},
						{
							"internalType": "uint256",
							"name": "balanceB",
							"type": "uint256"
						}
					],
					"stateMutability": "view",
					"type": "function"
				},
				{
					"inputs": [
						{
							"internalType": "address",
							"name": "user",
							"type": "address"
						}
					],
					"name": "getUserBalances",
					"outputs": [
						{
							"internalType": "uint256",
							"name": "balanceA",
							"type": "uint256"
						},
						{
							"internalType": "uint256",
							"name": "balanceB",
							"type": "uint256"
						}
					],
					"stateMutability": "view",
					"type": "function"
				},
				{
					"inputs": [
						{
							"internalType": "uint256",
							"name": "amountA",
							"type": "uint256"
						}
					],
					"name": "swap",
					"outputs": [],
					"stateMutability": "nonpayable",
					"type": "function"
				},
				{
					"inputs": [],
					"name": "tokenA",
					"outputs": [
						{
							"internalType": "contract IERC20",
							"name": "",
							"type": "address"
						}
					],
					"stateMutability": "view",
					"type": "function"
				},
				{
					"inputs": [],
					"name": "tokenB",
					"outputs": [
						{
							"internalType": "contract IERC20",
							"name": "",
							"type": "address"
						}
					],
					"stateMutability": "view",
					"type": "function"
				}
			],
			"devdoc": {
				"kind": "dev",
				"methods": {
					"getContractBalances()": {
						"returns": {
							"balanceA": "合约持有的tokenA数量",
							"balanceB": "合约持有的tokenB数量"
						}
					},
					"getUserBalances(address)": {
						"params": {
							"user": "要查询的用户地址"
						},
						"returns": {
							"balanceA": "用户的tokenA余额",
							"balanceB": "用户的tokenB余额"
						}
					},
					"swap(uint256)": {
						"details": "用户需要先调用tokenA的approve函数授权本合约使用其代币",
						"params": {
							"amountA": "要交换的tokenA数量"
						}
					}
				},
				"version": 1
			},
			"evm": {
				"assembly": "    /* \"contracts/lesson8.1/SimpleTokenSwap.sol\":2476:5507  contract TokenSwap {... */\n  mstore(0x40, 0x80)\n    /* \"contracts/lesson8.1/SimpleTokenSwap.sol\":2894:3158  constructor(address _tokenA, address _tokenB) {... */\n  callvalue\n  dup1\n  iszero\n  tag_1\n  jumpi\n  revert(0x00, 0x00)\ntag_1:\n  pop\n  mload(0x40)\n  sub(codesize, bytecodeSize)\n  dup1\n  bytecodeSize\n  dup4\n  codecopy\n  dup2\n  dup2\n  add\n  0x40\n  mstore\n  dup2\n  add\n  swap1\n  tag_2\n  swap2\n  swap1\n  tag_3\n  jump\t// in\ntag_2:\n    /* \"contracts/lesson8.1/SimpleTokenSwap.sol\":3107:3114  _tokenA */\n  dup2\n    /* \"contracts/lesson8.1/SimpleTokenSwap.sol\":3091:3097  tokenA */\n  0x00\n  0x00\n    /* \"contracts/lesson8.1/SimpleTokenSwap.sol\":3091:3115  tokenA = IERC20(_tokenA) */\n  0x0100\n  exp\n  dup2\n  sload\n  dup2\n  0xffffffffffffffffffffffffffffffffffffffff\n  mul\n  not\n  and\n  swap1\n  dup4\n  0xffffffffffffffffffffffffffffffffffffffff\n  and\n  mul\n  or\n  swap1\n  sstore\n  pop\n    /* \"contracts/lesson8.1/SimpleTokenSwap.sol\":3142:3149  _tokenB */\n  dup1\n    /* \"contracts/lesson8.1/SimpleTokenSwap.sol\":3126:3132  tokenB */\n  0x01\n  0x00\n    /* \"contracts/lesson8.1/SimpleTokenSwap.sol\":3126:3150  tokenB = IERC20(_tokenB) */\n  0x0100\n  exp\n  dup2\n  sload\n  dup2\n  0xffffffffffffffffffffffffffffffffffffffff\n  mul\n  not\n  and\n  swap1\n  dup4\n  0xffffffffffffffffffffffffffffffffffffffff\n  and\n  mul\n  or\n  swap1\n  sstore\n  pop\n    /* \"contracts/lesson8.1/SimpleTokenSwap.sol\":2894:3158  constructor(address _tokenA, address _tokenB) {... */\n  pop\n  pop\n    /* \"contracts/lesson8.1/SimpleTokenSwap.sol\":2476:5507  contract TokenSwap {... */\n  jump(tag_6)\n    /* \"#utility.yul\":88:205   */\ntag_8:\n    /* \"#utility.yul\":197:198   */\n  0x00\n    /* \"#utility.yul\":194:195   */\n  0x00\n    /* \"#utility.yul\":187:199   */\n  revert\n    /* \"#utility.yul\":334:460   */\ntag_10:\n    /* \"#utility.yul\":371:378   */\n  0x00\n    /* \"#utility.yul\":411:453   */\n  0xffffffffffffffffffffffffffffffffffffffff\n    /* \"#utility.yul\":404:409   */\n  dup3\n    /* \"#utility.yul\":400:454   */\n  and\n    /* \"#utility.yul\":389:454   */\n  swap1\n  pop\n    /* \"#utility.yul\":334:460   */\n  swap2\n  swap1\n  pop\n  jump\t// out\n    /* \"#utility.yul\":466:562   */\ntag_11:\n    /* \"#utility.yul\":503:510   */\n  0x00\n    /* \"#utility.yul\":532:556   */\n  tag_20\n    /* \"#utility.yul\":550:555   */\n  dup3\n    /* \"#utility.yul\":532:556   */\n  tag_10\n  jump\t// in\ntag_20:\n    /* \"#utility.yul\":521:556   */\n  swap1\n  pop\n    /* \"#utility.yul\":466:562   */\n  swap2\n  swap1\n  pop\n  jump\t// out\n    /* \"#utility.yul\":568:690   */\ntag_12:\n    /* \"#utility.yul\":641:665   */\n  tag_22\n    /* \"#utility.yul\":659:664   */\n  dup2\n    /* \"#utility.yul\":641:665   */\n  tag_11\n  jump\t// in\ntag_22:\n    /* \"#utility.yul\":634:639   */\n  dup2\n    /* \"#utility.yul\":631:666   */\n  eq\n    /* \"#utility.yul\":621:684   */\n  tag_23\n  jumpi\n    /* \"#utility.yul\":680:681   */\n  0x00\n    /* \"#utility.yul\":677:678   */\n  0x00\n    /* \"#utility.yul\":670:682   */\n  revert\n    /* \"#utility.yul\":621:684   */\ntag_23:\n    /* \"#utility.yul\":568:690   */\n  pop\n  jump\t// out\n    /* \"#utility.yul\":696:839   */\ntag_13:\n    /* \"#utility.yul\":753:758   */\n  0x00\n    /* \"#utility.yul\":784:790   */\n  dup2\n    /* \"#utility.yul\":778:791   */\n  mload\n    /* \"#utility.yul\":769:791   */\n  swap1\n  pop\n    /* \"#utility.yul\":800:833   */\n  tag_25\n    /* \"#utility.yul\":827:832   */\n  dup2\n    /* \"#utility.yul\":800:833   */\n  tag_12\n  jump\t// in\ntag_25:\n    /* \"#utility.yul\":696:839   */\n  swap3\n  swap2\n  pop\n  pop\n  jump\t// out\n    /* \"#utility.yul\":845:1352   */\ntag_3:\n    /* \"#utility.yul\":924:930   */\n  0x00\n    /* \"#utility.yul\":932:938   */\n  0x00\n    /* \"#utility.yul\":981:983   */\n  0x40\n    /* \"#utility.yul\":969:978   */\n  dup4\n    /* \"#utility.yul\":960:967   */\n  dup6\n    /* \"#utility.yul\":956:979   */\n  sub\n    /* \"#utility.yul\":952:984   */\n  slt\n    /* \"#utility.yul\":949:1068   */\n  iszero\n  tag_27\n  jumpi\n    /* \"#utility.yul\":987:1066   */\n  tag_28\n  tag_8\n  jump\t// in\ntag_28:\n    /* \"#utility.yul\":949:1068   */\ntag_27:\n    /* \"#utility.yul\":1107:1108   */\n  0x00\n    /* \"#utility.yul\":1132:1196   */\n  tag_29\n    /* \"#utility.yul\":1188:1195   */\n  dup6\n    /* \"#utility.yul\":1179:1185   */\n  dup3\n    /* \"#utility.yul\":1168:1177   */\n  dup7\n    /* \"#utility.yul\":1164:1186   */\n  add\n    /* \"#utility.yul\":1132:1196   */\n  tag_13\n  jump\t// in\ntag_29:\n    /* \"#utility.yul\":1122:1196   */\n  swap3\n  pop\n    /* \"#utility.yul\":1078:1206   */\n  pop\n    /* \"#utility.yul\":1245:1247   */\n  0x20\n    /* \"#utility.yul\":1271:1335   */\n  tag_30\n    /* \"#utility.yul\":1327:1334   */\n  dup6\n    /* \"#utility.yul\":1318:1324   */\n  dup3\n    /* \"#utility.yul\":1307:1316   */\n  dup7\n    /* \"#utility.yul\":1303:1325   */\n  add\n    /* \"#utility.yul\":1271:1335   */\n  tag_13\n  jump\t// in\ntag_30:\n    /* \"#utility.yul\":1261:1335   */\n  swap2\n  pop\n    /* \"#utility.yul\":1216:1345   */\n  pop\n    /* \"#utility.yul\":845:1352   */\n  swap3\n  pop\n  swap3\n  swap1\n  pop\n  jump\t// out\n    /* \"contracts/lesson8.1/SimpleTokenSwap.sol\":2476:5507  contract TokenSwap {... */\ntag_6:\n  dataSize(sub_0)\n  dup1\n  dataOffset(sub_0)\n  0x00\n  codecopy\n  0x00\n  return\nstop\n\nsub_0: assembly {\n        /* \"contracts/lesson8.1/SimpleTokenSwap.sol\":2476:5507  contract TokenSwap {... */\n      mstore(0x40, 0x80)\n      callvalue\n      dup1\n      iszero\n      tag_1\n      jumpi\n      revert(0x00, 0x00)\n    tag_1:\n      pop\n      jumpi(tag_2, lt(calldatasize, 0x04))\n      shr(0xe0, calldataload(0x00))\n      dup1\n      0x0fc63d10\n      eq\n      tag_3\n      jumpi\n      dup1\n      0x5f64b55b\n      eq\n      tag_4\n      jumpi\n      dup1\n      0x94b918de\n      eq\n      tag_5\n      jumpi\n      dup1\n      0xabd3f612\n      eq\n      tag_6\n      jumpi\n      dup1\n      0xffd2a7d3\n      eq\n      tag_7\n      jumpi\n    tag_2:\n      revert(0x00, 0x00)\n        /* \"contracts/lesson8.1/SimpleTokenSwap.sol\":2541:2561  IERC20 public tokenA */\n    tag_3:\n      tag_8\n      tag_9\n      jump\t// in\n    tag_8:\n      mload(0x40)\n      tag_10\n      swap2\n      swap1\n      tag_11\n      jump\t// in\n    tag_10:\n      mload(0x40)\n      dup1\n      swap2\n      sub\n      swap1\n      return\n        /* \"contracts/lesson8.1/SimpleTokenSwap.sol\":2568:2588  IERC20 public tokenB */\n    tag_4:\n      tag_12\n      tag_13\n      jump\t// in\n    tag_12:\n      mload(0x40)\n      tag_14\n      swap2\n      swap1\n      tag_11\n      jump\t// in\n    tag_14:\n      mload(0x40)\n      dup1\n      swap2\n      sub\n      swap1\n      return\n        /* \"contracts/lesson8.1/SimpleTokenSwap.sol\":3358:4514  function swap(uint256 amountA) external {... */\n    tag_5:\n      tag_15\n      0x04\n      dup1\n      calldatasize\n      sub\n      dup2\n      add\n      swap1\n      tag_16\n      swap2\n      swap1\n      tag_17\n      jump\t// in\n    tag_16:\n      tag_18\n      jump\t// in\n    tag_15:\n      stop\n        /* \"contracts/lesson8.1/SimpleTokenSwap.sol\":5274:5504  function getUserBalances(address user) ... */\n    tag_6:\n      tag_19\n      0x04\n      dup1\n      calldatasize\n      sub\n      dup2\n      add\n      swap1\n      tag_20\n      swap2\n      swap1\n      tag_21\n      jump\t// in\n    tag_20:\n      tag_22\n      jump\t// in\n    tag_19:\n      mload(0x40)\n      tag_23\n      swap3\n      swap2\n      swap1\n      tag_24\n      jump\t// in\n    tag_23:\n      mload(0x40)\n      dup1\n      swap2\n      sub\n      swap1\n      return\n        /* \"contracts/lesson8.1/SimpleTokenSwap.sol\":4700:5055  function getContractBalances() ... */\n    tag_7:\n      tag_25\n      tag_26\n      jump\t// in\n    tag_25:\n      mload(0x40)\n      tag_27\n      swap3\n      swap2\n      swap1\n      tag_24\n      jump\t// in\n    tag_27:\n      mload(0x40)\n      dup1\n      swap2\n      sub\n      swap1\n      return\n        /* \"contracts/lesson8.1/SimpleTokenSwap.sol\":2541:2561  IERC20 public tokenA */\n    tag_9:\n      0x00\n      0x00\n      swap1\n      sload\n      swap1\n      0x0100\n      exp\n      swap1\n      div\n      0xffffffffffffffffffffffffffffffffffffffff\n      and\n      dup2\n      jump\t// out\n        /* \"contracts/lesson8.1/SimpleTokenSwap.sol\":2568:2588  IERC20 public tokenB */\n    tag_13:\n      0x01\n      0x00\n      swap1\n      sload\n      swap1\n      0x0100\n      exp\n      swap1\n      div\n      0xffffffffffffffffffffffffffffffffffffffff\n      and\n      dup2\n      jump\t// out\n        /* \"contracts/lesson8.1/SimpleTokenSwap.sol\":3358:4514  function swap(uint256 amountA) external {... */\n    tag_18:\n        /* \"contracts/lesson8.1/SimpleTokenSwap.sol\":3545:3569  uint256 contractBalanceB */\n      0x00\n        /* \"contracts/lesson8.1/SimpleTokenSwap.sol\":3572:3578  tokenB */\n      0x01\n      0x00\n      swap1\n      sload\n      swap1\n      0x0100\n      exp\n      swap1\n      div\n      0xffffffffffffffffffffffffffffffffffffffff\n      and\n        /* \"contracts/lesson8.1/SimpleTokenSwap.sol\":3572:3588  tokenB.balanceOf */\n      0xffffffffffffffffffffffffffffffffffffffff\n      and\n      0x70a08231\n        /* \"contracts/lesson8.1/SimpleTokenSwap.sol\":3597:3601  this */\n      address\n        /* \"contracts/lesson8.1/SimpleTokenSwap.sol\":3572:3603  tokenB.balanceOf(address(this)) */\n      mload(0x40)\n      dup3\n      0xffffffff\n      and\n      0xe0\n      shl\n      dup2\n      mstore\n      0x04\n      add\n      tag_29\n      swap2\n      swap1\n      tag_30\n      jump\t// in\n    tag_29:\n      0x20\n      mload(0x40)\n      dup1\n      dup4\n      sub\n      dup2\n      dup7\n      gas\n      staticcall\n      iszero\n      dup1\n      iszero\n      tag_32\n      jumpi\n      returndatacopy(0x00, 0x00, returndatasize)\n      revert(0x00, returndatasize)\n    tag_32:\n      pop\n      pop\n      pop\n      pop\n      mload(0x40)\n      returndatasize\n      not(0x1f)\n      0x1f\n      dup3\n      add\n      and\n      dup3\n      add\n      dup1\n      0x40\n      mstore\n      pop\n      dup2\n      add\n      swap1\n      tag_33\n      swap2\n      swap1\n      tag_34\n      jump\t// in\n    tag_33:\n        /* \"contracts/lesson8.1/SimpleTokenSwap.sol\":3545:3603  uint256 contractBalanceB = tokenB.balanceOf(address(this)) */\n      swap1\n      pop\n        /* \"contracts/lesson8.1/SimpleTokenSwap.sol\":3642:3649  amountA */\n      dup2\n        /* \"contracts/lesson8.1/SimpleTokenSwap.sol\":3622:3638  contractBalanceB */\n      dup2\n        /* \"contracts/lesson8.1/SimpleTokenSwap.sol\":3622:3649  contractBalanceB >= amountA */\n      lt\n      iszero\n        /* \"contracts/lesson8.1/SimpleTokenSwap.sol\":3614:3685  require(contractBalanceB >= amountA, \"Insufficient tokenB in contract\") */\n      tag_35\n      jumpi\n      mload(0x40)\n      0x08c379a000000000000000000000000000000000000000000000000000000000\n      dup2\n      mstore\n      0x04\n      add\n      tag_36\n      swap1\n      tag_37\n      jump\t// in\n    tag_36:\n      mload(0x40)\n      dup1\n      swap2\n      sub\n      swap1\n      revert\n    tag_35:\n        /* \"contracts/lesson8.1/SimpleTokenSwap.sol\":3927:3933  tokenA */\n      0x00\n      0x00\n      swap1\n      sload\n      swap1\n      0x0100\n      exp\n      swap1\n      div\n      0xffffffffffffffffffffffffffffffffffffffff\n      and\n        /* \"contracts/lesson8.1/SimpleTokenSwap.sol\":3927:3946  tokenA.transferFrom */\n      0xffffffffffffffffffffffffffffffffffffffff\n      and\n      0x23b872dd\n        /* \"contracts/lesson8.1/SimpleTokenSwap.sol\":3947:3957  msg.sender */\n      caller\n        /* \"contracts/lesson8.1/SimpleTokenSwap.sol\":3967:3971  this */\n      address\n        /* \"contracts/lesson8.1/SimpleTokenSwap.sol\":3974:3981  amountA */\n      dup6\n        /* \"contracts/lesson8.1/SimpleTokenSwap.sol\":3927:3982  tokenA.transferFrom(msg.sender, address(this), amountA) */\n      mload(0x40)\n      dup5\n      0xffffffff\n      and\n      0xe0\n      shl\n      dup2\n      mstore\n      0x04\n      add\n      tag_38\n      swap4\n      swap3\n      swap2\n      swap1\n      tag_39\n      jump\t// in\n    tag_38:\n      0x20\n      mload(0x40)\n      dup1\n      dup4\n      sub\n      dup2\n      0x00\n      dup8\n      gas\n      call\n      iszero\n      dup1\n      iszero\n      tag_41\n      jumpi\n      returndatacopy(0x00, 0x00, returndatasize)\n      revert(0x00, returndatasize)\n    tag_41:\n      pop\n      pop\n      pop\n      pop\n      mload(0x40)\n      returndatasize\n      not(0x1f)\n      0x1f\n      dup3\n      add\n      and\n      dup3\n      add\n      dup1\n      0x40\n      mstore\n      pop\n      dup2\n      add\n      swap1\n      tag_42\n      swap2\n      swap1\n      tag_43\n      jump\t// in\n    tag_42:\n        /* \"contracts/lesson8.1/SimpleTokenSwap.sol\":3905:4032  require(... */\n      tag_44\n      jumpi\n      mload(0x40)\n      0x08c379a000000000000000000000000000000000000000000000000000000000\n      dup2\n      mstore\n      0x04\n      add\n      tag_45\n      swap1\n      tag_46\n      jump\t// in\n    tag_45:\n      mload(0x40)\n      dup1\n      swap2\n      sub\n      swap1\n      revert\n    tag_44:\n        /* \"contracts/lesson8.1/SimpleTokenSwap.sol\":4152:4167  uint256 amountB */\n      0x00\n        /* \"contracts/lesson8.1/SimpleTokenSwap.sol\":4170:4177  amountA */\n      dup3\n        /* \"contracts/lesson8.1/SimpleTokenSwap.sol\":4152:4177  uint256 amountB = amountA */\n      swap1\n      pop\n        /* \"contracts/lesson8.1/SimpleTokenSwap.sol\":4210:4216  tokenB */\n      0x01\n      0x00\n      swap1\n      sload\n      swap1\n      0x0100\n      exp\n      swap1\n      div\n      0xffffffffffffffffffffffffffffffffffffffff\n      and\n        /* \"contracts/lesson8.1/SimpleTokenSwap.sol\":4210:4225  tokenB.transfer */\n      0xffffffffffffffffffffffffffffffffffffffff\n      and\n      0xa9059cbb\n        /* \"contracts/lesson8.1/SimpleTokenSwap.sol\":4226:4236  msg.sender */\n      caller\n        /* \"contracts/lesson8.1/SimpleTokenSwap.sol\":4238:4245  amountB */\n      dup4\n        /* \"contracts/lesson8.1/SimpleTokenSwap.sol\":4210:4246  tokenB.transfer(msg.sender, amountB) */\n      mload(0x40)\n      dup4\n      0xffffffff\n      and\n      0xe0\n      shl\n      dup2\n      mstore\n      0x04\n      add\n      tag_47\n      swap3\n      swap2\n      swap1\n      tag_48\n      jump\t// in\n    tag_47:\n      0x20\n      mload(0x40)\n      dup1\n      dup4\n      sub\n      dup2\n      0x00\n      dup8\n      gas\n      call\n      iszero\n      dup1\n      iszero\n      tag_50\n      jumpi\n      returndatacopy(0x00, 0x00, returndatasize)\n      revert(0x00, returndatasize)\n    tag_50:\n      pop\n      pop\n      pop\n      pop\n      mload(0x40)\n      returndatasize\n      not(0x1f)\n      0x1f\n      dup3\n      add\n      and\n      dup3\n      add\n      dup1\n      0x40\n      mstore\n      pop\n      dup2\n      add\n      swap1\n      tag_51\n      swap2\n      swap1\n      tag_43\n      jump\t// in\n    tag_51:\n        /* \"contracts/lesson8.1/SimpleTokenSwap.sol\":4188:4296  require(... */\n      tag_52\n      jumpi\n      mload(0x40)\n      0x08c379a000000000000000000000000000000000000000000000000000000000\n      dup2\n      mstore\n      0x04\n      add\n      tag_53\n      swap1\n      tag_54\n      jump\t// in\n    tag_53:\n      mload(0x40)\n      dup1\n      swap2\n      sub\n      swap1\n      revert\n    tag_52:\n        /* \"contracts/lesson8.1/SimpleTokenSwap.sol\":4480:4486  tokenB */\n      0x01\n      0x00\n      swap1\n      sload\n      swap1\n      0x0100\n      exp\n      swap1\n      div\n      0xffffffffffffffffffffffffffffffffffffffff\n      and\n        /* \"contracts/lesson8.1/SimpleTokenSwap.sol\":4438:4506  Swap(msg.sender, address(tokenA), address(tokenB), amountA, amountB) */\n      0xffffffffffffffffffffffffffffffffffffffff\n      and\n        /* \"contracts/lesson8.1/SimpleTokenSwap.sol\":4463:4469  tokenA */\n      0x00\n      0x00\n      swap1\n      sload\n      swap1\n      0x0100\n      exp\n      swap1\n      div\n      0xffffffffffffffffffffffffffffffffffffffff\n      and\n        /* \"contracts/lesson8.1/SimpleTokenSwap.sol\":4438:4506  Swap(msg.sender, address(tokenA), address(tokenB), amountA, amountB) */\n      0xffffffffffffffffffffffffffffffffffffffff\n      and\n        /* \"contracts/lesson8.1/SimpleTokenSwap.sol\":4443:4453  msg.sender */\n      caller\n        /* \"contracts/lesson8.1/SimpleTokenSwap.sol\":4438:4506  Swap(msg.sender, address(tokenA), address(tokenB), amountA, amountB) */\n      0xffffffffffffffffffffffffffffffffffffffff\n      and\n      0xcd3829a3813dc3cdd188fd3d01dcf3268c16be2fdd2dd21d0665418816e46062\n        /* \"contracts/lesson8.1/SimpleTokenSwap.sol\":4489:4496  amountA */\n      dup7\n        /* \"contracts/lesson8.1/SimpleTokenSwap.sol\":4498:4505  amountB */\n      dup6\n        /* \"contracts/lesson8.1/SimpleTokenSwap.sol\":4438:4506  Swap(msg.sender, address(tokenA), address(tokenB), amountA, amountB) */\n      mload(0x40)\n      tag_55\n      swap3\n      swap2\n      swap1\n      tag_24\n      jump\t// in\n    tag_55:\n      mload(0x40)\n      dup1\n      swap2\n      sub\n      swap1\n      log4\n        /* \"contracts/lesson8.1/SimpleTokenSwap.sol\":3398:4514  {... */\n      pop\n      pop\n        /* \"contracts/lesson8.1/SimpleTokenSwap.sol\":3358:4514  function swap(uint256 amountA) external {... */\n      pop\n      jump\t// out\n        /* \"contracts/lesson8.1/SimpleTokenSwap.sol\":5274:5504  function getUserBalances(address user) ... */\n    tag_22:\n        /* \"contracts/lesson8.1/SimpleTokenSwap.sol\":5366:5382  uint256 balanceA */\n      0x00\n        /* \"contracts/lesson8.1/SimpleTokenSwap.sol\":5384:5400  uint256 balanceB */\n      0x00\n        /* \"contracts/lesson8.1/SimpleTokenSwap.sol\":5430:5436  tokenA */\n      0x00\n      0x00\n      swap1\n      sload\n      swap1\n      0x0100\n      exp\n      swap1\n      div\n      0xffffffffffffffffffffffffffffffffffffffff\n      and\n        /* \"contracts/lesson8.1/SimpleTokenSwap.sol\":5430:5446  tokenA.balanceOf */\n      0xffffffffffffffffffffffffffffffffffffffff\n      and\n      0x70a08231\n        /* \"contracts/lesson8.1/SimpleTokenSwap.sol\":5447:5451  user */\n      dup5\n        /* \"contracts/lesson8.1/SimpleTokenSwap.sol\":5430:5452  tokenA.balanceOf(user) */\n      mload(0x40)\n      dup3\n      0xffffffff\n      and\n      0xe0\n      shl\n      dup2\n      mstore\n      0x04\n      add\n      tag_57\n      swap2\n      swap1\n      tag_30\n      jump\t// in\n    tag_57:\n      0x20\n      mload(0x40)\n      dup1\n      dup4\n      sub\n      dup2\n      dup7\n      gas\n      staticcall\n      iszero\n      dup1\n      iszero\n      tag_59\n      jumpi\n      returndatacopy(0x00, 0x00, returndatasize)\n      revert(0x00, returndatasize)\n    tag_59:\n      pop\n      pop\n      pop\n      pop\n      mload(0x40)\n      returndatasize\n      not(0x1f)\n      0x1f\n      dup3\n      add\n      and\n      dup3\n      add\n      dup1\n      0x40\n      mstore\n      pop\n      dup2\n      add\n      swap1\n      tag_60\n      swap2\n      swap1\n      tag_34\n      jump\t// in\n    tag_60:\n        /* \"contracts/lesson8.1/SimpleTokenSwap.sol\":5419:5452  balanceA = tokenA.balanceOf(user) */\n      swap2\n      pop\n        /* \"contracts/lesson8.1/SimpleTokenSwap.sol\":5474:5480  tokenB */\n      0x01\n      0x00\n      swap1\n      sload\n      swap1\n      0x0100\n      exp\n      swap1\n      div\n      0xffffffffffffffffffffffffffffffffffffffff\n      and\n        /* \"contracts/lesson8.1/SimpleTokenSwap.sol\":5474:5490  tokenB.balanceOf */\n      0xffffffffffffffffffffffffffffffffffffffff\n      and\n      0x70a08231\n        /* \"contracts/lesson8.1/SimpleTokenSwap.sol\":5491:5495  user */\n      dup5\n        /* \"contracts/lesson8.1/SimpleTokenSwap.sol\":5474:5496  tokenB.balanceOf(user) */\n      mload(0x40)\n      dup3\n      0xffffffff\n      and\n      0xe0\n      shl\n      dup2\n      mstore\n      0x04\n      add\n      tag_61\n      swap2\n      swap1\n      tag_30\n      jump\t// in\n    tag_61:\n      0x20\n      mload(0x40)\n      dup1\n      dup4\n      sub\n      dup2\n      dup7\n      gas\n      staticcall\n      iszero\n      dup1\n      iszero\n      tag_63\n      jumpi\n      returndatacopy(0x00, 0x00, returndatasize)\n      revert(0x00, returndatasize)\n    tag_63:\n      pop\n      pop\n      pop\n      pop\n      mload(0x40)\n      returndatasize\n      not(0x1f)\n      0x1f\n      dup3\n      add\n      and\n      dup3\n      add\n      dup1\n      0x40\n      mstore\n      pop\n      dup2\n      add\n      swap1\n      tag_64\n      swap2\n      swap1\n      tag_34\n      jump\t// in\n    tag_64:\n        /* \"contracts/lesson8.1/SimpleTokenSwap.sol\":5463:5496  balanceB = tokenB.balanceOf(user) */\n      swap1\n      pop\n        /* \"contracts/lesson8.1/SimpleTokenSwap.sol\":5274:5504  function getUserBalances(address user) ... */\n      swap2\n      pop\n      swap2\n      jump\t// out\n        /* \"contracts/lesson8.1/SimpleTokenSwap.sol\":4700:5055  function getContractBalances() ... */\n    tag_26:\n        /* \"contracts/lesson8.1/SimpleTokenSwap.sol\":4784:4800  uint256 balanceA */\n      0x00\n        /* \"contracts/lesson8.1/SimpleTokenSwap.sol\":4802:4818  uint256 balanceB */\n      0x00\n        /* \"contracts/lesson8.1/SimpleTokenSwap.sol\":4963:4969  tokenA */\n      0x00\n      0x00\n      swap1\n      sload\n      swap1\n      0x0100\n      exp\n      swap1\n      div\n      0xffffffffffffffffffffffffffffffffffffffff\n      and\n        /* \"contracts/lesson8.1/SimpleTokenSwap.sol\":4963:4979  tokenA.balanceOf */\n      0xffffffffffffffffffffffffffffffffffffffff\n      and\n      0x70a08231\n        /* \"contracts/lesson8.1/SimpleTokenSwap.sol\":4988:4992  this */\n      address\n        /* \"contracts/lesson8.1/SimpleTokenSwap.sol\":4963:4994  tokenA.balanceOf(address(this)) */\n      mload(0x40)\n      dup3\n      0xffffffff\n      and\n      0xe0\n      shl\n      dup2\n      mstore\n      0x04\n      add\n      tag_66\n      swap2\n      swap1\n      tag_30\n      jump\t// in\n    tag_66:\n      0x20\n      mload(0x40)\n      dup1\n      dup4\n      sub\n      dup2\n      dup7\n      gas\n      staticcall\n      iszero\n      dup1\n      iszero\n      tag_68\n      jumpi\n      returndatacopy(0x00, 0x00, returndatasize)\n      revert(0x00, returndatasize)\n    tag_68:\n      pop\n      pop\n      pop\n      pop\n      mload(0x40)\n      returndatasize\n      not(0x1f)\n      0x1f\n      dup3\n      add\n      and\n      dup3\n      add\n      dup1\n      0x40\n      mstore\n      pop\n      dup2\n      add\n      swap1\n      tag_69\n      swap2\n      swap1\n      tag_34\n      jump\t// in\n    tag_69:\n        /* \"contracts/lesson8.1/SimpleTokenSwap.sol\":4952:4994  balanceA = tokenA.balanceOf(address(this)) */\n      swap2\n      pop\n        /* \"contracts/lesson8.1/SimpleTokenSwap.sol\":5016:5022  tokenB */\n      0x01\n      0x00\n      swap1\n      sload\n      swap1\n      0x0100\n      exp\n      swap1\n      div\n      0xffffffffffffffffffffffffffffffffffffffff\n      and\n        /* \"contracts/lesson8.1/SimpleTokenSwap.sol\":5016:5032  tokenB.balanceOf */\n      0xffffffffffffffffffffffffffffffffffffffff\n      and\n      0x70a08231\n        /* \"contracts/lesson8.1/SimpleTokenSwap.sol\":5041:5045  this */\n      address\n        /* \"contracts/lesson8.1/SimpleTokenSwap.sol\":5016:5047  tokenB.balanceOf(address(this)) */\n      mload(0x40)\n      dup3\n      0xffffffff\n      and\n      0xe0\n      shl\n      dup2\n      mstore\n      0x04\n      add\n      tag_70\n      swap2\n      swap1\n      tag_30\n      jump\t// in\n    tag_70:\n      0x20\n      mload(0x40)\n      dup1\n      dup4\n      sub\n      dup2\n      dup7\n      gas\n      staticcall\n      iszero\n      dup1\n      iszero\n      tag_72\n      jumpi\n      returndatacopy(0x00, 0x00, returndatasize)\n      revert(0x00, returndatasize)\n    tag_72:\n      pop\n      pop\n      pop\n      pop\n      mload(0x40)\n      returndatasize\n      not(0x1f)\n      0x1f\n      dup3\n      add\n      and\n      dup3\n      add\n      dup1\n      0x40\n      mstore\n      pop\n      dup2\n      add\n      swap1\n      tag_73\n      swap2\n      swap1\n      tag_34\n      jump\t// in\n    tag_73:\n        /* \"contracts/lesson8.1/SimpleTokenSwap.sol\":5005:5047  balanceB = tokenB.balanceOf(address(this)) */\n      swap1\n      pop\n        /* \"contracts/lesson8.1/SimpleTokenSwap.sol\":4700:5055  function getContractBalances() ... */\n      swap1\n      swap2\n      jump\t// out\n        /* \"#utility.yul\":7:133   */\n    tag_74:\n        /* \"#utility.yul\":44:51   */\n      0x00\n        /* \"#utility.yul\":84:126   */\n      0xffffffffffffffffffffffffffffffffffffffff\n        /* \"#utility.yul\":77:82   */\n      dup3\n        /* \"#utility.yul\":73:127   */\n      and\n        /* \"#utility.yul\":62:127   */\n      swap1\n      pop\n        /* \"#utility.yul\":7:133   */\n      swap2\n      swap1\n      pop\n      jump\t// out\n        /* \"#utility.yul\":139:199   */\n    tag_75:\n        /* \"#utility.yul\":167:170   */\n      0x00\n        /* \"#utility.yul\":188:193   */\n      dup2\n        /* \"#utility.yul\":181:193   */\n      swap1\n      pop\n        /* \"#utility.yul\":139:199   */\n      swap2\n      swap1\n      pop\n      jump\t// out\n        /* \"#utility.yul\":205:347   */\n    tag_76:\n        /* \"#utility.yul\":255:264   */\n      0x00\n        /* \"#utility.yul\":288:341   */\n      tag_106\n        /* \"#utility.yul\":306:340   */\n      tag_107\n        /* \"#utility.yul\":315:339   */\n      tag_108\n        /* \"#utility.yul\":333:338   */\n      dup5\n        /* \"#utility.yul\":315:339   */\n      tag_74\n      jump\t// in\n    tag_108:\n        /* \"#utility.yul\":306:340   */\n      tag_75\n      jump\t// in\n    tag_107:\n        /* \"#utility.yul\":288:341   */\n      tag_74\n      jump\t// in\n    tag_106:\n        /* \"#utility.yul\":275:341   */\n      swap1\n      pop\n        /* \"#utility.yul\":205:347   */\n      swap2\n      swap1\n      pop\n      jump\t// out\n        /* \"#utility.yul\":353:479   */\n    tag_77:\n        /* \"#utility.yul\":403:412   */\n      0x00\n        /* \"#utility.yul\":436:473   */\n      tag_110\n        /* \"#utility.yul\":467:472   */\n      dup3\n        /* \"#utility.yul\":436:473   */\n      tag_76\n      jump\t// in\n    tag_110:\n        /* \"#utility.yul\":423:473   */\n      swap1\n      pop\n        /* \"#utility.yul\":353:479   */\n      swap2\n      swap1\n      pop\n      jump\t// out\n        /* \"#utility.yul\":485:624   */\n    tag_78:\n        /* \"#utility.yul\":548:557   */\n      0x00\n        /* \"#utility.yul\":581:618   */\n      tag_112\n        /* \"#utility.yul\":612:617   */\n      dup3\n        /* \"#utility.yul\":581:618   */\n      tag_77\n      jump\t// in\n    tag_112:\n        /* \"#utility.yul\":568:618   */\n      swap1\n      pop\n        /* \"#utility.yul\":485:624   */\n      swap2\n      swap1\n      pop\n      jump\t// out\n        /* \"#utility.yul\":630:787   */\n    tag_79:\n        /* \"#utility.yul\":730:780   */\n      tag_114\n        /* \"#utility.yul\":774:779   */\n      dup2\n        /* \"#utility.yul\":730:780   */\n      tag_78\n      jump\t// in\n    tag_114:\n        /* \"#utility.yul\":725:728   */\n      dup3\n        /* \"#utility.yul\":718:781   */\n      mstore\n        /* \"#utility.yul\":630:787   */\n      pop\n      pop\n      jump\t// out\n        /* \"#utility.yul\":793:1041   */\n    tag_11:\n        /* \"#utility.yul\":899:903   */\n      0x00\n        /* \"#utility.yul\":937:939   */\n      0x20\n        /* \"#utility.yul\":926:935   */\n      dup3\n        /* \"#utility.yul\":922:940   */\n      add\n        /* \"#utility.yul\":914:940   */\n      swap1\n      pop\n        /* \"#utility.yul\":950:1034   */\n      tag_116\n        /* \"#utility.yul\":1031:1032   */\n      0x00\n        /* \"#utility.yul\":1020:1029   */\n      dup4\n        /* \"#utility.yul\":1016:1033   */\n      add\n        /* \"#utility.yul\":1007:1013   */\n      dup5\n        /* \"#utility.yul\":950:1034   */\n      tag_79\n      jump\t// in\n    tag_116:\n        /* \"#utility.yul\":793:1041   */\n      swap3\n      swap2\n      pop\n      pop\n      jump\t// out\n        /* \"#utility.yul\":1128:1245   */\n    tag_81:\n        /* \"#utility.yul\":1237:1238   */\n      0x00\n        /* \"#utility.yul\":1234:1235   */\n      0x00\n        /* \"#utility.yul\":1227:1239   */\n      revert\n        /* \"#utility.yul\":1374:1451   */\n    tag_83:\n        /* \"#utility.yul\":1411:1418   */\n      0x00\n        /* \"#utility.yul\":1440:1445   */\n      dup2\n        /* \"#utility.yul\":1429:1445   */\n      swap1\n      pop\n        /* \"#utility.yul\":1374:1451   */\n      swap2\n      swap1\n      pop\n      jump\t// out\n        /* \"#utility.yul\":1457:1579   */\n    tag_84:\n        /* \"#utility.yul\":1530:1554   */\n      tag_122\n        /* \"#utility.yul\":1548:1553   */\n      dup2\n        /* \"#utility.yul\":1530:1554   */\n      tag_83\n      jump\t// in\n    tag_122:\n        /* \"#utility.yul\":1523:1528   */\n      dup2\n        /* \"#utility.yul\":1520:1555   */\n      eq\n        /* \"#utility.yul\":1510:1573   */\n      tag_123\n      jumpi\n        /* \"#utility.yul\":1569:1570   */\n      0x00\n        /* \"#utility.yul\":1566:1567   */\n      0x00\n        /* \"#utility.yul\":1559:1571   */\n      revert\n        /* \"#utility.yul\":1510:1573   */\n    tag_123:\n        /* \"#utility.yul\":1457:1579   */\n      pop\n      jump\t// out\n        /* \"#utility.yul\":1585:1724   */\n    tag_85:\n        /* \"#utility.yul\":1631:1636   */\n      0x00\n        /* \"#utility.yul\":1669:1675   */\n      dup2\n        /* \"#utility.yul\":1656:1676   */\n      calldataload\n        /* \"#utility.yul\":1647:1676   */\n      swap1\n      pop\n        /* \"#utility.yul\":1685:1718   */\n      tag_125\n        /* \"#utility.yul\":1712:1717   */\n      dup2\n        /* \"#utility.yul\":1685:1718   */\n      tag_84\n      jump\t// in\n    tag_125:\n        /* \"#utility.yul\":1585:1724   */\n      swap3\n      swap2\n      pop\n      pop\n      jump\t// out\n        /* \"#utility.yul\":1730:2059   */\n    tag_17:\n        /* \"#utility.yul\":1789:1795   */\n      0x00\n        /* \"#utility.yul\":1838:1840   */\n      0x20\n        /* \"#utility.yul\":1826:1835   */\n      dup3\n        /* \"#utility.yul\":1817:1824   */\n      dup5\n        /* \"#utility.yul\":1813:1836   */\n      sub\n        /* \"#utility.yul\":1809:1841   */\n      slt\n        /* \"#utility.yul\":1806:1925   */\n      iszero\n      tag_127\n      jumpi\n        /* \"#utility.yul\":1844:1923   */\n      tag_128\n      tag_81\n      jump\t// in\n    tag_128:\n        /* \"#utility.yul\":1806:1925   */\n    tag_127:\n        /* \"#utility.yul\":1964:1965   */\n      0x00\n        /* \"#utility.yul\":1989:2042   */\n      tag_129\n        /* \"#utility.yul\":2034:2041   */\n      dup5\n        /* \"#utility.yul\":2025:2031   */\n      dup3\n        /* \"#utility.yul\":2014:2023   */\n      dup6\n        /* \"#utility.yul\":2010:2032   */\n      add\n        /* \"#utility.yul\":1989:2042   */\n      tag_85\n      jump\t// in\n    tag_129:\n        /* \"#utility.yul\":1979:2042   */\n      swap2\n      pop\n        /* \"#utility.yul\":1935:2052   */\n      pop\n        /* \"#utility.yul\":1730:2059   */\n      swap3\n      swap2\n      pop\n      pop\n      jump\t// out\n        /* \"#utility.yul\":2065:2161   */\n    tag_86:\n        /* \"#utility.yul\":2102:2109   */\n      0x00\n        /* \"#utility.yul\":2131:2155   */\n      tag_131\n        /* \"#utility.yul\":2149:2154   */\n      dup3\n        /* \"#utility.yul\":2131:2155   */\n      tag_74\n      jump\t// in\n    tag_131:\n        /* \"#utility.yul\":2120:2155   */\n      swap1\n      pop\n        /* \"#utility.yul\":2065:2161   */\n      swap2\n      swap1\n      pop\n      jump\t// out\n        /* \"#utility.yul\":2167:2289   */\n    tag_87:\n        /* \"#utility.yul\":2240:2264   */\n      tag_133\n        /* \"#utility.yul\":2258:2263   */\n      dup2\n        /* \"#utility.yul\":2240:2264   */\n      tag_86\n      jump\t// in\n    tag_133:\n        /* \"#utility.yul\":2233:2238   */\n      dup2\n        /* \"#utility.yul\":2230:2265   */\n      eq\n        /* \"#utility.yul\":2220:2283   */\n      tag_134\n      jumpi\n        /* \"#utility.yul\":2279:2280   */\n      0x00\n        /* \"#utility.yul\":2276:2277   */\n      0x00\n        /* \"#utility.yul\":2269:2281   */\n      revert\n        /* \"#utility.yul\":2220:2283   */\n    tag_134:\n        /* \"#utility.yul\":2167:2289   */\n      pop\n      jump\t// out\n        /* \"#utility.yul\":2295:2434   */\n    tag_88:\n        /* \"#utility.yul\":2341:2346   */\n      0x00\n        /* \"#utility.yul\":2379:2385   */\n      dup2\n        /* \"#utility.yul\":2366:2386   */\n      calldataload\n        /* \"#utility.yul\":2357:2386   */\n      swap1\n      pop\n        /* \"#utility.yul\":2395:2428   */\n      tag_136\n        /* \"#utility.yul\":2422:2427   */\n      dup2\n        /* \"#utility.yul\":2395:2428   */\n      tag_87\n      jump\t// in\n    tag_136:\n        /* \"#utility.yul\":2295:2434   */\n      swap3\n      swap2\n      pop\n      pop\n      jump\t// out\n        /* \"#utility.yul\":2440:2769   */\n    tag_21:\n        /* \"#utility.yul\":2499:2505   */\n      0x00\n        /* \"#utility.yul\":2548:2550   */\n      0x20\n        /* \"#utility.yul\":2536:2545   */\n      dup3\n        /* \"#utility.yul\":2527:2534   */\n      dup5\n        /* \"#utility.yul\":2523:2546   */\n      sub\n        /* \"#utility.yul\":2519:2551   */\n      slt\n        /* \"#utility.yul\":2516:2635   */\n      iszero\n      tag_138\n      jumpi\n        /* \"#utility.yul\":2554:2633   */\n      tag_139\n      tag_81\n      jump\t// in\n    tag_139:\n        /* \"#utility.yul\":2516:2635   */\n    tag_138:\n        /* \"#utility.yul\":2674:2675   */\n      0x00\n        /* \"#utility.yul\":2699:2752   */\n      tag_140\n        /* \"#utility.yul\":2744:2751   */\n      dup5\n        /* \"#utility.yul\":2735:2741   */\n      dup3\n        /* \"#utility.yul\":2724:2733   */\n      dup6\n        /* \"#utility.yul\":2720:2742   */\n      add\n        /* \"#utility.yul\":2699:2752   */\n      tag_88\n      jump\t// in\n    tag_140:\n        /* \"#utility.yul\":2689:2752   */\n      swap2\n      pop\n        /* \"#utility.yul\":2645:2762   */\n      pop\n        /* \"#utility.yul\":2440:2769   */\n      swap3\n      swap2\n      pop\n      pop\n      jump\t// out\n        /* \"#utility.yul\":2775:2893   */\n    tag_89:\n        /* \"#utility.yul\":2862:2886   */\n      tag_142\n        /* \"#utility.yul\":2880:2885   */\n      dup2\n        /* \"#utility.yul\":2862:2886   */\n      tag_83\n      jump\t// in\n    tag_142:\n        /* \"#utility.yul\":2857:2860   */\n      dup3\n        /* \"#utility.yul\":2850:2887   */\n      mstore\n        /* \"#utility.yul\":2775:2893   */\n      pop\n      pop\n      jump\t// out\n        /* \"#utility.yul\":2899:3231   */\n    tag_24:\n        /* \"#utility.yul\":3020:3024   */\n      0x00\n        /* \"#utility.yul\":3058:3060   */\n      0x40\n        /* \"#utility.yul\":3047:3056   */\n      dup3\n        /* \"#utility.yul\":3043:3061   */\n      add\n        /* \"#utility.yul\":3035:3061   */\n      swap1\n      pop\n        /* \"#utility.yul\":3071:3142   */\n      tag_144\n        /* \"#utility.yul\":3139:3140   */\n      0x00\n        /* \"#utility.yul\":3128:3137   */\n      dup4\n        /* \"#utility.yul\":3124:3141   */\n      add\n        /* \"#utility.yul\":3115:3121   */\n      dup6\n        /* \"#utility.yul\":3071:3142   */\n      tag_89\n      jump\t// in\n    tag_144:\n        /* \"#utility.yul\":3152:3224   */\n      tag_145\n        /* \"#utility.yul\":3220:3222   */\n      0x20\n        /* \"#utility.yul\":3209:3218   */\n      dup4\n        /* \"#utility.yul\":3205:3223   */\n      add\n        /* \"#utility.yul\":3196:3202   */\n      dup5\n        /* \"#utility.yul\":3152:3224   */\n      tag_89\n      jump\t// in\n    tag_145:\n        /* \"#utility.yul\":2899:3231   */\n      swap4\n      swap3\n      pop\n      pop\n      pop\n      jump\t// out\n        /* \"#utility.yul\":3237:3355   */\n    tag_90:\n        /* \"#utility.yul\":3324:3348   */\n      tag_147\n        /* \"#utility.yul\":3342:3347   */\n      dup2\n        /* \"#utility.yul\":3324:3348   */\n      tag_86\n      jump\t// in\n    tag_147:\n        /* \"#utility.yul\":3319:3322   */\n      dup3\n        /* \"#utility.yul\":3312:3349   */\n      mstore\n        /* \"#utility.yul\":3237:3355   */\n      pop\n      pop\n      jump\t// out\n        /* \"#utility.yul\":3361:3583   */\n    tag_30:\n        /* \"#utility.yul\":3454:3458   */\n      0x00\n        /* \"#utility.yul\":3492:3494   */\n      0x20\n        /* \"#utility.yul\":3481:3490   */\n      dup3\n        /* \"#utility.yul\":3477:3495   */\n      add\n        /* \"#utility.yul\":3469:3495   */\n      swap1\n      pop\n        /* \"#utility.yul\":3505:3576   */\n      tag_149\n        /* \"#utility.yul\":3573:3574   */\n      0x00\n        /* \"#utility.yul\":3562:3571   */\n      dup4\n        /* \"#utility.yul\":3558:3575   */\n      add\n        /* \"#utility.yul\":3549:3555   */\n      dup5\n        /* \"#utility.yul\":3505:3576   */\n      tag_90\n      jump\t// in\n    tag_149:\n        /* \"#utility.yul\":3361:3583   */\n      swap3\n      swap2\n      pop\n      pop\n      jump\t// out\n        /* \"#utility.yul\":3589:3732   */\n    tag_91:\n        /* \"#utility.yul\":3646:3651   */\n      0x00\n        /* \"#utility.yul\":3677:3683   */\n      dup2\n        /* \"#utility.yul\":3671:3684   */\n      mload\n        /* \"#utility.yul\":3662:3684   */\n      swap1\n      pop\n        /* \"#utility.yul\":3693:3726   */\n      tag_151\n        /* \"#utility.yul\":3720:3725   */\n      dup2\n        /* \"#utility.yul\":3693:3726   */\n      tag_84\n      jump\t// in\n    tag_151:\n        /* \"#utility.yul\":3589:3732   */\n      swap3\n      swap2\n      pop\n      pop\n      jump\t// out\n        /* \"#utility.yul\":3738:4089   */\n    tag_34:\n        /* \"#utility.yul\":3808:3814   */\n      0x00\n        /* \"#utility.yul\":3857:3859   */\n      0x20\n        /* \"#utility.yul\":3845:3854   */\n      dup3\n        /* \"#utility.yul\":3836:3843   */\n      dup5\n        /* \"#utility.yul\":3832:3855   */\n      sub\n        /* \"#utility.yul\":3828:3860   */\n      slt\n        /* \"#utility.yul\":3825:3944   */\n      iszero\n      tag_153\n      jumpi\n        /* \"#utility.yul\":3863:3942   */\n      tag_154\n      tag_81\n      jump\t// in\n    tag_154:\n        /* \"#utility.yul\":3825:3944   */\n    tag_153:\n        /* \"#utility.yul\":3983:3984   */\n      0x00\n        /* \"#utility.yul\":4008:4072   */\n      tag_155\n        /* \"#utility.yul\":4064:4071   */\n      dup5\n        /* \"#utility.yul\":4055:4061   */\n      dup3\n        /* \"#utility.yul\":4044:4053   */\n      dup6\n        /* \"#utility.yul\":4040:4062   */\n      add\n        /* \"#utility.yul\":4008:4072   */\n      tag_91\n      jump\t// in\n    tag_155:\n        /* \"#utility.yul\":3998:4072   */\n      swap2\n      pop\n        /* \"#utility.yul\":3954:4082   */\n      pop\n        /* \"#utility.yul\":3738:4089   */\n      swap3\n      swap2\n      pop\n      pop\n      jump\t// out\n        /* \"#utility.yul\":4095:4264   */\n    tag_92:\n        /* \"#utility.yul\":4179:4190   */\n      0x00\n        /* \"#utility.yul\":4213:4219   */\n      dup3\n        /* \"#utility.yul\":4208:4211   */\n      dup3\n        /* \"#utility.yul\":4201:4220   */\n      mstore\n        /* \"#utility.yul\":4253:4257   */\n      0x20\n        /* \"#utility.yul\":4248:4251   */\n      dup3\n        /* \"#utility.yul\":4244:4258   */\n      add\n        /* \"#utility.yul\":4229:4258   */\n      swap1\n      pop\n        /* \"#utility.yul\":4095:4264   */\n      swap3\n      swap2\n      pop\n      pop\n      jump\t// out\n        /* \"#utility.yul\":4270:4451   */\n    tag_93:\n        /* \"#utility.yul\":4410:4443   */\n      0x496e73756666696369656e7420746f6b656e4220696e20636f6e747261637400\n        /* \"#utility.yul\":4406:4407   */\n      0x00\n        /* \"#utility.yul\":4398:4404   */\n      dup3\n        /* \"#utility.yul\":4394:4408   */\n      add\n        /* \"#utility.yul\":4387:4444   */\n      mstore\n        /* \"#utility.yul\":4270:4451   */\n      pop\n      jump\t// out\n        /* \"#utility.yul\":4457:4823   */\n    tag_94:\n        /* \"#utility.yul\":4599:4602   */\n      0x00\n        /* \"#utility.yul\":4620:4687   */\n      tag_159\n        /* \"#utility.yul\":4684:4686   */\n      0x1f\n        /* \"#utility.yul\":4679:4682   */\n      dup4\n        /* \"#utility.yul\":4620:4687   */\n      tag_92\n      jump\t// in\n    tag_159:\n        /* \"#utility.yul\":4613:4687   */\n      swap2\n      pop\n        /* \"#utility.yul\":4696:4789   */\n      tag_160\n        /* \"#utility.yul\":4785:4788   */\n      dup3\n        /* \"#utility.yul\":4696:4789   */\n      tag_93\n      jump\t// in\n    tag_160:\n        /* \"#utility.yul\":4814:4816   */\n      0x20\n        /* \"#utility.yul\":4809:4812   */\n      dup3\n        /* \"#utility.yul\":4805:4817   */\n      add\n        /* \"#utility.yul\":4798:4817   */\n      swap1\n      pop\n        /* \"#utility.yul\":4457:4823   */\n      swap2\n      swap1\n      pop\n      jump\t// out\n        /* \"#utility.yul\":4829:5248   */\n    tag_37:\n        /* \"#utility.yul\":4995:4999   */\n      0x00\n        /* \"#utility.yul\":5033:5035   */\n      0x20\n        /* \"#utility.yul\":5022:5031   */\n      dup3\n        /* \"#utility.yul\":5018:5036   */\n      add\n        /* \"#utility.yul\":5010:5036   */\n      swap1\n      pop\n        /* \"#utility.yul\":5082:5091   */\n      dup2\n        /* \"#utility.yul\":5076:5080   */\n      dup2\n        /* \"#utility.yul\":5072:5092   */\n      sub\n        /* \"#utility.yul\":5068:5069   */\n      0x00\n        /* \"#utility.yul\":5057:5066   */\n      dup4\n        /* \"#utility.yul\":5053:5070   */\n      add\n        /* \"#utility.yul\":5046:5093   */\n      mstore\n        /* \"#utility.yul\":5110:5241   */\n      tag_162\n        /* \"#utility.yul\":5236:5240   */\n      dup2\n        /* \"#utility.yul\":5110:5241   */\n      tag_94\n      jump\t// in\n    tag_162:\n        /* \"#utility.yul\":5102:5241   */\n      swap1\n      pop\n        /* \"#utility.yul\":4829:5248   */\n      swap2\n      swap1\n      pop\n      jump\t// out\n        /* \"#utility.yul\":5254:5696   */\n    tag_39:\n        /* \"#utility.yul\":5403:5407   */\n      0x00\n        /* \"#utility.yul\":5441:5443   */\n      0x60\n        /* \"#utility.yul\":5430:5439   */\n      dup3\n        /* \"#utility.yul\":5426:5444   */\n      add\n        /* \"#utility.yul\":5418:5444   */\n      swap1\n      pop\n        /* \"#utility.yul\":5454:5525   */\n      tag_164\n        /* \"#utility.yul\":5522:5523   */\n      0x00\n        /* \"#utility.yul\":5511:5520   */\n      dup4\n        /* \"#utility.yul\":5507:5524   */\n      add\n        /* \"#utility.yul\":5498:5504   */\n      dup7\n        /* \"#utility.yul\":5454:5525   */\n      tag_90\n      jump\t// in\n    tag_164:\n        /* \"#utility.yul\":5535:5607   */\n      tag_165\n        /* \"#utility.yul\":5603:5605   */\n      0x20\n        /* \"#utility.yul\":5592:5601   */\n      dup4\n        /* \"#utility.yul\":5588:5606   */\n      add\n        /* \"#utility.yul\":5579:5585   */\n      dup6\n        /* \"#utility.yul\":5535:5607   */\n      tag_90\n      jump\t// in\n    tag_165:\n        /* \"#utility.yul\":5617:5689   */\n      tag_166\n        /* \"#utility.yul\":5685:5687   */\n      0x40\n        /* \"#utility.yul\":5674:5683   */\n      dup4\n        /* \"#utility.yul\":5670:5688   */\n      add\n        /* \"#utility.yul\":5661:5667   */\n      dup5\n        /* \"#utility.yul\":5617:5689   */\n      tag_89\n      jump\t// in\n    tag_166:\n        /* \"#utility.yul\":5254:5696   */\n      swap5\n      swap4\n      pop\n      pop\n      pop\n      pop\n      jump\t// out\n        /* \"#utility.yul\":5702:5792   */\n    tag_95:\n        /* \"#utility.yul\":5736:5743   */\n      0x00\n        /* \"#utility.yul\":5779:5784   */\n      dup2\n        /* \"#utility.yul\":5772:5785   */\n      iszero\n        /* \"#utility.yul\":5765:5786   */\n      iszero\n        /* \"#utility.yul\":5754:5786   */\n      swap1\n      pop\n        /* \"#utility.yul\":5702:5792   */\n      swap2\n      swap1\n      pop\n      jump\t// out\n        /* \"#utility.yul\":5798:5914   */\n    tag_96:\n        /* \"#utility.yul\":5868:5889   */\n      tag_169\n        /* \"#utility.yul\":5883:5888   */\n      dup2\n        /* \"#utility.yul\":5868:5889   */\n      tag_95\n      jump\t// in\n    tag_169:\n        /* \"#utility.yul\":5861:5866   */\n      dup2\n        /* \"#utility.yul\":5858:5890   */\n      eq\n        /* \"#utility.yul\":5848:5908   */\n      tag_170\n      jumpi\n        /* \"#utility.yul\":5904:5905   */\n      0x00\n        /* \"#utility.yul\":5901:5902   */\n      0x00\n        /* \"#utility.yul\":5894:5906   */\n      revert\n        /* \"#utility.yul\":5848:5908   */\n    tag_170:\n        /* \"#utility.yul\":5798:5914   */\n      pop\n      jump\t// out\n        /* \"#utility.yul\":5920:6057   */\n    tag_97:\n        /* \"#utility.yul\":5974:5979   */\n      0x00\n        /* \"#utility.yul\":6005:6011   */\n      dup2\n        /* \"#utility.yul\":5999:6012   */\n      mload\n        /* \"#utility.yul\":5990:6012   */\n      swap1\n      pop\n        /* \"#utility.yul\":6021:6051   */\n      tag_172\n        /* \"#utility.yul\":6045:6050   */\n      dup2\n        /* \"#utility.yul\":6021:6051   */\n      tag_96\n      jump\t// in\n    tag_172:\n        /* \"#utility.yul\":5920:6057   */\n      swap3\n      swap2\n      pop\n      pop\n      jump\t// out\n        /* \"#utility.yul\":6063:6408   */\n    tag_43:\n        /* \"#utility.yul\":6130:6136   */\n      0x00\n        /* \"#utility.yul\":6179:6181   */\n      0x20\n        /* \"#utility.yul\":6167:6176   */\n      dup3\n        /* \"#utility.yul\":6158:6165   */\n      dup5\n        /* \"#utility.yul\":6154:6177   */\n      sub\n        /* \"#utility.yul\":6150:6182   */\n      slt\n        /* \"#utility.yul\":6147:6266   */\n      iszero\n      tag_174\n      jumpi\n        /* \"#utility.yul\":6185:6264   */\n      tag_175\n      tag_81\n      jump\t// in\n    tag_175:\n        /* \"#utility.yul\":6147:6266   */\n    tag_174:\n        /* \"#utility.yul\":6305:6306   */\n      0x00\n        /* \"#utility.yul\":6330:6391   */\n      tag_176\n        /* \"#utility.yul\":6383:6390   */\n      dup5\n        /* \"#utility.yul\":6374:6380   */\n      dup3\n        /* \"#utility.yul\":6363:6372   */\n      dup6\n        /* \"#utility.yul\":6359:6381   */\n      add\n        /* \"#utility.yul\":6330:6391   */\n      tag_97\n      jump\t// in\n    tag_176:\n        /* \"#utility.yul\":6320:6391   */\n      swap2\n      pop\n        /* \"#utility.yul\":6276:6401   */\n      pop\n        /* \"#utility.yul\":6063:6408   */\n      swap3\n      swap2\n      pop\n      pop\n      jump\t// out\n        /* \"#utility.yul\":6414:6586   */\n    tag_98:\n        /* \"#utility.yul\":6554:6578   */\n      0x546f6b656e41207472616e73666572206661696c656400000000000000000000\n        /* \"#utility.yul\":6550:6551   */\n      0x00\n        /* \"#utility.yul\":6542:6548   */\n      dup3\n        /* \"#utility.yul\":6538:6552   */\n      add\n        /* \"#utility.yul\":6531:6579   */\n      mstore\n        /* \"#utility.yul\":6414:6586   */\n      pop\n      jump\t// out\n        /* \"#utility.yul\":6592:6958   */\n    tag_99:\n        /* \"#utility.yul\":6734:6737   */\n      0x00\n        /* \"#utility.yul\":6755:6822   */\n      tag_179\n        /* \"#utility.yul\":6819:6821   */\n      0x16\n        /* \"#utility.yul\":6814:6817   */\n      dup4\n        /* \"#utility.yul\":6755:6822   */\n      tag_92\n      jump\t// in\n    tag_179:\n        /* \"#utility.yul\":6748:6822   */\n      swap2\n      pop\n        /* \"#utility.yul\":6831:6924   */\n      tag_180\n        /* \"#utility.yul\":6920:6923   */\n      dup3\n        /* \"#utility.yul\":6831:6924   */\n      tag_98\n      jump\t// in\n    tag_180:\n        /* \"#utility.yul\":6949:6951   */\n      0x20\n        /* \"#utility.yul\":6944:6947   */\n      dup3\n        /* \"#utility.yul\":6940:6952   */\n      add\n        /* \"#utility.yul\":6933:6952   */\n      swap1\n      pop\n        /* \"#utility.yul\":6592:6958   */\n      swap2\n      swap1\n      pop\n      jump\t// out\n        /* \"#utility.yul\":6964:7383   */\n    tag_46:\n        /* \"#utility.yul\":7130:7134   */\n      0x00\n        /* \"#utility.yul\":7168:7170   */\n      0x20\n        /* \"#utility.yul\":7157:7166   */\n      dup3\n        /* \"#utility.yul\":7153:7171   */\n      add\n        /* \"#utility.yul\":7145:7171   */\n      swap1\n      pop\n        /* \"#utility.yul\":7217:7226   */\n      dup2\n        /* \"#utility.yul\":7211:7215   */\n      dup2\n        /* \"#utility.yul\":7207:7227   */\n      sub\n        /* \"#utility.yul\":7203:7204   */\n      0x00\n        /* \"#utility.yul\":7192:7201   */\n      dup4\n        /* \"#utility.yul\":7188:7205   */\n      add\n        /* \"#utility.yul\":7181:7228   */\n      mstore\n        /* \"#utility.yul\":7245:7376   */\n      tag_182\n        /* \"#utility.yul\":7371:7375   */\n      dup2\n        /* \"#utility.yul\":7245:7376   */\n      tag_99\n      jump\t// in\n    tag_182:\n        /* \"#utility.yul\":7237:7376   */\n      swap1\n      pop\n        /* \"#utility.yul\":6964:7383   */\n      swap2\n      swap1\n      pop\n      jump\t// out\n        /* \"#utility.yul\":7389:7721   */\n    tag_48:\n        /* \"#utility.yul\":7510:7514   */\n      0x00\n        /* \"#utility.yul\":7548:7550   */\n      0x40\n        /* \"#utility.yul\":7537:7546   */\n      dup3\n        /* \"#utility.yul\":7533:7551   */\n      add\n        /* \"#utility.yul\":7525:7551   */\n      swap1\n      pop\n        /* \"#utility.yul\":7561:7632   */\n      tag_184\n        /* \"#utility.yul\":7629:7630   */\n      0x00\n        /* \"#utility.yul\":7618:7627   */\n      dup4\n        /* \"#utility.yul\":7614:7631   */\n      add\n        /* \"#utility.yul\":7605:7611   */\n      dup6\n        /* \"#utility.yul\":7561:7632   */\n      tag_90\n      jump\t// in\n    tag_184:\n        /* \"#utility.yul\":7642:7714   */\n      tag_185\n        /* \"#utility.yul\":7710:7712   */\n      0x20\n        /* \"#utility.yul\":7699:7708   */\n      dup4\n        /* \"#utility.yul\":7695:7713   */\n      add\n        /* \"#utility.yul\":7686:7692   */\n      dup5\n        /* \"#utility.yul\":7642:7714   */\n      tag_89\n      jump\t// in\n    tag_185:\n        /* \"#utility.yul\":7389:7721   */\n      swap4\n      swap3\n      pop\n      pop\n      pop\n      jump\t// out\n        /* \"#utility.yul\":7727:7899   */\n    tag_100:\n        /* \"#utility.yul\":7867:7891   */\n      0x546f6b656e42207472616e73666572206661696c656400000000000000000000\n        /* \"#utility.yul\":7863:7864   */\n      0x00\n        /* \"#utility.yul\":7855:7861   */\n      dup3\n        /* \"#utility.yul\":7851:7865   */\n      add\n        /* \"#utility.yul\":7844:7892   */\n      mstore\n        /* \"#utility.yul\":7727:7899   */\n      pop\n      jump\t// out\n        /* \"#utility.yul\":7905:8271   */\n    tag_101:\n        /* \"#utility.yul\":8047:8050   */\n      0x00\n        /* \"#utility.yul\":8068:8135   */\n      tag_188\n        /* \"#utility.yul\":8132:8134   */\n      0x16\n        /* \"#utility.yul\":8127:8130   */\n      dup4\n        /* \"#utility.yul\":8068:8135   */\n      tag_92\n      jump\t// in\n    tag_188:\n        /* \"#utility.yul\":8061:8135   */\n      swap2\n      pop\n        /* \"#utility.yul\":8144:8237   */\n      tag_189\n        /* \"#utility.yul\":8233:8236   */\n      dup3\n        /* \"#utility.yul\":8144:8237   */\n      tag_100\n      jump\t// in\n    tag_189:\n        /* \"#utility.yul\":8262:8264   */\n      0x20\n        /* \"#utility.yul\":8257:8260   */\n      dup3\n        /* \"#utility.yul\":8253:8265   */\n      add\n        /* \"#utility.yul\":8246:8265   */\n      swap1\n      pop\n        /* \"#utility.yul\":7905:8271   */\n      swap2\n      swap1\n      pop\n      jump\t// out\n        /* \"#utility.yul\":8277:8696   */\n    tag_54:\n        /* \"#utility.yul\":8443:8447   */\n      0x00\n        /* \"#utility.yul\":8481:8483   */\n      0x20\n        /* \"#utility.yul\":8470:8479   */\n      dup3\n        /* \"#utility.yul\":8466:8484   */\n      add\n        /* \"#utility.yul\":8458:8484   */\n      swap1\n      pop\n        /* \"#utility.yul\":8530:8539   */\n      dup2\n        /* \"#utility.yul\":8524:8528   */\n      dup2\n        /* \"#utility.yul\":8520:8540   */\n      sub\n        /* \"#utility.yul\":8516:8517   */\n      0x00\n        /* \"#utility.yul\":8505:8514   */\n      dup4\n        /* \"#utility.yul\":8501:8518   */\n      add\n        /* \"#utility.yul\":8494:8541   */\n      mstore\n        /* \"#utility.yul\":8558:8689   */\n      tag_191\n        /* \"#utility.yul\":8684:8688   */\n      dup2\n        /* \"#utility.yul\":8558:8689   */\n      tag_101\n      jump\t// in\n    tag_191:\n        /* \"#utility.yul\":8550:8689   */\n      swap1\n      pop\n        /* \"#utility.yul\":8277:8696   */\n      swap2\n      swap1\n      pop\n      jump\t// out\n\n    auxdata: 0xa26469706673582212203e8a8fb98bea7a801cc7ad30de18ee750e41a6487dc397ef455b13bc56dbb89d64736f6c634300081e0033\n}\n",
				"bytecode": {
					"linkReferences": {},
					"object": "608060405234801561000f575f5ffd5b50604051610cb1380380610cb183398181016040528101906100319190610115565b815f5f6101000a81548173ffffffffffffffffffffffffffffffffffffffff021916908373ffffffffffffffffffffffffffffffffffffffff1602179055508060015f6101000a81548173ffffffffffffffffffffffffffffffffffffffff021916908373ffffffffffffffffffffffffffffffffffffffff1602179055505050610153565b5f5ffd5b5f73ffffffffffffffffffffffffffffffffffffffff82169050919050565b5f6100e4826100bb565b9050919050565b6100f4816100da565b81146100fe575f5ffd5b50565b5f8151905061010f816100eb565b92915050565b5f5f6040838503121561012b5761012a6100b7565b5b5f61013885828601610101565b925050602061014985828601610101565b9150509250929050565b610b51806101605f395ff3fe608060405234801561000f575f5ffd5b5060043610610055575f3560e01c80630fc63d10146100595780635f64b55b1461007757806394b918de14610095578063abd3f612146100b1578063ffd2a7d3146100e2575b5f5ffd5b610061610101565b60405161006e9190610799565b60405180910390f35b61007f610125565b60405161008c9190610799565b60405180910390f35b6100af60048036038101906100aa91906107e9565b61014a565b005b6100cb60048036038101906100c6919061084f565b6104a8565b6040516100d9929190610889565b60405180910390f35b6100ea6105e4565b6040516100f8929190610889565b60405180910390f35b5f5f9054906101000a900473ffffffffffffffffffffffffffffffffffffffff1681565b60015f9054906101000a900473ffffffffffffffffffffffffffffffffffffffff1681565b5f60015f9054906101000a900473ffffffffffffffffffffffffffffffffffffffff1673ffffffffffffffffffffffffffffffffffffffff166370a08231306040518263ffffffff1660e01b81526004016101a591906108bf565b602060405180830381865afa1580156101c0573d5f5f3e3d5ffd5b505050506040513d601f19601f820116820180604052508101906101e491906108ec565b905081811015610229576040517f08c379a000000000000000000000000000000000000000000000000000000000815260040161022090610971565b60405180910390fd5b5f5f9054906101000a900473ffffffffffffffffffffffffffffffffffffffff1673ffffffffffffffffffffffffffffffffffffffff166323b872dd3330856040518463ffffffff1660e01b81526004016102869392919061098f565b6020604051808303815f875af11580156102a2573d5f5f3e3d5ffd5b505050506040513d601f19601f820116820180604052508101906102c691906109f9565b610305576040517f08c379a00000000000000000000000000000000000000000000000000000000081526004016102fc90610a6e565b60405180910390fd5b5f82905060015f9054906101000a900473ffffffffffffffffffffffffffffffffffffffff1673ffffffffffffffffffffffffffffffffffffffff1663a9059cbb33836040518363ffffffff1660e01b8152600401610365929190610a8c565b6020604051808303815f875af1158015610381573d5f5f3e3d5ffd5b505050506040513d601f19601f820116820180604052508101906103a591906109f9565b6103e4576040517f08c379a00000000000000000000000000000000000000000000000000000000081526004016103db90610afd565b60405180910390fd5b60015f9054906101000a900473ffffffffffffffffffffffffffffffffffffffff1673ffffffffffffffffffffffffffffffffffffffff165f5f9054906101000a900473ffffffffffffffffffffffffffffffffffffffff1673ffffffffffffffffffffffffffffffffffffffff163373ffffffffffffffffffffffffffffffffffffffff167fcd3829a3813dc3cdd188fd3d01dcf3268c16be2fdd2dd21d0665418816e46062868560405161049b929190610889565b60405180910390a4505050565b5f5f5f5f9054906101000a900473ffffffffffffffffffffffffffffffffffffffff1673ffffffffffffffffffffffffffffffffffffffff166370a08231846040518263ffffffff1660e01b815260040161050391906108bf565b602060405180830381865afa15801561051e573d5f5f3e3d5ffd5b505050506040513d601f19601f8201168201806040525081019061054291906108ec565b915060015f9054906101000a900473ffffffffffffffffffffffffffffffffffffffff1673ffffffffffffffffffffffffffffffffffffffff166370a08231846040518263ffffffff1660e01b815260040161059e91906108bf565b602060405180830381865afa1580156105b9573d5f5f3e3d5ffd5b505050506040513d601f19601f820116820180604052508101906105dd91906108ec565b9050915091565b5f5f5f5f9054906101000a900473ffffffffffffffffffffffffffffffffffffffff1673ffffffffffffffffffffffffffffffffffffffff166370a08231306040518263ffffffff1660e01b815260040161063f91906108bf565b602060405180830381865afa15801561065a573d5f5f3e3d5ffd5b505050506040513d601f19601f8201168201806040525081019061067e91906108ec565b915060015f9054906101000a900473ffffffffffffffffffffffffffffffffffffffff1673ffffffffffffffffffffffffffffffffffffffff166370a08231306040518263ffffffff1660e01b81526004016106da91906108bf565b602060405180830381865afa1580156106f5573d5f5f3e3d5ffd5b505050506040513d601f19601f8201168201806040525081019061071991906108ec565b90509091565b5f73ffffffffffffffffffffffffffffffffffffffff82169050919050565b5f819050919050565b5f61076161075c6107578461071f565b61073e565b61071f565b9050919050565b5f61077282610747565b9050919050565b5f61078382610768565b9050919050565b61079381610779565b82525050565b5f6020820190506107ac5f83018461078a565b92915050565b5f5ffd5b5f819050919050565b6107c8816107b6565b81146107d2575f5ffd5b50565b5f813590506107e3816107bf565b92915050565b5f602082840312156107fe576107fd6107b2565b5b5f61080b848285016107d5565b91505092915050565b5f61081e8261071f565b9050919050565b61082e81610814565b8114610838575f5ffd5b50565b5f8135905061084981610825565b92915050565b5f60208284031215610864576108636107b2565b5b5f6108718482850161083b565b91505092915050565b610883816107b6565b82525050565b5f60408201905061089c5f83018561087a565b6108a9602083018461087a565b9392505050565b6108b981610814565b82525050565b5f6020820190506108d25f8301846108b0565b92915050565b5f815190506108e6816107bf565b92915050565b5f60208284031215610901576109006107b2565b5b5f61090e848285016108d8565b91505092915050565b5f82825260208201905092915050565b7f496e73756666696369656e7420746f6b656e4220696e20636f6e7472616374005f82015250565b5f61095b601f83610917565b915061096682610927565b602082019050919050565b5f6020820190508181035f8301526109888161094f565b9050919050565b5f6060820190506109a25f8301866108b0565b6109af60208301856108b0565b6109bc604083018461087a565b949350505050565b5f8115159050919050565b6109d8816109c4565b81146109e2575f5ffd5b50565b5f815190506109f3816109cf565b92915050565b5f60208284031215610a0e57610a0d6107b2565b5b5f610a1b848285016109e5565b91505092915050565b7f546f6b656e41207472616e73666572206661696c6564000000000000000000005f82015250565b5f610a58601683610917565b9150610a6382610a24565b602082019050919050565b5f6020820190508181035f830152610a8581610a4c565b9050919050565b5f604082019050610a9f5f8301856108b0565b610aac602083018461087a565b9392505050565b7f546f6b656e42207472616e73666572206661696c6564000000000000000000005f82015250565b5f610ae7601683610917565b9150610af282610ab3565b602082019050919050565b5f6020820190508181035f830152610b1481610adb565b905091905056fea26469706673582212203e8a8fb98bea7a801cc7ad30de18ee750e41a6487dc397ef455b13bc56dbb89d64736f6c634300081e0033",
					"opcodes": "PUSH1 0x80 PUSH1 0x40 MSTORE CALLVALUE DUP1 ISZERO PUSH2 0xF JUMPI PUSH0 PUSH0 REVERT JUMPDEST POP PUSH1 0x40 MLOAD PUSH2 0xCB1 CODESIZE SUB DUP1 PUSH2 0xCB1 DUP4 CODECOPY DUP2 DUP2 ADD PUSH1 0x40 MSTORE DUP2 ADD SWAP1 PUSH2 0x31 SWAP2 SWAP1 PUSH2 0x115 JUMP JUMPDEST DUP2 PUSH0 PUSH0 PUSH2 0x100 EXP DUP2 SLOAD DUP2 PUSH20 0xFFFFFFFFFFFFFFFFFFFFFFFFFFFFFFFFFFFFFFFF MUL NOT AND SWAP1 DUP4 PUSH20 0xFFFFFFFFFFFFFFFFFFFFFFFFFFFFFFFFFFFFFFFF AND MUL OR SWAP1 SSTORE POP DUP1 PUSH1 0x1 PUSH0 PUSH2 0x100 EXP DUP2 SLOAD DUP2 PUSH20 0xFFFFFFFFFFFFFFFFFFFFFFFFFFFFFFFFFFFFFFFF MUL NOT AND SWAP1 DUP4 PUSH20 0xFFFFFFFFFFFFFFFFFFFFFFFFFFFFFFFFFFFFFFFF AND MUL OR SWAP1 SSTORE POP POP POP PUSH2 0x153 JUMP JUMPDEST PUSH0 PUSH0 REVERT JUMPDEST PUSH0 PUSH20 0xFFFFFFFFFFFFFFFFFFFFFFFFFFFFFFFFFFFFFFFF DUP3 AND SWAP1 POP SWAP2 SWAP1 POP JUMP JUMPDEST PUSH0 PUSH2 0xE4 DUP3 PUSH2 0xBB JUMP JUMPDEST SWAP1 POP SWAP2 SWAP1 POP JUMP JUMPDEST PUSH2 0xF4 DUP2 PUSH2 0xDA JUMP JUMPDEST DUP2 EQ PUSH2 0xFE JUMPI PUSH0 PUSH0 REVERT JUMPDEST POP JUMP JUMPDEST PUSH0 DUP2 MLOAD SWAP1 POP PUSH2 0x10F DUP2 PUSH2 0xEB JUMP JUMPDEST SWAP3 SWAP2 POP POP JUMP JUMPDEST PUSH0 PUSH0 PUSH1 0x40 DUP4 DUP6 SUB SLT ISZERO PUSH2 0x12B JUMPI PUSH2 0x12A PUSH2 0xB7 JUMP JUMPDEST JUMPDEST PUSH0 PUSH2 0x138 DUP6 DUP3 DUP7 ADD PUSH2 0x101 JUMP JUMPDEST SWAP3 POP POP PUSH1 0x20 PUSH2 0x149 DUP6 DUP3 DUP7 ADD PUSH2 0x101 JUMP JUMPDEST SWAP2 POP POP SWAP3 POP SWAP3 SWAP1 POP JUMP JUMPDEST PUSH2 0xB51 DUP1 PUSH2 0x160 PUSH0 CODECOPY PUSH0 RETURN INVALID PUSH1 0x80 PUSH1 0x40 MSTORE CALLVALUE DUP1 ISZERO PUSH2 0xF JUMPI PUSH0 PUSH0 REVERT JUMPDEST POP PUSH1 0x4 CALLDATASIZE LT PUSH2 0x55 JUMPI PUSH0 CALLDATALOAD PUSH1 0xE0 SHR DUP1 PUSH4 0xFC63D10 EQ PUSH2 0x59 JUMPI DUP1 PUSH4 0x5F64B55B EQ PUSH2 0x77 JUMPI DUP1 PUSH4 0x94B918DE EQ PUSH2 0x95 JUMPI DUP1 PUSH4 0xABD3F612 EQ PUSH2 0xB1 JUMPI DUP1 PUSH4 0xFFD2A7D3 EQ PUSH2 0xE2 JUMPI JUMPDEST PUSH0 PUSH0 REVERT JUMPDEST PUSH2 0x61 PUSH2 0x101 JUMP JUMPDEST PUSH1 0x40 MLOAD PUSH2 0x6E SWAP2 SWAP1 PUSH2 0x799 JUMP JUMPDEST PUSH1 0x40 MLOAD DUP1 SWAP2 SUB SWAP1 RETURN JUMPDEST PUSH2 0x7F PUSH2 0x125 JUMP JUMPDEST PUSH1 0x40 MLOAD PUSH2 0x8C SWAP2 SWAP1 PUSH2 0x799 JUMP JUMPDEST PUSH1 0x40 MLOAD DUP1 SWAP2 SUB SWAP1 RETURN JUMPDEST PUSH2 0xAF PUSH1 0x4 DUP1 CALLDATASIZE SUB DUP2 ADD SWAP1 PUSH2 0xAA SWAP2 SWAP1 PUSH2 0x7E9 JUMP JUMPDEST PUSH2 0x14A JUMP JUMPDEST STOP JUMPDEST PUSH2 0xCB PUSH1 0x4 DUP1 CALLDATASIZE SUB DUP2 ADD SWAP1 PUSH2 0xC6 SWAP2 SWAP1 PUSH2 0x84F JUMP JUMPDEST PUSH2 0x4A8 JUMP JUMPDEST PUSH1 0x40 MLOAD PUSH2 0xD9 SWAP3 SWAP2 SWAP1 PUSH2 0x889 JUMP JUMPDEST PUSH1 0x40 MLOAD DUP1 SWAP2 SUB SWAP1 RETURN JUMPDEST PUSH2 0xEA PUSH2 0x5E4 JUMP JUMPDEST PUSH1 0x40 MLOAD PUSH2 0xF8 SWAP3 SWAP2 SWAP1 PUSH2 0x889 JUMP JUMPDEST PUSH1 0x40 MLOAD DUP1 SWAP2 SUB SWAP1 RETURN JUMPDEST PUSH0 PUSH0 SWAP1 SLOAD SWAP1 PUSH2 0x100 EXP SWAP1 DIV PUSH20 0xFFFFFFFFFFFFFFFFFFFFFFFFFFFFFFFFFFFFFFFF AND DUP2 JUMP JUMPDEST PUSH1 0x1 PUSH0 SWAP1 SLOAD SWAP1 PUSH2 0x100 EXP SWAP1 DIV PUSH20 0xFFFFFFFFFFFFFFFFFFFFFFFFFFFFFFFFFFFFFFFF AND DUP2 JUMP JUMPDEST PUSH0 PUSH1 0x1 PUSH0 SWAP1 SLOAD SWAP1 PUSH2 0x100 EXP SWAP1 DIV PUSH20 0xFFFFFFFFFFFFFFFFFFFFFFFFFFFFFFFFFFFFFFFF AND PUSH20 0xFFFFFFFFFFFFFFFFFFFFFFFFFFFFFFFFFFFFFFFF AND PUSH4 0x70A08231 ADDRESS PUSH1 0x40 MLOAD DUP3 PUSH4 0xFFFFFFFF AND PUSH1 0xE0 SHL DUP2 MSTORE PUSH1 0x4 ADD PUSH2 0x1A5 SWAP2 SWAP1 PUSH2 0x8BF JUMP JUMPDEST PUSH1 0x20 PUSH1 0x40 MLOAD DUP1 DUP4 SUB DUP2 DUP7 GAS STATICCALL ISZERO DUP1 ISZERO PUSH2 0x1C0 JUMPI RETURNDATASIZE PUSH0 PUSH0 RETURNDATACOPY RETURNDATASIZE PUSH0 REVERT JUMPDEST POP POP POP POP PUSH1 0x40 MLOAD RETURNDATASIZE PUSH1 0x1F NOT PUSH1 0x1F DUP3 ADD AND DUP3 ADD DUP1 PUSH1 0x40 MSTORE POP DUP2 ADD SWAP1 PUSH2 0x1E4 SWAP2 SWAP1 PUSH2 0x8EC JUMP JUMPDEST SWAP1 POP DUP2 DUP2 LT ISZERO PUSH2 0x229 JUMPI PUSH1 0x40 MLOAD PUSH32 0x8C379A000000000000000000000000000000000000000000000000000000000 DUP2 MSTORE PUSH1 0x4 ADD PUSH2 0x220 SWAP1 PUSH2 0x971 JUMP JUMPDEST PUSH1 0x40 MLOAD DUP1 SWAP2 SUB SWAP1 REVERT JUMPDEST PUSH0 PUSH0 SWAP1 SLOAD SWAP1 PUSH2 0x100 EXP SWAP1 DIV PUSH20 0xFFFFFFFFFFFFFFFFFFFFFFFFFFFFFFFFFFFFFFFF AND PUSH20 0xFFFFFFFFFFFFFFFFFFFFFFFFFFFFFFFFFFFFFFFF AND PUSH4 0x23B872DD CALLER ADDRESS DUP6 PUSH1 0x40 MLOAD DUP5 PUSH4 0xFFFFFFFF AND PUSH1 0xE0 SHL DUP2 MSTORE PUSH1 0x4 ADD PUSH2 0x286 SWAP4 SWAP3 SWAP2 SWAP1 PUSH2 0x98F JUMP JUMPDEST PUSH1 0x20 PUSH1 0x40 MLOAD DUP1 DUP4 SUB DUP2 PUSH0 DUP8 GAS CALL ISZERO DUP1 ISZERO PUSH2 0x2A2 JUMPI RETURNDATASIZE PUSH0 PUSH0 RETURNDATACOPY RETURNDATASIZE PUSH0 REVERT JUMPDEST POP POP POP POP PUSH1 0x40 MLOAD RETURNDATASIZE PUSH1 0x1F NOT PUSH1 0x1F DUP3 ADD AND DUP3 ADD DUP1 PUSH1 0x40 MSTORE POP DUP2 ADD SWAP1 PUSH2 0x2C6 SWAP2 SWAP1 PUSH2 0x9F9 JUMP JUMPDEST PUSH2 0x305 JUMPI PUSH1 0x40 MLOAD PUSH32 0x8C379A000000000000000000000000000000000000000000000000000000000 DUP2 MSTORE PUSH1 0x4 ADD PUSH2 0x2FC SWAP1 PUSH2 0xA6E JUMP JUMPDEST PUSH1 0x40 MLOAD DUP1 SWAP2 SUB SWAP1 REVERT JUMPDEST PUSH0 DUP3 SWAP1 POP PUSH1 0x1 PUSH0 SWAP1 SLOAD SWAP1 PUSH2 0x100 EXP SWAP1 DIV PUSH20 0xFFFFFFFFFFFFFFFFFFFFFFFFFFFFFFFFFFFFFFFF AND PUSH20 0xFFFFFFFFFFFFFFFFFFFFFFFFFFFFFFFFFFFFFFFF AND PUSH4 0xA9059CBB CALLER DUP4 PUSH1 0x40 MLOAD DUP4 PUSH4 0xFFFFFFFF AND PUSH1 0xE0 SHL DUP2 MSTORE PUSH1 0x4 ADD PUSH2 0x365 SWAP3 SWAP2 SWAP1 PUSH2 0xA8C JUMP JUMPDEST PUSH1 0x20 PUSH1 0x40 MLOAD DUP1 DUP4 SUB DUP2 PUSH0 DUP8 GAS CALL ISZERO DUP1 ISZERO PUSH2 0x381 JUMPI RETURNDATASIZE PUSH0 PUSH0 RETURNDATACOPY RETURNDATASIZE PUSH0 REVERT JUMPDEST POP POP POP POP PUSH1 0x40 MLOAD RETURNDATASIZE PUSH1 0x1F NOT PUSH1 0x1F DUP3 ADD AND DUP3 ADD DUP1 PUSH1 0x40 MSTORE POP DUP2 ADD SWAP1 PUSH2 0x3A5 SWAP2 SWAP1 PUSH2 0x9F9 JUMP JUMPDEST PUSH2 0x3E4 JUMPI PUSH1 0x40 MLOAD PUSH32 0x8C379A000000000000000000000000000000000000000000000000000000000 DUP2 MSTORE PUSH1 0x4 ADD PUSH2 0x3DB SWAP1 PUSH2 0xAFD JUMP JUMPDEST PUSH1 0x40 MLOAD DUP1 SWAP2 SUB SWAP1 REVERT JUMPDEST PUSH1 0x1 PUSH0 SWAP1 SLOAD SWAP1 PUSH2 0x100 EXP SWAP1 DIV PUSH20 0xFFFFFFFFFFFFFFFFFFFFFFFFFFFFFFFFFFFFFFFF AND PUSH20 0xFFFFFFFFFFFFFFFFFFFFFFFFFFFFFFFFFFFFFFFF AND PUSH0 PUSH0 SWAP1 SLOAD SWAP1 PUSH2 0x100 EXP SWAP1 DIV PUSH20 0xFFFFFFFFFFFFFFFFFFFFFFFFFFFFFFFFFFFFFFFF AND PUSH20 0xFFFFFFFFFFFFFFFFFFFFFFFFFFFFFFFFFFFFFFFF AND CALLER PUSH20 0xFFFFFFFFFFFFFFFFFFFFFFFFFFFFFFFFFFFFFFFF AND PUSH32 0xCD3829A3813DC3CDD188FD3D01DCF3268C16BE2FDD2DD21D0665418816E46062 DUP7 DUP6 PUSH1 0x40 MLOAD PUSH2 0x49B SWAP3 SWAP2 SWAP1 PUSH2 0x889 JUMP JUMPDEST PUSH1 0x40 MLOAD DUP1 SWAP2 SUB SWAP1 LOG4 POP POP POP JUMP JUMPDEST PUSH0 PUSH0 PUSH0 PUSH0 SWAP1 SLOAD SWAP1 PUSH2 0x100 EXP SWAP1 DIV PUSH20 0xFFFFFFFFFFFFFFFFFFFFFFFFFFFFFFFFFFFFFFFF AND PUSH20 0xFFFFFFFFFFFFFFFFFFFFFFFFFFFFFFFFFFFFFFFF AND PUSH4 0x70A08231 DUP5 PUSH1 0x40 MLOAD DUP3 PUSH4 0xFFFFFFFF AND PUSH1 0xE0 SHL DUP2 MSTORE PUSH1 0x4 ADD PUSH2 0x503 SWAP2 SWAP1 PUSH2 0x8BF JUMP JUMPDEST PUSH1 0x20 PUSH1 0x40 MLOAD DUP1 DUP4 SUB DUP2 DUP7 GAS STATICCALL ISZERO DUP1 ISZERO PUSH2 0x51E JUMPI RETURNDATASIZE PUSH0 PUSH0 RETURNDATACOPY RETURNDATASIZE PUSH0 REVERT JUMPDEST POP POP POP POP PUSH1 0x40 MLOAD RETURNDATASIZE PUSH1 0x1F NOT PUSH1 0x1F DUP3 ADD AND DUP3 ADD DUP1 PUSH1 0x40 MSTORE POP DUP2 ADD SWAP1 PUSH2 0x542 SWAP2 SWAP1 PUSH2 0x8EC JUMP JUMPDEST SWAP2 POP PUSH1 0x1 PUSH0 SWAP1 SLOAD SWAP1 PUSH2 0x100 EXP SWAP1 DIV PUSH20 0xFFFFFFFFFFFFFFFFFFFFFFFFFFFFFFFFFFFFFFFF AND PUSH20 0xFFFFFFFFFFFFFFFFFFFFFFFFFFFFFFFFFFFFFFFF AND PUSH4 0x70A08231 DUP5 PUSH1 0x40 MLOAD DUP3 PUSH4 0xFFFFFFFF AND PUSH1 0xE0 SHL DUP2 MSTORE PUSH1 0x4 ADD PUSH2 0x59E SWAP2 SWAP1 PUSH2 0x8BF JUMP JUMPDEST PUSH1 0x20 PUSH1 0x40 MLOAD DUP1 DUP4 SUB DUP2 DUP7 GAS STATICCALL ISZERO DUP1 ISZERO PUSH2 0x5B9 JUMPI RETURNDATASIZE PUSH0 PUSH0 RETURNDATACOPY RETURNDATASIZE PUSH0 REVERT JUMPDEST POP POP POP POP PUSH1 0x40 MLOAD RETURNDATASIZE PUSH1 0x1F NOT PUSH1 0x1F DUP3 ADD AND DUP3 ADD DUP1 PUSH1 0x40 MSTORE POP DUP2 ADD SWAP1 PUSH2 0x5DD SWAP2 SWAP1 PUSH2 0x8EC JUMP JUMPDEST SWAP1 POP SWAP2 POP SWAP2 JUMP JUMPDEST PUSH0 PUSH0 PUSH0 PUSH0 SWAP1 SLOAD SWAP1 PUSH2 0x100 EXP SWAP1 DIV PUSH20 0xFFFFFFFFFFFFFFFFFFFFFFFFFFFFFFFFFFFFFFFF AND PUSH20 0xFFFFFFFFFFFFFFFFFFFFFFFFFFFFFFFFFFFFFFFF AND PUSH4 0x70A08231 ADDRESS PUSH1 0x40 MLOAD DUP3 PUSH4 0xFFFFFFFF AND PUSH1 0xE0 SHL DUP2 MSTORE PUSH1 0x4 ADD PUSH2 0x63F SWAP2 SWAP1 PUSH2 0x8BF JUMP JUMPDEST PUSH1 0x20 PUSH1 0x40 MLOAD DUP1 DUP4 SUB DUP2 DUP7 GAS STATICCALL ISZERO DUP1 ISZERO PUSH2 0x65A JUMPI RETURNDATASIZE PUSH0 PUSH0 RETURNDATACOPY RETURNDATASIZE PUSH0 REVERT JUMPDEST POP POP POP POP PUSH1 0x40 MLOAD RETURNDATASIZE PUSH1 0x1F NOT PUSH1 0x1F DUP3 ADD AND DUP3 ADD DUP1 PUSH1 0x40 MSTORE POP DUP2 ADD SWAP1 PUSH2 0x67E SWAP2 SWAP1 PUSH2 0x8EC JUMP JUMPDEST SWAP2 POP PUSH1 0x1 PUSH0 SWAP1 SLOAD SWAP1 PUSH2 0x100 EXP SWAP1 DIV PUSH20 0xFFFFFFFFFFFFFFFFFFFFFFFFFFFFFFFFFFFFFFFF AND PUSH20 0xFFFFFFFFFFFFFFFFFFFFFFFFFFFFFFFFFFFFFFFF AND PUSH4 0x70A08231 ADDRESS PUSH1 0x40 MLOAD DUP3 PUSH4 0xFFFFFFFF AND PUSH1 0xE0 SHL DUP2 MSTORE PUSH1 0x4 ADD PUSH2 0x6DA SWAP2 SWAP1 PUSH2 0x8BF JUMP JUMPDEST PUSH1 0x20 PUSH1 0x40 MLOAD DUP1 DUP4 SUB DUP2 DUP7 GAS STATICCALL ISZERO DUP1 ISZERO PUSH2 0x6F5 JUMPI RETURNDATASIZE PUSH0 PUSH0 RETURNDATACOPY RETURNDATASIZE PUSH0 REVERT JUMPDEST POP POP POP POP PUSH1 0x40 MLOAD RETURNDATASIZE PUSH1 0x1F NOT PUSH1 0x1F DUP3 ADD AND DUP3 ADD DUP1 PUSH1 0x40 MSTORE POP DUP2 ADD SWAP1 PUSH2 0x719 SWAP2 SWAP1 PUSH2 0x8EC JUMP JUMPDEST SWAP1 POP SWAP1 SWAP2 JUMP JUMPDEST PUSH0 PUSH20 0xFFFFFFFFFFFFFFFFFFFFFFFFFFFFFFFFFFFFFFFF DUP3 AND SWAP1 POP SWAP2 SWAP1 POP JUMP JUMPDEST PUSH0 DUP2 SWAP1 POP SWAP2 SWAP1 POP JUMP JUMPDEST PUSH0 PUSH2 0x761 PUSH2 0x75C PUSH2 0x757 DUP5 PUSH2 0x71F JUMP JUMPDEST PUSH2 0x73E JUMP JUMPDEST PUSH2 0x71F JUMP JUMPDEST SWAP1 POP SWAP2 SWAP1 POP JUMP JUMPDEST PUSH0 PUSH2 0x772 DUP3 PUSH2 0x747 JUMP JUMPDEST SWAP1 POP SWAP2 SWAP1 POP JUMP JUMPDEST PUSH0 PUSH2 0x783 DUP3 PUSH2 0x768 JUMP JUMPDEST SWAP1 POP SWAP2 SWAP1 POP JUMP JUMPDEST PUSH2 0x793 DUP2 PUSH2 0x779 JUMP JUMPDEST DUP3 MSTORE POP POP JUMP JUMPDEST PUSH0 PUSH1 0x20 DUP3 ADD SWAP1 POP PUSH2 0x7AC PUSH0 DUP4 ADD DUP5 PUSH2 0x78A JUMP JUMPDEST SWAP3 SWAP2 POP POP JUMP JUMPDEST PUSH0 PUSH0 REVERT JUMPDEST PUSH0 DUP2 SWAP1 POP SWAP2 SWAP1 POP JUMP JUMPDEST PUSH2 0x7C8 DUP2 PUSH2 0x7B6 JUMP JUMPDEST DUP2 EQ PUSH2 0x7D2 JUMPI PUSH0 PUSH0 REVERT JUMPDEST POP JUMP JUMPDEST PUSH0 DUP2 CALLDATALOAD SWAP1 POP PUSH2 0x7E3 DUP2 PUSH2 0x7BF JUMP JUMPDEST SWAP3 SWAP2 POP POP JUMP JUMPDEST PUSH0 PUSH1 0x20 DUP3 DUP5 SUB SLT ISZERO PUSH2 0x7FE JUMPI PUSH2 0x7FD PUSH2 0x7B2 JUMP JUMPDEST JUMPDEST PUSH0 PUSH2 0x80B DUP5 DUP3 DUP6 ADD PUSH2 0x7D5 JUMP JUMPDEST SWAP2 POP POP SWAP3 SWAP2 POP POP JUMP JUMPDEST PUSH0 PUSH2 0x81E DUP3 PUSH2 0x71F JUMP JUMPDEST SWAP1 POP SWAP2 SWAP1 POP JUMP JUMPDEST PUSH2 0x82E DUP2 PUSH2 0x814 JUMP JUMPDEST DUP2 EQ PUSH2 0x838 JUMPI PUSH0 PUSH0 REVERT JUMPDEST POP JUMP JUMPDEST PUSH0 DUP2 CALLDATALOAD SWAP1 POP PUSH2 0x849 DUP2 PUSH2 0x825 JUMP JUMPDEST SWAP3 SWAP2 POP POP JUMP JUMPDEST PUSH0 PUSH1 0x20 DUP3 DUP5 SUB SLT ISZERO PUSH2 0x864 JUMPI PUSH2 0x863 PUSH2 0x7B2 JUMP JUMPDEST JUMPDEST PUSH0 PUSH2 0x871 DUP5 DUP3 DUP6 ADD PUSH2 0x83B JUMP JUMPDEST SWAP2 POP POP SWAP3 SWAP2 POP POP JUMP JUMPDEST PUSH2 0x883 DUP2 PUSH2 0x7B6 JUMP JUMPDEST DUP3 MSTORE POP POP JUMP JUMPDEST PUSH0 PUSH1 0x40 DUP3 ADD SWAP1 POP PUSH2 0x89C PUSH0 DUP4 ADD DUP6 PUSH2 0x87A JUMP JUMPDEST PUSH2 0x8A9 PUSH1 0x20 DUP4 ADD DUP5 PUSH2 0x87A JUMP JUMPDEST SWAP4 SWAP3 POP POP POP JUMP JUMPDEST PUSH2 0x8B9 DUP2 PUSH2 0x814 JUMP JUMPDEST DUP3 MSTORE POP POP JUMP JUMPDEST PUSH0 PUSH1 0x20 DUP3 ADD SWAP1 POP PUSH2 0x8D2 PUSH0 DUP4 ADD DUP5 PUSH2 0x8B0 JUMP JUMPDEST SWAP3 SWAP2 POP POP JUMP JUMPDEST PUSH0 DUP2 MLOAD SWAP1 POP PUSH2 0x8E6 DUP2 PUSH2 0x7BF JUMP JUMPDEST SWAP3 SWAP2 POP POP JUMP JUMPDEST PUSH0 PUSH1 0x20 DUP3 DUP5 SUB SLT ISZERO PUSH2 0x901 JUMPI PUSH2 0x900 PUSH2 0x7B2 JUMP JUMPDEST JUMPDEST PUSH0 PUSH2 0x90E DUP5 DUP3 DUP6 ADD PUSH2 0x8D8 JUMP JUMPDEST SWAP2 POP POP SWAP3 SWAP2 POP POP JUMP JUMPDEST PUSH0 DUP3 DUP3 MSTORE PUSH1 0x20 DUP3 ADD SWAP1 POP SWAP3 SWAP2 POP POP JUMP JUMPDEST PUSH32 0x496E73756666696369656E7420746F6B656E4220696E20636F6E747261637400 PUSH0 DUP3 ADD MSTORE POP JUMP JUMPDEST PUSH0 PUSH2 0x95B PUSH1 0x1F DUP4 PUSH2 0x917 JUMP JUMPDEST SWAP2 POP PUSH2 0x966 DUP3 PUSH2 0x927 JUMP JUMPDEST PUSH1 0x20 DUP3 ADD SWAP1 POP SWAP2 SWAP1 POP JUMP JUMPDEST PUSH0 PUSH1 0x20 DUP3 ADD SWAP1 POP DUP2 DUP2 SUB PUSH0 DUP4 ADD MSTORE PUSH2 0x988 DUP2 PUSH2 0x94F JUMP JUMPDEST SWAP1 POP SWAP2 SWAP1 POP JUMP JUMPDEST PUSH0 PUSH1 0x60 DUP3 ADD SWAP1 POP PUSH2 0x9A2 PUSH0 DUP4 ADD DUP7 PUSH2 0x8B0 JUMP JUMPDEST PUSH2 0x9AF PUSH1 0x20 DUP4 ADD DUP6 PUSH2 0x8B0 JUMP JUMPDEST PUSH2 0x9BC PUSH1 0x40 DUP4 ADD DUP5 PUSH2 0x87A JUMP JUMPDEST SWAP5 SWAP4 POP POP POP POP JUMP JUMPDEST PUSH0 DUP2 ISZERO ISZERO SWAP1 POP SWAP2 SWAP1 POP JUMP JUMPDEST PUSH2 0x9D8 DUP2 PUSH2 0x9C4 JUMP JUMPDEST DUP2 EQ PUSH2 0x9E2 JUMPI PUSH0 PUSH0 REVERT JUMPDEST POP JUMP JUMPDEST PUSH0 DUP2 MLOAD SWAP1 POP PUSH2 0x9F3 DUP2 PUSH2 0x9CF JUMP JUMPDEST SWAP3 SWAP2 POP POP JUMP JUMPDEST PUSH0 PUSH1 0x20 DUP3 DUP5 SUB SLT ISZERO PUSH2 0xA0E JUMPI PUSH2 0xA0D PUSH2 0x7B2 JUMP JUMPDEST JUMPDEST PUSH0 PUSH2 0xA1B DUP5 DUP3 DUP6 ADD PUSH2 0x9E5 JUMP JUMPDEST SWAP2 POP POP SWAP3 SWAP2 POP POP JUMP JUMPDEST PUSH32 0x546F6B656E41207472616E73666572206661696C656400000000000000000000 PUSH0 DUP3 ADD MSTORE POP JUMP JUMPDEST PUSH0 PUSH2 0xA58 PUSH1 0x16 DUP4 PUSH2 0x917 JUMP JUMPDEST SWAP2 POP PUSH2 0xA63 DUP3 PUSH2 0xA24 JUMP JUMPDEST PUSH1 0x20 DUP3 ADD SWAP1 POP SWAP2 SWAP1 POP JUMP JUMPDEST PUSH0 PUSH1 0x20 DUP3 ADD SWAP1 POP DUP2 DUP2 SUB PUSH0 DUP4 ADD MSTORE PUSH2 0xA85 DUP2 PUSH2 0xA4C JUMP JUMPDEST SWAP1 POP SWAP2 SWAP1 POP JUMP JUMPDEST PUSH0 PUSH1 0x40 DUP3 ADD SWAP1 POP PUSH2 0xA9F PUSH0 DUP4 ADD DUP6 PUSH2 0x8B0 JUMP JUMPDEST PUSH2 0xAAC PUSH1 0x20 DUP4 ADD DUP5 PUSH2 0x87A JUMP JUMPDEST SWAP4 SWAP3 POP POP POP JUMP JUMPDEST PUSH32 0x546F6B656E42207472616E73666572206661696C656400000000000000000000 PUSH0 DUP3 ADD MSTORE POP JUMP JUMPDEST PUSH0 PUSH2 0xAE7 PUSH1 0x16 DUP4 PUSH2 0x917 JUMP JUMPDEST SWAP2 POP PUSH2 0xAF2 DUP3 PUSH2 0xAB3 JUMP JUMPDEST PUSH1 0x20 DUP3 ADD SWAP1 POP SWAP2 SWAP1 POP JUMP JUMPDEST PUSH0 PUSH1 0x20 DUP3 ADD SWAP1 POP DUP2 DUP2 SUB PUSH0 DUP4 ADD MSTORE PUSH2 0xB14 DUP2 PUSH2 0xADB JUMP JUMPDEST SWAP1 POP SWAP2 SWAP1 POP JUMP INVALID LOG2 PUSH5 0x6970667358 0x22 SLT KECCAK256 RETURNDATACOPY DUP11 DUP16 0xB9 DUP12 0xEA PUSH27 0x801CC7AD30DE18EE750E41A6487DC397EF455B13BC56DBB89D6473 PUSH16 0x6C634300081E00330000000000000000 "
				},
				"gasEstimates": {
					"creation": {
						"codeDepositCost": "579400",
						"executionCost": "infinite",
						"totalCost": "infinite"
					},
					"external": {
						"getContractBalances()": "infinite",
						"getUserBalances(address)": "infinite",
						"swap(uint256)": "infinite",
						"tokenA()": "infinite",
						"tokenB()": "infinite"
					}
				},
				"methodIdentifiers": {
					"getContractBalances()": "ffd2a7d3",
					"getUserBalances(address)": "abd3f612",
					"swap(uint256)": "94b918de",
					"tokenA()": "0fc63d10",
					"tokenB()": "5f64b55b"
				}
			},
			"storageLayout": {
				"storage": [
					{
						"astId": 266,
						"contract": "contracts/lesson8.1/SimpleTokenSwap.sol:TokenSwap",
						"label": "tokenA",
						"offset": 0,
						"slot": "0",
						"type": "t_contract(IERC20)38"
					},
					{
						"astId": 269,
						"contract": "contracts/lesson8.1/SimpleTokenSwap.sol:TokenSwap",
						"label": "tokenB",
						"offset": 0,
						"slot": "1",
						"type": "t_contract(IERC20)38"
					}
				],
				"types": {
					"t_contract(IERC20)38": {
						"encoding": "inplace",
						"label": "contract IERC20",
						"numberOfBytes": "20"
					}
				}
			},
			"userdoc": {
				"kind": "user",
				"methods": {
					"getContractBalances()": {
						"notice": "查询合约持有的代币余额"
					},
					"getUserBalances(address)": {
						"notice": "查询用户持有的代币余额"
					},
					"swap(uint256)": {
						"notice": "执行代币交换"
					}
				},
				"version": 1
			}
		}
	}
}