{
	"contracts/homework/08 VotingSystem2.sol": {
		"VotingSystem": {
			"abi": [
				{
					"inputs": [],
					"stateMutability": "nonpayable",
					"type": "constructor"
				},
				{
					"inputs": [
						{
							"internalType": "string",
							"name": "description",
							"type": "string"
						},
						{
							"internalType": "uint256",
							"name": "durationDays",
							"type": "uint256"
						}
					],
					"name": "createProposal",
					"outputs": [],
					"stateMutability": "nonpayable",
					"type": "function"
				},
				{
					"inputs": [],
					"name": "getWinner",
					"outputs": [
						{
							"internalType": "uint256",
							"name": "",
							"type": "uint256"
						}
					],
					"stateMutability": "view",
					"type": "function"
				},
				{
					"inputs": [
						{
							"internalType": "uint256",
							"name": "",
							"type": "uint256"
						},
						{
							"internalType": "address",
							"name": "",
							"type": "address"
						}
					],
					"name": "hasVoted",
					"outputs": [
						{
							"internalType": "bool",
							"name": "",
							"type": "bool"
						}
					],
					"stateMutability": "view",
					"type": "function"
				},
				{
					"inputs": [],
					"name": "owner",
					"outputs": [
						{
							"internalType": "address",
							"name": "",
							"type": "address"
						}
					],
					"stateMutability": "view",
					"type": "function"
				},
				{
					"inputs": [],
					"name": "proposalCount",
					"outputs": [
						{
							"internalType": "uint256",
							"name": "",
							"type": "uint256"
						}
					],
					"stateMutability": "view",
					"type": "function"
				},
				{
					"inputs": [
						{
							"internalType": "uint256",
							"name": "",
							"type": "uint256"
						}
					],
					"name": "proposals",
					"outputs": [
						{
							"internalType": "string",
							"name": "description",
							"type": "string"
						},
						{
							"internalType": "uint256",
							"name": "voteCount",
							"type": "uint256"
						},
						{
							"internalType": "uint256",
							"name": "deadline",
							"type": "uint256"
						},
						{
							"internalType": "bool",
							"name": "exists",
							"type": "bool"
						}
					],
					"stateMutability": "view",
					"type": "function"
				},
				{
					"inputs": [
						{
							"internalType": "uint256",
							"name": "proposalId",
							"type": "uint256"
						}
					],
					"name": "vote",
					"outputs": [],
					"stateMutability": "nonpayable",
					"type": "function"
				}
			],
			"devdoc": {
				"kind": "dev",
				"methods": {},
				"version": 1
			},
			"evm": {
				"assembly": "    /* \"contracts/homework/08 VotingSystem2.sol\":60:1059  contract VotingSystem {... */\n  mstore(0x40, 0x80)\n    /* \"contracts/homework/08 VotingSystem2.sol\":409:460  constructor() {... */\n  callvalue\n  dup1\n  iszero\n  tag_1\n  jumpi\n  revert(0x00, 0x00)\ntag_1:\n  pop\n    /* \"contracts/homework/08 VotingSystem2.sol\":442:452  msg.sender */\n  caller\n    /* \"contracts/homework/08 VotingSystem2.sol\":434:439  owner */\n  0x00\n  0x00\n    /* \"contracts/homework/08 VotingSystem2.sol\":434:452  owner = msg.sender */\n  0x0100\n  exp\n  dup2\n  sload\n  dup2\n  0xffffffffffffffffffffffffffffffffffffffff\n  mul\n  not\n  and\n  swap1\n  dup4\n  0xffffffffffffffffffffffffffffffffffffffff\n  and\n  mul\n  or\n  swap1\n  sstore\n  pop\n    /* \"contracts/homework/08 VotingSystem2.sol\":60:1059  contract VotingSystem {... */\n  dataSize(sub_0)\n  dup1\n  dataOffset(sub_0)\n  0x00\n  codecopy\n  0x00\n  return\nstop\n\nsub_0: assembly {\n        /* \"contracts/homework/08 VotingSystem2.sol\":60:1059  contract VotingSystem {... */\n      mstore(0x40, 0x80)\n      callvalue\n      dup1\n      iszero\n      tag_1\n      jumpi\n      revert(0x00, 0x00)\n    tag_1:\n      pop\n      jumpi(tag_2, lt(calldatasize, 0x04))\n      shr(0xe0, calldataload(0x00))\n      dup1\n      0x43859632\n      gt\n      tag_10\n      jumpi\n      dup1\n      0x43859632\n      eq\n      tag_6\n      jumpi\n      dup1\n      0x8da5cb5b\n      eq\n      tag_7\n      jumpi\n      dup1\n      0x8e7ea5b2\n      eq\n      tag_8\n      jumpi\n      dup1\n      0xda35c664\n      eq\n      tag_9\n      jumpi\n      jump(tag_2)\n    tag_10:\n      dup1\n      0x0121b93f\n      eq\n      tag_3\n      jumpi\n      dup1\n      0x013cf08b\n      eq\n      tag_4\n      jumpi\n      dup1\n      0x35facf78\n      eq\n      tag_5\n      jumpi\n    tag_2:\n      revert(0x00, 0x00)\n        /* \"contracts/homework/08 VotingSystem2.sol\":720:890  function vote(uint proposalId) public {... */\n    tag_3:\n      tag_11\n      0x04\n      dup1\n      calldatasize\n      sub\n      dup2\n      add\n      swap1\n      tag_12\n      swap2\n      swap1\n      tag_13\n      jump\t// in\n    tag_12:\n      tag_14\n      jump\t// in\n    tag_11:\n      stop\n        /* \"contracts/homework/08 VotingSystem2.sol\":290:332  mapping(uint => Proposal) public proposals */\n    tag_4:\n      tag_15\n      0x04\n      dup1\n      calldatasize\n      sub\n      dup2\n      add\n      swap1\n      tag_16\n      swap2\n      swap1\n      tag_13\n      jump\t// in\n    tag_16:\n      tag_17\n      jump\t// in\n    tag_15:\n      mload(0x40)\n      tag_18\n      swap5\n      swap4\n      swap3\n      swap2\n      swap1\n      tag_19\n      jump\t// in\n    tag_18:\n      mload(0x40)\n      dup1\n      swap2\n      sub\n      swap1\n      return\n        /* \"contracts/homework/08 VotingSystem2.sol\":505:681  function createProposal(string memory description, uint durationDays) ... */\n    tag_5:\n      tag_20\n      0x04\n      dup1\n      calldatasize\n      sub\n      dup2\n      add\n      swap1\n      tag_21\n      swap2\n      swap1\n      tag_22\n      jump\t// in\n    tag_21:\n      tag_23\n      jump\t// in\n    tag_20:\n      stop\n        /* \"contracts/homework/08 VotingSystem2.sol\":339:396  mapping(uint => mapping(address => bool)) public hasVoted */\n    tag_6:\n      tag_24\n      0x04\n      dup1\n      calldatasize\n      sub\n      dup2\n      add\n      swap1\n      tag_25\n      swap2\n      swap1\n      tag_26\n      jump\t// in\n    tag_25:\n      tag_27\n      jump\t// in\n    tag_24:\n      mload(0x40)\n      tag_28\n      swap2\n      swap1\n      tag_29\n      jump\t// in\n    tag_28:\n      mload(0x40)\n      dup1\n      swap2\n      sub\n      swap1\n      return\n        /* \"contracts/homework/08 VotingSystem2.sol\":225:245  address public owner */\n    tag_7:\n      tag_30\n      tag_31\n      jump\t// in\n    tag_30:\n      mload(0x40)\n      tag_32\n      swap2\n      swap1\n      tag_33\n      jump\t// in\n    tag_32:\n      mload(0x40)\n      dup1\n      swap2\n      sub\n      swap1\n      return\n        /* \"contracts/homework/08 VotingSystem2.sol\":935:1056  function getWinner() public view returns (uint) {... */\n    tag_8:\n      tag_34\n      tag_35\n      jump\t// in\n    tag_34:\n      mload(0x40)\n      tag_36\n      swap2\n      swap1\n      tag_37\n      jump\t// in\n    tag_36:\n      mload(0x40)\n      dup1\n      swap2\n      sub\n      swap1\n      return\n        /* \"contracts/homework/08 VotingSystem2.sol\":252:277  uint public proposalCount */\n    tag_9:\n      tag_38\n      tag_39\n      jump\t// in\n    tag_38:\n      mload(0x40)\n      tag_40\n      swap2\n      swap1\n      tag_37\n      jump\t// in\n    tag_40:\n      mload(0x40)\n      dup1\n      swap2\n      sub\n      swap1\n      return\n        /* \"contracts/homework/08 VotingSystem2.sol\":720:890  function vote(uint proposalId) public {... */\n    tag_14:\n      pop\n      jump\t// out\n        /* \"contracts/homework/08 VotingSystem2.sol\":290:332  mapping(uint => Proposal) public proposals */\n    tag_17:\n      mstore(0x20, 0x02)\n      dup1\n      0x00\n      mstore\n      keccak256(0x00, 0x40)\n      0x00\n      swap2\n      pop\n      swap1\n      pop\n      dup1\n      0x00\n      add\n      dup1\n      sload\n      tag_42\n      swap1\n      tag_43\n      jump\t// in\n    tag_42:\n      dup1\n      0x1f\n      add\n      0x20\n      dup1\n      swap2\n      div\n      mul\n      0x20\n      add\n      mload(0x40)\n      swap1\n      dup2\n      add\n      0x40\n      mstore\n      dup1\n      swap3\n      swap2\n      swap1\n      dup2\n      dup2\n      mstore\n      0x20\n      add\n      dup3\n      dup1\n      sload\n      tag_44\n      swap1\n      tag_43\n      jump\t// in\n    tag_44:\n      dup1\n      iszero\n      tag_45\n      jumpi\n      dup1\n      0x1f\n      lt\n      tag_46\n      jumpi\n      0x0100\n      dup1\n      dup4\n      sload\n      div\n      mul\n      dup4\n      mstore\n      swap2\n      0x20\n      add\n      swap2\n      jump(tag_45)\n    tag_46:\n      dup3\n      add\n      swap2\n      swap1\n      0x00\n      mstore\n      keccak256(0x00, 0x20)\n      swap1\n    tag_47:\n      dup2\n      sload\n      dup2\n      mstore\n      swap1\n      0x01\n      add\n      swap1\n      0x20\n      add\n      dup1\n      dup4\n      gt\n      tag_47\n      jumpi\n      dup3\n      swap1\n      sub\n      0x1f\n      and\n      dup3\n      add\n      swap2\n    tag_45:\n      pop\n      pop\n      pop\n      pop\n      pop\n      swap1\n      dup1\n      0x01\n      add\n      sload\n      swap1\n      dup1\n      0x02\n      add\n      sload\n      swap1\n      dup1\n      0x03\n      add\n      0x00\n      swap1\n      sload\n      swap1\n      0x0100\n      exp\n      swap1\n      div\n      0xff\n      and\n      swap1\n      pop\n      dup5\n      jump\t// out\n        /* \"contracts/homework/08 VotingSystem2.sol\":505:681  function createProposal(string memory description, uint durationDays) ... */\n    tag_23:\n      pop\n      pop\n      jump\t// out\n        /* \"contracts/homework/08 VotingSystem2.sol\":339:396  mapping(uint => mapping(address => bool)) public hasVoted */\n    tag_27:\n      mstore(0x20, 0x03)\n      dup2\n      0x00\n      mstore\n      mstore(0x20, keccak256(0x00, 0x40))\n      dup1\n      0x00\n      mstore\n      keccak256(0x00, 0x40)\n      0x00\n      swap2\n      pop\n      swap2\n      pop\n      swap1\n      sload\n      swap1\n      0x0100\n      exp\n      swap1\n      div\n      0xff\n      and\n      dup2\n      jump\t// out\n        /* \"contracts/homework/08 VotingSystem2.sol\":225:245  address public owner */\n    tag_31:\n      0x00\n      0x00\n      swap1\n      sload\n      swap1\n      0x0100\n      exp\n      swap1\n      div\n      0xffffffffffffffffffffffffffffffffffffffff\n      and\n      dup2\n      jump\t// out\n        /* \"contracts/homework/08 VotingSystem2.sol\":935:1056  function getWinner() public view returns (uint) {... */\n    tag_35:\n        /* \"contracts/homework/08 VotingSystem2.sol\":977:981  uint */\n      0x00\n        /* \"contracts/homework/08 VotingSystem2.sol\":935:1056  function getWinner() public view returns (uint) {... */\n      swap1\n      jump\t// out\n        /* \"contracts/homework/08 VotingSystem2.sol\":252:277  uint public proposalCount */\n    tag_39:\n      sload(0x01)\n      dup2\n      jump\t// out\n        /* \"#utility.yul\":7:82   */\n    tag_50:\n        /* \"#utility.yul\":40:46   */\n      0x00\n        /* \"#utility.yul\":73:75   */\n      0x40\n        /* \"#utility.yul\":67:76   */\n      mload\n        /* \"#utility.yul\":57:76   */\n      swap1\n      pop\n        /* \"#utility.yul\":7:82   */\n      swap1\n      jump\t// out\n        /* \"#utility.yul\":88:205   */\n    tag_51:\n        /* \"#utility.yul\":197:198   */\n      0x00\n        /* \"#utility.yul\":194:195   */\n      0x00\n        /* \"#utility.yul\":187:199   */\n      revert\n        /* \"#utility.yul\":211:328   */\n    tag_52:\n        /* \"#utility.yul\":320:321   */\n      0x00\n        /* \"#utility.yul\":317:318   */\n      0x00\n        /* \"#utility.yul\":310:322   */\n      revert\n        /* \"#utility.yul\":334:411   */\n    tag_53:\n        /* \"#utility.yul\":371:378   */\n      0x00\n        /* \"#utility.yul\":400:405   */\n      dup2\n        /* \"#utility.yul\":389:405   */\n      swap1\n      pop\n        /* \"#utility.yul\":334:411   */\n      swap2\n      swap1\n      pop\n      jump\t// out\n        /* \"#utility.yul\":417:539   */\n    tag_54:\n        /* \"#utility.yul\":490:514   */\n      tag_85\n        /* \"#utility.yul\":508:513   */\n      dup2\n        /* \"#utility.yul\":490:514   */\n      tag_53\n      jump\t// in\n    tag_85:\n        /* \"#utility.yul\":483:488   */\n      dup2\n        /* \"#utility.yul\":480:515   */\n      eq\n        /* \"#utility.yul\":470:533   */\n      tag_86\n      jumpi\n        /* \"#utility.yul\":529:530   */\n      0x00\n        /* \"#utility.yul\":526:527   */\n      0x00\n        /* \"#utility.yul\":519:531   */\n      revert\n        /* \"#utility.yul\":470:533   */\n    tag_86:\n        /* \"#utility.yul\":417:539   */\n      pop\n      jump\t// out\n        /* \"#utility.yul\":545:684   */\n    tag_55:\n        /* \"#utility.yul\":591:596   */\n      0x00\n        /* \"#utility.yul\":629:635   */\n      dup2\n        /* \"#utility.yul\":616:636   */\n      calldataload\n        /* \"#utility.yul\":607:636   */\n      swap1\n      pop\n        /* \"#utility.yul\":645:678   */\n      tag_88\n        /* \"#utility.yul\":672:677   */\n      dup2\n        /* \"#utility.yul\":645:678   */\n      tag_54\n      jump\t// in\n    tag_88:\n        /* \"#utility.yul\":545:684   */\n      swap3\n      swap2\n      pop\n      pop\n      jump\t// out\n        /* \"#utility.yul\":690:1019   */\n    tag_13:\n        /* \"#utility.yul\":749:755   */\n      0x00\n        /* \"#utility.yul\":798:800   */\n      0x20\n        /* \"#utility.yul\":786:795   */\n      dup3\n        /* \"#utility.yul\":777:784   */\n      dup5\n        /* \"#utility.yul\":773:796   */\n      sub\n        /* \"#utility.yul\":769:801   */\n      slt\n        /* \"#utility.yul\":766:885   */\n      iszero\n      tag_90\n      jumpi\n        /* \"#utility.yul\":804:883   */\n      tag_91\n      tag_51\n      jump\t// in\n    tag_91:\n        /* \"#utility.yul\":766:885   */\n    tag_90:\n        /* \"#utility.yul\":924:925   */\n      0x00\n        /* \"#utility.yul\":949:1002   */\n      tag_92\n        /* \"#utility.yul\":994:1001   */\n      dup5\n        /* \"#utility.yul\":985:991   */\n      dup3\n        /* \"#utility.yul\":974:983   */\n      dup6\n        /* \"#utility.yul\":970:992   */\n      add\n        /* \"#utility.yul\":949:1002   */\n      tag_55\n      jump\t// in\n    tag_92:\n        /* \"#utility.yul\":939:1002   */\n      swap2\n      pop\n        /* \"#utility.yul\":895:1012   */\n      pop\n        /* \"#utility.yul\":690:1019   */\n      swap3\n      swap2\n      pop\n      pop\n      jump\t// out\n        /* \"#utility.yul\":1025:1124   */\n    tag_56:\n        /* \"#utility.yul\":1077:1083   */\n      0x00\n        /* \"#utility.yul\":1111:1116   */\n      dup2\n        /* \"#utility.yul\":1105:1117   */\n      mload\n        /* \"#utility.yul\":1095:1117   */\n      swap1\n      pop\n        /* \"#utility.yul\":1025:1124   */\n      swap2\n      swap1\n      pop\n      jump\t// out\n        /* \"#utility.yul\":1130:1299   */\n    tag_57:\n        /* \"#utility.yul\":1214:1225   */\n      0x00\n        /* \"#utility.yul\":1248:1254   */\n      dup3\n        /* \"#utility.yul\":1243:1246   */\n      dup3\n        /* \"#utility.yul\":1236:1255   */\n      mstore\n        /* \"#utility.yul\":1288:1292   */\n      0x20\n        /* \"#utility.yul\":1283:1286   */\n      dup3\n        /* \"#utility.yul\":1279:1293   */\n      add\n        /* \"#utility.yul\":1264:1293   */\n      swap1\n      pop\n        /* \"#utility.yul\":1130:1299   */\n      swap3\n      swap2\n      pop\n      pop\n      jump\t// out\n        /* \"#utility.yul\":1305:1444   */\n    tag_58:\n        /* \"#utility.yul\":1394:1400   */\n      dup3\n        /* \"#utility.yul\":1389:1392   */\n      dup2\n        /* \"#utility.yul\":1384:1387   */\n      dup4\n        /* \"#utility.yul\":1378:1401   */\n      mcopy\n        /* \"#utility.yul\":1435:1436   */\n      0x00\n        /* \"#utility.yul\":1426:1432   */\n      dup4\n        /* \"#utility.yul\":1421:1424   */\n      dup4\n        /* \"#utility.yul\":1417:1433   */\n      add\n        /* \"#utility.yul\":1410:1437   */\n      mstore\n        /* \"#utility.yul\":1305:1444   */\n      pop\n      pop\n      pop\n      jump\t// out\n        /* \"#utility.yul\":1450:1552   */\n    tag_59:\n        /* \"#utility.yul\":1491:1497   */\n      0x00\n        /* \"#utility.yul\":1542:1544   */\n      0x1f\n        /* \"#utility.yul\":1538:1545   */\n      not\n        /* \"#utility.yul\":1533:1535   */\n      0x1f\n        /* \"#utility.yul\":1526:1531   */\n      dup4\n        /* \"#utility.yul\":1522:1536   */\n      add\n        /* \"#utility.yul\":1518:1546   */\n      and\n        /* \"#utility.yul\":1508:1546   */\n      swap1\n      pop\n        /* \"#utility.yul\":1450:1552   */\n      swap2\n      swap1\n      pop\n      jump\t// out\n        /* \"#utility.yul\":1558:1935   */\n    tag_60:\n        /* \"#utility.yul\":1646:1649   */\n      0x00\n        /* \"#utility.yul\":1674:1713   */\n      tag_98\n        /* \"#utility.yul\":1707:1712   */\n      dup3\n        /* \"#utility.yul\":1674:1713   */\n      tag_56\n      jump\t// in\n    tag_98:\n        /* \"#utility.yul\":1729:1800   */\n      tag_99\n        /* \"#utility.yul\":1793:1799   */\n      dup2\n        /* \"#utility.yul\":1788:1791   */\n      dup6\n        /* \"#utility.yul\":1729:1800   */\n      tag_57\n      jump\t// in\n    tag_99:\n        /* \"#utility.yul\":1722:1800   */\n      swap4\n      pop\n        /* \"#utility.yul\":1809:1874   */\n      tag_100\n        /* \"#utility.yul\":1867:1873   */\n      dup2\n        /* \"#utility.yul\":1862:1865   */\n      dup6\n        /* \"#utility.yul\":1855:1859   */\n      0x20\n        /* \"#utility.yul\":1848:1853   */\n      dup7\n        /* \"#utility.yul\":1844:1860   */\n      add\n        /* \"#utility.yul\":1809:1874   */\n      tag_58\n      jump\t// in\n    tag_100:\n        /* \"#utility.yul\":1899:1928   */\n      tag_101\n        /* \"#utility.yul\":1921:1927   */\n      dup2\n        /* \"#utility.yul\":1899:1928   */\n      tag_59\n      jump\t// in\n    tag_101:\n        /* \"#utility.yul\":1894:1897   */\n      dup5\n        /* \"#utility.yul\":1890:1929   */\n      add\n        /* \"#utility.yul\":1883:1929   */\n      swap2\n      pop\n        /* \"#utility.yul\":1650:1935   */\n      pop\n        /* \"#utility.yul\":1558:1935   */\n      swap3\n      swap2\n      pop\n      pop\n      jump\t// out\n        /* \"#utility.yul\":1941:2059   */\n    tag_61:\n        /* \"#utility.yul\":2028:2052   */\n      tag_103\n        /* \"#utility.yul\":2046:2051   */\n      dup2\n        /* \"#utility.yul\":2028:2052   */\n      tag_53\n      jump\t// in\n    tag_103:\n        /* \"#utility.yul\":2023:2026   */\n      dup3\n        /* \"#utility.yul\":2016:2053   */\n      mstore\n        /* \"#utility.yul\":1941:2059   */\n      pop\n      pop\n      jump\t// out\n        /* \"#utility.yul\":2065:2155   */\n    tag_62:\n        /* \"#utility.yul\":2099:2106   */\n      0x00\n        /* \"#utility.yul\":2142:2147   */\n      dup2\n        /* \"#utility.yul\":2135:2148   */\n      iszero\n        /* \"#utility.yul\":2128:2149   */\n      iszero\n        /* \"#utility.yul\":2117:2149   */\n      swap1\n      pop\n        /* \"#utility.yul\":2065:2155   */\n      swap2\n      swap1\n      pop\n      jump\t// out\n        /* \"#utility.yul\":2161:2270   */\n    tag_63:\n        /* \"#utility.yul\":2242:2263   */\n      tag_106\n        /* \"#utility.yul\":2257:2262   */\n      dup2\n        /* \"#utility.yul\":2242:2263   */\n      tag_62\n      jump\t// in\n    tag_106:\n        /* \"#utility.yul\":2237:2240   */\n      dup3\n        /* \"#utility.yul\":2230:2264   */\n      mstore\n        /* \"#utility.yul\":2161:2270   */\n      pop\n      pop\n      jump\t// out\n        /* \"#utility.yul\":2276:2908   */\n    tag_19:\n        /* \"#utility.yul\":2467:2471   */\n      0x00\n        /* \"#utility.yul\":2505:2508   */\n      0x80\n        /* \"#utility.yul\":2494:2503   */\n      dup3\n        /* \"#utility.yul\":2490:2509   */\n      add\n        /* \"#utility.yul\":2482:2509   */\n      swap1\n      pop\n        /* \"#utility.yul\":2555:2564   */\n      dup2\n        /* \"#utility.yul\":2549:2553   */\n      dup2\n        /* \"#utility.yul\":2545:2565   */\n      sub\n        /* \"#utility.yul\":2541:2542   */\n      0x00\n        /* \"#utility.yul\":2530:2539   */\n      dup4\n        /* \"#utility.yul\":2526:2543   */\n      add\n        /* \"#utility.yul\":2519:2566   */\n      mstore\n        /* \"#utility.yul\":2583:2661   */\n      tag_108\n        /* \"#utility.yul\":2656:2660   */\n      dup2\n        /* \"#utility.yul\":2647:2653   */\n      dup8\n        /* \"#utility.yul\":2583:2661   */\n      tag_60\n      jump\t// in\n    tag_108:\n        /* \"#utility.yul\":2575:2661   */\n      swap1\n      pop\n        /* \"#utility.yul\":2671:2743   */\n      tag_109\n        /* \"#utility.yul\":2739:2741   */\n      0x20\n        /* \"#utility.yul\":2728:2737   */\n      dup4\n        /* \"#utility.yul\":2724:2742   */\n      add\n        /* \"#utility.yul\":2715:2721   */\n      dup7\n        /* \"#utility.yul\":2671:2743   */\n      tag_61\n      jump\t// in\n    tag_109:\n        /* \"#utility.yul\":2753:2825   */\n      tag_110\n        /* \"#utility.yul\":2821:2823   */\n      0x40\n        /* \"#utility.yul\":2810:2819   */\n      dup4\n        /* \"#utility.yul\":2806:2824   */\n      add\n        /* \"#utility.yul\":2797:2803   */\n      dup6\n        /* \"#utility.yul\":2753:2825   */\n      tag_61\n      jump\t// in\n    tag_110:\n        /* \"#utility.yul\":2835:2901   */\n      tag_111\n        /* \"#utility.yul\":2897:2899   */\n      0x60\n        /* \"#utility.yul\":2886:2895   */\n      dup4\n        /* \"#utility.yul\":2882:2900   */\n      add\n        /* \"#utility.yul\":2873:2879   */\n      dup5\n        /* \"#utility.yul\":2835:2901   */\n      tag_63\n      jump\t// in\n    tag_111:\n        /* \"#utility.yul\":2276:2908   */\n      swap6\n      swap5\n      pop\n      pop\n      pop\n      pop\n      pop\n      jump\t// out\n        /* \"#utility.yul\":2914:3031   */\n    tag_64:\n        /* \"#utility.yul\":3023:3024   */\n      0x00\n        /* \"#utility.yul\":3020:3021   */\n      0x00\n        /* \"#utility.yul\":3013:3025   */\n      revert\n        /* \"#utility.yul\":3037:3154   */\n    tag_65:\n        /* \"#utility.yul\":3146:3147   */\n      0x00\n        /* \"#utility.yul\":3143:3144   */\n      0x00\n        /* \"#utility.yul\":3136:3148   */\n      revert\n        /* \"#utility.yul\":3160:3340   */\n    tag_66:\n        /* \"#utility.yul\":3208:3285   */\n      0x4e487b7100000000000000000000000000000000000000000000000000000000\n        /* \"#utility.yul\":3205:3206   */\n      0x00\n        /* \"#utility.yul\":3198:3286   */\n      mstore\n        /* \"#utility.yul\":3305:3309   */\n      0x41\n        /* \"#utility.yul\":3302:3303   */\n      0x04\n        /* \"#utility.yul\":3295:3310   */\n      mstore\n        /* \"#utility.yul\":3329:3333   */\n      0x24\n        /* \"#utility.yul\":3326:3327   */\n      0x00\n        /* \"#utility.yul\":3319:3334   */\n      revert\n        /* \"#utility.yul\":3346:3627   */\n    tag_67:\n        /* \"#utility.yul\":3429:3456   */\n      tag_116\n        /* \"#utility.yul\":3451:3455   */\n      dup3\n        /* \"#utility.yul\":3429:3456   */\n      tag_59\n      jump\t// in\n    tag_116:\n        /* \"#utility.yul\":3421:3427   */\n      dup2\n        /* \"#utility.yul\":3417:3457   */\n      add\n        /* \"#utility.yul\":3559:3565   */\n      dup2\n        /* \"#utility.yul\":3547:3557   */\n      dup2\n        /* \"#utility.yul\":3544:3566   */\n      lt\n        /* \"#utility.yul\":3523:3541   */\n      0xffffffffffffffff\n        /* \"#utility.yul\":3511:3521   */\n      dup3\n        /* \"#utility.yul\":3508:3542   */\n      gt\n        /* \"#utility.yul\":3505:3567   */\n      or\n        /* \"#utility.yul\":3502:3590   */\n      iszero\n      tag_117\n      jumpi\n        /* \"#utility.yul\":3570:3588   */\n      tag_118\n      tag_66\n      jump\t// in\n    tag_118:\n        /* \"#utility.yul\":3502:3590   */\n    tag_117:\n        /* \"#utility.yul\":3610:3620   */\n      dup1\n        /* \"#utility.yul\":3606:3608   */\n      0x40\n        /* \"#utility.yul\":3599:3621   */\n      mstore\n        /* \"#utility.yul\":3389:3627   */\n      pop\n        /* \"#utility.yul\":3346:3627   */\n      pop\n      pop\n      jump\t// out\n        /* \"#utility.yul\":3633:3762   */\n    tag_68:\n        /* \"#utility.yul\":3667:3673   */\n      0x00\n        /* \"#utility.yul\":3694:3714   */\n      tag_120\n      tag_50\n      jump\t// in\n    tag_120:\n        /* \"#utility.yul\":3684:3714   */\n      swap1\n      pop\n        /* \"#utility.yul\":3723:3756   */\n      tag_121\n        /* \"#utility.yul\":3751:3755   */\n      dup3\n        /* \"#utility.yul\":3743:3749   */\n      dup3\n        /* \"#utility.yul\":3723:3756   */\n      tag_67\n      jump\t// in\n    tag_121:\n        /* \"#utility.yul\":3633:3762   */\n      swap2\n      swap1\n      pop\n      jump\t// out\n        /* \"#utility.yul\":3768:4076   */\n    tag_69:\n        /* \"#utility.yul\":3830:3834   */\n      0x00\n        /* \"#utility.yul\":3920:3938   */\n      0xffffffffffffffff\n        /* \"#utility.yul\":3912:3918   */\n      dup3\n        /* \"#utility.yul\":3909:3939   */\n      gt\n        /* \"#utility.yul\":3906:3962   */\n      iszero\n      tag_123\n      jumpi\n        /* \"#utility.yul\":3942:3960   */\n      tag_124\n      tag_66\n      jump\t// in\n    tag_124:\n        /* \"#utility.yul\":3906:3962   */\n    tag_123:\n        /* \"#utility.yul\":3980:4009   */\n      tag_125\n        /* \"#utility.yul\":4002:4008   */\n      dup3\n        /* \"#utility.yul\":3980:4009   */\n      tag_59\n      jump\t// in\n    tag_125:\n        /* \"#utility.yul\":3972:4009   */\n      swap1\n      pop\n        /* \"#utility.yul\":4064:4068   */\n      0x20\n        /* \"#utility.yul\":4058:4062   */\n      dup2\n        /* \"#utility.yul\":4054:4069   */\n      add\n        /* \"#utility.yul\":4046:4069   */\n      swap1\n      pop\n        /* \"#utility.yul\":3768:4076   */\n      swap2\n      swap1\n      pop\n      jump\t// out\n        /* \"#utility.yul\":4082:4230   */\n    tag_70:\n        /* \"#utility.yul\":4180:4186   */\n      dup3\n        /* \"#utility.yul\":4175:4178   */\n      dup2\n        /* \"#utility.yul\":4170:4173   */\n      dup4\n        /* \"#utility.yul\":4157:4187   */\n      calldatacopy\n        /* \"#utility.yul\":4221:4222   */\n      0x00\n        /* \"#utility.yul\":4212:4218   */\n      dup4\n        /* \"#utility.yul\":4207:4210   */\n      dup4\n        /* \"#utility.yul\":4203:4219   */\n      add\n        /* \"#utility.yul\":4196:4223   */\n      mstore\n        /* \"#utility.yul\":4082:4230   */\n      pop\n      pop\n      pop\n      jump\t// out\n        /* \"#utility.yul\":4236:4661   */\n    tag_71:\n        /* \"#utility.yul\":4314:4319   */\n      0x00\n        /* \"#utility.yul\":4339:4405   */\n      tag_128\n        /* \"#utility.yul\":4355:4404   */\n      tag_129\n        /* \"#utility.yul\":4397:4403   */\n      dup5\n        /* \"#utility.yul\":4355:4404   */\n      tag_69\n      jump\t// in\n    tag_129:\n        /* \"#utility.yul\":4339:4405   */\n      tag_68\n      jump\t// in\n    tag_128:\n        /* \"#utility.yul\":4330:4405   */\n      swap1\n      pop\n        /* \"#utility.yul\":4428:4434   */\n      dup3\n        /* \"#utility.yul\":4421:4426   */\n      dup2\n        /* \"#utility.yul\":4414:4435   */\n      mstore\n        /* \"#utility.yul\":4466:4470   */\n      0x20\n        /* \"#utility.yul\":4459:4464   */\n      dup2\n        /* \"#utility.yul\":4455:4471   */\n      add\n        /* \"#utility.yul\":4504:4507   */\n      dup5\n        /* \"#utility.yul\":4495:4501   */\n      dup5\n        /* \"#utility.yul\":4490:4493   */\n      dup5\n        /* \"#utility.yul\":4486:4502   */\n      add\n        /* \"#utility.yul\":4483:4508   */\n      gt\n        /* \"#utility.yul\":4480:4592   */\n      iszero\n      tag_130\n      jumpi\n        /* \"#utility.yul\":4511:4590   */\n      tag_131\n      tag_65\n      jump\t// in\n    tag_131:\n        /* \"#utility.yul\":4480:4592   */\n    tag_130:\n        /* \"#utility.yul\":4601:4655   */\n      tag_132\n        /* \"#utility.yul\":4648:4654   */\n      dup5\n        /* \"#utility.yul\":4643:4646   */\n      dup3\n        /* \"#utility.yul\":4638:4641   */\n      dup6\n        /* \"#utility.yul\":4601:4655   */\n      tag_70\n      jump\t// in\n    tag_132:\n        /* \"#utility.yul\":4320:4661   */\n      pop\n        /* \"#utility.yul\":4236:4661   */\n      swap4\n      swap3\n      pop\n      pop\n      pop\n      jump\t// out\n        /* \"#utility.yul\":4681:5021   */\n    tag_72:\n        /* \"#utility.yul\":4737:4742   */\n      0x00\n        /* \"#utility.yul\":4786:4789   */\n      dup3\n        /* \"#utility.yul\":4779:4783   */\n      0x1f\n        /* \"#utility.yul\":4771:4777   */\n      dup4\n        /* \"#utility.yul\":4767:4784   */\n      add\n        /* \"#utility.yul\":4763:4790   */\n      slt\n        /* \"#utility.yul\":4753:4875   */\n      tag_134\n      jumpi\n        /* \"#utility.yul\":4794:4873   */\n      tag_135\n      tag_64\n      jump\t// in\n    tag_135:\n        /* \"#utility.yul\":4753:4875   */\n    tag_134:\n        /* \"#utility.yul\":4911:4917   */\n      dup2\n        /* \"#utility.yul\":4898:4918   */\n      calldataload\n        /* \"#utility.yul\":4936:5015   */\n      tag_136\n        /* \"#utility.yul\":5011:5014   */\n      dup5\n        /* \"#utility.yul\":5003:5009   */\n      dup3\n        /* \"#utility.yul\":4996:5000   */\n      0x20\n        /* \"#utility.yul\":4988:4994   */\n      dup7\n        /* \"#utility.yul\":4984:5001   */\n      add\n        /* \"#utility.yul\":4936:5015   */\n      tag_71\n      jump\t// in\n    tag_136:\n        /* \"#utility.yul\":4927:5015   */\n      swap2\n      pop\n        /* \"#utility.yul\":4743:5021   */\n      pop\n        /* \"#utility.yul\":4681:5021   */\n      swap3\n      swap2\n      pop\n      pop\n      jump\t// out\n        /* \"#utility.yul\":5027:5681   */\n    tag_22:\n        /* \"#utility.yul\":5105:5111   */\n      0x00\n        /* \"#utility.yul\":5113:5119   */\n      0x00\n        /* \"#utility.yul\":5162:5164   */\n      0x40\n        /* \"#utility.yul\":5150:5159   */\n      dup4\n        /* \"#utility.yul\":5141:5148   */\n      dup6\n        /* \"#utility.yul\":5137:5160   */\n      sub\n        /* \"#utility.yul\":5133:5165   */\n      slt\n        /* \"#utility.yul\":5130:5249   */\n      iszero\n      tag_138\n      jumpi\n        /* \"#utility.yul\":5168:5247   */\n      tag_139\n      tag_51\n      jump\t// in\n    tag_139:\n        /* \"#utility.yul\":5130:5249   */\n    tag_138:\n        /* \"#utility.yul\":5316:5317   */\n      0x00\n        /* \"#utility.yul\":5305:5314   */\n      dup4\n        /* \"#utility.yul\":5301:5318   */\n      add\n        /* \"#utility.yul\":5288:5319   */\n      calldataload\n        /* \"#utility.yul\":5346:5364   */\n      0xffffffffffffffff\n        /* \"#utility.yul\":5338:5344   */\n      dup2\n        /* \"#utility.yul\":5335:5365   */\n      gt\n        /* \"#utility.yul\":5332:5449   */\n      iszero\n      tag_140\n      jumpi\n        /* \"#utility.yul\":5368:5447   */\n      tag_141\n      tag_52\n      jump\t// in\n    tag_141:\n        /* \"#utility.yul\":5332:5449   */\n    tag_140:\n        /* \"#utility.yul\":5473:5536   */\n      tag_142\n        /* \"#utility.yul\":5528:5535   */\n      dup6\n        /* \"#utility.yul\":5519:5525   */\n      dup3\n        /* \"#utility.yul\":5508:5517   */\n      dup7\n        /* \"#utility.yul\":5504:5526   */\n      add\n        /* \"#utility.yul\":5473:5536   */\n      tag_72\n      jump\t// in\n    tag_142:\n        /* \"#utility.yul\":5463:5536   */\n      swap3\n      pop\n        /* \"#utility.yul\":5259:5546   */\n      pop\n        /* \"#utility.yul\":5585:5587   */\n      0x20\n        /* \"#utility.yul\":5611:5664   */\n      tag_143\n        /* \"#utility.yul\":5656:5663   */\n      dup6\n        /* \"#utility.yul\":5647:5653   */\n      dup3\n        /* \"#utility.yul\":5636:5645   */\n      dup7\n        /* \"#utility.yul\":5632:5654   */\n      add\n        /* \"#utility.yul\":5611:5664   */\n      tag_55\n      jump\t// in\n    tag_143:\n        /* \"#utility.yul\":5601:5664   */\n      swap2\n      pop\n        /* \"#utility.yul\":5556:5674   */\n      pop\n        /* \"#utility.yul\":5027:5681   */\n      swap3\n      pop\n      swap3\n      swap1\n      pop\n      jump\t// out\n        /* \"#utility.yul\":5687:5813   */\n    tag_73:\n        /* \"#utility.yul\":5724:5731   */\n      0x00\n        /* \"#utility.yul\":5764:5806   */\n      0xffffffffffffffffffffffffffffffffffffffff\n        /* \"#utility.yul\":5757:5762   */\n      dup3\n        /* \"#utility.yul\":5753:5807   */\n      and\n        /* \"#utility.yul\":5742:5807   */\n      swap1\n      pop\n        /* \"#utility.yul\":5687:5813   */\n      swap2\n      swap1\n      pop\n      jump\t// out\n        /* \"#utility.yul\":5819:5915   */\n    tag_74:\n        /* \"#utility.yul\":5856:5863   */\n      0x00\n        /* \"#utility.yul\":5885:5909   */\n      tag_146\n        /* \"#utility.yul\":5903:5908   */\n      dup3\n        /* \"#utility.yul\":5885:5909   */\n      tag_73\n      jump\t// in\n    tag_146:\n        /* \"#utility.yul\":5874:5909   */\n      swap1\n      pop\n        /* \"#utility.yul\":5819:5915   */\n      swap2\n      swap1\n      pop\n      jump\t// out\n        /* \"#utility.yul\":5921:6043   */\n    tag_75:\n        /* \"#utility.yul\":5994:6018   */\n      tag_148\n        /* \"#utility.yul\":6012:6017   */\n      dup2\n        /* \"#utility.yul\":5994:6018   */\n      tag_74\n      jump\t// in\n    tag_148:\n        /* \"#utility.yul\":5987:5992   */\n      dup2\n        /* \"#utility.yul\":5984:6019   */\n      eq\n        /* \"#utility.yul\":5974:6037   */\n      tag_149\n      jumpi\n        /* \"#utility.yul\":6033:6034   */\n      0x00\n        /* \"#utility.yul\":6030:6031   */\n      0x00\n        /* \"#utility.yul\":6023:6035   */\n      revert\n        /* \"#utility.yul\":5974:6037   */\n    tag_149:\n        /* \"#utility.yul\":5921:6043   */\n      pop\n      jump\t// out\n        /* \"#utility.yul\":6049:6188   */\n    tag_76:\n        /* \"#utility.yul\":6095:6100   */\n      0x00\n        /* \"#utility.yul\":6133:6139   */\n      dup2\n        /* \"#utility.yul\":6120:6140   */\n      calldataload\n        /* \"#utility.yul\":6111:6140   */\n      swap1\n      pop\n        /* \"#utility.yul\":6149:6182   */\n      tag_151\n        /* \"#utility.yul\":6176:6181   */\n      dup2\n        /* \"#utility.yul\":6149:6182   */\n      tag_75\n      jump\t// in\n    tag_151:\n        /* \"#utility.yul\":6049:6188   */\n      swap3\n      swap2\n      pop\n      pop\n      jump\t// out\n        /* \"#utility.yul\":6194:6668   */\n    tag_26:\n        /* \"#utility.yul\":6262:6268   */\n      0x00\n        /* \"#utility.yul\":6270:6276   */\n      0x00\n        /* \"#utility.yul\":6319:6321   */\n      0x40\n        /* \"#utility.yul\":6307:6316   */\n      dup4\n        /* \"#utility.yul\":6298:6305   */\n      dup6\n        /* \"#utility.yul\":6294:6317   */\n      sub\n        /* \"#utility.yul\":6290:6322   */\n      slt\n        /* \"#utility.yul\":6287:6406   */\n      iszero\n      tag_153\n      jumpi\n        /* \"#utility.yul\":6325:6404   */\n      tag_154\n      tag_51\n      jump\t// in\n    tag_154:\n        /* \"#utility.yul\":6287:6406   */\n    tag_153:\n        /* \"#utility.yul\":6445:6446   */\n      0x00\n        /* \"#utility.yul\":6470:6523   */\n      tag_155\n        /* \"#utility.yul\":6515:6522   */\n      dup6\n        /* \"#utility.yul\":6506:6512   */\n      dup3\n        /* \"#utility.yul\":6495:6504   */\n      dup7\n        /* \"#utility.yul\":6491:6513   */\n      add\n        /* \"#utility.yul\":6470:6523   */\n      tag_55\n      jump\t// in\n    tag_155:\n        /* \"#utility.yul\":6460:6523   */\n      swap3\n      pop\n        /* \"#utility.yul\":6416:6533   */\n      pop\n        /* \"#utility.yul\":6572:6574   */\n      0x20\n        /* \"#utility.yul\":6598:6651   */\n      tag_156\n        /* \"#utility.yul\":6643:6650   */\n      dup6\n        /* \"#utility.yul\":6634:6640   */\n      dup3\n        /* \"#utility.yul\":6623:6632   */\n      dup7\n        /* \"#utility.yul\":6619:6641   */\n      add\n        /* \"#utility.yul\":6598:6651   */\n      tag_76\n      jump\t// in\n    tag_156:\n        /* \"#utility.yul\":6588:6651   */\n      swap2\n      pop\n        /* \"#utility.yul\":6543:6661   */\n      pop\n        /* \"#utility.yul\":6194:6668   */\n      swap3\n      pop\n      swap3\n      swap1\n      pop\n      jump\t// out\n        /* \"#utility.yul\":6674:6884   */\n    tag_29:\n        /* \"#utility.yul\":6761:6765   */\n      0x00\n        /* \"#utility.yul\":6799:6801   */\n      0x20\n        /* \"#utility.yul\":6788:6797   */\n      dup3\n        /* \"#utility.yul\":6784:6802   */\n      add\n        /* \"#utility.yul\":6776:6802   */\n      swap1\n      pop\n        /* \"#utility.yul\":6812:6877   */\n      tag_158\n        /* \"#utility.yul\":6874:6875   */\n      0x00\n        /* \"#utility.yul\":6863:6872   */\n      dup4\n        /* \"#utility.yul\":6859:6876   */\n      add\n        /* \"#utility.yul\":6850:6856   */\n      dup5\n        /* \"#utility.yul\":6812:6877   */\n      tag_63\n      jump\t// in\n    tag_158:\n        /* \"#utility.yul\":6674:6884   */\n      swap3\n      swap2\n      pop\n      pop\n      jump\t// out\n        /* \"#utility.yul\":6890:7008   */\n    tag_77:\n        /* \"#utility.yul\":6977:7001   */\n      tag_160\n        /* \"#utility.yul\":6995:7000   */\n      dup2\n        /* \"#utility.yul\":6977:7001   */\n      tag_74\n      jump\t// in\n    tag_160:\n        /* \"#utility.yul\":6972:6975   */\n      dup3\n        /* \"#utility.yul\":6965:7002   */\n      mstore\n        /* \"#utility.yul\":6890:7008   */\n      pop\n      pop\n      jump\t// out\n        /* \"#utility.yul\":7014:7236   */\n    tag_33:\n        /* \"#utility.yul\":7107:7111   */\n      0x00\n        /* \"#utility.yul\":7145:7147   */\n      0x20\n        /* \"#utility.yul\":7134:7143   */\n      dup3\n        /* \"#utility.yul\":7130:7148   */\n      add\n        /* \"#utility.yul\":7122:7148   */\n      swap1\n      pop\n        /* \"#utility.yul\":7158:7229   */\n      tag_162\n        /* \"#utility.yul\":7226:7227   */\n      0x00\n        /* \"#utility.yul\":7215:7224   */\n      dup4\n        /* \"#utility.yul\":7211:7228   */\n      add\n        /* \"#utility.yul\":7202:7208   */\n      dup5\n        /* \"#utility.yul\":7158:7229   */\n      tag_77\n      jump\t// in\n    tag_162:\n        /* \"#utility.yul\":7014:7236   */\n      swap3\n      swap2\n      pop\n      pop\n      jump\t// out\n        /* \"#utility.yul\":7242:7464   */\n    tag_37:\n        /* \"#utility.yul\":7335:7339   */\n      0x00\n        /* \"#utility.yul\":7373:7375   */\n      0x20\n        /* \"#utility.yul\":7362:7371   */\n      dup3\n        /* \"#utility.yul\":7358:7376   */\n      add\n        /* \"#utility.yul\":7350:7376   */\n      swap1\n      pop\n        /* \"#utility.yul\":7386:7457   */\n      tag_164\n        /* \"#utility.yul\":7454:7455   */\n      0x00\n        /* \"#utility.yul\":7443:7452   */\n      dup4\n        /* \"#utility.yul\":7439:7456   */\n      add\n        /* \"#utility.yul\":7430:7436   */\n      dup5\n        /* \"#utility.yul\":7386:7457   */\n      tag_61\n      jump\t// in\n    tag_164:\n        /* \"#utility.yul\":7242:7464   */\n      swap3\n      swap2\n      pop\n      pop\n      jump\t// out\n        /* \"#utility.yul\":7470:7650   */\n    tag_78:\n        /* \"#utility.yul\":7518:7595   */\n      0x4e487b7100000000000000000000000000000000000000000000000000000000\n        /* \"#utility.yul\":7515:7516   */\n      0x00\n        /* \"#utility.yul\":7508:7596   */\n      mstore\n        /* \"#utility.yul\":7615:7619   */\n      0x22\n        /* \"#utility.yul\":7612:7613   */\n      0x04\n        /* \"#utility.yul\":7605:7620   */\n      mstore\n        /* \"#utility.yul\":7639:7643   */\n      0x24\n        /* \"#utility.yul\":7636:7637   */\n      0x00\n        /* \"#utility.yul\":7629:7644   */\n      revert\n        /* \"#utility.yul\":7656:7976   */\n    tag_43:\n        /* \"#utility.yul\":7700:7706   */\n      0x00\n        /* \"#utility.yul\":7737:7738   */\n      0x02\n        /* \"#utility.yul\":7731:7735   */\n      dup3\n        /* \"#utility.yul\":7727:7739   */\n      div\n        /* \"#utility.yul\":7717:7739   */\n      swap1\n      pop\n        /* \"#utility.yul\":7784:7785   */\n      0x01\n        /* \"#utility.yul\":7778:7782   */\n      dup3\n        /* \"#utility.yul\":7774:7786   */\n      and\n        /* \"#utility.yul\":7805:7823   */\n      dup1\n        /* \"#utility.yul\":7795:7876   */\n      tag_167\n      jumpi\n        /* \"#utility.yul\":7861:7865   */\n      0x7f\n        /* \"#utility.yul\":7853:7859   */\n      dup3\n        /* \"#utility.yul\":7849:7866   */\n      and\n        /* \"#utility.yul\":7839:7866   */\n      swap2\n      pop\n        /* \"#utility.yul\":7795:7876   */\n    tag_167:\n        /* \"#utility.yul\":7923:7925   */\n      0x20\n        /* \"#utility.yul\":7915:7921   */\n      dup3\n        /* \"#utility.yul\":7912:7926   */\n      lt\n        /* \"#utility.yul\":7892:7910   */\n      dup2\n        /* \"#utility.yul\":7889:7927   */\n      sub\n        /* \"#utility.yul\":7886:7970   */\n      tag_168\n      jumpi\n        /* \"#utility.yul\":7942:7960   */\n      tag_169\n      tag_78\n      jump\t// in\n    tag_169:\n        /* \"#utility.yul\":7886:7970   */\n    tag_168:\n        /* \"#utility.yul\":7707:7976   */\n      pop\n        /* \"#utility.yul\":7656:7976   */\n      swap2\n      swap1\n      pop\n      jump\t// out\n\n    auxdata: 0xa26469706673582212209a1d2d66a852c90695d11690e8bade73e9b8c15bc2d6371d5ffcb6c225b828ba64736f6c634300081e0033\n}\n",
				"bytecode": {
					"linkReferences": {},
					"object": "6080604052348015600e575f5ffd5b50335f5f6101000a81548173ffffffffffffffffffffffffffffffffffffffff021916908373ffffffffffffffffffffffffffffffffffffffff1602179055506106ee8061005b5f395ff3fe608060405234801561000f575f5ffd5b506004361061007b575f3560e01c8063438596321161005957806343859632146100ea5780638da5cb5b1461011a5780638e7ea5b214610138578063da35c664146101565761007b565b80630121b93f1461007f578063013cf08b1461009b57806335facf78146100ce575b5f5ffd5b610099600480360381019061009491906102d5565b610174565b005b6100b560048036038101906100b091906102d5565b610177565b6040516100c59493929190610399565b60405180910390f35b6100e860048036038101906100e3919061050f565b610235565b005b61010460048036038101906100ff91906105c3565b610239565b6040516101119190610601565b60405180910390f35b610122610263565b60405161012f9190610629565b60405180910390f35b610140610287565b60405161014d9190610642565b60405180910390f35b61015e61028b565b60405161016b9190610642565b60405180910390f35b50565b6002602052805f5260405f205f91509050805f01805461019690610688565b80601f01602080910402602001604051908101604052809291908181526020018280546101c290610688565b801561020d5780601f106101e45761010080835404028352916020019161020d565b820191905f5260205f20905b8154815290600101906020018083116101f057829003601f168201915b505050505090806001015490806002015490806003015f9054906101000a900460ff16905084565b5050565b6003602052815f5260405f20602052805f5260405f205f915091509054906101000a900460ff1681565b5f5f9054906101000a900473ffffffffffffffffffffffffffffffffffffffff1681565b5f90565b60015481565b5f604051905090565b5f5ffd5b5f5ffd5b5f819050919050565b6102b4816102a2565b81146102be575f5ffd5b50565b5f813590506102cf816102ab565b92915050565b5f602082840312156102ea576102e961029a565b5b5f6102f7848285016102c1565b91505092915050565b5f81519050919050565b5f82825260208201905092915050565b8281835e5f83830152505050565b5f601f19601f8301169050919050565b5f61034282610300565b61034c818561030a565b935061035c81856020860161031a565b61036581610328565b840191505092915050565b610379816102a2565b82525050565b5f8115159050919050565b6103938161037f565b82525050565b5f6080820190508181035f8301526103b18187610338565b90506103c06020830186610370565b6103cd6040830185610370565b6103da606083018461038a565b95945050505050565b5f5ffd5b5f5ffd5b7f4e487b71000000000000000000000000000000000000000000000000000000005f52604160045260245ffd5b61042182610328565b810181811067ffffffffffffffff821117156104405761043f6103eb565b5b80604052505050565b5f610452610291565b905061045e8282610418565b919050565b5f67ffffffffffffffff82111561047d5761047c6103eb565b5b61048682610328565b9050602081019050919050565b828183375f83830152505050565b5f6104b36104ae84610463565b610449565b9050828152602081018484840111156104cf576104ce6103e7565b5b6104da848285610493565b509392505050565b5f82601f8301126104f6576104f56103e3565b5b81356105068482602086016104a1565b91505092915050565b5f5f604083850312156105255761052461029a565b5b5f83013567ffffffffffffffff8111156105425761054161029e565b5b61054e858286016104e2565b925050602061055f858286016102c1565b9150509250929050565b5f73ffffffffffffffffffffffffffffffffffffffff82169050919050565b5f61059282610569565b9050919050565b6105a281610588565b81146105ac575f5ffd5b50565b5f813590506105bd81610599565b92915050565b5f5f604083850312156105d9576105d861029a565b5b5f6105e6858286016102c1565b92505060206105f7858286016105af565b9150509250929050565b5f6020820190506106145f83018461038a565b92915050565b61062381610588565b82525050565b5f60208201905061063c5f83018461061a565b92915050565b5f6020820190506106555f830184610370565b92915050565b7f4e487b71000000000000000000000000000000000000000000000000000000005f52602260045260245ffd5b5f600282049050600182168061069f57607f821691505b6020821081036106b2576106b161065b565b5b5091905056fea26469706673582212209a1d2d66a852c90695d11690e8bade73e9b8c15bc2d6371d5ffcb6c225b828ba64736f6c634300081e0033",
					"opcodes": "PUSH1 0x80 PUSH1 0x40 MSTORE CALLVALUE DUP1 ISZERO PUSH1 0xE JUMPI PUSH0 PUSH0 REVERT JUMPDEST POP CALLER PUSH0 PUSH0 PUSH2 0x100 EXP DUP2 SLOAD DUP2 PUSH20 0xFFFFFFFFFFFFFFFFFFFFFFFFFFFFFFFFFFFFFFFF MUL NOT AND SWAP1 DUP4 PUSH20 0xFFFFFFFFFFFFFFFFFFFFFFFFFFFFFFFFFFFFFFFF AND MUL OR SWAP1 SSTORE POP PUSH2 0x6EE DUP1 PUSH2 0x5B PUSH0 CODECOPY PUSH0 RETURN INVALID PUSH1 0x80 PUSH1 0x40 MSTORE CALLVALUE DUP1 ISZERO PUSH2 0xF JUMPI PUSH0 PUSH0 REVERT JUMPDEST POP PUSH1 0x4 CALLDATASIZE LT PUSH2 0x7B JUMPI PUSH0 CALLDATALOAD PUSH1 0xE0 SHR DUP1 PUSH4 0x43859632 GT PUSH2 0x59 JUMPI DUP1 PUSH4 0x43859632 EQ PUSH2 0xEA JUMPI DUP1 PUSH4 0x8DA5CB5B EQ PUSH2 0x11A JUMPI DUP1 PUSH4 0x8E7EA5B2 EQ PUSH2 0x138 JUMPI DUP1 PUSH4 0xDA35C664 EQ PUSH2 0x156 JUMPI PUSH2 0x7B JUMP JUMPDEST DUP1 PUSH4 0x121B93F EQ PUSH2 0x7F JUMPI DUP1 PUSH4 0x13CF08B EQ PUSH2 0x9B JUMPI DUP1 PUSH4 0x35FACF78 EQ PUSH2 0xCE JUMPI JUMPDEST PUSH0 PUSH0 REVERT JUMPDEST PUSH2 0x99 PUSH1 0x4 DUP1 CALLDATASIZE SUB DUP2 ADD SWAP1 PUSH2 0x94 SWAP2 SWAP1 PUSH2 0x2D5 JUMP JUMPDEST PUSH2 0x174 JUMP JUMPDEST STOP JUMPDEST PUSH2 0xB5 PUSH1 0x4 DUP1 CALLDATASIZE SUB DUP2 ADD SWAP1 PUSH2 0xB0 SWAP2 SWAP1 PUSH2 0x2D5 JUMP JUMPDEST PUSH2 0x177 JUMP JUMPDEST PUSH1 0x40 MLOAD PUSH2 0xC5 SWAP5 SWAP4 SWAP3 SWAP2 SWAP1 PUSH2 0x399 JUMP JUMPDEST PUSH1 0x40 MLOAD DUP1 SWAP2 SUB SWAP1 RETURN JUMPDEST PUSH2 0xE8 PUSH1 0x4 DUP1 CALLDATASIZE SUB DUP2 ADD SWAP1 PUSH2 0xE3 SWAP2 SWAP1 PUSH2 0x50F JUMP JUMPDEST PUSH2 0x235 JUMP JUMPDEST STOP JUMPDEST PUSH2 0x104 PUSH1 0x4 DUP1 CALLDATASIZE SUB DUP2 ADD SWAP1 PUSH2 0xFF SWAP2 SWAP1 PUSH2 0x5C3 JUMP JUMPDEST PUSH2 0x239 JUMP JUMPDEST PUSH1 0x40 MLOAD PUSH2 0x111 SWAP2 SWAP1 PUSH2 0x601 JUMP JUMPDEST PUSH1 0x40 MLOAD DUP1 SWAP2 SUB SWAP1 RETURN JUMPDEST PUSH2 0x122 PUSH2 0x263 JUMP JUMPDEST PUSH1 0x40 MLOAD PUSH2 0x12F SWAP2 SWAP1 PUSH2 0x629 JUMP JUMPDEST PUSH1 0x40 MLOAD DUP1 SWAP2 SUB SWAP1 RETURN JUMPDEST PUSH2 0x140 PUSH2 0x287 JUMP JUMPDEST PUSH1 0x40 MLOAD PUSH2 0x14D SWAP2 SWAP1 PUSH2 0x642 JUMP JUMPDEST PUSH1 0x40 MLOAD DUP1 SWAP2 SUB SWAP1 RETURN JUMPDEST PUSH2 0x15E PUSH2 0x28B JUMP JUMPDEST PUSH1 0x40 MLOAD PUSH2 0x16B SWAP2 SWAP1 PUSH2 0x642 JUMP JUMPDEST PUSH1 0x40 MLOAD DUP1 SWAP2 SUB SWAP1 RETURN JUMPDEST POP JUMP JUMPDEST PUSH1 0x2 PUSH1 0x20 MSTORE DUP1 PUSH0 MSTORE PUSH1 0x40 PUSH0 KECCAK256 PUSH0 SWAP2 POP SWAP1 POP DUP1 PUSH0 ADD DUP1 SLOAD PUSH2 0x196 SWAP1 PUSH2 0x688 JUMP JUMPDEST DUP1 PUSH1 0x1F ADD PUSH1 0x20 DUP1 SWAP2 DIV MUL PUSH1 0x20 ADD PUSH1 0x40 MLOAD SWAP1 DUP2 ADD PUSH1 0x40 MSTORE DUP1 SWAP3 SWAP2 SWAP1 DUP2 DUP2 MSTORE PUSH1 0x20 ADD DUP3 DUP1 SLOAD PUSH2 0x1C2 SWAP1 PUSH2 0x688 JUMP JUMPDEST DUP1 ISZERO PUSH2 0x20D JUMPI DUP1 PUSH1 0x1F LT PUSH2 0x1E4 JUMPI PUSH2 0x100 DUP1 DUP4 SLOAD DIV MUL DUP4 MSTORE SWAP2 PUSH1 0x20 ADD SWAP2 PUSH2 0x20D JUMP JUMPDEST DUP3 ADD SWAP2 SWAP1 PUSH0 MSTORE PUSH1 0x20 PUSH0 KECCAK256 SWAP1 JUMPDEST DUP2 SLOAD DUP2 MSTORE SWAP1 PUSH1 0x1 ADD SWAP1 PUSH1 0x20 ADD DUP1 DUP4 GT PUSH2 0x1F0 JUMPI DUP3 SWAP1 SUB PUSH1 0x1F AND DUP3 ADD SWAP2 JUMPDEST POP POP POP POP POP SWAP1 DUP1 PUSH1 0x1 ADD SLOAD SWAP1 DUP1 PUSH1 0x2 ADD SLOAD SWAP1 DUP1 PUSH1 0x3 ADD PUSH0 SWAP1 SLOAD SWAP1 PUSH2 0x100 EXP SWAP1 DIV PUSH1 0xFF AND SWAP1 POP DUP5 JUMP JUMPDEST POP POP JUMP JUMPDEST PUSH1 0x3 PUSH1 0x20 MSTORE DUP2 PUSH0 MSTORE PUSH1 0x40 PUSH0 KECCAK256 PUSH1 0x20 MSTORE DUP1 PUSH0 MSTORE PUSH1 0x40 PUSH0 KECCAK256 PUSH0 SWAP2 POP SWAP2 POP SWAP1 SLOAD SWAP1 PUSH2 0x100 EXP SWAP1 DIV PUSH1 0xFF AND DUP2 JUMP JUMPDEST PUSH0 PUSH0 SWAP1 SLOAD SWAP1 PUSH2 0x100 EXP SWAP1 DIV PUSH20 0xFFFFFFFFFFFFFFFFFFFFFFFFFFFFFFFFFFFFFFFF AND DUP2 JUMP JUMPDEST PUSH0 SWAP1 JUMP JUMPDEST PUSH1 0x1 SLOAD DUP2 JUMP JUMPDEST PUSH0 PUSH1 0x40 MLOAD SWAP1 POP SWAP1 JUMP JUMPDEST PUSH0 PUSH0 REVERT JUMPDEST PUSH0 PUSH0 REVERT JUMPDEST PUSH0 DUP2 SWAP1 POP SWAP2 SWAP1 POP JUMP JUMPDEST PUSH2 0x2B4 DUP2 PUSH2 0x2A2 JUMP JUMPDEST DUP2 EQ PUSH2 0x2BE JUMPI PUSH0 PUSH0 REVERT JUMPDEST POP JUMP JUMPDEST PUSH0 DUP2 CALLDATALOAD SWAP1 POP PUSH2 0x2CF DUP2 PUSH2 0x2AB JUMP JUMPDEST SWAP3 SWAP2 POP POP JUMP JUMPDEST PUSH0 PUSH1 0x20 DUP3 DUP5 SUB SLT ISZERO PUSH2 0x2EA JUMPI PUSH2 0x2E9 PUSH2 0x29A JUMP JUMPDEST JUMPDEST PUSH0 PUSH2 0x2F7 DUP5 DUP3 DUP6 ADD PUSH2 0x2C1 JUMP JUMPDEST SWAP2 POP POP SWAP3 SWAP2 POP POP JUMP JUMPDEST PUSH0 DUP2 MLOAD SWAP1 POP SWAP2 SWAP1 POP JUMP JUMPDEST PUSH0 DUP3 DUP3 MSTORE PUSH1 0x20 DUP3 ADD SWAP1 POP SWAP3 SWAP2 POP POP JUMP JUMPDEST DUP3 DUP2 DUP4 MCOPY PUSH0 DUP4 DUP4 ADD MSTORE POP POP POP JUMP JUMPDEST PUSH0 PUSH1 0x1F NOT PUSH1 0x1F DUP4 ADD AND SWAP1 POP SWAP2 SWAP1 POP JUMP JUMPDEST PUSH0 PUSH2 0x342 DUP3 PUSH2 0x300 JUMP JUMPDEST PUSH2 0x34C DUP2 DUP6 PUSH2 0x30A JUMP JUMPDEST SWAP4 POP PUSH2 0x35C DUP2 DUP6 PUSH1 0x20 DUP7 ADD PUSH2 0x31A JUMP JUMPDEST PUSH2 0x365 DUP2 PUSH2 0x328 JUMP JUMPDEST DUP5 ADD SWAP2 POP POP SWAP3 SWAP2 POP POP JUMP JUMPDEST PUSH2 0x379 DUP2 PUSH2 0x2A2 JUMP JUMPDEST DUP3 MSTORE POP POP JUMP JUMPDEST PUSH0 DUP2 ISZERO ISZERO SWAP1 POP SWAP2 SWAP1 POP JUMP JUMPDEST PUSH2 0x393 DUP2 PUSH2 0x37F JUMP JUMPDEST DUP3 MSTORE POP POP JUMP JUMPDEST PUSH0 PUSH1 0x80 DUP3 ADD SWAP1 POP DUP2 DUP2 SUB PUSH0 DUP4 ADD MSTORE PUSH2 0x3B1 DUP2 DUP8 PUSH2 0x338 JUMP JUMPDEST SWAP1 POP PUSH2 0x3C0 PUSH1 0x20 DUP4 ADD DUP7 PUSH2 0x370 JUMP JUMPDEST PUSH2 0x3CD PUSH1 0x40 DUP4 ADD DUP6 PUSH2 0x370 JUMP JUMPDEST PUSH2 0x3DA PUSH1 0x60 DUP4 ADD DUP5 PUSH2 0x38A JUMP JUMPDEST SWAP6 SWAP5 POP POP POP POP POP JUMP JUMPDEST PUSH0 PUSH0 REVERT JUMPDEST PUSH0 PUSH0 REVERT JUMPDEST PUSH32 0x4E487B7100000000000000000000000000000000000000000000000000000000 PUSH0 MSTORE PUSH1 0x41 PUSH1 0x4 MSTORE PUSH1 0x24 PUSH0 REVERT JUMPDEST PUSH2 0x421 DUP3 PUSH2 0x328 JUMP JUMPDEST DUP2 ADD DUP2 DUP2 LT PUSH8 0xFFFFFFFFFFFFFFFF DUP3 GT OR ISZERO PUSH2 0x440 JUMPI PUSH2 0x43F PUSH2 0x3EB JUMP JUMPDEST JUMPDEST DUP1 PUSH1 0x40 MSTORE POP POP POP JUMP JUMPDEST PUSH0 PUSH2 0x452 PUSH2 0x291 JUMP JUMPDEST SWAP1 POP PUSH2 0x45E DUP3 DUP3 PUSH2 0x418 JUMP JUMPDEST SWAP2 SWAP1 POP JUMP JUMPDEST PUSH0 PUSH8 0xFFFFFFFFFFFFFFFF DUP3 GT ISZERO PUSH2 0x47D JUMPI PUSH2 0x47C PUSH2 0x3EB JUMP JUMPDEST JUMPDEST PUSH2 0x486 DUP3 PUSH2 0x328 JUMP JUMPDEST SWAP1 POP PUSH1 0x20 DUP2 ADD SWAP1 POP SWAP2 SWAP1 POP JUMP JUMPDEST DUP3 DUP2 DUP4 CALLDATACOPY PUSH0 DUP4 DUP4 ADD MSTORE POP POP POP JUMP JUMPDEST PUSH0 PUSH2 0x4B3 PUSH2 0x4AE DUP5 PUSH2 0x463 JUMP JUMPDEST PUSH2 0x449 JUMP JUMPDEST SWAP1 POP DUP3 DUP2 MSTORE PUSH1 0x20 DUP2 ADD DUP5 DUP5 DUP5 ADD GT ISZERO PUSH2 0x4CF JUMPI PUSH2 0x4CE PUSH2 0x3E7 JUMP JUMPDEST JUMPDEST PUSH2 0x4DA DUP5 DUP3 DUP6 PUSH2 0x493 JUMP JUMPDEST POP SWAP4 SWAP3 POP POP POP JUMP JUMPDEST PUSH0 DUP3 PUSH1 0x1F DUP4 ADD SLT PUSH2 0x4F6 JUMPI PUSH2 0x4F5 PUSH2 0x3E3 JUMP JUMPDEST JUMPDEST DUP2 CALLDATALOAD PUSH2 0x506 DUP5 DUP3 PUSH1 0x20 DUP7 ADD PUSH2 0x4A1 JUMP JUMPDEST SWAP2 POP POP SWAP3 SWAP2 POP POP JUMP JUMPDEST PUSH0 PUSH0 PUSH1 0x40 DUP4 DUP6 SUB SLT ISZERO PUSH2 0x525 JUMPI PUSH2 0x524 PUSH2 0x29A JUMP JUMPDEST JUMPDEST PUSH0 DUP4 ADD CALLDATALOAD PUSH8 0xFFFFFFFFFFFFFFFF DUP2 GT ISZERO PUSH2 0x542 JUMPI PUSH2 0x541 PUSH2 0x29E JUMP JUMPDEST JUMPDEST PUSH2 0x54E DUP6 DUP3 DUP7 ADD PUSH2 0x4E2 JUMP JUMPDEST SWAP3 POP POP PUSH1 0x20 PUSH2 0x55F DUP6 DUP3 DUP7 ADD PUSH2 0x2C1 JUMP JUMPDEST SWAP2 POP POP SWAP3 POP SWAP3 SWAP1 POP JUMP JUMPDEST PUSH0 PUSH20 0xFFFFFFFFFFFFFFFFFFFFFFFFFFFFFFFFFFFFFFFF DUP3 AND SWAP1 POP SWAP2 SWAP1 POP JUMP JUMPDEST PUSH0 PUSH2 0x592 DUP3 PUSH2 0x569 JUMP JUMPDEST SWAP1 POP SWAP2 SWAP1 POP JUMP JUMPDEST PUSH2 0x5A2 DUP2 PUSH2 0x588 JUMP JUMPDEST DUP2 EQ PUSH2 0x5AC JUMPI PUSH0 PUSH0 REVERT JUMPDEST POP JUMP JUMPDEST PUSH0 DUP2 CALLDATALOAD SWAP1 POP PUSH2 0x5BD DUP2 PUSH2 0x599 JUMP JUMPDEST SWAP3 SWAP2 POP POP JUMP JUMPDEST PUSH0 PUSH0 PUSH1 0x40 DUP4 DUP6 SUB SLT ISZERO PUSH2 0x5D9 JUMPI PUSH2 0x5D8 PUSH2 0x29A JUMP JUMPDEST JUMPDEST PUSH0 PUSH2 0x5E6 DUP6 DUP3 DUP7 ADD PUSH2 0x2C1 JUMP JUMPDEST SWAP3 POP POP PUSH1 0x20 PUSH2 0x5F7 DUP6 DUP3 DUP7 ADD PUSH2 0x5AF JUMP JUMPDEST SWAP2 POP POP SWAP3 POP SWAP3 SWAP1 POP JUMP JUMPDEST PUSH0 PUSH1 0x20 DUP3 ADD SWAP1 POP PUSH2 0x614 PUSH0 DUP4 ADD DUP5 PUSH2 0x38A JUMP JUMPDEST SWAP3 SWAP2 POP POP JUMP JUMPDEST PUSH2 0x623 DUP2 PUSH2 0x588 JUMP JUMPDEST DUP3 MSTORE POP POP JUMP JUMPDEST PUSH0 PUSH1 0x20 DUP3 ADD SWAP1 POP PUSH2 0x63C PUSH0 DUP4 ADD DUP5 PUSH2 0x61A JUMP JUMPDEST SWAP3 SWAP2 POP POP JUMP JUMPDEST PUSH0 PUSH1 0x20 DUP3 ADD SWAP1 POP PUSH2 0x655 PUSH0 DUP4 ADD DUP5 PUSH2 0x370 JUMP JUMPDEST SWAP3 SWAP2 POP POP JUMP JUMPDEST PUSH32 0x4E487B7100000000000000000000000000000000000000000000000000000000 PUSH0 MSTORE PUSH1 0x22 PUSH1 0x4 MSTORE PUSH1 0x24 PUSH0 REVERT JUMPDEST PUSH0 PUSH1 0x2 DUP3 DIV SWAP1 POP PUSH1 0x1 DUP3 AND DUP1 PUSH2 0x69F JUMPI PUSH1 0x7F DUP3 AND SWAP2 POP JUMPDEST PUSH1 0x20 DUP3 LT DUP2 SUB PUSH2 0x6B2 JUMPI PUSH2 0x6B1 PUSH2 0x65B JUMP JUMPDEST JUMPDEST POP SWAP2 SWAP1 POP JUMP INVALID LOG2 PUSH5 0x6970667358 0x22 SLT KECCAK256 SWAP11 SAR 0x2D PUSH7 0xA852C90695D116 SWAP1 0xE8 0xBA 0xDE PUSH20 0xE9B8C15BC2D6371D5FFCB6C225B828BA64736F6C PUSH4 0x4300081E STOP CALLER "
				},
				"gasEstimates": {
					"creation": {
						"codeDepositCost": "354800",
						"executionCost": "24655",
						"totalCost": "379455"
					},
					"external": {
						"createProposal(string,uint256)": "infinite",
						"getWinner()": "368",
						"hasVoted(uint256,address)": "3070",
						"owner()": "2529",
						"proposalCount()": "2491",
						"proposals(uint256)": "infinite",
						"vote(uint256)": "402"
					}
				},
				"methodIdentifiers": {
					"createProposal(string,uint256)": "35facf78",
					"getWinner()": "8e7ea5b2",
					"hasVoted(uint256,address)": "43859632",
					"owner()": "8da5cb5b",
					"proposalCount()": "da35c664",
					"proposals(uint256)": "013cf08b",
					"vote(uint256)": "0121b93f"
				}
			},
			"storageLayout": {
				"storage": [
					{
						"astId": 12,
						"contract": "contracts/homework/08 VotingSystem2.sol:VotingSystem",
						"label": "owner",
						"offset": 0,
						"slot": "0",
						"type": "t_address"
					},
					{
						"astId": 14,
						"contract": "contracts/homework/08 VotingSystem2.sol:VotingSystem",
						"label": "proposalCount",
						"offset": 0,
						"slot": "1",
						"type": "t_uint256"
					},
					{
						"astId": 19,
						"contract": "contracts/homework/08 VotingSystem2.sol:VotingSystem",
						"label": "proposals",
						"offset": 0,
						"slot": "2",
						"type": "t_mapping(t_uint256,t_struct(Proposal)10_storage)"
					},
					{
						"astId": 25,
						"contract": "contracts/homework/08 VotingSystem2.sol:VotingSystem",
						"label": "hasVoted",
						"offset": 0,
						"slot": "3",
						"type": "t_mapping(t_uint256,t_mapping(t_address,t_bool))"
					}
				],
				"types": {
					"t_address": {
						"encoding": "inplace",
						"label": "address",
						"numberOfBytes": "20"
					},
					"t_bool": {
						"encoding": "inplace",
						"label": "bool",
						"numberOfBytes": "1"
					},
					"t_mapping(t_address,t_bool)": {
						"encoding": "mapping",
						"key": "t_address",
						"label": "mapping(address => bool)",
						"numberOfBytes": "32",
						"value": "t_bool"
					},
					"t_mapping(t_uint256,t_mapping(t_address,t_bool))": {
						"encoding": "mapping",
						"key": "t_uint256",
						"label": "mapping(uint256 => mapping(address => bool))",
						"numberOfBytes": "32",
						"value": "t_mapping(t_address,t_bool)"
					},
					"t_mapping(t_uint256,t_struct(Proposal)10_storage)": {
						"encoding": "mapping",
						"key": "t_uint256",
						"label": "mapping(uint256 => struct VotingSystem.Proposal)",
						"numberOfBytes": "32",
						"value": "t_struct(Proposal)10_storage"
					},
					"t_string_storage": {
						"encoding": "bytes",
						"label": "string",
						"numberOfBytes": "32"
					},
					"t_struct(Proposal)10_storage": {
						"encoding": "inplace",
						"label": "struct VotingSystem.Proposal",
						"members": [
							{
								"astId": 3,
								"contract": "contracts/homework/08 VotingSystem2.sol:VotingSystem",
								"label": "description",
								"offset": 0,
								"slot": "0",
								"type": "t_string_storage"
							},
							{
								"astId": 5,
								"contract": "contracts/homework/08 VotingSystem2.sol:VotingSystem",
								"label": "voteCount",
								"offset": 0,
								"slot": "1",
								"type": "t_uint256"
							},
							{
								"astId": 7,
								"contract": "contracts/homework/08 VotingSystem2.sol:VotingSystem",
								"label": "deadline",
								"offset": 0,
								"slot": "2",
								"type": "t_uint256"
							},
							{
								"astId": 9,
								"contract": "contracts/homework/08 VotingSystem2.sol:VotingSystem",
								"label": "exists",
								"offset": 0,
								"slot": "3",
								"type": "t_bool"
							}
						],
						"numberOfBytes": "128"
					},
					"t_uint256": {
						"encoding": "inplace",
						"label": "uint256",
						"numberOfBytes": "32"
					}
				}
			},
			"userdoc": {
				"kind": "user",
				"methods": {},
				"version": 1
			}
		}
	}
}