{
	"contracts/homework/05 UserManagementSystem.sol": {
		"UserManagementSystem": {
			"abi": [
				{
					"inputs": [],
					"name": "MAX_USERS",
					"outputs": [
						{
							"internalType": "uint256",
							"name": "",
							"type": "uint256"
						}
					],
					"stateMutability": "view",
					"type": "function"
				},
				{
					"inputs": [],
					"name": "getAllUsers",
					"outputs": [
						{
							"internalType": "address[]",
							"name": "",
							"type": "address[]"
						}
					],
					"stateMutability": "view",
					"type": "function"
				},
				{
					"inputs": [
						{
							"internalType": "address",
							"name": "user",
							"type": "address"
						}
					],
					"name": "getUserInfo",
					"outputs": [
						{
							"components": [
								{
									"internalType": "string",
									"name": "name",
									"type": "string"
								},
								{
									"internalType": "string",
									"name": "email",
									"type": "string"
								},
								{
									"internalType": "uint256",
									"name": "balance",
									"type": "uint256"
								},
								{
									"internalType": "uint256",
									"name": "registeredAt",
									"type": "uint256"
								},
								{
									"internalType": "bool",
									"name": "exists",
									"type": "bool"
								}
							],
							"internalType": "struct UserManagementSystem.User",
							"name": "",
							"type": "tuple"
						}
					],
					"stateMutability": "view",
					"type": "function"
				},
				{
					"inputs": [
						{
							"internalType": "address",
							"name": "user",
							"type": "address"
						}
					],
					"name": "isRegistered",
					"outputs": [
						{
							"internalType": "bool",
							"name": "",
							"type": "bool"
						}
					],
					"stateMutability": "view",
					"type": "function"
				},
				{
					"inputs": [
						{
							"internalType": "string",
							"name": "name",
							"type": "string"
						},
						{
							"internalType": "string",
							"name": "email",
							"type": "string"
						}
					],
					"name": "register",
					"outputs": [],
					"stateMutability": "nonpayable",
					"type": "function"
				},
				{
					"inputs": [
						{
							"internalType": "string",
							"name": "name",
							"type": "string"
						},
						{
							"internalType": "string",
							"name": "email",
							"type": "string"
						}
					],
					"name": "updateProfile",
					"outputs": [],
					"stateMutability": "nonpayable",
					"type": "function"
				},
				{
					"inputs": [
						{
							"internalType": "uint256",
							"name": "",
							"type": "uint256"
						}
					],
					"name": "userAddresses",
					"outputs": [
						{
							"internalType": "address",
							"name": "",
							"type": "address"
						}
					],
					"stateMutability": "view",
					"type": "function"
				},
				{
					"inputs": [],
					"name": "userCount",
					"outputs": [
						{
							"internalType": "uint256",
							"name": "",
							"type": "uint256"
						}
					],
					"stateMutability": "view",
					"type": "function"
				},
				{
					"inputs": [
						{
							"internalType": "address",
							"name": "",
							"type": "address"
						}
					],
					"name": "users",
					"outputs": [
						{
							"internalType": "string",
							"name": "name",
							"type": "string"
						},
						{
							"internalType": "string",
							"name": "email",
							"type": "string"
						},
						{
							"internalType": "uint256",
							"name": "balance",
							"type": "uint256"
						},
						{
							"internalType": "uint256",
							"name": "registeredAt",
							"type": "uint256"
						},
						{
							"internalType": "bool",
							"name": "exists",
							"type": "bool"
						}
					],
					"stateMutability": "view",
					"type": "function"
				}
			],
			"devdoc": {
				"kind": "dev",
				"methods": {},
				"version": 1
			},
			"evm": {
				"assembly": "    /* \"contracts/homework/05 UserManagementSystem.sol\":59:1842  contract UserManagementSystem {... */\n  mstore(0x40, 0x80)\n  callvalue\n  dup1\n  iszero\n  tag_1\n  jumpi\n  revert(0x00, 0x00)\ntag_1:\n  pop\n  dataSize(sub_0)\n  dup1\n  dataOffset(sub_0)\n  0x00\n  codecopy\n  0x00\n  return\nstop\n\nsub_0: assembly {\n        /* \"contracts/homework/05 UserManagementSystem.sol\":59:1842  contract UserManagementSystem {... */\n      mstore(0x40, 0x80)\n      callvalue\n      dup1\n      iszero\n      tag_1\n      jumpi\n      revert(0x00, 0x00)\n    tag_1:\n      pop\n      jumpi(tag_2, lt(calldatasize, 0x04))\n      shr(0xe0, calldataload(0x00))\n      dup1\n      0xa87430ba\n      gt\n      tag_12\n      jumpi\n      dup1\n      0xa87430ba\n      eq\n      tag_7\n      jumpi\n      dup1\n      0xc3c5a547\n      eq\n      tag_8\n      jumpi\n      dup1\n      0xc9d3cc6a\n      eq\n      tag_9\n      jumpi\n      dup1\n      0xe2842d79\n      eq\n      tag_10\n      jumpi\n      dup1\n      0xfa6ac131\n      eq\n      tag_11\n      jumpi\n      jump(tag_2)\n    tag_12:\n      dup1\n      0x07973ccf\n      eq\n      tag_3\n      jumpi\n      dup1\n      0x3ffbd47f\n      eq\n      tag_4\n      jumpi\n      dup1\n      0x502c9bd5\n      eq\n      tag_5\n      jumpi\n      dup1\n      0x6386c1c7\n      eq\n      tag_6\n      jumpi\n    tag_2:\n      revert(0x00, 0x00)\n        /* \"contracts/homework/05 UserManagementSystem.sol\":360:384  uint256 public userCount */\n    tag_3:\n      tag_13\n      tag_14\n      jump\t// in\n    tag_13:\n      mload(0x40)\n      tag_15\n      swap2\n      swap1\n      tag_16\n      jump\t// in\n    tag_15:\n      mload(0x40)\n      dup1\n      swap2\n      sub\n      swap1\n      return\n        /* \"contracts/homework/05 UserManagementSystem.sol\":477:1078  function register(string memory name, string memory email) public {... */\n    tag_4:\n      tag_17\n      0x04\n      dup1\n      calldatasize\n      sub\n      dup2\n      add\n      swap1\n      tag_18\n      swap2\n      swap1\n      tag_19\n      jump\t// in\n    tag_18:\n      tag_20\n      jump\t// in\n    tag_17:\n      stop\n        /* \"contracts/homework/05 UserManagementSystem.sol\":323:353  address[] public userAddresses */\n    tag_5:\n      tag_21\n      0x04\n      dup1\n      calldatasize\n      sub\n      dup2\n      add\n      swap1\n      tag_22\n      swap2\n      swap1\n      tag_23\n      jump\t// in\n    tag_22:\n      tag_24\n      jump\t// in\n    tag_21:\n      mload(0x40)\n      tag_25\n      swap2\n      swap1\n      tag_26\n      jump\t// in\n    tag_25:\n      mload(0x40)\n      dup1\n      swap2\n      sub\n      swap1\n      return\n        /* \"contracts/homework/05 UserManagementSystem.sol\":1381:1543  function getUserInfo(address user) public view returns (User memory) {... */\n    tag_6:\n      tag_27\n      0x04\n      dup1\n      calldatasize\n      sub\n      dup2\n      add\n      swap1\n      tag_28\n      swap2\n      swap1\n      tag_29\n      jump\t// in\n    tag_28:\n      tag_30\n      jump\t// in\n    tag_27:\n      mload(0x40)\n      tag_31\n      swap2\n      swap1\n      tag_32\n      jump\t// in\n    tag_31:\n      mload(0x40)\n      dup1\n      swap2\n      sub\n      swap1\n      return\n        /* \"contracts/homework/05 UserManagementSystem.sol\":279:316  mapping(address => User) public users */\n    tag_7:\n      tag_33\n      0x04\n      dup1\n      calldatasize\n      sub\n      dup2\n      add\n      swap1\n      tag_34\n      swap2\n      swap1\n      tag_29\n      jump\t// in\n    tag_34:\n      tag_35\n      jump\t// in\n    tag_33:\n      mload(0x40)\n      tag_36\n      swap6\n      swap5\n      swap4\n      swap3\n      swap2\n      swap1\n      tag_37\n      jump\t// in\n    tag_36:\n      mload(0x40)\n      dup1\n      swap2\n      sub\n      swap1\n      return\n        /* \"contracts/homework/05 UserManagementSystem.sol\":1732:1839  function isRegistered(address user) public view returns (bool) {... */\n    tag_8:\n      tag_38\n      0x04\n      dup1\n      calldatasize\n      sub\n      dup2\n      add\n      swap1\n      tag_39\n      swap2\n      swap1\n      tag_29\n      jump\t// in\n    tag_39:\n      tag_40\n      jump\t// in\n    tag_38:\n      mload(0x40)\n      tag_41\n      swap2\n      swap1\n      tag_42\n      jump\t// in\n    tag_41:\n      mload(0x40)\n      dup1\n      swap2\n      sub\n      swap1\n      return\n        /* \"contracts/homework/05 UserManagementSystem.sol\":1117:1340  function updateProfile(string memory name, string memory email) public {... */\n    tag_9:\n      tag_43\n      0x04\n      dup1\n      calldatasize\n      sub\n      dup2\n      add\n      swap1\n      tag_44\n      swap2\n      swap1\n      tag_19\n      jump\t// in\n    tag_44:\n      tag_45\n      jump\t// in\n    tag_43:\n      stop\n        /* \"contracts/homework/05 UserManagementSystem.sol\":1584:1685  function getAllUsers() public view returns (address[] memory) {... */\n    tag_10:\n      tag_46\n      tag_47\n      jump\t// in\n    tag_46:\n      mload(0x40)\n      tag_48\n      swap2\n      swap1\n      tag_49\n      jump\t// in\n    tag_48:\n      mload(0x40)\n      dup1\n      swap2\n      sub\n      swap1\n      return\n        /* \"contracts/homework/05 UserManagementSystem.sol\":391:431  uint256 public constant MAX_USERS = 1000 */\n    tag_11:\n      tag_50\n      tag_51\n      jump\t// in\n    tag_50:\n      mload(0x40)\n      tag_52\n      swap2\n      swap1\n      tag_16\n      jump\t// in\n    tag_52:\n      mload(0x40)\n      dup1\n      swap2\n      sub\n      swap1\n      return\n        /* \"contracts/homework/05 UserManagementSystem.sol\":360:384  uint256 public userCount */\n    tag_14:\n      sload(0x02)\n      dup2\n      jump\t// out\n        /* \"contracts/homework/05 UserManagementSystem.sol\":477:1078  function register(string memory name, string memory email) public {... */\n    tag_20:\n        /* \"contracts/homework/05 UserManagementSystem.sol\":597:602  users */\n      0x00\n        /* \"contracts/homework/05 UserManagementSystem.sol\":597:614  users[msg.sender] */\n      0x00\n        /* \"contracts/homework/05 UserManagementSystem.sol\":603:613  msg.sender */\n      caller\n        /* \"contracts/homework/05 UserManagementSystem.sol\":597:614  users[msg.sender] */\n      0xffffffffffffffffffffffffffffffffffffffff\n      and\n      0xffffffffffffffffffffffffffffffffffffffff\n      and\n      dup2\n      mstore\n      0x20\n      add\n      swap1\n      dup2\n      mstore\n      0x20\n      add\n      0x00\n      keccak256\n        /* \"contracts/homework/05 UserManagementSystem.sol\":597:621  users[msg.sender].exists */\n      0x04\n      add\n      0x00\n      swap1\n      sload\n      swap1\n      0x0100\n      exp\n      swap1\n      div\n      0xff\n      and\n        /* \"contracts/homework/05 UserManagementSystem.sol\":596:621  !users[msg.sender].exists */\n      iszero\n        /* \"contracts/homework/05 UserManagementSystem.sol\":588:642  require(!users[msg.sender].exists, \"already rigested\") */\n      tag_54\n      jumpi\n      mload(0x40)\n      0x08c379a000000000000000000000000000000000000000000000000000000000\n      dup2\n      mstore\n      0x04\n      add\n      tag_55\n      swap1\n      tag_56\n      jump\t// in\n    tag_55:\n      mload(0x40)\n      dup1\n      swap2\n      sub\n      swap1\n      revert\n    tag_54:\n        /* \"contracts/homework/05 UserManagementSystem.sol\":427:431  1000 */\n      0x03e8\n        /* \"contracts/homework/05 UserManagementSystem.sol\":698:707  userCount */\n      sload(0x02)\n        /* \"contracts/homework/05 UserManagementSystem.sol\":698:719  userCount < MAX_USERS */\n      lt\n        /* \"contracts/homework/05 UserManagementSystem.sol\":690:736  require(userCount < MAX_USERS,\"users is full\") */\n      tag_57\n      jumpi\n      mload(0x40)\n      0x08c379a000000000000000000000000000000000000000000000000000000000\n      dup2\n      mstore\n      0x04\n      add\n      tag_58\n      swap1\n      tag_59\n      jump\t// in\n    tag_58:\n      mload(0x40)\n      dup1\n      swap2\n      sub\n      swap1\n      revert\n    tag_57:\n        /* \"contracts/homework/05 UserManagementSystem.sol\":792:954  User({... */\n      mload(0x40)\n      dup1\n      0xa0\n      add\n      0x40\n      mstore\n      dup1\n        /* \"contracts/homework/05 UserManagementSystem.sol\":818:822  name */\n      dup4\n        /* \"contracts/homework/05 UserManagementSystem.sol\":792:954  User({... */\n      dup2\n      mstore\n      0x20\n      add\n        /* \"contracts/homework/05 UserManagementSystem.sol\":843:848  email */\n      dup3\n        /* \"contracts/homework/05 UserManagementSystem.sol\":792:954  User({... */\n      dup2\n      mstore\n      0x20\n      add\n        /* \"contracts/homework/05 UserManagementSystem.sol\":871:872  0 */\n      0x00\n        /* \"contracts/homework/05 UserManagementSystem.sol\":792:954  User({... */\n      dup2\n      mstore\n      0x20\n      add\n        /* \"contracts/homework/05 UserManagementSystem.sol\":900:915  block.timestamp */\n      timestamp\n        /* \"contracts/homework/05 UserManagementSystem.sol\":792:954  User({... */\n      dup2\n      mstore\n      0x20\n      add\n        /* \"contracts/homework/05 UserManagementSystem.sol\":938:942  true */\n      0x01\n        /* \"contracts/homework/05 UserManagementSystem.sol\":792:954  User({... */\n      iszero\n      iszero\n      dup2\n      mstore\n      pop\n        /* \"contracts/homework/05 UserManagementSystem.sol\":772:777  users */\n      0x00\n        /* \"contracts/homework/05 UserManagementSystem.sol\":772:789  users[msg.sender] */\n      0x00\n        /* \"contracts/homework/05 UserManagementSystem.sol\":778:788  msg.sender */\n      caller\n        /* \"contracts/homework/05 UserManagementSystem.sol\":772:789  users[msg.sender] */\n      0xffffffffffffffffffffffffffffffffffffffff\n      and\n      0xffffffffffffffffffffffffffffffffffffffff\n      and\n      dup2\n      mstore\n      0x20\n      add\n      swap1\n      dup2\n      mstore\n      0x20\n      add\n      0x00\n      keccak256\n        /* \"contracts/homework/05 UserManagementSystem.sol\":772:954  users[msg.sender] = User({... */\n      0x00\n      dup3\n      add\n      mload\n      dup2\n      0x00\n      add\n      swap1\n      dup2\n      tag_60\n      swap2\n      swap1\n      tag_61\n      jump\t// in\n    tag_60:\n      pop\n      0x20\n      dup3\n      add\n      mload\n      dup2\n      0x01\n      add\n      swap1\n      dup2\n      tag_62\n      swap2\n      swap1\n      tag_61\n      jump\t// in\n    tag_62:\n      pop\n      0x40\n      dup3\n      add\n      mload\n      dup2\n      0x02\n      add\n      sstore\n      0x60\n      dup3\n      add\n      mload\n      dup2\n      0x03\n      add\n      sstore\n      0x80\n      dup3\n      add\n      mload\n      dup2\n      0x04\n      add\n      exp(0x0100, 0x00)\n      dup2\n      sload\n      dup2\n      0xff\n      mul\n      not\n      and\n      swap1\n      dup4\n      iszero\n      iszero\n      mul\n      or\n      swap1\n      sstore\n      pop\n      swap1\n      pop\n      pop\n        /* \"contracts/homework/05 UserManagementSystem.sol\":993:1006  userAddresses */\n      0x01\n        /* \"contracts/homework/05 UserManagementSystem.sol\":1012:1022  msg.sender */\n      caller\n        /* \"contracts/homework/05 UserManagementSystem.sol\":993:1023  userAddresses.push(msg.sender) */\n      swap1\n      dup1\n      0x01\n      dup2\n      sload\n      add\n      dup1\n      dup3\n      sstore\n      dup1\n      swap2\n      pop\n      pop\n      0x01\n      swap1\n      sub\n      swap1\n      0x00\n      mstore\n      keccak256(0x00, 0x20)\n      add\n      0x00\n      swap1\n      swap2\n      swap1\n      swap2\n      swap1\n      swap2\n      0x0100\n      exp\n      dup2\n      sload\n      dup2\n      0xffffffffffffffffffffffffffffffffffffffff\n      mul\n      not\n      and\n      swap1\n      dup4\n      0xffffffffffffffffffffffffffffffffffffffff\n      and\n      mul\n      or\n      swap1\n      sstore\n      pop\n        /* \"contracts/homework/05 UserManagementSystem.sol\":1059:1068  userCount */\n      0x02\n      0x00\n        /* \"contracts/homework/05 UserManagementSystem.sol\":1059:1070  userCount++ */\n      dup2\n      sload\n      dup1\n      swap3\n      swap2\n      swap1\n      tag_64\n      swap1\n      tag_65\n      jump\t// in\n    tag_64:\n      swap2\n      swap1\n      pop\n      sstore\n      pop\n        /* \"contracts/homework/05 UserManagementSystem.sol\":477:1078  function register(string memory name, string memory email) public {... */\n      pop\n      pop\n      jump\t// out\n        /* \"contracts/homework/05 UserManagementSystem.sol\":323:353  address[] public userAddresses */\n    tag_24:\n      0x01\n      dup2\n      dup2\n      sload\n      dup2\n      lt\n      tag_66\n      jumpi\n      0x00\n      dup1\n      revert\n    tag_66:\n      swap1\n      0x00\n      mstore\n      keccak256(0x00, 0x20)\n      add\n      0x00\n      swap2\n      pop\n      sload\n      swap1\n      0x0100\n      exp\n      swap1\n      div\n      0xffffffffffffffffffffffffffffffffffffffff\n      and\n      dup2\n      jump\t// out\n        /* \"contracts/homework/05 UserManagementSystem.sol\":1381:1543  function getUserInfo(address user) public view returns (User memory) {... */\n    tag_30:\n        /* \"contracts/homework/05 UserManagementSystem.sol\":1437:1448  User memory */\n      tag_68\n      tag_69\n      jump\t// in\n    tag_68:\n        /* \"contracts/homework/05 UserManagementSystem.sol\":1469:1474  users */\n      0x00\n        /* \"contracts/homework/05 UserManagementSystem.sol\":1469:1480  users[user] */\n      0x00\n        /* \"contracts/homework/05 UserManagementSystem.sol\":1475:1479  user */\n      dup4\n        /* \"contracts/homework/05 UserManagementSystem.sol\":1469:1480  users[user] */\n      0xffffffffffffffffffffffffffffffffffffffff\n      and\n      0xffffffffffffffffffffffffffffffffffffffff\n      and\n      dup2\n      mstore\n      0x20\n      add\n      swap1\n      dup2\n      mstore\n      0x20\n      add\n      0x00\n      keccak256\n        /* \"contracts/homework/05 UserManagementSystem.sol\":1469:1487  users[user].exists */\n      0x04\n      add\n      0x00\n      swap1\n      sload\n      swap1\n      0x0100\n      exp\n      swap1\n      div\n      0xff\n      and\n        /* \"contracts/homework/05 UserManagementSystem.sol\":1461:1506  require(users[user].exists, \"Not registered\") */\n      tag_71\n      jumpi\n      mload(0x40)\n      0x08c379a000000000000000000000000000000000000000000000000000000000\n      dup2\n      mstore\n      0x04\n      add\n      tag_72\n      swap1\n      tag_73\n      jump\t// in\n    tag_72:\n      mload(0x40)\n      dup1\n      swap2\n      sub\n      swap1\n      revert\n    tag_71:\n        /* \"contracts/homework/05 UserManagementSystem.sol\":1524:1529  users */\n      0x00\n        /* \"contracts/homework/05 UserManagementSystem.sol\":1524:1535  users[user] */\n      0x00\n        /* \"contracts/homework/05 UserManagementSystem.sol\":1530:1534  user */\n      dup4\n        /* \"contracts/homework/05 UserManagementSystem.sol\":1524:1535  users[user] */\n      0xffffffffffffffffffffffffffffffffffffffff\n      and\n      0xffffffffffffffffffffffffffffffffffffffff\n      and\n      dup2\n      mstore\n      0x20\n      add\n      swap1\n      dup2\n      mstore\n      0x20\n      add\n      0x00\n      keccak256\n        /* \"contracts/homework/05 UserManagementSystem.sol\":1517:1535  return users[user] */\n      mload(0x40)\n      dup1\n      0xa0\n      add\n      0x40\n      mstore\n      swap1\n      dup2\n      0x00\n      dup3\n      add\n      dup1\n      sload\n      tag_74\n      swap1\n      tag_75\n      jump\t// in\n    tag_74:\n      dup1\n      0x1f\n      add\n      0x20\n      dup1\n      swap2\n      div\n      mul\n      0x20\n      add\n      mload(0x40)\n      swap1\n      dup2\n      add\n      0x40\n      mstore\n      dup1\n      swap3\n      swap2\n      swap1\n      dup2\n      dup2\n      mstore\n      0x20\n      add\n      dup3\n      dup1\n      sload\n      tag_76\n      swap1\n      tag_75\n      jump\t// in\n    tag_76:\n      dup1\n      iszero\n      tag_77\n      jumpi\n      dup1\n      0x1f\n      lt\n      tag_78\n      jumpi\n      0x0100\n      dup1\n      dup4\n      sload\n      div\n      mul\n      dup4\n      mstore\n      swap2\n      0x20\n      add\n      swap2\n      jump(tag_77)\n    tag_78:\n      dup3\n      add\n      swap2\n      swap1\n      0x00\n      mstore\n      keccak256(0x00, 0x20)\n      swap1\n    tag_79:\n      dup2\n      sload\n      dup2\n      mstore\n      swap1\n      0x01\n      add\n      swap1\n      0x20\n      add\n      dup1\n      dup4\n      gt\n      tag_79\n      jumpi\n      dup3\n      swap1\n      sub\n      0x1f\n      and\n      dup3\n      add\n      swap2\n    tag_77:\n      pop\n      pop\n      pop\n      pop\n      pop\n      dup2\n      mstore\n      0x20\n      add\n      0x01\n      dup3\n      add\n      dup1\n      sload\n      tag_80\n      swap1\n      tag_75\n      jump\t// in\n    tag_80:\n      dup1\n      0x1f\n      add\n      0x20\n      dup1\n      swap2\n      div\n      mul\n      0x20\n      add\n      mload(0x40)\n      swap1\n      dup2\n      add\n      0x40\n      mstore\n      dup1\n      swap3\n      swap2\n      swap1\n      dup2\n      dup2\n      mstore\n      0x20\n      add\n      dup3\n      dup1\n      sload\n      tag_81\n      swap1\n      tag_75\n      jump\t// in\n    tag_81:\n      dup1\n      iszero\n      tag_82\n      jumpi\n      dup1\n      0x1f\n      lt\n      tag_83\n      jumpi\n      0x0100\n      dup1\n      dup4\n      sload\n      div\n      mul\n      dup4\n      mstore\n      swap2\n      0x20\n      add\n      swap2\n      jump(tag_82)\n    tag_83:\n      dup3\n      add\n      swap2\n      swap1\n      0x00\n      mstore\n      keccak256(0x00, 0x20)\n      swap1\n    tag_84:\n      dup2\n      sload\n      dup2\n      mstore\n      swap1\n      0x01\n      add\n      swap1\n      0x20\n      add\n      dup1\n      dup4\n      gt\n      tag_84\n      jumpi\n      dup3\n      swap1\n      sub\n      0x1f\n      and\n      dup3\n      add\n      swap2\n    tag_82:\n      pop\n      pop\n      pop\n      pop\n      pop\n      dup2\n      mstore\n      0x20\n      add\n      0x02\n      dup3\n      add\n      sload\n      dup2\n      mstore\n      0x20\n      add\n      0x03\n      dup3\n      add\n      sload\n      dup2\n      mstore\n      0x20\n      add\n      0x04\n      dup3\n      add\n      0x00\n      swap1\n      sload\n      swap1\n      0x0100\n      exp\n      swap1\n      div\n      0xff\n      and\n      iszero\n      iszero\n      iszero\n      iszero\n      dup2\n      mstore\n      pop\n      pop\n      swap1\n      pop\n        /* \"contracts/homework/05 UserManagementSystem.sol\":1381:1543  function getUserInfo(address user) public view returns (User memory) {... */\n      swap2\n      swap1\n      pop\n      jump\t// out\n        /* \"contracts/homework/05 UserManagementSystem.sol\":279:316  mapping(address => User) public users */\n    tag_35:\n      mstore(0x20, 0x00)\n      dup1\n      0x00\n      mstore\n      keccak256(0x00, 0x40)\n      0x00\n      swap2\n      pop\n      swap1\n      pop\n      dup1\n      0x00\n      add\n      dup1\n      sload\n      tag_85\n      swap1\n      tag_75\n      jump\t// in\n    tag_85:\n      dup1\n      0x1f\n      add\n      0x20\n      dup1\n      swap2\n      div\n      mul\n      0x20\n      add\n      mload(0x40)\n      swap1\n      dup2\n      add\n      0x40\n      mstore\n      dup1\n      swap3\n      swap2\n      swap1\n      dup2\n      dup2\n      mstore\n      0x20\n      add\n      dup3\n      dup1\n      sload\n      tag_86\n      swap1\n      tag_75\n      jump\t// in\n    tag_86:\n      dup1\n      iszero\n      tag_87\n      jumpi\n      dup1\n      0x1f\n      lt\n      tag_88\n      jumpi\n      0x0100\n      dup1\n      dup4\n      sload\n      div\n      mul\n      dup4\n      mstore\n      swap2\n      0x20\n      add\n      swap2\n      jump(tag_87)\n    tag_88:\n      dup3\n      add\n      swap2\n      swap1\n      0x00\n      mstore\n      keccak256(0x00, 0x20)\n      swap1\n    tag_89:\n      dup2\n      sload\n      dup2\n      mstore\n      swap1\n      0x01\n      add\n      swap1\n      0x20\n      add\n      dup1\n      dup4\n      gt\n      tag_89\n      jumpi\n      dup3\n      swap1\n      sub\n      0x1f\n      and\n      dup3\n      add\n      swap2\n    tag_87:\n      pop\n      pop\n      pop\n      pop\n      pop\n      swap1\n      dup1\n      0x01\n      add\n      dup1\n      sload\n      tag_90\n      swap1\n      tag_75\n      jump\t// in\n    tag_90:\n      dup1\n      0x1f\n      add\n      0x20\n      dup1\n      swap2\n      div\n      mul\n      0x20\n      add\n      mload(0x40)\n      swap1\n      dup2\n      add\n      0x40\n      mstore\n      dup1\n      swap3\n      swap2\n      swap1\n      dup2\n      dup2\n      mstore\n      0x20\n      add\n      dup3\n      dup1\n      sload\n      tag_91\n      swap1\n      tag_75\n      jump\t// in\n    tag_91:\n      dup1\n      iszero\n      tag_92\n      jumpi\n      dup1\n      0x1f\n      lt\n      tag_93\n      jumpi\n      0x0100\n      dup1\n      dup4\n      sload\n      div\n      mul\n      dup4\n      mstore\n      swap2\n      0x20\n      add\n      swap2\n      jump(tag_92)\n    tag_93:\n      dup3\n      add\n      swap2\n      swap1\n      0x00\n      mstore\n      keccak256(0x00, 0x20)\n      swap1\n    tag_94:\n      dup2\n      sload\n      dup2\n      mstore\n      swap1\n      0x01\n      add\n      swap1\n      0x20\n      add\n      dup1\n      dup4\n      gt\n      tag_94\n      jumpi\n      dup3\n      swap1\n      sub\n      0x1f\n      and\n      dup3\n      add\n      swap2\n    tag_92:\n      pop\n      pop\n      pop\n      pop\n      pop\n      swap1\n      dup1\n      0x02\n      add\n      sload\n      swap1\n      dup1\n      0x03\n      add\n      sload\n      swap1\n      dup1\n      0x04\n      add\n      0x00\n      swap1\n      sload\n      swap1\n      0x0100\n      exp\n      swap1\n      div\n      0xff\n      and\n      swap1\n      pop\n      dup6\n      jump\t// out\n        /* \"contracts/homework/05 UserManagementSystem.sol\":1732:1839  function isRegistered(address user) public view returns (bool) {... */\n    tag_40:\n        /* \"contracts/homework/05 UserManagementSystem.sol\":1789:1793  bool */\n      0x00\n        /* \"contracts/homework/05 UserManagementSystem.sol\":1813:1818  users */\n      0x00\n        /* \"contracts/homework/05 UserManagementSystem.sol\":1813:1824  users[user] */\n      0x00\n        /* \"contracts/homework/05 UserManagementSystem.sol\":1819:1823  user */\n      dup4\n        /* \"contracts/homework/05 UserManagementSystem.sol\":1813:1824  users[user] */\n      0xffffffffffffffffffffffffffffffffffffffff\n      and\n      0xffffffffffffffffffffffffffffffffffffffff\n      and\n      dup2\n      mstore\n      0x20\n      add\n      swap1\n      dup2\n      mstore\n      0x20\n      add\n      0x00\n      keccak256\n        /* \"contracts/homework/05 UserManagementSystem.sol\":1813:1831  users[user].exists */\n      0x04\n      add\n      0x00\n      swap1\n      sload\n      swap1\n      0x0100\n      exp\n      swap1\n      div\n      0xff\n      and\n        /* \"contracts/homework/05 UserManagementSystem.sol\":1806:1831  return users[user].exists */\n      swap1\n      pop\n        /* \"contracts/homework/05 UserManagementSystem.sol\":1732:1839  function isRegistered(address user) public view returns (bool) {... */\n      swap2\n      swap1\n      pop\n      jump\t// out\n        /* \"contracts/homework/05 UserManagementSystem.sol\":1117:1340  function updateProfile(string memory name, string memory email) public {... */\n    tag_45:\n        /* \"contracts/homework/05 UserManagementSystem.sol\":1207:1212  users */\n      0x00\n        /* \"contracts/homework/05 UserManagementSystem.sol\":1207:1224  users[msg.sender] */\n      0x00\n        /* \"contracts/homework/05 UserManagementSystem.sol\":1213:1223  msg.sender */\n      caller\n        /* \"contracts/homework/05 UserManagementSystem.sol\":1207:1224  users[msg.sender] */\n      0xffffffffffffffffffffffffffffffffffffffff\n      and\n      0xffffffffffffffffffffffffffffffffffffffff\n      and\n      dup2\n      mstore\n      0x20\n      add\n      swap1\n      dup2\n      mstore\n      0x20\n      add\n      0x00\n      keccak256\n        /* \"contracts/homework/05 UserManagementSystem.sol\":1207:1231  users[msg.sender].exists */\n      0x04\n      add\n      0x00\n      swap1\n      sload\n      swap1\n      0x0100\n      exp\n      swap1\n      div\n      0xff\n      and\n        /* \"contracts/homework/05 UserManagementSystem.sol\":1199:1250  require(users[msg.sender].exists, \"Not registered\") */\n      tag_97\n      jumpi\n      mload(0x40)\n      0x08c379a000000000000000000000000000000000000000000000000000000000\n      dup2\n      mstore\n      0x04\n      add\n      tag_98\n      swap1\n      tag_73\n      jump\t// in\n    tag_98:\n      mload(0x40)\n      dup1\n      swap2\n      sub\n      swap1\n      revert\n    tag_97:\n        /* \"contracts/homework/05 UserManagementSystem.sol\":1286:1290  name */\n      dup2\n        /* \"contracts/homework/05 UserManagementSystem.sol\":1261:1266  users */\n      0x00\n        /* \"contracts/homework/05 UserManagementSystem.sol\":1261:1278  users[msg.sender] */\n      0x00\n        /* \"contracts/homework/05 UserManagementSystem.sol\":1267:1277  msg.sender */\n      caller\n        /* \"contracts/homework/05 UserManagementSystem.sol\":1261:1278  users[msg.sender] */\n      0xffffffffffffffffffffffffffffffffffffffff\n      and\n      0xffffffffffffffffffffffffffffffffffffffff\n      and\n      dup2\n      mstore\n      0x20\n      add\n      swap1\n      dup2\n      mstore\n      0x20\n      add\n      0x00\n      keccak256\n        /* \"contracts/homework/05 UserManagementSystem.sol\":1261:1283  users[msg.sender].name */\n      0x00\n      add\n        /* \"contracts/homework/05 UserManagementSystem.sol\":1261:1290  users[msg.sender].name = name */\n      swap1\n      dup2\n      tag_99\n      swap2\n      swap1\n      tag_61\n      jump\t// in\n    tag_99:\n      pop\n        /* \"contracts/homework/05 UserManagementSystem.sol\":1327:1332  email */\n      dup1\n        /* \"contracts/homework/05 UserManagementSystem.sol\":1301:1306  users */\n      0x00\n        /* \"contracts/homework/05 UserManagementSystem.sol\":1301:1318  users[msg.sender] */\n      0x00\n        /* \"contracts/homework/05 UserManagementSystem.sol\":1307:1317  msg.sender */\n      caller\n        /* \"contracts/homework/05 UserManagementSystem.sol\":1301:1318  users[msg.sender] */\n      0xffffffffffffffffffffffffffffffffffffffff\n      and\n      0xffffffffffffffffffffffffffffffffffffffff\n      and\n      dup2\n      mstore\n      0x20\n      add\n      swap1\n      dup2\n      mstore\n      0x20\n      add\n      0x00\n      keccak256\n        /* \"contracts/homework/05 UserManagementSystem.sol\":1301:1324  users[msg.sender].email */\n      0x01\n      add\n        /* \"contracts/homework/05 UserManagementSystem.sol\":1301:1332  users[msg.sender].email = email */\n      swap1\n      dup2\n      tag_100\n      swap2\n      swap1\n      tag_61\n      jump\t// in\n    tag_100:\n      pop\n        /* \"contracts/homework/05 UserManagementSystem.sol\":1117:1340  function updateProfile(string memory name, string memory email) public {... */\n      pop\n      pop\n      jump\t// out\n        /* \"contracts/homework/05 UserManagementSystem.sol\":1584:1685  function getAllUsers() public view returns (address[] memory) {... */\n    tag_47:\n        /* \"contracts/homework/05 UserManagementSystem.sol\":1628:1644  address[] memory */\n      0x60\n        /* \"contracts/homework/05 UserManagementSystem.sol\":1664:1677  userAddresses */\n      0x01\n        /* \"contracts/homework/05 UserManagementSystem.sol\":1657:1677  return userAddresses */\n      dup1\n      sload\n      dup1\n      0x20\n      mul\n      0x20\n      add\n      mload(0x40)\n      swap1\n      dup2\n      add\n      0x40\n      mstore\n      dup1\n      swap3\n      swap2\n      swap1\n      dup2\n      dup2\n      mstore\n      0x20\n      add\n      dup3\n      dup1\n      sload\n      dup1\n      iszero\n      tag_102\n      jumpi\n      0x20\n      mul\n      dup3\n      add\n      swap2\n      swap1\n      0x00\n      mstore\n      keccak256(0x00, 0x20)\n      swap1\n    tag_103:\n      dup2\n      0x00\n      swap1\n      sload\n      swap1\n      0x0100\n      exp\n      swap1\n      div\n      0xffffffffffffffffffffffffffffffffffffffff\n      and\n      0xffffffffffffffffffffffffffffffffffffffff\n      and\n      dup2\n      mstore\n      0x20\n      add\n      swap1\n      0x01\n      add\n      swap1\n      dup1\n      dup4\n      gt\n      tag_103\n      jumpi\n    tag_102:\n      pop\n      pop\n      pop\n      pop\n      pop\n      swap1\n      pop\n        /* \"contracts/homework/05 UserManagementSystem.sol\":1584:1685  function getAllUsers() public view returns (address[] memory) {... */\n      swap1\n      jump\t// out\n        /* \"contracts/homework/05 UserManagementSystem.sol\":391:431  uint256 public constant MAX_USERS = 1000 */\n    tag_51:\n        /* \"contracts/homework/05 UserManagementSystem.sol\":427:431  1000 */\n      0x03e8\n        /* \"contracts/homework/05 UserManagementSystem.sol\":391:431  uint256 public constant MAX_USERS = 1000 */\n      dup2\n      jump\t// out\n    tag_69:\n      mload(0x40)\n      dup1\n      0xa0\n      add\n      0x40\n      mstore\n      dup1\n      0x60\n      dup2\n      mstore\n      0x20\n      add\n      0x60\n      dup2\n      mstore\n      0x20\n      add\n      0x00\n      dup2\n      mstore\n      0x20\n      add\n      0x00\n      dup2\n      mstore\n      0x20\n      add\n      iszero(iszero(0x00))\n      dup2\n      mstore\n      pop\n      swap1\n      jump\t// out\n        /* \"#utility.yul\":7:84   */\n    tag_104:\n        /* \"#utility.yul\":44:51   */\n      0x00\n        /* \"#utility.yul\":73:78   */\n      dup2\n        /* \"#utility.yul\":62:78   */\n      swap1\n      pop\n        /* \"#utility.yul\":7:84   */\n      swap2\n      swap1\n      pop\n      jump\t// out\n        /* \"#utility.yul\":90:208   */\n    tag_105:\n        /* \"#utility.yul\":177:201   */\n      tag_170\n        /* \"#utility.yul\":195:200   */\n      dup2\n        /* \"#utility.yul\":177:201   */\n      tag_104\n      jump\t// in\n    tag_170:\n        /* \"#utility.yul\":172:175   */\n      dup3\n        /* \"#utility.yul\":165:202   */\n      mstore\n        /* \"#utility.yul\":90:208   */\n      pop\n      pop\n      jump\t// out\n        /* \"#utility.yul\":214:436   */\n    tag_16:\n        /* \"#utility.yul\":307:311   */\n      0x00\n        /* \"#utility.yul\":345:347   */\n      0x20\n        /* \"#utility.yul\":334:343   */\n      dup3\n        /* \"#utility.yul\":330:348   */\n      add\n        /* \"#utility.yul\":322:348   */\n      swap1\n      pop\n        /* \"#utility.yul\":358:429   */\n      tag_172\n        /* \"#utility.yul\":426:427   */\n      0x00\n        /* \"#utility.yul\":415:424   */\n      dup4\n        /* \"#utility.yul\":411:428   */\n      add\n        /* \"#utility.yul\":402:408   */\n      dup5\n        /* \"#utility.yul\":358:429   */\n      tag_105\n      jump\t// in\n    tag_172:\n        /* \"#utility.yul\":214:436   */\n      swap3\n      swap2\n      pop\n      pop\n      jump\t// out\n        /* \"#utility.yul\":442:517   */\n    tag_106:\n        /* \"#utility.yul\":475:481   */\n      0x00\n        /* \"#utility.yul\":508:510   */\n      0x40\n        /* \"#utility.yul\":502:511   */\n      mload\n        /* \"#utility.yul\":492:511   */\n      swap1\n      pop\n        /* \"#utility.yul\":442:517   */\n      swap1\n      jump\t// out\n        /* \"#utility.yul\":523:640   */\n    tag_107:\n        /* \"#utility.yul\":632:633   */\n      0x00\n        /* \"#utility.yul\":629:630   */\n      0x00\n        /* \"#utility.yul\":622:634   */\n      revert\n        /* \"#utility.yul\":646:763   */\n    tag_108:\n        /* \"#utility.yul\":755:756   */\n      0x00\n        /* \"#utility.yul\":752:753   */\n      0x00\n        /* \"#utility.yul\":745:757   */\n      revert\n        /* \"#utility.yul\":769:886   */\n    tag_109:\n        /* \"#utility.yul\":878:879   */\n      0x00\n        /* \"#utility.yul\":875:876   */\n      0x00\n        /* \"#utility.yul\":868:880   */\n      revert\n        /* \"#utility.yul\":892:1009   */\n    tag_110:\n        /* \"#utility.yul\":1001:1002   */\n      0x00\n        /* \"#utility.yul\":998:999   */\n      0x00\n        /* \"#utility.yul\":991:1003   */\n      revert\n        /* \"#utility.yul\":1015:1117   */\n    tag_111:\n        /* \"#utility.yul\":1056:1062   */\n      0x00\n        /* \"#utility.yul\":1107:1109   */\n      0x1f\n        /* \"#utility.yul\":1103:1110   */\n      not\n        /* \"#utility.yul\":1098:1100   */\n      0x1f\n        /* \"#utility.yul\":1091:1096   */\n      dup4\n        /* \"#utility.yul\":1087:1101   */\n      add\n        /* \"#utility.yul\":1083:1111   */\n      and\n        /* \"#utility.yul\":1073:1111   */\n      swap1\n      pop\n        /* \"#utility.yul\":1015:1117   */\n      swap2\n      swap1\n      pop\n      jump\t// out\n        /* \"#utility.yul\":1123:1303   */\n    tag_112:\n        /* \"#utility.yul\":1171:1248   */\n      0x4e487b7100000000000000000000000000000000000000000000000000000000\n        /* \"#utility.yul\":1168:1169   */\n      0x00\n        /* \"#utility.yul\":1161:1249   */\n      mstore\n        /* \"#utility.yul\":1268:1272   */\n      0x41\n        /* \"#utility.yul\":1265:1266   */\n      0x04\n        /* \"#utility.yul\":1258:1273   */\n      mstore\n        /* \"#utility.yul\":1292:1296   */\n      0x24\n        /* \"#utility.yul\":1289:1290   */\n      0x00\n        /* \"#utility.yul\":1282:1297   */\n      revert\n        /* \"#utility.yul\":1309:1590   */\n    tag_113:\n        /* \"#utility.yul\":1392:1419   */\n      tag_181\n        /* \"#utility.yul\":1414:1418   */\n      dup3\n        /* \"#utility.yul\":1392:1419   */\n      tag_111\n      jump\t// in\n    tag_181:\n        /* \"#utility.yul\":1384:1390   */\n      dup2\n        /* \"#utility.yul\":1380:1420   */\n      add\n        /* \"#utility.yul\":1522:1528   */\n      dup2\n        /* \"#utility.yul\":1510:1520   */\n      dup2\n        /* \"#utility.yul\":1507:1529   */\n      lt\n        /* \"#utility.yul\":1486:1504   */\n      0xffffffffffffffff\n        /* \"#utility.yul\":1474:1484   */\n      dup3\n        /* \"#utility.yul\":1471:1505   */\n      gt\n        /* \"#utility.yul\":1468:1530   */\n      or\n        /* \"#utility.yul\":1465:1553   */\n      iszero\n      tag_182\n      jumpi\n        /* \"#utility.yul\":1533:1551   */\n      tag_183\n      tag_112\n      jump\t// in\n    tag_183:\n        /* \"#utility.yul\":1465:1553   */\n    tag_182:\n        /* \"#utility.yul\":1573:1583   */\n      dup1\n        /* \"#utility.yul\":1569:1571   */\n      0x40\n        /* \"#utility.yul\":1562:1584   */\n      mstore\n        /* \"#utility.yul\":1352:1590   */\n      pop\n        /* \"#utility.yul\":1309:1590   */\n      pop\n      pop\n      jump\t// out\n        /* \"#utility.yul\":1596:1725   */\n    tag_114:\n        /* \"#utility.yul\":1630:1636   */\n      0x00\n        /* \"#utility.yul\":1657:1677   */\n      tag_185\n      tag_106\n      jump\t// in\n    tag_185:\n        /* \"#utility.yul\":1647:1677   */\n      swap1\n      pop\n        /* \"#utility.yul\":1686:1719   */\n      tag_186\n        /* \"#utility.yul\":1714:1718   */\n      dup3\n        /* \"#utility.yul\":1706:1712   */\n      dup3\n        /* \"#utility.yul\":1686:1719   */\n      tag_113\n      jump\t// in\n    tag_186:\n        /* \"#utility.yul\":1596:1725   */\n      swap2\n      swap1\n      pop\n      jump\t// out\n        /* \"#utility.yul\":1731:2039   */\n    tag_115:\n        /* \"#utility.yul\":1793:1797   */\n      0x00\n        /* \"#utility.yul\":1883:1901   */\n      0xffffffffffffffff\n        /* \"#utility.yul\":1875:1881   */\n      dup3\n        /* \"#utility.yul\":1872:1902   */\n      gt\n        /* \"#utility.yul\":1869:1925   */\n      iszero\n      tag_188\n      jumpi\n        /* \"#utility.yul\":1905:1923   */\n      tag_189\n      tag_112\n      jump\t// in\n    tag_189:\n        /* \"#utility.yul\":1869:1925   */\n    tag_188:\n        /* \"#utility.yul\":1943:1972   */\n      tag_190\n        /* \"#utility.yul\":1965:1971   */\n      dup3\n        /* \"#utility.yul\":1943:1972   */\n      tag_111\n      jump\t// in\n    tag_190:\n        /* \"#utility.yul\":1935:1972   */\n      swap1\n      pop\n        /* \"#utility.yul\":2027:2031   */\n      0x20\n        /* \"#utility.yul\":2021:2025   */\n      dup2\n        /* \"#utility.yul\":2017:2032   */\n      add\n        /* \"#utility.yul\":2009:2032   */\n      swap1\n      pop\n        /* \"#utility.yul\":1731:2039   */\n      swap2\n      swap1\n      pop\n      jump\t// out\n        /* \"#utility.yul\":2045:2193   */\n    tag_116:\n        /* \"#utility.yul\":2143:2149   */\n      dup3\n        /* \"#utility.yul\":2138:2141   */\n      dup2\n        /* \"#utility.yul\":2133:2136   */\n      dup4\n        /* \"#utility.yul\":2120:2150   */\n      calldatacopy\n        /* \"#utility.yul\":2184:2185   */\n      0x00\n        /* \"#utility.yul\":2175:2181   */\n      dup4\n        /* \"#utility.yul\":2170:2173   */\n      dup4\n        /* \"#utility.yul\":2166:2182   */\n      add\n        /* \"#utility.yul\":2159:2186   */\n      mstore\n        /* \"#utility.yul\":2045:2193   */\n      pop\n      pop\n      pop\n      jump\t// out\n        /* \"#utility.yul\":2199:2624   */\n    tag_117:\n        /* \"#utility.yul\":2277:2282   */\n      0x00\n        /* \"#utility.yul\":2302:2368   */\n      tag_193\n        /* \"#utility.yul\":2318:2367   */\n      tag_194\n        /* \"#utility.yul\":2360:2366   */\n      dup5\n        /* \"#utility.yul\":2318:2367   */\n      tag_115\n      jump\t// in\n    tag_194:\n        /* \"#utility.yul\":2302:2368   */\n      tag_114\n      jump\t// in\n    tag_193:\n        /* \"#utility.yul\":2293:2368   */\n      swap1\n      pop\n        /* \"#utility.yul\":2391:2397   */\n      dup3\n        /* \"#utility.yul\":2384:2389   */\n      dup2\n        /* \"#utility.yul\":2377:2398   */\n      mstore\n        /* \"#utility.yul\":2429:2433   */\n      0x20\n        /* \"#utility.yul\":2422:2427   */\n      dup2\n        /* \"#utility.yul\":2418:2434   */\n      add\n        /* \"#utility.yul\":2467:2470   */\n      dup5\n        /* \"#utility.yul\":2458:2464   */\n      dup5\n        /* \"#utility.yul\":2453:2456   */\n      dup5\n        /* \"#utility.yul\":2449:2465   */\n      add\n        /* \"#utility.yul\":2446:2471   */\n      gt\n        /* \"#utility.yul\":2443:2555   */\n      iszero\n      tag_195\n      jumpi\n        /* \"#utility.yul\":2474:2553   */\n      tag_196\n      tag_110\n      jump\t// in\n    tag_196:\n        /* \"#utility.yul\":2443:2555   */\n    tag_195:\n        /* \"#utility.yul\":2564:2618   */\n      tag_197\n        /* \"#utility.yul\":2611:2617   */\n      dup5\n        /* \"#utility.yul\":2606:2609   */\n      dup3\n        /* \"#utility.yul\":2601:2604   */\n      dup6\n        /* \"#utility.yul\":2564:2618   */\n      tag_116\n      jump\t// in\n    tag_197:\n        /* \"#utility.yul\":2283:2624   */\n      pop\n        /* \"#utility.yul\":2199:2624   */\n      swap4\n      swap3\n      pop\n      pop\n      pop\n      jump\t// out\n        /* \"#utility.yul\":2644:2984   */\n    tag_118:\n        /* \"#utility.yul\":2700:2705   */\n      0x00\n        /* \"#utility.yul\":2749:2752   */\n      dup3\n        /* \"#utility.yul\":2742:2746   */\n      0x1f\n        /* \"#utility.yul\":2734:2740   */\n      dup4\n        /* \"#utility.yul\":2730:2747   */\n      add\n        /* \"#utility.yul\":2726:2753   */\n      slt\n        /* \"#utility.yul\":2716:2838   */\n      tag_199\n      jumpi\n        /* \"#utility.yul\":2757:2836   */\n      tag_200\n      tag_109\n      jump\t// in\n    tag_200:\n        /* \"#utility.yul\":2716:2838   */\n    tag_199:\n        /* \"#utility.yul\":2874:2880   */\n      dup2\n        /* \"#utility.yul\":2861:2881   */\n      calldataload\n        /* \"#utility.yul\":2899:2978   */\n      tag_201\n        /* \"#utility.yul\":2974:2977   */\n      dup5\n        /* \"#utility.yul\":2966:2972   */\n      dup3\n        /* \"#utility.yul\":2959:2963   */\n      0x20\n        /* \"#utility.yul\":2951:2957   */\n      dup7\n        /* \"#utility.yul\":2947:2964   */\n      add\n        /* \"#utility.yul\":2899:2978   */\n      tag_117\n      jump\t// in\n    tag_201:\n        /* \"#utility.yul\":2890:2978   */\n      swap2\n      pop\n        /* \"#utility.yul\":2706:2984   */\n      pop\n        /* \"#utility.yul\":2644:2984   */\n      swap3\n      swap2\n      pop\n      pop\n      jump\t// out\n        /* \"#utility.yul\":2990:3824   */\n    tag_19:\n        /* \"#utility.yul\":3078:3084   */\n      0x00\n        /* \"#utility.yul\":3086:3092   */\n      0x00\n        /* \"#utility.yul\":3135:3137   */\n      0x40\n        /* \"#utility.yul\":3123:3132   */\n      dup4\n        /* \"#utility.yul\":3114:3121   */\n      dup6\n        /* \"#utility.yul\":3110:3133   */\n      sub\n        /* \"#utility.yul\":3106:3138   */\n      slt\n        /* \"#utility.yul\":3103:3222   */\n      iszero\n      tag_203\n      jumpi\n        /* \"#utility.yul\":3141:3220   */\n      tag_204\n      tag_107\n      jump\t// in\n    tag_204:\n        /* \"#utility.yul\":3103:3222   */\n    tag_203:\n        /* \"#utility.yul\":3289:3290   */\n      0x00\n        /* \"#utility.yul\":3278:3287   */\n      dup4\n        /* \"#utility.yul\":3274:3291   */\n      add\n        /* \"#utility.yul\":3261:3292   */\n      calldataload\n        /* \"#utility.yul\":3319:3337   */\n      0xffffffffffffffff\n        /* \"#utility.yul\":3311:3317   */\n      dup2\n        /* \"#utility.yul\":3308:3338   */\n      gt\n        /* \"#utility.yul\":3305:3422   */\n      iszero\n      tag_205\n      jumpi\n        /* \"#utility.yul\":3341:3420   */\n      tag_206\n      tag_108\n      jump\t// in\n    tag_206:\n        /* \"#utility.yul\":3305:3422   */\n    tag_205:\n        /* \"#utility.yul\":3446:3509   */\n      tag_207\n        /* \"#utility.yul\":3501:3508   */\n      dup6\n        /* \"#utility.yul\":3492:3498   */\n      dup3\n        /* \"#utility.yul\":3481:3490   */\n      dup7\n        /* \"#utility.yul\":3477:3499   */\n      add\n        /* \"#utility.yul\":3446:3509   */\n      tag_118\n      jump\t// in\n    tag_207:\n        /* \"#utility.yul\":3436:3509   */\n      swap3\n      pop\n        /* \"#utility.yul\":3232:3519   */\n      pop\n        /* \"#utility.yul\":3586:3588   */\n      0x20\n        /* \"#utility.yul\":3575:3584   */\n      dup4\n        /* \"#utility.yul\":3571:3589   */\n      add\n        /* \"#utility.yul\":3558:3590   */\n      calldataload\n        /* \"#utility.yul\":3617:3635   */\n      0xffffffffffffffff\n        /* \"#utility.yul\":3609:3615   */\n      dup2\n        /* \"#utility.yul\":3606:3636   */\n      gt\n        /* \"#utility.yul\":3603:3720   */\n      iszero\n      tag_208\n      jumpi\n        /* \"#utility.yul\":3639:3718   */\n      tag_209\n      tag_108\n      jump\t// in\n    tag_209:\n        /* \"#utility.yul\":3603:3720   */\n    tag_208:\n        /* \"#utility.yul\":3744:3807   */\n      tag_210\n        /* \"#utility.yul\":3799:3806   */\n      dup6\n        /* \"#utility.yul\":3790:3796   */\n      dup3\n        /* \"#utility.yul\":3779:3788   */\n      dup7\n        /* \"#utility.yul\":3775:3797   */\n      add\n        /* \"#utility.yul\":3744:3807   */\n      tag_118\n      jump\t// in\n    tag_210:\n        /* \"#utility.yul\":3734:3807   */\n      swap2\n      pop\n        /* \"#utility.yul\":3529:3817   */\n      pop\n        /* \"#utility.yul\":2990:3824   */\n      swap3\n      pop\n      swap3\n      swap1\n      pop\n      jump\t// out\n        /* \"#utility.yul\":3830:3952   */\n    tag_119:\n        /* \"#utility.yul\":3903:3927   */\n      tag_212\n        /* \"#utility.yul\":3921:3926   */\n      dup2\n        /* \"#utility.yul\":3903:3927   */\n      tag_104\n      jump\t// in\n    tag_212:\n        /* \"#utility.yul\":3896:3901   */\n      dup2\n        /* \"#utility.yul\":3893:3928   */\n      eq\n        /* \"#utility.yul\":3883:3946   */\n      tag_213\n      jumpi\n        /* \"#utility.yul\":3942:3943   */\n      0x00\n        /* \"#utility.yul\":3939:3940   */\n      0x00\n        /* \"#utility.yul\":3932:3944   */\n      revert\n        /* \"#utility.yul\":3883:3946   */\n    tag_213:\n        /* \"#utility.yul\":3830:3952   */\n      pop\n      jump\t// out\n        /* \"#utility.yul\":3958:4097   */\n    tag_120:\n        /* \"#utility.yul\":4004:4009   */\n      0x00\n        /* \"#utility.yul\":4042:4048   */\n      dup2\n        /* \"#utility.yul\":4029:4049   */\n      calldataload\n        /* \"#utility.yul\":4020:4049   */\n      swap1\n      pop\n        /* \"#utility.yul\":4058:4091   */\n      tag_215\n        /* \"#utility.yul\":4085:4090   */\n      dup2\n        /* \"#utility.yul\":4058:4091   */\n      tag_119\n      jump\t// in\n    tag_215:\n        /* \"#utility.yul\":3958:4097   */\n      swap3\n      swap2\n      pop\n      pop\n      jump\t// out\n        /* \"#utility.yul\":4103:4432   */\n    tag_23:\n        /* \"#utility.yul\":4162:4168   */\n      0x00\n        /* \"#utility.yul\":4211:4213   */\n      0x20\n        /* \"#utility.yul\":4199:4208   */\n      dup3\n        /* \"#utility.yul\":4190:4197   */\n      dup5\n        /* \"#utility.yul\":4186:4209   */\n      sub\n        /* \"#utility.yul\":4182:4214   */\n      slt\n        /* \"#utility.yul\":4179:4298   */\n      iszero\n      tag_217\n      jumpi\n        /* \"#utility.yul\":4217:4296   */\n      tag_218\n      tag_107\n      jump\t// in\n    tag_218:\n        /* \"#utility.yul\":4179:4298   */\n    tag_217:\n        /* \"#utility.yul\":4337:4338   */\n      0x00\n        /* \"#utility.yul\":4362:4415   */\n      tag_219\n        /* \"#utility.yul\":4407:4414   */\n      dup5\n        /* \"#utility.yul\":4398:4404   */\n      dup3\n        /* \"#utility.yul\":4387:4396   */\n      dup6\n        /* \"#utility.yul\":4383:4405   */\n      add\n        /* \"#utility.yul\":4362:4415   */\n      tag_120\n      jump\t// in\n    tag_219:\n        /* \"#utility.yul\":4352:4415   */\n      swap2\n      pop\n        /* \"#utility.yul\":4308:4425   */\n      pop\n        /* \"#utility.yul\":4103:4432   */\n      swap3\n      swap2\n      pop\n      pop\n      jump\t// out\n        /* \"#utility.yul\":4438:4564   */\n    tag_121:\n        /* \"#utility.yul\":4475:4482   */\n      0x00\n        /* \"#utility.yul\":4515:4557   */\n      0xffffffffffffffffffffffffffffffffffffffff\n        /* \"#utility.yul\":4508:4513   */\n      dup3\n        /* \"#utility.yul\":4504:4558   */\n      and\n        /* \"#utility.yul\":4493:4558   */\n      swap1\n      pop\n        /* \"#utility.yul\":4438:4564   */\n      swap2\n      swap1\n      pop\n      jump\t// out\n        /* \"#utility.yul\":4570:4666   */\n    tag_122:\n        /* \"#utility.yul\":4607:4614   */\n      0x00\n        /* \"#utility.yul\":4636:4660   */\n      tag_222\n        /* \"#utility.yul\":4654:4659   */\n      dup3\n        /* \"#utility.yul\":4636:4660   */\n      tag_121\n      jump\t// in\n    tag_222:\n        /* \"#utility.yul\":4625:4660   */\n      swap1\n      pop\n        /* \"#utility.yul\":4570:4666   */\n      swap2\n      swap1\n      pop\n      jump\t// out\n        /* \"#utility.yul\":4672:4790   */\n    tag_123:\n        /* \"#utility.yul\":4759:4783   */\n      tag_224\n        /* \"#utility.yul\":4777:4782   */\n      dup2\n        /* \"#utility.yul\":4759:4783   */\n      tag_122\n      jump\t// in\n    tag_224:\n        /* \"#utility.yul\":4754:4757   */\n      dup3\n        /* \"#utility.yul\":4747:4784   */\n      mstore\n        /* \"#utility.yul\":4672:4790   */\n      pop\n      pop\n      jump\t// out\n        /* \"#utility.yul\":4796:5018   */\n    tag_26:\n        /* \"#utility.yul\":4889:4893   */\n      0x00\n        /* \"#utility.yul\":4927:4929   */\n      0x20\n        /* \"#utility.yul\":4916:4925   */\n      dup3\n        /* \"#utility.yul\":4912:4930   */\n      add\n        /* \"#utility.yul\":4904:4930   */\n      swap1\n      pop\n        /* \"#utility.yul\":4940:5011   */\n      tag_226\n        /* \"#utility.yul\":5008:5009   */\n      0x00\n        /* \"#utility.yul\":4997:5006   */\n      dup4\n        /* \"#utility.yul\":4993:5010   */\n      add\n        /* \"#utility.yul\":4984:4990   */\n      dup5\n        /* \"#utility.yul\":4940:5011   */\n      tag_123\n      jump\t// in\n    tag_226:\n        /* \"#utility.yul\":4796:5018   */\n      swap3\n      swap2\n      pop\n      pop\n      jump\t// out\n        /* \"#utility.yul\":5024:5146   */\n    tag_124:\n        /* \"#utility.yul\":5097:5121   */\n      tag_228\n        /* \"#utility.yul\":5115:5120   */\n      dup2\n        /* \"#utility.yul\":5097:5121   */\n      tag_122\n      jump\t// in\n    tag_228:\n        /* \"#utility.yul\":5090:5095   */\n      dup2\n        /* \"#utility.yul\":5087:5122   */\n      eq\n        /* \"#utility.yul\":5077:5140   */\n      tag_229\n      jumpi\n        /* \"#utility.yul\":5136:5137   */\n      0x00\n        /* \"#utility.yul\":5133:5134   */\n      0x00\n        /* \"#utility.yul\":5126:5138   */\n      revert\n        /* \"#utility.yul\":5077:5140   */\n    tag_229:\n        /* \"#utility.yul\":5024:5146   */\n      pop\n      jump\t// out\n        /* \"#utility.yul\":5152:5291   */\n    tag_125:\n        /* \"#utility.yul\":5198:5203   */\n      0x00\n        /* \"#utility.yul\":5236:5242   */\n      dup2\n        /* \"#utility.yul\":5223:5243   */\n      calldataload\n        /* \"#utility.yul\":5214:5243   */\n      swap1\n      pop\n        /* \"#utility.yul\":5252:5285   */\n      tag_231\n        /* \"#utility.yul\":5279:5284   */\n      dup2\n        /* \"#utility.yul\":5252:5285   */\n      tag_124\n      jump\t// in\n    tag_231:\n        /* \"#utility.yul\":5152:5291   */\n      swap3\n      swap2\n      pop\n      pop\n      jump\t// out\n        /* \"#utility.yul\":5297:5626   */\n    tag_29:\n        /* \"#utility.yul\":5356:5362   */\n      0x00\n        /* \"#utility.yul\":5405:5407   */\n      0x20\n        /* \"#utility.yul\":5393:5402   */\n      dup3\n        /* \"#utility.yul\":5384:5391   */\n      dup5\n        /* \"#utility.yul\":5380:5403   */\n      sub\n        /* \"#utility.yul\":5376:5408   */\n      slt\n        /* \"#utility.yul\":5373:5492   */\n      iszero\n      tag_233\n      jumpi\n        /* \"#utility.yul\":5411:5490   */\n      tag_234\n      tag_107\n      jump\t// in\n    tag_234:\n        /* \"#utility.yul\":5373:5492   */\n    tag_233:\n        /* \"#utility.yul\":5531:5532   */\n      0x00\n        /* \"#utility.yul\":5556:5609   */\n      tag_235\n        /* \"#utility.yul\":5601:5608   */\n      dup5\n        /* \"#utility.yul\":5592:5598   */\n      dup3\n        /* \"#utility.yul\":5581:5590   */\n      dup6\n        /* \"#utility.yul\":5577:5599   */\n      add\n        /* \"#utility.yul\":5556:5609   */\n      tag_125\n      jump\t// in\n    tag_235:\n        /* \"#utility.yul\":5546:5609   */\n      swap2\n      pop\n        /* \"#utility.yul\":5502:5619   */\n      pop\n        /* \"#utility.yul\":5297:5626   */\n      swap3\n      swap2\n      pop\n      pop\n      jump\t// out\n        /* \"#utility.yul\":5632:5731   */\n    tag_126:\n        /* \"#utility.yul\":5684:5690   */\n      0x00\n        /* \"#utility.yul\":5718:5723   */\n      dup2\n        /* \"#utility.yul\":5712:5724   */\n      mload\n        /* \"#utility.yul\":5702:5724   */\n      swap1\n      pop\n        /* \"#utility.yul\":5632:5731   */\n      swap2\n      swap1\n      pop\n      jump\t// out\n        /* \"#utility.yul\":5737:5896   */\n    tag_127:\n        /* \"#utility.yul\":5811:5822   */\n      0x00\n        /* \"#utility.yul\":5845:5851   */\n      dup3\n        /* \"#utility.yul\":5840:5843   */\n      dup3\n        /* \"#utility.yul\":5833:5852   */\n      mstore\n        /* \"#utility.yul\":5885:5889   */\n      0x20\n        /* \"#utility.yul\":5880:5883   */\n      dup3\n        /* \"#utility.yul\":5876:5890   */\n      add\n        /* \"#utility.yul\":5861:5890   */\n      swap1\n      pop\n        /* \"#utility.yul\":5737:5896   */\n      swap3\n      swap2\n      pop\n      pop\n      jump\t// out\n        /* \"#utility.yul\":5902:6041   */\n    tag_128:\n        /* \"#utility.yul\":5991:5997   */\n      dup3\n        /* \"#utility.yul\":5986:5989   */\n      dup2\n        /* \"#utility.yul\":5981:5984   */\n      dup4\n        /* \"#utility.yul\":5975:5998   */\n      mcopy\n        /* \"#utility.yul\":6032:6033   */\n      0x00\n        /* \"#utility.yul\":6023:6029   */\n      dup4\n        /* \"#utility.yul\":6018:6021   */\n      dup4\n        /* \"#utility.yul\":6014:6030   */\n      add\n        /* \"#utility.yul\":6007:6034   */\n      mstore\n        /* \"#utility.yul\":5902:6041   */\n      pop\n      pop\n      pop\n      jump\t// out\n        /* \"#utility.yul\":6047:6404   */\n    tag_129:\n        /* \"#utility.yul\":6125:6128   */\n      0x00\n        /* \"#utility.yul\":6153:6192   */\n      tag_240\n        /* \"#utility.yul\":6186:6191   */\n      dup3\n        /* \"#utility.yul\":6153:6192   */\n      tag_126\n      jump\t// in\n    tag_240:\n        /* \"#utility.yul\":6208:6269   */\n      tag_241\n        /* \"#utility.yul\":6262:6268   */\n      dup2\n        /* \"#utility.yul\":6257:6260   */\n      dup6\n        /* \"#utility.yul\":6208:6269   */\n      tag_127\n      jump\t// in\n    tag_241:\n        /* \"#utility.yul\":6201:6269   */\n      swap4\n      pop\n        /* \"#utility.yul\":6278:6343   */\n      tag_242\n        /* \"#utility.yul\":6336:6342   */\n      dup2\n        /* \"#utility.yul\":6331:6334   */\n      dup6\n        /* \"#utility.yul\":6324:6328   */\n      0x20\n        /* \"#utility.yul\":6317:6322   */\n      dup7\n        /* \"#utility.yul\":6313:6329   */\n      add\n        /* \"#utility.yul\":6278:6343   */\n      tag_128\n      jump\t// in\n    tag_242:\n        /* \"#utility.yul\":6368:6397   */\n      tag_243\n        /* \"#utility.yul\":6390:6396   */\n      dup2\n        /* \"#utility.yul\":6368:6397   */\n      tag_111\n      jump\t// in\n    tag_243:\n        /* \"#utility.yul\":6363:6366   */\n      dup5\n        /* \"#utility.yul\":6359:6398   */\n      add\n        /* \"#utility.yul\":6352:6398   */\n      swap2\n      pop\n        /* \"#utility.yul\":6129:6404   */\n      pop\n        /* \"#utility.yul\":6047:6404   */\n      swap3\n      swap2\n      pop\n      pop\n      jump\t// out\n        /* \"#utility.yul\":6410:6518   */\n    tag_130:\n        /* \"#utility.yul\":6487:6511   */\n      tag_245\n        /* \"#utility.yul\":6505:6510   */\n      dup2\n        /* \"#utility.yul\":6487:6511   */\n      tag_104\n      jump\t// in\n    tag_245:\n        /* \"#utility.yul\":6482:6485   */\n      dup3\n        /* \"#utility.yul\":6475:6512   */\n      mstore\n        /* \"#utility.yul\":6410:6518   */\n      pop\n      pop\n      jump\t// out\n        /* \"#utility.yul\":6524:6614   */\n    tag_131:\n        /* \"#utility.yul\":6558:6565   */\n      0x00\n        /* \"#utility.yul\":6601:6606   */\n      dup2\n        /* \"#utility.yul\":6594:6607   */\n      iszero\n        /* \"#utility.yul\":6587:6608   */\n      iszero\n        /* \"#utility.yul\":6576:6608   */\n      swap1\n      pop\n        /* \"#utility.yul\":6524:6614   */\n      swap2\n      swap1\n      pop\n      jump\t// out\n        /* \"#utility.yul\":6620:6719   */\n    tag_132:\n        /* \"#utility.yul\":6691:6712   */\n      tag_248\n        /* \"#utility.yul\":6706:6711   */\n      dup2\n        /* \"#utility.yul\":6691:6712   */\n      tag_131\n      jump\t// in\n    tag_248:\n        /* \"#utility.yul\":6686:6689   */\n      dup3\n        /* \"#utility.yul\":6679:6713   */\n      mstore\n        /* \"#utility.yul\":6620:6719   */\n      pop\n      pop\n      jump\t// out\n        /* \"#utility.yul\":6801:7998   */\n    tag_133:\n        /* \"#utility.yul\":6910:6913   */\n      0x00\n        /* \"#utility.yul\":6946:6950   */\n      0xa0\n        /* \"#utility.yul\":6941:6944   */\n      dup4\n        /* \"#utility.yul\":6937:6951   */\n      add\n        /* \"#utility.yul\":7033:7037   */\n      0x00\n        /* \"#utility.yul\":7026:7031   */\n      dup4\n        /* \"#utility.yul\":7022:7038   */\n      add\n        /* \"#utility.yul\":7016:7039   */\n      mload\n        /* \"#utility.yul\":7086:7089   */\n      dup5\n        /* \"#utility.yul\":7080:7084   */\n      dup3\n        /* \"#utility.yul\":7076:7090   */\n      sub\n        /* \"#utility.yul\":7069:7073   */\n      0x00\n        /* \"#utility.yul\":7064:7067   */\n      dup7\n        /* \"#utility.yul\":7060:7074   */\n      add\n        /* \"#utility.yul\":7053:7091   */\n      mstore\n        /* \"#utility.yul\":7112:7185   */\n      tag_250\n        /* \"#utility.yul\":7180:7184   */\n      dup3\n        /* \"#utility.yul\":7166:7178   */\n      dup3\n        /* \"#utility.yul\":7112:7185   */\n      tag_129\n      jump\t// in\n    tag_250:\n        /* \"#utility.yul\":7104:7185   */\n      swap2\n      pop\n        /* \"#utility.yul\":6961:7196   */\n      pop\n        /* \"#utility.yul\":7279:7283   */\n      0x20\n        /* \"#utility.yul\":7272:7277   */\n      dup4\n        /* \"#utility.yul\":7268:7284   */\n      add\n        /* \"#utility.yul\":7262:7285   */\n      mload\n        /* \"#utility.yul\":7332:7335   */\n      dup5\n        /* \"#utility.yul\":7326:7330   */\n      dup3\n        /* \"#utility.yul\":7322:7336   */\n      sub\n        /* \"#utility.yul\":7315:7319   */\n      0x20\n        /* \"#utility.yul\":7310:7313   */\n      dup7\n        /* \"#utility.yul\":7306:7320   */\n      add\n        /* \"#utility.yul\":7299:7337   */\n      mstore\n        /* \"#utility.yul\":7358:7431   */\n      tag_251\n        /* \"#utility.yul\":7426:7430   */\n      dup3\n        /* \"#utility.yul\":7412:7424   */\n      dup3\n        /* \"#utility.yul\":7358:7431   */\n      tag_129\n      jump\t// in\n    tag_251:\n        /* \"#utility.yul\":7350:7431   */\n      swap2\n      pop\n        /* \"#utility.yul\":7206:7442   */\n      pop\n        /* \"#utility.yul\":7527:7531   */\n      0x40\n        /* \"#utility.yul\":7520:7525   */\n      dup4\n        /* \"#utility.yul\":7516:7532   */\n      add\n        /* \"#utility.yul\":7510:7533   */\n      mload\n        /* \"#utility.yul\":7546:7609   */\n      tag_252\n        /* \"#utility.yul\":7603:7607   */\n      0x40\n        /* \"#utility.yul\":7598:7601   */\n      dup7\n        /* \"#utility.yul\":7594:7608   */\n      add\n        /* \"#utility.yul\":7580:7592   */\n      dup3\n        /* \"#utility.yul\":7546:7609   */\n      tag_130\n      jump\t// in\n    tag_252:\n        /* \"#utility.yul\":7452:7619   */\n      pop\n        /* \"#utility.yul\":7709:7713   */\n      0x60\n        /* \"#utility.yul\":7702:7707   */\n      dup4\n        /* \"#utility.yul\":7698:7714   */\n      add\n        /* \"#utility.yul\":7692:7715   */\n      mload\n        /* \"#utility.yul\":7728:7791   */\n      tag_253\n        /* \"#utility.yul\":7785:7789   */\n      0x60\n        /* \"#utility.yul\":7780:7783   */\n      dup7\n        /* \"#utility.yul\":7776:7790   */\n      add\n        /* \"#utility.yul\":7762:7774   */\n      dup3\n        /* \"#utility.yul\":7728:7791   */\n      tag_130\n      jump\t// in\n    tag_253:\n        /* \"#utility.yul\":7629:7801   */\n      pop\n        /* \"#utility.yul\":7885:7889   */\n      0x80\n        /* \"#utility.yul\":7878:7883   */\n      dup4\n        /* \"#utility.yul\":7874:7890   */\n      add\n        /* \"#utility.yul\":7868:7891   */\n      mload\n        /* \"#utility.yul\":7904:7961   */\n      tag_254\n        /* \"#utility.yul\":7955:7959   */\n      0x80\n        /* \"#utility.yul\":7950:7953   */\n      dup7\n        /* \"#utility.yul\":7946:7960   */\n      add\n        /* \"#utility.yul\":7932:7944   */\n      dup3\n        /* \"#utility.yul\":7904:7961   */\n      tag_132\n      jump\t// in\n    tag_254:\n        /* \"#utility.yul\":7811:7971   */\n      pop\n        /* \"#utility.yul\":7988:7992   */\n      dup1\n        /* \"#utility.yul\":7981:7992   */\n      swap2\n      pop\n        /* \"#utility.yul\":6915:7998   */\n      pop\n        /* \"#utility.yul\":6801:7998   */\n      swap3\n      swap2\n      pop\n      pop\n      jump\t// out\n        /* \"#utility.yul\":8004:8357   */\n    tag_32:\n        /* \"#utility.yul\":8137:8141   */\n      0x00\n        /* \"#utility.yul\":8175:8177   */\n      0x20\n        /* \"#utility.yul\":8164:8173   */\n      dup3\n        /* \"#utility.yul\":8160:8178   */\n      add\n        /* \"#utility.yul\":8152:8178   */\n      swap1\n      pop\n        /* \"#utility.yul\":8224:8233   */\n      dup2\n        /* \"#utility.yul\":8218:8222   */\n      dup2\n        /* \"#utility.yul\":8214:8234   */\n      sub\n        /* \"#utility.yul\":8210:8211   */\n      0x00\n        /* \"#utility.yul\":8199:8208   */\n      dup4\n        /* \"#utility.yul\":8195:8212   */\n      add\n        /* \"#utility.yul\":8188:8235   */\n      mstore\n        /* \"#utility.yul\":8252:8350   */\n      tag_256\n        /* \"#utility.yul\":8345:8349   */\n      dup2\n        /* \"#utility.yul\":8336:8342   */\n      dup5\n        /* \"#utility.yul\":8252:8350   */\n      tag_133\n      jump\t// in\n    tag_256:\n        /* \"#utility.yul\":8244:8350   */\n      swap1\n      pop\n        /* \"#utility.yul\":8004:8357   */\n      swap3\n      swap2\n      pop\n      pop\n      jump\t// out\n        /* \"#utility.yul\":8363:8532   */\n    tag_134:\n        /* \"#utility.yul\":8447:8458   */\n      0x00\n        /* \"#utility.yul\":8481:8487   */\n      dup3\n        /* \"#utility.yul\":8476:8479   */\n      dup3\n        /* \"#utility.yul\":8469:8488   */\n      mstore\n        /* \"#utility.yul\":8521:8525   */\n      0x20\n        /* \"#utility.yul\":8516:8519   */\n      dup3\n        /* \"#utility.yul\":8512:8526   */\n      add\n        /* \"#utility.yul\":8497:8526   */\n      swap1\n      pop\n        /* \"#utility.yul\":8363:8532   */\n      swap3\n      swap2\n      pop\n      pop\n      jump\t// out\n        /* \"#utility.yul\":8538:8915   */\n    tag_135:\n        /* \"#utility.yul\":8626:8629   */\n      0x00\n        /* \"#utility.yul\":8654:8693   */\n      tag_259\n        /* \"#utility.yul\":8687:8692   */\n      dup3\n        /* \"#utility.yul\":8654:8693   */\n      tag_126\n      jump\t// in\n    tag_259:\n        /* \"#utility.yul\":8709:8780   */\n      tag_260\n        /* \"#utility.yul\":8773:8779   */\n      dup2\n        /* \"#utility.yul\":8768:8771   */\n      dup6\n        /* \"#utility.yul\":8709:8780   */\n      tag_134\n      jump\t// in\n    tag_260:\n        /* \"#utility.yul\":8702:8780   */\n      swap4\n      pop\n        /* \"#utility.yul\":8789:8854   */\n      tag_261\n        /* \"#utility.yul\":8847:8853   */\n      dup2\n        /* \"#utility.yul\":8842:8845   */\n      dup6\n        /* \"#utility.yul\":8835:8839   */\n      0x20\n        /* \"#utility.yul\":8828:8833   */\n      dup7\n        /* \"#utility.yul\":8824:8840   */\n      add\n        /* \"#utility.yul\":8789:8854   */\n      tag_128\n      jump\t// in\n    tag_261:\n        /* \"#utility.yul\":8879:8908   */\n      tag_262\n        /* \"#utility.yul\":8901:8907   */\n      dup2\n        /* \"#utility.yul\":8879:8908   */\n      tag_111\n      jump\t// in\n    tag_262:\n        /* \"#utility.yul\":8874:8877   */\n      dup5\n        /* \"#utility.yul\":8870:8909   */\n      add\n        /* \"#utility.yul\":8863:8909   */\n      swap2\n      pop\n        /* \"#utility.yul\":8630:8915   */\n      pop\n        /* \"#utility.yul\":8538:8915   */\n      swap3\n      swap2\n      pop\n      pop\n      jump\t// out\n        /* \"#utility.yul\":8921:9030   */\n    tag_136:\n        /* \"#utility.yul\":9002:9023   */\n      tag_264\n        /* \"#utility.yul\":9017:9022   */\n      dup2\n        /* \"#utility.yul\":9002:9023   */\n      tag_131\n      jump\t// in\n    tag_264:\n        /* \"#utility.yul\":8997:9000   */\n      dup3\n        /* \"#utility.yul\":8990:9024   */\n      mstore\n        /* \"#utility.yul\":8921:9030   */\n      pop\n      pop\n      jump\t// out\n        /* \"#utility.yul\":9036:9870   */\n    tag_37:\n        /* \"#utility.yul\":9275:9279   */\n      0x00\n        /* \"#utility.yul\":9313:9316   */\n      0xa0\n        /* \"#utility.yul\":9302:9311   */\n      dup3\n        /* \"#utility.yul\":9298:9317   */\n      add\n        /* \"#utility.yul\":9290:9317   */\n      swap1\n      pop\n        /* \"#utility.yul\":9363:9372   */\n      dup2\n        /* \"#utility.yul\":9357:9361   */\n      dup2\n        /* \"#utility.yul\":9353:9373   */\n      sub\n        /* \"#utility.yul\":9349:9350   */\n      0x00\n        /* \"#utility.yul\":9338:9347   */\n      dup4\n        /* \"#utility.yul\":9334:9351   */\n      add\n        /* \"#utility.yul\":9327:9374   */\n      mstore\n        /* \"#utility.yul\":9391:9469   */\n      tag_266\n        /* \"#utility.yul\":9464:9468   */\n      dup2\n        /* \"#utility.yul\":9455:9461   */\n      dup9\n        /* \"#utility.yul\":9391:9469   */\n      tag_135\n      jump\t// in\n    tag_266:\n        /* \"#utility.yul\":9383:9469   */\n      swap1\n      pop\n        /* \"#utility.yul\":9516:9525   */\n      dup2\n        /* \"#utility.yul\":9510:9514   */\n      dup2\n        /* \"#utility.yul\":9506:9526   */\n      sub\n        /* \"#utility.yul\":9501:9503   */\n      0x20\n        /* \"#utility.yul\":9490:9499   */\n      dup4\n        /* \"#utility.yul\":9486:9504   */\n      add\n        /* \"#utility.yul\":9479:9527   */\n      mstore\n        /* \"#utility.yul\":9544:9622   */\n      tag_267\n        /* \"#utility.yul\":9617:9621   */\n      dup2\n        /* \"#utility.yul\":9608:9614   */\n      dup8\n        /* \"#utility.yul\":9544:9622   */\n      tag_135\n      jump\t// in\n    tag_267:\n        /* \"#utility.yul\":9536:9622   */\n      swap1\n      pop\n        /* \"#utility.yul\":9632:9704   */\n      tag_268\n        /* \"#utility.yul\":9700:9702   */\n      0x40\n        /* \"#utility.yul\":9689:9698   */\n      dup4\n        /* \"#utility.yul\":9685:9703   */\n      add\n        /* \"#utility.yul\":9676:9682   */\n      dup7\n        /* \"#utility.yul\":9632:9704   */\n      tag_105\n      jump\t// in\n    tag_268:\n        /* \"#utility.yul\":9714:9786   */\n      tag_269\n        /* \"#utility.yul\":9782:9784   */\n      0x60\n        /* \"#utility.yul\":9771:9780   */\n      dup4\n        /* \"#utility.yul\":9767:9785   */\n      add\n        /* \"#utility.yul\":9758:9764   */\n      dup6\n        /* \"#utility.yul\":9714:9786   */\n      tag_105\n      jump\t// in\n    tag_269:\n        /* \"#utility.yul\":9796:9863   */\n      tag_270\n        /* \"#utility.yul\":9858:9861   */\n      0x80\n        /* \"#utility.yul\":9847:9856   */\n      dup4\n        /* \"#utility.yul\":9843:9862   */\n      add\n        /* \"#utility.yul\":9834:9840   */\n      dup5\n        /* \"#utility.yul\":9796:9863   */\n      tag_136\n      jump\t// in\n    tag_270:\n        /* \"#utility.yul\":9036:9870   */\n      swap7\n      swap6\n      pop\n      pop\n      pop\n      pop\n      pop\n      pop\n      jump\t// out\n        /* \"#utility.yul\":9876:10086   */\n    tag_42:\n        /* \"#utility.yul\":9963:9967   */\n      0x00\n        /* \"#utility.yul\":10001:10003   */\n      0x20\n        /* \"#utility.yul\":9990:9999   */\n      dup3\n        /* \"#utility.yul\":9986:10004   */\n      add\n        /* \"#utility.yul\":9978:10004   */\n      swap1\n      pop\n        /* \"#utility.yul\":10014:10079   */\n      tag_272\n        /* \"#utility.yul\":10076:10077   */\n      0x00\n        /* \"#utility.yul\":10065:10074   */\n      dup4\n        /* \"#utility.yul\":10061:10078   */\n      add\n        /* \"#utility.yul\":10052:10058   */\n      dup5\n        /* \"#utility.yul\":10014:10079   */\n      tag_136\n      jump\t// in\n    tag_272:\n        /* \"#utility.yul\":9876:10086   */\n      swap3\n      swap2\n      pop\n      pop\n      jump\t// out\n        /* \"#utility.yul\":10092:10206   */\n    tag_137:\n        /* \"#utility.yul\":10159:10165   */\n      0x00\n        /* \"#utility.yul\":10193:10198   */\n      dup2\n        /* \"#utility.yul\":10187:10199   */\n      mload\n        /* \"#utility.yul\":10177:10199   */\n      swap1\n      pop\n        /* \"#utility.yul\":10092:10206   */\n      swap2\n      swap1\n      pop\n      jump\t// out\n        /* \"#utility.yul\":10212:10396   */\n    tag_138:\n        /* \"#utility.yul\":10311:10322   */\n      0x00\n        /* \"#utility.yul\":10345:10351   */\n      dup3\n        /* \"#utility.yul\":10340:10343   */\n      dup3\n        /* \"#utility.yul\":10333:10352   */\n      mstore\n        /* \"#utility.yul\":10385:10389   */\n      0x20\n        /* \"#utility.yul\":10380:10383   */\n      dup3\n        /* \"#utility.yul\":10376:10390   */\n      add\n        /* \"#utility.yul\":10361:10390   */\n      swap1\n      pop\n        /* \"#utility.yul\":10212:10396   */\n      swap3\n      swap2\n      pop\n      pop\n      jump\t// out\n        /* \"#utility.yul\":10402:10534   */\n    tag_139:\n        /* \"#utility.yul\":10469:10473   */\n      0x00\n        /* \"#utility.yul\":10492:10495   */\n      dup2\n        /* \"#utility.yul\":10484:10495   */\n      swap1\n      pop\n        /* \"#utility.yul\":10522:10526   */\n      0x20\n        /* \"#utility.yul\":10517:10520   */\n      dup3\n        /* \"#utility.yul\":10513:10527   */\n      add\n        /* \"#utility.yul\":10505:10527   */\n      swap1\n      pop\n        /* \"#utility.yul\":10402:10534   */\n      swap2\n      swap1\n      pop\n      jump\t// out\n        /* \"#utility.yul\":10540:10648   */\n    tag_140:\n        /* \"#utility.yul\":10617:10641   */\n      tag_277\n        /* \"#utility.yul\":10635:10640   */\n      dup2\n        /* \"#utility.yul\":10617:10641   */\n      tag_122\n      jump\t// in\n    tag_277:\n        /* \"#utility.yul\":10612:10615   */\n      dup3\n        /* \"#utility.yul\":10605:10642   */\n      mstore\n        /* \"#utility.yul\":10540:10648   */\n      pop\n      pop\n      jump\t// out\n        /* \"#utility.yul\":10654:10833   */\n    tag_141:\n        /* \"#utility.yul\":10723:10733   */\n      0x00\n        /* \"#utility.yul\":10744:10790   */\n      tag_279\n        /* \"#utility.yul\":10786:10789   */\n      dup4\n        /* \"#utility.yul\":10778:10784   */\n      dup4\n        /* \"#utility.yul\":10744:10790   */\n      tag_140\n      jump\t// in\n    tag_279:\n        /* \"#utility.yul\":10822:10826   */\n      0x20\n        /* \"#utility.yul\":10817:10820   */\n      dup4\n        /* \"#utility.yul\":10813:10827   */\n      add\n        /* \"#utility.yul\":10799:10827   */\n      swap1\n      pop\n        /* \"#utility.yul\":10654:10833   */\n      swap3\n      swap2\n      pop\n      pop\n      jump\t// out\n        /* \"#utility.yul\":10839:10952   */\n    tag_142:\n        /* \"#utility.yul\":10909:10913   */\n      0x00\n        /* \"#utility.yul\":10941:10945   */\n      0x20\n        /* \"#utility.yul\":10936:10939   */\n      dup3\n        /* \"#utility.yul\":10932:10946   */\n      add\n        /* \"#utility.yul\":10924:10946   */\n      swap1\n      pop\n        /* \"#utility.yul\":10839:10952   */\n      swap2\n      swap1\n      pop\n      jump\t// out\n        /* \"#utility.yul\":10988:11720   */\n    tag_143:\n        /* \"#utility.yul\":11107:11110   */\n      0x00\n        /* \"#utility.yul\":11136:11190   */\n      tag_282\n        /* \"#utility.yul\":11184:11189   */\n      dup3\n        /* \"#utility.yul\":11136:11190   */\n      tag_137\n      jump\t// in\n    tag_282:\n        /* \"#utility.yul\":11206:11292   */\n      tag_283\n        /* \"#utility.yul\":11285:11291   */\n      dup2\n        /* \"#utility.yul\":11280:11283   */\n      dup6\n        /* \"#utility.yul\":11206:11292   */\n      tag_138\n      jump\t// in\n    tag_283:\n        /* \"#utility.yul\":11199:11292   */\n      swap4\n      pop\n        /* \"#utility.yul\":11316:11372   */\n      tag_284\n        /* \"#utility.yul\":11366:11371   */\n      dup4\n        /* \"#utility.yul\":11316:11372   */\n      tag_139\n      jump\t// in\n    tag_284:\n        /* \"#utility.yul\":11395:11402   */\n      dup1\n        /* \"#utility.yul\":11426:11427   */\n      0x00\n        /* \"#utility.yul\":11411:11695   */\n    tag_285:\n        /* \"#utility.yul\":11436:11442   */\n      dup4\n        /* \"#utility.yul\":11433:11434   */\n      dup2\n        /* \"#utility.yul\":11430:11443   */\n      lt\n        /* \"#utility.yul\":11411:11695   */\n      iszero\n      tag_287\n      jumpi\n        /* \"#utility.yul\":11512:11518   */\n      dup2\n        /* \"#utility.yul\":11506:11519   */\n      mload\n        /* \"#utility.yul\":11539:11602   */\n      tag_288\n        /* \"#utility.yul\":11598:11601   */\n      dup9\n        /* \"#utility.yul\":11583:11596   */\n      dup3\n        /* \"#utility.yul\":11539:11602   */\n      tag_141\n      jump\t// in\n    tag_288:\n        /* \"#utility.yul\":11532:11602   */\n      swap8\n      pop\n        /* \"#utility.yul\":11625:11685   */\n      tag_289\n        /* \"#utility.yul\":11678:11684   */\n      dup4\n        /* \"#utility.yul\":11625:11685   */\n      tag_142\n      jump\t// in\n    tag_289:\n        /* \"#utility.yul\":11615:11685   */\n      swap3\n      pop\n        /* \"#utility.yul\":11471:11695   */\n      pop\n        /* \"#utility.yul\":11458:11459   */\n      0x01\n        /* \"#utility.yul\":11455:11456   */\n      dup2\n        /* \"#utility.yul\":11451:11460   */\n      add\n        /* \"#utility.yul\":11446:11460   */\n      swap1\n      pop\n        /* \"#utility.yul\":11411:11695   */\n      jump(tag_285)\n    tag_287:\n        /* \"#utility.yul\":11415:11429   */\n      pop\n        /* \"#utility.yul\":11711:11714   */\n      dup6\n        /* \"#utility.yul\":11704:11714   */\n      swap4\n      pop\n        /* \"#utility.yul\":11112:11720   */\n      pop\n      pop\n      pop\n        /* \"#utility.yul\":10988:11720   */\n      swap3\n      swap2\n      pop\n      pop\n      jump\t// out\n        /* \"#utility.yul\":11726:12099   */\n    tag_49:\n        /* \"#utility.yul\":11869:11873   */\n      0x00\n        /* \"#utility.yul\":11907:11909   */\n      0x20\n        /* \"#utility.yul\":11896:11905   */\n      dup3\n        /* \"#utility.yul\":11892:11910   */\n      add\n        /* \"#utility.yul\":11884:11910   */\n      swap1\n      pop\n        /* \"#utility.yul\":11956:11965   */\n      dup2\n        /* \"#utility.yul\":11950:11954   */\n      dup2\n        /* \"#utility.yul\":11946:11966   */\n      sub\n        /* \"#utility.yul\":11942:11943   */\n      0x00\n        /* \"#utility.yul\":11931:11940   */\n      dup4\n        /* \"#utility.yul\":11927:11944   */\n      add\n        /* \"#utility.yul\":11920:11967   */\n      mstore\n        /* \"#utility.yul\":11984:12092   */\n      tag_291\n        /* \"#utility.yul\":12087:12091   */\n      dup2\n        /* \"#utility.yul\":12078:12084   */\n      dup5\n        /* \"#utility.yul\":11984:12092   */\n      tag_143\n      jump\t// in\n    tag_291:\n        /* \"#utility.yul\":11976:12092   */\n      swap1\n      pop\n        /* \"#utility.yul\":11726:12099   */\n      swap3\n      swap2\n      pop\n      pop\n      jump\t// out\n        /* \"#utility.yul\":12105:12271   */\n    tag_144:\n        /* \"#utility.yul\":12245:12263   */\n      0x616c726561647920726967657374656400000000000000000000000000000000\n        /* \"#utility.yul\":12241:12242   */\n      0x00\n        /* \"#utility.yul\":12233:12239   */\n      dup3\n        /* \"#utility.yul\":12229:12243   */\n      add\n        /* \"#utility.yul\":12222:12264   */\n      mstore\n        /* \"#utility.yul\":12105:12271   */\n      pop\n      jump\t// out\n        /* \"#utility.yul\":12277:12643   */\n    tag_145:\n        /* \"#utility.yul\":12419:12422   */\n      0x00\n        /* \"#utility.yul\":12440:12507   */\n      tag_294\n        /* \"#utility.yul\":12504:12506   */\n      0x10\n        /* \"#utility.yul\":12499:12502   */\n      dup4\n        /* \"#utility.yul\":12440:12507   */\n      tag_134\n      jump\t// in\n    tag_294:\n        /* \"#utility.yul\":12433:12507   */\n      swap2\n      pop\n        /* \"#utility.yul\":12516:12609   */\n      tag_295\n        /* \"#utility.yul\":12605:12608   */\n      dup3\n        /* \"#utility.yul\":12516:12609   */\n      tag_144\n      jump\t// in\n    tag_295:\n        /* \"#utility.yul\":12634:12636   */\n      0x20\n        /* \"#utility.yul\":12629:12632   */\n      dup3\n        /* \"#utility.yul\":12625:12637   */\n      add\n        /* \"#utility.yul\":12618:12637   */\n      swap1\n      pop\n        /* \"#utility.yul\":12277:12643   */\n      swap2\n      swap1\n      pop\n      jump\t// out\n        /* \"#utility.yul\":12649:13068   */\n    tag_56:\n        /* \"#utility.yul\":12815:12819   */\n      0x00\n        /* \"#utility.yul\":12853:12855   */\n      0x20\n        /* \"#utility.yul\":12842:12851   */\n      dup3\n        /* \"#utility.yul\":12838:12856   */\n      add\n        /* \"#utility.yul\":12830:12856   */\n      swap1\n      pop\n        /* \"#utility.yul\":12902:12911   */\n      dup2\n        /* \"#utility.yul\":12896:12900   */\n      dup2\n        /* \"#utility.yul\":12892:12912   */\n      sub\n        /* \"#utility.yul\":12888:12889   */\n      0x00\n        /* \"#utility.yul\":12877:12886   */\n      dup4\n        /* \"#utility.yul\":12873:12890   */\n      add\n        /* \"#utility.yul\":12866:12913   */\n      mstore\n        /* \"#utility.yul\":12930:13061   */\n      tag_297\n        /* \"#utility.yul\":13056:13060   */\n      dup2\n        /* \"#utility.yul\":12930:13061   */\n      tag_145\n      jump\t// in\n    tag_297:\n        /* \"#utility.yul\":12922:13061   */\n      swap1\n      pop\n        /* \"#utility.yul\":12649:13068   */\n      swap2\n      swap1\n      pop\n      jump\t// out\n        /* \"#utility.yul\":13074:13237   */\n    tag_146:\n        /* \"#utility.yul\":13214:13229   */\n      0x75736572732069732066756c6c00000000000000000000000000000000000000\n        /* \"#utility.yul\":13210:13211   */\n      0x00\n        /* \"#utility.yul\":13202:13208   */\n      dup3\n        /* \"#utility.yul\":13198:13212   */\n      add\n        /* \"#utility.yul\":13191:13230   */\n      mstore\n        /* \"#utility.yul\":13074:13237   */\n      pop\n      jump\t// out\n        /* \"#utility.yul\":13243:13609   */\n    tag_147:\n        /* \"#utility.yul\":13385:13388   */\n      0x00\n        /* \"#utility.yul\":13406:13473   */\n      tag_300\n        /* \"#utility.yul\":13470:13472   */\n      0x0d\n        /* \"#utility.yul\":13465:13468   */\n      dup4\n        /* \"#utility.yul\":13406:13473   */\n      tag_134\n      jump\t// in\n    tag_300:\n        /* \"#utility.yul\":13399:13473   */\n      swap2\n      pop\n        /* \"#utility.yul\":13482:13575   */\n      tag_301\n        /* \"#utility.yul\":13571:13574   */\n      dup3\n        /* \"#utility.yul\":13482:13575   */\n      tag_146\n      jump\t// in\n    tag_301:\n        /* \"#utility.yul\":13600:13602   */\n      0x20\n        /* \"#utility.yul\":13595:13598   */\n      dup3\n        /* \"#utility.yul\":13591:13603   */\n      add\n        /* \"#utility.yul\":13584:13603   */\n      swap1\n      pop\n        /* \"#utility.yul\":13243:13609   */\n      swap2\n      swap1\n      pop\n      jump\t// out\n        /* \"#utility.yul\":13615:14034   */\n    tag_59:\n        /* \"#utility.yul\":13781:13785   */\n      0x00\n        /* \"#utility.yul\":13819:13821   */\n      0x20\n        /* \"#utility.yul\":13808:13817   */\n      dup3\n        /* \"#utility.yul\":13804:13822   */\n      add\n        /* \"#utility.yul\":13796:13822   */\n      swap1\n      pop\n        /* \"#utility.yul\":13868:13877   */\n      dup2\n        /* \"#utility.yul\":13862:13866   */\n      dup2\n        /* \"#utility.yul\":13858:13878   */\n      sub\n        /* \"#utility.yul\":13854:13855   */\n      0x00\n        /* \"#utility.yul\":13843:13852   */\n      dup4\n        /* \"#utility.yul\":13839:13856   */\n      add\n        /* \"#utility.yul\":13832:13879   */\n      mstore\n        /* \"#utility.yul\":13896:14027   */\n      tag_303\n        /* \"#utility.yul\":14022:14026   */\n      dup2\n        /* \"#utility.yul\":13896:14027   */\n      tag_147\n      jump\t// in\n    tag_303:\n        /* \"#utility.yul\":13888:14027   */\n      swap1\n      pop\n        /* \"#utility.yul\":13615:14034   */\n      swap2\n      swap1\n      pop\n      jump\t// out\n        /* \"#utility.yul\":14040:14220   */\n    tag_148:\n        /* \"#utility.yul\":14088:14165   */\n      0x4e487b7100000000000000000000000000000000000000000000000000000000\n        /* \"#utility.yul\":14085:14086   */\n      0x00\n        /* \"#utility.yul\":14078:14166   */\n      mstore\n        /* \"#utility.yul\":14185:14189   */\n      0x22\n        /* \"#utility.yul\":14182:14183   */\n      0x04\n        /* \"#utility.yul\":14175:14190   */\n      mstore\n        /* \"#utility.yul\":14209:14213   */\n      0x24\n        /* \"#utility.yul\":14206:14207   */\n      0x00\n        /* \"#utility.yul\":14199:14214   */\n      revert\n        /* \"#utility.yul\":14226:14546   */\n    tag_75:\n        /* \"#utility.yul\":14270:14276   */\n      0x00\n        /* \"#utility.yul\":14307:14308   */\n      0x02\n        /* \"#utility.yul\":14301:14305   */\n      dup3\n        /* \"#utility.yul\":14297:14309   */\n      div\n        /* \"#utility.yul\":14287:14309   */\n      swap1\n      pop\n        /* \"#utility.yul\":14354:14355   */\n      0x01\n        /* \"#utility.yul\":14348:14352   */\n      dup3\n        /* \"#utility.yul\":14344:14356   */\n      and\n        /* \"#utility.yul\":14375:14393   */\n      dup1\n        /* \"#utility.yul\":14365:14446   */\n      tag_306\n      jumpi\n        /* \"#utility.yul\":14431:14435   */\n      0x7f\n        /* \"#utility.yul\":14423:14429   */\n      dup3\n        /* \"#utility.yul\":14419:14436   */\n      and\n        /* \"#utility.yul\":14409:14436   */\n      swap2\n      pop\n        /* \"#utility.yul\":14365:14446   */\n    tag_306:\n        /* \"#utility.yul\":14493:14495   */\n      0x20\n        /* \"#utility.yul\":14485:14491   */\n      dup3\n        /* \"#utility.yul\":14482:14496   */\n      lt\n        /* \"#utility.yul\":14462:14480   */\n      dup2\n        /* \"#utility.yul\":14459:14497   */\n      sub\n        /* \"#utility.yul\":14456:14540   */\n      tag_307\n      jumpi\n        /* \"#utility.yul\":14512:14530   */\n      tag_308\n      tag_148\n      jump\t// in\n    tag_308:\n        /* \"#utility.yul\":14456:14540   */\n    tag_307:\n        /* \"#utility.yul\":14277:14546   */\n      pop\n        /* \"#utility.yul\":14226:14546   */\n      swap2\n      swap1\n      pop\n      jump\t// out\n        /* \"#utility.yul\":14552:14693   */\n    tag_149:\n        /* \"#utility.yul\":14601:14605   */\n      0x00\n        /* \"#utility.yul\":14624:14627   */\n      dup2\n        /* \"#utility.yul\":14616:14627   */\n      swap1\n      pop\n        /* \"#utility.yul\":14647:14650   */\n      dup2\n        /* \"#utility.yul\":14644:14645   */\n      0x00\n        /* \"#utility.yul\":14637:14651   */\n      mstore\n        /* \"#utility.yul\":14681:14685   */\n      0x20\n        /* \"#utility.yul\":14678:14679   */\n      0x00\n        /* \"#utility.yul\":14668:14686   */\n      keccak256\n        /* \"#utility.yul\":14660:14686   */\n      swap1\n      pop\n        /* \"#utility.yul\":14552:14693   */\n      swap2\n      swap1\n      pop\n      jump\t// out\n        /* \"#utility.yul\":14699:14792   */\n    tag_150:\n        /* \"#utility.yul\":14736:14742   */\n      0x00\n        /* \"#utility.yul\":14783:14785   */\n      0x20\n        /* \"#utility.yul\":14778:14780   */\n      0x1f\n        /* \"#utility.yul\":14771:14776   */\n      dup4\n        /* \"#utility.yul\":14767:14781   */\n      add\n        /* \"#utility.yul\":14763:14786   */\n      div\n        /* \"#utility.yul\":14753:14786   */\n      swap1\n      pop\n        /* \"#utility.yul\":14699:14792   */\n      swap2\n      swap1\n      pop\n      jump\t// out\n        /* \"#utility.yul\":14798:14905   */\n    tag_151:\n        /* \"#utility.yul\":14842:14850   */\n      0x00\n        /* \"#utility.yul\":14892:14897   */\n      dup3\n        /* \"#utility.yul\":14886:14890   */\n      dup3\n        /* \"#utility.yul\":14882:14898   */\n      shl\n        /* \"#utility.yul\":14861:14898   */\n      swap1\n      pop\n        /* \"#utility.yul\":14798:14905   */\n      swap3\n      swap2\n      pop\n      pop\n      jump\t// out\n        /* \"#utility.yul\":14911:15304   */\n    tag_152:\n        /* \"#utility.yul\":14980:14986   */\n      0x00\n        /* \"#utility.yul\":15030:15031   */\n      0x08\n        /* \"#utility.yul\":15018:15028   */\n      dup4\n        /* \"#utility.yul\":15014:15032   */\n      mul\n        /* \"#utility.yul\":15053:15150   */\n      tag_313\n        /* \"#utility.yul\":15083:15149   */\n      0xffffffffffffffffffffffffffffffffffffffffffffffffffffffffffffffff\n        /* \"#utility.yul\":15072:15081   */\n      dup3\n        /* \"#utility.yul\":15053:15150   */\n      tag_151\n      jump\t// in\n    tag_313:\n        /* \"#utility.yul\":15171:15210   */\n      tag_314\n        /* \"#utility.yul\":15201:15209   */\n      dup7\n        /* \"#utility.yul\":15190:15199   */\n      dup4\n        /* \"#utility.yul\":15171:15210   */\n      tag_151\n      jump\t// in\n    tag_314:\n        /* \"#utility.yul\":15159:15210   */\n      swap6\n      pop\n        /* \"#utility.yul\":15243:15247   */\n      dup1\n        /* \"#utility.yul\":15239:15248   */\n      not\n        /* \"#utility.yul\":15232:15237   */\n      dup5\n        /* \"#utility.yul\":15228:15249   */\n      and\n        /* \"#utility.yul\":15219:15249   */\n      swap4\n      pop\n        /* \"#utility.yul\":15292:15296   */\n      dup1\n        /* \"#utility.yul\":15282:15290   */\n      dup7\n        /* \"#utility.yul\":15278:15297   */\n      and\n        /* \"#utility.yul\":15271:15276   */\n      dup5\n        /* \"#utility.yul\":15268:15298   */\n      or\n        /* \"#utility.yul\":15258:15298   */\n      swap3\n      pop\n        /* \"#utility.yul\":14987:15304   */\n      pop\n      pop\n        /* \"#utility.yul\":14911:15304   */\n      swap4\n      swap3\n      pop\n      pop\n      pop\n      jump\t// out\n        /* \"#utility.yul\":15310:15370   */\n    tag_153:\n        /* \"#utility.yul\":15338:15341   */\n      0x00\n        /* \"#utility.yul\":15359:15364   */\n      dup2\n        /* \"#utility.yul\":15352:15364   */\n      swap1\n      pop\n        /* \"#utility.yul\":15310:15370   */\n      swap2\n      swap1\n      pop\n      jump\t// out\n        /* \"#utility.yul\":15376:15518   */\n    tag_154:\n        /* \"#utility.yul\":15426:15435   */\n      0x00\n        /* \"#utility.yul\":15459:15512   */\n      tag_317\n        /* \"#utility.yul\":15477:15511   */\n      tag_318\n        /* \"#utility.yul\":15486:15510   */\n      tag_319\n        /* \"#utility.yul\":15504:15509   */\n      dup5\n        /* \"#utility.yul\":15486:15510   */\n      tag_104\n      jump\t// in\n    tag_319:\n        /* \"#utility.yul\":15477:15511   */\n      tag_153\n      jump\t// in\n    tag_318:\n        /* \"#utility.yul\":15459:15512   */\n      tag_104\n      jump\t// in\n    tag_317:\n        /* \"#utility.yul\":15446:15512   */\n      swap1\n      pop\n        /* \"#utility.yul\":15376:15518   */\n      swap2\n      swap1\n      pop\n      jump\t// out\n        /* \"#utility.yul\":15524:15599   */\n    tag_155:\n        /* \"#utility.yul\":15567:15570   */\n      0x00\n        /* \"#utility.yul\":15588:15593   */\n      dup2\n        /* \"#utility.yul\":15581:15593   */\n      swap1\n      pop\n        /* \"#utility.yul\":15524:15599   */\n      swap2\n      swap1\n      pop\n      jump\t// out\n        /* \"#utility.yul\":15605:15874   */\n    tag_156:\n        /* \"#utility.yul\":15715:15754   */\n      tag_322\n        /* \"#utility.yul\":15746:15753   */\n      dup4\n        /* \"#utility.yul\":15715:15754   */\n      tag_154\n      jump\t// in\n    tag_322:\n        /* \"#utility.yul\":15776:15867   */\n      tag_323\n        /* \"#utility.yul\":15825:15866   */\n      tag_324\n        /* \"#utility.yul\":15849:15865   */\n      dup3\n        /* \"#utility.yul\":15825:15866   */\n      tag_155\n      jump\t// in\n    tag_324:\n        /* \"#utility.yul\":15817:15823   */\n      dup5\n        /* \"#utility.yul\":15810:15814   */\n      dup5\n        /* \"#utility.yul\":15804:15815   */\n      sload\n        /* \"#utility.yul\":15776:15867   */\n      tag_152\n      jump\t// in\n    tag_323:\n        /* \"#utility.yul\":15770:15774   */\n      dup3\n        /* \"#utility.yul\":15763:15868   */\n      sstore\n        /* \"#utility.yul\":15681:15874   */\n      pop\n        /* \"#utility.yul\":15605:15874   */\n      pop\n      pop\n      pop\n      jump\t// out\n        /* \"#utility.yul\":15880:15953   */\n    tag_157:\n        /* \"#utility.yul\":15925:15928   */\n      0x00\n        /* \"#utility.yul\":15946:15947   */\n      0x00\n        /* \"#utility.yul\":15939:15947   */\n      swap1\n      pop\n        /* \"#utility.yul\":15880:15953   */\n      swap1\n      jump\t// out\n        /* \"#utility.yul\":15959:16148   */\n    tag_158:\n        /* \"#utility.yul\":16036:16068   */\n      tag_327\n      tag_157\n      jump\t// in\n    tag_327:\n        /* \"#utility.yul\":16077:16142   */\n      tag_328\n        /* \"#utility.yul\":16135:16141   */\n      dup2\n        /* \"#utility.yul\":16127:16133   */\n      dup5\n        /* \"#utility.yul\":16121:16125   */\n      dup5\n        /* \"#utility.yul\":16077:16142   */\n      tag_156\n      jump\t// in\n    tag_328:\n        /* \"#utility.yul\":16012:16148   */\n      pop\n        /* \"#utility.yul\":15959:16148   */\n      pop\n      pop\n      jump\t// out\n        /* \"#utility.yul\":16154:16340   */\n    tag_159:\n        /* \"#utility.yul\":16214:16334   */\n    tag_330:\n        /* \"#utility.yul\":16231:16234   */\n      dup2\n        /* \"#utility.yul\":16224:16229   */\n      dup2\n        /* \"#utility.yul\":16221:16235   */\n      lt\n        /* \"#utility.yul\":16214:16334   */\n      iszero\n      tag_332\n      jumpi\n        /* \"#utility.yul\":16285:16324   */\n      tag_333\n        /* \"#utility.yul\":16322:16323   */\n      0x00\n        /* \"#utility.yul\":16315:16320   */\n      dup3\n        /* \"#utility.yul\":16285:16324   */\n      tag_158\n      jump\t// in\n    tag_333:\n        /* \"#utility.yul\":16258:16259   */\n      0x01\n        /* \"#utility.yul\":16251:16256   */\n      dup2\n        /* \"#utility.yul\":16247:16260   */\n      add\n        /* \"#utility.yul\":16238:16260   */\n      swap1\n      pop\n        /* \"#utility.yul\":16214:16334   */\n      jump(tag_330)\n    tag_332:\n        /* \"#utility.yul\":16154:16340   */\n      pop\n      pop\n      jump\t// out\n        /* \"#utility.yul\":16346:16889   */\n    tag_160:\n        /* \"#utility.yul\":16447:16449   */\n      0x1f\n        /* \"#utility.yul\":16442:16445   */\n      dup3\n        /* \"#utility.yul\":16439:16450   */\n      gt\n        /* \"#utility.yul\":16436:16882   */\n      iszero\n      tag_335\n      jumpi\n        /* \"#utility.yul\":16481:16519   */\n      tag_336\n        /* \"#utility.yul\":16513:16518   */\n      dup2\n        /* \"#utility.yul\":16481:16519   */\n      tag_149\n      jump\t// in\n    tag_336:\n        /* \"#utility.yul\":16565:16594   */\n      tag_337\n        /* \"#utility.yul\":16583:16593   */\n      dup5\n        /* \"#utility.yul\":16565:16594   */\n      tag_150\n      jump\t// in\n    tag_337:\n        /* \"#utility.yul\":16555:16563   */\n      dup2\n        /* \"#utility.yul\":16551:16595   */\n      add\n        /* \"#utility.yul\":16748:16750   */\n      0x20\n        /* \"#utility.yul\":16736:16746   */\n      dup6\n        /* \"#utility.yul\":16733:16751   */\n      lt\n        /* \"#utility.yul\":16730:16779   */\n      iszero\n      tag_338\n      jumpi\n        /* \"#utility.yul\":16769:16777   */\n      dup2\n        /* \"#utility.yul\":16754:16777   */\n      swap1\n      pop\n        /* \"#utility.yul\":16730:16779   */\n    tag_338:\n        /* \"#utility.yul\":16792:16872   */\n      tag_339\n        /* \"#utility.yul\":16848:16870   */\n      tag_340\n        /* \"#utility.yul\":16866:16869   */\n      dup6\n        /* \"#utility.yul\":16848:16870   */\n      tag_150\n      jump\t// in\n    tag_340:\n        /* \"#utility.yul\":16838:16846   */\n      dup4\n        /* \"#utility.yul\":16834:16871   */\n      add\n        /* \"#utility.yul\":16821:16832   */\n      dup3\n        /* \"#utility.yul\":16792:16872   */\n      tag_159\n      jump\t// in\n    tag_339:\n        /* \"#utility.yul\":16451:16882   */\n      pop\n      pop\n        /* \"#utility.yul\":16436:16882   */\n    tag_335:\n        /* \"#utility.yul\":16346:16889   */\n      pop\n      pop\n      pop\n      jump\t// out\n        /* \"#utility.yul\":16895:17012   */\n    tag_161:\n        /* \"#utility.yul\":16949:16957   */\n      0x00\n        /* \"#utility.yul\":16999:17004   */\n      dup3\n        /* \"#utility.yul\":16993:16997   */\n      dup3\n        /* \"#utility.yul\":16989:17005   */\n      shr\n        /* \"#utility.yul\":16968:17005   */\n      swap1\n      pop\n        /* \"#utility.yul\":16895:17012   */\n      swap3\n      swap2\n      pop\n      pop\n      jump\t// out\n        /* \"#utility.yul\":17018:17187   */\n    tag_162:\n        /* \"#utility.yul\":17062:17068   */\n      0x00\n        /* \"#utility.yul\":17095:17146   */\n      tag_343\n        /* \"#utility.yul\":17143:17144   */\n      0x00\n        /* \"#utility.yul\":17139:17145   */\n      not\n        /* \"#utility.yul\":17131:17136   */\n      dup5\n        /* \"#utility.yul\":17128:17129   */\n      0x08\n        /* \"#utility.yul\":17124:17137   */\n      mul\n        /* \"#utility.yul\":17095:17146   */\n      tag_161\n      jump\t// in\n    tag_343:\n        /* \"#utility.yul\":17091:17147   */\n      not\n        /* \"#utility.yul\":17176:17180   */\n      dup1\n        /* \"#utility.yul\":17170:17174   */\n      dup4\n        /* \"#utility.yul\":17166:17181   */\n      and\n        /* \"#utility.yul\":17156:17181   */\n      swap2\n      pop\n        /* \"#utility.yul\":17069:17187   */\n      pop\n        /* \"#utility.yul\":17018:17187   */\n      swap3\n      swap2\n      pop\n      pop\n      jump\t// out\n        /* \"#utility.yul\":17192:17487   */\n    tag_163:\n        /* \"#utility.yul\":17268:17272   */\n      0x00\n        /* \"#utility.yul\":17414:17443   */\n      tag_345\n        /* \"#utility.yul\":17439:17442   */\n      dup4\n        /* \"#utility.yul\":17433:17437   */\n      dup4\n        /* \"#utility.yul\":17414:17443   */\n      tag_162\n      jump\t// in\n    tag_345:\n        /* \"#utility.yul\":17406:17443   */\n      swap2\n      pop\n        /* \"#utility.yul\":17476:17479   */\n      dup3\n        /* \"#utility.yul\":17473:17474   */\n      0x02\n        /* \"#utility.yul\":17469:17480   */\n      mul\n        /* \"#utility.yul\":17463:17467   */\n      dup3\n        /* \"#utility.yul\":17460:17481   */\n      or\n        /* \"#utility.yul\":17452:17481   */\n      swap1\n      pop\n        /* \"#utility.yul\":17192:17487   */\n      swap3\n      swap2\n      pop\n      pop\n      jump\t// out\n        /* \"#utility.yul\":17492:18887   */\n    tag_61:\n        /* \"#utility.yul\":17609:17646   */\n      tag_347\n        /* \"#utility.yul\":17642:17645   */\n      dup3\n        /* \"#utility.yul\":17609:17646   */\n      tag_126\n      jump\t// in\n    tag_347:\n        /* \"#utility.yul\":17711:17729   */\n      0xffffffffffffffff\n        /* \"#utility.yul\":17703:17709   */\n      dup2\n        /* \"#utility.yul\":17700:17730   */\n      gt\n        /* \"#utility.yul\":17697:17753   */\n      iszero\n      tag_348\n      jumpi\n        /* \"#utility.yul\":17733:17751   */\n      tag_349\n      tag_112\n      jump\t// in\n    tag_349:\n        /* \"#utility.yul\":17697:17753   */\n    tag_348:\n        /* \"#utility.yul\":17777:17815   */\n      tag_350\n        /* \"#utility.yul\":17809:17813   */\n      dup3\n        /* \"#utility.yul\":17803:17814   */\n      sload\n        /* \"#utility.yul\":17777:17815   */\n      tag_75\n      jump\t// in\n    tag_350:\n        /* \"#utility.yul\":17862:17929   */\n      tag_351\n        /* \"#utility.yul\":17922:17928   */\n      dup3\n        /* \"#utility.yul\":17914:17920   */\n      dup3\n        /* \"#utility.yul\":17908:17912   */\n      dup6\n        /* \"#utility.yul\":17862:17929   */\n      tag_160\n      jump\t// in\n    tag_351:\n        /* \"#utility.yul\":17956:17957   */\n      0x00\n        /* \"#utility.yul\":17980:17984   */\n      0x20\n        /* \"#utility.yul\":17967:17984   */\n      swap1\n      pop\n        /* \"#utility.yul\":18012:18014   */\n      0x1f\n        /* \"#utility.yul\":18004:18010   */\n      dup4\n        /* \"#utility.yul\":18001:18015   */\n      gt\n        /* \"#utility.yul\":18029:18030   */\n      0x01\n        /* \"#utility.yul\":18024:18642   */\n      dup2\n      eq\n      tag_353\n      jumpi\n        /* \"#utility.yul\":18686:18687   */\n      0x00\n        /* \"#utility.yul\":18703:18709   */\n      dup5\n        /* \"#utility.yul\":18700:18777   */\n      iszero\n      tag_354\n      jumpi\n        /* \"#utility.yul\":18752:18761   */\n      dup3\n        /* \"#utility.yul\":18747:18750   */\n      dup8\n        /* \"#utility.yul\":18743:18762   */\n      add\n        /* \"#utility.yul\":18737:18763   */\n      mload\n        /* \"#utility.yul\":18728:18763   */\n      swap1\n      pop\n        /* \"#utility.yul\":18700:18777   */\n    tag_354:\n        /* \"#utility.yul\":18803:18870   */\n      tag_355\n        /* \"#utility.yul\":18863:18869   */\n      dup6\n        /* \"#utility.yul\":18856:18861   */\n      dup3\n        /* \"#utility.yul\":18803:18870   */\n      tag_163\n      jump\t// in\n    tag_355:\n        /* \"#utility.yul\":18797:18801   */\n      dup7\n        /* \"#utility.yul\":18790:18871   */\n      sstore\n        /* \"#utility.yul\":18659:18881   */\n      pop\n        /* \"#utility.yul\":17994:18881   */\n      jump(tag_352)\n        /* \"#utility.yul\":18024:18642   */\n    tag_353:\n        /* \"#utility.yul\":18076:18080   */\n      0x1f\n        /* \"#utility.yul\":18072:18081   */\n      not\n        /* \"#utility.yul\":18064:18070   */\n      dup5\n        /* \"#utility.yul\":18060:18082   */\n      and\n        /* \"#utility.yul\":18110:18147   */\n      tag_356\n        /* \"#utility.yul\":18142:18146   */\n      dup7\n        /* \"#utility.yul\":18110:18147   */\n      tag_149\n      jump\t// in\n    tag_356:\n        /* \"#utility.yul\":18169:18170   */\n      0x00\n        /* \"#utility.yul\":18183:18391   */\n    tag_357:\n        /* \"#utility.yul\":18197:18204   */\n      dup3\n        /* \"#utility.yul\":18194:18195   */\n      dup2\n        /* \"#utility.yul\":18191:18205   */\n      lt\n        /* \"#utility.yul\":18183:18391   */\n      iszero\n      tag_359\n      jumpi\n        /* \"#utility.yul\":18276:18285   */\n      dup5\n        /* \"#utility.yul\":18271:18274   */\n      dup10\n        /* \"#utility.yul\":18267:18286   */\n      add\n        /* \"#utility.yul\":18261:18287   */\n      mload\n        /* \"#utility.yul\":18253:18259   */\n      dup3\n        /* \"#utility.yul\":18246:18288   */\n      sstore\n        /* \"#utility.yul\":18327:18328   */\n      0x01\n        /* \"#utility.yul\":18319:18325   */\n      dup3\n        /* \"#utility.yul\":18315:18329   */\n      add\n        /* \"#utility.yul\":18305:18329   */\n      swap2\n      pop\n        /* \"#utility.yul\":18374:18376   */\n      0x20\n        /* \"#utility.yul\":18363:18372   */\n      dup6\n        /* \"#utility.yul\":18359:18377   */\n      add\n        /* \"#utility.yul\":18346:18377   */\n      swap5\n      pop\n        /* \"#utility.yul\":18220:18224   */\n      0x20\n        /* \"#utility.yul\":18217:18218   */\n      dup2\n        /* \"#utility.yul\":18213:18225   */\n      add\n        /* \"#utility.yul\":18208:18225   */\n      swap1\n      pop\n        /* \"#utility.yul\":18183:18391   */\n      jump(tag_357)\n    tag_359:\n        /* \"#utility.yul\":18419:18425   */\n      dup7\n        /* \"#utility.yul\":18410:18417   */\n      dup4\n        /* \"#utility.yul\":18407:18426   */\n      lt\n        /* \"#utility.yul\":18404:18583   */\n      iszero\n      tag_360\n      jumpi\n        /* \"#utility.yul\":18477:18486   */\n      dup5\n        /* \"#utility.yul\":18472:18475   */\n      dup10\n        /* \"#utility.yul\":18468:18487   */\n      add\n        /* \"#utility.yul\":18462:18488   */\n      mload\n        /* \"#utility.yul\":18520:18568   */\n      tag_361\n        /* \"#utility.yul\":18562:18566   */\n      0x1f\n        /* \"#utility.yul\":18554:18560   */\n      dup10\n        /* \"#utility.yul\":18550:18567   */\n      and\n        /* \"#utility.yul\":18539:18548   */\n      dup3\n        /* \"#utility.yul\":18520:18568   */\n      tag_162\n      jump\t// in\n    tag_361:\n        /* \"#utility.yul\":18512:18518   */\n      dup4\n        /* \"#utility.yul\":18505:18569   */\n      sstore\n        /* \"#utility.yul\":18427:18583   */\n      pop\n        /* \"#utility.yul\":18404:18583   */\n    tag_360:\n        /* \"#utility.yul\":18629:18630   */\n      0x01\n        /* \"#utility.yul\":18625:18626   */\n      0x02\n        /* \"#utility.yul\":18617:18623   */\n      dup9\n        /* \"#utility.yul\":18613:18627   */\n      mul\n        /* \"#utility.yul\":18609:18631   */\n      add\n        /* \"#utility.yul\":18603:18607   */\n      dup9\n        /* \"#utility.yul\":18596:18632   */\n      sstore\n        /* \"#utility.yul\":18031:18642   */\n      pop\n      pop\n      pop\n        /* \"#utility.yul\":17994:18881   */\n    tag_352:\n      pop\n        /* \"#utility.yul\":17584:18887   */\n      pop\n      pop\n      pop\n        /* \"#utility.yul\":17492:18887   */\n      pop\n      pop\n      jump\t// out\n        /* \"#utility.yul\":18893:19073   */\n    tag_164:\n        /* \"#utility.yul\":18941:19018   */\n      0x4e487b7100000000000000000000000000000000000000000000000000000000\n        /* \"#utility.yul\":18938:18939   */\n      0x00\n        /* \"#utility.yul\":18931:19019   */\n      mstore\n        /* \"#utility.yul\":19038:19042   */\n      0x11\n        /* \"#utility.yul\":19035:19036   */\n      0x04\n        /* \"#utility.yul\":19028:19043   */\n      mstore\n        /* \"#utility.yul\":19062:19066   */\n      0x24\n        /* \"#utility.yul\":19059:19060   */\n      0x00\n        /* \"#utility.yul\":19052:19067   */\n      revert\n        /* \"#utility.yul\":19079:19312   */\n    tag_65:\n        /* \"#utility.yul\":19118:19121   */\n      0x00\n        /* \"#utility.yul\":19141:19165   */\n      tag_364\n        /* \"#utility.yul\":19159:19164   */\n      dup3\n        /* \"#utility.yul\":19141:19165   */\n      tag_104\n      jump\t// in\n    tag_364:\n        /* \"#utility.yul\":19132:19165   */\n      swap2\n      pop\n        /* \"#utility.yul\":19187:19253   */\n      0xffffffffffffffffffffffffffffffffffffffffffffffffffffffffffffffff\n        /* \"#utility.yul\":19180:19185   */\n      dup3\n        /* \"#utility.yul\":19177:19254   */\n      sub\n        /* \"#utility.yul\":19174:19277   */\n      tag_365\n      jumpi\n        /* \"#utility.yul\":19257:19275   */\n      tag_366\n      tag_164\n      jump\t// in\n    tag_366:\n        /* \"#utility.yul\":19174:19277   */\n    tag_365:\n        /* \"#utility.yul\":19304:19305   */\n      0x01\n        /* \"#utility.yul\":19297:19302   */\n      dup3\n        /* \"#utility.yul\":19293:19306   */\n      add\n        /* \"#utility.yul\":19286:19306   */\n      swap1\n      pop\n        /* \"#utility.yul\":19079:19312   */\n      swap2\n      swap1\n      pop\n      jump\t// out\n        /* \"#utility.yul\":19318:19482   */\n    tag_165:\n        /* \"#utility.yul\":19458:19474   */\n      0x4e6f742072656769737465726564000000000000000000000000000000000000\n        /* \"#utility.yul\":19454:19455   */\n      0x00\n        /* \"#utility.yul\":19446:19452   */\n      dup3\n        /* \"#utility.yul\":19442:19456   */\n      add\n        /* \"#utility.yul\":19435:19475   */\n      mstore\n        /* \"#utility.yul\":19318:19482   */\n      pop\n      jump\t// out\n        /* \"#utility.yul\":19488:19854   */\n    tag_166:\n        /* \"#utility.yul\":19630:19633   */\n      0x00\n        /* \"#utility.yul\":19651:19718   */\n      tag_369\n        /* \"#utility.yul\":19715:19717   */\n      0x0e\n        /* \"#utility.yul\":19710:19713   */\n      dup4\n        /* \"#utility.yul\":19651:19718   */\n      tag_134\n      jump\t// in\n    tag_369:\n        /* \"#utility.yul\":19644:19718   */\n      swap2\n      pop\n        /* \"#utility.yul\":19727:19820   */\n      tag_370\n        /* \"#utility.yul\":19816:19819   */\n      dup3\n        /* \"#utility.yul\":19727:19820   */\n      tag_165\n      jump\t// in\n    tag_370:\n        /* \"#utility.yul\":19845:19847   */\n      0x20\n        /* \"#utility.yul\":19840:19843   */\n      dup3\n        /* \"#utility.yul\":19836:19848   */\n      add\n        /* \"#utility.yul\":19829:19848   */\n      swap1\n      pop\n        /* \"#utility.yul\":19488:19854   */\n      swap2\n      swap1\n      pop\n      jump\t// out\n        /* \"#utility.yul\":19860:20279   */\n    tag_73:\n        /* \"#utility.yul\":20026:20030   */\n      0x00\n        /* \"#utility.yul\":20064:20066   */\n      0x20\n        /* \"#utility.yul\":20053:20062   */\n      dup3\n        /* \"#utility.yul\":20049:20067   */\n      add\n        /* \"#utility.yul\":20041:20067   */\n      swap1\n      pop\n        /* \"#utility.yul\":20113:20122   */\n      dup2\n        /* \"#utility.yul\":20107:20111   */\n      dup2\n        /* \"#utility.yul\":20103:20123   */\n      sub\n        /* \"#utility.yul\":20099:20100   */\n      0x00\n        /* \"#utility.yul\":20088:20097   */\n      dup4\n        /* \"#utility.yul\":20084:20101   */\n      add\n        /* \"#utility.yul\":20077:20124   */\n      mstore\n        /* \"#utility.yul\":20141:20272   */\n      tag_372\n        /* \"#utility.yul\":20267:20271   */\n      dup2\n        /* \"#utility.yul\":20141:20272   */\n      tag_166\n      jump\t// in\n    tag_372:\n        /* \"#utility.yul\":20133:20272   */\n      swap1\n      pop\n        /* \"#utility.yul\":19860:20279   */\n      swap2\n      swap1\n      pop\n      jump\t// out\n\n    auxdata: 0xa2646970667358221220a8159c76823e4aaa5e8f76e4774c0f4ffdd1fd3d0e55cbfea38a91522ab6f1c164736f6c634300081e0033\n}\n",
				"bytecode": {
					"linkReferences": {},
					"object": "6080604052348015600e575f5ffd5b5061145e8061001c5f395ff3fe608060405234801561000f575f5ffd5b5060043610610091575f3560e01c8063a87430ba11610064578063a87430ba1461012f578063c3c5a54714610163578063c9d3cc6a14610193578063e2842d79146101af578063fa6ac131146101cd57610091565b806307973ccf146100955780633ffbd47f146100b3578063502c9bd5146100cf5780636386c1c7146100ff575b5f5ffd5b61009d6101eb565b6040516100aa9190610a09565b60405180910390f35b6100cd60048036038101906100c89190610b6f565b6101f1565b005b6100e960048036038101906100e49190610c0f565b610404565b6040516100f69190610c79565b60405180910390f35b61011960048036038101906101149190610cbc565b61043f565b6040516101269190610dea565b60405180910390f35b61014960048036038101906101449190610cbc565b61066d565b60405161015a959493929190610e61565b60405180910390f35b61017d60048036038101906101789190610cbc565b6107b6565b60405161018a9190610ec0565b60405180910390f35b6101ad60048036038101906101a89190610b6f565b61080a565b005b6101b7610932565b6040516101c49190610f90565b60405180910390f35b6101d56109bd565b6040516101e29190610a09565b60405180910390f35b60025481565b5f5f3373ffffffffffffffffffffffffffffffffffffffff1673ffffffffffffffffffffffffffffffffffffffff1681526020019081526020015f206004015f9054906101000a900460ff161561027d576040517f08c379a000000000000000000000000000000000000000000000000000000000815260040161027490610ffa565b60405180910390fd5b6103e8600254106102c3576040517f08c379a00000000000000000000000000000000000000000000000000000000081526004016102ba90611062565b60405180910390fd5b6040518060a001604052808381526020018281526020015f8152602001428152602001600115158152505f5f3373ffffffffffffffffffffffffffffffffffffffff1673ffffffffffffffffffffffffffffffffffffffff1681526020019081526020015f205f820151815f01908161033c919061127d565b506020820151816001019081610352919061127d565b5060408201518160020155606082015181600301556080820151816004015f6101000a81548160ff021916908315150217905550905050600133908060018154018082558091505060019003905f5260205f20015f9091909190916101000a81548173ffffffffffffffffffffffffffffffffffffffff021916908373ffffffffffffffffffffffffffffffffffffffff16021790555060025f8154809291906103fb90611379565b91905055505050565b60018181548110610413575f80fd5b905f5260205f20015f915054906101000a900473ffffffffffffffffffffffffffffffffffffffff1681565b6104476109c3565b5f5f8373ffffffffffffffffffffffffffffffffffffffff1673ffffffffffffffffffffffffffffffffffffffff1681526020019081526020015f206004015f9054906101000a900460ff166104d2576040517f08c379a00000000000000000000000000000000000000000000000000000000081526004016104c99061140a565b60405180910390fd5b5f5f8373ffffffffffffffffffffffffffffffffffffffff1673ffffffffffffffffffffffffffffffffffffffff1681526020019081526020015f206040518060a00160405290815f82018054610528906110ad565b80601f0160208091040260200160405190810160405280929190818152602001828054610554906110ad565b801561059f5780601f106105765761010080835404028352916020019161059f565b820191905f5260205f20905b81548152906001019060200180831161058257829003601f168201915b505050505081526020016001820180546105b8906110ad565b80601f01602080910402602001604051908101604052809291908181526020018280546105e4906110ad565b801561062f5780601f106106065761010080835404028352916020019161062f565b820191905f5260205f20905b81548152906001019060200180831161061257829003601f168201915b505050505081526020016002820154815260200160038201548152602001600482015f9054906101000a900460ff1615151515815250509050919050565b5f602052805f5260405f205f91509050805f01805461068b906110ad565b80601f01602080910402602001604051908101604052809291908181526020018280546106b7906110ad565b80156107025780601f106106d957610100808354040283529160200191610702565b820191905f5260205f20905b8154815290600101906020018083116106e557829003601f168201915b505050505090806001018054610717906110ad565b80601f0160208091040260200160405190810160405280929190818152602001828054610743906110ad565b801561078e5780601f106107655761010080835404028352916020019161078e565b820191905f5260205f20905b81548152906001019060200180831161077157829003601f168201915b505050505090806002015490806003015490806004015f9054906101000a900460ff16905085565b5f5f5f8373ffffffffffffffffffffffffffffffffffffffff1673ffffffffffffffffffffffffffffffffffffffff1681526020019081526020015f206004015f9054906101000a900460ff169050919050565b5f5f3373ffffffffffffffffffffffffffffffffffffffff1673ffffffffffffffffffffffffffffffffffffffff1681526020019081526020015f206004015f9054906101000a900460ff16610895576040517f08c379a000000000000000000000000000000000000000000000000000000000815260040161088c9061140a565b60405180910390fd5b815f5f3373ffffffffffffffffffffffffffffffffffffffff1673ffffffffffffffffffffffffffffffffffffffff1681526020019081526020015f205f0190816108e0919061127d565b50805f5f3373ffffffffffffffffffffffffffffffffffffffff1673ffffffffffffffffffffffffffffffffffffffff1681526020019081526020015f20600101908161092d919061127d565b505050565b606060018054806020026020016040519081016040528092919081815260200182805480156109b357602002820191905f5260205f20905b815f9054906101000a900473ffffffffffffffffffffffffffffffffffffffff1673ffffffffffffffffffffffffffffffffffffffff168152602001906001019080831161096a575b5050505050905090565b6103e881565b6040518060a0016040528060608152602001606081526020015f81526020015f81526020015f151581525090565b5f819050919050565b610a03816109f1565b82525050565b5f602082019050610a1c5f8301846109fa565b92915050565b5f604051905090565b5f5ffd5b5f5ffd5b5f5ffd5b5f5ffd5b5f601f19601f8301169050919050565b7f4e487b71000000000000000000000000000000000000000000000000000000005f52604160045260245ffd5b610a8182610a3b565b810181811067ffffffffffffffff82111715610aa057610a9f610a4b565b5b80604052505050565b5f610ab2610a22565b9050610abe8282610a78565b919050565b5f67ffffffffffffffff821115610add57610adc610a4b565b5b610ae682610a3b565b9050602081019050919050565b828183375f83830152505050565b5f610b13610b0e84610ac3565b610aa9565b905082815260208101848484011115610b2f57610b2e610a37565b5b610b3a848285610af3565b509392505050565b5f82601f830112610b5657610b55610a33565b5b8135610b66848260208601610b01565b91505092915050565b5f5f60408385031215610b8557610b84610a2b565b5b5f83013567ffffffffffffffff811115610ba257610ba1610a2f565b5b610bae85828601610b42565b925050602083013567ffffffffffffffff811115610bcf57610bce610a2f565b5b610bdb85828601610b42565b9150509250929050565b610bee816109f1565b8114610bf8575f5ffd5b50565b5f81359050610c0981610be5565b92915050565b5f60208284031215610c2457610c23610a2b565b5b5f610c3184828501610bfb565b91505092915050565b5f73ffffffffffffffffffffffffffffffffffffffff82169050919050565b5f610c6382610c3a565b9050919050565b610c7381610c59565b82525050565b5f602082019050610c8c5f830184610c6a565b92915050565b610c9b81610c59565b8114610ca5575f5ffd5b50565b5f81359050610cb681610c92565b92915050565b5f60208284031215610cd157610cd0610a2b565b5b5f610cde84828501610ca8565b91505092915050565b5f81519050919050565b5f82825260208201905092915050565b8281835e5f83830152505050565b5f610d1982610ce7565b610d238185610cf1565b9350610d33818560208601610d01565b610d3c81610a3b565b840191505092915050565b610d50816109f1565b82525050565b5f8115159050919050565b610d6a81610d56565b82525050565b5f60a083015f8301518482035f860152610d8a8282610d0f565b91505060208301518482036020860152610da48282610d0f565b9150506040830151610db96040860182610d47565b506060830151610dcc6060860182610d47565b506080830151610ddf6080860182610d61565b508091505092915050565b5f6020820190508181035f830152610e028184610d70565b905092915050565b5f82825260208201905092915050565b5f610e2482610ce7565b610e2e8185610e0a565b9350610e3e818560208601610d01565b610e4781610a3b565b840191505092915050565b610e5b81610d56565b82525050565b5f60a0820190508181035f830152610e798188610e1a565b90508181036020830152610e8d8187610e1a565b9050610e9c60408301866109fa565b610ea960608301856109fa565b610eb66080830184610e52565b9695505050505050565b5f602082019050610ed35f830184610e52565b92915050565b5f81519050919050565b5f82825260208201905092915050565b5f819050602082019050919050565b610f0b81610c59565b82525050565b5f610f1c8383610f02565b60208301905092915050565b5f602082019050919050565b5f610f3e82610ed9565b610f488185610ee3565b9350610f5383610ef3565b805f5b83811015610f83578151610f6a8882610f11565b9750610f7583610f28565b925050600181019050610f56565b5085935050505092915050565b5f6020820190508181035f830152610fa88184610f34565b905092915050565b7f616c7265616479207269676573746564000000000000000000000000000000005f82015250565b5f610fe4601083610e0a565b9150610fef82610fb0565b602082019050919050565b5f6020820190508181035f83015261101181610fd8565b9050919050565b7f75736572732069732066756c6c000000000000000000000000000000000000005f82015250565b5f61104c600d83610e0a565b915061105782611018565b602082019050919050565b5f6020820190508181035f83015261107981611040565b9050919050565b7f4e487b71000000000000000000000000000000000000000000000000000000005f52602260045260245ffd5b5f60028204905060018216806110c457607f821691505b6020821081036110d7576110d6611080565b5b50919050565b5f819050815f5260205f209050919050565b5f6020601f8301049050919050565b5f82821b905092915050565b5f600883026111397fffffffffffffffffffffffffffffffffffffffffffffffffffffffffffffffff826110fe565b61114386836110fe565b95508019841693508086168417925050509392505050565b5f819050919050565b5f61117e611179611174846109f1565b61115b565b6109f1565b9050919050565b5f819050919050565b61119783611164565b6111ab6111a382611185565b84845461110a565b825550505050565b5f5f905090565b6111c26111b3565b6111cd81848461118e565b505050565b5b818110156111f0576111e55f826111ba565b6001810190506111d3565b5050565b601f82111561123557611206816110dd565b61120f846110ef565b8101602085101561121e578190505b61123261122a856110ef565b8301826111d2565b50505b505050565b5f82821c905092915050565b5f6112555f198460080261123a565b1980831691505092915050565b5f61126d8383611246565b9150826002028217905092915050565b61128682610ce7565b67ffffffffffffffff81111561129f5761129e610a4b565b5b6112a982546110ad565b6112b48282856111f4565b5f60209050601f8311600181146112e5575f84156112d3578287015190505b6112dd8582611262565b865550611344565b601f1984166112f3866110dd565b5f5b8281101561131a578489015182556001820191506020850194506020810190506112f5565b868310156113375784890151611333601f891682611246565b8355505b6001600288020188555050505b505050505050565b7f4e487b71000000000000000000000000000000000000000000000000000000005f52601160045260245ffd5b5f611383826109f1565b91507fffffffffffffffffffffffffffffffffffffffffffffffffffffffffffffffff82036113b5576113b461134c565b5b600182019050919050565b7f4e6f7420726567697374657265640000000000000000000000000000000000005f82015250565b5f6113f4600e83610e0a565b91506113ff826113c0565b602082019050919050565b5f6020820190508181035f830152611421816113e8565b905091905056fea2646970667358221220a8159c76823e4aaa5e8f76e4774c0f4ffdd1fd3d0e55cbfea38a91522ab6f1c164736f6c634300081e0033",
					"opcodes": "PUSH1 0x80 PUSH1 0x40 MSTORE CALLVALUE DUP1 ISZERO PUSH1 0xE JUMPI PUSH0 PUSH0 REVERT JUMPDEST POP PUSH2 0x145E DUP1 PUSH2 0x1C PUSH0 CODECOPY PUSH0 RETURN INVALID PUSH1 0x80 PUSH1 0x40 MSTORE CALLVALUE DUP1 ISZERO PUSH2 0xF JUMPI PUSH0 PUSH0 REVERT JUMPDEST POP PUSH1 0x4 CALLDATASIZE LT PUSH2 0x91 JUMPI PUSH0 CALLDATALOAD PUSH1 0xE0 SHR DUP1 PUSH4 0xA87430BA GT PUSH2 0x64 JUMPI DUP1 PUSH4 0xA87430BA EQ PUSH2 0x12F JUMPI DUP1 PUSH4 0xC3C5A547 EQ PUSH2 0x163 JUMPI DUP1 PUSH4 0xC9D3CC6A EQ PUSH2 0x193 JUMPI DUP1 PUSH4 0xE2842D79 EQ PUSH2 0x1AF JUMPI DUP1 PUSH4 0xFA6AC131 EQ PUSH2 0x1CD JUMPI PUSH2 0x91 JUMP JUMPDEST DUP1 PUSH4 0x7973CCF EQ PUSH2 0x95 JUMPI DUP1 PUSH4 0x3FFBD47F EQ PUSH2 0xB3 JUMPI DUP1 PUSH4 0x502C9BD5 EQ PUSH2 0xCF JUMPI DUP1 PUSH4 0x6386C1C7 EQ PUSH2 0xFF JUMPI JUMPDEST PUSH0 PUSH0 REVERT JUMPDEST PUSH2 0x9D PUSH2 0x1EB JUMP JUMPDEST PUSH1 0x40 MLOAD PUSH2 0xAA SWAP2 SWAP1 PUSH2 0xA09 JUMP JUMPDEST PUSH1 0x40 MLOAD DUP1 SWAP2 SUB SWAP1 RETURN JUMPDEST PUSH2 0xCD PUSH1 0x4 DUP1 CALLDATASIZE SUB DUP2 ADD SWAP1 PUSH2 0xC8 SWAP2 SWAP1 PUSH2 0xB6F JUMP JUMPDEST PUSH2 0x1F1 JUMP JUMPDEST STOP JUMPDEST PUSH2 0xE9 PUSH1 0x4 DUP1 CALLDATASIZE SUB DUP2 ADD SWAP1 PUSH2 0xE4 SWAP2 SWAP1 PUSH2 0xC0F JUMP JUMPDEST PUSH2 0x404 JUMP JUMPDEST PUSH1 0x40 MLOAD PUSH2 0xF6 SWAP2 SWAP1 PUSH2 0xC79 JUMP JUMPDEST PUSH1 0x40 MLOAD DUP1 SWAP2 SUB SWAP1 RETURN JUMPDEST PUSH2 0x119 PUSH1 0x4 DUP1 CALLDATASIZE SUB DUP2 ADD SWAP1 PUSH2 0x114 SWAP2 SWAP1 PUSH2 0xCBC JUMP JUMPDEST PUSH2 0x43F JUMP JUMPDEST PUSH1 0x40 MLOAD PUSH2 0x126 SWAP2 SWAP1 PUSH2 0xDEA JUMP JUMPDEST PUSH1 0x40 MLOAD DUP1 SWAP2 SUB SWAP1 RETURN JUMPDEST PUSH2 0x149 PUSH1 0x4 DUP1 CALLDATASIZE SUB DUP2 ADD SWAP1 PUSH2 0x144 SWAP2 SWAP1 PUSH2 0xCBC JUMP JUMPDEST PUSH2 0x66D JUMP JUMPDEST PUSH1 0x40 MLOAD PUSH2 0x15A SWAP6 SWAP5 SWAP4 SWAP3 SWAP2 SWAP1 PUSH2 0xE61 JUMP JUMPDEST PUSH1 0x40 MLOAD DUP1 SWAP2 SUB SWAP1 RETURN JUMPDEST PUSH2 0x17D PUSH1 0x4 DUP1 CALLDATASIZE SUB DUP2 ADD SWAP1 PUSH2 0x178 SWAP2 SWAP1 PUSH2 0xCBC JUMP JUMPDEST PUSH2 0x7B6 JUMP JUMPDEST PUSH1 0x40 MLOAD PUSH2 0x18A SWAP2 SWAP1 PUSH2 0xEC0 JUMP JUMPDEST PUSH1 0x40 MLOAD DUP1 SWAP2 SUB SWAP1 RETURN JUMPDEST PUSH2 0x1AD PUSH1 0x4 DUP1 CALLDATASIZE SUB DUP2 ADD SWAP1 PUSH2 0x1A8 SWAP2 SWAP1 PUSH2 0xB6F JUMP JUMPDEST PUSH2 0x80A JUMP JUMPDEST STOP JUMPDEST PUSH2 0x1B7 PUSH2 0x932 JUMP JUMPDEST PUSH1 0x40 MLOAD PUSH2 0x1C4 SWAP2 SWAP1 PUSH2 0xF90 JUMP JUMPDEST PUSH1 0x40 MLOAD DUP1 SWAP2 SUB SWAP1 RETURN JUMPDEST PUSH2 0x1D5 PUSH2 0x9BD JUMP JUMPDEST PUSH1 0x40 MLOAD PUSH2 0x1E2 SWAP2 SWAP1 PUSH2 0xA09 JUMP JUMPDEST PUSH1 0x40 MLOAD DUP1 SWAP2 SUB SWAP1 RETURN JUMPDEST PUSH1 0x2 SLOAD DUP2 JUMP JUMPDEST PUSH0 PUSH0 CALLER PUSH20 0xFFFFFFFFFFFFFFFFFFFFFFFFFFFFFFFFFFFFFFFF AND PUSH20 0xFFFFFFFFFFFFFFFFFFFFFFFFFFFFFFFFFFFFFFFF AND DUP2 MSTORE PUSH1 0x20 ADD SWAP1 DUP2 MSTORE PUSH1 0x20 ADD PUSH0 KECCAK256 PUSH1 0x4 ADD PUSH0 SWAP1 SLOAD SWAP1 PUSH2 0x100 EXP SWAP1 DIV PUSH1 0xFF AND ISZERO PUSH2 0x27D JUMPI PUSH1 0x40 MLOAD PUSH32 0x8C379A000000000000000000000000000000000000000000000000000000000 DUP2 MSTORE PUSH1 0x4 ADD PUSH2 0x274 SWAP1 PUSH2 0xFFA JUMP JUMPDEST PUSH1 0x40 MLOAD DUP1 SWAP2 SUB SWAP1 REVERT JUMPDEST PUSH2 0x3E8 PUSH1 0x2 SLOAD LT PUSH2 0x2C3 JUMPI PUSH1 0x40 MLOAD PUSH32 0x8C379A000000000000000000000000000000000000000000000000000000000 DUP2 MSTORE PUSH1 0x4 ADD PUSH2 0x2BA SWAP1 PUSH2 0x1062 JUMP JUMPDEST PUSH1 0x40 MLOAD DUP1 SWAP2 SUB SWAP1 REVERT JUMPDEST PUSH1 0x40 MLOAD DUP1 PUSH1 0xA0 ADD PUSH1 0x40 MSTORE DUP1 DUP4 DUP2 MSTORE PUSH1 0x20 ADD DUP3 DUP2 MSTORE PUSH1 0x20 ADD PUSH0 DUP2 MSTORE PUSH1 0x20 ADD TIMESTAMP DUP2 MSTORE PUSH1 0x20 ADD PUSH1 0x1 ISZERO ISZERO DUP2 MSTORE POP PUSH0 PUSH0 CALLER PUSH20 0xFFFFFFFFFFFFFFFFFFFFFFFFFFFFFFFFFFFFFFFF AND PUSH20 0xFFFFFFFFFFFFFFFFFFFFFFFFFFFFFFFFFFFFFFFF AND DUP2 MSTORE PUSH1 0x20 ADD SWAP1 DUP2 MSTORE PUSH1 0x20 ADD PUSH0 KECCAK256 PUSH0 DUP3 ADD MLOAD DUP2 PUSH0 ADD SWAP1 DUP2 PUSH2 0x33C SWAP2 SWAP1 PUSH2 0x127D JUMP JUMPDEST POP PUSH1 0x20 DUP3 ADD MLOAD DUP2 PUSH1 0x1 ADD SWAP1 DUP2 PUSH2 0x352 SWAP2 SWAP1 PUSH2 0x127D JUMP JUMPDEST POP PUSH1 0x40 DUP3 ADD MLOAD DUP2 PUSH1 0x2 ADD SSTORE PUSH1 0x60 DUP3 ADD MLOAD DUP2 PUSH1 0x3 ADD SSTORE PUSH1 0x80 DUP3 ADD MLOAD DUP2 PUSH1 0x4 ADD PUSH0 PUSH2 0x100 EXP DUP2 SLOAD DUP2 PUSH1 0xFF MUL NOT AND SWAP1 DUP4 ISZERO ISZERO MUL OR SWAP1 SSTORE POP SWAP1 POP POP PUSH1 0x1 CALLER SWAP1 DUP1 PUSH1 0x1 DUP2 SLOAD ADD DUP1 DUP3 SSTORE DUP1 SWAP2 POP POP PUSH1 0x1 SWAP1 SUB SWAP1 PUSH0 MSTORE PUSH1 0x20 PUSH0 KECCAK256 ADD PUSH0 SWAP1 SWAP2 SWAP1 SWAP2 SWAP1 SWAP2 PUSH2 0x100 EXP DUP2 SLOAD DUP2 PUSH20 0xFFFFFFFFFFFFFFFFFFFFFFFFFFFFFFFFFFFFFFFF MUL NOT AND SWAP1 DUP4 PUSH20 0xFFFFFFFFFFFFFFFFFFFFFFFFFFFFFFFFFFFFFFFF AND MUL OR SWAP1 SSTORE POP PUSH1 0x2 PUSH0 DUP2 SLOAD DUP1 SWAP3 SWAP2 SWAP1 PUSH2 0x3FB SWAP1 PUSH2 0x1379 JUMP JUMPDEST SWAP2 SWAP1 POP SSTORE POP POP POP JUMP JUMPDEST PUSH1 0x1 DUP2 DUP2 SLOAD DUP2 LT PUSH2 0x413 JUMPI PUSH0 DUP1 REVERT JUMPDEST SWAP1 PUSH0 MSTORE PUSH1 0x20 PUSH0 KECCAK256 ADD PUSH0 SWAP2 POP SLOAD SWAP1 PUSH2 0x100 EXP SWAP1 DIV PUSH20 0xFFFFFFFFFFFFFFFFFFFFFFFFFFFFFFFFFFFFFFFF AND DUP2 JUMP JUMPDEST PUSH2 0x447 PUSH2 0x9C3 JUMP JUMPDEST PUSH0 PUSH0 DUP4 PUSH20 0xFFFFFFFFFFFFFFFFFFFFFFFFFFFFFFFFFFFFFFFF AND PUSH20 0xFFFFFFFFFFFFFFFFFFFFFFFFFFFFFFFFFFFFFFFF AND DUP2 MSTORE PUSH1 0x20 ADD SWAP1 DUP2 MSTORE PUSH1 0x20 ADD PUSH0 KECCAK256 PUSH1 0x4 ADD PUSH0 SWAP1 SLOAD SWAP1 PUSH2 0x100 EXP SWAP1 DIV PUSH1 0xFF AND PUSH2 0x4D2 JUMPI PUSH1 0x40 MLOAD PUSH32 0x8C379A000000000000000000000000000000000000000000000000000000000 DUP2 MSTORE PUSH1 0x4 ADD PUSH2 0x4C9 SWAP1 PUSH2 0x140A JUMP JUMPDEST PUSH1 0x40 MLOAD DUP1 SWAP2 SUB SWAP1 REVERT JUMPDEST PUSH0 PUSH0 DUP4 PUSH20 0xFFFFFFFFFFFFFFFFFFFFFFFFFFFFFFFFFFFFFFFF AND PUSH20 0xFFFFFFFFFFFFFFFFFFFFFFFFFFFFFFFFFFFFFFFF AND DUP2 MSTORE PUSH1 0x20 ADD SWAP1 DUP2 MSTORE PUSH1 0x20 ADD PUSH0 KECCAK256 PUSH1 0x40 MLOAD DUP1 PUSH1 0xA0 ADD PUSH1 0x40 MSTORE SWAP1 DUP2 PUSH0 DUP3 ADD DUP1 SLOAD PUSH2 0x528 SWAP1 PUSH2 0x10AD JUMP JUMPDEST DUP1 PUSH1 0x1F ADD PUSH1 0x20 DUP1 SWAP2 DIV MUL PUSH1 0x20 ADD PUSH1 0x40 MLOAD SWAP1 DUP2 ADD PUSH1 0x40 MSTORE DUP1 SWAP3 SWAP2 SWAP1 DUP2 DUP2 MSTORE PUSH1 0x20 ADD DUP3 DUP1 SLOAD PUSH2 0x554 SWAP1 PUSH2 0x10AD JUMP JUMPDEST DUP1 ISZERO PUSH2 0x59F JUMPI DUP1 PUSH1 0x1F LT PUSH2 0x576 JUMPI PUSH2 0x100 DUP1 DUP4 SLOAD DIV MUL DUP4 MSTORE SWAP2 PUSH1 0x20 ADD SWAP2 PUSH2 0x59F JUMP JUMPDEST DUP3 ADD SWAP2 SWAP1 PUSH0 MSTORE PUSH1 0x20 PUSH0 KECCAK256 SWAP1 JUMPDEST DUP2 SLOAD DUP2 MSTORE SWAP1 PUSH1 0x1 ADD SWAP1 PUSH1 0x20 ADD DUP1 DUP4 GT PUSH2 0x582 JUMPI DUP3 SWAP1 SUB PUSH1 0x1F AND DUP3 ADD SWAP2 JUMPDEST POP POP POP POP POP DUP2 MSTORE PUSH1 0x20 ADD PUSH1 0x1 DUP3 ADD DUP1 SLOAD PUSH2 0x5B8 SWAP1 PUSH2 0x10AD JUMP JUMPDEST DUP1 PUSH1 0x1F ADD PUSH1 0x20 DUP1 SWAP2 DIV MUL PUSH1 0x20 ADD PUSH1 0x40 MLOAD SWAP1 DUP2 ADD PUSH1 0x40 MSTORE DUP1 SWAP3 SWAP2 SWAP1 DUP2 DUP2 MSTORE PUSH1 0x20 ADD DUP3 DUP1 SLOAD PUSH2 0x5E4 SWAP1 PUSH2 0x10AD JUMP JUMPDEST DUP1 ISZERO PUSH2 0x62F JUMPI DUP1 PUSH1 0x1F LT PUSH2 0x606 JUMPI PUSH2 0x100 DUP1 DUP4 SLOAD DIV MUL DUP4 MSTORE SWAP2 PUSH1 0x20 ADD SWAP2 PUSH2 0x62F JUMP JUMPDEST DUP3 ADD SWAP2 SWAP1 PUSH0 MSTORE PUSH1 0x20 PUSH0 KECCAK256 SWAP1 JUMPDEST DUP2 SLOAD DUP2 MSTORE SWAP1 PUSH1 0x1 ADD SWAP1 PUSH1 0x20 ADD DUP1 DUP4 GT PUSH2 0x612 JUMPI DUP3 SWAP1 SUB PUSH1 0x1F AND DUP3 ADD SWAP2 JUMPDEST POP POP POP POP POP DUP2 MSTORE PUSH1 0x20 ADD PUSH1 0x2 DUP3 ADD SLOAD DUP2 MSTORE PUSH1 0x20 ADD PUSH1 0x3 DUP3 ADD SLOAD DUP2 MSTORE PUSH1 0x20 ADD PUSH1 0x4 DUP3 ADD PUSH0 SWAP1 SLOAD SWAP1 PUSH2 0x100 EXP SWAP1 DIV PUSH1 0xFF AND ISZERO ISZERO ISZERO ISZERO DUP2 MSTORE POP POP SWAP1 POP SWAP2 SWAP1 POP JUMP JUMPDEST PUSH0 PUSH1 0x20 MSTORE DUP1 PUSH0 MSTORE PUSH1 0x40 PUSH0 KECCAK256 PUSH0 SWAP2 POP SWAP1 POP DUP1 PUSH0 ADD DUP1 SLOAD PUSH2 0x68B SWAP1 PUSH2 0x10AD JUMP JUMPDEST DUP1 PUSH1 0x1F ADD PUSH1 0x20 DUP1 SWAP2 DIV MUL PUSH1 0x20 ADD PUSH1 0x40 MLOAD SWAP1 DUP2 ADD PUSH1 0x40 MSTORE DUP1 SWAP3 SWAP2 SWAP1 DUP2 DUP2 MSTORE PUSH1 0x20 ADD DUP3 DUP1 SLOAD PUSH2 0x6B7 SWAP1 PUSH2 0x10AD JUMP JUMPDEST DUP1 ISZERO PUSH2 0x702 JUMPI DUP1 PUSH1 0x1F LT PUSH2 0x6D9 JUMPI PUSH2 0x100 DUP1 DUP4 SLOAD DIV MUL DUP4 MSTORE SWAP2 PUSH1 0x20 ADD SWAP2 PUSH2 0x702 JUMP JUMPDEST DUP3 ADD SWAP2 SWAP1 PUSH0 MSTORE PUSH1 0x20 PUSH0 KECCAK256 SWAP1 JUMPDEST DUP2 SLOAD DUP2 MSTORE SWAP1 PUSH1 0x1 ADD SWAP1 PUSH1 0x20 ADD DUP1 DUP4 GT PUSH2 0x6E5 JUMPI DUP3 SWAP1 SUB PUSH1 0x1F AND DUP3 ADD SWAP2 JUMPDEST POP POP POP POP POP SWAP1 DUP1 PUSH1 0x1 ADD DUP1 SLOAD PUSH2 0x717 SWAP1 PUSH2 0x10AD JUMP JUMPDEST DUP1 PUSH1 0x1F ADD PUSH1 0x20 DUP1 SWAP2 DIV MUL PUSH1 0x20 ADD PUSH1 0x40 MLOAD SWAP1 DUP2 ADD PUSH1 0x40 MSTORE DUP1 SWAP3 SWAP2 SWAP1 DUP2 DUP2 MSTORE PUSH1 0x20 ADD DUP3 DUP1 SLOAD PUSH2 0x743 SWAP1 PUSH2 0x10AD JUMP JUMPDEST DUP1 ISZERO PUSH2 0x78E JUMPI DUP1 PUSH1 0x1F LT PUSH2 0x765 JUMPI PUSH2 0x100 DUP1 DUP4 SLOAD DIV MUL DUP4 MSTORE SWAP2 PUSH1 0x20 ADD SWAP2 PUSH2 0x78E JUMP JUMPDEST DUP3 ADD SWAP2 SWAP1 PUSH0 MSTORE PUSH1 0x20 PUSH0 KECCAK256 SWAP1 JUMPDEST DUP2 SLOAD DUP2 MSTORE SWAP1 PUSH1 0x1 ADD SWAP1 PUSH1 0x20 ADD DUP1 DUP4 GT PUSH2 0x771 JUMPI DUP3 SWAP1 SUB PUSH1 0x1F AND DUP3 ADD SWAP2 JUMPDEST POP POP POP POP POP SWAP1 DUP1 PUSH1 0x2 ADD SLOAD SWAP1 DUP1 PUSH1 0x3 ADD SLOAD SWAP1 DUP1 PUSH1 0x4 ADD PUSH0 SWAP1 SLOAD SWAP1 PUSH2 0x100 EXP SWAP1 DIV PUSH1 0xFF AND SWAP1 POP DUP6 JUMP JUMPDEST PUSH0 PUSH0 PUSH0 DUP4 PUSH20 0xFFFFFFFFFFFFFFFFFFFFFFFFFFFFFFFFFFFFFFFF AND PUSH20 0xFFFFFFFFFFFFFFFFFFFFFFFFFFFFFFFFFFFFFFFF AND DUP2 MSTORE PUSH1 0x20 ADD SWAP1 DUP2 MSTORE PUSH1 0x20 ADD PUSH0 KECCAK256 PUSH1 0x4 ADD PUSH0 SWAP1 SLOAD SWAP1 PUSH2 0x100 EXP SWAP1 DIV PUSH1 0xFF AND SWAP1 POP SWAP2 SWAP1 POP JUMP JUMPDEST PUSH0 PUSH0 CALLER PUSH20 0xFFFFFFFFFFFFFFFFFFFFFFFFFFFFFFFFFFFFFFFF AND PUSH20 0xFFFFFFFFFFFFFFFFFFFFFFFFFFFFFFFFFFFFFFFF AND DUP2 MSTORE PUSH1 0x20 ADD SWAP1 DUP2 MSTORE PUSH1 0x20 ADD PUSH0 KECCAK256 PUSH1 0x4 ADD PUSH0 SWAP1 SLOAD SWAP1 PUSH2 0x100 EXP SWAP1 DIV PUSH1 0xFF AND PUSH2 0x895 JUMPI PUSH1 0x40 MLOAD PUSH32 0x8C379A000000000000000000000000000000000000000000000000000000000 DUP2 MSTORE PUSH1 0x4 ADD PUSH2 0x88C SWAP1 PUSH2 0x140A JUMP JUMPDEST PUSH1 0x40 MLOAD DUP1 SWAP2 SUB SWAP1 REVERT JUMPDEST DUP2 PUSH0 PUSH0 CALLER PUSH20 0xFFFFFFFFFFFFFFFFFFFFFFFFFFFFFFFFFFFFFFFF AND PUSH20 0xFFFFFFFFFFFFFFFFFFFFFFFFFFFFFFFFFFFFFFFF AND DUP2 MSTORE PUSH1 0x20 ADD SWAP1 DUP2 MSTORE PUSH1 0x20 ADD PUSH0 KECCAK256 PUSH0 ADD SWAP1 DUP2 PUSH2 0x8E0 SWAP2 SWAP1 PUSH2 0x127D JUMP JUMPDEST POP DUP1 PUSH0 PUSH0 CALLER PUSH20 0xFFFFFFFFFFFFFFFFFFFFFFFFFFFFFFFFFFFFFFFF AND PUSH20 0xFFFFFFFFFFFFFFFFFFFFFFFFFFFFFFFFFFFFFFFF AND DUP2 MSTORE PUSH1 0x20 ADD SWAP1 DUP2 MSTORE PUSH1 0x20 ADD PUSH0 KECCAK256 PUSH1 0x1 ADD SWAP1 DUP2 PUSH2 0x92D SWAP2 SWAP1 PUSH2 0x127D JUMP JUMPDEST POP POP POP JUMP JUMPDEST PUSH1 0x60 PUSH1 0x1 DUP1 SLOAD DUP1 PUSH1 0x20 MUL PUSH1 0x20 ADD PUSH1 0x40 MLOAD SWAP1 DUP2 ADD PUSH1 0x40 MSTORE DUP1 SWAP3 SWAP2 SWAP1 DUP2 DUP2 MSTORE PUSH1 0x20 ADD DUP3 DUP1 SLOAD DUP1 ISZERO PUSH2 0x9B3 JUMPI PUSH1 0x20 MUL DUP3 ADD SWAP2 SWAP1 PUSH0 MSTORE PUSH1 0x20 PUSH0 KECCAK256 SWAP1 JUMPDEST DUP2 PUSH0 SWAP1 SLOAD SWAP1 PUSH2 0x100 EXP SWAP1 DIV PUSH20 0xFFFFFFFFFFFFFFFFFFFFFFFFFFFFFFFFFFFFFFFF AND PUSH20 0xFFFFFFFFFFFFFFFFFFFFFFFFFFFFFFFFFFFFFFFF AND DUP2 MSTORE PUSH1 0x20 ADD SWAP1 PUSH1 0x1 ADD SWAP1 DUP1 DUP4 GT PUSH2 0x96A JUMPI JUMPDEST POP POP POP POP POP SWAP1 POP SWAP1 JUMP JUMPDEST PUSH2 0x3E8 DUP2 JUMP JUMPDEST PUSH1 0x40 MLOAD DUP1 PUSH1 0xA0 ADD PUSH1 0x40 MSTORE DUP1 PUSH1 0x60 DUP2 MSTORE PUSH1 0x20 ADD PUSH1 0x60 DUP2 MSTORE PUSH1 0x20 ADD PUSH0 DUP2 MSTORE PUSH1 0x20 ADD PUSH0 DUP2 MSTORE PUSH1 0x20 ADD PUSH0 ISZERO ISZERO DUP2 MSTORE POP SWAP1 JUMP JUMPDEST PUSH0 DUP2 SWAP1 POP SWAP2 SWAP1 POP JUMP JUMPDEST PUSH2 0xA03 DUP2 PUSH2 0x9F1 JUMP JUMPDEST DUP3 MSTORE POP POP JUMP JUMPDEST PUSH0 PUSH1 0x20 DUP3 ADD SWAP1 POP PUSH2 0xA1C PUSH0 DUP4 ADD DUP5 PUSH2 0x9FA JUMP JUMPDEST SWAP3 SWAP2 POP POP JUMP JUMPDEST PUSH0 PUSH1 0x40 MLOAD SWAP1 POP SWAP1 JUMP JUMPDEST PUSH0 PUSH0 REVERT JUMPDEST PUSH0 PUSH0 REVERT JUMPDEST PUSH0 PUSH0 REVERT JUMPDEST PUSH0 PUSH0 REVERT JUMPDEST PUSH0 PUSH1 0x1F NOT PUSH1 0x1F DUP4 ADD AND SWAP1 POP SWAP2 SWAP1 POP JUMP JUMPDEST PUSH32 0x4E487B7100000000000000000000000000000000000000000000000000000000 PUSH0 MSTORE PUSH1 0x41 PUSH1 0x4 MSTORE PUSH1 0x24 PUSH0 REVERT JUMPDEST PUSH2 0xA81 DUP3 PUSH2 0xA3B JUMP JUMPDEST DUP2 ADD DUP2 DUP2 LT PUSH8 0xFFFFFFFFFFFFFFFF DUP3 GT OR ISZERO PUSH2 0xAA0 JUMPI PUSH2 0xA9F PUSH2 0xA4B JUMP JUMPDEST JUMPDEST DUP1 PUSH1 0x40 MSTORE POP POP POP JUMP JUMPDEST PUSH0 PUSH2 0xAB2 PUSH2 0xA22 JUMP JUMPDEST SWAP1 POP PUSH2 0xABE DUP3 DUP3 PUSH2 0xA78 JUMP JUMPDEST SWAP2 SWAP1 POP JUMP JUMPDEST PUSH0 PUSH8 0xFFFFFFFFFFFFFFFF DUP3 GT ISZERO PUSH2 0xADD JUMPI PUSH2 0xADC PUSH2 0xA4B JUMP JUMPDEST JUMPDEST PUSH2 0xAE6 DUP3 PUSH2 0xA3B JUMP JUMPDEST SWAP1 POP PUSH1 0x20 DUP2 ADD SWAP1 POP SWAP2 SWAP1 POP JUMP JUMPDEST DUP3 DUP2 DUP4 CALLDATACOPY PUSH0 DUP4 DUP4 ADD MSTORE POP POP POP JUMP JUMPDEST PUSH0 PUSH2 0xB13 PUSH2 0xB0E DUP5 PUSH2 0xAC3 JUMP JUMPDEST PUSH2 0xAA9 JUMP JUMPDEST SWAP1 POP DUP3 DUP2 MSTORE PUSH1 0x20 DUP2 ADD DUP5 DUP5 DUP5 ADD GT ISZERO PUSH2 0xB2F JUMPI PUSH2 0xB2E PUSH2 0xA37 JUMP JUMPDEST JUMPDEST PUSH2 0xB3A DUP5 DUP3 DUP6 PUSH2 0xAF3 JUMP JUMPDEST POP SWAP4 SWAP3 POP POP POP JUMP JUMPDEST PUSH0 DUP3 PUSH1 0x1F DUP4 ADD SLT PUSH2 0xB56 JUMPI PUSH2 0xB55 PUSH2 0xA33 JUMP JUMPDEST JUMPDEST DUP2 CALLDATALOAD PUSH2 0xB66 DUP5 DUP3 PUSH1 0x20 DUP7 ADD PUSH2 0xB01 JUMP JUMPDEST SWAP2 POP POP SWAP3 SWAP2 POP POP JUMP JUMPDEST PUSH0 PUSH0 PUSH1 0x40 DUP4 DUP6 SUB SLT ISZERO PUSH2 0xB85 JUMPI PUSH2 0xB84 PUSH2 0xA2B JUMP JUMPDEST JUMPDEST PUSH0 DUP4 ADD CALLDATALOAD PUSH8 0xFFFFFFFFFFFFFFFF DUP2 GT ISZERO PUSH2 0xBA2 JUMPI PUSH2 0xBA1 PUSH2 0xA2F JUMP JUMPDEST JUMPDEST PUSH2 0xBAE DUP6 DUP3 DUP7 ADD PUSH2 0xB42 JUMP JUMPDEST SWAP3 POP POP PUSH1 0x20 DUP4 ADD CALLDATALOAD PUSH8 0xFFFFFFFFFFFFFFFF DUP2 GT ISZERO PUSH2 0xBCF JUMPI PUSH2 0xBCE PUSH2 0xA2F JUMP JUMPDEST JUMPDEST PUSH2 0xBDB DUP6 DUP3 DUP7 ADD PUSH2 0xB42 JUMP JUMPDEST SWAP2 POP POP SWAP3 POP SWAP3 SWAP1 POP JUMP JUMPDEST PUSH2 0xBEE DUP2 PUSH2 0x9F1 JUMP JUMPDEST DUP2 EQ PUSH2 0xBF8 JUMPI PUSH0 PUSH0 REVERT JUMPDEST POP JUMP JUMPDEST PUSH0 DUP2 CALLDATALOAD SWAP1 POP PUSH2 0xC09 DUP2 PUSH2 0xBE5 JUMP JUMPDEST SWAP3 SWAP2 POP POP JUMP JUMPDEST PUSH0 PUSH1 0x20 DUP3 DUP5 SUB SLT ISZERO PUSH2 0xC24 JUMPI PUSH2 0xC23 PUSH2 0xA2B JUMP JUMPDEST JUMPDEST PUSH0 PUSH2 0xC31 DUP5 DUP3 DUP6 ADD PUSH2 0xBFB JUMP JUMPDEST SWAP2 POP POP SWAP3 SWAP2 POP POP JUMP JUMPDEST PUSH0 PUSH20 0xFFFFFFFFFFFFFFFFFFFFFFFFFFFFFFFFFFFFFFFF DUP3 AND SWAP1 POP SWAP2 SWAP1 POP JUMP JUMPDEST PUSH0 PUSH2 0xC63 DUP3 PUSH2 0xC3A JUMP JUMPDEST SWAP1 POP SWAP2 SWAP1 POP JUMP JUMPDEST PUSH2 0xC73 DUP2 PUSH2 0xC59 JUMP JUMPDEST DUP3 MSTORE POP POP JUMP JUMPDEST PUSH0 PUSH1 0x20 DUP3 ADD SWAP1 POP PUSH2 0xC8C PUSH0 DUP4 ADD DUP5 PUSH2 0xC6A JUMP JUMPDEST SWAP3 SWAP2 POP POP JUMP JUMPDEST PUSH2 0xC9B DUP2 PUSH2 0xC59 JUMP JUMPDEST DUP2 EQ PUSH2 0xCA5 JUMPI PUSH0 PUSH0 REVERT JUMPDEST POP JUMP JUMPDEST PUSH0 DUP2 CALLDATALOAD SWAP1 POP PUSH2 0xCB6 DUP2 PUSH2 0xC92 JUMP JUMPDEST SWAP3 SWAP2 POP POP JUMP JUMPDEST PUSH0 PUSH1 0x20 DUP3 DUP5 SUB SLT ISZERO PUSH2 0xCD1 JUMPI PUSH2 0xCD0 PUSH2 0xA2B JUMP JUMPDEST JUMPDEST PUSH0 PUSH2 0xCDE DUP5 DUP3 DUP6 ADD PUSH2 0xCA8 JUMP JUMPDEST SWAP2 POP POP SWAP3 SWAP2 POP POP JUMP JUMPDEST PUSH0 DUP2 MLOAD SWAP1 POP SWAP2 SWAP1 POP JUMP JUMPDEST PUSH0 DUP3 DUP3 MSTORE PUSH1 0x20 DUP3 ADD SWAP1 POP SWAP3 SWAP2 POP POP JUMP JUMPDEST DUP3 DUP2 DUP4 MCOPY PUSH0 DUP4 DUP4 ADD MSTORE POP POP POP JUMP JUMPDEST PUSH0 PUSH2 0xD19 DUP3 PUSH2 0xCE7 JUMP JUMPDEST PUSH2 0xD23 DUP2 DUP6 PUSH2 0xCF1 JUMP JUMPDEST SWAP4 POP PUSH2 0xD33 DUP2 DUP6 PUSH1 0x20 DUP7 ADD PUSH2 0xD01 JUMP JUMPDEST PUSH2 0xD3C DUP2 PUSH2 0xA3B JUMP JUMPDEST DUP5 ADD SWAP2 POP POP SWAP3 SWAP2 POP POP JUMP JUMPDEST PUSH2 0xD50 DUP2 PUSH2 0x9F1 JUMP JUMPDEST DUP3 MSTORE POP POP JUMP JUMPDEST PUSH0 DUP2 ISZERO ISZERO SWAP1 POP SWAP2 SWAP1 POP JUMP JUMPDEST PUSH2 0xD6A DUP2 PUSH2 0xD56 JUMP JUMPDEST DUP3 MSTORE POP POP JUMP JUMPDEST PUSH0 PUSH1 0xA0 DUP4 ADD PUSH0 DUP4 ADD MLOAD DUP5 DUP3 SUB PUSH0 DUP7 ADD MSTORE PUSH2 0xD8A DUP3 DUP3 PUSH2 0xD0F JUMP JUMPDEST SWAP2 POP POP PUSH1 0x20 DUP4 ADD MLOAD DUP5 DUP3 SUB PUSH1 0x20 DUP7 ADD MSTORE PUSH2 0xDA4 DUP3 DUP3 PUSH2 0xD0F JUMP JUMPDEST SWAP2 POP POP PUSH1 0x40 DUP4 ADD MLOAD PUSH2 0xDB9 PUSH1 0x40 DUP7 ADD DUP3 PUSH2 0xD47 JUMP JUMPDEST POP PUSH1 0x60 DUP4 ADD MLOAD PUSH2 0xDCC PUSH1 0x60 DUP7 ADD DUP3 PUSH2 0xD47 JUMP JUMPDEST POP PUSH1 0x80 DUP4 ADD MLOAD PUSH2 0xDDF PUSH1 0x80 DUP7 ADD DUP3 PUSH2 0xD61 JUMP JUMPDEST POP DUP1 SWAP2 POP POP SWAP3 SWAP2 POP POP JUMP JUMPDEST PUSH0 PUSH1 0x20 DUP3 ADD SWAP1 POP DUP2 DUP2 SUB PUSH0 DUP4 ADD MSTORE PUSH2 0xE02 DUP2 DUP5 PUSH2 0xD70 JUMP JUMPDEST SWAP1 POP SWAP3 SWAP2 POP POP JUMP JUMPDEST PUSH0 DUP3 DUP3 MSTORE PUSH1 0x20 DUP3 ADD SWAP1 POP SWAP3 SWAP2 POP POP JUMP JUMPDEST PUSH0 PUSH2 0xE24 DUP3 PUSH2 0xCE7 JUMP JUMPDEST PUSH2 0xE2E DUP2 DUP6 PUSH2 0xE0A JUMP JUMPDEST SWAP4 POP PUSH2 0xE3E DUP2 DUP6 PUSH1 0x20 DUP7 ADD PUSH2 0xD01 JUMP JUMPDEST PUSH2 0xE47 DUP2 PUSH2 0xA3B JUMP JUMPDEST DUP5 ADD SWAP2 POP POP SWAP3 SWAP2 POP POP JUMP JUMPDEST PUSH2 0xE5B DUP2 PUSH2 0xD56 JUMP JUMPDEST DUP3 MSTORE POP POP JUMP JUMPDEST PUSH0 PUSH1 0xA0 DUP3 ADD SWAP1 POP DUP2 DUP2 SUB PUSH0 DUP4 ADD MSTORE PUSH2 0xE79 DUP2 DUP9 PUSH2 0xE1A JUMP JUMPDEST SWAP1 POP DUP2 DUP2 SUB PUSH1 0x20 DUP4 ADD MSTORE PUSH2 0xE8D DUP2 DUP8 PUSH2 0xE1A JUMP JUMPDEST SWAP1 POP PUSH2 0xE9C PUSH1 0x40 DUP4 ADD DUP7 PUSH2 0x9FA JUMP JUMPDEST PUSH2 0xEA9 PUSH1 0x60 DUP4 ADD DUP6 PUSH2 0x9FA JUMP JUMPDEST PUSH2 0xEB6 PUSH1 0x80 DUP4 ADD DUP5 PUSH2 0xE52 JUMP JUMPDEST SWAP7 SWAP6 POP POP POP POP POP POP JUMP JUMPDEST PUSH0 PUSH1 0x20 DUP3 ADD SWAP1 POP PUSH2 0xED3 PUSH0 DUP4 ADD DUP5 PUSH2 0xE52 JUMP JUMPDEST SWAP3 SWAP2 POP POP JUMP JUMPDEST PUSH0 DUP2 MLOAD SWAP1 POP SWAP2 SWAP1 POP JUMP JUMPDEST PUSH0 DUP3 DUP3 MSTORE PUSH1 0x20 DUP3 ADD SWAP1 POP SWAP3 SWAP2 POP POP JUMP JUMPDEST PUSH0 DUP2 SWAP1 POP PUSH1 0x20 DUP3 ADD SWAP1 POP SWAP2 SWAP1 POP JUMP JUMPDEST PUSH2 0xF0B DUP2 PUSH2 0xC59 JUMP JUMPDEST DUP3 MSTORE POP POP JUMP JUMPDEST PUSH0 PUSH2 0xF1C DUP4 DUP4 PUSH2 0xF02 JUMP JUMPDEST PUSH1 0x20 DUP4 ADD SWAP1 POP SWAP3 SWAP2 POP POP JUMP JUMPDEST PUSH0 PUSH1 0x20 DUP3 ADD SWAP1 POP SWAP2 SWAP1 POP JUMP JUMPDEST PUSH0 PUSH2 0xF3E DUP3 PUSH2 0xED9 JUMP JUMPDEST PUSH2 0xF48 DUP2 DUP6 PUSH2 0xEE3 JUMP JUMPDEST SWAP4 POP PUSH2 0xF53 DUP4 PUSH2 0xEF3 JUMP JUMPDEST DUP1 PUSH0 JUMPDEST DUP4 DUP2 LT ISZERO PUSH2 0xF83 JUMPI DUP2 MLOAD PUSH2 0xF6A DUP9 DUP3 PUSH2 0xF11 JUMP JUMPDEST SWAP8 POP PUSH2 0xF75 DUP4 PUSH2 0xF28 JUMP JUMPDEST SWAP3 POP POP PUSH1 0x1 DUP2 ADD SWAP1 POP PUSH2 0xF56 JUMP JUMPDEST POP DUP6 SWAP4 POP POP POP POP SWAP3 SWAP2 POP POP JUMP JUMPDEST PUSH0 PUSH1 0x20 DUP3 ADD SWAP1 POP DUP2 DUP2 SUB PUSH0 DUP4 ADD MSTORE PUSH2 0xFA8 DUP2 DUP5 PUSH2 0xF34 JUMP JUMPDEST SWAP1 POP SWAP3 SWAP2 POP POP JUMP JUMPDEST PUSH32 0x616C726561647920726967657374656400000000000000000000000000000000 PUSH0 DUP3 ADD MSTORE POP JUMP JUMPDEST PUSH0 PUSH2 0xFE4 PUSH1 0x10 DUP4 PUSH2 0xE0A JUMP JUMPDEST SWAP2 POP PUSH2 0xFEF DUP3 PUSH2 0xFB0 JUMP JUMPDEST PUSH1 0x20 DUP3 ADD SWAP1 POP SWAP2 SWAP1 POP JUMP JUMPDEST PUSH0 PUSH1 0x20 DUP3 ADD SWAP1 POP DUP2 DUP2 SUB PUSH0 DUP4 ADD MSTORE PUSH2 0x1011 DUP2 PUSH2 0xFD8 JUMP JUMPDEST SWAP1 POP SWAP2 SWAP1 POP JUMP JUMPDEST PUSH32 0x75736572732069732066756C6C00000000000000000000000000000000000000 PUSH0 DUP3 ADD MSTORE POP JUMP JUMPDEST PUSH0 PUSH2 0x104C PUSH1 0xD DUP4 PUSH2 0xE0A JUMP JUMPDEST SWAP2 POP PUSH2 0x1057 DUP3 PUSH2 0x1018 JUMP JUMPDEST PUSH1 0x20 DUP3 ADD SWAP1 POP SWAP2 SWAP1 POP JUMP JUMPDEST PUSH0 PUSH1 0x20 DUP3 ADD SWAP1 POP DUP2 DUP2 SUB PUSH0 DUP4 ADD MSTORE PUSH2 0x1079 DUP2 PUSH2 0x1040 JUMP JUMPDEST SWAP1 POP SWAP2 SWAP1 POP JUMP JUMPDEST PUSH32 0x4E487B7100000000000000000000000000000000000000000000000000000000 PUSH0 MSTORE PUSH1 0x22 PUSH1 0x4 MSTORE PUSH1 0x24 PUSH0 REVERT JUMPDEST PUSH0 PUSH1 0x2 DUP3 DIV SWAP1 POP PUSH1 0x1 DUP3 AND DUP1 PUSH2 0x10C4 JUMPI PUSH1 0x7F DUP3 AND SWAP2 POP JUMPDEST PUSH1 0x20 DUP3 LT DUP2 SUB PUSH2 0x10D7 JUMPI PUSH2 0x10D6 PUSH2 0x1080 JUMP JUMPDEST JUMPDEST POP SWAP2 SWAP1 POP JUMP JUMPDEST PUSH0 DUP2 SWAP1 POP DUP2 PUSH0 MSTORE PUSH1 0x20 PUSH0 KECCAK256 SWAP1 POP SWAP2 SWAP1 POP JUMP JUMPDEST PUSH0 PUSH1 0x20 PUSH1 0x1F DUP4 ADD DIV SWAP1 POP SWAP2 SWAP1 POP JUMP JUMPDEST PUSH0 DUP3 DUP3 SHL SWAP1 POP SWAP3 SWAP2 POP POP JUMP JUMPDEST PUSH0 PUSH1 0x8 DUP4 MUL PUSH2 0x1139 PUSH32 0xFFFFFFFFFFFFFFFFFFFFFFFFFFFFFFFFFFFFFFFFFFFFFFFFFFFFFFFFFFFFFFFF DUP3 PUSH2 0x10FE JUMP JUMPDEST PUSH2 0x1143 DUP7 DUP4 PUSH2 0x10FE JUMP JUMPDEST SWAP6 POP DUP1 NOT DUP5 AND SWAP4 POP DUP1 DUP7 AND DUP5 OR SWAP3 POP POP POP SWAP4 SWAP3 POP POP POP JUMP JUMPDEST PUSH0 DUP2 SWAP1 POP SWAP2 SWAP1 POP JUMP JUMPDEST PUSH0 PUSH2 0x117E PUSH2 0x1179 PUSH2 0x1174 DUP5 PUSH2 0x9F1 JUMP JUMPDEST PUSH2 0x115B JUMP JUMPDEST PUSH2 0x9F1 JUMP JUMPDEST SWAP1 POP SWAP2 SWAP1 POP JUMP JUMPDEST PUSH0 DUP2 SWAP1 POP SWAP2 SWAP1 POP JUMP JUMPDEST PUSH2 0x1197 DUP4 PUSH2 0x1164 JUMP JUMPDEST PUSH2 0x11AB PUSH2 0x11A3 DUP3 PUSH2 0x1185 JUMP JUMPDEST DUP5 DUP5 SLOAD PUSH2 0x110A JUMP JUMPDEST DUP3 SSTORE POP POP POP POP JUMP JUMPDEST PUSH0 PUSH0 SWAP1 POP SWAP1 JUMP JUMPDEST PUSH2 0x11C2 PUSH2 0x11B3 JUMP JUMPDEST PUSH2 0x11CD DUP2 DUP5 DUP5 PUSH2 0x118E JUMP JUMPDEST POP POP POP JUMP JUMPDEST JUMPDEST DUP2 DUP2 LT ISZERO PUSH2 0x11F0 JUMPI PUSH2 0x11E5 PUSH0 DUP3 PUSH2 0x11BA JUMP JUMPDEST PUSH1 0x1 DUP2 ADD SWAP1 POP PUSH2 0x11D3 JUMP JUMPDEST POP POP JUMP JUMPDEST PUSH1 0x1F DUP3 GT ISZERO PUSH2 0x1235 JUMPI PUSH2 0x1206 DUP2 PUSH2 0x10DD JUMP JUMPDEST PUSH2 0x120F DUP5 PUSH2 0x10EF JUMP JUMPDEST DUP2 ADD PUSH1 0x20 DUP6 LT ISZERO PUSH2 0x121E JUMPI DUP2 SWAP1 POP JUMPDEST PUSH2 0x1232 PUSH2 0x122A DUP6 PUSH2 0x10EF JUMP JUMPDEST DUP4 ADD DUP3 PUSH2 0x11D2 JUMP JUMPDEST POP POP JUMPDEST POP POP POP JUMP JUMPDEST PUSH0 DUP3 DUP3 SHR SWAP1 POP SWAP3 SWAP2 POP POP JUMP JUMPDEST PUSH0 PUSH2 0x1255 PUSH0 NOT DUP5 PUSH1 0x8 MUL PUSH2 0x123A JUMP JUMPDEST NOT DUP1 DUP4 AND SWAP2 POP POP SWAP3 SWAP2 POP POP JUMP JUMPDEST PUSH0 PUSH2 0x126D DUP4 DUP4 PUSH2 0x1246 JUMP JUMPDEST SWAP2 POP DUP3 PUSH1 0x2 MUL DUP3 OR SWAP1 POP SWAP3 SWAP2 POP POP JUMP JUMPDEST PUSH2 0x1286 DUP3 PUSH2 0xCE7 JUMP JUMPDEST PUSH8 0xFFFFFFFFFFFFFFFF DUP2 GT ISZERO PUSH2 0x129F JUMPI PUSH2 0x129E PUSH2 0xA4B JUMP JUMPDEST JUMPDEST PUSH2 0x12A9 DUP3 SLOAD PUSH2 0x10AD JUMP JUMPDEST PUSH2 0x12B4 DUP3 DUP3 DUP6 PUSH2 0x11F4 JUMP JUMPDEST PUSH0 PUSH1 0x20 SWAP1 POP PUSH1 0x1F DUP4 GT PUSH1 0x1 DUP2 EQ PUSH2 0x12E5 JUMPI PUSH0 DUP5 ISZERO PUSH2 0x12D3 JUMPI DUP3 DUP8 ADD MLOAD SWAP1 POP JUMPDEST PUSH2 0x12DD DUP6 DUP3 PUSH2 0x1262 JUMP JUMPDEST DUP7 SSTORE POP PUSH2 0x1344 JUMP JUMPDEST PUSH1 0x1F NOT DUP5 AND PUSH2 0x12F3 DUP7 PUSH2 0x10DD JUMP JUMPDEST PUSH0 JUMPDEST DUP3 DUP2 LT ISZERO PUSH2 0x131A JUMPI DUP5 DUP10 ADD MLOAD DUP3 SSTORE PUSH1 0x1 DUP3 ADD SWAP2 POP PUSH1 0x20 DUP6 ADD SWAP5 POP PUSH1 0x20 DUP2 ADD SWAP1 POP PUSH2 0x12F5 JUMP JUMPDEST DUP7 DUP4 LT ISZERO PUSH2 0x1337 JUMPI DUP5 DUP10 ADD MLOAD PUSH2 0x1333 PUSH1 0x1F DUP10 AND DUP3 PUSH2 0x1246 JUMP JUMPDEST DUP4 SSTORE POP JUMPDEST PUSH1 0x1 PUSH1 0x2 DUP9 MUL ADD DUP9 SSTORE POP POP POP JUMPDEST POP POP POP POP POP POP JUMP JUMPDEST PUSH32 0x4E487B7100000000000000000000000000000000000000000000000000000000 PUSH0 MSTORE PUSH1 0x11 PUSH1 0x4 MSTORE PUSH1 0x24 PUSH0 REVERT JUMPDEST PUSH0 PUSH2 0x1383 DUP3 PUSH2 0x9F1 JUMP JUMPDEST SWAP2 POP PUSH32 0xFFFFFFFFFFFFFFFFFFFFFFFFFFFFFFFFFFFFFFFFFFFFFFFFFFFFFFFFFFFFFFFF DUP3 SUB PUSH2 0x13B5 JUMPI PUSH2 0x13B4 PUSH2 0x134C JUMP JUMPDEST JUMPDEST PUSH1 0x1 DUP3 ADD SWAP1 POP SWAP2 SWAP1 POP JUMP JUMPDEST PUSH32 0x4E6F742072656769737465726564000000000000000000000000000000000000 PUSH0 DUP3 ADD MSTORE POP JUMP JUMPDEST PUSH0 PUSH2 0x13F4 PUSH1 0xE DUP4 PUSH2 0xE0A JUMP JUMPDEST SWAP2 POP PUSH2 0x13FF DUP3 PUSH2 0x13C0 JUMP JUMPDEST PUSH1 0x20 DUP3 ADD SWAP1 POP SWAP2 SWAP1 POP JUMP JUMPDEST PUSH0 PUSH1 0x20 DUP3 ADD SWAP1 POP DUP2 DUP2 SUB PUSH0 DUP4 ADD MSTORE PUSH2 0x1421 DUP2 PUSH2 0x13E8 JUMP JUMPDEST SWAP1 POP SWAP2 SWAP1 POP JUMP INVALID LOG2 PUSH5 0x6970667358 0x22 SLT KECCAK256 0xA8 ISZERO SWAP13 PUSH23 0x823E4AAA5E8F76E4774C0F4FFDD1FD3D0E55CBFEA38A91 MSTORE 0x2A 0xB6 CALL 0xC1 PUSH5 0x736F6C6343 STOP ADDMOD 0x1E STOP CALLER "
				},
				"gasEstimates": {
					"creation": {
						"codeDepositCost": "1042800",
						"executionCost": "1078",
						"totalCost": "1043878"
					},
					"external": {
						"MAX_USERS()": "413",
						"getAllUsers()": "infinite",
						"getUserInfo(address)": "infinite",
						"isRegistered(address)": "2897",
						"register(string,string)": "infinite",
						"updateProfile(string,string)": "infinite",
						"userAddresses(uint256)": "4989",
						"userCount()": "2426",
						"users(address)": "infinite"
					}
				},
				"methodIdentifiers": {
					"MAX_USERS()": "fa6ac131",
					"getAllUsers()": "e2842d79",
					"getUserInfo(address)": "6386c1c7",
					"isRegistered(address)": "c3c5a547",
					"register(string,string)": "3ffbd47f",
					"updateProfile(string,string)": "c9d3cc6a",
					"userAddresses(uint256)": "502c9bd5",
					"userCount()": "07973ccf",
					"users(address)": "a87430ba"
				}
			},
			"storageLayout": {
				"storage": [
					{
						"astId": 17,
						"contract": "contracts/homework/05 UserManagementSystem.sol:UserManagementSystem",
						"label": "users",
						"offset": 0,
						"slot": "0",
						"type": "t_mapping(t_address,t_struct(User)12_storage)"
					},
					{
						"astId": 20,
						"contract": "contracts/homework/05 UserManagementSystem.sol:UserManagementSystem",
						"label": "userAddresses",
						"offset": 0,
						"slot": "1",
						"type": "t_array(t_address)dyn_storage"
					},
					{
						"astId": 22,
						"contract": "contracts/homework/05 UserManagementSystem.sol:UserManagementSystem",
						"label": "userCount",
						"offset": 0,
						"slot": "2",
						"type": "t_uint256"
					}
				],
				"types": {
					"t_address": {
						"encoding": "inplace",
						"label": "address",
						"numberOfBytes": "20"
					},
					"t_array(t_address)dyn_storage": {
						"base": "t_address",
						"encoding": "dynamic_array",
						"label": "address[]",
						"numberOfBytes": "32"
					},
					"t_bool": {
						"encoding": "inplace",
						"label": "bool",
						"numberOfBytes": "1"
					},
					"t_mapping(t_address,t_struct(User)12_storage)": {
						"encoding": "mapping",
						"key": "t_address",
						"label": "mapping(address => struct UserManagementSystem.User)",
						"numberOfBytes": "32",
						"value": "t_struct(User)12_storage"
					},
					"t_string_storage": {
						"encoding": "bytes",
						"label": "string",
						"numberOfBytes": "32"
					},
					"t_struct(User)12_storage": {
						"encoding": "inplace",
						"label": "struct UserManagementSystem.User",
						"members": [
							{
								"astId": 3,
								"contract": "contracts/homework/05 UserManagementSystem.sol:UserManagementSystem",
								"label": "name",
								"offset": 0,
								"slot": "0",
								"type": "t_string_storage"
							},
							{
								"astId": 5,
								"contract": "contracts/homework/05 UserManagementSystem.sol:UserManagementSystem",
								"label": "email",
								"offset": 0,
								"slot": "1",
								"type": "t_string_storage"
							},
							{
								"astId": 7,
								"contract": "contracts/homework/05 UserManagementSystem.sol:UserManagementSystem",
								"label": "balance",
								"offset": 0,
								"slot": "2",
								"type": "t_uint256"
							},
							{
								"astId": 9,
								"contract": "contracts/homework/05 UserManagementSystem.sol:UserManagementSystem",
								"label": "registeredAt",
								"offset": 0,
								"slot": "3",
								"type": "t_uint256"
							},
							{
								"astId": 11,
								"contract": "contracts/homework/05 UserManagementSystem.sol:UserManagementSystem",
								"label": "exists",
								"offset": 0,
								"slot": "4",
								"type": "t_bool"
							}
						],
						"numberOfBytes": "160"
					},
					"t_uint256": {
						"encoding": "inplace",
						"label": "uint256",
						"numberOfBytes": "32"
					}
				}
			},
			"userdoc": {
				"kind": "user",
				"methods": {},
				"version": 1
			}
		}
	}
}