{
	"contracts/lesson8.1/02MultiSigWallet.sol": {
		"MultiSigWallet": {
			"abi": [
				{
					"inputs": [
						{
							"internalType": "address[]",
							"name": "_owners",
							"type": "address[]"
						},
						{
							"internalType": "uint256",
							"name": "_required",
							"type": "uint256"
						}
					],
					"stateMutability": "nonpayable",
					"type": "constructor"
				},
				{
					"inputs": [],
					"name": "ExecutionFailed",
					"type": "error"
				},
				{
					"inputs": [],
					"name": "InsufficientConfirmations",
					"type": "error"
				},
				{
					"inputs": [],
					"name": "NotOwner",
					"type": "error"
				},
				{
					"inputs": [],
					"name": "TxAlreadyConfirmed",
					"type": "error"
				},
				{
					"inputs": [],
					"name": "TxAlreadyExecuted",
					"type": "error"
				},
				{
					"inputs": [],
					"name": "TxNotExists",
					"type": "error"
				},
				{
					"anonymous": false,
					"inputs": [
						{
							"indexed": true,
							"internalType": "address",
							"name": "owner",
							"type": "address"
						},
						{
							"indexed": true,
							"internalType": "uint256",
							"name": "txId",
							"type": "uint256"
						}
					],
					"name": "Confirm",
					"type": "event"
				},
				{
					"anonymous": false,
					"inputs": [
						{
							"indexed": true,
							"internalType": "address",
							"name": "sender",
							"type": "address"
						},
						{
							"indexed": false,
							"internalType": "uint256",
							"name": "amount",
							"type": "uint256"
						}
					],
					"name": "Deposit",
					"type": "event"
				},
				{
					"anonymous": false,
					"inputs": [
						{
							"indexed": true,
							"internalType": "uint256",
							"name": "txId",
							"type": "uint256"
						}
					],
					"name": "Execute",
					"type": "event"
				},
				{
					"anonymous": false,
					"inputs": [
						{
							"indexed": true,
							"internalType": "uint256",
							"name": "txId",
							"type": "uint256"
						}
					],
					"name": "ExecutionFailure",
					"type": "event"
				},
				{
					"anonymous": false,
					"inputs": [
						{
							"indexed": true,
							"internalType": "uint256",
							"name": "txId",
							"type": "uint256"
						}
					],
					"name": "Submit",
					"type": "event"
				},
				{
					"inputs": [
						{
							"internalType": "uint256",
							"name": "_txId",
							"type": "uint256"
						}
					],
					"name": "confirm",
					"outputs": [],
					"stateMutability": "nonpayable",
					"type": "function"
				},
				{
					"inputs": [
						{
							"internalType": "uint256",
							"name": "",
							"type": "uint256"
						},
						{
							"internalType": "address",
							"name": "",
							"type": "address"
						}
					],
					"name": "confirmations",
					"outputs": [
						{
							"internalType": "bool",
							"name": "",
							"type": "bool"
						}
					],
					"stateMutability": "view",
					"type": "function"
				},
				{
					"inputs": [
						{
							"internalType": "uint256",
							"name": "_txId",
							"type": "uint256"
						}
					],
					"name": "execute",
					"outputs": [],
					"stateMutability": "nonpayable",
					"type": "function"
				},
				{
					"inputs": [
						{
							"internalType": "address",
							"name": "",
							"type": "address"
						}
					],
					"name": "isOwner",
					"outputs": [
						{
							"internalType": "bool",
							"name": "",
							"type": "bool"
						}
					],
					"stateMutability": "view",
					"type": "function"
				},
				{
					"inputs": [
						{
							"internalType": "uint256",
							"name": "",
							"type": "uint256"
						}
					],
					"name": "owners",
					"outputs": [
						{
							"internalType": "address",
							"name": "",
							"type": "address"
						}
					],
					"stateMutability": "view",
					"type": "function"
				},
				{
					"inputs": [],
					"name": "required",
					"outputs": [
						{
							"internalType": "uint256",
							"name": "",
							"type": "uint256"
						}
					],
					"stateMutability": "view",
					"type": "function"
				},
				{
					"inputs": [
						{
							"internalType": "address",
							"name": "_to",
							"type": "address"
						},
						{
							"internalType": "uint256",
							"name": "_value",
							"type": "uint256"
						},
						{
							"internalType": "bytes",
							"name": "_data",
							"type": "bytes"
						}
					],
					"name": "submit",
					"outputs": [
						{
							"internalType": "uint256",
							"name": "",
							"type": "uint256"
						}
					],
					"stateMutability": "nonpayable",
					"type": "function"
				},
				{
					"inputs": [
						{
							"internalType": "uint256",
							"name": "",
							"type": "uint256"
						}
					],
					"name": "transactions",
					"outputs": [
						{
							"internalType": "address",
							"name": "to",
							"type": "address"
						},
						{
							"internalType": "uint256",
							"name": "value",
							"type": "uint256"
						},
						{
							"internalType": "bytes",
							"name": "data",
							"type": "bytes"
						},
						{
							"internalType": "bool",
							"name": "executed",
							"type": "bool"
						},
						{
							"internalType": "uint256",
							"name": "confirmations",
							"type": "uint256"
						}
					],
					"stateMutability": "view",
					"type": "function"
				},
				{
					"stateMutability": "payable",
					"type": "receive"
				}
			],
			"devdoc": {
				"kind": "dev",
				"methods": {
					"confirm(uint256)": {
						"params": {
							"_txId": "交易ID"
						}
					},
					"execute(uint256)": {
						"details": "使用call方法实现灵活性，可以调用任意合约的任意函数",
						"params": {
							"_txId": "交易ID"
						}
					},
					"submit(address,uint256,bytes)": {
						"params": {
							"_data": "调用数据",
							"_to": "目标地址",
							"_value": "发送的以太币数量"
						},
						"returns": {
							"_0": "交易ID"
						}
					}
				},
				"version": 1
			},
			"evm": {
				"assembly": "    /* \"contracts/lesson8.1/02MultiSigWallet.sol\":115:4896  contract MultiSigWallet {... */\n  mstore(0x40, 0x80)\n    /* \"contracts/lesson8.1/02MultiSigWallet.sol\":1879:2482  constructor(address[] memory _owners, uint256 _required) {... */\n  callvalue\n  dup1\n  iszero\n  tag_1\n  jumpi\n  revert(0x00, 0x00)\ntag_1:\n  pop\n  mload(0x40)\n  sub(codesize, bytecodeSize)\n  dup1\n  bytecodeSize\n  dup4\n  codecopy\n  dup2\n  dup2\n  add\n  0x40\n  mstore\n  dup2\n  add\n  swap1\n  tag_2\n  swap2\n  swap1\n  tag_3\n  jump\t// in\ntag_2:\n    /* \"contracts/lesson8.1/02MultiSigWallet.sol\":1972:1973  0 */\n  0x00\n    /* \"contracts/lesson8.1/02MultiSigWallet.sol\":1955:1962  _owners */\n  dup3\n    /* \"contracts/lesson8.1/02MultiSigWallet.sol\":1955:1969  _owners.length */\n  mload\n    /* \"contracts/lesson8.1/02MultiSigWallet.sol\":1955:1973  _owners.length > 0 */\n  gt\n    /* \"contracts/lesson8.1/02MultiSigWallet.sol\":1947:1993  require(_owners.length > 0, \"Owners required\") */\n  tag_6\n  jumpi\n  mload(0x40)\n  0x08c379a000000000000000000000000000000000000000000000000000000000\n  dup2\n  mstore\n  0x04\n  add\n  tag_7\n  swap1\n  tag_8\n  jump\t// in\ntag_7:\n  mload(0x40)\n  dup1\n  swap2\n  sub\n  swap1\n  revert\ntag_6:\n    /* \"contracts/lesson8.1/02MultiSigWallet.sol\":2038:2039  0 */\n  0x00\n    /* \"contracts/lesson8.1/02MultiSigWallet.sol\":2026:2035  _required */\n  dup2\n    /* \"contracts/lesson8.1/02MultiSigWallet.sol\":2026:2039  _required > 0 */\n  gt\n    /* \"contracts/lesson8.1/02MultiSigWallet.sol\":2026:2070  _required > 0 && _required <= _owners.length */\n  dup1\n  iszero\n  tag_9\n  jumpi\n  pop\n    /* \"contracts/lesson8.1/02MultiSigWallet.sol\":2056:2063  _owners */\n  dup2\n    /* \"contracts/lesson8.1/02MultiSigWallet.sol\":2056:2070  _owners.length */\n  mload\n    /* \"contracts/lesson8.1/02MultiSigWallet.sol\":2043:2052  _required */\n  dup2\n    /* \"contracts/lesson8.1/02MultiSigWallet.sol\":2043:2070  _required <= _owners.length */\n  gt\n  iszero\n    /* \"contracts/lesson8.1/02MultiSigWallet.sol\":2026:2070  _required > 0 && _required <= _owners.length */\ntag_9:\n    /* \"contracts/lesson8.1/02MultiSigWallet.sol\":2004:2114  require(... */\n  tag_10\n  jumpi\n  mload(0x40)\n  0x08c379a000000000000000000000000000000000000000000000000000000000\n  dup2\n  mstore\n  0x04\n  add\n  tag_11\n  swap1\n  tag_12\n  jump\t// in\ntag_11:\n  mload(0x40)\n  dup1\n  swap2\n  sub\n  swap1\n  revert\ntag_10:\n    /* \"contracts/lesson8.1/02MultiSigWallet.sol\":2140:2149  uint256 i */\n  0x00\n    /* \"contracts/lesson8.1/02MultiSigWallet.sol\":2152:2153  0 */\n  0x00\n    /* \"contracts/lesson8.1/02MultiSigWallet.sol\":2140:2153  uint256 i = 0 */\n  swap1\n  pop\n    /* \"contracts/lesson8.1/02MultiSigWallet.sol\":2135:2434  for (uint256 i = 0; i < _owners.length; i++) {... */\ntag_13:\n    /* \"contracts/lesson8.1/02MultiSigWallet.sol\":2159:2166  _owners */\n  dup3\n    /* \"contracts/lesson8.1/02MultiSigWallet.sol\":2159:2173  _owners.length */\n  mload\n    /* \"contracts/lesson8.1/02MultiSigWallet.sol\":2155:2156  i */\n  dup2\n    /* \"contracts/lesson8.1/02MultiSigWallet.sol\":2155:2173  i < _owners.length */\n  lt\n    /* \"contracts/lesson8.1/02MultiSigWallet.sol\":2135:2434  for (uint256 i = 0; i < _owners.length; i++) {... */\n  iszero\n  tag_14\n  jumpi\n    /* \"contracts/lesson8.1/02MultiSigWallet.sol\":2195:2208  address owner */\n  0x00\n    /* \"contracts/lesson8.1/02MultiSigWallet.sol\":2211:2218  _owners */\n  dup4\n    /* \"contracts/lesson8.1/02MultiSigWallet.sol\":2219:2220  i */\n  dup3\n    /* \"contracts/lesson8.1/02MultiSigWallet.sol\":2211:2221  _owners[i] */\n  dup2\n  mload\n  dup2\n  lt\n  tag_16\n  jumpi\n  tag_17\n  tag_18\n  jump\t// in\ntag_17:\ntag_16:\n  0x20\n  mul\n  0x20\n  add\n  add\n  mload\n    /* \"contracts/lesson8.1/02MultiSigWallet.sol\":2195:2221  address owner = _owners[i] */\n  swap1\n  pop\n    /* \"contracts/lesson8.1/02MultiSigWallet.sol\":2261:2262  0 */\n  0x00\n    /* \"contracts/lesson8.1/02MultiSigWallet.sol\":2244:2263  owner != address(0) */\n  0xffffffffffffffffffffffffffffffffffffffff\n  and\n    /* \"contracts/lesson8.1/02MultiSigWallet.sol\":2244:2249  owner */\n  dup2\n    /* \"contracts/lesson8.1/02MultiSigWallet.sol\":2244:2263  owner != address(0) */\n  0xffffffffffffffffffffffffffffffffffffffff\n  and\n  sub\n    /* \"contracts/lesson8.1/02MultiSigWallet.sol\":2236:2281  require(owner != address(0), \"Invalid owner\") */\n  tag_19\n  jumpi\n  mload(0x40)\n  0x08c379a000000000000000000000000000000000000000000000000000000000\n  dup2\n  mstore\n  0x04\n  add\n  tag_20\n  swap1\n  tag_21\n  jump\t// in\ntag_20:\n  mload(0x40)\n  dup1\n  swap2\n  sub\n  swap1\n  revert\ntag_19:\n    /* \"contracts/lesson8.1/02MultiSigWallet.sol\":2305:2312  isOwner */\n  0x01\n    /* \"contracts/lesson8.1/02MultiSigWallet.sol\":2305:2319  isOwner[owner] */\n  0x00\n    /* \"contracts/lesson8.1/02MultiSigWallet.sol\":2313:2318  owner */\n  dup3\n    /* \"contracts/lesson8.1/02MultiSigWallet.sol\":2305:2319  isOwner[owner] */\n  0xffffffffffffffffffffffffffffffffffffffff\n  and\n  0xffffffffffffffffffffffffffffffffffffffff\n  and\n  dup2\n  mstore\n  0x20\n  add\n  swap1\n  dup2\n  mstore\n  0x20\n  add\n  0x00\n  keccak256\n  0x00\n  swap1\n  sload\n  swap1\n  0x0100\n  exp\n  swap1\n  div\n  0xff\n  and\n    /* \"contracts/lesson8.1/02MultiSigWallet.sol\":2304:2319  !isOwner[owner] */\n  iszero\n    /* \"contracts/lesson8.1/02MultiSigWallet.sol\":2296:2339  require(!isOwner[owner], \"Duplicate owner\") */\n  tag_22\n  jumpi\n  mload(0x40)\n  0x08c379a000000000000000000000000000000000000000000000000000000000\n  dup2\n  mstore\n  0x04\n  add\n  tag_23\n  swap1\n  tag_24\n  jump\t// in\ntag_23:\n  mload(0x40)\n  dup1\n  swap2\n  sub\n  swap1\n  revert\ntag_22:\n    /* \"contracts/lesson8.1/02MultiSigWallet.sol\":2385:2389  true */\n  0x01\n    /* \"contracts/lesson8.1/02MultiSigWallet.sol\":2368:2375  isOwner */\n  dup1\n    /* \"contracts/lesson8.1/02MultiSigWallet.sol\":2368:2382  isOwner[owner] */\n  0x00\n    /* \"contracts/lesson8.1/02MultiSigWallet.sol\":2376:2381  owner */\n  dup4\n    /* \"contracts/lesson8.1/02MultiSigWallet.sol\":2368:2382  isOwner[owner] */\n  0xffffffffffffffffffffffffffffffffffffffff\n  and\n  0xffffffffffffffffffffffffffffffffffffffff\n  and\n  dup2\n  mstore\n  0x20\n  add\n  swap1\n  dup2\n  mstore\n  0x20\n  add\n  0x00\n  keccak256\n  0x00\n    /* \"contracts/lesson8.1/02MultiSigWallet.sol\":2368:2389  isOwner[owner] = true */\n  0x0100\n  exp\n  dup2\n  sload\n  dup2\n  0xff\n  mul\n  not\n  and\n  swap1\n  dup4\n  iszero\n  iszero\n  mul\n  or\n  swap1\n  sstore\n  pop\n    /* \"contracts/lesson8.1/02MultiSigWallet.sol\":2404:2410  owners */\n  0x00\n    /* \"contracts/lesson8.1/02MultiSigWallet.sol\":2416:2421  owner */\n  dup2\n    /* \"contracts/lesson8.1/02MultiSigWallet.sol\":2404:2422  owners.push(owner) */\n  swap1\n  dup1\n  0x01\n  dup2\n  sload\n  add\n  dup1\n  dup3\n  sstore\n  dup1\n  swap2\n  pop\n  pop\n  0x01\n  swap1\n  sub\n  swap1\n  0x00\n  mstore\n  keccak256(0x00, 0x20)\n  add\n  0x00\n  swap1\n  swap2\n  swap1\n  swap2\n  swap1\n  swap2\n  0x0100\n  exp\n  dup2\n  sload\n  dup2\n  0xffffffffffffffffffffffffffffffffffffffff\n  mul\n  not\n  and\n  swap1\n  dup4\n  0xffffffffffffffffffffffffffffffffffffffff\n  and\n  mul\n  or\n  swap1\n  sstore\n  pop\n    /* \"contracts/lesson8.1/02MultiSigWallet.sol\":2180:2434  {... */\n  pop\n    /* \"contracts/lesson8.1/02MultiSigWallet.sol\":2175:2178  i++ */\n  dup1\n  dup1\n  0x01\n  add\n  swap2\n  pop\n  pop\n    /* \"contracts/lesson8.1/02MultiSigWallet.sol\":2135:2434  for (uint256 i = 0; i < _owners.length; i++) {... */\n  jump(tag_13)\ntag_14:\n  pop\n    /* \"contracts/lesson8.1/02MultiSigWallet.sol\":2465:2474  _required */\n  dup1\n    /* \"contracts/lesson8.1/02MultiSigWallet.sol\":2454:2462  required */\n  0x02\n    /* \"contracts/lesson8.1/02MultiSigWallet.sol\":2454:2474  required = _required */\n  dup2\n  swap1\n  sstore\n  pop\n    /* \"contracts/lesson8.1/02MultiSigWallet.sol\":1879:2482  constructor(address[] memory _owners, uint256 _required) {... */\n  pop\n  pop\n    /* \"contracts/lesson8.1/02MultiSigWallet.sol\":115:4896  contract MultiSigWallet {... */\n  jump(tag_26)\n    /* \"#utility.yul\":7:82   */\ntag_27:\n    /* \"#utility.yul\":40:46   */\n  0x00\n    /* \"#utility.yul\":73:75   */\n  0x40\n    /* \"#utility.yul\":67:76   */\n  mload\n    /* \"#utility.yul\":57:76   */\n  swap1\n  pop\n    /* \"#utility.yul\":7:82   */\n  swap1\n  jump\t// out\n    /* \"#utility.yul\":88:205   */\ntag_28:\n    /* \"#utility.yul\":197:198   */\n  0x00\n    /* \"#utility.yul\":194:195   */\n  0x00\n    /* \"#utility.yul\":187:199   */\n  revert\n    /* \"#utility.yul\":211:328   */\ntag_29:\n    /* \"#utility.yul\":320:321   */\n  0x00\n    /* \"#utility.yul\":317:318   */\n  0x00\n    /* \"#utility.yul\":310:322   */\n  revert\n    /* \"#utility.yul\":334:451   */\ntag_30:\n    /* \"#utility.yul\":443:444   */\n  0x00\n    /* \"#utility.yul\":440:441   */\n  0x00\n    /* \"#utility.yul\":433:445   */\n  revert\n    /* \"#utility.yul\":457:559   */\ntag_31:\n    /* \"#utility.yul\":498:504   */\n  0x00\n    /* \"#utility.yul\":549:551   */\n  0x1f\n    /* \"#utility.yul\":545:552   */\n  not\n    /* \"#utility.yul\":540:542   */\n  0x1f\n    /* \"#utility.yul\":533:538   */\n  dup4\n    /* \"#utility.yul\":529:543   */\n  add\n    /* \"#utility.yul\":525:553   */\n  and\n    /* \"#utility.yul\":515:553   */\n  swap1\n  pop\n    /* \"#utility.yul\":457:559   */\n  swap2\n  swap1\n  pop\n  jump\t// out\n    /* \"#utility.yul\":565:745   */\ntag_32:\n    /* \"#utility.yul\":613:690   */\n  0x4e487b7100000000000000000000000000000000000000000000000000000000\n    /* \"#utility.yul\":610:611   */\n  0x00\n    /* \"#utility.yul\":603:691   */\n  mstore\n    /* \"#utility.yul\":710:714   */\n  0x41\n    /* \"#utility.yul\":707:708   */\n  0x04\n    /* \"#utility.yul\":700:715   */\n  mstore\n    /* \"#utility.yul\":734:738   */\n  0x24\n    /* \"#utility.yul\":731:732   */\n  0x00\n    /* \"#utility.yul\":724:739   */\n  revert\n    /* \"#utility.yul\":751:1032   */\ntag_33:\n    /* \"#utility.yul\":834:861   */\n  tag_63\n    /* \"#utility.yul\":856:860   */\n  dup3\n    /* \"#utility.yul\":834:861   */\n  tag_31\n  jump\t// in\ntag_63:\n    /* \"#utility.yul\":826:832   */\n  dup2\n    /* \"#utility.yul\":822:862   */\n  add\n    /* \"#utility.yul\":964:970   */\n  dup2\n    /* \"#utility.yul\":952:962   */\n  dup2\n    /* \"#utility.yul\":949:971   */\n  lt\n    /* \"#utility.yul\":928:946   */\n  0xffffffffffffffff\n    /* \"#utility.yul\":916:926   */\n  dup3\n    /* \"#utility.yul\":913:947   */\n  gt\n    /* \"#utility.yul\":910:972   */\n  or\n    /* \"#utility.yul\":907:995   */\n  iszero\n  tag_64\n  jumpi\n    /* \"#utility.yul\":975:993   */\n  tag_65\n  tag_32\n  jump\t// in\ntag_65:\n    /* \"#utility.yul\":907:995   */\ntag_64:\n    /* \"#utility.yul\":1015:1025   */\n  dup1\n    /* \"#utility.yul\":1011:1013   */\n  0x40\n    /* \"#utility.yul\":1004:1026   */\n  mstore\n    /* \"#utility.yul\":794:1032   */\n  pop\n    /* \"#utility.yul\":751:1032   */\n  pop\n  pop\n  jump\t// out\n    /* \"#utility.yul\":1038:1167   */\ntag_34:\n    /* \"#utility.yul\":1072:1078   */\n  0x00\n    /* \"#utility.yul\":1099:1119   */\n  tag_67\n  tag_27\n  jump\t// in\ntag_67:\n    /* \"#utility.yul\":1089:1119   */\n  swap1\n  pop\n    /* \"#utility.yul\":1128:1161   */\n  tag_68\n    /* \"#utility.yul\":1156:1160   */\n  dup3\n    /* \"#utility.yul\":1148:1154   */\n  dup3\n    /* \"#utility.yul\":1128:1161   */\n  tag_33\n  jump\t// in\ntag_68:\n    /* \"#utility.yul\":1038:1167   */\n  swap2\n  swap1\n  pop\n  jump\t// out\n    /* \"#utility.yul\":1173:1484   */\ntag_35:\n    /* \"#utility.yul\":1250:1254   */\n  0x00\n    /* \"#utility.yul\":1340:1358   */\n  0xffffffffffffffff\n    /* \"#utility.yul\":1332:1338   */\n  dup3\n    /* \"#utility.yul\":1329:1359   */\n  gt\n    /* \"#utility.yul\":1326:1382   */\n  iszero\n  tag_70\n  jumpi\n    /* \"#utility.yul\":1362:1380   */\n  tag_71\n  tag_32\n  jump\t// in\ntag_71:\n    /* \"#utility.yul\":1326:1382   */\ntag_70:\n    /* \"#utility.yul\":1412:1416   */\n  0x20\n    /* \"#utility.yul\":1404:1410   */\n  dup3\n    /* \"#utility.yul\":1400:1417   */\n  mul\n    /* \"#utility.yul\":1392:1417   */\n  swap1\n  pop\n    /* \"#utility.yul\":1472:1476   */\n  0x20\n    /* \"#utility.yul\":1466:1470   */\n  dup2\n    /* \"#utility.yul\":1462:1477   */\n  add\n    /* \"#utility.yul\":1454:1477   */\n  swap1\n  pop\n    /* \"#utility.yul\":1173:1484   */\n  swap2\n  swap1\n  pop\n  jump\t// out\n    /* \"#utility.yul\":1490:1607   */\ntag_36:\n    /* \"#utility.yul\":1599:1600   */\n  0x00\n    /* \"#utility.yul\":1596:1597   */\n  0x00\n    /* \"#utility.yul\":1589:1601   */\n  revert\n    /* \"#utility.yul\":1613:1739   */\ntag_37:\n    /* \"#utility.yul\":1650:1657   */\n  0x00\n    /* \"#utility.yul\":1690:1732   */\n  0xffffffffffffffffffffffffffffffffffffffff\n    /* \"#utility.yul\":1683:1688   */\n  dup3\n    /* \"#utility.yul\":1679:1733   */\n  and\n    /* \"#utility.yul\":1668:1733   */\n  swap1\n  pop\n    /* \"#utility.yul\":1613:1739   */\n  swap2\n  swap1\n  pop\n  jump\t// out\n    /* \"#utility.yul\":1745:1841   */\ntag_38:\n    /* \"#utility.yul\":1782:1789   */\n  0x00\n    /* \"#utility.yul\":1811:1835   */\n  tag_75\n    /* \"#utility.yul\":1829:1834   */\n  dup3\n    /* \"#utility.yul\":1811:1835   */\n  tag_37\n  jump\t// in\ntag_75:\n    /* \"#utility.yul\":1800:1835   */\n  swap1\n  pop\n    /* \"#utility.yul\":1745:1841   */\n  swap2\n  swap1\n  pop\n  jump\t// out\n    /* \"#utility.yul\":1847:1969   */\ntag_39:\n    /* \"#utility.yul\":1920:1944   */\n  tag_77\n    /* \"#utility.yul\":1938:1943   */\n  dup2\n    /* \"#utility.yul\":1920:1944   */\n  tag_38\n  jump\t// in\ntag_77:\n    /* \"#utility.yul\":1913:1918   */\n  dup2\n    /* \"#utility.yul\":1910:1945   */\n  eq\n    /* \"#utility.yul\":1900:1963   */\n  tag_78\n  jumpi\n    /* \"#utility.yul\":1959:1960   */\n  0x00\n    /* \"#utility.yul\":1956:1957   */\n  0x00\n    /* \"#utility.yul\":1949:1961   */\n  revert\n    /* \"#utility.yul\":1900:1963   */\ntag_78:\n    /* \"#utility.yul\":1847:1969   */\n  pop\n  jump\t// out\n    /* \"#utility.yul\":1975:2118   */\ntag_40:\n    /* \"#utility.yul\":2032:2037   */\n  0x00\n    /* \"#utility.yul\":2063:2069   */\n  dup2\n    /* \"#utility.yul\":2057:2070   */\n  mload\n    /* \"#utility.yul\":2048:2070   */\n  swap1\n  pop\n    /* \"#utility.yul\":2079:2112   */\n  tag_80\n    /* \"#utility.yul\":2106:2111   */\n  dup2\n    /* \"#utility.yul\":2079:2112   */\n  tag_39\n  jump\t// in\ntag_80:\n    /* \"#utility.yul\":1975:2118   */\n  swap3\n  swap2\n  pop\n  pop\n  jump\t// out\n    /* \"#utility.yul\":2141:2873   */\ntag_41:\n    /* \"#utility.yul\":2248:2253   */\n  0x00\n    /* \"#utility.yul\":2273:2354   */\n  tag_82\n    /* \"#utility.yul\":2289:2353   */\n  tag_83\n    /* \"#utility.yul\":2346:2352   */\n  dup5\n    /* \"#utility.yul\":2289:2353   */\n  tag_35\n  jump\t// in\ntag_83:\n    /* \"#utility.yul\":2273:2354   */\n  tag_34\n  jump\t// in\ntag_82:\n    /* \"#utility.yul\":2264:2354   */\n  swap1\n  pop\n    /* \"#utility.yul\":2374:2379   */\n  dup1\n    /* \"#utility.yul\":2403:2409   */\n  dup4\n    /* \"#utility.yul\":2396:2401   */\n  dup3\n    /* \"#utility.yul\":2389:2410   */\n  mstore\n    /* \"#utility.yul\":2437:2441   */\n  0x20\n    /* \"#utility.yul\":2430:2435   */\n  dup3\n    /* \"#utility.yul\":2426:2442   */\n  add\n    /* \"#utility.yul\":2419:2442   */\n  swap1\n  pop\n    /* \"#utility.yul\":2490:2494   */\n  0x20\n    /* \"#utility.yul\":2482:2488   */\n  dup5\n    /* \"#utility.yul\":2478:2495   */\n  mul\n    /* \"#utility.yul\":2470:2476   */\n  dup4\n    /* \"#utility.yul\":2466:2496   */\n  add\n    /* \"#utility.yul\":2519:2522   */\n  dup6\n    /* \"#utility.yul\":2511:2517   */\n  dup2\n    /* \"#utility.yul\":2508:2523   */\n  gt\n    /* \"#utility.yul\":2505:2627   */\n  iszero\n  tag_84\n  jumpi\n    /* \"#utility.yul\":2538:2617   */\n  tag_85\n  tag_36\n  jump\t// in\ntag_85:\n    /* \"#utility.yul\":2505:2627   */\ntag_84:\n    /* \"#utility.yul\":2653:2659   */\n  dup4\n    /* \"#utility.yul\":2636:2867   */\ntag_86:\n    /* \"#utility.yul\":2670:2676   */\n  dup2\n    /* \"#utility.yul\":2665:2668   */\n  dup2\n    /* \"#utility.yul\":2662:2677   */\n  lt\n    /* \"#utility.yul\":2636:2867   */\n  iszero\n  tag_88\n  jumpi\n    /* \"#utility.yul\":2745:2748   */\n  dup1\n    /* \"#utility.yul\":2774:2822   */\n  tag_89\n    /* \"#utility.yul\":2818:2821   */\n  dup9\n    /* \"#utility.yul\":2806:2816   */\n  dup3\n    /* \"#utility.yul\":2774:2822   */\n  tag_40\n  jump\t// in\ntag_89:\n    /* \"#utility.yul\":2769:2772   */\n  dup5\n    /* \"#utility.yul\":2762:2823   */\n  mstore\n    /* \"#utility.yul\":2852:2856   */\n  0x20\n    /* \"#utility.yul\":2847:2850   */\n  dup5\n    /* \"#utility.yul\":2843:2857   */\n  add\n    /* \"#utility.yul\":2836:2857   */\n  swap4\n  pop\n    /* \"#utility.yul\":2712:2867   */\n  pop\n    /* \"#utility.yul\":2696:2700   */\n  0x20\n    /* \"#utility.yul\":2691:2694   */\n  dup2\n    /* \"#utility.yul\":2687:2701   */\n  add\n    /* \"#utility.yul\":2680:2701   */\n  swap1\n  pop\n    /* \"#utility.yul\":2636:2867   */\n  jump(tag_86)\ntag_88:\n    /* \"#utility.yul\":2640:2661   */\n  pop\n    /* \"#utility.yul\":2254:2873   */\n  pop\n  pop\n    /* \"#utility.yul\":2141:2873   */\n  swap4\n  swap3\n  pop\n  pop\n  pop\n  jump\t// out\n    /* \"#utility.yul\":2896:3281   */\ntag_42:\n    /* \"#utility.yul\":2978:2983   */\n  0x00\n    /* \"#utility.yul\":3027:3030   */\n  dup3\n    /* \"#utility.yul\":3020:3024   */\n  0x1f\n    /* \"#utility.yul\":3012:3018   */\n  dup4\n    /* \"#utility.yul\":3008:3025   */\n  add\n    /* \"#utility.yul\":3004:3031   */\n  slt\n    /* \"#utility.yul\":2994:3116   */\n  tag_91\n  jumpi\n    /* \"#utility.yul\":3035:3114   */\n  tag_92\n  tag_30\n  jump\t// in\ntag_92:\n    /* \"#utility.yul\":2994:3116   */\ntag_91:\n    /* \"#utility.yul\":3145:3151   */\n  dup2\n    /* \"#utility.yul\":3139:3152   */\n  mload\n    /* \"#utility.yul\":3170:3275   */\n  tag_93\n    /* \"#utility.yul\":3271:3274   */\n  dup5\n    /* \"#utility.yul\":3263:3269   */\n  dup3\n    /* \"#utility.yul\":3256:3260   */\n  0x20\n    /* \"#utility.yul\":3248:3254   */\n  dup7\n    /* \"#utility.yul\":3244:3261   */\n  add\n    /* \"#utility.yul\":3170:3275   */\n  tag_41\n  jump\t// in\ntag_93:\n    /* \"#utility.yul\":3161:3275   */\n  swap2\n  pop\n    /* \"#utility.yul\":2984:3281   */\n  pop\n    /* \"#utility.yul\":2896:3281   */\n  swap3\n  swap2\n  pop\n  pop\n  jump\t// out\n    /* \"#utility.yul\":3287:3364   */\ntag_43:\n    /* \"#utility.yul\":3324:3331   */\n  0x00\n    /* \"#utility.yul\":3353:3358   */\n  dup2\n    /* \"#utility.yul\":3342:3358   */\n  swap1\n  pop\n    /* \"#utility.yul\":3287:3364   */\n  swap2\n  swap1\n  pop\n  jump\t// out\n    /* \"#utility.yul\":3370:3492   */\ntag_44:\n    /* \"#utility.yul\":3443:3467   */\n  tag_96\n    /* \"#utility.yul\":3461:3466   */\n  dup2\n    /* \"#utility.yul\":3443:3467   */\n  tag_43\n  jump\t// in\ntag_96:\n    /* \"#utility.yul\":3436:3441   */\n  dup2\n    /* \"#utility.yul\":3433:3468   */\n  eq\n    /* \"#utility.yul\":3423:3486   */\n  tag_97\n  jumpi\n    /* \"#utility.yul\":3482:3483   */\n  0x00\n    /* \"#utility.yul\":3479:3480   */\n  0x00\n    /* \"#utility.yul\":3472:3484   */\n  revert\n    /* \"#utility.yul\":3423:3486   */\ntag_97:\n    /* \"#utility.yul\":3370:3492   */\n  pop\n  jump\t// out\n    /* \"#utility.yul\":3498:3641   */\ntag_45:\n    /* \"#utility.yul\":3555:3560   */\n  0x00\n    /* \"#utility.yul\":3586:3592   */\n  dup2\n    /* \"#utility.yul\":3580:3593   */\n  mload\n    /* \"#utility.yul\":3571:3593   */\n  swap1\n  pop\n    /* \"#utility.yul\":3602:3635   */\n  tag_99\n    /* \"#utility.yul\":3629:3634   */\n  dup2\n    /* \"#utility.yul\":3602:3635   */\n  tag_44\n  jump\t// in\ntag_99:\n    /* \"#utility.yul\":3498:3641   */\n  swap3\n  swap2\n  pop\n  pop\n  jump\t// out\n    /* \"#utility.yul\":3647:4357   */\ntag_3:\n    /* \"#utility.yul\":3751:3757   */\n  0x00\n    /* \"#utility.yul\":3759:3765   */\n  0x00\n    /* \"#utility.yul\":3808:3810   */\n  0x40\n    /* \"#utility.yul\":3796:3805   */\n  dup4\n    /* \"#utility.yul\":3787:3794   */\n  dup6\n    /* \"#utility.yul\":3783:3806   */\n  sub\n    /* \"#utility.yul\":3779:3811   */\n  slt\n    /* \"#utility.yul\":3776:3895   */\n  iszero\n  tag_101\n  jumpi\n    /* \"#utility.yul\":3814:3893   */\n  tag_102\n  tag_28\n  jump\t// in\ntag_102:\n    /* \"#utility.yul\":3776:3895   */\ntag_101:\n    /* \"#utility.yul\":3955:3956   */\n  0x00\n    /* \"#utility.yul\":3944:3953   */\n  dup4\n    /* \"#utility.yul\":3940:3957   */\n  add\n    /* \"#utility.yul\":3934:3958   */\n  mload\n    /* \"#utility.yul\":3985:4003   */\n  0xffffffffffffffff\n    /* \"#utility.yul\":3977:3983   */\n  dup2\n    /* \"#utility.yul\":3974:4004   */\n  gt\n    /* \"#utility.yul\":3971:4088   */\n  iszero\n  tag_103\n  jumpi\n    /* \"#utility.yul\":4007:4086   */\n  tag_104\n  tag_29\n  jump\t// in\ntag_104:\n    /* \"#utility.yul\":3971:4088   */\ntag_103:\n    /* \"#utility.yul\":4112:4201   */\n  tag_105\n    /* \"#utility.yul\":4193:4200   */\n  dup6\n    /* \"#utility.yul\":4184:4190   */\n  dup3\n    /* \"#utility.yul\":4173:4182   */\n  dup7\n    /* \"#utility.yul\":4169:4191   */\n  add\n    /* \"#utility.yul\":4112:4201   */\n  tag_42\n  jump\t// in\ntag_105:\n    /* \"#utility.yul\":4102:4201   */\n  swap3\n  pop\n    /* \"#utility.yul\":3905:4211   */\n  pop\n    /* \"#utility.yul\":4250:4252   */\n  0x20\n    /* \"#utility.yul\":4276:4340   */\n  tag_106\n    /* \"#utility.yul\":4332:4339   */\n  dup6\n    /* \"#utility.yul\":4323:4329   */\n  dup3\n    /* \"#utility.yul\":4312:4321   */\n  dup7\n    /* \"#utility.yul\":4308:4330   */\n  add\n    /* \"#utility.yul\":4276:4340   */\n  tag_45\n  jump\t// in\ntag_106:\n    /* \"#utility.yul\":4266:4340   */\n  swap2\n  pop\n    /* \"#utility.yul\":4221:4350   */\n  pop\n    /* \"#utility.yul\":3647:4357   */\n  swap3\n  pop\n  swap3\n  swap1\n  pop\n  jump\t// out\n    /* \"#utility.yul\":4363:4532   */\ntag_46:\n    /* \"#utility.yul\":4447:4458   */\n  0x00\n    /* \"#utility.yul\":4481:4487   */\n  dup3\n    /* \"#utility.yul\":4476:4479   */\n  dup3\n    /* \"#utility.yul\":4469:4488   */\n  mstore\n    /* \"#utility.yul\":4521:4525   */\n  0x20\n    /* \"#utility.yul\":4516:4519   */\n  dup3\n    /* \"#utility.yul\":4512:4526   */\n  add\n    /* \"#utility.yul\":4497:4526   */\n  swap1\n  pop\n    /* \"#utility.yul\":4363:4532   */\n  swap3\n  swap2\n  pop\n  pop\n  jump\t// out\n    /* \"#utility.yul\":4538:4703   */\ntag_47:\n    /* \"#utility.yul\":4678:4695   */\n  0x4f776e6572732072657175697265640000000000000000000000000000000000\n    /* \"#utility.yul\":4674:4675   */\n  0x00\n    /* \"#utility.yul\":4666:4672   */\n  dup3\n    /* \"#utility.yul\":4662:4676   */\n  add\n    /* \"#utility.yul\":4655:4696   */\n  mstore\n    /* \"#utility.yul\":4538:4703   */\n  pop\n  jump\t// out\n    /* \"#utility.yul\":4709:5075   */\ntag_48:\n    /* \"#utility.yul\":4851:4854   */\n  0x00\n    /* \"#utility.yul\":4872:4939   */\n  tag_110\n    /* \"#utility.yul\":4936:4938   */\n  0x0f\n    /* \"#utility.yul\":4931:4934   */\n  dup4\n    /* \"#utility.yul\":4872:4939   */\n  tag_46\n  jump\t// in\ntag_110:\n    /* \"#utility.yul\":4865:4939   */\n  swap2\n  pop\n    /* \"#utility.yul\":4948:5041   */\n  tag_111\n    /* \"#utility.yul\":5037:5040   */\n  dup3\n    /* \"#utility.yul\":4948:5041   */\n  tag_47\n  jump\t// in\ntag_111:\n    /* \"#utility.yul\":5066:5068   */\n  0x20\n    /* \"#utility.yul\":5061:5064   */\n  dup3\n    /* \"#utility.yul\":5057:5069   */\n  add\n    /* \"#utility.yul\":5050:5069   */\n  swap1\n  pop\n    /* \"#utility.yul\":4709:5075   */\n  swap2\n  swap1\n  pop\n  jump\t// out\n    /* \"#utility.yul\":5081:5500   */\ntag_8:\n    /* \"#utility.yul\":5247:5251   */\n  0x00\n    /* \"#utility.yul\":5285:5287   */\n  0x20\n    /* \"#utility.yul\":5274:5283   */\n  dup3\n    /* \"#utility.yul\":5270:5288   */\n  add\n    /* \"#utility.yul\":5262:5288   */\n  swap1\n  pop\n    /* \"#utility.yul\":5334:5343   */\n  dup2\n    /* \"#utility.yul\":5328:5332   */\n  dup2\n    /* \"#utility.yul\":5324:5344   */\n  sub\n    /* \"#utility.yul\":5320:5321   */\n  0x00\n    /* \"#utility.yul\":5309:5318   */\n  dup4\n    /* \"#utility.yul\":5305:5322   */\n  add\n    /* \"#utility.yul\":5298:5345   */\n  mstore\n    /* \"#utility.yul\":5362:5493   */\n  tag_113\n    /* \"#utility.yul\":5488:5492   */\n  dup2\n    /* \"#utility.yul\":5362:5493   */\n  tag_48\n  jump\t// in\ntag_113:\n    /* \"#utility.yul\":5354:5493   */\n  swap1\n  pop\n    /* \"#utility.yul\":5081:5500   */\n  swap2\n  swap1\n  pop\n  jump\t// out\n    /* \"#utility.yul\":5506:5672   */\ntag_49:\n    /* \"#utility.yul\":5646:5664   */\n  0x496e76616c696420726571756972656400000000000000000000000000000000\n    /* \"#utility.yul\":5642:5643   */\n  0x00\n    /* \"#utility.yul\":5634:5640   */\n  dup3\n    /* \"#utility.yul\":5630:5644   */\n  add\n    /* \"#utility.yul\":5623:5665   */\n  mstore\n    /* \"#utility.yul\":5506:5672   */\n  pop\n  jump\t// out\n    /* \"#utility.yul\":5678:6044   */\ntag_50:\n    /* \"#utility.yul\":5820:5823   */\n  0x00\n    /* \"#utility.yul\":5841:5908   */\n  tag_116\n    /* \"#utility.yul\":5905:5907   */\n  0x10\n    /* \"#utility.yul\":5900:5903   */\n  dup4\n    /* \"#utility.yul\":5841:5908   */\n  tag_46\n  jump\t// in\ntag_116:\n    /* \"#utility.yul\":5834:5908   */\n  swap2\n  pop\n    /* \"#utility.yul\":5917:6010   */\n  tag_117\n    /* \"#utility.yul\":6006:6009   */\n  dup3\n    /* \"#utility.yul\":5917:6010   */\n  tag_49\n  jump\t// in\ntag_117:\n    /* \"#utility.yul\":6035:6037   */\n  0x20\n    /* \"#utility.yul\":6030:6033   */\n  dup3\n    /* \"#utility.yul\":6026:6038   */\n  add\n    /* \"#utility.yul\":6019:6038   */\n  swap1\n  pop\n    /* \"#utility.yul\":5678:6044   */\n  swap2\n  swap1\n  pop\n  jump\t// out\n    /* \"#utility.yul\":6050:6469   */\ntag_12:\n    /* \"#utility.yul\":6216:6220   */\n  0x00\n    /* \"#utility.yul\":6254:6256   */\n  0x20\n    /* \"#utility.yul\":6243:6252   */\n  dup3\n    /* \"#utility.yul\":6239:6257   */\n  add\n    /* \"#utility.yul\":6231:6257   */\n  swap1\n  pop\n    /* \"#utility.yul\":6303:6312   */\n  dup2\n    /* \"#utility.yul\":6297:6301   */\n  dup2\n    /* \"#utility.yul\":6293:6313   */\n  sub\n    /* \"#utility.yul\":6289:6290   */\n  0x00\n    /* \"#utility.yul\":6278:6287   */\n  dup4\n    /* \"#utility.yul\":6274:6291   */\n  add\n    /* \"#utility.yul\":6267:6314   */\n  mstore\n    /* \"#utility.yul\":6331:6462   */\n  tag_119\n    /* \"#utility.yul\":6457:6461   */\n  dup2\n    /* \"#utility.yul\":6331:6462   */\n  tag_50\n  jump\t// in\ntag_119:\n    /* \"#utility.yul\":6323:6462   */\n  swap1\n  pop\n    /* \"#utility.yul\":6050:6469   */\n  swap2\n  swap1\n  pop\n  jump\t// out\n    /* \"#utility.yul\":6475:6655   */\ntag_18:\n    /* \"#utility.yul\":6523:6600   */\n  0x4e487b7100000000000000000000000000000000000000000000000000000000\n    /* \"#utility.yul\":6520:6521   */\n  0x00\n    /* \"#utility.yul\":6513:6601   */\n  mstore\n    /* \"#utility.yul\":6620:6624   */\n  0x32\n    /* \"#utility.yul\":6617:6618   */\n  0x04\n    /* \"#utility.yul\":6610:6625   */\n  mstore\n    /* \"#utility.yul\":6644:6648   */\n  0x24\n    /* \"#utility.yul\":6641:6642   */\n  0x00\n    /* \"#utility.yul\":6634:6649   */\n  revert\n    /* \"#utility.yul\":6661:6824   */\ntag_51:\n    /* \"#utility.yul\":6801:6816   */\n  0x496e76616c6964206f776e657200000000000000000000000000000000000000\n    /* \"#utility.yul\":6797:6798   */\n  0x00\n    /* \"#utility.yul\":6789:6795   */\n  dup3\n    /* \"#utility.yul\":6785:6799   */\n  add\n    /* \"#utility.yul\":6778:6817   */\n  mstore\n    /* \"#utility.yul\":6661:6824   */\n  pop\n  jump\t// out\n    /* \"#utility.yul\":6830:7196   */\ntag_52:\n    /* \"#utility.yul\":6972:6975   */\n  0x00\n    /* \"#utility.yul\":6993:7060   */\n  tag_123\n    /* \"#utility.yul\":7057:7059   */\n  0x0d\n    /* \"#utility.yul\":7052:7055   */\n  dup4\n    /* \"#utility.yul\":6993:7060   */\n  tag_46\n  jump\t// in\ntag_123:\n    /* \"#utility.yul\":6986:7060   */\n  swap2\n  pop\n    /* \"#utility.yul\":7069:7162   */\n  tag_124\n    /* \"#utility.yul\":7158:7161   */\n  dup3\n    /* \"#utility.yul\":7069:7162   */\n  tag_51\n  jump\t// in\ntag_124:\n    /* \"#utility.yul\":7187:7189   */\n  0x20\n    /* \"#utility.yul\":7182:7185   */\n  dup3\n    /* \"#utility.yul\":7178:7190   */\n  add\n    /* \"#utility.yul\":7171:7190   */\n  swap1\n  pop\n    /* \"#utility.yul\":6830:7196   */\n  swap2\n  swap1\n  pop\n  jump\t// out\n    /* \"#utility.yul\":7202:7621   */\ntag_21:\n    /* \"#utility.yul\":7368:7372   */\n  0x00\n    /* \"#utility.yul\":7406:7408   */\n  0x20\n    /* \"#utility.yul\":7395:7404   */\n  dup3\n    /* \"#utility.yul\":7391:7409   */\n  add\n    /* \"#utility.yul\":7383:7409   */\n  swap1\n  pop\n    /* \"#utility.yul\":7455:7464   */\n  dup2\n    /* \"#utility.yul\":7449:7453   */\n  dup2\n    /* \"#utility.yul\":7445:7465   */\n  sub\n    /* \"#utility.yul\":7441:7442   */\n  0x00\n    /* \"#utility.yul\":7430:7439   */\n  dup4\n    /* \"#utility.yul\":7426:7443   */\n  add\n    /* \"#utility.yul\":7419:7466   */\n  mstore\n    /* \"#utility.yul\":7483:7614   */\n  tag_126\n    /* \"#utility.yul\":7609:7613   */\n  dup2\n    /* \"#utility.yul\":7483:7614   */\n  tag_52\n  jump\t// in\ntag_126:\n    /* \"#utility.yul\":7475:7614   */\n  swap1\n  pop\n    /* \"#utility.yul\":7202:7621   */\n  swap2\n  swap1\n  pop\n  jump\t// out\n    /* \"#utility.yul\":7627:7792   */\ntag_53:\n    /* \"#utility.yul\":7767:7784   */\n  0x4475706c6963617465206f776e65720000000000000000000000000000000000\n    /* \"#utility.yul\":7763:7764   */\n  0x00\n    /* \"#utility.yul\":7755:7761   */\n  dup3\n    /* \"#utility.yul\":7751:7765   */\n  add\n    /* \"#utility.yul\":7744:7785   */\n  mstore\n    /* \"#utility.yul\":7627:7792   */\n  pop\n  jump\t// out\n    /* \"#utility.yul\":7798:8164   */\ntag_54:\n    /* \"#utility.yul\":7940:7943   */\n  0x00\n    /* \"#utility.yul\":7961:8028   */\n  tag_129\n    /* \"#utility.yul\":8025:8027   */\n  0x0f\n    /* \"#utility.yul\":8020:8023   */\n  dup4\n    /* \"#utility.yul\":7961:8028   */\n  tag_46\n  jump\t// in\ntag_129:\n    /* \"#utility.yul\":7954:8028   */\n  swap2\n  pop\n    /* \"#utility.yul\":8037:8130   */\n  tag_130\n    /* \"#utility.yul\":8126:8129   */\n  dup3\n    /* \"#utility.yul\":8037:8130   */\n  tag_53\n  jump\t// in\ntag_130:\n    /* \"#utility.yul\":8155:8157   */\n  0x20\n    /* \"#utility.yul\":8150:8153   */\n  dup3\n    /* \"#utility.yul\":8146:8158   */\n  add\n    /* \"#utility.yul\":8139:8158   */\n  swap1\n  pop\n    /* \"#utility.yul\":7798:8164   */\n  swap2\n  swap1\n  pop\n  jump\t// out\n    /* \"#utility.yul\":8170:8589   */\ntag_24:\n    /* \"#utility.yul\":8336:8340   */\n  0x00\n    /* \"#utility.yul\":8374:8376   */\n  0x20\n    /* \"#utility.yul\":8363:8372   */\n  dup3\n    /* \"#utility.yul\":8359:8377   */\n  add\n    /* \"#utility.yul\":8351:8377   */\n  swap1\n  pop\n    /* \"#utility.yul\":8423:8432   */\n  dup2\n    /* \"#utility.yul\":8417:8421   */\n  dup2\n    /* \"#utility.yul\":8413:8433   */\n  sub\n    /* \"#utility.yul\":8409:8410   */\n  0x00\n    /* \"#utility.yul\":8398:8407   */\n  dup4\n    /* \"#utility.yul\":8394:8411   */\n  add\n    /* \"#utility.yul\":8387:8434   */\n  mstore\n    /* \"#utility.yul\":8451:8582   */\n  tag_132\n    /* \"#utility.yul\":8577:8581   */\n  dup2\n    /* \"#utility.yul\":8451:8582   */\n  tag_54\n  jump\t// in\ntag_132:\n    /* \"#utility.yul\":8443:8582   */\n  swap1\n  pop\n    /* \"#utility.yul\":8170:8589   */\n  swap2\n  swap1\n  pop\n  jump\t// out\n    /* \"contracts/lesson8.1/02MultiSigWallet.sol\":115:4896  contract MultiSigWallet {... */\ntag_26:\n  dataSize(sub_0)\n  dup1\n  dataOffset(sub_0)\n  0x00\n  codecopy\n  0x00\n  return\nstop\n\nsub_0: assembly {\n        /* \"contracts/lesson8.1/02MultiSigWallet.sol\":115:4896  contract MultiSigWallet {... */\n      mstore(0x40, 0x80)\n      jumpi(tag_1, lt(calldatasize, 0x04))\n      shr(0xe0, calldataload(0x00))\n      dup1\n      0x9ace38c2\n      gt\n      tag_11\n      jumpi\n      dup1\n      0x9ace38c2\n      eq\n      tag_7\n      jumpi\n      dup1\n      0xba0179b5\n      eq\n      tag_8\n      jumpi\n      dup1\n      0xdc8452cd\n      eq\n      tag_9\n      jumpi\n      dup1\n      0xfe0d94c1\n      eq\n      tag_10\n      jumpi\n      jump(tag_2)\n    tag_11:\n      dup1\n      0x025e7c27\n      eq\n      tag_3\n      jumpi\n      dup1\n      0x14de327f\n      eq\n      tag_4\n      jumpi\n      dup1\n      0x2f54bf6e\n      eq\n      tag_5\n      jumpi\n      dup1\n      0x3411c81c\n      eq\n      tag_6\n      jumpi\n      jump(tag_2)\n    tag_1:\n      jumpi(tag_2, calldatasize)\n        /* \"contracts/lesson8.1/02MultiSigWallet.sol\":2569:2579  msg.sender */\n      caller\n        /* \"contracts/lesson8.1/02MultiSigWallet.sol\":2561:2591  Deposit(msg.sender, msg.value) */\n      0xffffffffffffffffffffffffffffffffffffffff\n      and\n      0xe1fffcc4923d04b559f4d29a8bfc6cda04eb5b0d3c460751c2402c5c5cc9109c\n        /* \"contracts/lesson8.1/02MultiSigWallet.sol\":2581:2590  msg.value */\n      callvalue\n        /* \"contracts/lesson8.1/02MultiSigWallet.sol\":2561:2591  Deposit(msg.sender, msg.value) */\n      mload(0x40)\n      tag_14\n      swap2\n      swap1\n      tag_15\n      jump\t// in\n    tag_14:\n      mload(0x40)\n      dup1\n      swap2\n      sub\n      swap1\n      log2\n        /* \"contracts/lesson8.1/02MultiSigWallet.sol\":115:4896  contract MultiSigWallet {... */\n      stop\n    tag_2:\n      revert(0x00, 0x00)\n        /* \"contracts/lesson8.1/02MultiSigWallet.sol\":384:407  address[] public owners */\n    tag_3:\n      callvalue\n      dup1\n      iszero\n      tag_16\n      jumpi\n      revert(0x00, 0x00)\n    tag_16:\n      pop\n      tag_17\n      0x04\n      dup1\n      calldatasize\n      sub\n      dup2\n      add\n      swap1\n      tag_18\n      swap2\n      swap1\n      tag_19\n      jump\t// in\n    tag_18:\n      tag_20\n      jump\t// in\n    tag_17:\n      mload(0x40)\n      tag_21\n      swap2\n      swap1\n      tag_22\n      jump\t// in\n    tag_21:\n      mload(0x40)\n      dup1\n      swap2\n      sub\n      swap1\n      return\n        /* \"contracts/lesson8.1/02MultiSigWallet.sol\":2796:3246  function submit(... */\n    tag_4:\n      callvalue\n      dup1\n      iszero\n      tag_23\n      jumpi\n      revert(0x00, 0x00)\n    tag_23:\n      pop\n      tag_24\n      0x04\n      dup1\n      calldatasize\n      sub\n      dup2\n      add\n      swap1\n      tag_25\n      swap2\n      swap1\n      tag_26\n      jump\t// in\n    tag_25:\n      tag_27\n      jump\t// in\n    tag_24:\n      mload(0x40)\n      tag_28\n      swap2\n      swap1\n      tag_15\n      jump\t// in\n    tag_28:\n      mload(0x40)\n      dup1\n      swap2\n      sub\n      swap1\n      return\n        /* \"contracts/lesson8.1/02MultiSigWallet.sol\":414:453  mapping(address => bool) public isOwner */\n    tag_5:\n      callvalue\n      dup1\n      iszero\n      tag_29\n      jumpi\n      revert(0x00, 0x00)\n    tag_29:\n      pop\n      tag_30\n      0x04\n      dup1\n      calldatasize\n      sub\n      dup2\n      add\n      swap1\n      tag_31\n      swap2\n      swap1\n      tag_32\n      jump\t// in\n    tag_31:\n      tag_33\n      jump\t// in\n    tag_30:\n      mload(0x40)\n      tag_34\n      swap2\n      swap1\n      tag_35\n      jump\t// in\n    tag_34:\n      mload(0x40)\n      dup1\n      swap2\n      sub\n      swap1\n      return\n        /* \"contracts/lesson8.1/02MultiSigWallet.sol\":962:1027  mapping(uint256 => mapping(address => bool)) public confirmations */\n    tag_6:\n      callvalue\n      dup1\n      iszero\n      tag_36\n      jumpi\n      revert(0x00, 0x00)\n    tag_36:\n      pop\n      tag_37\n      0x04\n      dup1\n      calldatasize\n      sub\n      dup2\n      add\n      swap1\n      tag_38\n      swap2\n      swap1\n      tag_39\n      jump\t// in\n    tag_38:\n      tag_40\n      jump\t// in\n    tag_37:\n      mload(0x40)\n      tag_41\n      swap2\n      swap1\n      tag_35\n      jump\t// in\n    tag_41:\n      mload(0x40)\n      dup1\n      swap2\n      sub\n      swap1\n      return\n        /* \"contracts/lesson8.1/02MultiSigWallet.sol\":846:879  Transaction[] public transactions */\n    tag_7:\n      callvalue\n      dup1\n      iszero\n      tag_42\n      jumpi\n      revert(0x00, 0x00)\n    tag_42:\n      pop\n      tag_43\n      0x04\n      dup1\n      calldatasize\n      sub\n      dup2\n      add\n      swap1\n      tag_44\n      swap2\n      swap1\n      tag_19\n      jump\t// in\n    tag_44:\n      tag_45\n      jump\t// in\n    tag_43:\n      mload(0x40)\n      tag_46\n      swap6\n      swap5\n      swap4\n      swap3\n      swap2\n      swap1\n      tag_47\n      jump\t// in\n    tag_46:\n      mload(0x40)\n      dup1\n      swap2\n      sub\n      swap1\n      return\n        /* \"contracts/lesson8.1/02MultiSigWallet.sol\":3335:3707  function confirm(uint256 _txId)... */\n    tag_8:\n      callvalue\n      dup1\n      iszero\n      tag_48\n      jumpi\n      revert(0x00, 0x00)\n    tag_48:\n      pop\n      tag_49\n      0x04\n      dup1\n      calldatasize\n      sub\n      dup2\n      add\n      swap1\n      tag_50\n      swap2\n      swap1\n      tag_19\n      jump\t// in\n    tag_50:\n      tag_51\n      jump\t// in\n    tag_49:\n      stop\n        /* \"contracts/lesson8.1/02MultiSigWallet.sol\":490:513  uint256 public required */\n    tag_9:\n      callvalue\n      dup1\n      iszero\n      tag_52\n      jumpi\n      revert(0x00, 0x00)\n    tag_52:\n      pop\n      tag_53\n      tag_54\n      jump\t// in\n    tag_53:\n      mload(0x40)\n      tag_55\n      swap2\n      swap1\n      tag_15\n      jump\t// in\n    tag_55:\n      mload(0x40)\n      dup1\n      swap2\n      sub\n      swap1\n      return\n        /* \"contracts/lesson8.1/02MultiSigWallet.sol\":3917:4893  function execute(uint256 _txId)... */\n    tag_10:\n      callvalue\n      dup1\n      iszero\n      tag_56\n      jumpi\n      revert(0x00, 0x00)\n    tag_56:\n      pop\n      tag_57\n      0x04\n      dup1\n      calldatasize\n      sub\n      dup2\n      add\n      swap1\n      tag_58\n      swap2\n      swap1\n      tag_19\n      jump\t// in\n    tag_58:\n      tag_59\n      jump\t// in\n    tag_57:\n      stop\n        /* \"contracts/lesson8.1/02MultiSigWallet.sol\":384:407  address[] public owners */\n    tag_20:\n      0x00\n      dup2\n      dup2\n      sload\n      dup2\n      lt\n      tag_60\n      jumpi\n      0x00\n      dup1\n      revert\n    tag_60:\n      swap1\n      0x00\n      mstore\n      keccak256(0x00, 0x20)\n      add\n      0x00\n      swap2\n      pop\n      sload\n      swap1\n      0x0100\n      exp\n      swap1\n      div\n      0xffffffffffffffffffffffffffffffffffffffff\n      and\n      dup2\n      jump\t// out\n        /* \"contracts/lesson8.1/02MultiSigWallet.sol\":2796:3246  function submit(... */\n    tag_27:\n        /* \"contracts/lesson8.1/02MultiSigWallet.sol\":2923:2930  uint256 */\n      0x00\n        /* \"contracts/lesson8.1/02MultiSigWallet.sol\":1405:1412  isOwner */\n      0x01\n        /* \"contracts/lesson8.1/02MultiSigWallet.sol\":1405:1424  isOwner[msg.sender] */\n      0x00\n        /* \"contracts/lesson8.1/02MultiSigWallet.sol\":1413:1423  msg.sender */\n      caller\n        /* \"contracts/lesson8.1/02MultiSigWallet.sol\":1405:1424  isOwner[msg.sender] */\n      0xffffffffffffffffffffffffffffffffffffffff\n      and\n      0xffffffffffffffffffffffffffffffffffffffff\n      and\n      dup2\n      mstore\n      0x20\n      add\n      swap1\n      dup2\n      mstore\n      0x20\n      add\n      0x00\n      keccak256\n      0x00\n      swap1\n      sload\n      swap1\n      0x0100\n      exp\n      swap1\n      div\n      0xff\n      and\n        /* \"contracts/lesson8.1/02MultiSigWallet.sol\":1400:1443  if (!isOwner[msg.sender]) revert NotOwner() */\n      tag_63\n      jumpi\n        /* \"contracts/lesson8.1/02MultiSigWallet.sol\":1433:1443  NotOwner() */\n      mload(0x40)\n      0x30cd747100000000000000000000000000000000000000000000000000000000\n      dup2\n      mstore\n      0x04\n      add\n      mload(0x40)\n      dup1\n      swap2\n      sub\n      swap1\n      revert\n        /* \"contracts/lesson8.1/02MultiSigWallet.sol\":1400:1443  if (!isOwner[msg.sender]) revert NotOwner() */\n    tag_63:\n        /* \"contracts/lesson8.1/02MultiSigWallet.sol\":2943:2955  uint256 txId */\n      0x00\n        /* \"contracts/lesson8.1/02MultiSigWallet.sol\":2958:2970  transactions */\n      0x03\n        /* \"contracts/lesson8.1/02MultiSigWallet.sol\":2958:2977  transactions.length */\n      dup1\n      sload\n      swap1\n      pop\n        /* \"contracts/lesson8.1/02MultiSigWallet.sol\":2943:2977  uint256 txId = transactions.length */\n      swap1\n      pop\n        /* \"contracts/lesson8.1/02MultiSigWallet.sol\":2998:3010  transactions */\n      0x03\n        /* \"contracts/lesson8.1/02MultiSigWallet.sol\":3016:3177  Transaction({... */\n      mload(0x40)\n      dup1\n      0xa0\n      add\n      0x40\n      mstore\n      dup1\n        /* \"contracts/lesson8.1/02MultiSigWallet.sol\":3047:3050  _to */\n      dup8\n        /* \"contracts/lesson8.1/02MultiSigWallet.sol\":3016:3177  Transaction({... */\n      0xffffffffffffffffffffffffffffffffffffffff\n      and\n      dup2\n      mstore\n      0x20\n      add\n        /* \"contracts/lesson8.1/02MultiSigWallet.sol\":3072:3078  _value */\n      dup7\n        /* \"contracts/lesson8.1/02MultiSigWallet.sol\":3016:3177  Transaction({... */\n      dup2\n      mstore\n      0x20\n      add\n        /* \"contracts/lesson8.1/02MultiSigWallet.sol\":3099:3104  _data */\n      dup6\n        /* \"contracts/lesson8.1/02MultiSigWallet.sol\":3016:3177  Transaction({... */\n      dup2\n      mstore\n      0x20\n      add\n        /* \"contracts/lesson8.1/02MultiSigWallet.sol\":3129:3134  false */\n      0x00\n        /* \"contracts/lesson8.1/02MultiSigWallet.sol\":3016:3177  Transaction({... */\n      iszero\n      iszero\n      dup2\n      mstore\n      0x20\n      add\n        /* \"contracts/lesson8.1/02MultiSigWallet.sol\":3164:3165  0 */\n      0x00\n        /* \"contracts/lesson8.1/02MultiSigWallet.sol\":3016:3177  Transaction({... */\n      dup2\n      mstore\n      pop\n        /* \"contracts/lesson8.1/02MultiSigWallet.sol\":2998:3178  transactions.push(Transaction({... */\n      swap1\n      dup1\n      0x01\n      dup2\n      sload\n      add\n      dup1\n      dup3\n      sstore\n      dup1\n      swap2\n      pop\n      pop\n      0x01\n      swap1\n      sub\n      swap1\n      0x00\n      mstore\n      keccak256(0x00, 0x20)\n      swap1\n      0x05\n      mul\n      add\n      0x00\n      swap1\n      swap2\n      swap1\n      swap2\n      swap1\n      swap2\n      pop\n      0x00\n      dup3\n      add\n      mload\n      dup2\n      0x00\n      add\n      exp(0x0100, 0x00)\n      dup2\n      sload\n      dup2\n      0xffffffffffffffffffffffffffffffffffffffff\n      mul\n      not\n      and\n      swap1\n      dup4\n      0xffffffffffffffffffffffffffffffffffffffff\n      and\n      mul\n      or\n      swap1\n      sstore\n      pop\n      0x20\n      dup3\n      add\n      mload\n      dup2\n      0x01\n      add\n      sstore\n      0x40\n      dup3\n      add\n      mload\n      dup2\n      0x02\n      add\n      swap1\n      dup2\n      tag_66\n      swap2\n      swap1\n      tag_67\n      jump\t// in\n    tag_66:\n      pop\n      0x60\n      dup3\n      add\n      mload\n      dup2\n      0x03\n      add\n      exp(0x0100, 0x00)\n      dup2\n      sload\n      dup2\n      0xff\n      mul\n      not\n      and\n      swap1\n      dup4\n      iszero\n      iszero\n      mul\n      or\n      swap1\n      sstore\n      pop\n      0x80\n      dup3\n      add\n      mload\n      dup2\n      0x04\n      add\n      sstore\n      pop\n      pop\n        /* \"contracts/lesson8.1/02MultiSigWallet.sol\":3211:3215  txId */\n      dup1\n        /* \"contracts/lesson8.1/02MultiSigWallet.sol\":3204:3216  Submit(txId) */\n      0x08324b3d745b914e3abd4ffbfead91e3b78391a98c173202129215ab933adfbe\n      mload(0x40)\n      mload(0x40)\n      dup1\n      swap2\n      sub\n      swap1\n      log2\n        /* \"contracts/lesson8.1/02MultiSigWallet.sol\":3234:3238  txId */\n      dup1\n        /* \"contracts/lesson8.1/02MultiSigWallet.sol\":3227:3238  return txId */\n      swap2\n      pop\n      pop\n        /* \"contracts/lesson8.1/02MultiSigWallet.sol\":2796:3246  function submit(... */\n      swap4\n      swap3\n      pop\n      pop\n      pop\n      jump\t// out\n        /* \"contracts/lesson8.1/02MultiSigWallet.sol\":414:453  mapping(address => bool) public isOwner */\n    tag_33:\n      mstore(0x20, 0x01)\n      dup1\n      0x00\n      mstore\n      keccak256(0x00, 0x40)\n      0x00\n      swap2\n      pop\n      sload\n      swap1\n      0x0100\n      exp\n      swap1\n      div\n      0xff\n      and\n      dup2\n      jump\t// out\n        /* \"contracts/lesson8.1/02MultiSigWallet.sol\":962:1027  mapping(uint256 => mapping(address => bool)) public confirmations */\n    tag_40:\n      mstore(0x20, 0x04)\n      dup2\n      0x00\n      mstore\n      mstore(0x20, keccak256(0x00, 0x40))\n      dup1\n      0x00\n      mstore\n      keccak256(0x00, 0x40)\n      0x00\n      swap2\n      pop\n      swap2\n      pop\n      swap1\n      sload\n      swap1\n      0x0100\n      exp\n      swap1\n      div\n      0xff\n      and\n      dup2\n      jump\t// out\n        /* \"contracts/lesson8.1/02MultiSigWallet.sol\":846:879  Transaction[] public transactions */\n    tag_45:\n      0x03\n      dup2\n      dup2\n      sload\n      dup2\n      lt\n      tag_68\n      jumpi\n      0x00\n      dup1\n      revert\n    tag_68:\n      swap1\n      0x00\n      mstore\n      keccak256(0x00, 0x20)\n      swap1\n      0x05\n      mul\n      add\n      0x00\n      swap2\n      pop\n      swap1\n      pop\n      dup1\n      0x00\n      add\n      0x00\n      swap1\n      sload\n      swap1\n      0x0100\n      exp\n      swap1\n      div\n      0xffffffffffffffffffffffffffffffffffffffff\n      and\n      swap1\n      dup1\n      0x01\n      add\n      sload\n      swap1\n      dup1\n      0x02\n      add\n      dup1\n      sload\n      tag_70\n      swap1\n      tag_71\n      jump\t// in\n    tag_70:\n      dup1\n      0x1f\n      add\n      0x20\n      dup1\n      swap2\n      div\n      mul\n      0x20\n      add\n      mload(0x40)\n      swap1\n      dup2\n      add\n      0x40\n      mstore\n      dup1\n      swap3\n      swap2\n      swap1\n      dup2\n      dup2\n      mstore\n      0x20\n      add\n      dup3\n      dup1\n      sload\n      tag_72\n      swap1\n      tag_71\n      jump\t// in\n    tag_72:\n      dup1\n      iszero\n      tag_73\n      jumpi\n      dup1\n      0x1f\n      lt\n      tag_74\n      jumpi\n      0x0100\n      dup1\n      dup4\n      sload\n      div\n      mul\n      dup4\n      mstore\n      swap2\n      0x20\n      add\n      swap2\n      jump(tag_73)\n    tag_74:\n      dup3\n      add\n      swap2\n      swap1\n      0x00\n      mstore\n      keccak256(0x00, 0x20)\n      swap1\n    tag_75:\n      dup2\n      sload\n      dup2\n      mstore\n      swap1\n      0x01\n      add\n      swap1\n      0x20\n      add\n      dup1\n      dup4\n      gt\n      tag_75\n      jumpi\n      dup3\n      swap1\n      sub\n      0x1f\n      and\n      dup3\n      add\n      swap2\n    tag_73:\n      pop\n      pop\n      pop\n      pop\n      pop\n      swap1\n      dup1\n      0x03\n      add\n      0x00\n      swap1\n      sload\n      swap1\n      0x0100\n      exp\n      swap1\n      div\n      0xff\n      and\n      swap1\n      dup1\n      0x04\n      add\n      sload\n      swap1\n      pop\n      dup6\n      jump\t// out\n        /* \"contracts/lesson8.1/02MultiSigWallet.sol\":3335:3707  function confirm(uint256 _txId)... */\n    tag_51:\n        /* \"contracts/lesson8.1/02MultiSigWallet.sol\":1405:1412  isOwner */\n      0x01\n        /* \"contracts/lesson8.1/02MultiSigWallet.sol\":1405:1424  isOwner[msg.sender] */\n      0x00\n        /* \"contracts/lesson8.1/02MultiSigWallet.sol\":1413:1423  msg.sender */\n      caller\n        /* \"contracts/lesson8.1/02MultiSigWallet.sol\":1405:1424  isOwner[msg.sender] */\n      0xffffffffffffffffffffffffffffffffffffffff\n      and\n      0xffffffffffffffffffffffffffffffffffffffff\n      and\n      dup2\n      mstore\n      0x20\n      add\n      swap1\n      dup2\n      mstore\n      0x20\n      add\n      0x00\n      keccak256\n      0x00\n      swap1\n      sload\n      swap1\n      0x0100\n      exp\n      swap1\n      div\n      0xff\n      and\n        /* \"contracts/lesson8.1/02MultiSigWallet.sol\":1400:1443  if (!isOwner[msg.sender]) revert NotOwner() */\n      tag_77\n      jumpi\n        /* \"contracts/lesson8.1/02MultiSigWallet.sol\":1433:1443  NotOwner() */\n      mload(0x40)\n      0x30cd747100000000000000000000000000000000000000000000000000000000\n      dup2\n      mstore\n      0x04\n      add\n      mload(0x40)\n      dup1\n      swap2\n      sub\n      swap1\n      revert\n        /* \"contracts/lesson8.1/02MultiSigWallet.sol\":1400:1443  if (!isOwner[msg.sender]) revert NotOwner() */\n    tag_77:\n        /* \"contracts/lesson8.1/02MultiSigWallet.sol\":3422:3427  _txId */\n      dup1\n        /* \"contracts/lesson8.1/02MultiSigWallet.sol\":1571:1583  transactions */\n      0x03\n        /* \"contracts/lesson8.1/02MultiSigWallet.sol\":1571:1590  transactions.length */\n      dup1\n      sload\n      swap1\n      pop\n        /* \"contracts/lesson8.1/02MultiSigWallet.sol\":1562:1567  _txId */\n      dup2\n        /* \"contracts/lesson8.1/02MultiSigWallet.sol\":1562:1590  _txId >= transactions.length */\n      lt\n        /* \"contracts/lesson8.1/02MultiSigWallet.sol\":1558:1612  if (_txId >= transactions.length) revert TxNotExists() */\n      tag_79\n      jumpi\n        /* \"contracts/lesson8.1/02MultiSigWallet.sol\":1599:1612  TxNotExists() */\n      mload(0x40)\n      0x14a9883f00000000000000000000000000000000000000000000000000000000\n      dup2\n      mstore\n      0x04\n      add\n      mload(0x40)\n      dup1\n      swap2\n      sub\n      swap1\n      revert\n        /* \"contracts/lesson8.1/02MultiSigWallet.sol\":1558:1612  if (_txId >= transactions.length) revert TxNotExists() */\n    tag_79:\n        /* \"contracts/lesson8.1/02MultiSigWallet.sol\":3450:3455  _txId */\n      dup2\n        /* \"contracts/lesson8.1/02MultiSigWallet.sol\":1731:1743  transactions */\n      0x03\n        /* \"contracts/lesson8.1/02MultiSigWallet.sol\":1744:1749  _txId */\n      dup2\n        /* \"contracts/lesson8.1/02MultiSigWallet.sol\":1731:1750  transactions[_txId] */\n      dup2\n      sload\n      dup2\n      lt\n      tag_81\n      jumpi\n      tag_82\n      tag_83\n      jump\t// in\n    tag_82:\n    tag_81:\n      swap1\n      0x00\n      mstore\n      keccak256(0x00, 0x20)\n      swap1\n      0x05\n      mul\n      add\n        /* \"contracts/lesson8.1/02MultiSigWallet.sol\":1731:1759  transactions[_txId].executed */\n      0x03\n      add\n      0x00\n      swap1\n      sload\n      swap1\n      0x0100\n      exp\n      swap1\n      div\n      0xff\n      and\n        /* \"contracts/lesson8.1/02MultiSigWallet.sol\":1727:1787  if (transactions[_txId].executed) revert TxAlreadyExecuted() */\n      iszero\n      tag_85\n      jumpi\n        /* \"contracts/lesson8.1/02MultiSigWallet.sol\":1768:1787  TxAlreadyExecuted() */\n      mload(0x40)\n      0x2ea945cf00000000000000000000000000000000000000000000000000000000\n      dup2\n      mstore\n      0x04\n      add\n      mload(0x40)\n      dup1\n      swap2\n      sub\n      swap1\n      revert\n        /* \"contracts/lesson8.1/02MultiSigWallet.sol\":1727:1787  if (transactions[_txId].executed) revert TxAlreadyExecuted() */\n    tag_85:\n        /* \"contracts/lesson8.1/02MultiSigWallet.sol\":3477:3490  confirmations */\n      0x04\n        /* \"contracts/lesson8.1/02MultiSigWallet.sol\":3477:3497  confirmations[_txId] */\n      0x00\n        /* \"contracts/lesson8.1/02MultiSigWallet.sol\":3491:3496  _txId */\n      dup5\n        /* \"contracts/lesson8.1/02MultiSigWallet.sol\":3477:3497  confirmations[_txId] */\n      dup2\n      mstore\n      0x20\n      add\n      swap1\n      dup2\n      mstore\n      0x20\n      add\n      0x00\n      keccak256\n        /* \"contracts/lesson8.1/02MultiSigWallet.sol\":3477:3509  confirmations[_txId][msg.sender] */\n      0x00\n        /* \"contracts/lesson8.1/02MultiSigWallet.sol\":3498:3508  msg.sender */\n      caller\n        /* \"contracts/lesson8.1/02MultiSigWallet.sol\":3477:3509  confirmations[_txId][msg.sender] */\n      0xffffffffffffffffffffffffffffffffffffffff\n      and\n      0xffffffffffffffffffffffffffffffffffffffff\n      and\n      dup2\n      mstore\n      0x20\n      add\n      swap1\n      dup2\n      mstore\n      0x20\n      add\n      0x00\n      keccak256\n      0x00\n      swap1\n      sload\n      swap1\n      0x0100\n      exp\n      swap1\n      div\n      0xff\n      and\n        /* \"contracts/lesson8.1/02MultiSigWallet.sol\":3473:3538  if (confirmations[_txId][msg.sender]) revert TxAlreadyConfirmed() */\n      iszero\n      tag_87\n      jumpi\n        /* \"contracts/lesson8.1/02MultiSigWallet.sol\":3518:3538  TxAlreadyConfirmed() */\n      mload(0x40)\n      0x9dae146400000000000000000000000000000000000000000000000000000000\n      dup2\n      mstore\n      0x04\n      add\n      mload(0x40)\n      dup1\n      swap2\n      sub\n      swap1\n      revert\n        /* \"contracts/lesson8.1/02MultiSigWallet.sol\":3473:3538  if (confirmations[_txId][msg.sender]) revert TxAlreadyConfirmed() */\n    tag_87:\n        /* \"contracts/lesson8.1/02MultiSigWallet.sol\":3594:3598  true */\n      0x01\n        /* \"contracts/lesson8.1/02MultiSigWallet.sol\":3559:3572  confirmations */\n      0x04\n        /* \"contracts/lesson8.1/02MultiSigWallet.sol\":3559:3579  confirmations[_txId] */\n      0x00\n        /* \"contracts/lesson8.1/02MultiSigWallet.sol\":3573:3578  _txId */\n      dup6\n        /* \"contracts/lesson8.1/02MultiSigWallet.sol\":3559:3579  confirmations[_txId] */\n      dup2\n      mstore\n      0x20\n      add\n      swap1\n      dup2\n      mstore\n      0x20\n      add\n      0x00\n      keccak256\n        /* \"contracts/lesson8.1/02MultiSigWallet.sol\":3559:3591  confirmations[_txId][msg.sender] */\n      0x00\n        /* \"contracts/lesson8.1/02MultiSigWallet.sol\":3580:3590  msg.sender */\n      caller\n        /* \"contracts/lesson8.1/02MultiSigWallet.sol\":3559:3591  confirmations[_txId][msg.sender] */\n      0xffffffffffffffffffffffffffffffffffffffff\n      and\n      0xffffffffffffffffffffffffffffffffffffffff\n      and\n      dup2\n      mstore\n      0x20\n      add\n      swap1\n      dup2\n      mstore\n      0x20\n      add\n      0x00\n      keccak256\n      0x00\n        /* \"contracts/lesson8.1/02MultiSigWallet.sol\":3559:3598  confirmations[_txId][msg.sender] = true */\n      0x0100\n      exp\n      dup2\n      sload\n      dup2\n      0xff\n      mul\n      not\n      and\n      swap1\n      dup4\n      iszero\n      iszero\n      mul\n      or\n      swap1\n      sstore\n      pop\n        /* \"contracts/lesson8.1/02MultiSigWallet.sol\":3646:3647  1 */\n      0x01\n        /* \"contracts/lesson8.1/02MultiSigWallet.sol\":3609:3621  transactions */\n      0x03\n        /* \"contracts/lesson8.1/02MultiSigWallet.sol\":3622:3627  _txId */\n      dup5\n        /* \"contracts/lesson8.1/02MultiSigWallet.sol\":3609:3628  transactions[_txId] */\n      dup2\n      sload\n      dup2\n      lt\n      tag_88\n      jumpi\n      tag_89\n      tag_83\n      jump\t// in\n    tag_89:\n    tag_88:\n      swap1\n      0x00\n      mstore\n      keccak256(0x00, 0x20)\n      swap1\n      0x05\n      mul\n      add\n        /* \"contracts/lesson8.1/02MultiSigWallet.sol\":3609:3642  transactions[_txId].confirmations */\n      0x04\n      add\n      0x00\n        /* \"contracts/lesson8.1/02MultiSigWallet.sol\":3609:3647  transactions[_txId].confirmations += 1 */\n      dup3\n      dup3\n      sload\n      tag_91\n      swap2\n      swap1\n      tag_92\n      jump\t// in\n    tag_91:\n      swap3\n      pop\n      pop\n      dup2\n      swap1\n      sstore\n      pop\n        /* \"contracts/lesson8.1/02MultiSigWallet.sol\":3693:3698  _txId */\n      dup3\n        /* \"contracts/lesson8.1/02MultiSigWallet.sol\":3681:3691  msg.sender */\n      caller\n        /* \"contracts/lesson8.1/02MultiSigWallet.sol\":3673:3699  Confirm(msg.sender, _txId) */\n      0xffffffffffffffffffffffffffffffffffffffff\n      and\n      0xbde73c39e691e6143456e01935275fd9f654dacca25911f03ab0d587644377eb\n      mload(0x40)\n      mload(0x40)\n      dup1\n      swap2\n      sub\n      swap1\n      log3\n        /* \"contracts/lesson8.1/02MultiSigWallet.sol\":1623:1624  _ */\n      pop\n        /* \"contracts/lesson8.1/02MultiSigWallet.sol\":1454:1455  _ */\n      pop\n        /* \"contracts/lesson8.1/02MultiSigWallet.sol\":3335:3707  function confirm(uint256 _txId)... */\n      pop\n      jump\t// out\n        /* \"contracts/lesson8.1/02MultiSigWallet.sol\":490:513  uint256 public required */\n    tag_54:\n      sload(0x02)\n      dup2\n      jump\t// out\n        /* \"contracts/lesson8.1/02MultiSigWallet.sol\":3917:4893  function execute(uint256 _txId)... */\n    tag_59:\n        /* \"contracts/lesson8.1/02MultiSigWallet.sol\":1405:1412  isOwner */\n      0x01\n        /* \"contracts/lesson8.1/02MultiSigWallet.sol\":1405:1424  isOwner[msg.sender] */\n      0x00\n        /* \"contracts/lesson8.1/02MultiSigWallet.sol\":1413:1423  msg.sender */\n      caller\n        /* \"contracts/lesson8.1/02MultiSigWallet.sol\":1405:1424  isOwner[msg.sender] */\n      0xffffffffffffffffffffffffffffffffffffffff\n      and\n      0xffffffffffffffffffffffffffffffffffffffff\n      and\n      dup2\n      mstore\n      0x20\n      add\n      swap1\n      dup2\n      mstore\n      0x20\n      add\n      0x00\n      keccak256\n      0x00\n      swap1\n      sload\n      swap1\n      0x0100\n      exp\n      swap1\n      div\n      0xff\n      and\n        /* \"contracts/lesson8.1/02MultiSigWallet.sol\":1400:1443  if (!isOwner[msg.sender]) revert NotOwner() */\n      tag_94\n      jumpi\n        /* \"contracts/lesson8.1/02MultiSigWallet.sol\":1433:1443  NotOwner() */\n      mload(0x40)\n      0x30cd747100000000000000000000000000000000000000000000000000000000\n      dup2\n      mstore\n      0x04\n      add\n      mload(0x40)\n      dup1\n      swap2\n      sub\n      swap1\n      revert\n        /* \"contracts/lesson8.1/02MultiSigWallet.sol\":1400:1443  if (!isOwner[msg.sender]) revert NotOwner() */\n    tag_94:\n        /* \"contracts/lesson8.1/02MultiSigWallet.sol\":4004:4009  _txId */\n      dup1\n        /* \"contracts/lesson8.1/02MultiSigWallet.sol\":1571:1583  transactions */\n      0x03\n        /* \"contracts/lesson8.1/02MultiSigWallet.sol\":1571:1590  transactions.length */\n      dup1\n      sload\n      swap1\n      pop\n        /* \"contracts/lesson8.1/02MultiSigWallet.sol\":1562:1567  _txId */\n      dup2\n        /* \"contracts/lesson8.1/02MultiSigWallet.sol\":1562:1590  _txId >= transactions.length */\n      lt\n        /* \"contracts/lesson8.1/02MultiSigWallet.sol\":1558:1612  if (_txId >= transactions.length) revert TxNotExists() */\n      tag_96\n      jumpi\n        /* \"contracts/lesson8.1/02MultiSigWallet.sol\":1599:1612  TxNotExists() */\n      mload(0x40)\n      0x14a9883f00000000000000000000000000000000000000000000000000000000\n      dup2\n      mstore\n      0x04\n      add\n      mload(0x40)\n      dup1\n      swap2\n      sub\n      swap1\n      revert\n        /* \"contracts/lesson8.1/02MultiSigWallet.sol\":1558:1612  if (_txId >= transactions.length) revert TxNotExists() */\n    tag_96:\n        /* \"contracts/lesson8.1/02MultiSigWallet.sol\":4032:4037  _txId */\n      dup2\n        /* \"contracts/lesson8.1/02MultiSigWallet.sol\":1731:1743  transactions */\n      0x03\n        /* \"contracts/lesson8.1/02MultiSigWallet.sol\":1744:1749  _txId */\n      dup2\n        /* \"contracts/lesson8.1/02MultiSigWallet.sol\":1731:1750  transactions[_txId] */\n      dup2\n      sload\n      dup2\n      lt\n      tag_98\n      jumpi\n      tag_99\n      tag_83\n      jump\t// in\n    tag_99:\n    tag_98:\n      swap1\n      0x00\n      mstore\n      keccak256(0x00, 0x20)\n      swap1\n      0x05\n      mul\n      add\n        /* \"contracts/lesson8.1/02MultiSigWallet.sol\":1731:1759  transactions[_txId].executed */\n      0x03\n      add\n      0x00\n      swap1\n      sload\n      swap1\n      0x0100\n      exp\n      swap1\n      div\n      0xff\n      and\n        /* \"contracts/lesson8.1/02MultiSigWallet.sol\":1727:1787  if (transactions[_txId].executed) revert TxAlreadyExecuted() */\n      iszero\n      tag_101\n      jumpi\n        /* \"contracts/lesson8.1/02MultiSigWallet.sol\":1768:1787  TxAlreadyExecuted() */\n      mload(0x40)\n      0x2ea945cf00000000000000000000000000000000000000000000000000000000\n      dup2\n      mstore\n      0x04\n      add\n      mload(0x40)\n      dup1\n      swap2\n      sub\n      swap1\n      revert\n        /* \"contracts/lesson8.1/02MultiSigWallet.sol\":1727:1787  if (transactions[_txId].executed) revert TxAlreadyExecuted() */\n    tag_101:\n        /* \"contracts/lesson8.1/02MultiSigWallet.sol\":4055:4086  Transaction storage transaction */\n      0x00\n        /* \"contracts/lesson8.1/02MultiSigWallet.sol\":4089:4101  transactions */\n      0x03\n        /* \"contracts/lesson8.1/02MultiSigWallet.sol\":4102:4107  _txId */\n      dup5\n        /* \"contracts/lesson8.1/02MultiSigWallet.sol\":4089:4108  transactions[_txId] */\n      dup2\n      sload\n      dup2\n      lt\n      tag_103\n      jumpi\n      tag_104\n      tag_83\n      jump\t// in\n    tag_104:\n    tag_103:\n      swap1\n      0x00\n      mstore\n      keccak256(0x00, 0x20)\n      swap1\n      0x05\n      mul\n      add\n        /* \"contracts/lesson8.1/02MultiSigWallet.sol\":4055:4108  Transaction storage transaction = transactions[_txId] */\n      swap1\n      pop\n        /* \"contracts/lesson8.1/02MultiSigWallet.sol\":4201:4209  required */\n      sload(0x02)\n        /* \"contracts/lesson8.1/02MultiSigWallet.sol\":4173:4184  transaction */\n      dup2\n        /* \"contracts/lesson8.1/02MultiSigWallet.sol\":4173:4198  transaction.confirmations */\n      0x04\n      add\n      sload\n        /* \"contracts/lesson8.1/02MultiSigWallet.sol\":4173:4209  transaction.confirmations < required */\n      lt\n        /* \"contracts/lesson8.1/02MultiSigWallet.sol\":4169:4272  if (transaction.confirmations < required) {... */\n      iszero\n      tag_106\n      jumpi\n        /* \"contracts/lesson8.1/02MultiSigWallet.sol\":4233:4260  InsufficientConfirmations() */\n      mload(0x40)\n      0xe16db4b300000000000000000000000000000000000000000000000000000000\n      dup2\n      mstore\n      0x04\n      add\n      mload(0x40)\n      dup1\n      swap2\n      sub\n      swap1\n      revert\n        /* \"contracts/lesson8.1/02MultiSigWallet.sol\":4169:4272  if (transaction.confirmations < required) {... */\n    tag_106:\n        /* \"contracts/lesson8.1/02MultiSigWallet.sol\":4364:4368  true */\n      0x01\n        /* \"contracts/lesson8.1/02MultiSigWallet.sol\":4341:4352  transaction */\n      dup2\n        /* \"contracts/lesson8.1/02MultiSigWallet.sol\":4341:4361  transaction.executed */\n      0x03\n      add\n      0x00\n        /* \"contracts/lesson8.1/02MultiSigWallet.sol\":4341:4368  transaction.executed = true */\n      0x0100\n      exp\n      dup2\n      sload\n      dup2\n      0xff\n      mul\n      not\n      and\n      swap1\n      dup4\n      iszero\n      iszero\n      mul\n      or\n      swap1\n      sstore\n      pop\n        /* \"contracts/lesson8.1/02MultiSigWallet.sol\":4514:4526  bool success */\n      0x00\n        /* \"contracts/lesson8.1/02MultiSigWallet.sol\":4532:4543  transaction */\n      dup2\n        /* \"contracts/lesson8.1/02MultiSigWallet.sol\":4532:4546  transaction.to */\n      0x00\n      add\n      0x00\n      swap1\n      sload\n      swap1\n      0x0100\n      exp\n      swap1\n      div\n      0xffffffffffffffffffffffffffffffffffffffff\n      and\n        /* \"contracts/lesson8.1/02MultiSigWallet.sol\":4532:4551  transaction.to.call */\n      0xffffffffffffffffffffffffffffffffffffffff\n      and\n        /* \"contracts/lesson8.1/02MultiSigWallet.sol\":4559:4570  transaction */\n      dup3\n        /* \"contracts/lesson8.1/02MultiSigWallet.sol\":4559:4576  transaction.value */\n      0x01\n      add\n      sload\n        /* \"contracts/lesson8.1/02MultiSigWallet.sol\":4592:4603  transaction */\n      dup4\n        /* \"contracts/lesson8.1/02MultiSigWallet.sol\":4592:4608  transaction.data */\n      0x02\n      add\n        /* \"contracts/lesson8.1/02MultiSigWallet.sol\":4532:4619  transaction.to.call{value: transaction.value}(... */\n      mload(0x40)\n      tag_107\n      swap2\n      swap1\n      tag_108\n      jump\t// in\n    tag_107:\n      0x00\n      mload(0x40)\n      dup1\n      dup4\n      sub\n      dup2\n      dup6\n      dup8\n      gas\n      call\n      swap3\n      pop\n      pop\n      pop\n      returndatasize\n      dup1\n      0x00\n      dup2\n      eq\n      tag_111\n      jumpi\n      mload(0x40)\n      swap2\n      pop\n      and(add(returndatasize, 0x3f), not(0x1f))\n      dup3\n      add\n      0x40\n      mstore\n      returndatasize\n      dup3\n      mstore\n      returndatasize\n      0x00\n      0x20\n      dup5\n      add\n      returndatacopy\n      jump(tag_110)\n    tag_111:\n      0x60\n      swap2\n      pop\n    tag_110:\n      pop\n        /* \"contracts/lesson8.1/02MultiSigWallet.sol\":4513:4619  (bool success, ) = transaction.to.call{value: transaction.value}(... */\n      pop\n      swap1\n      pop\n        /* \"contracts/lesson8.1/02MultiSigWallet.sol\":4644:4651  success */\n      dup1\n        /* \"contracts/lesson8.1/02MultiSigWallet.sol\":4640:4886  if (success) {... */\n      iszero\n      tag_112\n      jumpi\n        /* \"contracts/lesson8.1/02MultiSigWallet.sol\":4681:4686  _txId */\n      dup5\n        /* \"contracts/lesson8.1/02MultiSigWallet.sol\":4673:4687  Execute(_txId) */\n      0xddb556f1d2c1ec821e910b019d3685b229db152a0ecd517ca7e24b8bd7139289\n      mload(0x40)\n      mload(0x40)\n      dup1\n      swap2\n      sub\n      swap1\n      log2\n        /* \"contracts/lesson8.1/02MultiSigWallet.sol\":4640:4886  if (success) {... */\n      jump(tag_113)\n    tag_112:\n        /* \"contracts/lesson8.1/02MultiSigWallet.sol\":4787:4792  false */\n      0x00\n        /* \"contracts/lesson8.1/02MultiSigWallet.sol\":4764:4775  transaction */\n      dup3\n        /* \"contracts/lesson8.1/02MultiSigWallet.sol\":4764:4784  transaction.executed */\n      0x03\n      add\n      0x00\n        /* \"contracts/lesson8.1/02MultiSigWallet.sol\":4764:4792  transaction.executed = false */\n      0x0100\n      exp\n      dup2\n      sload\n      dup2\n      0xff\n      mul\n      not\n      and\n      swap1\n      dup4\n      iszero\n      iszero\n      mul\n      or\n      swap1\n      sstore\n      pop\n        /* \"contracts/lesson8.1/02MultiSigWallet.sol\":4829:4834  _txId */\n      dup5\n        /* \"contracts/lesson8.1/02MultiSigWallet.sol\":4812:4835  ExecutionFailure(_txId) */\n      0x526441bb6c1aba3c9a4a6ca1d6545da9c2333c8c48343ef398eb858d72b79236\n      mload(0x40)\n      mload(0x40)\n      dup1\n      swap2\n      sub\n      swap1\n      log2\n        /* \"contracts/lesson8.1/02MultiSigWallet.sol\":4857:4874  ExecutionFailed() */\n      mload(0x40)\n      0xacfdb44400000000000000000000000000000000000000000000000000000000\n      dup2\n      mstore\n      0x04\n      add\n      mload(0x40)\n      dup1\n      swap2\n      sub\n      swap1\n      revert\n        /* \"contracts/lesson8.1/02MultiSigWallet.sol\":4640:4886  if (success) {... */\n    tag_113:\n        /* \"contracts/lesson8.1/02MultiSigWallet.sol\":4044:4893  {... */\n      pop\n      pop\n        /* \"contracts/lesson8.1/02MultiSigWallet.sol\":1623:1624  _ */\n      pop\n        /* \"contracts/lesson8.1/02MultiSigWallet.sol\":1454:1455  _ */\n      pop\n        /* \"contracts/lesson8.1/02MultiSigWallet.sol\":3917:4893  function execute(uint256 _txId)... */\n      pop\n      jump\t// out\n        /* \"#utility.yul\":7:84   */\n    tag_114:\n        /* \"#utility.yul\":44:51   */\n      0x00\n        /* \"#utility.yul\":73:78   */\n      dup2\n        /* \"#utility.yul\":62:78   */\n      swap1\n      pop\n        /* \"#utility.yul\":7:84   */\n      swap2\n      swap1\n      pop\n      jump\t// out\n        /* \"#utility.yul\":90:208   */\n    tag_115:\n        /* \"#utility.yul\":177:201   */\n      tag_164\n        /* \"#utility.yul\":195:200   */\n      dup2\n        /* \"#utility.yul\":177:201   */\n      tag_114\n      jump\t// in\n    tag_164:\n        /* \"#utility.yul\":172:175   */\n      dup3\n        /* \"#utility.yul\":165:202   */\n      mstore\n        /* \"#utility.yul\":90:208   */\n      pop\n      pop\n      jump\t// out\n        /* \"#utility.yul\":214:436   */\n    tag_15:\n        /* \"#utility.yul\":307:311   */\n      0x00\n        /* \"#utility.yul\":345:347   */\n      0x20\n        /* \"#utility.yul\":334:343   */\n      dup3\n        /* \"#utility.yul\":330:348   */\n      add\n        /* \"#utility.yul\":322:348   */\n      swap1\n      pop\n        /* \"#utility.yul\":358:429   */\n      tag_166\n        /* \"#utility.yul\":426:427   */\n      0x00\n        /* \"#utility.yul\":415:424   */\n      dup4\n        /* \"#utility.yul\":411:428   */\n      add\n        /* \"#utility.yul\":402:408   */\n      dup5\n        /* \"#utility.yul\":358:429   */\n      tag_115\n      jump\t// in\n    tag_166:\n        /* \"#utility.yul\":214:436   */\n      swap3\n      swap2\n      pop\n      pop\n      jump\t// out\n        /* \"#utility.yul\":442:517   */\n    tag_116:\n        /* \"#utility.yul\":475:481   */\n      0x00\n        /* \"#utility.yul\":508:510   */\n      0x40\n        /* \"#utility.yul\":502:511   */\n      mload\n        /* \"#utility.yul\":492:511   */\n      swap1\n      pop\n        /* \"#utility.yul\":442:517   */\n      swap1\n      jump\t// out\n        /* \"#utility.yul\":523:640   */\n    tag_117:\n        /* \"#utility.yul\":632:633   */\n      0x00\n        /* \"#utility.yul\":629:630   */\n      0x00\n        /* \"#utility.yul\":622:634   */\n      revert\n        /* \"#utility.yul\":646:763   */\n    tag_118:\n        /* \"#utility.yul\":755:756   */\n      0x00\n        /* \"#utility.yul\":752:753   */\n      0x00\n        /* \"#utility.yul\":745:757   */\n      revert\n        /* \"#utility.yul\":769:891   */\n    tag_119:\n        /* \"#utility.yul\":842:866   */\n      tag_171\n        /* \"#utility.yul\":860:865   */\n      dup2\n        /* \"#utility.yul\":842:866   */\n      tag_114\n      jump\t// in\n    tag_171:\n        /* \"#utility.yul\":835:840   */\n      dup2\n        /* \"#utility.yul\":832:867   */\n      eq\n        /* \"#utility.yul\":822:885   */\n      tag_172\n      jumpi\n        /* \"#utility.yul\":881:882   */\n      0x00\n        /* \"#utility.yul\":878:879   */\n      0x00\n        /* \"#utility.yul\":871:883   */\n      revert\n        /* \"#utility.yul\":822:885   */\n    tag_172:\n        /* \"#utility.yul\":769:891   */\n      pop\n      jump\t// out\n        /* \"#utility.yul\":897:1036   */\n    tag_120:\n        /* \"#utility.yul\":943:948   */\n      0x00\n        /* \"#utility.yul\":981:987   */\n      dup2\n        /* \"#utility.yul\":968:988   */\n      calldataload\n        /* \"#utility.yul\":959:988   */\n      swap1\n      pop\n        /* \"#utility.yul\":997:1030   */\n      tag_174\n        /* \"#utility.yul\":1024:1029   */\n      dup2\n        /* \"#utility.yul\":997:1030   */\n      tag_119\n      jump\t// in\n    tag_174:\n        /* \"#utility.yul\":897:1036   */\n      swap3\n      swap2\n      pop\n      pop\n      jump\t// out\n        /* \"#utility.yul\":1042:1371   */\n    tag_19:\n        /* \"#utility.yul\":1101:1107   */\n      0x00\n        /* \"#utility.yul\":1150:1152   */\n      0x20\n        /* \"#utility.yul\":1138:1147   */\n      dup3\n        /* \"#utility.yul\":1129:1136   */\n      dup5\n        /* \"#utility.yul\":1125:1148   */\n      sub\n        /* \"#utility.yul\":1121:1153   */\n      slt\n        /* \"#utility.yul\":1118:1237   */\n      iszero\n      tag_176\n      jumpi\n        /* \"#utility.yul\":1156:1235   */\n      tag_177\n      tag_117\n      jump\t// in\n    tag_177:\n        /* \"#utility.yul\":1118:1237   */\n    tag_176:\n        /* \"#utility.yul\":1276:1277   */\n      0x00\n        /* \"#utility.yul\":1301:1354   */\n      tag_178\n        /* \"#utility.yul\":1346:1353   */\n      dup5\n        /* \"#utility.yul\":1337:1343   */\n      dup3\n        /* \"#utility.yul\":1326:1335   */\n      dup6\n        /* \"#utility.yul\":1322:1344   */\n      add\n        /* \"#utility.yul\":1301:1354   */\n      tag_120\n      jump\t// in\n    tag_178:\n        /* \"#utility.yul\":1291:1354   */\n      swap2\n      pop\n        /* \"#utility.yul\":1247:1364   */\n      pop\n        /* \"#utility.yul\":1042:1371   */\n      swap3\n      swap2\n      pop\n      pop\n      jump\t// out\n        /* \"#utility.yul\":1377:1503   */\n    tag_121:\n        /* \"#utility.yul\":1414:1421   */\n      0x00\n        /* \"#utility.yul\":1454:1496   */\n      0xffffffffffffffffffffffffffffffffffffffff\n        /* \"#utility.yul\":1447:1452   */\n      dup3\n        /* \"#utility.yul\":1443:1497   */\n      and\n        /* \"#utility.yul\":1432:1497   */\n      swap1\n      pop\n        /* \"#utility.yul\":1377:1503   */\n      swap2\n      swap1\n      pop\n      jump\t// out\n        /* \"#utility.yul\":1509:1605   */\n    tag_122:\n        /* \"#utility.yul\":1546:1553   */\n      0x00\n        /* \"#utility.yul\":1575:1599   */\n      tag_181\n        /* \"#utility.yul\":1593:1598   */\n      dup3\n        /* \"#utility.yul\":1575:1599   */\n      tag_121\n      jump\t// in\n    tag_181:\n        /* \"#utility.yul\":1564:1599   */\n      swap1\n      pop\n        /* \"#utility.yul\":1509:1605   */\n      swap2\n      swap1\n      pop\n      jump\t// out\n        /* \"#utility.yul\":1611:1729   */\n    tag_123:\n        /* \"#utility.yul\":1698:1722   */\n      tag_183\n        /* \"#utility.yul\":1716:1721   */\n      dup2\n        /* \"#utility.yul\":1698:1722   */\n      tag_122\n      jump\t// in\n    tag_183:\n        /* \"#utility.yul\":1693:1696   */\n      dup3\n        /* \"#utility.yul\":1686:1723   */\n      mstore\n        /* \"#utility.yul\":1611:1729   */\n      pop\n      pop\n      jump\t// out\n        /* \"#utility.yul\":1735:1957   */\n    tag_22:\n        /* \"#utility.yul\":1828:1832   */\n      0x00\n        /* \"#utility.yul\":1866:1868   */\n      0x20\n        /* \"#utility.yul\":1855:1864   */\n      dup3\n        /* \"#utility.yul\":1851:1869   */\n      add\n        /* \"#utility.yul\":1843:1869   */\n      swap1\n      pop\n        /* \"#utility.yul\":1879:1950   */\n      tag_185\n        /* \"#utility.yul\":1947:1948   */\n      0x00\n        /* \"#utility.yul\":1936:1945   */\n      dup4\n        /* \"#utility.yul\":1932:1949   */\n      add\n        /* \"#utility.yul\":1923:1929   */\n      dup5\n        /* \"#utility.yul\":1879:1950   */\n      tag_123\n      jump\t// in\n    tag_185:\n        /* \"#utility.yul\":1735:1957   */\n      swap3\n      swap2\n      pop\n      pop\n      jump\t// out\n        /* \"#utility.yul\":1963:2085   */\n    tag_124:\n        /* \"#utility.yul\":2036:2060   */\n      tag_187\n        /* \"#utility.yul\":2054:2059   */\n      dup2\n        /* \"#utility.yul\":2036:2060   */\n      tag_122\n      jump\t// in\n    tag_187:\n        /* \"#utility.yul\":2029:2034   */\n      dup2\n        /* \"#utility.yul\":2026:2061   */\n      eq\n        /* \"#utility.yul\":2016:2079   */\n      tag_188\n      jumpi\n        /* \"#utility.yul\":2075:2076   */\n      0x00\n        /* \"#utility.yul\":2072:2073   */\n      0x00\n        /* \"#utility.yul\":2065:2077   */\n      revert\n        /* \"#utility.yul\":2016:2079   */\n    tag_188:\n        /* \"#utility.yul\":1963:2085   */\n      pop\n      jump\t// out\n        /* \"#utility.yul\":2091:2230   */\n    tag_125:\n        /* \"#utility.yul\":2137:2142   */\n      0x00\n        /* \"#utility.yul\":2175:2181   */\n      dup2\n        /* \"#utility.yul\":2162:2182   */\n      calldataload\n        /* \"#utility.yul\":2153:2182   */\n      swap1\n      pop\n        /* \"#utility.yul\":2191:2224   */\n      tag_190\n        /* \"#utility.yul\":2218:2223   */\n      dup2\n        /* \"#utility.yul\":2191:2224   */\n      tag_124\n      jump\t// in\n    tag_190:\n        /* \"#utility.yul\":2091:2230   */\n      swap3\n      swap2\n      pop\n      pop\n      jump\t// out\n        /* \"#utility.yul\":2236:2353   */\n    tag_126:\n        /* \"#utility.yul\":2345:2346   */\n      0x00\n        /* \"#utility.yul\":2342:2343   */\n      0x00\n        /* \"#utility.yul\":2335:2347   */\n      revert\n        /* \"#utility.yul\":2359:2476   */\n    tag_127:\n        /* \"#utility.yul\":2468:2469   */\n      0x00\n        /* \"#utility.yul\":2465:2466   */\n      0x00\n        /* \"#utility.yul\":2458:2470   */\n      revert\n        /* \"#utility.yul\":2482:2584   */\n    tag_128:\n        /* \"#utility.yul\":2523:2529   */\n      0x00\n        /* \"#utility.yul\":2574:2576   */\n      0x1f\n        /* \"#utility.yul\":2570:2577   */\n      not\n        /* \"#utility.yul\":2565:2567   */\n      0x1f\n        /* \"#utility.yul\":2558:2563   */\n      dup4\n        /* \"#utility.yul\":2554:2568   */\n      add\n        /* \"#utility.yul\":2550:2578   */\n      and\n        /* \"#utility.yul\":2540:2578   */\n      swap1\n      pop\n        /* \"#utility.yul\":2482:2584   */\n      swap2\n      swap1\n      pop\n      jump\t// out\n        /* \"#utility.yul\":2590:2770   */\n    tag_129:\n        /* \"#utility.yul\":2638:2715   */\n      0x4e487b7100000000000000000000000000000000000000000000000000000000\n        /* \"#utility.yul\":2635:2636   */\n      0x00\n        /* \"#utility.yul\":2628:2716   */\n      mstore\n        /* \"#utility.yul\":2735:2739   */\n      0x41\n        /* \"#utility.yul\":2732:2733   */\n      0x04\n        /* \"#utility.yul\":2725:2740   */\n      mstore\n        /* \"#utility.yul\":2759:2763   */\n      0x24\n        /* \"#utility.yul\":2756:2757   */\n      0x00\n        /* \"#utility.yul\":2749:2764   */\n      revert\n        /* \"#utility.yul\":2776:3057   */\n    tag_130:\n        /* \"#utility.yul\":2859:2886   */\n      tag_196\n        /* \"#utility.yul\":2881:2885   */\n      dup3\n        /* \"#utility.yul\":2859:2886   */\n      tag_128\n      jump\t// in\n    tag_196:\n        /* \"#utility.yul\":2851:2857   */\n      dup2\n        /* \"#utility.yul\":2847:2887   */\n      add\n        /* \"#utility.yul\":2989:2995   */\n      dup2\n        /* \"#utility.yul\":2977:2987   */\n      dup2\n        /* \"#utility.yul\":2974:2996   */\n      lt\n        /* \"#utility.yul\":2953:2971   */\n      0xffffffffffffffff\n        /* \"#utility.yul\":2941:2951   */\n      dup3\n        /* \"#utility.yul\":2938:2972   */\n      gt\n        /* \"#utility.yul\":2935:2997   */\n      or\n        /* \"#utility.yul\":2932:3020   */\n      iszero\n      tag_197\n      jumpi\n        /* \"#utility.yul\":3000:3018   */\n      tag_198\n      tag_129\n      jump\t// in\n    tag_198:\n        /* \"#utility.yul\":2932:3020   */\n    tag_197:\n        /* \"#utility.yul\":3040:3050   */\n      dup1\n        /* \"#utility.yul\":3036:3038   */\n      0x40\n        /* \"#utility.yul\":3029:3051   */\n      mstore\n        /* \"#utility.yul\":2819:3057   */\n      pop\n        /* \"#utility.yul\":2776:3057   */\n      pop\n      pop\n      jump\t// out\n        /* \"#utility.yul\":3063:3192   */\n    tag_131:\n        /* \"#utility.yul\":3097:3103   */\n      0x00\n        /* \"#utility.yul\":3124:3144   */\n      tag_200\n      tag_116\n      jump\t// in\n    tag_200:\n        /* \"#utility.yul\":3114:3144   */\n      swap1\n      pop\n        /* \"#utility.yul\":3153:3186   */\n      tag_201\n        /* \"#utility.yul\":3181:3185   */\n      dup3\n        /* \"#utility.yul\":3173:3179   */\n      dup3\n        /* \"#utility.yul\":3153:3186   */\n      tag_130\n      jump\t// in\n    tag_201:\n        /* \"#utility.yul\":3063:3192   */\n      swap2\n      swap1\n      pop\n      jump\t// out\n        /* \"#utility.yul\":3198:3505   */\n    tag_132:\n        /* \"#utility.yul\":3259:3263   */\n      0x00\n        /* \"#utility.yul\":3349:3367   */\n      0xffffffffffffffff\n        /* \"#utility.yul\":3341:3347   */\n      dup3\n        /* \"#utility.yul\":3338:3368   */\n      gt\n        /* \"#utility.yul\":3335:3391   */\n      iszero\n      tag_203\n      jumpi\n        /* \"#utility.yul\":3371:3389   */\n      tag_204\n      tag_129\n      jump\t// in\n    tag_204:\n        /* \"#utility.yul\":3335:3391   */\n    tag_203:\n        /* \"#utility.yul\":3409:3438   */\n      tag_205\n        /* \"#utility.yul\":3431:3437   */\n      dup3\n        /* \"#utility.yul\":3409:3438   */\n      tag_128\n      jump\t// in\n    tag_205:\n        /* \"#utility.yul\":3401:3438   */\n      swap1\n      pop\n        /* \"#utility.yul\":3493:3497   */\n      0x20\n        /* \"#utility.yul\":3487:3491   */\n      dup2\n        /* \"#utility.yul\":3483:3498   */\n      add\n        /* \"#utility.yul\":3475:3498   */\n      swap1\n      pop\n        /* \"#utility.yul\":3198:3505   */\n      swap2\n      swap1\n      pop\n      jump\t// out\n        /* \"#utility.yul\":3511:3659   */\n    tag_133:\n        /* \"#utility.yul\":3609:3615   */\n      dup3\n        /* \"#utility.yul\":3604:3607   */\n      dup2\n        /* \"#utility.yul\":3599:3602   */\n      dup4\n        /* \"#utility.yul\":3586:3616   */\n      calldatacopy\n        /* \"#utility.yul\":3650:3651   */\n      0x00\n        /* \"#utility.yul\":3641:3647   */\n      dup4\n        /* \"#utility.yul\":3636:3639   */\n      dup4\n        /* \"#utility.yul\":3632:3648   */\n      add\n        /* \"#utility.yul\":3625:3652   */\n      mstore\n        /* \"#utility.yul\":3511:3659   */\n      pop\n      pop\n      pop\n      jump\t// out\n        /* \"#utility.yul\":3665:4088   */\n    tag_134:\n        /* \"#utility.yul\":3742:3747   */\n      0x00\n        /* \"#utility.yul\":3767:3832   */\n      tag_208\n        /* \"#utility.yul\":3783:3831   */\n      tag_209\n        /* \"#utility.yul\":3824:3830   */\n      dup5\n        /* \"#utility.yul\":3783:3831   */\n      tag_132\n      jump\t// in\n    tag_209:\n        /* \"#utility.yul\":3767:3832   */\n      tag_131\n      jump\t// in\n    tag_208:\n        /* \"#utility.yul\":3758:3832   */\n      swap1\n      pop\n        /* \"#utility.yul\":3855:3861   */\n      dup3\n        /* \"#utility.yul\":3848:3853   */\n      dup2\n        /* \"#utility.yul\":3841:3862   */\n      mstore\n        /* \"#utility.yul\":3893:3897   */\n      0x20\n        /* \"#utility.yul\":3886:3891   */\n      dup2\n        /* \"#utility.yul\":3882:3898   */\n      add\n        /* \"#utility.yul\":3931:3934   */\n      dup5\n        /* \"#utility.yul\":3922:3928   */\n      dup5\n        /* \"#utility.yul\":3917:3920   */\n      dup5\n        /* \"#utility.yul\":3913:3929   */\n      add\n        /* \"#utility.yul\":3910:3935   */\n      gt\n        /* \"#utility.yul\":3907:4019   */\n      iszero\n      tag_210\n      jumpi\n        /* \"#utility.yul\":3938:4017   */\n      tag_211\n      tag_127\n      jump\t// in\n    tag_211:\n        /* \"#utility.yul\":3907:4019   */\n    tag_210:\n        /* \"#utility.yul\":4028:4082   */\n      tag_212\n        /* \"#utility.yul\":4075:4081   */\n      dup5\n        /* \"#utility.yul\":4070:4073   */\n      dup3\n        /* \"#utility.yul\":4065:4068   */\n      dup6\n        /* \"#utility.yul\":4028:4082   */\n      tag_133\n      jump\t// in\n    tag_212:\n        /* \"#utility.yul\":3748:4088   */\n      pop\n        /* \"#utility.yul\":3665:4088   */\n      swap4\n      swap3\n      pop\n      pop\n      pop\n      jump\t// out\n        /* \"#utility.yul\":4107:4445   */\n    tag_135:\n        /* \"#utility.yul\":4162:4167   */\n      0x00\n        /* \"#utility.yul\":4211:4214   */\n      dup3\n        /* \"#utility.yul\":4204:4208   */\n      0x1f\n        /* \"#utility.yul\":4196:4202   */\n      dup4\n        /* \"#utility.yul\":4192:4209   */\n      add\n        /* \"#utility.yul\":4188:4215   */\n      slt\n        /* \"#utility.yul\":4178:4300   */\n      tag_214\n      jumpi\n        /* \"#utility.yul\":4219:4298   */\n      tag_215\n      tag_126\n      jump\t// in\n    tag_215:\n        /* \"#utility.yul\":4178:4300   */\n    tag_214:\n        /* \"#utility.yul\":4336:4342   */\n      dup2\n        /* \"#utility.yul\":4323:4343   */\n      calldataload\n        /* \"#utility.yul\":4361:4439   */\n      tag_216\n        /* \"#utility.yul\":4435:4438   */\n      dup5\n        /* \"#utility.yul\":4427:4433   */\n      dup3\n        /* \"#utility.yul\":4420:4424   */\n      0x20\n        /* \"#utility.yul\":4412:4418   */\n      dup7\n        /* \"#utility.yul\":4408:4425   */\n      add\n        /* \"#utility.yul\":4361:4439   */\n      tag_134\n      jump\t// in\n    tag_216:\n        /* \"#utility.yul\":4352:4439   */\n      swap2\n      pop\n        /* \"#utility.yul\":4168:4445   */\n      pop\n        /* \"#utility.yul\":4107:4445   */\n      swap3\n      swap2\n      pop\n      pop\n      jump\t// out\n        /* \"#utility.yul\":4451:5248   */\n    tag_26:\n        /* \"#utility.yul\":4537:4543   */\n      0x00\n        /* \"#utility.yul\":4545:4551   */\n      0x00\n        /* \"#utility.yul\":4553:4559   */\n      0x00\n        /* \"#utility.yul\":4602:4604   */\n      0x60\n        /* \"#utility.yul\":4590:4599   */\n      dup5\n        /* \"#utility.yul\":4581:4588   */\n      dup7\n        /* \"#utility.yul\":4577:4600   */\n      sub\n        /* \"#utility.yul\":4573:4605   */\n      slt\n        /* \"#utility.yul\":4570:4689   */\n      iszero\n      tag_218\n      jumpi\n        /* \"#utility.yul\":4608:4687   */\n      tag_219\n      tag_117\n      jump\t// in\n    tag_219:\n        /* \"#utility.yul\":4570:4689   */\n    tag_218:\n        /* \"#utility.yul\":4728:4729   */\n      0x00\n        /* \"#utility.yul\":4753:4806   */\n      tag_220\n        /* \"#utility.yul\":4798:4805   */\n      dup7\n        /* \"#utility.yul\":4789:4795   */\n      dup3\n        /* \"#utility.yul\":4778:4787   */\n      dup8\n        /* \"#utility.yul\":4774:4796   */\n      add\n        /* \"#utility.yul\":4753:4806   */\n      tag_125\n      jump\t// in\n    tag_220:\n        /* \"#utility.yul\":4743:4806   */\n      swap4\n      pop\n        /* \"#utility.yul\":4699:4816   */\n      pop\n        /* \"#utility.yul\":4855:4857   */\n      0x20\n        /* \"#utility.yul\":4881:4934   */\n      tag_221\n        /* \"#utility.yul\":4926:4933   */\n      dup7\n        /* \"#utility.yul\":4917:4923   */\n      dup3\n        /* \"#utility.yul\":4906:4915   */\n      dup8\n        /* \"#utility.yul\":4902:4924   */\n      add\n        /* \"#utility.yul\":4881:4934   */\n      tag_120\n      jump\t// in\n    tag_221:\n        /* \"#utility.yul\":4871:4934   */\n      swap3\n      pop\n        /* \"#utility.yul\":4826:4944   */\n      pop\n        /* \"#utility.yul\":5011:5013   */\n      0x40\n        /* \"#utility.yul\":5000:5009   */\n      dup5\n        /* \"#utility.yul\":4996:5014   */\n      add\n        /* \"#utility.yul\":4983:5015   */\n      calldataload\n        /* \"#utility.yul\":5042:5060   */\n      0xffffffffffffffff\n        /* \"#utility.yul\":5034:5040   */\n      dup2\n        /* \"#utility.yul\":5031:5061   */\n      gt\n        /* \"#utility.yul\":5028:5145   */\n      iszero\n      tag_222\n      jumpi\n        /* \"#utility.yul\":5064:5143   */\n      tag_223\n      tag_118\n      jump\t// in\n    tag_223:\n        /* \"#utility.yul\":5028:5145   */\n    tag_222:\n        /* \"#utility.yul\":5169:5231   */\n      tag_224\n        /* \"#utility.yul\":5223:5230   */\n      dup7\n        /* \"#utility.yul\":5214:5220   */\n      dup3\n        /* \"#utility.yul\":5203:5212   */\n      dup8\n        /* \"#utility.yul\":5199:5221   */\n      add\n        /* \"#utility.yul\":5169:5231   */\n      tag_135\n      jump\t// in\n    tag_224:\n        /* \"#utility.yul\":5159:5231   */\n      swap2\n      pop\n        /* \"#utility.yul\":4954:5241   */\n      pop\n        /* \"#utility.yul\":4451:5248   */\n      swap3\n      pop\n      swap3\n      pop\n      swap3\n      jump\t// out\n        /* \"#utility.yul\":5254:5583   */\n    tag_32:\n        /* \"#utility.yul\":5313:5319   */\n      0x00\n        /* \"#utility.yul\":5362:5364   */\n      0x20\n        /* \"#utility.yul\":5350:5359   */\n      dup3\n        /* \"#utility.yul\":5341:5348   */\n      dup5\n        /* \"#utility.yul\":5337:5360   */\n      sub\n        /* \"#utility.yul\":5333:5365   */\n      slt\n        /* \"#utility.yul\":5330:5449   */\n      iszero\n      tag_226\n      jumpi\n        /* \"#utility.yul\":5368:5447   */\n      tag_227\n      tag_117\n      jump\t// in\n    tag_227:\n        /* \"#utility.yul\":5330:5449   */\n    tag_226:\n        /* \"#utility.yul\":5488:5489   */\n      0x00\n        /* \"#utility.yul\":5513:5566   */\n      tag_228\n        /* \"#utility.yul\":5558:5565   */\n      dup5\n        /* \"#utility.yul\":5549:5555   */\n      dup3\n        /* \"#utility.yul\":5538:5547   */\n      dup6\n        /* \"#utility.yul\":5534:5556   */\n      add\n        /* \"#utility.yul\":5513:5566   */\n      tag_125\n      jump\t// in\n    tag_228:\n        /* \"#utility.yul\":5503:5566   */\n      swap2\n      pop\n        /* \"#utility.yul\":5459:5576   */\n      pop\n        /* \"#utility.yul\":5254:5583   */\n      swap3\n      swap2\n      pop\n      pop\n      jump\t// out\n        /* \"#utility.yul\":5589:5679   */\n    tag_136:\n        /* \"#utility.yul\":5623:5630   */\n      0x00\n        /* \"#utility.yul\":5666:5671   */\n      dup2\n        /* \"#utility.yul\":5659:5672   */\n      iszero\n        /* \"#utility.yul\":5652:5673   */\n      iszero\n        /* \"#utility.yul\":5641:5673   */\n      swap1\n      pop\n        /* \"#utility.yul\":5589:5679   */\n      swap2\n      swap1\n      pop\n      jump\t// out\n        /* \"#utility.yul\":5685:5794   */\n    tag_137:\n        /* \"#utility.yul\":5766:5787   */\n      tag_231\n        /* \"#utility.yul\":5781:5786   */\n      dup2\n        /* \"#utility.yul\":5766:5787   */\n      tag_136\n      jump\t// in\n    tag_231:\n        /* \"#utility.yul\":5761:5764   */\n      dup3\n        /* \"#utility.yul\":5754:5788   */\n      mstore\n        /* \"#utility.yul\":5685:5794   */\n      pop\n      pop\n      jump\t// out\n        /* \"#utility.yul\":5800:6010   */\n    tag_35:\n        /* \"#utility.yul\":5887:5891   */\n      0x00\n        /* \"#utility.yul\":5925:5927   */\n      0x20\n        /* \"#utility.yul\":5914:5923   */\n      dup3\n        /* \"#utility.yul\":5910:5928   */\n      add\n        /* \"#utility.yul\":5902:5928   */\n      swap1\n      pop\n        /* \"#utility.yul\":5938:6003   */\n      tag_233\n        /* \"#utility.yul\":6000:6001   */\n      0x00\n        /* \"#utility.yul\":5989:5998   */\n      dup4\n        /* \"#utility.yul\":5985:6002   */\n      add\n        /* \"#utility.yul\":5976:5982   */\n      dup5\n        /* \"#utility.yul\":5938:6003   */\n      tag_137\n      jump\t// in\n    tag_233:\n        /* \"#utility.yul\":5800:6010   */\n      swap3\n      swap2\n      pop\n      pop\n      jump\t// out\n        /* \"#utility.yul\":6016:6490   */\n    tag_39:\n        /* \"#utility.yul\":6084:6090   */\n      0x00\n        /* \"#utility.yul\":6092:6098   */\n      0x00\n        /* \"#utility.yul\":6141:6143   */\n      0x40\n        /* \"#utility.yul\":6129:6138   */\n      dup4\n        /* \"#utility.yul\":6120:6127   */\n      dup6\n        /* \"#utility.yul\":6116:6139   */\n      sub\n        /* \"#utility.yul\":6112:6144   */\n      slt\n        /* \"#utility.yul\":6109:6228   */\n      iszero\n      tag_235\n      jumpi\n        /* \"#utility.yul\":6147:6226   */\n      tag_236\n      tag_117\n      jump\t// in\n    tag_236:\n        /* \"#utility.yul\":6109:6228   */\n    tag_235:\n        /* \"#utility.yul\":6267:6268   */\n      0x00\n        /* \"#utility.yul\":6292:6345   */\n      tag_237\n        /* \"#utility.yul\":6337:6344   */\n      dup6\n        /* \"#utility.yul\":6328:6334   */\n      dup3\n        /* \"#utility.yul\":6317:6326   */\n      dup7\n        /* \"#utility.yul\":6313:6335   */\n      add\n        /* \"#utility.yul\":6292:6345   */\n      tag_120\n      jump\t// in\n    tag_237:\n        /* \"#utility.yul\":6282:6345   */\n      swap3\n      pop\n        /* \"#utility.yul\":6238:6355   */\n      pop\n        /* \"#utility.yul\":6394:6396   */\n      0x20\n        /* \"#utility.yul\":6420:6473   */\n      tag_238\n        /* \"#utility.yul\":6465:6472   */\n      dup6\n        /* \"#utility.yul\":6456:6462   */\n      dup3\n        /* \"#utility.yul\":6445:6454   */\n      dup7\n        /* \"#utility.yul\":6441:6463   */\n      add\n        /* \"#utility.yul\":6420:6473   */\n      tag_125\n      jump\t// in\n    tag_238:\n        /* \"#utility.yul\":6410:6473   */\n      swap2\n      pop\n        /* \"#utility.yul\":6365:6483   */\n      pop\n        /* \"#utility.yul\":6016:6490   */\n      swap3\n      pop\n      swap3\n      swap1\n      pop\n      jump\t// out\n        /* \"#utility.yul\":6496:6594   */\n    tag_138:\n        /* \"#utility.yul\":6547:6553   */\n      0x00\n        /* \"#utility.yul\":6581:6586   */\n      dup2\n        /* \"#utility.yul\":6575:6587   */\n      mload\n        /* \"#utility.yul\":6565:6587   */\n      swap1\n      pop\n        /* \"#utility.yul\":6496:6594   */\n      swap2\n      swap1\n      pop\n      jump\t// out\n        /* \"#utility.yul\":6600:6768   */\n    tag_139:\n        /* \"#utility.yul\":6683:6694   */\n      0x00\n        /* \"#utility.yul\":6717:6723   */\n      dup3\n        /* \"#utility.yul\":6712:6715   */\n      dup3\n        /* \"#utility.yul\":6705:6724   */\n      mstore\n        /* \"#utility.yul\":6757:6761   */\n      0x20\n        /* \"#utility.yul\":6752:6755   */\n      dup3\n        /* \"#utility.yul\":6748:6762   */\n      add\n        /* \"#utility.yul\":6733:6762   */\n      swap1\n      pop\n        /* \"#utility.yul\":6600:6768   */\n      swap3\n      swap2\n      pop\n      pop\n      jump\t// out\n        /* \"#utility.yul\":6774:6913   */\n    tag_140:\n        /* \"#utility.yul\":6863:6869   */\n      dup3\n        /* \"#utility.yul\":6858:6861   */\n      dup2\n        /* \"#utility.yul\":6853:6856   */\n      dup4\n        /* \"#utility.yul\":6847:6870   */\n      mcopy\n        /* \"#utility.yul\":6904:6905   */\n      0x00\n        /* \"#utility.yul\":6895:6901   */\n      dup4\n        /* \"#utility.yul\":6890:6893   */\n      dup4\n        /* \"#utility.yul\":6886:6902   */\n      add\n        /* \"#utility.yul\":6879:6906   */\n      mstore\n        /* \"#utility.yul\":6774:6913   */\n      pop\n      pop\n      pop\n      jump\t// out\n        /* \"#utility.yul\":6919:7292   */\n    tag_141:\n        /* \"#utility.yul\":7005:7008   */\n      0x00\n        /* \"#utility.yul\":7033:7071   */\n      tag_243\n        /* \"#utility.yul\":7065:7070   */\n      dup3\n        /* \"#utility.yul\":7033:7071   */\n      tag_138\n      jump\t// in\n    tag_243:\n        /* \"#utility.yul\":7087:7157   */\n      tag_244\n        /* \"#utility.yul\":7150:7156   */\n      dup2\n        /* \"#utility.yul\":7145:7148   */\n      dup6\n        /* \"#utility.yul\":7087:7157   */\n      tag_139\n      jump\t// in\n    tag_244:\n        /* \"#utility.yul\":7080:7157   */\n      swap4\n      pop\n        /* \"#utility.yul\":7166:7231   */\n      tag_245\n        /* \"#utility.yul\":7224:7230   */\n      dup2\n        /* \"#utility.yul\":7219:7222   */\n      dup6\n        /* \"#utility.yul\":7212:7216   */\n      0x20\n        /* \"#utility.yul\":7205:7210   */\n      dup7\n        /* \"#utility.yul\":7201:7217   */\n      add\n        /* \"#utility.yul\":7166:7231   */\n      tag_140\n      jump\t// in\n    tag_245:\n        /* \"#utility.yul\":7256:7285   */\n      tag_246\n        /* \"#utility.yul\":7278:7284   */\n      dup2\n        /* \"#utility.yul\":7256:7285   */\n      tag_128\n      jump\t// in\n    tag_246:\n        /* \"#utility.yul\":7251:7254   */\n      dup5\n        /* \"#utility.yul\":7247:7286   */\n      add\n        /* \"#utility.yul\":7240:7286   */\n      swap2\n      pop\n        /* \"#utility.yul\":7009:7292   */\n      pop\n        /* \"#utility.yul\":6919:7292   */\n      swap3\n      swap2\n      pop\n      pop\n      jump\t// out\n        /* \"#utility.yul\":7298:8037   */\n    tag_47:\n        /* \"#utility.yul\":7515:7519   */\n      0x00\n        /* \"#utility.yul\":7553:7556   */\n      0xa0\n        /* \"#utility.yul\":7542:7551   */\n      dup3\n        /* \"#utility.yul\":7538:7557   */\n      add\n        /* \"#utility.yul\":7530:7557   */\n      swap1\n      pop\n        /* \"#utility.yul\":7567:7638   */\n      tag_248\n        /* \"#utility.yul\":7635:7636   */\n      0x00\n        /* \"#utility.yul\":7624:7633   */\n      dup4\n        /* \"#utility.yul\":7620:7637   */\n      add\n        /* \"#utility.yul\":7611:7617   */\n      dup9\n        /* \"#utility.yul\":7567:7638   */\n      tag_123\n      jump\t// in\n    tag_248:\n        /* \"#utility.yul\":7648:7720   */\n      tag_249\n        /* \"#utility.yul\":7716:7718   */\n      0x20\n        /* \"#utility.yul\":7705:7714   */\n      dup4\n        /* \"#utility.yul\":7701:7719   */\n      add\n        /* \"#utility.yul\":7692:7698   */\n      dup8\n        /* \"#utility.yul\":7648:7720   */\n      tag_115\n      jump\t// in\n    tag_249:\n        /* \"#utility.yul\":7767:7776   */\n      dup2\n        /* \"#utility.yul\":7761:7765   */\n      dup2\n        /* \"#utility.yul\":7757:7777   */\n      sub\n        /* \"#utility.yul\":7752:7754   */\n      0x40\n        /* \"#utility.yul\":7741:7750   */\n      dup4\n        /* \"#utility.yul\":7737:7755   */\n      add\n        /* \"#utility.yul\":7730:7778   */\n      mstore\n        /* \"#utility.yul\":7795:7871   */\n      tag_250\n        /* \"#utility.yul\":7866:7870   */\n      dup2\n        /* \"#utility.yul\":7857:7863   */\n      dup7\n        /* \"#utility.yul\":7795:7871   */\n      tag_141\n      jump\t// in\n    tag_250:\n        /* \"#utility.yul\":7787:7871   */\n      swap1\n      pop\n        /* \"#utility.yul\":7881:7947   */\n      tag_251\n        /* \"#utility.yul\":7943:7945   */\n      0x60\n        /* \"#utility.yul\":7932:7941   */\n      dup4\n        /* \"#utility.yul\":7928:7946   */\n      add\n        /* \"#utility.yul\":7919:7925   */\n      dup6\n        /* \"#utility.yul\":7881:7947   */\n      tag_137\n      jump\t// in\n    tag_251:\n        /* \"#utility.yul\":7957:8030   */\n      tag_252\n        /* \"#utility.yul\":8025:8028   */\n      0x80\n        /* \"#utility.yul\":8014:8023   */\n      dup4\n        /* \"#utility.yul\":8010:8029   */\n      add\n        /* \"#utility.yul\":8001:8007   */\n      dup5\n        /* \"#utility.yul\":7957:8030   */\n      tag_115\n      jump\t// in\n    tag_252:\n        /* \"#utility.yul\":7298:8037   */\n      swap7\n      swap6\n      pop\n      pop\n      pop\n      pop\n      pop\n      pop\n      jump\t// out\n        /* \"#utility.yul\":8043:8223   */\n    tag_142:\n        /* \"#utility.yul\":8091:8168   */\n      0x4e487b7100000000000000000000000000000000000000000000000000000000\n        /* \"#utility.yul\":8088:8089   */\n      0x00\n        /* \"#utility.yul\":8081:8169   */\n      mstore\n        /* \"#utility.yul\":8188:8192   */\n      0x22\n        /* \"#utility.yul\":8185:8186   */\n      0x04\n        /* \"#utility.yul\":8178:8193   */\n      mstore\n        /* \"#utility.yul\":8212:8216   */\n      0x24\n        /* \"#utility.yul\":8209:8210   */\n      0x00\n        /* \"#utility.yul\":8202:8217   */\n      revert\n        /* \"#utility.yul\":8229:8549   */\n    tag_71:\n        /* \"#utility.yul\":8273:8279   */\n      0x00\n        /* \"#utility.yul\":8310:8311   */\n      0x02\n        /* \"#utility.yul\":8304:8308   */\n      dup3\n        /* \"#utility.yul\":8300:8312   */\n      div\n        /* \"#utility.yul\":8290:8312   */\n      swap1\n      pop\n        /* \"#utility.yul\":8357:8358   */\n      0x01\n        /* \"#utility.yul\":8351:8355   */\n      dup3\n        /* \"#utility.yul\":8347:8359   */\n      and\n        /* \"#utility.yul\":8378:8396   */\n      dup1\n        /* \"#utility.yul\":8368:8449   */\n      tag_255\n      jumpi\n        /* \"#utility.yul\":8434:8438   */\n      0x7f\n        /* \"#utility.yul\":8426:8432   */\n      dup3\n        /* \"#utility.yul\":8422:8439   */\n      and\n        /* \"#utility.yul\":8412:8439   */\n      swap2\n      pop\n        /* \"#utility.yul\":8368:8449   */\n    tag_255:\n        /* \"#utility.yul\":8496:8498   */\n      0x20\n        /* \"#utility.yul\":8488:8494   */\n      dup3\n        /* \"#utility.yul\":8485:8499   */\n      lt\n        /* \"#utility.yul\":8465:8483   */\n      dup2\n        /* \"#utility.yul\":8462:8500   */\n      sub\n        /* \"#utility.yul\":8459:8543   */\n      tag_256\n      jumpi\n        /* \"#utility.yul\":8515:8533   */\n      tag_257\n      tag_142\n      jump\t// in\n    tag_257:\n        /* \"#utility.yul\":8459:8543   */\n    tag_256:\n        /* \"#utility.yul\":8280:8549   */\n      pop\n        /* \"#utility.yul\":8229:8549   */\n      swap2\n      swap1\n      pop\n      jump\t// out\n        /* \"#utility.yul\":8555:8695   */\n    tag_143:\n        /* \"#utility.yul\":8603:8607   */\n      0x00\n        /* \"#utility.yul\":8626:8629   */\n      dup2\n        /* \"#utility.yul\":8618:8629   */\n      swap1\n      pop\n        /* \"#utility.yul\":8649:8652   */\n      dup2\n        /* \"#utility.yul\":8646:8647   */\n      0x00\n        /* \"#utility.yul\":8639:8653   */\n      mstore\n        /* \"#utility.yul\":8683:8687   */\n      0x20\n        /* \"#utility.yul\":8680:8681   */\n      0x00\n        /* \"#utility.yul\":8670:8688   */\n      keccak256\n        /* \"#utility.yul\":8662:8688   */\n      swap1\n      pop\n        /* \"#utility.yul\":8555:8695   */\n      swap2\n      swap1\n      pop\n      jump\t// out\n        /* \"#utility.yul\":8701:8794   */\n    tag_144:\n        /* \"#utility.yul\":8738:8744   */\n      0x00\n        /* \"#utility.yul\":8785:8787   */\n      0x20\n        /* \"#utility.yul\":8780:8782   */\n      0x1f\n        /* \"#utility.yul\":8773:8778   */\n      dup4\n        /* \"#utility.yul\":8769:8783   */\n      add\n        /* \"#utility.yul\":8765:8788   */\n      div\n        /* \"#utility.yul\":8755:8788   */\n      swap1\n      pop\n        /* \"#utility.yul\":8701:8794   */\n      swap2\n      swap1\n      pop\n      jump\t// out\n        /* \"#utility.yul\":8800:8907   */\n    tag_145:\n        /* \"#utility.yul\":8844:8852   */\n      0x00\n        /* \"#utility.yul\":8894:8899   */\n      dup3\n        /* \"#utility.yul\":8888:8892   */\n      dup3\n        /* \"#utility.yul\":8884:8900   */\n      shl\n        /* \"#utility.yul\":8863:8900   */\n      swap1\n      pop\n        /* \"#utility.yul\":8800:8907   */\n      swap3\n      swap2\n      pop\n      pop\n      jump\t// out\n        /* \"#utility.yul\":8913:9306   */\n    tag_146:\n        /* \"#utility.yul\":8982:8988   */\n      0x00\n        /* \"#utility.yul\":9032:9033   */\n      0x08\n        /* \"#utility.yul\":9020:9030   */\n      dup4\n        /* \"#utility.yul\":9016:9034   */\n      mul\n        /* \"#utility.yul\":9055:9152   */\n      tag_262\n        /* \"#utility.yul\":9085:9151   */\n      0xffffffffffffffffffffffffffffffffffffffffffffffffffffffffffffffff\n        /* \"#utility.yul\":9074:9083   */\n      dup3\n        /* \"#utility.yul\":9055:9152   */\n      tag_145\n      jump\t// in\n    tag_262:\n        /* \"#utility.yul\":9173:9212   */\n      tag_263\n        /* \"#utility.yul\":9203:9211   */\n      dup7\n        /* \"#utility.yul\":9192:9201   */\n      dup4\n        /* \"#utility.yul\":9173:9212   */\n      tag_145\n      jump\t// in\n    tag_263:\n        /* \"#utility.yul\":9161:9212   */\n      swap6\n      pop\n        /* \"#utility.yul\":9245:9249   */\n      dup1\n        /* \"#utility.yul\":9241:9250   */\n      not\n        /* \"#utility.yul\":9234:9239   */\n      dup5\n        /* \"#utility.yul\":9230:9251   */\n      and\n        /* \"#utility.yul\":9221:9251   */\n      swap4\n      pop\n        /* \"#utility.yul\":9294:9298   */\n      dup1\n        /* \"#utility.yul\":9284:9292   */\n      dup7\n        /* \"#utility.yul\":9280:9299   */\n      and\n        /* \"#utility.yul\":9273:9278   */\n      dup5\n        /* \"#utility.yul\":9270:9300   */\n      or\n        /* \"#utility.yul\":9260:9300   */\n      swap3\n      pop\n        /* \"#utility.yul\":8989:9306   */\n      pop\n      pop\n        /* \"#utility.yul\":8913:9306   */\n      swap4\n      swap3\n      pop\n      pop\n      pop\n      jump\t// out\n        /* \"#utility.yul\":9312:9372   */\n    tag_147:\n        /* \"#utility.yul\":9340:9343   */\n      0x00\n        /* \"#utility.yul\":9361:9366   */\n      dup2\n        /* \"#utility.yul\":9354:9366   */\n      swap1\n      pop\n        /* \"#utility.yul\":9312:9372   */\n      swap2\n      swap1\n      pop\n      jump\t// out\n        /* \"#utility.yul\":9378:9520   */\n    tag_148:\n        /* \"#utility.yul\":9428:9437   */\n      0x00\n        /* \"#utility.yul\":9461:9514   */\n      tag_266\n        /* \"#utility.yul\":9479:9513   */\n      tag_267\n        /* \"#utility.yul\":9488:9512   */\n      tag_268\n        /* \"#utility.yul\":9506:9511   */\n      dup5\n        /* \"#utility.yul\":9488:9512   */\n      tag_114\n      jump\t// in\n    tag_268:\n        /* \"#utility.yul\":9479:9513   */\n      tag_147\n      jump\t// in\n    tag_267:\n        /* \"#utility.yul\":9461:9514   */\n      tag_114\n      jump\t// in\n    tag_266:\n        /* \"#utility.yul\":9448:9514   */\n      swap1\n      pop\n        /* \"#utility.yul\":9378:9520   */\n      swap2\n      swap1\n      pop\n      jump\t// out\n        /* \"#utility.yul\":9526:9601   */\n    tag_149:\n        /* \"#utility.yul\":9569:9572   */\n      0x00\n        /* \"#utility.yul\":9590:9595   */\n      dup2\n        /* \"#utility.yul\":9583:9595   */\n      swap1\n      pop\n        /* \"#utility.yul\":9526:9601   */\n      swap2\n      swap1\n      pop\n      jump\t// out\n        /* \"#utility.yul\":9607:9876   */\n    tag_150:\n        /* \"#utility.yul\":9717:9756   */\n      tag_271\n        /* \"#utility.yul\":9748:9755   */\n      dup4\n        /* \"#utility.yul\":9717:9756   */\n      tag_148\n      jump\t// in\n    tag_271:\n        /* \"#utility.yul\":9778:9869   */\n      tag_272\n        /* \"#utility.yul\":9827:9868   */\n      tag_273\n        /* \"#utility.yul\":9851:9867   */\n      dup3\n        /* \"#utility.yul\":9827:9868   */\n      tag_149\n      jump\t// in\n    tag_273:\n        /* \"#utility.yul\":9819:9825   */\n      dup5\n        /* \"#utility.yul\":9812:9816   */\n      dup5\n        /* \"#utility.yul\":9806:9817   */\n      sload\n        /* \"#utility.yul\":9778:9869   */\n      tag_146\n      jump\t// in\n    tag_272:\n        /* \"#utility.yul\":9772:9776   */\n      dup3\n        /* \"#utility.yul\":9765:9870   */\n      sstore\n        /* \"#utility.yul\":9683:9876   */\n      pop\n        /* \"#utility.yul\":9607:9876   */\n      pop\n      pop\n      pop\n      jump\t// out\n        /* \"#utility.yul\":9882:9955   */\n    tag_151:\n        /* \"#utility.yul\":9927:9930   */\n      0x00\n        /* \"#utility.yul\":9948:9949   */\n      0x00\n        /* \"#utility.yul\":9941:9949   */\n      swap1\n      pop\n        /* \"#utility.yul\":9882:9955   */\n      swap1\n      jump\t// out\n        /* \"#utility.yul\":9961:10150   */\n    tag_152:\n        /* \"#utility.yul\":10038:10070   */\n      tag_276\n      tag_151\n      jump\t// in\n    tag_276:\n        /* \"#utility.yul\":10079:10144   */\n      tag_277\n        /* \"#utility.yul\":10137:10143   */\n      dup2\n        /* \"#utility.yul\":10129:10135   */\n      dup5\n        /* \"#utility.yul\":10123:10127   */\n      dup5\n        /* \"#utility.yul\":10079:10144   */\n      tag_150\n      jump\t// in\n    tag_277:\n        /* \"#utility.yul\":10014:10150   */\n      pop\n        /* \"#utility.yul\":9961:10150   */\n      pop\n      pop\n      jump\t// out\n        /* \"#utility.yul\":10156:10342   */\n    tag_153:\n        /* \"#utility.yul\":10216:10336   */\n    tag_279:\n        /* \"#utility.yul\":10233:10236   */\n      dup2\n        /* \"#utility.yul\":10226:10231   */\n      dup2\n        /* \"#utility.yul\":10223:10237   */\n      lt\n        /* \"#utility.yul\":10216:10336   */\n      iszero\n      tag_281\n      jumpi\n        /* \"#utility.yul\":10287:10326   */\n      tag_282\n        /* \"#utility.yul\":10324:10325   */\n      0x00\n        /* \"#utility.yul\":10317:10322   */\n      dup3\n        /* \"#utility.yul\":10287:10326   */\n      tag_152\n      jump\t// in\n    tag_282:\n        /* \"#utility.yul\":10260:10261   */\n      0x01\n        /* \"#utility.yul\":10253:10258   */\n      dup2\n        /* \"#utility.yul\":10249:10262   */\n      add\n        /* \"#utility.yul\":10240:10262   */\n      swap1\n      pop\n        /* \"#utility.yul\":10216:10336   */\n      jump(tag_279)\n    tag_281:\n        /* \"#utility.yul\":10156:10342   */\n      pop\n      pop\n      jump\t// out\n        /* \"#utility.yul\":10348:10889   */\n    tag_154:\n        /* \"#utility.yul\":10448:10450   */\n      0x1f\n        /* \"#utility.yul\":10443:10446   */\n      dup3\n        /* \"#utility.yul\":10440:10451   */\n      gt\n        /* \"#utility.yul\":10437:10882   */\n      iszero\n      tag_284\n      jumpi\n        /* \"#utility.yul\":10482:10519   */\n      tag_285\n        /* \"#utility.yul\":10513:10518   */\n      dup2\n        /* \"#utility.yul\":10482:10519   */\n      tag_143\n      jump\t// in\n    tag_285:\n        /* \"#utility.yul\":10565:10594   */\n      tag_286\n        /* \"#utility.yul\":10583:10593   */\n      dup5\n        /* \"#utility.yul\":10565:10594   */\n      tag_144\n      jump\t// in\n    tag_286:\n        /* \"#utility.yul\":10555:10563   */\n      dup2\n        /* \"#utility.yul\":10551:10595   */\n      add\n        /* \"#utility.yul\":10748:10750   */\n      0x20\n        /* \"#utility.yul\":10736:10746   */\n      dup6\n        /* \"#utility.yul\":10733:10751   */\n      lt\n        /* \"#utility.yul\":10730:10779   */\n      iszero\n      tag_287\n      jumpi\n        /* \"#utility.yul\":10769:10777   */\n      dup2\n        /* \"#utility.yul\":10754:10777   */\n      swap1\n      pop\n        /* \"#utility.yul\":10730:10779   */\n    tag_287:\n        /* \"#utility.yul\":10792:10872   */\n      tag_288\n        /* \"#utility.yul\":10848:10870   */\n      tag_289\n        /* \"#utility.yul\":10866:10869   */\n      dup6\n        /* \"#utility.yul\":10848:10870   */\n      tag_144\n      jump\t// in\n    tag_289:\n        /* \"#utility.yul\":10838:10846   */\n      dup4\n        /* \"#utility.yul\":10834:10871   */\n      add\n        /* \"#utility.yul\":10821:10832   */\n      dup3\n        /* \"#utility.yul\":10792:10872   */\n      tag_153\n      jump\t// in\n    tag_288:\n        /* \"#utility.yul\":10452:10882   */\n      pop\n      pop\n        /* \"#utility.yul\":10437:10882   */\n    tag_284:\n        /* \"#utility.yul\":10348:10889   */\n      pop\n      pop\n      pop\n      jump\t// out\n        /* \"#utility.yul\":10895:11012   */\n    tag_155:\n        /* \"#utility.yul\":10949:10957   */\n      0x00\n        /* \"#utility.yul\":10999:11004   */\n      dup3\n        /* \"#utility.yul\":10993:10997   */\n      dup3\n        /* \"#utility.yul\":10989:11005   */\n      shr\n        /* \"#utility.yul\":10968:11005   */\n      swap1\n      pop\n        /* \"#utility.yul\":10895:11012   */\n      swap3\n      swap2\n      pop\n      pop\n      jump\t// out\n        /* \"#utility.yul\":11018:11187   */\n    tag_156:\n        /* \"#utility.yul\":11062:11068   */\n      0x00\n        /* \"#utility.yul\":11095:11146   */\n      tag_292\n        /* \"#utility.yul\":11143:11144   */\n      0x00\n        /* \"#utility.yul\":11139:11145   */\n      not\n        /* \"#utility.yul\":11131:11136   */\n      dup5\n        /* \"#utility.yul\":11128:11129   */\n      0x08\n        /* \"#utility.yul\":11124:11137   */\n      mul\n        /* \"#utility.yul\":11095:11146   */\n      tag_155\n      jump\t// in\n    tag_292:\n        /* \"#utility.yul\":11091:11147   */\n      not\n        /* \"#utility.yul\":11176:11180   */\n      dup1\n        /* \"#utility.yul\":11170:11174   */\n      dup4\n        /* \"#utility.yul\":11166:11181   */\n      and\n        /* \"#utility.yul\":11156:11181   */\n      swap2\n      pop\n        /* \"#utility.yul\":11069:11187   */\n      pop\n        /* \"#utility.yul\":11018:11187   */\n      swap3\n      swap2\n      pop\n      pop\n      jump\t// out\n        /* \"#utility.yul\":11192:11487   */\n    tag_157:\n        /* \"#utility.yul\":11268:11272   */\n      0x00\n        /* \"#utility.yul\":11414:11443   */\n      tag_294\n        /* \"#utility.yul\":11439:11442   */\n      dup4\n        /* \"#utility.yul\":11433:11437   */\n      dup4\n        /* \"#utility.yul\":11414:11443   */\n      tag_156\n      jump\t// in\n    tag_294:\n        /* \"#utility.yul\":11406:11443   */\n      swap2\n      pop\n        /* \"#utility.yul\":11476:11479   */\n      dup3\n        /* \"#utility.yul\":11473:11474   */\n      0x02\n        /* \"#utility.yul\":11469:11480   */\n      mul\n        /* \"#utility.yul\":11463:11467   */\n      dup3\n        /* \"#utility.yul\":11460:11481   */\n      or\n        /* \"#utility.yul\":11452:11481   */\n      swap1\n      pop\n        /* \"#utility.yul\":11192:11487   */\n      swap3\n      swap2\n      pop\n      pop\n      jump\t// out\n        /* \"#utility.yul\":11492:12882   */\n    tag_67:\n        /* \"#utility.yul\":11607:11643   */\n      tag_296\n        /* \"#utility.yul\":11639:11642   */\n      dup3\n        /* \"#utility.yul\":11607:11643   */\n      tag_138\n      jump\t// in\n    tag_296:\n        /* \"#utility.yul\":11708:11726   */\n      0xffffffffffffffff\n        /* \"#utility.yul\":11700:11706   */\n      dup2\n        /* \"#utility.yul\":11697:11727   */\n      gt\n        /* \"#utility.yul\":11694:11750   */\n      iszero\n      tag_297\n      jumpi\n        /* \"#utility.yul\":11730:11748   */\n      tag_298\n      tag_129\n      jump\t// in\n    tag_298:\n        /* \"#utility.yul\":11694:11750   */\n    tag_297:\n        /* \"#utility.yul\":11774:11812   */\n      tag_299\n        /* \"#utility.yul\":11806:11810   */\n      dup3\n        /* \"#utility.yul\":11800:11811   */\n      sload\n        /* \"#utility.yul\":11774:11812   */\n      tag_71\n      jump\t// in\n    tag_299:\n        /* \"#utility.yul\":11859:11925   */\n      tag_300\n        /* \"#utility.yul\":11918:11924   */\n      dup3\n        /* \"#utility.yul\":11910:11916   */\n      dup3\n        /* \"#utility.yul\":11904:11908   */\n      dup6\n        /* \"#utility.yul\":11859:11925   */\n      tag_154\n      jump\t// in\n    tag_300:\n        /* \"#utility.yul\":11952:11953   */\n      0x00\n        /* \"#utility.yul\":11976:11980   */\n      0x20\n        /* \"#utility.yul\":11963:11980   */\n      swap1\n      pop\n        /* \"#utility.yul\":12008:12010   */\n      0x1f\n        /* \"#utility.yul\":12000:12006   */\n      dup4\n        /* \"#utility.yul\":11997:12011   */\n      gt\n        /* \"#utility.yul\":12025:12026   */\n      0x01\n        /* \"#utility.yul\":12020:12637   */\n      dup2\n      eq\n      tag_302\n      jumpi\n        /* \"#utility.yul\":12681:12682   */\n      0x00\n        /* \"#utility.yul\":12698:12704   */\n      dup5\n        /* \"#utility.yul\":12695:12772   */\n      iszero\n      tag_303\n      jumpi\n        /* \"#utility.yul\":12747:12756   */\n      dup3\n        /* \"#utility.yul\":12742:12745   */\n      dup8\n        /* \"#utility.yul\":12738:12757   */\n      add\n        /* \"#utility.yul\":12732:12758   */\n      mload\n        /* \"#utility.yul\":12723:12758   */\n      swap1\n      pop\n        /* \"#utility.yul\":12695:12772   */\n    tag_303:\n        /* \"#utility.yul\":12798:12865   */\n      tag_304\n        /* \"#utility.yul\":12858:12864   */\n      dup6\n        /* \"#utility.yul\":12851:12856   */\n      dup3\n        /* \"#utility.yul\":12798:12865   */\n      tag_157\n      jump\t// in\n    tag_304:\n        /* \"#utility.yul\":12792:12796   */\n      dup7\n        /* \"#utility.yul\":12785:12866   */\n      sstore\n        /* \"#utility.yul\":12654:12876   */\n      pop\n        /* \"#utility.yul\":11990:12876   */\n      jump(tag_301)\n        /* \"#utility.yul\":12020:12637   */\n    tag_302:\n        /* \"#utility.yul\":12072:12076   */\n      0x1f\n        /* \"#utility.yul\":12068:12077   */\n      not\n        /* \"#utility.yul\":12060:12066   */\n      dup5\n        /* \"#utility.yul\":12056:12078   */\n      and\n        /* \"#utility.yul\":12106:12142   */\n      tag_305\n        /* \"#utility.yul\":12137:12141   */\n      dup7\n        /* \"#utility.yul\":12106:12142   */\n      tag_143\n      jump\t// in\n    tag_305:\n        /* \"#utility.yul\":12164:12165   */\n      0x00\n        /* \"#utility.yul\":12178:12386   */\n    tag_306:\n        /* \"#utility.yul\":12192:12199   */\n      dup3\n        /* \"#utility.yul\":12189:12190   */\n      dup2\n        /* \"#utility.yul\":12186:12200   */\n      lt\n        /* \"#utility.yul\":12178:12386   */\n      iszero\n      tag_308\n      jumpi\n        /* \"#utility.yul\":12271:12280   */\n      dup5\n        /* \"#utility.yul\":12266:12269   */\n      dup10\n        /* \"#utility.yul\":12262:12281   */\n      add\n        /* \"#utility.yul\":12256:12282   */\n      mload\n        /* \"#utility.yul\":12248:12254   */\n      dup3\n        /* \"#utility.yul\":12241:12283   */\n      sstore\n        /* \"#utility.yul\":12322:12323   */\n      0x01\n        /* \"#utility.yul\":12314:12320   */\n      dup3\n        /* \"#utility.yul\":12310:12324   */\n      add\n        /* \"#utility.yul\":12300:12324   */\n      swap2\n      pop\n        /* \"#utility.yul\":12369:12371   */\n      0x20\n        /* \"#utility.yul\":12358:12367   */\n      dup6\n        /* \"#utility.yul\":12354:12372   */\n      add\n        /* \"#utility.yul\":12341:12372   */\n      swap5\n      pop\n        /* \"#utility.yul\":12215:12219   */\n      0x20\n        /* \"#utility.yul\":12212:12213   */\n      dup2\n        /* \"#utility.yul\":12208:12220   */\n      add\n        /* \"#utility.yul\":12203:12220   */\n      swap1\n      pop\n        /* \"#utility.yul\":12178:12386   */\n      jump(tag_306)\n    tag_308:\n        /* \"#utility.yul\":12414:12420   */\n      dup7\n        /* \"#utility.yul\":12405:12412   */\n      dup4\n        /* \"#utility.yul\":12402:12421   */\n      lt\n        /* \"#utility.yul\":12399:12578   */\n      iszero\n      tag_309\n      jumpi\n        /* \"#utility.yul\":12472:12481   */\n      dup5\n        /* \"#utility.yul\":12467:12470   */\n      dup10\n        /* \"#utility.yul\":12463:12482   */\n      add\n        /* \"#utility.yul\":12457:12483   */\n      mload\n        /* \"#utility.yul\":12515:12563   */\n      tag_310\n        /* \"#utility.yul\":12557:12561   */\n      0x1f\n        /* \"#utility.yul\":12549:12555   */\n      dup10\n        /* \"#utility.yul\":12545:12562   */\n      and\n        /* \"#utility.yul\":12534:12543   */\n      dup3\n        /* \"#utility.yul\":12515:12563   */\n      tag_156\n      jump\t// in\n    tag_310:\n        /* \"#utility.yul\":12507:12513   */\n      dup4\n        /* \"#utility.yul\":12500:12564   */\n      sstore\n        /* \"#utility.yul\":12422:12578   */\n      pop\n        /* \"#utility.yul\":12399:12578   */\n    tag_309:\n        /* \"#utility.yul\":12624:12625   */\n      0x01\n        /* \"#utility.yul\":12620:12621   */\n      0x02\n        /* \"#utility.yul\":12612:12618   */\n      dup9\n        /* \"#utility.yul\":12608:12622   */\n      mul\n        /* \"#utility.yul\":12604:12626   */\n      add\n        /* \"#utility.yul\":12598:12602   */\n      dup9\n        /* \"#utility.yul\":12591:12627   */\n      sstore\n        /* \"#utility.yul\":12027:12637   */\n      pop\n      pop\n      pop\n        /* \"#utility.yul\":11990:12876   */\n    tag_301:\n      pop\n        /* \"#utility.yul\":11582:12882   */\n      pop\n      pop\n      pop\n        /* \"#utility.yul\":11492:12882   */\n      pop\n      pop\n      jump\t// out\n        /* \"#utility.yul\":12888:13068   */\n    tag_83:\n        /* \"#utility.yul\":12936:13013   */\n      0x4e487b7100000000000000000000000000000000000000000000000000000000\n        /* \"#utility.yul\":12933:12934   */\n      0x00\n        /* \"#utility.yul\":12926:13014   */\n      mstore\n        /* \"#utility.yul\":13033:13037   */\n      0x32\n        /* \"#utility.yul\":13030:13031   */\n      0x04\n        /* \"#utility.yul\":13023:13038   */\n      mstore\n        /* \"#utility.yul\":13057:13061   */\n      0x24\n        /* \"#utility.yul\":13054:13055   */\n      0x00\n        /* \"#utility.yul\":13047:13062   */\n      revert\n        /* \"#utility.yul\":13074:13254   */\n    tag_158:\n        /* \"#utility.yul\":13122:13199   */\n      0x4e487b7100000000000000000000000000000000000000000000000000000000\n        /* \"#utility.yul\":13119:13120   */\n      0x00\n        /* \"#utility.yul\":13112:13200   */\n      mstore\n        /* \"#utility.yul\":13219:13223   */\n      0x11\n        /* \"#utility.yul\":13216:13217   */\n      0x04\n        /* \"#utility.yul\":13209:13224   */\n      mstore\n        /* \"#utility.yul\":13243:13247   */\n      0x24\n        /* \"#utility.yul\":13240:13241   */\n      0x00\n        /* \"#utility.yul\":13233:13248   */\n      revert\n        /* \"#utility.yul\":13260:13451   */\n    tag_92:\n        /* \"#utility.yul\":13300:13303   */\n      0x00\n        /* \"#utility.yul\":13319:13339   */\n      tag_314\n        /* \"#utility.yul\":13337:13338   */\n      dup3\n        /* \"#utility.yul\":13319:13339   */\n      tag_114\n      jump\t// in\n    tag_314:\n        /* \"#utility.yul\":13314:13339   */\n      swap2\n      pop\n        /* \"#utility.yul\":13353:13373   */\n      tag_315\n        /* \"#utility.yul\":13371:13372   */\n      dup4\n        /* \"#utility.yul\":13353:13373   */\n      tag_114\n      jump\t// in\n    tag_315:\n        /* \"#utility.yul\":13348:13373   */\n      swap3\n      pop\n        /* \"#utility.yul\":13396:13397   */\n      dup3\n        /* \"#utility.yul\":13393:13394   */\n      dup3\n        /* \"#utility.yul\":13389:13398   */\n      add\n        /* \"#utility.yul\":13382:13398   */\n      swap1\n      pop\n        /* \"#utility.yul\":13417:13420   */\n      dup1\n        /* \"#utility.yul\":13414:13415   */\n      dup3\n        /* \"#utility.yul\":13411:13421   */\n      gt\n        /* \"#utility.yul\":13408:13444   */\n      iszero\n      tag_316\n      jumpi\n        /* \"#utility.yul\":13424:13442   */\n      tag_317\n      tag_158\n      jump\t// in\n    tag_317:\n        /* \"#utility.yul\":13408:13444   */\n    tag_316:\n        /* \"#utility.yul\":13260:13451   */\n      swap3\n      swap2\n      pop\n      pop\n      jump\t// out\n        /* \"#utility.yul\":13457:13604   */\n    tag_159:\n        /* \"#utility.yul\":13558:13569   */\n      0x00\n        /* \"#utility.yul\":13595:13598   */\n      dup2\n        /* \"#utility.yul\":13580:13598   */\n      swap1\n      pop\n        /* \"#utility.yul\":13457:13604   */\n      swap3\n      swap2\n      pop\n      pop\n      jump\t// out\n        /* \"#utility.yul\":13632:14502   */\n    tag_160:\n        /* \"#utility.yul\":13733:13736   */\n      0x00\n        /* \"#utility.yul\":13770:13775   */\n      dup2\n        /* \"#utility.yul\":13764:13776   */\n      sload\n        /* \"#utility.yul\":13799:13835   */\n      tag_320\n        /* \"#utility.yul\":13825:13834   */\n      dup2\n        /* \"#utility.yul\":13799:13835   */\n      tag_71\n      jump\t// in\n    tag_320:\n        /* \"#utility.yul\":13851:13939   */\n      tag_321\n        /* \"#utility.yul\":13932:13938   */\n      dup2\n        /* \"#utility.yul\":13927:13930   */\n      dup7\n        /* \"#utility.yul\":13851:13939   */\n      tag_159\n      jump\t// in\n    tag_321:\n        /* \"#utility.yul\":13844:13939   */\n      swap5\n      pop\n        /* \"#utility.yul\":13970:13971   */\n      0x01\n        /* \"#utility.yul\":13959:13968   */\n      dup3\n        /* \"#utility.yul\":13955:13972   */\n      and\n        /* \"#utility.yul\":13986:13987   */\n      0x00\n        /* \"#utility.yul\":13981:14147   */\n      dup2\n      eq\n      tag_323\n      jumpi\n        /* \"#utility.yul\":14161:14162   */\n      0x01\n        /* \"#utility.yul\":14156:14496   */\n      dup2\n      eq\n      tag_324\n      jumpi\n        /* \"#utility.yul\":13948:14496   */\n      jump(tag_322)\n        /* \"#utility.yul\":13981:14147   */\n    tag_323:\n        /* \"#utility.yul\":14065:14069   */\n      0xff\n        /* \"#utility.yul\":14061:14070   */\n      not\n        /* \"#utility.yul\":14050:14059   */\n      dup4\n        /* \"#utility.yul\":14046:14071   */\n      and\n        /* \"#utility.yul\":14041:14044   */\n      dup7\n        /* \"#utility.yul\":14034:14072   */\n      mstore\n        /* \"#utility.yul\":14127:14133   */\n      dup2\n        /* \"#utility.yul\":14120:14134   */\n      iszero\n        /* \"#utility.yul\":14113:14135   */\n      iszero\n        /* \"#utility.yul\":14105:14111   */\n      dup3\n        /* \"#utility.yul\":14101:14136   */\n      mul\n        /* \"#utility.yul\":14096:14099   */\n      dup7\n        /* \"#utility.yul\":14092:14137   */\n      add\n        /* \"#utility.yul\":14085:14137   */\n      swap4\n      pop\n        /* \"#utility.yul\":13981:14147   */\n      jump(tag_322)\n        /* \"#utility.yul\":14156:14496   */\n    tag_324:\n        /* \"#utility.yul\":14223:14260   */\n      tag_325\n        /* \"#utility.yul\":14254:14259   */\n      dup6\n        /* \"#utility.yul\":14223:14260   */\n      tag_143\n      jump\t// in\n    tag_325:\n        /* \"#utility.yul\":14282:14283   */\n      0x00\n        /* \"#utility.yul\":14296:14450   */\n    tag_326:\n        /* \"#utility.yul\":14310:14316   */\n      dup4\n        /* \"#utility.yul\":14307:14308   */\n      dup2\n        /* \"#utility.yul\":14304:14317   */\n      lt\n        /* \"#utility.yul\":14296:14450   */\n      iszero\n      tag_328\n      jumpi\n        /* \"#utility.yul\":14384:14391   */\n      dup2\n        /* \"#utility.yul\":14378:14392   */\n      sload\n        /* \"#utility.yul\":14374:14375   */\n      dup2\n        /* \"#utility.yul\":14369:14372   */\n      dup10\n        /* \"#utility.yul\":14365:14376   */\n      add\n        /* \"#utility.yul\":14358:14393   */\n      mstore\n        /* \"#utility.yul\":14434:14435   */\n      0x01\n        /* \"#utility.yul\":14425:14432   */\n      dup3\n        /* \"#utility.yul\":14421:14436   */\n      add\n        /* \"#utility.yul\":14410:14436   */\n      swap2\n      pop\n        /* \"#utility.yul\":14332:14336   */\n      0x20\n        /* \"#utility.yul\":14329:14330   */\n      dup2\n        /* \"#utility.yul\":14325:14337   */\n      add\n        /* \"#utility.yul\":14320:14337   */\n      swap1\n      pop\n        /* \"#utility.yul\":14296:14450   */\n      jump(tag_326)\n    tag_328:\n        /* \"#utility.yul\":14479:14485   */\n      dup4\n        /* \"#utility.yul\":14474:14477   */\n      dup9\n        /* \"#utility.yul\":14470:14486   */\n      add\n        /* \"#utility.yul\":14463:14486   */\n      swap6\n      pop\n        /* \"#utility.yul\":14163:14496   */\n      pop\n      pop\n        /* \"#utility.yul\":13948:14496   */\n    tag_322:\n      pop\n        /* \"#utility.yul\":13737:14502   */\n      pop\n      pop\n        /* \"#utility.yul\":13632:14502   */\n      swap3\n      swap2\n      pop\n      pop\n      jump\t// out\n        /* \"#utility.yul\":14508:14773   */\n    tag_108:\n        /* \"#utility.yul\":14635:14638   */\n      0x00\n        /* \"#utility.yul\":14657:14747   */\n      tag_330\n        /* \"#utility.yul\":14743:14746   */\n      dup3\n        /* \"#utility.yul\":14734:14740   */\n      dup5\n        /* \"#utility.yul\":14657:14747   */\n      tag_160\n      jump\t// in\n    tag_330:\n        /* \"#utility.yul\":14650:14747   */\n      swap2\n      pop\n        /* \"#utility.yul\":14764:14767   */\n      dup2\n        /* \"#utility.yul\":14757:14767   */\n      swap1\n      pop\n        /* \"#utility.yul\":14508:14773   */\n      swap3\n      swap2\n      pop\n      pop\n      jump\t// out\n\n    auxdata: 0xa264697066735822122001685984c24774ecbaaf770e988c4c41a538c820baa1da85c698a80c8098cd7764736f6c634300081e0033\n}\n",
				"bytecode": {
					"linkReferences": {},
					"object": "608060405234801561000f575f5ffd5b50604051611a6f380380611a6f833981810160405281019061003191906104a5565b5f825111610074576040517f08c379a000000000000000000000000000000000000000000000000000000000815260040161006b90610559565b60405180910390fd5b5f81118015610084575081518111155b6100c3576040517f08c379a00000000000000000000000000000000000000000000000000000000081526004016100ba906105c1565b60405180910390fd5b5f5f90505b82518110156102a8575f8382815181106100e5576100e46105df565b5b602002602001015190505f73ffffffffffffffffffffffffffffffffffffffff168173ffffffffffffffffffffffffffffffffffffffff160361015d576040517f08c379a000000000000000000000000000000000000000000000000000000000815260040161015490610656565b60405180910390fd5b60015f8273ffffffffffffffffffffffffffffffffffffffff1673ffffffffffffffffffffffffffffffffffffffff1681526020019081526020015f205f9054906101000a900460ff16156101e7576040517f08c379a00000000000000000000000000000000000000000000000000000000081526004016101de906106be565b60405180910390fd5b6001805f8373ffffffffffffffffffffffffffffffffffffffff1673ffffffffffffffffffffffffffffffffffffffff1681526020019081526020015f205f6101000a81548160ff0219169083151502179055505f81908060018154018082558091505060019003905f5260205f20015f9091909190916101000a81548173ffffffffffffffffffffffffffffffffffffffff021916908373ffffffffffffffffffffffffffffffffffffffff1602179055505080806001019150506100c8565b508060028190555050506106dc565b5f604051905090565b5f5ffd5b5f5ffd5b5f5ffd5b5f601f19601f8301169050919050565b7f4e487b71000000000000000000000000000000000000000000000000000000005f52604160045260245ffd5b610312826102cc565b810181811067ffffffffffffffff82111715610331576103306102dc565b5b80604052505050565b5f6103436102b7565b905061034f8282610309565b919050565b5f67ffffffffffffffff82111561036e5761036d6102dc565b5b602082029050602081019050919050565b5f5ffd5b5f73ffffffffffffffffffffffffffffffffffffffff82169050919050565b5f6103ac82610383565b9050919050565b6103bc816103a2565b81146103c6575f5ffd5b50565b5f815190506103d7816103b3565b92915050565b5f6103ef6103ea84610354565b61033a565b905080838252602082019050602084028301858111156104125761041161037f565b5b835b8181101561043b578061042788826103c9565b845260208401935050602081019050610414565b5050509392505050565b5f82601f830112610459576104586102c8565b5b81516104698482602086016103dd565b91505092915050565b5f819050919050565b61048481610472565b811461048e575f5ffd5b50565b5f8151905061049f8161047b565b92915050565b5f5f604083850312156104bb576104ba6102c0565b5b5f83015167ffffffffffffffff8111156104d8576104d76102c4565b5b6104e485828601610445565b92505060206104f585828601610491565b9150509250929050565b5f82825260208201905092915050565b7f4f776e65727320726571756972656400000000000000000000000000000000005f82015250565b5f610543600f836104ff565b915061054e8261050f565b602082019050919050565b5f6020820190508181035f83015261057081610537565b9050919050565b7f496e76616c6964207265717569726564000000000000000000000000000000005f82015250565b5f6105ab6010836104ff565b91506105b682610577565b602082019050919050565b5f6020820190508181035f8301526105d88161059f565b9050919050565b7f4e487b71000000000000000000000000000000000000000000000000000000005f52603260045260245ffd5b7f496e76616c6964206f776e6572000000000000000000000000000000000000005f82015250565b5f610640600d836104ff565b915061064b8261060c565b602082019050919050565b5f6020820190508181035f83015261066d81610634565b9050919050565b7f4475706c6963617465206f776e657200000000000000000000000000000000005f82015250565b5f6106a8600f836104ff565b91506106b382610674565b602082019050919050565b5f6020820190508181035f8301526106d58161069c565b9050919050565b611386806106e95f395ff3fe60806040526004361061007e575f3560e01c80639ace38c21161004d5780639ace38c2146101c7578063ba0179b514610207578063dc8452cd1461022f578063fe0d94c114610259576100d3565b8063025e7c27146100d757806314de327f146101135780632f54bf6e1461014f5780633411c81c1461018b576100d3565b366100d3573373ffffffffffffffffffffffffffffffffffffffff167fe1fffcc4923d04b559f4d29a8bfc6cda04eb5b0d3c460751c2402c5c5cc9109c346040516100c99190610b5a565b60405180910390a2005b5f5ffd5b3480156100e2575f5ffd5b506100fd60048036038101906100f89190610bae565b610281565b60405161010a9190610c18565b60405180910390f35b34801561011e575f5ffd5b5061013960048036038101906101349190610d97565b6102bb565b6040516101469190610b5a565b60405180910390f35b34801561015a575f5ffd5b5061017560048036038101906101709190610e03565b610473565b6040516101829190610e48565b60405180910390f35b348015610196575f5ffd5b506101b160048036038101906101ac9190610e61565b610490565b6040516101be9190610e48565b60405180910390f35b3480156101d2575f5ffd5b506101ed60048036038101906101e89190610bae565b6104ba565b6040516101fe959493929190610eff565b60405180910390f35b348015610212575f5ffd5b5061022d60048036038101906102289190610bae565b6105ac565b005b34801561023a575f5ffd5b5061024361084a565b6040516102509190610b5a565b60405180910390f35b348015610264575f5ffd5b5061027f600480360381019061027a9190610bae565b610850565b005b5f818154811061028f575f80fd5b905f5260205f20015f915054906101000a900473ffffffffffffffffffffffffffffffffffffffff1681565b5f60015f3373ffffffffffffffffffffffffffffffffffffffff1673ffffffffffffffffffffffffffffffffffffffff1681526020019081526020015f205f9054906101000a900460ff1661033c576040517f30cd747100000000000000000000000000000000000000000000000000000000815260040160405180910390fd5b5f600380549050905060036040518060a001604052808773ffffffffffffffffffffffffffffffffffffffff1681526020018681526020018581526020015f151581526020015f815250908060018154018082558091505060019003905f5260205f2090600502015f909190919091505f820151815f015f6101000a81548173ffffffffffffffffffffffffffffffffffffffff021916908373ffffffffffffffffffffffffffffffffffffffff16021790555060208201518160010155604082015181600201908161040f9190611154565b506060820151816003015f6101000a81548160ff021916908315150217905550608082015181600401555050807f08324b3d745b914e3abd4ffbfead91e3b78391a98c173202129215ab933adfbe60405160405180910390a2809150509392505050565b6001602052805f5260405f205f915054906101000a900460ff1681565b6004602052815f5260405f20602052805f5260405f205f915091509054906101000a900460ff1681565b600381815481106104c9575f80fd5b905f5260205f2090600502015f91509050805f015f9054906101000a900473ffffffffffffffffffffffffffffffffffffffff169080600101549080600201805461051390610f84565b80601f016020809104026020016040519081016040528092919081815260200182805461053f90610f84565b801561058a5780601f106105615761010080835404028352916020019161058a565b820191905f5260205f20905b81548152906001019060200180831161056d57829003601f168201915b505050505090806003015f9054906101000a900460ff16908060040154905085565b60015f3373ffffffffffffffffffffffffffffffffffffffff1673ffffffffffffffffffffffffffffffffffffffff1681526020019081526020015f205f9054906101000a900460ff1661062c576040517f30cd747100000000000000000000000000000000000000000000000000000000815260040160405180910390fd5b80600380549050811061066b576040517f14a9883f00000000000000000000000000000000000000000000000000000000815260040160405180910390fd5b81600381815481106106805761067f611223565b5b905f5260205f2090600502016003015f9054906101000a900460ff16156106d3576040517f2ea945cf00000000000000000000000000000000000000000000000000000000815260040160405180910390fd5b60045f8481526020019081526020015f205f3373ffffffffffffffffffffffffffffffffffffffff1673ffffffffffffffffffffffffffffffffffffffff1681526020019081526020015f205f9054906101000a900460ff1615610763576040517f9dae146400000000000000000000000000000000000000000000000000000000815260040160405180910390fd5b600160045f8581526020019081526020015f205f3373ffffffffffffffffffffffffffffffffffffffff1673ffffffffffffffffffffffffffffffffffffffff1681526020019081526020015f205f6101000a81548160ff0219169083151502179055506001600384815481106107dd576107dc611223565b5b905f5260205f2090600502016004015f8282546107fa919061127d565b92505081905550823373ffffffffffffffffffffffffffffffffffffffff167fbde73c39e691e6143456e01935275fd9f654dacca25911f03ab0d587644377eb60405160405180910390a3505050565b60025481565b60015f3373ffffffffffffffffffffffffffffffffffffffff1673ffffffffffffffffffffffffffffffffffffffff1681526020019081526020015f205f9054906101000a900460ff166108d0576040517f30cd747100000000000000000000000000000000000000000000000000000000815260040160405180910390fd5b80600380549050811061090f576040517f14a9883f00000000000000000000000000000000000000000000000000000000815260040160405180910390fd5b816003818154811061092457610923611223565b5b905f5260205f2090600502016003015f9054906101000a900460ff1615610977576040517f2ea945cf00000000000000000000000000000000000000000000000000000000815260040160405180910390fd5b5f6003848154811061098c5761098b611223565b5b905f5260205f2090600502019050600254816004015410156109da576040517fe16db4b300000000000000000000000000000000000000000000000000000000815260040160405180910390fd5b6001816003015f6101000a81548160ff0219169083151502179055505f815f015f9054906101000a900473ffffffffffffffffffffffffffffffffffffffff1673ffffffffffffffffffffffffffffffffffffffff16826001015483600201604051610a46919061133a565b5f6040518083038185875af1925050503d805f8114610a80576040519150601f19603f3d011682016040523d82523d5f602084013e610a85565b606091505b505090508015610ac157847fddb556f1d2c1ec821e910b019d3685b229db152a0ecd517ca7e24b8bd713928960405160405180910390a2610b3b565b5f826003015f6101000a81548160ff021916908315150217905550847f526441bb6c1aba3c9a4a6ca1d6545da9c2333c8c48343ef398eb858d72b7923660405160405180910390a26040517facfdb44400000000000000000000000000000000000000000000000000000000815260040160405180910390fd5b5050505050565b5f819050919050565b610b5481610b42565b82525050565b5f602082019050610b6d5f830184610b4b565b92915050565b5f604051905090565b5f5ffd5b5f5ffd5b610b8d81610b42565b8114610b97575f5ffd5b50565b5f81359050610ba881610b84565b92915050565b5f60208284031215610bc357610bc2610b7c565b5b5f610bd084828501610b9a565b91505092915050565b5f73ffffffffffffffffffffffffffffffffffffffff82169050919050565b5f610c0282610bd9565b9050919050565b610c1281610bf8565b82525050565b5f602082019050610c2b5f830184610c09565b92915050565b610c3a81610bf8565b8114610c44575f5ffd5b50565b5f81359050610c5581610c31565b92915050565b5f5ffd5b5f5ffd5b5f601f19601f8301169050919050565b7f4e487b71000000000000000000000000000000000000000000000000000000005f52604160045260245ffd5b610ca982610c63565b810181811067ffffffffffffffff82111715610cc857610cc7610c73565b5b80604052505050565b5f610cda610b73565b9050610ce68282610ca0565b919050565b5f67ffffffffffffffff821115610d0557610d04610c73565b5b610d0e82610c63565b9050602081019050919050565b828183375f83830152505050565b5f610d3b610d3684610ceb565b610cd1565b905082815260208101848484011115610d5757610d56610c5f565b5b610d62848285610d1b565b509392505050565b5f82601f830112610d7e57610d7d610c5b565b5b8135610d8e848260208601610d29565b91505092915050565b5f5f5f60608486031215610dae57610dad610b7c565b5b5f610dbb86828701610c47565b9350506020610dcc86828701610b9a565b925050604084013567ffffffffffffffff811115610ded57610dec610b80565b5b610df986828701610d6a565b9150509250925092565b5f60208284031215610e1857610e17610b7c565b5b5f610e2584828501610c47565b91505092915050565b5f8115159050919050565b610e4281610e2e565b82525050565b5f602082019050610e5b5f830184610e39565b92915050565b5f5f60408385031215610e7757610e76610b7c565b5b5f610e8485828601610b9a565b9250506020610e9585828601610c47565b9150509250929050565b5f81519050919050565b5f82825260208201905092915050565b8281835e5f83830152505050565b5f610ed182610e9f565b610edb8185610ea9565b9350610eeb818560208601610eb9565b610ef481610c63565b840191505092915050565b5f60a082019050610f125f830188610c09565b610f1f6020830187610b4b565b8181036040830152610f318186610ec7565b9050610f406060830185610e39565b610f4d6080830184610b4b565b9695505050505050565b7f4e487b71000000000000000000000000000000000000000000000000000000005f52602260045260245ffd5b5f6002820490506001821680610f9b57607f821691505b602082108103610fae57610fad610f57565b5b50919050565b5f819050815f5260205f209050919050565b5f6020601f8301049050919050565b5f82821b905092915050565b5f600883026110107fffffffffffffffffffffffffffffffffffffffffffffffffffffffffffffffff82610fd5565b61101a8683610fd5565b95508019841693508086168417925050509392505050565b5f819050919050565b5f61105561105061104b84610b42565b611032565b610b42565b9050919050565b5f819050919050565b61106e8361103b565b61108261107a8261105c565b848454610fe1565b825550505050565b5f5f905090565b61109961108a565b6110a4818484611065565b505050565b5b818110156110c7576110bc5f82611091565b6001810190506110aa565b5050565b601f82111561110c576110dd81610fb4565b6110e684610fc6565b810160208510156110f5578190505b61110961110185610fc6565b8301826110a9565b50505b505050565b5f82821c905092915050565b5f61112c5f1984600802611111565b1980831691505092915050565b5f611144838361111d565b9150826002028217905092915050565b61115d82610e9f565b67ffffffffffffffff81111561117657611175610c73565b5b6111808254610f84565b61118b8282856110cb565b5f60209050601f8311600181146111bc575f84156111aa578287015190505b6111b48582611139565b86555061121b565b601f1984166111ca86610fb4565b5f5b828110156111f1578489015182556001820191506020850194506020810190506111cc565b8683101561120e578489015161120a601f89168261111d565b8355505b6001600288020188555050505b505050505050565b7f4e487b71000000000000000000000000000000000000000000000000000000005f52603260045260245ffd5b7f4e487b71000000000000000000000000000000000000000000000000000000005f52601160045260245ffd5b5f61128782610b42565b915061129283610b42565b92508282019050808211156112aa576112a9611250565b5b92915050565b5f81905092915050565b5f81546112c681610f84565b6112d081866112b0565b9450600182165f81146112ea57600181146112ff57611331565b60ff1983168652811515820286019350611331565b61130885610fb4565b5f5b838110156113295781548189015260018201915060208101905061130a565b838801955050505b50505092915050565b5f61134582846112ba565b91508190509291505056fea264697066735822122001685984c24774ecbaaf770e988c4c41a538c820baa1da85c698a80c8098cd7764736f6c634300081e0033",
					"opcodes": "PUSH1 0x80 PUSH1 0x40 MSTORE CALLVALUE DUP1 ISZERO PUSH2 0xF JUMPI PUSH0 PUSH0 REVERT JUMPDEST POP PUSH1 0x40 MLOAD PUSH2 0x1A6F CODESIZE SUB DUP1 PUSH2 0x1A6F DUP4 CODECOPY DUP2 DUP2 ADD PUSH1 0x40 MSTORE DUP2 ADD SWAP1 PUSH2 0x31 SWAP2 SWAP1 PUSH2 0x4A5 JUMP JUMPDEST PUSH0 DUP3 MLOAD GT PUSH2 0x74 JUMPI PUSH1 0x40 MLOAD PUSH32 0x8C379A000000000000000000000000000000000000000000000000000000000 DUP2 MSTORE PUSH1 0x4 ADD PUSH2 0x6B SWAP1 PUSH2 0x559 JUMP JUMPDEST PUSH1 0x40 MLOAD DUP1 SWAP2 SUB SWAP1 REVERT JUMPDEST PUSH0 DUP2 GT DUP1 ISZERO PUSH2 0x84 JUMPI POP DUP2 MLOAD DUP2 GT ISZERO JUMPDEST PUSH2 0xC3 JUMPI PUSH1 0x40 MLOAD PUSH32 0x8C379A000000000000000000000000000000000000000000000000000000000 DUP2 MSTORE PUSH1 0x4 ADD PUSH2 0xBA SWAP1 PUSH2 0x5C1 JUMP JUMPDEST PUSH1 0x40 MLOAD DUP1 SWAP2 SUB SWAP1 REVERT JUMPDEST PUSH0 PUSH0 SWAP1 POP JUMPDEST DUP3 MLOAD DUP2 LT ISZERO PUSH2 0x2A8 JUMPI PUSH0 DUP4 DUP3 DUP2 MLOAD DUP2 LT PUSH2 0xE5 JUMPI PUSH2 0xE4 PUSH2 0x5DF JUMP JUMPDEST JUMPDEST PUSH1 0x20 MUL PUSH1 0x20 ADD ADD MLOAD SWAP1 POP PUSH0 PUSH20 0xFFFFFFFFFFFFFFFFFFFFFFFFFFFFFFFFFFFFFFFF AND DUP2 PUSH20 0xFFFFFFFFFFFFFFFFFFFFFFFFFFFFFFFFFFFFFFFF AND SUB PUSH2 0x15D JUMPI PUSH1 0x40 MLOAD PUSH32 0x8C379A000000000000000000000000000000000000000000000000000000000 DUP2 MSTORE PUSH1 0x4 ADD PUSH2 0x154 SWAP1 PUSH2 0x656 JUMP JUMPDEST PUSH1 0x40 MLOAD DUP1 SWAP2 SUB SWAP1 REVERT JUMPDEST PUSH1 0x1 PUSH0 DUP3 PUSH20 0xFFFFFFFFFFFFFFFFFFFFFFFFFFFFFFFFFFFFFFFF AND PUSH20 0xFFFFFFFFFFFFFFFFFFFFFFFFFFFFFFFFFFFFFFFF AND DUP2 MSTORE PUSH1 0x20 ADD SWAP1 DUP2 MSTORE PUSH1 0x20 ADD PUSH0 KECCAK256 PUSH0 SWAP1 SLOAD SWAP1 PUSH2 0x100 EXP SWAP1 DIV PUSH1 0xFF AND ISZERO PUSH2 0x1E7 JUMPI PUSH1 0x40 MLOAD PUSH32 0x8C379A000000000000000000000000000000000000000000000000000000000 DUP2 MSTORE PUSH1 0x4 ADD PUSH2 0x1DE SWAP1 PUSH2 0x6BE JUMP JUMPDEST PUSH1 0x40 MLOAD DUP1 SWAP2 SUB SWAP1 REVERT JUMPDEST PUSH1 0x1 DUP1 PUSH0 DUP4 PUSH20 0xFFFFFFFFFFFFFFFFFFFFFFFFFFFFFFFFFFFFFFFF AND PUSH20 0xFFFFFFFFFFFFFFFFFFFFFFFFFFFFFFFFFFFFFFFF AND DUP2 MSTORE PUSH1 0x20 ADD SWAP1 DUP2 MSTORE PUSH1 0x20 ADD PUSH0 KECCAK256 PUSH0 PUSH2 0x100 EXP DUP2 SLOAD DUP2 PUSH1 0xFF MUL NOT AND SWAP1 DUP4 ISZERO ISZERO MUL OR SWAP1 SSTORE POP PUSH0 DUP2 SWAP1 DUP1 PUSH1 0x1 DUP2 SLOAD ADD DUP1 DUP3 SSTORE DUP1 SWAP2 POP POP PUSH1 0x1 SWAP1 SUB SWAP1 PUSH0 MSTORE PUSH1 0x20 PUSH0 KECCAK256 ADD PUSH0 SWAP1 SWAP2 SWAP1 SWAP2 SWAP1 SWAP2 PUSH2 0x100 EXP DUP2 SLOAD DUP2 PUSH20 0xFFFFFFFFFFFFFFFFFFFFFFFFFFFFFFFFFFFFFFFF MUL NOT AND SWAP1 DUP4 PUSH20 0xFFFFFFFFFFFFFFFFFFFFFFFFFFFFFFFFFFFFFFFF AND MUL OR SWAP1 SSTORE POP POP DUP1 DUP1 PUSH1 0x1 ADD SWAP2 POP POP PUSH2 0xC8 JUMP JUMPDEST POP DUP1 PUSH1 0x2 DUP2 SWAP1 SSTORE POP POP POP PUSH2 0x6DC JUMP JUMPDEST PUSH0 PUSH1 0x40 MLOAD SWAP1 POP SWAP1 JUMP JUMPDEST PUSH0 PUSH0 REVERT JUMPDEST PUSH0 PUSH0 REVERT JUMPDEST PUSH0 PUSH0 REVERT JUMPDEST PUSH0 PUSH1 0x1F NOT PUSH1 0x1F DUP4 ADD AND SWAP1 POP SWAP2 SWAP1 POP JUMP JUMPDEST PUSH32 0x4E487B7100000000000000000000000000000000000000000000000000000000 PUSH0 MSTORE PUSH1 0x41 PUSH1 0x4 MSTORE PUSH1 0x24 PUSH0 REVERT JUMPDEST PUSH2 0x312 DUP3 PUSH2 0x2CC JUMP JUMPDEST DUP2 ADD DUP2 DUP2 LT PUSH8 0xFFFFFFFFFFFFFFFF DUP3 GT OR ISZERO PUSH2 0x331 JUMPI PUSH2 0x330 PUSH2 0x2DC JUMP JUMPDEST JUMPDEST DUP1 PUSH1 0x40 MSTORE POP POP POP JUMP JUMPDEST PUSH0 PUSH2 0x343 PUSH2 0x2B7 JUMP JUMPDEST SWAP1 POP PUSH2 0x34F DUP3 DUP3 PUSH2 0x309 JUMP JUMPDEST SWAP2 SWAP1 POP JUMP JUMPDEST PUSH0 PUSH8 0xFFFFFFFFFFFFFFFF DUP3 GT ISZERO PUSH2 0x36E JUMPI PUSH2 0x36D PUSH2 0x2DC JUMP JUMPDEST JUMPDEST PUSH1 0x20 DUP3 MUL SWAP1 POP PUSH1 0x20 DUP2 ADD SWAP1 POP SWAP2 SWAP1 POP JUMP JUMPDEST PUSH0 PUSH0 REVERT JUMPDEST PUSH0 PUSH20 0xFFFFFFFFFFFFFFFFFFFFFFFFFFFFFFFFFFFFFFFF DUP3 AND SWAP1 POP SWAP2 SWAP1 POP JUMP JUMPDEST PUSH0 PUSH2 0x3AC DUP3 PUSH2 0x383 JUMP JUMPDEST SWAP1 POP SWAP2 SWAP1 POP JUMP JUMPDEST PUSH2 0x3BC DUP2 PUSH2 0x3A2 JUMP JUMPDEST DUP2 EQ PUSH2 0x3C6 JUMPI PUSH0 PUSH0 REVERT JUMPDEST POP JUMP JUMPDEST PUSH0 DUP2 MLOAD SWAP1 POP PUSH2 0x3D7 DUP2 PUSH2 0x3B3 JUMP JUMPDEST SWAP3 SWAP2 POP POP JUMP JUMPDEST PUSH0 PUSH2 0x3EF PUSH2 0x3EA DUP5 PUSH2 0x354 JUMP JUMPDEST PUSH2 0x33A JUMP JUMPDEST SWAP1 POP DUP1 DUP4 DUP3 MSTORE PUSH1 0x20 DUP3 ADD SWAP1 POP PUSH1 0x20 DUP5 MUL DUP4 ADD DUP6 DUP2 GT ISZERO PUSH2 0x412 JUMPI PUSH2 0x411 PUSH2 0x37F JUMP JUMPDEST JUMPDEST DUP4 JUMPDEST DUP2 DUP2 LT ISZERO PUSH2 0x43B JUMPI DUP1 PUSH2 0x427 DUP9 DUP3 PUSH2 0x3C9 JUMP JUMPDEST DUP5 MSTORE PUSH1 0x20 DUP5 ADD SWAP4 POP POP PUSH1 0x20 DUP2 ADD SWAP1 POP PUSH2 0x414 JUMP JUMPDEST POP POP POP SWAP4 SWAP3 POP POP POP JUMP JUMPDEST PUSH0 DUP3 PUSH1 0x1F DUP4 ADD SLT PUSH2 0x459 JUMPI PUSH2 0x458 PUSH2 0x2C8 JUMP JUMPDEST JUMPDEST DUP2 MLOAD PUSH2 0x469 DUP5 DUP3 PUSH1 0x20 DUP7 ADD PUSH2 0x3DD JUMP JUMPDEST SWAP2 POP POP SWAP3 SWAP2 POP POP JUMP JUMPDEST PUSH0 DUP2 SWAP1 POP SWAP2 SWAP1 POP JUMP JUMPDEST PUSH2 0x484 DUP2 PUSH2 0x472 JUMP JUMPDEST DUP2 EQ PUSH2 0x48E JUMPI PUSH0 PUSH0 REVERT JUMPDEST POP JUMP JUMPDEST PUSH0 DUP2 MLOAD SWAP1 POP PUSH2 0x49F DUP2 PUSH2 0x47B JUMP JUMPDEST SWAP3 SWAP2 POP POP JUMP JUMPDEST PUSH0 PUSH0 PUSH1 0x40 DUP4 DUP6 SUB SLT ISZERO PUSH2 0x4BB JUMPI PUSH2 0x4BA PUSH2 0x2C0 JUMP JUMPDEST JUMPDEST PUSH0 DUP4 ADD MLOAD PUSH8 0xFFFFFFFFFFFFFFFF DUP2 GT ISZERO PUSH2 0x4D8 JUMPI PUSH2 0x4D7 PUSH2 0x2C4 JUMP JUMPDEST JUMPDEST PUSH2 0x4E4 DUP6 DUP3 DUP7 ADD PUSH2 0x445 JUMP JUMPDEST SWAP3 POP POP PUSH1 0x20 PUSH2 0x4F5 DUP6 DUP3 DUP7 ADD PUSH2 0x491 JUMP JUMPDEST SWAP2 POP POP SWAP3 POP SWAP3 SWAP1 POP JUMP JUMPDEST PUSH0 DUP3 DUP3 MSTORE PUSH1 0x20 DUP3 ADD SWAP1 POP SWAP3 SWAP2 POP POP JUMP JUMPDEST PUSH32 0x4F776E6572732072657175697265640000000000000000000000000000000000 PUSH0 DUP3 ADD MSTORE POP JUMP JUMPDEST PUSH0 PUSH2 0x543 PUSH1 0xF DUP4 PUSH2 0x4FF JUMP JUMPDEST SWAP2 POP PUSH2 0x54E DUP3 PUSH2 0x50F JUMP JUMPDEST PUSH1 0x20 DUP3 ADD SWAP1 POP SWAP2 SWAP1 POP JUMP JUMPDEST PUSH0 PUSH1 0x20 DUP3 ADD SWAP1 POP DUP2 DUP2 SUB PUSH0 DUP4 ADD MSTORE PUSH2 0x570 DUP2 PUSH2 0x537 JUMP JUMPDEST SWAP1 POP SWAP2 SWAP1 POP JUMP JUMPDEST PUSH32 0x496E76616C696420726571756972656400000000000000000000000000000000 PUSH0 DUP3 ADD MSTORE POP JUMP JUMPDEST PUSH0 PUSH2 0x5AB PUSH1 0x10 DUP4 PUSH2 0x4FF JUMP JUMPDEST SWAP2 POP PUSH2 0x5B6 DUP3 PUSH2 0x577 JUMP JUMPDEST PUSH1 0x20 DUP3 ADD SWAP1 POP SWAP2 SWAP1 POP JUMP JUMPDEST PUSH0 PUSH1 0x20 DUP3 ADD SWAP1 POP DUP2 DUP2 SUB PUSH0 DUP4 ADD MSTORE PUSH2 0x5D8 DUP2 PUSH2 0x59F JUMP JUMPDEST SWAP1 POP SWAP2 SWAP1 POP JUMP JUMPDEST PUSH32 0x4E487B7100000000000000000000000000000000000000000000000000000000 PUSH0 MSTORE PUSH1 0x32 PUSH1 0x4 MSTORE PUSH1 0x24 PUSH0 REVERT JUMPDEST PUSH32 0x496E76616C6964206F776E657200000000000000000000000000000000000000 PUSH0 DUP3 ADD MSTORE POP JUMP JUMPDEST PUSH0 PUSH2 0x640 PUSH1 0xD DUP4 PUSH2 0x4FF JUMP JUMPDEST SWAP2 POP PUSH2 0x64B DUP3 PUSH2 0x60C JUMP JUMPDEST PUSH1 0x20 DUP3 ADD SWAP1 POP SWAP2 SWAP1 POP JUMP JUMPDEST PUSH0 PUSH1 0x20 DUP3 ADD SWAP1 POP DUP2 DUP2 SUB PUSH0 DUP4 ADD MSTORE PUSH2 0x66D DUP2 PUSH2 0x634 JUMP JUMPDEST SWAP1 POP SWAP2 SWAP1 POP JUMP JUMPDEST PUSH32 0x4475706C6963617465206F776E65720000000000000000000000000000000000 PUSH0 DUP3 ADD MSTORE POP JUMP JUMPDEST PUSH0 PUSH2 0x6A8 PUSH1 0xF DUP4 PUSH2 0x4FF JUMP JUMPDEST SWAP2 POP PUSH2 0x6B3 DUP3 PUSH2 0x674 JUMP JUMPDEST PUSH1 0x20 DUP3 ADD SWAP1 POP SWAP2 SWAP1 POP JUMP JUMPDEST PUSH0 PUSH1 0x20 DUP3 ADD SWAP1 POP DUP2 DUP2 SUB PUSH0 DUP4 ADD MSTORE PUSH2 0x6D5 DUP2 PUSH2 0x69C JUMP JUMPDEST SWAP1 POP SWAP2 SWAP1 POP JUMP JUMPDEST PUSH2 0x1386 DUP1 PUSH2 0x6E9 PUSH0 CODECOPY PUSH0 RETURN INVALID PUSH1 0x80 PUSH1 0x40 MSTORE PUSH1 0x4 CALLDATASIZE LT PUSH2 0x7E JUMPI PUSH0 CALLDATALOAD PUSH1 0xE0 SHR DUP1 PUSH4 0x9ACE38C2 GT PUSH2 0x4D JUMPI DUP1 PUSH4 0x9ACE38C2 EQ PUSH2 0x1C7 JUMPI DUP1 PUSH4 0xBA0179B5 EQ PUSH2 0x207 JUMPI DUP1 PUSH4 0xDC8452CD EQ PUSH2 0x22F JUMPI DUP1 PUSH4 0xFE0D94C1 EQ PUSH2 0x259 JUMPI PUSH2 0xD3 JUMP JUMPDEST DUP1 PUSH4 0x25E7C27 EQ PUSH2 0xD7 JUMPI DUP1 PUSH4 0x14DE327F EQ PUSH2 0x113 JUMPI DUP1 PUSH4 0x2F54BF6E EQ PUSH2 0x14F JUMPI DUP1 PUSH4 0x3411C81C EQ PUSH2 0x18B JUMPI PUSH2 0xD3 JUMP JUMPDEST CALLDATASIZE PUSH2 0xD3 JUMPI CALLER PUSH20 0xFFFFFFFFFFFFFFFFFFFFFFFFFFFFFFFFFFFFFFFF AND PUSH32 0xE1FFFCC4923D04B559F4D29A8BFC6CDA04EB5B0D3C460751C2402C5C5CC9109C CALLVALUE PUSH1 0x40 MLOAD PUSH2 0xC9 SWAP2 SWAP1 PUSH2 0xB5A JUMP JUMPDEST PUSH1 0x40 MLOAD DUP1 SWAP2 SUB SWAP1 LOG2 STOP JUMPDEST PUSH0 PUSH0 REVERT JUMPDEST CALLVALUE DUP1 ISZERO PUSH2 0xE2 JUMPI PUSH0 PUSH0 REVERT JUMPDEST POP PUSH2 0xFD PUSH1 0x4 DUP1 CALLDATASIZE SUB DUP2 ADD SWAP1 PUSH2 0xF8 SWAP2 SWAP1 PUSH2 0xBAE JUMP JUMPDEST PUSH2 0x281 JUMP JUMPDEST PUSH1 0x40 MLOAD PUSH2 0x10A SWAP2 SWAP1 PUSH2 0xC18 JUMP JUMPDEST PUSH1 0x40 MLOAD DUP1 SWAP2 SUB SWAP1 RETURN JUMPDEST CALLVALUE DUP1 ISZERO PUSH2 0x11E JUMPI PUSH0 PUSH0 REVERT JUMPDEST POP PUSH2 0x139 PUSH1 0x4 DUP1 CALLDATASIZE SUB DUP2 ADD SWAP1 PUSH2 0x134 SWAP2 SWAP1 PUSH2 0xD97 JUMP JUMPDEST PUSH2 0x2BB JUMP JUMPDEST PUSH1 0x40 MLOAD PUSH2 0x146 SWAP2 SWAP1 PUSH2 0xB5A JUMP JUMPDEST PUSH1 0x40 MLOAD DUP1 SWAP2 SUB SWAP1 RETURN JUMPDEST CALLVALUE DUP1 ISZERO PUSH2 0x15A JUMPI PUSH0 PUSH0 REVERT JUMPDEST POP PUSH2 0x175 PUSH1 0x4 DUP1 CALLDATASIZE SUB DUP2 ADD SWAP1 PUSH2 0x170 SWAP2 SWAP1 PUSH2 0xE03 JUMP JUMPDEST PUSH2 0x473 JUMP JUMPDEST PUSH1 0x40 MLOAD PUSH2 0x182 SWAP2 SWAP1 PUSH2 0xE48 JUMP JUMPDEST PUSH1 0x40 MLOAD DUP1 SWAP2 SUB SWAP1 RETURN JUMPDEST CALLVALUE DUP1 ISZERO PUSH2 0x196 JUMPI PUSH0 PUSH0 REVERT JUMPDEST POP PUSH2 0x1B1 PUSH1 0x4 DUP1 CALLDATASIZE SUB DUP2 ADD SWAP1 PUSH2 0x1AC SWAP2 SWAP1 PUSH2 0xE61 JUMP JUMPDEST PUSH2 0x490 JUMP JUMPDEST PUSH1 0x40 MLOAD PUSH2 0x1BE SWAP2 SWAP1 PUSH2 0xE48 JUMP JUMPDEST PUSH1 0x40 MLOAD DUP1 SWAP2 SUB SWAP1 RETURN JUMPDEST CALLVALUE DUP1 ISZERO PUSH2 0x1D2 JUMPI PUSH0 PUSH0 REVERT JUMPDEST POP PUSH2 0x1ED PUSH1 0x4 DUP1 CALLDATASIZE SUB DUP2 ADD SWAP1 PUSH2 0x1E8 SWAP2 SWAP1 PUSH2 0xBAE JUMP JUMPDEST PUSH2 0x4BA JUMP JUMPDEST PUSH1 0x40 MLOAD PUSH2 0x1FE SWAP6 SWAP5 SWAP4 SWAP3 SWAP2 SWAP1 PUSH2 0xEFF JUMP JUMPDEST PUSH1 0x40 MLOAD DUP1 SWAP2 SUB SWAP1 RETURN JUMPDEST CALLVALUE DUP1 ISZERO PUSH2 0x212 JUMPI PUSH0 PUSH0 REVERT JUMPDEST POP PUSH2 0x22D PUSH1 0x4 DUP1 CALLDATASIZE SUB DUP2 ADD SWAP1 PUSH2 0x228 SWAP2 SWAP1 PUSH2 0xBAE JUMP JUMPDEST PUSH2 0x5AC JUMP JUMPDEST STOP JUMPDEST CALLVALUE DUP1 ISZERO PUSH2 0x23A JUMPI PUSH0 PUSH0 REVERT JUMPDEST POP PUSH2 0x243 PUSH2 0x84A JUMP JUMPDEST PUSH1 0x40 MLOAD PUSH2 0x250 SWAP2 SWAP1 PUSH2 0xB5A JUMP JUMPDEST PUSH1 0x40 MLOAD DUP1 SWAP2 SUB SWAP1 RETURN JUMPDEST CALLVALUE DUP1 ISZERO PUSH2 0x264 JUMPI PUSH0 PUSH0 REVERT JUMPDEST POP PUSH2 0x27F PUSH1 0x4 DUP1 CALLDATASIZE SUB DUP2 ADD SWAP1 PUSH2 0x27A SWAP2 SWAP1 PUSH2 0xBAE JUMP JUMPDEST PUSH2 0x850 JUMP JUMPDEST STOP JUMPDEST PUSH0 DUP2 DUP2 SLOAD DUP2 LT PUSH2 0x28F JUMPI PUSH0 DUP1 REVERT JUMPDEST SWAP1 PUSH0 MSTORE PUSH1 0x20 PUSH0 KECCAK256 ADD PUSH0 SWAP2 POP SLOAD SWAP1 PUSH2 0x100 EXP SWAP1 DIV PUSH20 0xFFFFFFFFFFFFFFFFFFFFFFFFFFFFFFFFFFFFFFFF AND DUP2 JUMP JUMPDEST PUSH0 PUSH1 0x1 PUSH0 CALLER PUSH20 0xFFFFFFFFFFFFFFFFFFFFFFFFFFFFFFFFFFFFFFFF AND PUSH20 0xFFFFFFFFFFFFFFFFFFFFFFFFFFFFFFFFFFFFFFFF AND DUP2 MSTORE PUSH1 0x20 ADD SWAP1 DUP2 MSTORE PUSH1 0x20 ADD PUSH0 KECCAK256 PUSH0 SWAP1 SLOAD SWAP1 PUSH2 0x100 EXP SWAP1 DIV PUSH1 0xFF AND PUSH2 0x33C JUMPI PUSH1 0x40 MLOAD PUSH32 0x30CD747100000000000000000000000000000000000000000000000000000000 DUP2 MSTORE PUSH1 0x4 ADD PUSH1 0x40 MLOAD DUP1 SWAP2 SUB SWAP1 REVERT JUMPDEST PUSH0 PUSH1 0x3 DUP1 SLOAD SWAP1 POP SWAP1 POP PUSH1 0x3 PUSH1 0x40 MLOAD DUP1 PUSH1 0xA0 ADD PUSH1 0x40 MSTORE DUP1 DUP8 PUSH20 0xFFFFFFFFFFFFFFFFFFFFFFFFFFFFFFFFFFFFFFFF AND DUP2 MSTORE PUSH1 0x20 ADD DUP7 DUP2 MSTORE PUSH1 0x20 ADD DUP6 DUP2 MSTORE PUSH1 0x20 ADD PUSH0 ISZERO ISZERO DUP2 MSTORE PUSH1 0x20 ADD PUSH0 DUP2 MSTORE POP SWAP1 DUP1 PUSH1 0x1 DUP2 SLOAD ADD DUP1 DUP3 SSTORE DUP1 SWAP2 POP POP PUSH1 0x1 SWAP1 SUB SWAP1 PUSH0 MSTORE PUSH1 0x20 PUSH0 KECCAK256 SWAP1 PUSH1 0x5 MUL ADD PUSH0 SWAP1 SWAP2 SWAP1 SWAP2 SWAP1 SWAP2 POP PUSH0 DUP3 ADD MLOAD DUP2 PUSH0 ADD PUSH0 PUSH2 0x100 EXP DUP2 SLOAD DUP2 PUSH20 0xFFFFFFFFFFFFFFFFFFFFFFFFFFFFFFFFFFFFFFFF MUL NOT AND SWAP1 DUP4 PUSH20 0xFFFFFFFFFFFFFFFFFFFFFFFFFFFFFFFFFFFFFFFF AND MUL OR SWAP1 SSTORE POP PUSH1 0x20 DUP3 ADD MLOAD DUP2 PUSH1 0x1 ADD SSTORE PUSH1 0x40 DUP3 ADD MLOAD DUP2 PUSH1 0x2 ADD SWAP1 DUP2 PUSH2 0x40F SWAP2 SWAP1 PUSH2 0x1154 JUMP JUMPDEST POP PUSH1 0x60 DUP3 ADD MLOAD DUP2 PUSH1 0x3 ADD PUSH0 PUSH2 0x100 EXP DUP2 SLOAD DUP2 PUSH1 0xFF MUL NOT AND SWAP1 DUP4 ISZERO ISZERO MUL OR SWAP1 SSTORE POP PUSH1 0x80 DUP3 ADD MLOAD DUP2 PUSH1 0x4 ADD SSTORE POP POP DUP1 PUSH32 0x8324B3D745B914E3ABD4FFBFEAD91E3B78391A98C173202129215AB933ADFBE PUSH1 0x40 MLOAD PUSH1 0x40 MLOAD DUP1 SWAP2 SUB SWAP1 LOG2 DUP1 SWAP2 POP POP SWAP4 SWAP3 POP POP POP JUMP JUMPDEST PUSH1 0x1 PUSH1 0x20 MSTORE DUP1 PUSH0 MSTORE PUSH1 0x40 PUSH0 KECCAK256 PUSH0 SWAP2 POP SLOAD SWAP1 PUSH2 0x100 EXP SWAP1 DIV PUSH1 0xFF AND DUP2 JUMP JUMPDEST PUSH1 0x4 PUSH1 0x20 MSTORE DUP2 PUSH0 MSTORE PUSH1 0x40 PUSH0 KECCAK256 PUSH1 0x20 MSTORE DUP1 PUSH0 MSTORE PUSH1 0x40 PUSH0 KECCAK256 PUSH0 SWAP2 POP SWAP2 POP SWAP1 SLOAD SWAP1 PUSH2 0x100 EXP SWAP1 DIV PUSH1 0xFF AND DUP2 JUMP JUMPDEST PUSH1 0x3 DUP2 DUP2 SLOAD DUP2 LT PUSH2 0x4C9 JUMPI PUSH0 DUP1 REVERT JUMPDEST SWAP1 PUSH0 MSTORE PUSH1 0x20 PUSH0 KECCAK256 SWAP1 PUSH1 0x5 MUL ADD PUSH0 SWAP2 POP SWAP1 POP DUP1 PUSH0 ADD PUSH0 SWAP1 SLOAD SWAP1 PUSH2 0x100 EXP SWAP1 DIV PUSH20 0xFFFFFFFFFFFFFFFFFFFFFFFFFFFFFFFFFFFFFFFF AND SWAP1 DUP1 PUSH1 0x1 ADD SLOAD SWAP1 DUP1 PUSH1 0x2 ADD DUP1 SLOAD PUSH2 0x513 SWAP1 PUSH2 0xF84 JUMP JUMPDEST DUP1 PUSH1 0x1F ADD PUSH1 0x20 DUP1 SWAP2 DIV MUL PUSH1 0x20 ADD PUSH1 0x40 MLOAD SWAP1 DUP2 ADD PUSH1 0x40 MSTORE DUP1 SWAP3 SWAP2 SWAP1 DUP2 DUP2 MSTORE PUSH1 0x20 ADD DUP3 DUP1 SLOAD PUSH2 0x53F SWAP1 PUSH2 0xF84 JUMP JUMPDEST DUP1 ISZERO PUSH2 0x58A JUMPI DUP1 PUSH1 0x1F LT PUSH2 0x561 JUMPI PUSH2 0x100 DUP1 DUP4 SLOAD DIV MUL DUP4 MSTORE SWAP2 PUSH1 0x20 ADD SWAP2 PUSH2 0x58A JUMP JUMPDEST DUP3 ADD SWAP2 SWAP1 PUSH0 MSTORE PUSH1 0x20 PUSH0 KECCAK256 SWAP1 JUMPDEST DUP2 SLOAD DUP2 MSTORE SWAP1 PUSH1 0x1 ADD SWAP1 PUSH1 0x20 ADD DUP1 DUP4 GT PUSH2 0x56D JUMPI DUP3 SWAP1 SUB PUSH1 0x1F AND DUP3 ADD SWAP2 JUMPDEST POP POP POP POP POP SWAP1 DUP1 PUSH1 0x3 ADD PUSH0 SWAP1 SLOAD SWAP1 PUSH2 0x100 EXP SWAP1 DIV PUSH1 0xFF AND SWAP1 DUP1 PUSH1 0x4 ADD SLOAD SWAP1 POP DUP6 JUMP JUMPDEST PUSH1 0x1 PUSH0 CALLER PUSH20 0xFFFFFFFFFFFFFFFFFFFFFFFFFFFFFFFFFFFFFFFF AND PUSH20 0xFFFFFFFFFFFFFFFFFFFFFFFFFFFFFFFFFFFFFFFF AND DUP2 MSTORE PUSH1 0x20 ADD SWAP1 DUP2 MSTORE PUSH1 0x20 ADD PUSH0 KECCAK256 PUSH0 SWAP1 SLOAD SWAP1 PUSH2 0x100 EXP SWAP1 DIV PUSH1 0xFF AND PUSH2 0x62C JUMPI PUSH1 0x40 MLOAD PUSH32 0x30CD747100000000000000000000000000000000000000000000000000000000 DUP2 MSTORE PUSH1 0x4 ADD PUSH1 0x40 MLOAD DUP1 SWAP2 SUB SWAP1 REVERT JUMPDEST DUP1 PUSH1 0x3 DUP1 SLOAD SWAP1 POP DUP2 LT PUSH2 0x66B JUMPI PUSH1 0x40 MLOAD PUSH32 0x14A9883F00000000000000000000000000000000000000000000000000000000 DUP2 MSTORE PUSH1 0x4 ADD PUSH1 0x40 MLOAD DUP1 SWAP2 SUB SWAP1 REVERT JUMPDEST DUP2 PUSH1 0x3 DUP2 DUP2 SLOAD DUP2 LT PUSH2 0x680 JUMPI PUSH2 0x67F PUSH2 0x1223 JUMP JUMPDEST JUMPDEST SWAP1 PUSH0 MSTORE PUSH1 0x20 PUSH0 KECCAK256 SWAP1 PUSH1 0x5 MUL ADD PUSH1 0x3 ADD PUSH0 SWAP1 SLOAD SWAP1 PUSH2 0x100 EXP SWAP1 DIV PUSH1 0xFF AND ISZERO PUSH2 0x6D3 JUMPI PUSH1 0x40 MLOAD PUSH32 0x2EA945CF00000000000000000000000000000000000000000000000000000000 DUP2 MSTORE PUSH1 0x4 ADD PUSH1 0x40 MLOAD DUP1 SWAP2 SUB SWAP1 REVERT JUMPDEST PUSH1 0x4 PUSH0 DUP5 DUP2 MSTORE PUSH1 0x20 ADD SWAP1 DUP2 MSTORE PUSH1 0x20 ADD PUSH0 KECCAK256 PUSH0 CALLER PUSH20 0xFFFFFFFFFFFFFFFFFFFFFFFFFFFFFFFFFFFFFFFF AND PUSH20 0xFFFFFFFFFFFFFFFFFFFFFFFFFFFFFFFFFFFFFFFF AND DUP2 MSTORE PUSH1 0x20 ADD SWAP1 DUP2 MSTORE PUSH1 0x20 ADD PUSH0 KECCAK256 PUSH0 SWAP1 SLOAD SWAP1 PUSH2 0x100 EXP SWAP1 DIV PUSH1 0xFF AND ISZERO PUSH2 0x763 JUMPI PUSH1 0x40 MLOAD PUSH32 0x9DAE146400000000000000000000000000000000000000000000000000000000 DUP2 MSTORE PUSH1 0x4 ADD PUSH1 0x40 MLOAD DUP1 SWAP2 SUB SWAP1 REVERT JUMPDEST PUSH1 0x1 PUSH1 0x4 PUSH0 DUP6 DUP2 MSTORE PUSH1 0x20 ADD SWAP1 DUP2 MSTORE PUSH1 0x20 ADD PUSH0 KECCAK256 PUSH0 CALLER PUSH20 0xFFFFFFFFFFFFFFFFFFFFFFFFFFFFFFFFFFFFFFFF AND PUSH20 0xFFFFFFFFFFFFFFFFFFFFFFFFFFFFFFFFFFFFFFFF AND DUP2 MSTORE PUSH1 0x20 ADD SWAP1 DUP2 MSTORE PUSH1 0x20 ADD PUSH0 KECCAK256 PUSH0 PUSH2 0x100 EXP DUP2 SLOAD DUP2 PUSH1 0xFF MUL NOT AND SWAP1 DUP4 ISZERO ISZERO MUL OR SWAP1 SSTORE POP PUSH1 0x1 PUSH1 0x3 DUP5 DUP2 SLOAD DUP2 LT PUSH2 0x7DD JUMPI PUSH2 0x7DC PUSH2 0x1223 JUMP JUMPDEST JUMPDEST SWAP1 PUSH0 MSTORE PUSH1 0x20 PUSH0 KECCAK256 SWAP1 PUSH1 0x5 MUL ADD PUSH1 0x4 ADD PUSH0 DUP3 DUP3 SLOAD PUSH2 0x7FA SWAP2 SWAP1 PUSH2 0x127D JUMP JUMPDEST SWAP3 POP POP DUP2 SWAP1 SSTORE POP DUP3 CALLER PUSH20 0xFFFFFFFFFFFFFFFFFFFFFFFFFFFFFFFFFFFFFFFF AND PUSH32 0xBDE73C39E691E6143456E01935275FD9F654DACCA25911F03AB0D587644377EB PUSH1 0x40 MLOAD PUSH1 0x40 MLOAD DUP1 SWAP2 SUB SWAP1 LOG3 POP POP POP JUMP JUMPDEST PUSH1 0x2 SLOAD DUP2 JUMP JUMPDEST PUSH1 0x1 PUSH0 CALLER PUSH20 0xFFFFFFFFFFFFFFFFFFFFFFFFFFFFFFFFFFFFFFFF AND PUSH20 0xFFFFFFFFFFFFFFFFFFFFFFFFFFFFFFFFFFFFFFFF AND DUP2 MSTORE PUSH1 0x20 ADD SWAP1 DUP2 MSTORE PUSH1 0x20 ADD PUSH0 KECCAK256 PUSH0 SWAP1 SLOAD SWAP1 PUSH2 0x100 EXP SWAP1 DIV PUSH1 0xFF AND PUSH2 0x8D0 JUMPI PUSH1 0x40 MLOAD PUSH32 0x30CD747100000000000000000000000000000000000000000000000000000000 DUP2 MSTORE PUSH1 0x4 ADD PUSH1 0x40 MLOAD DUP1 SWAP2 SUB SWAP1 REVERT JUMPDEST DUP1 PUSH1 0x3 DUP1 SLOAD SWAP1 POP DUP2 LT PUSH2 0x90F JUMPI PUSH1 0x40 MLOAD PUSH32 0x14A9883F00000000000000000000000000000000000000000000000000000000 DUP2 MSTORE PUSH1 0x4 ADD PUSH1 0x40 MLOAD DUP1 SWAP2 SUB SWAP1 REVERT JUMPDEST DUP2 PUSH1 0x3 DUP2 DUP2 SLOAD DUP2 LT PUSH2 0x924 JUMPI PUSH2 0x923 PUSH2 0x1223 JUMP JUMPDEST JUMPDEST SWAP1 PUSH0 MSTORE PUSH1 0x20 PUSH0 KECCAK256 SWAP1 PUSH1 0x5 MUL ADD PUSH1 0x3 ADD PUSH0 SWAP1 SLOAD SWAP1 PUSH2 0x100 EXP SWAP1 DIV PUSH1 0xFF AND ISZERO PUSH2 0x977 JUMPI PUSH1 0x40 MLOAD PUSH32 0x2EA945CF00000000000000000000000000000000000000000000000000000000 DUP2 MSTORE PUSH1 0x4 ADD PUSH1 0x40 MLOAD DUP1 SWAP2 SUB SWAP1 REVERT JUMPDEST PUSH0 PUSH1 0x3 DUP5 DUP2 SLOAD DUP2 LT PUSH2 0x98C JUMPI PUSH2 0x98B PUSH2 0x1223 JUMP JUMPDEST JUMPDEST SWAP1 PUSH0 MSTORE PUSH1 0x20 PUSH0 KECCAK256 SWAP1 PUSH1 0x5 MUL ADD SWAP1 POP PUSH1 0x2 SLOAD DUP2 PUSH1 0x4 ADD SLOAD LT ISZERO PUSH2 0x9DA JUMPI PUSH1 0x40 MLOAD PUSH32 0xE16DB4B300000000000000000000000000000000000000000000000000000000 DUP2 MSTORE PUSH1 0x4 ADD PUSH1 0x40 MLOAD DUP1 SWAP2 SUB SWAP1 REVERT JUMPDEST PUSH1 0x1 DUP2 PUSH1 0x3 ADD PUSH0 PUSH2 0x100 EXP DUP2 SLOAD DUP2 PUSH1 0xFF MUL NOT AND SWAP1 DUP4 ISZERO ISZERO MUL OR SWAP1 SSTORE POP PUSH0 DUP2 PUSH0 ADD PUSH0 SWAP1 SLOAD SWAP1 PUSH2 0x100 EXP SWAP1 DIV PUSH20 0xFFFFFFFFFFFFFFFFFFFFFFFFFFFFFFFFFFFFFFFF AND PUSH20 0xFFFFFFFFFFFFFFFFFFFFFFFFFFFFFFFFFFFFFFFF AND DUP3 PUSH1 0x1 ADD SLOAD DUP4 PUSH1 0x2 ADD PUSH1 0x40 MLOAD PUSH2 0xA46 SWAP2 SWAP1 PUSH2 0x133A JUMP JUMPDEST PUSH0 PUSH1 0x40 MLOAD DUP1 DUP4 SUB DUP2 DUP6 DUP8 GAS CALL SWAP3 POP POP POP RETURNDATASIZE DUP1 PUSH0 DUP2 EQ PUSH2 0xA80 JUMPI PUSH1 0x40 MLOAD SWAP2 POP PUSH1 0x1F NOT PUSH1 0x3F RETURNDATASIZE ADD AND DUP3 ADD PUSH1 0x40 MSTORE RETURNDATASIZE DUP3 MSTORE RETURNDATASIZE PUSH0 PUSH1 0x20 DUP5 ADD RETURNDATACOPY PUSH2 0xA85 JUMP JUMPDEST PUSH1 0x60 SWAP2 POP JUMPDEST POP POP SWAP1 POP DUP1 ISZERO PUSH2 0xAC1 JUMPI DUP5 PUSH32 0xDDB556F1D2C1EC821E910B019D3685B229DB152A0ECD517CA7E24B8BD7139289 PUSH1 0x40 MLOAD PUSH1 0x40 MLOAD DUP1 SWAP2 SUB SWAP1 LOG2 PUSH2 0xB3B JUMP JUMPDEST PUSH0 DUP3 PUSH1 0x3 ADD PUSH0 PUSH2 0x100 EXP DUP2 SLOAD DUP2 PUSH1 0xFF MUL NOT AND SWAP1 DUP4 ISZERO ISZERO MUL OR SWAP1 SSTORE POP DUP5 PUSH32 0x526441BB6C1ABA3C9A4A6CA1D6545DA9C2333C8C48343EF398EB858D72B79236 PUSH1 0x40 MLOAD PUSH1 0x40 MLOAD DUP1 SWAP2 SUB SWAP1 LOG2 PUSH1 0x40 MLOAD PUSH32 0xACFDB44400000000000000000000000000000000000000000000000000000000 DUP2 MSTORE PUSH1 0x4 ADD PUSH1 0x40 MLOAD DUP1 SWAP2 SUB SWAP1 REVERT JUMPDEST POP POP POP POP POP JUMP JUMPDEST PUSH0 DUP2 SWAP1 POP SWAP2 SWAP1 POP JUMP JUMPDEST PUSH2 0xB54 DUP2 PUSH2 0xB42 JUMP JUMPDEST DUP3 MSTORE POP POP JUMP JUMPDEST PUSH0 PUSH1 0x20 DUP3 ADD SWAP1 POP PUSH2 0xB6D PUSH0 DUP4 ADD DUP5 PUSH2 0xB4B JUMP JUMPDEST SWAP3 SWAP2 POP POP JUMP JUMPDEST PUSH0 PUSH1 0x40 MLOAD SWAP1 POP SWAP1 JUMP JUMPDEST PUSH0 PUSH0 REVERT JUMPDEST PUSH0 PUSH0 REVERT JUMPDEST PUSH2 0xB8D DUP2 PUSH2 0xB42 JUMP JUMPDEST DUP2 EQ PUSH2 0xB97 JUMPI PUSH0 PUSH0 REVERT JUMPDEST POP JUMP JUMPDEST PUSH0 DUP2 CALLDATALOAD SWAP1 POP PUSH2 0xBA8 DUP2 PUSH2 0xB84 JUMP JUMPDEST SWAP3 SWAP2 POP POP JUMP JUMPDEST PUSH0 PUSH1 0x20 DUP3 DUP5 SUB SLT ISZERO PUSH2 0xBC3 JUMPI PUSH2 0xBC2 PUSH2 0xB7C JUMP JUMPDEST JUMPDEST PUSH0 PUSH2 0xBD0 DUP5 DUP3 DUP6 ADD PUSH2 0xB9A JUMP JUMPDEST SWAP2 POP POP SWAP3 SWAP2 POP POP JUMP JUMPDEST PUSH0 PUSH20 0xFFFFFFFFFFFFFFFFFFFFFFFFFFFFFFFFFFFFFFFF DUP3 AND SWAP1 POP SWAP2 SWAP1 POP JUMP JUMPDEST PUSH0 PUSH2 0xC02 DUP3 PUSH2 0xBD9 JUMP JUMPDEST SWAP1 POP SWAP2 SWAP1 POP JUMP JUMPDEST PUSH2 0xC12 DUP2 PUSH2 0xBF8 JUMP JUMPDEST DUP3 MSTORE POP POP JUMP JUMPDEST PUSH0 PUSH1 0x20 DUP3 ADD SWAP1 POP PUSH2 0xC2B PUSH0 DUP4 ADD DUP5 PUSH2 0xC09 JUMP JUMPDEST SWAP3 SWAP2 POP POP JUMP JUMPDEST PUSH2 0xC3A DUP2 PUSH2 0xBF8 JUMP JUMPDEST DUP2 EQ PUSH2 0xC44 JUMPI PUSH0 PUSH0 REVERT JUMPDEST POP JUMP JUMPDEST PUSH0 DUP2 CALLDATALOAD SWAP1 POP PUSH2 0xC55 DUP2 PUSH2 0xC31 JUMP JUMPDEST SWAP3 SWAP2 POP POP JUMP JUMPDEST PUSH0 PUSH0 REVERT JUMPDEST PUSH0 PUSH0 REVERT JUMPDEST PUSH0 PUSH1 0x1F NOT PUSH1 0x1F DUP4 ADD AND SWAP1 POP SWAP2 SWAP1 POP JUMP JUMPDEST PUSH32 0x4E487B7100000000000000000000000000000000000000000000000000000000 PUSH0 MSTORE PUSH1 0x41 PUSH1 0x4 MSTORE PUSH1 0x24 PUSH0 REVERT JUMPDEST PUSH2 0xCA9 DUP3 PUSH2 0xC63 JUMP JUMPDEST DUP2 ADD DUP2 DUP2 LT PUSH8 0xFFFFFFFFFFFFFFFF DUP3 GT OR ISZERO PUSH2 0xCC8 JUMPI PUSH2 0xCC7 PUSH2 0xC73 JUMP JUMPDEST JUMPDEST DUP1 PUSH1 0x40 MSTORE POP POP POP JUMP JUMPDEST PUSH0 PUSH2 0xCDA PUSH2 0xB73 JUMP JUMPDEST SWAP1 POP PUSH2 0xCE6 DUP3 DUP3 PUSH2 0xCA0 JUMP JUMPDEST SWAP2 SWAP1 POP JUMP JUMPDEST PUSH0 PUSH8 0xFFFFFFFFFFFFFFFF DUP3 GT ISZERO PUSH2 0xD05 JUMPI PUSH2 0xD04 PUSH2 0xC73 JUMP JUMPDEST JUMPDEST PUSH2 0xD0E DUP3 PUSH2 0xC63 JUMP JUMPDEST SWAP1 POP PUSH1 0x20 DUP2 ADD SWAP1 POP SWAP2 SWAP1 POP JUMP JUMPDEST DUP3 DUP2 DUP4 CALLDATACOPY PUSH0 DUP4 DUP4 ADD MSTORE POP POP POP JUMP JUMPDEST PUSH0 PUSH2 0xD3B PUSH2 0xD36 DUP5 PUSH2 0xCEB JUMP JUMPDEST PUSH2 0xCD1 JUMP JUMPDEST SWAP1 POP DUP3 DUP2 MSTORE PUSH1 0x20 DUP2 ADD DUP5 DUP5 DUP5 ADD GT ISZERO PUSH2 0xD57 JUMPI PUSH2 0xD56 PUSH2 0xC5F JUMP JUMPDEST JUMPDEST PUSH2 0xD62 DUP5 DUP3 DUP6 PUSH2 0xD1B JUMP JUMPDEST POP SWAP4 SWAP3 POP POP POP JUMP JUMPDEST PUSH0 DUP3 PUSH1 0x1F DUP4 ADD SLT PUSH2 0xD7E JUMPI PUSH2 0xD7D PUSH2 0xC5B JUMP JUMPDEST JUMPDEST DUP2 CALLDATALOAD PUSH2 0xD8E DUP5 DUP3 PUSH1 0x20 DUP7 ADD PUSH2 0xD29 JUMP JUMPDEST SWAP2 POP POP SWAP3 SWAP2 POP POP JUMP JUMPDEST PUSH0 PUSH0 PUSH0 PUSH1 0x60 DUP5 DUP7 SUB SLT ISZERO PUSH2 0xDAE JUMPI PUSH2 0xDAD PUSH2 0xB7C JUMP JUMPDEST JUMPDEST PUSH0 PUSH2 0xDBB DUP7 DUP3 DUP8 ADD PUSH2 0xC47 JUMP JUMPDEST SWAP4 POP POP PUSH1 0x20 PUSH2 0xDCC DUP7 DUP3 DUP8 ADD PUSH2 0xB9A JUMP JUMPDEST SWAP3 POP POP PUSH1 0x40 DUP5 ADD CALLDATALOAD PUSH8 0xFFFFFFFFFFFFFFFF DUP2 GT ISZERO PUSH2 0xDED JUMPI PUSH2 0xDEC PUSH2 0xB80 JUMP JUMPDEST JUMPDEST PUSH2 0xDF9 DUP7 DUP3 DUP8 ADD PUSH2 0xD6A JUMP JUMPDEST SWAP2 POP POP SWAP3 POP SWAP3 POP SWAP3 JUMP JUMPDEST PUSH0 PUSH1 0x20 DUP3 DUP5 SUB SLT ISZERO PUSH2 0xE18 JUMPI PUSH2 0xE17 PUSH2 0xB7C JUMP JUMPDEST JUMPDEST PUSH0 PUSH2 0xE25 DUP5 DUP3 DUP6 ADD PUSH2 0xC47 JUMP JUMPDEST SWAP2 POP POP SWAP3 SWAP2 POP POP JUMP JUMPDEST PUSH0 DUP2 ISZERO ISZERO SWAP1 POP SWAP2 SWAP1 POP JUMP JUMPDEST PUSH2 0xE42 DUP2 PUSH2 0xE2E JUMP JUMPDEST DUP3 MSTORE POP POP JUMP JUMPDEST PUSH0 PUSH1 0x20 DUP3 ADD SWAP1 POP PUSH2 0xE5B PUSH0 DUP4 ADD DUP5 PUSH2 0xE39 JUMP JUMPDEST SWAP3 SWAP2 POP POP JUMP JUMPDEST PUSH0 PUSH0 PUSH1 0x40 DUP4 DUP6 SUB SLT ISZERO PUSH2 0xE77 JUMPI PUSH2 0xE76 PUSH2 0xB7C JUMP JUMPDEST JUMPDEST PUSH0 PUSH2 0xE84 DUP6 DUP3 DUP7 ADD PUSH2 0xB9A JUMP JUMPDEST SWAP3 POP POP PUSH1 0x20 PUSH2 0xE95 DUP6 DUP3 DUP7 ADD PUSH2 0xC47 JUMP JUMPDEST SWAP2 POP POP SWAP3 POP SWAP3 SWAP1 POP JUMP JUMPDEST PUSH0 DUP2 MLOAD SWAP1 POP SWAP2 SWAP1 POP JUMP JUMPDEST PUSH0 DUP3 DUP3 MSTORE PUSH1 0x20 DUP3 ADD SWAP1 POP SWAP3 SWAP2 POP POP JUMP JUMPDEST DUP3 DUP2 DUP4 MCOPY PUSH0 DUP4 DUP4 ADD MSTORE POP POP POP JUMP JUMPDEST PUSH0 PUSH2 0xED1 DUP3 PUSH2 0xE9F JUMP JUMPDEST PUSH2 0xEDB DUP2 DUP6 PUSH2 0xEA9 JUMP JUMPDEST SWAP4 POP PUSH2 0xEEB DUP2 DUP6 PUSH1 0x20 DUP7 ADD PUSH2 0xEB9 JUMP JUMPDEST PUSH2 0xEF4 DUP2 PUSH2 0xC63 JUMP JUMPDEST DUP5 ADD SWAP2 POP POP SWAP3 SWAP2 POP POP JUMP JUMPDEST PUSH0 PUSH1 0xA0 DUP3 ADD SWAP1 POP PUSH2 0xF12 PUSH0 DUP4 ADD DUP9 PUSH2 0xC09 JUMP JUMPDEST PUSH2 0xF1F PUSH1 0x20 DUP4 ADD DUP8 PUSH2 0xB4B JUMP JUMPDEST DUP2 DUP2 SUB PUSH1 0x40 DUP4 ADD MSTORE PUSH2 0xF31 DUP2 DUP7 PUSH2 0xEC7 JUMP JUMPDEST SWAP1 POP PUSH2 0xF40 PUSH1 0x60 DUP4 ADD DUP6 PUSH2 0xE39 JUMP JUMPDEST PUSH2 0xF4D PUSH1 0x80 DUP4 ADD DUP5 PUSH2 0xB4B JUMP JUMPDEST SWAP7 SWAP6 POP POP POP POP POP POP JUMP JUMPDEST PUSH32 0x4E487B7100000000000000000000000000000000000000000000000000000000 PUSH0 MSTORE PUSH1 0x22 PUSH1 0x4 MSTORE PUSH1 0x24 PUSH0 REVERT JUMPDEST PUSH0 PUSH1 0x2 DUP3 DIV SWAP1 POP PUSH1 0x1 DUP3 AND DUP1 PUSH2 0xF9B JUMPI PUSH1 0x7F DUP3 AND SWAP2 POP JUMPDEST PUSH1 0x20 DUP3 LT DUP2 SUB PUSH2 0xFAE JUMPI PUSH2 0xFAD PUSH2 0xF57 JUMP JUMPDEST JUMPDEST POP SWAP2 SWAP1 POP JUMP JUMPDEST PUSH0 DUP2 SWAP1 POP DUP2 PUSH0 MSTORE PUSH1 0x20 PUSH0 KECCAK256 SWAP1 POP SWAP2 SWAP1 POP JUMP JUMPDEST PUSH0 PUSH1 0x20 PUSH1 0x1F DUP4 ADD DIV SWAP1 POP SWAP2 SWAP1 POP JUMP JUMPDEST PUSH0 DUP3 DUP3 SHL SWAP1 POP SWAP3 SWAP2 POP POP JUMP JUMPDEST PUSH0 PUSH1 0x8 DUP4 MUL PUSH2 0x1010 PUSH32 0xFFFFFFFFFFFFFFFFFFFFFFFFFFFFFFFFFFFFFFFFFFFFFFFFFFFFFFFFFFFFFFFF DUP3 PUSH2 0xFD5 JUMP JUMPDEST PUSH2 0x101A DUP7 DUP4 PUSH2 0xFD5 JUMP JUMPDEST SWAP6 POP DUP1 NOT DUP5 AND SWAP4 POP DUP1 DUP7 AND DUP5 OR SWAP3 POP POP POP SWAP4 SWAP3 POP POP POP JUMP JUMPDEST PUSH0 DUP2 SWAP1 POP SWAP2 SWAP1 POP JUMP JUMPDEST PUSH0 PUSH2 0x1055 PUSH2 0x1050 PUSH2 0x104B DUP5 PUSH2 0xB42 JUMP JUMPDEST PUSH2 0x1032 JUMP JUMPDEST PUSH2 0xB42 JUMP JUMPDEST SWAP1 POP SWAP2 SWAP1 POP JUMP JUMPDEST PUSH0 DUP2 SWAP1 POP SWAP2 SWAP1 POP JUMP JUMPDEST PUSH2 0x106E DUP4 PUSH2 0x103B JUMP JUMPDEST PUSH2 0x1082 PUSH2 0x107A DUP3 PUSH2 0x105C JUMP JUMPDEST DUP5 DUP5 SLOAD PUSH2 0xFE1 JUMP JUMPDEST DUP3 SSTORE POP POP POP POP JUMP JUMPDEST PUSH0 PUSH0 SWAP1 POP SWAP1 JUMP JUMPDEST PUSH2 0x1099 PUSH2 0x108A JUMP JUMPDEST PUSH2 0x10A4 DUP2 DUP5 DUP5 PUSH2 0x1065 JUMP JUMPDEST POP POP POP JUMP JUMPDEST JUMPDEST DUP2 DUP2 LT ISZERO PUSH2 0x10C7 JUMPI PUSH2 0x10BC PUSH0 DUP3 PUSH2 0x1091 JUMP JUMPDEST PUSH1 0x1 DUP2 ADD SWAP1 POP PUSH2 0x10AA JUMP JUMPDEST POP POP JUMP JUMPDEST PUSH1 0x1F DUP3 GT ISZERO PUSH2 0x110C JUMPI PUSH2 0x10DD DUP2 PUSH2 0xFB4 JUMP JUMPDEST PUSH2 0x10E6 DUP5 PUSH2 0xFC6 JUMP JUMPDEST DUP2 ADD PUSH1 0x20 DUP6 LT ISZERO PUSH2 0x10F5 JUMPI DUP2 SWAP1 POP JUMPDEST PUSH2 0x1109 PUSH2 0x1101 DUP6 PUSH2 0xFC6 JUMP JUMPDEST DUP4 ADD DUP3 PUSH2 0x10A9 JUMP JUMPDEST POP POP JUMPDEST POP POP POP JUMP JUMPDEST PUSH0 DUP3 DUP3 SHR SWAP1 POP SWAP3 SWAP2 POP POP JUMP JUMPDEST PUSH0 PUSH2 0x112C PUSH0 NOT DUP5 PUSH1 0x8 MUL PUSH2 0x1111 JUMP JUMPDEST NOT DUP1 DUP4 AND SWAP2 POP POP SWAP3 SWAP2 POP POP JUMP JUMPDEST PUSH0 PUSH2 0x1144 DUP4 DUP4 PUSH2 0x111D JUMP JUMPDEST SWAP2 POP DUP3 PUSH1 0x2 MUL DUP3 OR SWAP1 POP SWAP3 SWAP2 POP POP JUMP JUMPDEST PUSH2 0x115D DUP3 PUSH2 0xE9F JUMP JUMPDEST PUSH8 0xFFFFFFFFFFFFFFFF DUP2 GT ISZERO PUSH2 0x1176 JUMPI PUSH2 0x1175 PUSH2 0xC73 JUMP JUMPDEST JUMPDEST PUSH2 0x1180 DUP3 SLOAD PUSH2 0xF84 JUMP JUMPDEST PUSH2 0x118B DUP3 DUP3 DUP6 PUSH2 0x10CB JUMP JUMPDEST PUSH0 PUSH1 0x20 SWAP1 POP PUSH1 0x1F DUP4 GT PUSH1 0x1 DUP2 EQ PUSH2 0x11BC JUMPI PUSH0 DUP5 ISZERO PUSH2 0x11AA JUMPI DUP3 DUP8 ADD MLOAD SWAP1 POP JUMPDEST PUSH2 0x11B4 DUP6 DUP3 PUSH2 0x1139 JUMP JUMPDEST DUP7 SSTORE POP PUSH2 0x121B JUMP JUMPDEST PUSH1 0x1F NOT DUP5 AND PUSH2 0x11CA DUP7 PUSH2 0xFB4 JUMP JUMPDEST PUSH0 JUMPDEST DUP3 DUP2 LT ISZERO PUSH2 0x11F1 JUMPI DUP5 DUP10 ADD MLOAD DUP3 SSTORE PUSH1 0x1 DUP3 ADD SWAP2 POP PUSH1 0x20 DUP6 ADD SWAP5 POP PUSH1 0x20 DUP2 ADD SWAP1 POP PUSH2 0x11CC JUMP JUMPDEST DUP7 DUP4 LT ISZERO PUSH2 0x120E JUMPI DUP5 DUP10 ADD MLOAD PUSH2 0x120A PUSH1 0x1F DUP10 AND DUP3 PUSH2 0x111D JUMP JUMPDEST DUP4 SSTORE POP JUMPDEST PUSH1 0x1 PUSH1 0x2 DUP9 MUL ADD DUP9 SSTORE POP POP POP JUMPDEST POP POP POP POP POP POP JUMP JUMPDEST PUSH32 0x4E487B7100000000000000000000000000000000000000000000000000000000 PUSH0 MSTORE PUSH1 0x32 PUSH1 0x4 MSTORE PUSH1 0x24 PUSH0 REVERT JUMPDEST PUSH32 0x4E487B7100000000000000000000000000000000000000000000000000000000 PUSH0 MSTORE PUSH1 0x11 PUSH1 0x4 MSTORE PUSH1 0x24 PUSH0 REVERT JUMPDEST PUSH0 PUSH2 0x1287 DUP3 PUSH2 0xB42 JUMP JUMPDEST SWAP2 POP PUSH2 0x1292 DUP4 PUSH2 0xB42 JUMP JUMPDEST SWAP3 POP DUP3 DUP3 ADD SWAP1 POP DUP1 DUP3 GT ISZERO PUSH2 0x12AA JUMPI PUSH2 0x12A9 PUSH2 0x1250 JUMP JUMPDEST JUMPDEST SWAP3 SWAP2 POP POP JUMP JUMPDEST PUSH0 DUP2 SWAP1 POP SWAP3 SWAP2 POP POP JUMP JUMPDEST PUSH0 DUP2 SLOAD PUSH2 0x12C6 DUP2 PUSH2 0xF84 JUMP JUMPDEST PUSH2 0x12D0 DUP2 DUP7 PUSH2 0x12B0 JUMP JUMPDEST SWAP5 POP PUSH1 0x1 DUP3 AND PUSH0 DUP2 EQ PUSH2 0x12EA JUMPI PUSH1 0x1 DUP2 EQ PUSH2 0x12FF JUMPI PUSH2 0x1331 JUMP JUMPDEST PUSH1 0xFF NOT DUP4 AND DUP7 MSTORE DUP2 ISZERO ISZERO DUP3 MUL DUP7 ADD SWAP4 POP PUSH2 0x1331 JUMP JUMPDEST PUSH2 0x1308 DUP6 PUSH2 0xFB4 JUMP JUMPDEST PUSH0 JUMPDEST DUP4 DUP2 LT ISZERO PUSH2 0x1329 JUMPI DUP2 SLOAD DUP2 DUP10 ADD MSTORE PUSH1 0x1 DUP3 ADD SWAP2 POP PUSH1 0x20 DUP2 ADD SWAP1 POP PUSH2 0x130A JUMP JUMPDEST DUP4 DUP9 ADD SWAP6 POP POP POP JUMPDEST POP POP POP SWAP3 SWAP2 POP POP JUMP JUMPDEST PUSH0 PUSH2 0x1345 DUP3 DUP5 PUSH2 0x12BA JUMP JUMPDEST SWAP2 POP DUP2 SWAP1 POP SWAP3 SWAP2 POP POP JUMP INVALID LOG2 PUSH5 0x6970667358 0x22 SLT KECCAK256 ADD PUSH9 0x5984C24774ECBAAF77 0xE SWAP9 DUP13 0x4C COINBASE 0xA5 CODESIZE 0xC8 KECCAK256 0xBA LOG1 0xDA DUP6 0xC6 SWAP9 0xA8 0xC DUP1 SWAP9 0xCD PUSH24 0x64736F6C634300081E003300000000000000000000000000 "
				},
				"gasEstimates": {
					"creation": {
						"codeDepositCost": "999600",
						"executionCost": "infinite",
						"totalCost": "infinite"
					},
					"external": {
						"confirm(uint256)": "infinite",
						"confirmations(uint256,address)": "3137",
						"execute(uint256)": "infinite",
						"isOwner(address)": "2878",
						"owners(uint256)": "4944",
						"required()": "2469",
						"submit(address,uint256,bytes)": "infinite",
						"transactions(uint256)": "infinite"
					}
				},
				"methodIdentifiers": {
					"confirm(uint256)": "ba0179b5",
					"confirmations(uint256,address)": "3411c81c",
					"execute(uint256)": "fe0d94c1",
					"isOwner(address)": "2f54bf6e",
					"owners(uint256)": "025e7c27",
					"required()": "dc8452cd",
					"submit(address,uint256,bytes)": "14de327f",
					"transactions(uint256)": "9ace38c2"
				}
			},
			"storageLayout": {
				"storage": [
					{
						"astId": 16,
						"contract": "contracts/lesson8.1/02MultiSigWallet.sol:MultiSigWallet",
						"label": "owners",
						"offset": 0,
						"slot": "0",
						"type": "t_array(t_address)dyn_storage"
					},
					{
						"astId": 20,
						"contract": "contracts/lesson8.1/02MultiSigWallet.sol:MultiSigWallet",
						"label": "isOwner",
						"offset": 0,
						"slot": "1",
						"type": "t_mapping(t_address,t_bool)"
					},
					{
						"astId": 22,
						"contract": "contracts/lesson8.1/02MultiSigWallet.sol:MultiSigWallet",
						"label": "required",
						"offset": 0,
						"slot": "2",
						"type": "t_uint256"
					},
					{
						"astId": 37,
						"contract": "contracts/lesson8.1/02MultiSigWallet.sol:MultiSigWallet",
						"label": "transactions",
						"offset": 0,
						"slot": "3",
						"type": "t_array(t_struct(Transaction)33_storage)dyn_storage"
					},
					{
						"astId": 43,
						"contract": "contracts/lesson8.1/02MultiSigWallet.sol:MultiSigWallet",
						"label": "confirmations",
						"offset": 0,
						"slot": "4",
						"type": "t_mapping(t_uint256,t_mapping(t_address,t_bool))"
					}
				],
				"types": {
					"t_address": {
						"encoding": "inplace",
						"label": "address",
						"numberOfBytes": "20"
					},
					"t_array(t_address)dyn_storage": {
						"base": "t_address",
						"encoding": "dynamic_array",
						"label": "address[]",
						"numberOfBytes": "32"
					},
					"t_array(t_struct(Transaction)33_storage)dyn_storage": {
						"base": "t_struct(Transaction)33_storage",
						"encoding": "dynamic_array",
						"label": "struct MultiSigWallet.Transaction[]",
						"numberOfBytes": "32"
					},
					"t_bool": {
						"encoding": "inplace",
						"label": "bool",
						"numberOfBytes": "1"
					},
					"t_bytes_storage": {
						"encoding": "bytes",
						"label": "bytes",
						"numberOfBytes": "32"
					},
					"t_mapping(t_address,t_bool)": {
						"encoding": "mapping",
						"key": "t_address",
						"label": "mapping(address => bool)",
						"numberOfBytes": "32",
						"value": "t_bool"
					},
					"t_mapping(t_uint256,t_mapping(t_address,t_bool))": {
						"encoding": "mapping",
						"key": "t_uint256",
						"label": "mapping(uint256 => mapping(address => bool))",
						"numberOfBytes": "32",
						"value": "t_mapping(t_address,t_bool)"
					},
					"t_struct(Transaction)33_storage": {
						"encoding": "inplace",
						"label": "struct MultiSigWallet.Transaction",
						"members": [
							{
								"astId": 24,
								"contract": "contracts/lesson8.1/02MultiSigWallet.sol:MultiSigWallet",
								"label": "to",
								"offset": 0,
								"slot": "0",
								"type": "t_address"
							},
							{
								"astId": 26,
								"contract": "contracts/lesson8.1/02MultiSigWallet.sol:MultiSigWallet",
								"label": "value",
								"offset": 0,
								"slot": "1",
								"type": "t_uint256"
							},
							{
								"astId": 28,
								"contract": "contracts/lesson8.1/02MultiSigWallet.sol:MultiSigWallet",
								"label": "data",
								"offset": 0,
								"slot": "2",
								"type": "t_bytes_storage"
							},
							{
								"astId": 30,
								"contract": "contracts/lesson8.1/02MultiSigWallet.sol:MultiSigWallet",
								"label": "executed",
								"offset": 0,
								"slot": "3",
								"type": "t_bool"
							},
							{
								"astId": 32,
								"contract": "contracts/lesson8.1/02MultiSigWallet.sol:MultiSigWallet",
								"label": "confirmations",
								"offset": 0,
								"slot": "4",
								"type": "t_uint256"
							}
						],
						"numberOfBytes": "160"
					},
					"t_uint256": {
						"encoding": "inplace",
						"label": "uint256",
						"numberOfBytes": "32"
					}
				}
			},
			"userdoc": {
				"kind": "user",
				"methods": {
					"confirm(uint256)": {
						"notice": "确认交易"
					},
					"execute(uint256)": {
						"notice": "执行交易（使用call执行外部调用）"
					},
					"submit(address,uint256,bytes)": {
						"notice": "提交交易"
					}
				},
				"version": 1
			}
		}
	}
}