{
	"contracts/chainLinkStu/FundMe.sol": {
		"FundMe": {
			"abi": [
				{
					"inputs": [],
					"stateMutability": "nonpayable",
					"type": "constructor"
				},
				{
					"inputs": [],
					"name": "fund",
					"outputs": [],
					"stateMutability": "payable",
					"type": "function"
				},
				{
					"inputs": [
						{
							"internalType": "address",
							"name": "",
							"type": "address"
						}
					],
					"name": "funderToAmount",
					"outputs": [
						{
							"internalType": "uint256",
							"name": "",
							"type": "uint256"
						}
					],
					"stateMutability": "view",
					"type": "function"
				},
				{
					"inputs": [],
					"name": "getChainlinkDataFeedLatestAnswer",
					"outputs": [
						{
							"internalType": "int256",
							"name": "",
							"type": "int256"
						}
					],
					"stateMutability": "view",
					"type": "function"
				},
				{
					"inputs": [],
					"name": "getFund",
					"outputs": [],
					"stateMutability": "nonpayable",
					"type": "function"
				}
			],
			"devdoc": {
				"kind": "dev",
				"methods": {},
				"version": 1
			},
			"evm": {
				"assembly": "    /* \"contracts/chainLinkStu/FundMe.sol\":176:1896  contract FundMe{... */\n  mstore(0x40, 0x80)\n    /* \"contracts/chainLinkStu/FundMe.sol\":436:574  constructor() {... */\n  callvalue\n  dup1\n  iszero\n  tag_1\n  jumpi\n  revert(0x00, 0x00)\ntag_1:\n  pop\n    /* \"contracts/chainLinkStu/FundMe.sol\":469:479  msg.sender */\n  caller\n    /* \"contracts/chainLinkStu/FundMe.sol\":461:466  owner */\n  0x01\n  0x00\n    /* \"contracts/chainLinkStu/FundMe.sol\":461:479  owner = msg.sender */\n  0x0100\n  exp\n  dup2\n  sload\n  dup2\n  0xffffffffffffffffffffffffffffffffffffffff\n  mul\n  not\n  and\n  swap1\n  dup4\n  0xffffffffffffffffffffffffffffffffffffffff\n  and\n  mul\n  or\n  swap1\n  sstore\n  pop\n    /* \"contracts/chainLinkStu/FundMe.sol\":523:565  0x694AA1769357215DE4FAC081bf1f309aDC325306 */\n  0x694aa1769357215de4fac081bf1f309adc325306\n    /* \"contracts/chainLinkStu/FundMe.sol\":490:498  dataFeed */\n  0x02\n  0x00\n    /* \"contracts/chainLinkStu/FundMe.sol\":490:566  dataFeed = AggregatorV3Interface(0x694AA1769357215DE4FAC081bf1f309aDC325306) */\n  0x0100\n  exp\n  dup2\n  sload\n  dup2\n  0xffffffffffffffffffffffffffffffffffffffff\n  mul\n  not\n  and\n  swap1\n  dup4\n  0xffffffffffffffffffffffffffffffffffffffff\n  and\n  mul\n  or\n  swap1\n  sstore\n  pop\n    /* \"contracts/chainLinkStu/FundMe.sol\":176:1896  contract FundMe{... */\n  dataSize(sub_0)\n  dup1\n  dataOffset(sub_0)\n  0x00\n  codecopy\n  0x00\n  return\nstop\n\nsub_0: assembly {\n        /* \"contracts/chainLinkStu/FundMe.sol\":176:1896  contract FundMe{... */\n      mstore(0x40, 0x80)\n      jumpi(tag_1, lt(calldatasize, 0x04))\n      shr(0xe0, calldataload(0x00))\n      dup1\n      0x4407e1e8\n      eq\n      tag_2\n      jumpi\n      dup1\n      0x8edd6eb6\n      eq\n      tag_3\n      jumpi\n      dup1\n      0xb60d4288\n      eq\n      tag_4\n      jumpi\n      dup1\n      0xbea4dfb5\n      eq\n      tag_5\n      jumpi\n    tag_1:\n      revert(0x00, 0x00)\n        /* \"contracts/chainLinkStu/FundMe.sol\":198:248  mapping (address => uint256) public funderToAmount */\n    tag_2:\n      callvalue\n      dup1\n      iszero\n      tag_6\n      jumpi\n      revert(0x00, 0x00)\n    tag_6:\n      pop\n      tag_7\n      0x04\n      dup1\n      calldatasize\n      sub\n      dup2\n      add\n      swap1\n      tag_8\n      swap2\n      swap1\n      tag_9\n      jump\t// in\n    tag_8:\n      tag_10\n      jump\t// in\n    tag_7:\n      mload(0x40)\n      tag_11\n      swap2\n      swap1\n      tag_12\n      jump\t// in\n    tag_11:\n      mload(0x40)\n      dup1\n      swap2\n      sub\n      swap1\n      return\n        /* \"contracts/chainLinkStu/FundMe.sol\":1577:1891  function getFund() external  {... */\n    tag_3:\n      callvalue\n      dup1\n      iszero\n      tag_13\n      jumpi\n      revert(0x00, 0x00)\n    tag_13:\n      pop\n      tag_14\n      tag_15\n      jump\t// in\n    tag_14:\n      stop\n        /* \"contracts/chainLinkStu/FundMe.sol\":582:751  function fund() external payable {... */\n    tag_4:\n      tag_16\n      tag_17\n      jump\t// in\n    tag_16:\n      stop\n        /* \"contracts/chainLinkStu/FundMe.sol\":759:1129  function getChainlinkDataFeedLatestAnswer() public view returns (int256) {... */\n    tag_5:\n      callvalue\n      dup1\n      iszero\n      tag_18\n      jumpi\n      revert(0x00, 0x00)\n    tag_18:\n      pop\n      tag_19\n      tag_20\n      jump\t// in\n    tag_19:\n      mload(0x40)\n      tag_21\n      swap2\n      swap1\n      tag_22\n      jump\t// in\n    tag_21:\n      mload(0x40)\n      dup1\n      swap2\n      sub\n      swap1\n      return\n        /* \"contracts/chainLinkStu/FundMe.sol\":198:248  mapping (address => uint256) public funderToAmount */\n    tag_10:\n      mstore(0x20, 0x00)\n      dup1\n      0x00\n      mstore\n      keccak256(0x00, 0x40)\n      0x00\n      swap2\n      pop\n      swap1\n      pop\n      sload\n      dup2\n      jump\t// out\n        /* \"contracts/chainLinkStu/FundMe.sol\":1577:1891  function getFund() external  {... */\n    tag_15:\n        /* \"contracts/chainLinkStu/FundMe.sol\":1634:1644  msg.sender */\n      caller\n        /* \"contracts/chainLinkStu/FundMe.sol\":1625:1644  owner == msg.sender */\n      0xffffffffffffffffffffffffffffffffffffffff\n      and\n        /* \"contracts/chainLinkStu/FundMe.sol\":1625:1630  owner */\n      0x01\n      0x00\n      swap1\n      sload\n      swap1\n      0x0100\n      exp\n      swap1\n      div\n      0xffffffffffffffffffffffffffffffffffffffff\n      and\n        /* \"contracts/chainLinkStu/FundMe.sol\":1625:1644  owner == msg.sender */\n      0xffffffffffffffffffffffffffffffffffffffff\n      and\n      eq\n        /* \"contracts/chainLinkStu/FundMe.sol\":1617:1662  require(owner == msg.sender, \"must be admin\") */\n      tag_24\n      jumpi\n      mload(0x40)\n      0x08c379a000000000000000000000000000000000000000000000000000000000\n      dup2\n      mstore\n      0x04\n      add\n      tag_25\n      swap1\n      tag_26\n      jump\t// in\n    tag_25:\n      mload(0x40)\n      dup1\n      swap2\n      sub\n      swap1\n      revert\n    tag_24:\n        /* \"contracts/chainLinkStu/FundMe.sol\":342:357  1000 * 10 ** 18 */\n      0x3635c9adc5dea00000\n        /* \"contracts/chainLinkStu/FundMe.sol\":1681:1718  converETHToUSD(address(this).balance) */\n      tag_27\n        /* \"contracts/chainLinkStu/FundMe.sol\":1696:1717  address(this).balance */\n      selfbalance\n        /* \"contracts/chainLinkStu/FundMe.sol\":1681:1695  converETHToUSD */\n      tag_28\n        /* \"contracts/chainLinkStu/FundMe.sol\":1681:1718  converETHToUSD(address(this).balance) */\n      jump\t// in\n    tag_27:\n        /* \"contracts/chainLinkStu/FundMe.sol\":1681:1728  converETHToUSD(address(this).balance) >= TARGET */\n      lt\n      iszero\n        /* \"contracts/chainLinkStu/FundMe.sol\":1673:1754  require(converETHToUSD(address(this).balance) >= TARGET, \"Target is not reached\") */\n      tag_29\n      jumpi\n      mload(0x40)\n      0x08c379a000000000000000000000000000000000000000000000000000000000\n      dup2\n      mstore\n      0x04\n      add\n      tag_30\n      swap1\n      tag_31\n      jump\t// in\n    tag_30:\n      mload(0x40)\n      dup1\n      swap2\n      sub\n      swap1\n      revert\n    tag_29:\n        /* \"contracts/chainLinkStu/FundMe.sol\":1766:1778  bool success */\n      0x00\n        /* \"contracts/chainLinkStu/FundMe.sol\":1791:1801  msg.sender */\n      caller\n        /* \"contracts/chainLinkStu/FundMe.sol\":1783:1807  payable(msg.sender).call */\n      0xffffffffffffffffffffffffffffffffffffffff\n      and\n        /* \"contracts/chainLinkStu/FundMe.sol\":1815:1836  address(this).balance */\n      selfbalance\n        /* \"contracts/chainLinkStu/FundMe.sol\":1783:1841  payable(msg.sender).call{value: address(this).balance}(\"\") */\n      mload(0x40)\n      tag_32\n      swap1\n      tag_33\n      jump\t// in\n    tag_32:\n      0x00\n      mload(0x40)\n      dup1\n      dup4\n      sub\n      dup2\n      dup6\n      dup8\n      gas\n      call\n      swap3\n      pop\n      pop\n      pop\n      returndatasize\n      dup1\n      0x00\n      dup2\n      eq\n      tag_36\n      jumpi\n      mload(0x40)\n      swap2\n      pop\n      and(add(returndatasize, 0x3f), not(0x1f))\n      dup3\n      add\n      0x40\n      mstore\n      returndatasize\n      dup3\n      mstore\n      returndatasize\n      0x00\n      0x20\n      dup5\n      add\n      returndatacopy\n      jump(tag_35)\n    tag_36:\n      0x60\n      swap2\n      pop\n    tag_35:\n      pop\n        /* \"contracts/chainLinkStu/FundMe.sol\":1765:1841  (bool success,) = payable(msg.sender).call{value: address(this).balance}(\"\") */\n      pop\n      swap1\n      pop\n        /* \"contracts/chainLinkStu/FundMe.sol\":1860:1867  success */\n      dup1\n        /* \"contracts/chainLinkStu/FundMe.sol\":1852:1883  require(success, \"Call failed\") */\n      tag_37\n      jumpi\n      mload(0x40)\n      0x08c379a000000000000000000000000000000000000000000000000000000000\n      dup2\n      mstore\n      0x04\n      add\n      tag_38\n      swap1\n      tag_39\n      jump\t// in\n    tag_38:\n      mload(0x40)\n      dup1\n      swap2\n      sub\n      swap1\n      revert\n    tag_37:\n        /* \"contracts/chainLinkStu/FundMe.sol\":1606:1891  {... */\n      pop\n        /* \"contracts/chainLinkStu/FundMe.sol\":1577:1891  function getFund() external  {... */\n      jump\t// out\n        /* \"contracts/chainLinkStu/FundMe.sol\":582:751  function fund() external payable {... */\n    tag_17:\n        /* \"contracts/chainLinkStu/FundMe.sol\":288:302  100 * 10 ** 18 */\n      0x056bc75e2d63100000\n        /* \"contracts/chainLinkStu/FundMe.sol\":634:659  converETHToUSD(msg.value) */\n      tag_41\n        /* \"contracts/chainLinkStu/FundMe.sol\":649:658  msg.value */\n      callvalue\n        /* \"contracts/chainLinkStu/FundMe.sol\":634:648  converETHToUSD */\n      tag_28\n        /* \"contracts/chainLinkStu/FundMe.sol\":634:659  converETHToUSD(msg.value) */\n      jump\t// in\n    tag_41:\n        /* \"contracts/chainLinkStu/FundMe.sol\":634:676  converETHToUSD(msg.value) >= MINIMUM_VALUE */\n      lt\n      iszero\n        /* \"contracts/chainLinkStu/FundMe.sol\":626:694  require(converETHToUSD(msg.value) >= MINIMUM_VALUE, \"Send more USD\") */\n      tag_42\n      jumpi\n      mload(0x40)\n      0x08c379a000000000000000000000000000000000000000000000000000000000\n      dup2\n      mstore\n      0x04\n      add\n      tag_43\n      swap1\n      tag_44\n      jump\t// in\n    tag_43:\n      mload(0x40)\n      dup1\n      swap2\n      sub\n      swap1\n      revert\n    tag_42:\n        /* \"contracts/chainLinkStu/FundMe.sol\":734:743  msg.value */\n      callvalue\n        /* \"contracts/chainLinkStu/FundMe.sol\":705:719  funderToAmount */\n      0x00\n        /* \"contracts/chainLinkStu/FundMe.sol\":705:731  funderToAmount[msg.sender] */\n      0x00\n        /* \"contracts/chainLinkStu/FundMe.sol\":720:730  msg.sender */\n      caller\n        /* \"contracts/chainLinkStu/FundMe.sol\":705:731  funderToAmount[msg.sender] */\n      0xffffffffffffffffffffffffffffffffffffffff\n      and\n      0xffffffffffffffffffffffffffffffffffffffff\n      and\n      dup2\n      mstore\n      0x20\n      add\n      swap1\n      dup2\n      mstore\n      0x20\n      add\n      0x00\n      keccak256\n        /* \"contracts/chainLinkStu/FundMe.sol\":705:743  funderToAmount[msg.sender] = msg.value */\n      dup2\n      swap1\n      sstore\n      pop\n        /* \"contracts/chainLinkStu/FundMe.sol\":582:751  function fund() external payable {... */\n      jump\t// out\n        /* \"contracts/chainLinkStu/FundMe.sol\":759:1129  function getChainlinkDataFeedLatestAnswer() public view returns (int256) {... */\n    tag_20:\n        /* \"contracts/chainLinkStu/FundMe.sol\":824:830  int256 */\n      0x00\n        /* \"contracts/chainLinkStu/FundMe.sol\":923:936  int256 answer */\n      0x00\n        /* \"contracts/chainLinkStu/FundMe.sol\":1071:1079  dataFeed */\n      0x02\n      0x00\n      swap1\n      sload\n      swap1\n      0x0100\n      exp\n      swap1\n      div\n      0xffffffffffffffffffffffffffffffffffffffff\n      and\n        /* \"contracts/chainLinkStu/FundMe.sol\":1071:1095  dataFeed.latestRoundData */\n      0xffffffffffffffffffffffffffffffffffffffff\n      and\n      0xfeaf968c\n        /* \"contracts/chainLinkStu/FundMe.sol\":1071:1097  dataFeed.latestRoundData() */\n      mload(0x40)\n      dup2\n      0xffffffff\n      and\n      0xe0\n      shl\n      dup2\n      mstore\n      0x04\n      add\n      0xa0\n      mload(0x40)\n      dup1\n      dup4\n      sub\n      dup2\n      dup7\n      gas\n      staticcall\n      iszero\n      dup1\n      iszero\n      tag_47\n      jumpi\n      returndatacopy(0x00, 0x00, returndatasize)\n      revert(0x00, returndatasize)\n    tag_47:\n      pop\n      pop\n      pop\n      pop\n      mload(0x40)\n      returndatasize\n      not(0x1f)\n      0x1f\n      dup3\n      add\n      and\n      dup3\n      add\n      dup1\n      0x40\n      mstore\n      pop\n      dup2\n      add\n      swap1\n      tag_48\n      swap2\n      swap1\n      tag_49\n      jump\t// in\n    tag_48:\n        /* \"contracts/chainLinkStu/FundMe.sol\":871:1097  (... */\n      pop\n      pop\n      pop\n      swap2\n      pop\n      pop\n        /* \"contracts/chainLinkStu/FundMe.sol\":1115:1121  answer */\n      dup1\n        /* \"contracts/chainLinkStu/FundMe.sol\":1108:1121  return answer */\n      swap2\n      pop\n      pop\n        /* \"contracts/chainLinkStu/FundMe.sol\":759:1129  function getChainlinkDataFeedLatestAnswer() public view returns (int256) {... */\n      swap1\n      jump\t// out\n        /* \"contracts/chainLinkStu/FundMe.sol\":1137:1569  function converETHToUSD(uint256 ethAmount) internal view  returns (uint256){... */\n    tag_28:\n        /* \"contracts/chainLinkStu/FundMe.sol\":1204:1211  uint256 */\n      0x00\n        /* \"contracts/chainLinkStu/FundMe.sol\":1223:1239  uint256 ethPrice */\n      0x00\n        /* \"contracts/chainLinkStu/FundMe.sol\":1250:1284  getChainlinkDataFeedLatestAnswer() */\n      tag_51\n        /* \"contracts/chainLinkStu/FundMe.sol\":1250:1282  getChainlinkDataFeedLatestAnswer */\n      tag_20\n        /* \"contracts/chainLinkStu/FundMe.sol\":1250:1284  getChainlinkDataFeedLatestAnswer() */\n      jump\t// in\n    tag_51:\n        /* \"contracts/chainLinkStu/FundMe.sol\":1223:1285  uint256 ethPrice = uint256(getChainlinkDataFeedLatestAnswer()) */\n      swap1\n      pop\n        /* \"contracts/chainLinkStu/FundMe.sol\":1555:1560  10**8 */\n      0x05f5e100\n        /* \"contracts/chainLinkStu/FundMe.sol\":1543:1551  ethPrice */\n      dup2\n        /* \"contracts/chainLinkStu/FundMe.sol\":1531:1540  ethAmount */\n      dup5\n        /* \"contracts/chainLinkStu/FundMe.sol\":1531:1551  ethAmount * ethPrice */\n      tag_52\n      swap2\n      swap1\n      tag_53\n      jump\t// in\n    tag_52:\n        /* \"contracts/chainLinkStu/FundMe.sol\":1531:1561  ethAmount * ethPrice / (10**8) */\n      tag_54\n      swap2\n      swap1\n      tag_55\n      jump\t// in\n    tag_54:\n        /* \"contracts/chainLinkStu/FundMe.sol\":1524:1561  return ethAmount * ethPrice / (10**8) */\n      swap2\n      pop\n      pop\n        /* \"contracts/chainLinkStu/FundMe.sol\":1137:1569  function converETHToUSD(uint256 ethAmount) internal view  returns (uint256){... */\n      swap2\n      swap1\n      pop\n      jump\t// out\n        /* \"#utility.yul\":88:205   */\n    tag_57:\n        /* \"#utility.yul\":197:198   */\n      0x00\n        /* \"#utility.yul\":194:195   */\n      0x00\n        /* \"#utility.yul\":187:199   */\n      revert\n        /* \"#utility.yul\":334:460   */\n    tag_59:\n        /* \"#utility.yul\":371:378   */\n      0x00\n        /* \"#utility.yul\":411:453   */\n      0xffffffffffffffffffffffffffffffffffffffff\n        /* \"#utility.yul\":404:409   */\n      dup3\n        /* \"#utility.yul\":400:454   */\n      and\n        /* \"#utility.yul\":389:454   */\n      swap1\n      pop\n        /* \"#utility.yul\":334:460   */\n      swap2\n      swap1\n      pop\n      jump\t// out\n        /* \"#utility.yul\":466:562   */\n    tag_60:\n        /* \"#utility.yul\":503:510   */\n      0x00\n        /* \"#utility.yul\":532:556   */\n      tag_94\n        /* \"#utility.yul\":550:555   */\n      dup3\n        /* \"#utility.yul\":532:556   */\n      tag_59\n      jump\t// in\n    tag_94:\n        /* \"#utility.yul\":521:556   */\n      swap1\n      pop\n        /* \"#utility.yul\":466:562   */\n      swap2\n      swap1\n      pop\n      jump\t// out\n        /* \"#utility.yul\":568:690   */\n    tag_61:\n        /* \"#utility.yul\":641:665   */\n      tag_96\n        /* \"#utility.yul\":659:664   */\n      dup2\n        /* \"#utility.yul\":641:665   */\n      tag_60\n      jump\t// in\n    tag_96:\n        /* \"#utility.yul\":634:639   */\n      dup2\n        /* \"#utility.yul\":631:666   */\n      eq\n        /* \"#utility.yul\":621:684   */\n      tag_97\n      jumpi\n        /* \"#utility.yul\":680:681   */\n      0x00\n        /* \"#utility.yul\":677:678   */\n      0x00\n        /* \"#utility.yul\":670:682   */\n      revert\n        /* \"#utility.yul\":621:684   */\n    tag_97:\n        /* \"#utility.yul\":568:690   */\n      pop\n      jump\t// out\n        /* \"#utility.yul\":696:835   */\n    tag_62:\n        /* \"#utility.yul\":742:747   */\n      0x00\n        /* \"#utility.yul\":780:786   */\n      dup2\n        /* \"#utility.yul\":767:787   */\n      calldataload\n        /* \"#utility.yul\":758:787   */\n      swap1\n      pop\n        /* \"#utility.yul\":796:829   */\n      tag_99\n        /* \"#utility.yul\":823:828   */\n      dup2\n        /* \"#utility.yul\":796:829   */\n      tag_61\n      jump\t// in\n    tag_99:\n        /* \"#utility.yul\":696:835   */\n      swap3\n      swap2\n      pop\n      pop\n      jump\t// out\n        /* \"#utility.yul\":841:1170   */\n    tag_9:\n        /* \"#utility.yul\":900:906   */\n      0x00\n        /* \"#utility.yul\":949:951   */\n      0x20\n        /* \"#utility.yul\":937:946   */\n      dup3\n        /* \"#utility.yul\":928:935   */\n      dup5\n        /* \"#utility.yul\":924:947   */\n      sub\n        /* \"#utility.yul\":920:952   */\n      slt\n        /* \"#utility.yul\":917:1036   */\n      iszero\n      tag_101\n      jumpi\n        /* \"#utility.yul\":955:1034   */\n      tag_102\n      tag_57\n      jump\t// in\n    tag_102:\n        /* \"#utility.yul\":917:1036   */\n    tag_101:\n        /* \"#utility.yul\":1075:1076   */\n      0x00\n        /* \"#utility.yul\":1100:1153   */\n      tag_103\n        /* \"#utility.yul\":1145:1152   */\n      dup5\n        /* \"#utility.yul\":1136:1142   */\n      dup3\n        /* \"#utility.yul\":1125:1134   */\n      dup6\n        /* \"#utility.yul\":1121:1143   */\n      add\n        /* \"#utility.yul\":1100:1153   */\n      tag_62\n      jump\t// in\n    tag_103:\n        /* \"#utility.yul\":1090:1153   */\n      swap2\n      pop\n        /* \"#utility.yul\":1046:1163   */\n      pop\n        /* \"#utility.yul\":841:1170   */\n      swap3\n      swap2\n      pop\n      pop\n      jump\t// out\n        /* \"#utility.yul\":1176:1253   */\n    tag_63:\n        /* \"#utility.yul\":1213:1220   */\n      0x00\n        /* \"#utility.yul\":1242:1247   */\n      dup2\n        /* \"#utility.yul\":1231:1247   */\n      swap1\n      pop\n        /* \"#utility.yul\":1176:1253   */\n      swap2\n      swap1\n      pop\n      jump\t// out\n        /* \"#utility.yul\":1259:1377   */\n    tag_64:\n        /* \"#utility.yul\":1346:1370   */\n      tag_106\n        /* \"#utility.yul\":1364:1369   */\n      dup2\n        /* \"#utility.yul\":1346:1370   */\n      tag_63\n      jump\t// in\n    tag_106:\n        /* \"#utility.yul\":1341:1344   */\n      dup3\n        /* \"#utility.yul\":1334:1371   */\n      mstore\n        /* \"#utility.yul\":1259:1377   */\n      pop\n      pop\n      jump\t// out\n        /* \"#utility.yul\":1383:1605   */\n    tag_12:\n        /* \"#utility.yul\":1476:1480   */\n      0x00\n        /* \"#utility.yul\":1514:1516   */\n      0x20\n        /* \"#utility.yul\":1503:1512   */\n      dup3\n        /* \"#utility.yul\":1499:1517   */\n      add\n        /* \"#utility.yul\":1491:1517   */\n      swap1\n      pop\n        /* \"#utility.yul\":1527:1598   */\n      tag_108\n        /* \"#utility.yul\":1595:1596   */\n      0x00\n        /* \"#utility.yul\":1584:1593   */\n      dup4\n        /* \"#utility.yul\":1580:1597   */\n      add\n        /* \"#utility.yul\":1571:1577   */\n      dup5\n        /* \"#utility.yul\":1527:1598   */\n      tag_64\n      jump\t// in\n    tag_108:\n        /* \"#utility.yul\":1383:1605   */\n      swap3\n      swap2\n      pop\n      pop\n      jump\t// out\n        /* \"#utility.yul\":1611:1687   */\n    tag_65:\n        /* \"#utility.yul\":1647:1654   */\n      0x00\n        /* \"#utility.yul\":1676:1681   */\n      dup2\n        /* \"#utility.yul\":1665:1681   */\n      swap1\n      pop\n        /* \"#utility.yul\":1611:1687   */\n      swap2\n      swap1\n      pop\n      jump\t// out\n        /* \"#utility.yul\":1693:1808   */\n    tag_66:\n        /* \"#utility.yul\":1778:1801   */\n      tag_111\n        /* \"#utility.yul\":1795:1800   */\n      dup2\n        /* \"#utility.yul\":1778:1801   */\n      tag_65\n      jump\t// in\n    tag_111:\n        /* \"#utility.yul\":1773:1776   */\n      dup3\n        /* \"#utility.yul\":1766:1802   */\n      mstore\n        /* \"#utility.yul\":1693:1808   */\n      pop\n      pop\n      jump\t// out\n        /* \"#utility.yul\":1814:2032   */\n    tag_22:\n        /* \"#utility.yul\":1905:1909   */\n      0x00\n        /* \"#utility.yul\":1943:1945   */\n      0x20\n        /* \"#utility.yul\":1932:1941   */\n      dup3\n        /* \"#utility.yul\":1928:1946   */\n      add\n        /* \"#utility.yul\":1920:1946   */\n      swap1\n      pop\n        /* \"#utility.yul\":1956:2025   */\n      tag_113\n        /* \"#utility.yul\":2022:2023   */\n      0x00\n        /* \"#utility.yul\":2011:2020   */\n      dup4\n        /* \"#utility.yul\":2007:2024   */\n      add\n        /* \"#utility.yul\":1998:2004   */\n      dup5\n        /* \"#utility.yul\":1956:2025   */\n      tag_66\n      jump\t// in\n    tag_113:\n        /* \"#utility.yul\":1814:2032   */\n      swap3\n      swap2\n      pop\n      pop\n      jump\t// out\n        /* \"#utility.yul\":2038:2207   */\n    tag_67:\n        /* \"#utility.yul\":2122:2133   */\n      0x00\n        /* \"#utility.yul\":2156:2162   */\n      dup3\n        /* \"#utility.yul\":2151:2154   */\n      dup3\n        /* \"#utility.yul\":2144:2163   */\n      mstore\n        /* \"#utility.yul\":2196:2200   */\n      0x20\n        /* \"#utility.yul\":2191:2194   */\n      dup3\n        /* \"#utility.yul\":2187:2201   */\n      add\n        /* \"#utility.yul\":2172:2201   */\n      swap1\n      pop\n        /* \"#utility.yul\":2038:2207   */\n      swap3\n      swap2\n      pop\n      pop\n      jump\t// out\n        /* \"#utility.yul\":2213:2376   */\n    tag_68:\n        /* \"#utility.yul\":2353:2368   */\n      0x6d7573742062652061646d696e00000000000000000000000000000000000000\n        /* \"#utility.yul\":2349:2350   */\n      0x00\n        /* \"#utility.yul\":2341:2347   */\n      dup3\n        /* \"#utility.yul\":2337:2351   */\n      add\n        /* \"#utility.yul\":2330:2369   */\n      mstore\n        /* \"#utility.yul\":2213:2376   */\n      pop\n      jump\t// out\n        /* \"#utility.yul\":2382:2748   */\n    tag_69:\n        /* \"#utility.yul\":2524:2527   */\n      0x00\n        /* \"#utility.yul\":2545:2612   */\n      tag_117\n        /* \"#utility.yul\":2609:2611   */\n      0x0d\n        /* \"#utility.yul\":2604:2607   */\n      dup4\n        /* \"#utility.yul\":2545:2612   */\n      tag_67\n      jump\t// in\n    tag_117:\n        /* \"#utility.yul\":2538:2612   */\n      swap2\n      pop\n        /* \"#utility.yul\":2621:2714   */\n      tag_118\n        /* \"#utility.yul\":2710:2713   */\n      dup3\n        /* \"#utility.yul\":2621:2714   */\n      tag_68\n      jump\t// in\n    tag_118:\n        /* \"#utility.yul\":2739:2741   */\n      0x20\n        /* \"#utility.yul\":2734:2737   */\n      dup3\n        /* \"#utility.yul\":2730:2742   */\n      add\n        /* \"#utility.yul\":2723:2742   */\n      swap1\n      pop\n        /* \"#utility.yul\":2382:2748   */\n      swap2\n      swap1\n      pop\n      jump\t// out\n        /* \"#utility.yul\":2754:3173   */\n    tag_26:\n        /* \"#utility.yul\":2920:2924   */\n      0x00\n        /* \"#utility.yul\":2958:2960   */\n      0x20\n        /* \"#utility.yul\":2947:2956   */\n      dup3\n        /* \"#utility.yul\":2943:2961   */\n      add\n        /* \"#utility.yul\":2935:2961   */\n      swap1\n      pop\n        /* \"#utility.yul\":3007:3016   */\n      dup2\n        /* \"#utility.yul\":3001:3005   */\n      dup2\n        /* \"#utility.yul\":2997:3017   */\n      sub\n        /* \"#utility.yul\":2993:2994   */\n      0x00\n        /* \"#utility.yul\":2982:2991   */\n      dup4\n        /* \"#utility.yul\":2978:2995   */\n      add\n        /* \"#utility.yul\":2971:3018   */\n      mstore\n        /* \"#utility.yul\":3035:3166   */\n      tag_120\n        /* \"#utility.yul\":3161:3165   */\n      dup2\n        /* \"#utility.yul\":3035:3166   */\n      tag_69\n      jump\t// in\n    tag_120:\n        /* \"#utility.yul\":3027:3166   */\n      swap1\n      pop\n        /* \"#utility.yul\":2754:3173   */\n      swap2\n      swap1\n      pop\n      jump\t// out\n        /* \"#utility.yul\":3179:3350   */\n    tag_70:\n        /* \"#utility.yul\":3319:3342   */\n      0x546172676574206973206e6f7420726561636865640000000000000000000000\n        /* \"#utility.yul\":3315:3316   */\n      0x00\n        /* \"#utility.yul\":3307:3313   */\n      dup3\n        /* \"#utility.yul\":3303:3317   */\n      add\n        /* \"#utility.yul\":3296:3343   */\n      mstore\n        /* \"#utility.yul\":3179:3350   */\n      pop\n      jump\t// out\n        /* \"#utility.yul\":3356:3722   */\n    tag_71:\n        /* \"#utility.yul\":3498:3501   */\n      0x00\n        /* \"#utility.yul\":3519:3586   */\n      tag_123\n        /* \"#utility.yul\":3583:3585   */\n      0x15\n        /* \"#utility.yul\":3578:3581   */\n      dup4\n        /* \"#utility.yul\":3519:3586   */\n      tag_67\n      jump\t// in\n    tag_123:\n        /* \"#utility.yul\":3512:3586   */\n      swap2\n      pop\n        /* \"#utility.yul\":3595:3688   */\n      tag_124\n        /* \"#utility.yul\":3684:3687   */\n      dup3\n        /* \"#utility.yul\":3595:3688   */\n      tag_70\n      jump\t// in\n    tag_124:\n        /* \"#utility.yul\":3713:3715   */\n      0x20\n        /* \"#utility.yul\":3708:3711   */\n      dup3\n        /* \"#utility.yul\":3704:3716   */\n      add\n        /* \"#utility.yul\":3697:3716   */\n      swap1\n      pop\n        /* \"#utility.yul\":3356:3722   */\n      swap2\n      swap1\n      pop\n      jump\t// out\n        /* \"#utility.yul\":3728:4147   */\n    tag_31:\n        /* \"#utility.yul\":3894:3898   */\n      0x00\n        /* \"#utility.yul\":3932:3934   */\n      0x20\n        /* \"#utility.yul\":3921:3930   */\n      dup3\n        /* \"#utility.yul\":3917:3935   */\n      add\n        /* \"#utility.yul\":3909:3935   */\n      swap1\n      pop\n        /* \"#utility.yul\":3981:3990   */\n      dup2\n        /* \"#utility.yul\":3975:3979   */\n      dup2\n        /* \"#utility.yul\":3971:3991   */\n      sub\n        /* \"#utility.yul\":3967:3968   */\n      0x00\n        /* \"#utility.yul\":3956:3965   */\n      dup4\n        /* \"#utility.yul\":3952:3969   */\n      add\n        /* \"#utility.yul\":3945:3992   */\n      mstore\n        /* \"#utility.yul\":4009:4140   */\n      tag_126\n        /* \"#utility.yul\":4135:4139   */\n      dup2\n        /* \"#utility.yul\":4009:4140   */\n      tag_71\n      jump\t// in\n    tag_126:\n        /* \"#utility.yul\":4001:4140   */\n      swap1\n      pop\n        /* \"#utility.yul\":3728:4147   */\n      swap2\n      swap1\n      pop\n      jump\t// out\n        /* \"#utility.yul\":4153:4300   */\n    tag_72:\n        /* \"#utility.yul\":4254:4265   */\n      0x00\n        /* \"#utility.yul\":4291:4294   */\n      dup2\n        /* \"#utility.yul\":4276:4294   */\n      swap1\n      pop\n        /* \"#utility.yul\":4153:4300   */\n      swap3\n      swap2\n      pop\n      pop\n      jump\t// out\n        /* \"#utility.yul\":4306:4420   */\n    tag_73:\n      pop\n      jump\t// out\n        /* \"#utility.yul\":4426:4824   */\n    tag_74:\n        /* \"#utility.yul\":4585:4588   */\n      0x00\n        /* \"#utility.yul\":4606:4689   */\n      tag_130\n        /* \"#utility.yul\":4687:4688   */\n      0x00\n        /* \"#utility.yul\":4682:4685   */\n      dup4\n        /* \"#utility.yul\":4606:4689   */\n      tag_72\n      jump\t// in\n    tag_130:\n        /* \"#utility.yul\":4599:4689   */\n      swap2\n      pop\n        /* \"#utility.yul\":4698:4791   */\n      tag_131\n        /* \"#utility.yul\":4787:4790   */\n      dup3\n        /* \"#utility.yul\":4698:4791   */\n      tag_73\n      jump\t// in\n    tag_131:\n        /* \"#utility.yul\":4816:4817   */\n      0x00\n        /* \"#utility.yul\":4811:4814   */\n      dup3\n        /* \"#utility.yul\":4807:4818   */\n      add\n        /* \"#utility.yul\":4800:4818   */\n      swap1\n      pop\n        /* \"#utility.yul\":4426:4824   */\n      swap2\n      swap1\n      pop\n      jump\t// out\n        /* \"#utility.yul\":4830:5209   */\n    tag_33:\n        /* \"#utility.yul\":5014:5017   */\n      0x00\n        /* \"#utility.yul\":5036:5183   */\n      tag_133\n        /* \"#utility.yul\":5179:5182   */\n      dup3\n        /* \"#utility.yul\":5036:5183   */\n      tag_74\n      jump\t// in\n    tag_133:\n        /* \"#utility.yul\":5029:5183   */\n      swap2\n      pop\n        /* \"#utility.yul\":5200:5203   */\n      dup2\n        /* \"#utility.yul\":5193:5203   */\n      swap1\n      pop\n        /* \"#utility.yul\":4830:5209   */\n      swap2\n      swap1\n      pop\n      jump\t// out\n        /* \"#utility.yul\":5215:5376   */\n    tag_75:\n        /* \"#utility.yul\":5355:5368   */\n      0x43616c6c206661696c6564000000000000000000000000000000000000000000\n        /* \"#utility.yul\":5351:5352   */\n      0x00\n        /* \"#utility.yul\":5343:5349   */\n      dup3\n        /* \"#utility.yul\":5339:5353   */\n      add\n        /* \"#utility.yul\":5332:5369   */\n      mstore\n        /* \"#utility.yul\":5215:5376   */\n      pop\n      jump\t// out\n        /* \"#utility.yul\":5382:5748   */\n    tag_76:\n        /* \"#utility.yul\":5524:5527   */\n      0x00\n        /* \"#utility.yul\":5545:5612   */\n      tag_136\n        /* \"#utility.yul\":5609:5611   */\n      0x0b\n        /* \"#utility.yul\":5604:5607   */\n      dup4\n        /* \"#utility.yul\":5545:5612   */\n      tag_67\n      jump\t// in\n    tag_136:\n        /* \"#utility.yul\":5538:5612   */\n      swap2\n      pop\n        /* \"#utility.yul\":5621:5714   */\n      tag_137\n        /* \"#utility.yul\":5710:5713   */\n      dup3\n        /* \"#utility.yul\":5621:5714   */\n      tag_75\n      jump\t// in\n    tag_137:\n        /* \"#utility.yul\":5739:5741   */\n      0x20\n        /* \"#utility.yul\":5734:5737   */\n      dup3\n        /* \"#utility.yul\":5730:5742   */\n      add\n        /* \"#utility.yul\":5723:5742   */\n      swap1\n      pop\n        /* \"#utility.yul\":5382:5748   */\n      swap2\n      swap1\n      pop\n      jump\t// out\n        /* \"#utility.yul\":5754:6173   */\n    tag_39:\n        /* \"#utility.yul\":5920:5924   */\n      0x00\n        /* \"#utility.yul\":5958:5960   */\n      0x20\n        /* \"#utility.yul\":5947:5956   */\n      dup3\n        /* \"#utility.yul\":5943:5961   */\n      add\n        /* \"#utility.yul\":5935:5961   */\n      swap1\n      pop\n        /* \"#utility.yul\":6007:6016   */\n      dup2\n        /* \"#utility.yul\":6001:6005   */\n      dup2\n        /* \"#utility.yul\":5997:6017   */\n      sub\n        /* \"#utility.yul\":5993:5994   */\n      0x00\n        /* \"#utility.yul\":5982:5991   */\n      dup4\n        /* \"#utility.yul\":5978:5995   */\n      add\n        /* \"#utility.yul\":5971:6018   */\n      mstore\n        /* \"#utility.yul\":6035:6166   */\n      tag_139\n        /* \"#utility.yul\":6161:6165   */\n      dup2\n        /* \"#utility.yul\":6035:6166   */\n      tag_76\n      jump\t// in\n    tag_139:\n        /* \"#utility.yul\":6027:6166   */\n      swap1\n      pop\n        /* \"#utility.yul\":5754:6173   */\n      swap2\n      swap1\n      pop\n      jump\t// out\n        /* \"#utility.yul\":6179:6342   */\n    tag_77:\n        /* \"#utility.yul\":6319:6334   */\n      0x53656e64206d6f72652055534400000000000000000000000000000000000000\n        /* \"#utility.yul\":6315:6316   */\n      0x00\n        /* \"#utility.yul\":6307:6313   */\n      dup3\n        /* \"#utility.yul\":6303:6317   */\n      add\n        /* \"#utility.yul\":6296:6335   */\n      mstore\n        /* \"#utility.yul\":6179:6342   */\n      pop\n      jump\t// out\n        /* \"#utility.yul\":6348:6714   */\n    tag_78:\n        /* \"#utility.yul\":6490:6493   */\n      0x00\n        /* \"#utility.yul\":6511:6578   */\n      tag_142\n        /* \"#utility.yul\":6575:6577   */\n      0x0d\n        /* \"#utility.yul\":6570:6573   */\n      dup4\n        /* \"#utility.yul\":6511:6578   */\n      tag_67\n      jump\t// in\n    tag_142:\n        /* \"#utility.yul\":6504:6578   */\n      swap2\n      pop\n        /* \"#utility.yul\":6587:6680   */\n      tag_143\n        /* \"#utility.yul\":6676:6679   */\n      dup3\n        /* \"#utility.yul\":6587:6680   */\n      tag_77\n      jump\t// in\n    tag_143:\n        /* \"#utility.yul\":6705:6707   */\n      0x20\n        /* \"#utility.yul\":6700:6703   */\n      dup3\n        /* \"#utility.yul\":6696:6708   */\n      add\n        /* \"#utility.yul\":6689:6708   */\n      swap1\n      pop\n        /* \"#utility.yul\":6348:6714   */\n      swap2\n      swap1\n      pop\n      jump\t// out\n        /* \"#utility.yul\":6720:7139   */\n    tag_44:\n        /* \"#utility.yul\":6886:6890   */\n      0x00\n        /* \"#utility.yul\":6924:6926   */\n      0x20\n        /* \"#utility.yul\":6913:6922   */\n      dup3\n        /* \"#utility.yul\":6909:6927   */\n      add\n        /* \"#utility.yul\":6901:6927   */\n      swap1\n      pop\n        /* \"#utility.yul\":6973:6982   */\n      dup2\n        /* \"#utility.yul\":6967:6971   */\n      dup2\n        /* \"#utility.yul\":6963:6983   */\n      sub\n        /* \"#utility.yul\":6959:6960   */\n      0x00\n        /* \"#utility.yul\":6948:6957   */\n      dup4\n        /* \"#utility.yul\":6944:6961   */\n      add\n        /* \"#utility.yul\":6937:6984   */\n      mstore\n        /* \"#utility.yul\":7001:7132   */\n      tag_145\n        /* \"#utility.yul\":7127:7131   */\n      dup2\n        /* \"#utility.yul\":7001:7132   */\n      tag_78\n      jump\t// in\n    tag_145:\n        /* \"#utility.yul\":6993:7132   */\n      swap1\n      pop\n        /* \"#utility.yul\":6720:7139   */\n      swap2\n      swap1\n      pop\n      jump\t// out\n        /* \"#utility.yul\":7145:7250   */\n    tag_79:\n        /* \"#utility.yul\":7181:7188   */\n      0x00\n        /* \"#utility.yul\":7221:7243   */\n      0xffffffffffffffffffff\n        /* \"#utility.yul\":7214:7219   */\n      dup3\n        /* \"#utility.yul\":7210:7244   */\n      and\n        /* \"#utility.yul\":7199:7244   */\n      swap1\n      pop\n        /* \"#utility.yul\":7145:7250   */\n      swap2\n      swap1\n      pop\n      jump\t// out\n        /* \"#utility.yul\":7256:7376   */\n    tag_80:\n        /* \"#utility.yul\":7328:7351   */\n      tag_148\n        /* \"#utility.yul\":7345:7350   */\n      dup2\n        /* \"#utility.yul\":7328:7351   */\n      tag_79\n      jump\t// in\n    tag_148:\n        /* \"#utility.yul\":7321:7326   */\n      dup2\n        /* \"#utility.yul\":7318:7352   */\n      eq\n        /* \"#utility.yul\":7308:7370   */\n      tag_149\n      jumpi\n        /* \"#utility.yul\":7366:7367   */\n      0x00\n        /* \"#utility.yul\":7363:7364   */\n      0x00\n        /* \"#utility.yul\":7356:7368   */\n      revert\n        /* \"#utility.yul\":7308:7370   */\n    tag_149:\n        /* \"#utility.yul\":7256:7376   */\n      pop\n      jump\t// out\n        /* \"#utility.yul\":7382:7523   */\n    tag_81:\n        /* \"#utility.yul\":7438:7443   */\n      0x00\n        /* \"#utility.yul\":7469:7475   */\n      dup2\n        /* \"#utility.yul\":7463:7476   */\n      mload\n        /* \"#utility.yul\":7454:7476   */\n      swap1\n      pop\n        /* \"#utility.yul\":7485:7517   */\n      tag_151\n        /* \"#utility.yul\":7511:7516   */\n      dup2\n        /* \"#utility.yul\":7485:7517   */\n      tag_80\n      jump\t// in\n    tag_151:\n        /* \"#utility.yul\":7382:7523   */\n      swap3\n      swap2\n      pop\n      pop\n      jump\t// out\n        /* \"#utility.yul\":7529:7649   */\n    tag_82:\n        /* \"#utility.yul\":7601:7624   */\n      tag_153\n        /* \"#utility.yul\":7618:7623   */\n      dup2\n        /* \"#utility.yul\":7601:7624   */\n      tag_65\n      jump\t// in\n    tag_153:\n        /* \"#utility.yul\":7594:7599   */\n      dup2\n        /* \"#utility.yul\":7591:7625   */\n      eq\n        /* \"#utility.yul\":7581:7643   */\n      tag_154\n      jumpi\n        /* \"#utility.yul\":7639:7640   */\n      0x00\n        /* \"#utility.yul\":7636:7637   */\n      0x00\n        /* \"#utility.yul\":7629:7641   */\n      revert\n        /* \"#utility.yul\":7581:7643   */\n    tag_154:\n        /* \"#utility.yul\":7529:7649   */\n      pop\n      jump\t// out\n        /* \"#utility.yul\":7655:7796   */\n    tag_83:\n        /* \"#utility.yul\":7711:7716   */\n      0x00\n        /* \"#utility.yul\":7742:7748   */\n      dup2\n        /* \"#utility.yul\":7736:7749   */\n      mload\n        /* \"#utility.yul\":7727:7749   */\n      swap1\n      pop\n        /* \"#utility.yul\":7758:7790   */\n      tag_156\n        /* \"#utility.yul\":7784:7789   */\n      dup2\n        /* \"#utility.yul\":7758:7790   */\n      tag_82\n      jump\t// in\n    tag_156:\n        /* \"#utility.yul\":7655:7796   */\n      swap3\n      swap2\n      pop\n      pop\n      jump\t// out\n        /* \"#utility.yul\":7802:7924   */\n    tag_84:\n        /* \"#utility.yul\":7875:7899   */\n      tag_158\n        /* \"#utility.yul\":7893:7898   */\n      dup2\n        /* \"#utility.yul\":7875:7899   */\n      tag_63\n      jump\t// in\n    tag_158:\n        /* \"#utility.yul\":7868:7873   */\n      dup2\n        /* \"#utility.yul\":7865:7900   */\n      eq\n        /* \"#utility.yul\":7855:7918   */\n      tag_159\n      jumpi\n        /* \"#utility.yul\":7914:7915   */\n      0x00\n        /* \"#utility.yul\":7911:7912   */\n      0x00\n        /* \"#utility.yul\":7904:7916   */\n      revert\n        /* \"#utility.yul\":7855:7918   */\n    tag_159:\n        /* \"#utility.yul\":7802:7924   */\n      pop\n      jump\t// out\n        /* \"#utility.yul\":7930:8073   */\n    tag_85:\n        /* \"#utility.yul\":7987:7992   */\n      0x00\n        /* \"#utility.yul\":8018:8024   */\n      dup2\n        /* \"#utility.yul\":8012:8025   */\n      mload\n        /* \"#utility.yul\":8003:8025   */\n      swap1\n      pop\n        /* \"#utility.yul\":8034:8067   */\n      tag_161\n        /* \"#utility.yul\":8061:8066   */\n      dup2\n        /* \"#utility.yul\":8034:8067   */\n      tag_84\n      jump\t// in\n    tag_161:\n        /* \"#utility.yul\":7930:8073   */\n      swap3\n      swap2\n      pop\n      pop\n      jump\t// out\n        /* \"#utility.yul\":8079:9050   */\n    tag_49:\n        /* \"#utility.yul\":8182:8188   */\n      0x00\n        /* \"#utility.yul\":8190:8196   */\n      0x00\n        /* \"#utility.yul\":8198:8204   */\n      0x00\n        /* \"#utility.yul\":8206:8212   */\n      0x00\n        /* \"#utility.yul\":8214:8220   */\n      0x00\n        /* \"#utility.yul\":8263:8266   */\n      0xa0\n        /* \"#utility.yul\":8251:8260   */\n      dup7\n        /* \"#utility.yul\":8242:8249   */\n      dup9\n        /* \"#utility.yul\":8238:8261   */\n      sub\n        /* \"#utility.yul\":8234:8267   */\n      slt\n        /* \"#utility.yul\":8231:8351   */\n      iszero\n      tag_163\n      jumpi\n        /* \"#utility.yul\":8270:8349   */\n      tag_164\n      tag_57\n      jump\t// in\n    tag_164:\n        /* \"#utility.yul\":8231:8351   */\n    tag_163:\n        /* \"#utility.yul\":8390:8391   */\n      0x00\n        /* \"#utility.yul\":8415:8478   */\n      tag_165\n        /* \"#utility.yul\":8470:8477   */\n      dup9\n        /* \"#utility.yul\":8461:8467   */\n      dup3\n        /* \"#utility.yul\":8450:8459   */\n      dup10\n        /* \"#utility.yul\":8446:8468   */\n      add\n        /* \"#utility.yul\":8415:8478   */\n      tag_81\n      jump\t// in\n    tag_165:\n        /* \"#utility.yul\":8405:8478   */\n      swap6\n      pop\n        /* \"#utility.yul\":8361:8488   */\n      pop\n        /* \"#utility.yul\":8527:8529   */\n      0x20\n        /* \"#utility.yul\":8553:8616   */\n      tag_166\n        /* \"#utility.yul\":8608:8615   */\n      dup9\n        /* \"#utility.yul\":8599:8605   */\n      dup3\n        /* \"#utility.yul\":8588:8597   */\n      dup10\n        /* \"#utility.yul\":8584:8606   */\n      add\n        /* \"#utility.yul\":8553:8616   */\n      tag_83\n      jump\t// in\n    tag_166:\n        /* \"#utility.yul\":8543:8616   */\n      swap5\n      pop\n        /* \"#utility.yul\":8498:8626   */\n      pop\n        /* \"#utility.yul\":8665:8667   */\n      0x40\n        /* \"#utility.yul\":8691:8755   */\n      tag_167\n        /* \"#utility.yul\":8747:8754   */\n      dup9\n        /* \"#utility.yul\":8738:8744   */\n      dup3\n        /* \"#utility.yul\":8727:8736   */\n      dup10\n        /* \"#utility.yul\":8723:8745   */\n      add\n        /* \"#utility.yul\":8691:8755   */\n      tag_85\n      jump\t// in\n    tag_167:\n        /* \"#utility.yul\":8681:8755   */\n      swap4\n      pop\n        /* \"#utility.yul\":8636:8765   */\n      pop\n        /* \"#utility.yul\":8804:8806   */\n      0x60\n        /* \"#utility.yul\":8830:8894   */\n      tag_168\n        /* \"#utility.yul\":8886:8893   */\n      dup9\n        /* \"#utility.yul\":8877:8883   */\n      dup3\n        /* \"#utility.yul\":8866:8875   */\n      dup10\n        /* \"#utility.yul\":8862:8884   */\n      add\n        /* \"#utility.yul\":8830:8894   */\n      tag_85\n      jump\t// in\n    tag_168:\n        /* \"#utility.yul\":8820:8894   */\n      swap3\n      pop\n        /* \"#utility.yul\":8775:8904   */\n      pop\n        /* \"#utility.yul\":8943:8946   */\n      0x80\n        /* \"#utility.yul\":8970:9033   */\n      tag_169\n        /* \"#utility.yul\":9025:9032   */\n      dup9\n        /* \"#utility.yul\":9016:9022   */\n      dup3\n        /* \"#utility.yul\":9005:9014   */\n      dup10\n        /* \"#utility.yul\":9001:9023   */\n      add\n        /* \"#utility.yul\":8970:9033   */\n      tag_81\n      jump\t// in\n    tag_169:\n        /* \"#utility.yul\":8960:9033   */\n      swap2\n      pop\n        /* \"#utility.yul\":8914:9043   */\n      pop\n        /* \"#utility.yul\":8079:9050   */\n      swap3\n      swap6\n      pop\n      swap3\n      swap6\n      swap1\n      swap4\n      pop\n      jump\t// out\n        /* \"#utility.yul\":9056:9236   */\n    tag_86:\n        /* \"#utility.yul\":9104:9181   */\n      0x4e487b7100000000000000000000000000000000000000000000000000000000\n        /* \"#utility.yul\":9101:9102   */\n      0x00\n        /* \"#utility.yul\":9094:9182   */\n      mstore\n        /* \"#utility.yul\":9201:9205   */\n      0x11\n        /* \"#utility.yul\":9198:9199   */\n      0x04\n        /* \"#utility.yul\":9191:9206   */\n      mstore\n        /* \"#utility.yul\":9225:9229   */\n      0x24\n        /* \"#utility.yul\":9222:9223   */\n      0x00\n        /* \"#utility.yul\":9215:9230   */\n      revert\n        /* \"#utility.yul\":9242:9652   */\n    tag_53:\n        /* \"#utility.yul\":9282:9289   */\n      0x00\n        /* \"#utility.yul\":9305:9325   */\n      tag_172\n        /* \"#utility.yul\":9323:9324   */\n      dup3\n        /* \"#utility.yul\":9305:9325   */\n      tag_63\n      jump\t// in\n    tag_172:\n        /* \"#utility.yul\":9300:9325   */\n      swap2\n      pop\n        /* \"#utility.yul\":9339:9359   */\n      tag_173\n        /* \"#utility.yul\":9357:9358   */\n      dup4\n        /* \"#utility.yul\":9339:9359   */\n      tag_63\n      jump\t// in\n    tag_173:\n        /* \"#utility.yul\":9334:9359   */\n      swap3\n      pop\n        /* \"#utility.yul\":9394:9395   */\n      dup3\n        /* \"#utility.yul\":9391:9392   */\n      dup3\n        /* \"#utility.yul\":9387:9396   */\n      mul\n        /* \"#utility.yul\":9416:9446   */\n      tag_174\n        /* \"#utility.yul\":9434:9445   */\n      dup2\n        /* \"#utility.yul\":9416:9446   */\n      tag_63\n      jump\t// in\n    tag_174:\n        /* \"#utility.yul\":9405:9446   */\n      swap2\n      pop\n        /* \"#utility.yul\":9595:9596   */\n      dup3\n        /* \"#utility.yul\":9586:9593   */\n      dup3\n        /* \"#utility.yul\":9582:9597   */\n      div\n        /* \"#utility.yul\":9579:9580   */\n      dup5\n        /* \"#utility.yul\":9576:9598   */\n      eq\n        /* \"#utility.yul\":9556:9557   */\n      dup4\n        /* \"#utility.yul\":9549:9558   */\n      iszero\n        /* \"#utility.yul\":9529:9612   */\n      or\n        /* \"#utility.yul\":9506:9645   */\n      tag_175\n      jumpi\n        /* \"#utility.yul\":9625:9643   */\n      tag_176\n      tag_86\n      jump\t// in\n    tag_176:\n        /* \"#utility.yul\":9506:9645   */\n    tag_175:\n        /* \"#utility.yul\":9290:9652   */\n      pop\n        /* \"#utility.yul\":9242:9652   */\n      swap3\n      swap2\n      pop\n      pop\n      jump\t// out\n        /* \"#utility.yul\":9658:9838   */\n    tag_87:\n        /* \"#utility.yul\":9706:9783   */\n      0x4e487b7100000000000000000000000000000000000000000000000000000000\n        /* \"#utility.yul\":9703:9704   */\n      0x00\n        /* \"#utility.yul\":9696:9784   */\n      mstore\n        /* \"#utility.yul\":9803:9807   */\n      0x12\n        /* \"#utility.yul\":9800:9801   */\n      0x04\n        /* \"#utility.yul\":9793:9808   */\n      mstore\n        /* \"#utility.yul\":9827:9831   */\n      0x24\n        /* \"#utility.yul\":9824:9825   */\n      0x00\n        /* \"#utility.yul\":9817:9832   */\n      revert\n        /* \"#utility.yul\":9844:10029   */\n    tag_55:\n        /* \"#utility.yul\":9884:9885   */\n      0x00\n        /* \"#utility.yul\":9901:9921   */\n      tag_179\n        /* \"#utility.yul\":9919:9920   */\n      dup3\n        /* \"#utility.yul\":9901:9921   */\n      tag_63\n      jump\t// in\n    tag_179:\n        /* \"#utility.yul\":9896:9921   */\n      swap2\n      pop\n        /* \"#utility.yul\":9935:9955   */\n      tag_180\n        /* \"#utility.yul\":9953:9954   */\n      dup4\n        /* \"#utility.yul\":9935:9955   */\n      tag_63\n      jump\t// in\n    tag_180:\n        /* \"#utility.yul\":9930:9955   */\n      swap3\n      pop\n        /* \"#utility.yul\":9974:9975   */\n      dup3\n        /* \"#utility.yul\":9964:9999   */\n      tag_181\n      jumpi\n        /* \"#utility.yul\":9979:9997   */\n      tag_182\n      tag_87\n      jump\t// in\n    tag_182:\n        /* \"#utility.yul\":9964:9999   */\n    tag_181:\n        /* \"#utility.yul\":10021:10022   */\n      dup3\n        /* \"#utility.yul\":10018:10019   */\n      dup3\n        /* \"#utility.yul\":10014:10023   */\n      div\n        /* \"#utility.yul\":10009:10023   */\n      swap1\n      pop\n        /* \"#utility.yul\":9844:10029   */\n      swap3\n      swap2\n      pop\n      pop\n      jump\t// out\n\n    auxdata: 0xa264697066735822122031d4456f748dedfa6bbf5d87a2ad64c44e9e0b439c874013b87bb9d70899b88064736f6c634300081f0033\n}\n",
				"bytecode": {
					"linkReferences": {},
					"object": "6080604052348015600e575f5ffd5b503360015f6101000a81548173ffffffffffffffffffffffffffffffffffffffff021916908373ffffffffffffffffffffffffffffffffffffffff16021790555073694aa1769357215de4fac081bf1f309adc32530660025f6101000a81548173ffffffffffffffffffffffffffffffffffffffff021916908373ffffffffffffffffffffffffffffffffffffffff1602179055506108b4806100b05f395ff3fe60806040526004361061003e575f3560e01c80634407e1e8146100425780638edd6eb61461007e578063b60d428814610094578063bea4dfb51461009e575b5f5ffd5b34801561004d575f5ffd5b506100686004803603810190610063919061042b565b6100c8565b604051610075919061046e565b60405180910390f35b348015610089575f5ffd5b506100926100dc565b005b61009c61026a565b005b3480156100a9575f5ffd5b506100b2610301565b6040516100bf919061049f565b60405180910390f35b5f602052805f5260405f205f915090505481565b3373ffffffffffffffffffffffffffffffffffffffff1660015f9054906101000a900473ffffffffffffffffffffffffffffffffffffffff1673ffffffffffffffffffffffffffffffffffffffff161461016b576040517f08c379a000000000000000000000000000000000000000000000000000000000815260040161016290610512565b60405180910390fd5b683635c9adc5dea0000061017e4761039e565b10156101bf576040517f08c379a00000000000000000000000000000000000000000000000000000000081526004016101b69061057a565b60405180910390fd5b5f3373ffffffffffffffffffffffffffffffffffffffff16476040516101e4906105c5565b5f6040518083038185875af1925050503d805f811461021e576040519150601f19603f3d011682016040523d82523d5f602084013e610223565b606091505b5050905080610267576040517f08c379a000000000000000000000000000000000000000000000000000000000815260040161025e90610623565b60405180910390fd5b50565b68056bc75e2d6310000061027d3461039e565b10156102be576040517f08c379a00000000000000000000000000000000000000000000000000000000081526004016102b59061068b565b60405180910390fd5b345f5f3373ffffffffffffffffffffffffffffffffffffffff1673ffffffffffffffffffffffffffffffffffffffff1681526020019081526020015f2081905550565b5f5f60025f9054906101000a900473ffffffffffffffffffffffffffffffffffffffff1673ffffffffffffffffffffffffffffffffffffffff1663feaf968c6040518163ffffffff1660e01b815260040160a060405180830381865afa15801561036d573d5f5f3e3d5ffd5b505050506040513d601f19601f82011682018060405250810190610391919061073c565b5050509150508091505090565b5f5f6103a8610301565b90506305f5e10081846103bb91906107e0565b6103c5919061084e565b915050919050565b5f5ffd5b5f73ffffffffffffffffffffffffffffffffffffffff82169050919050565b5f6103fa826103d1565b9050919050565b61040a816103f0565b8114610414575f5ffd5b50565b5f8135905061042581610401565b92915050565b5f602082840312156104405761043f6103cd565b5b5f61044d84828501610417565b91505092915050565b5f819050919050565b61046881610456565b82525050565b5f6020820190506104815f83018461045f565b92915050565b5f819050919050565b61049981610487565b82525050565b5f6020820190506104b25f830184610490565b92915050565b5f82825260208201905092915050565b7f6d7573742062652061646d696e000000000000000000000000000000000000005f82015250565b5f6104fc600d836104b8565b9150610507826104c8565b602082019050919050565b5f6020820190508181035f830152610529816104f0565b9050919050565b7f546172676574206973206e6f74207265616368656400000000000000000000005f82015250565b5f6105646015836104b8565b915061056f82610530565b602082019050919050565b5f6020820190508181035f83015261059181610558565b9050919050565b5f81905092915050565b50565b5f6105b05f83610598565b91506105bb826105a2565b5f82019050919050565b5f6105cf826105a5565b9150819050919050565b7f43616c6c206661696c65640000000000000000000000000000000000000000005f82015250565b5f61060d600b836104b8565b9150610618826105d9565b602082019050919050565b5f6020820190508181035f83015261063a81610601565b9050919050565b7f53656e64206d6f726520555344000000000000000000000000000000000000005f82015250565b5f610675600d836104b8565b915061068082610641565b602082019050919050565b5f6020820190508181035f8301526106a281610669565b9050919050565b5f69ffffffffffffffffffff82169050919050565b6106c7816106a9565b81146106d1575f5ffd5b50565b5f815190506106e2816106be565b92915050565b6106f181610487565b81146106fb575f5ffd5b50565b5f8151905061070c816106e8565b92915050565b61071b81610456565b8114610725575f5ffd5b50565b5f8151905061073681610712565b92915050565b5f5f5f5f5f60a08688031215610755576107546103cd565b5b5f610762888289016106d4565b9550506020610773888289016106fe565b945050604061078488828901610728565b935050606061079588828901610728565b92505060806107a6888289016106d4565b9150509295509295909350565b7f4e487b71000000000000000000000000000000000000000000000000000000005f52601160045260245ffd5b5f6107ea82610456565b91506107f583610456565b925082820261080381610456565b9150828204841483151761081a576108196107b3565b5b5092915050565b7f4e487b71000000000000000000000000000000000000000000000000000000005f52601260045260245ffd5b5f61085882610456565b915061086383610456565b92508261087357610872610821565b5b82820490509291505056fea264697066735822122031d4456f748dedfa6bbf5d87a2ad64c44e9e0b439c874013b87bb9d70899b88064736f6c634300081f0033",
					"opcodes": "PUSH1 0x80 PUSH1 0x40 MSTORE CALLVALUE DUP1 ISZERO PUSH1 0xE JUMPI PUSH0 PUSH0 REVERT JUMPDEST POP CALLER PUSH1 0x1 PUSH0 PUSH2 0x100 EXP DUP2 SLOAD DUP2 PUSH20 0xFFFFFFFFFFFFFFFFFFFFFFFFFFFFFFFFFFFFFFFF MUL NOT AND SWAP1 DUP4 PUSH20 0xFFFFFFFFFFFFFFFFFFFFFFFFFFFFFFFFFFFFFFFF AND MUL OR SWAP1 SSTORE POP PUSH20 0x694AA1769357215DE4FAC081BF1F309ADC325306 PUSH1 0x2 PUSH0 PUSH2 0x100 EXP DUP2 SLOAD DUP2 PUSH20 0xFFFFFFFFFFFFFFFFFFFFFFFFFFFFFFFFFFFFFFFF MUL NOT AND SWAP1 DUP4 PUSH20 0xFFFFFFFFFFFFFFFFFFFFFFFFFFFFFFFFFFFFFFFF AND MUL OR SWAP1 SSTORE POP PUSH2 0x8B4 DUP1 PUSH2 0xB0 PUSH0 CODECOPY PUSH0 RETURN INVALID PUSH1 0x80 PUSH1 0x40 MSTORE PUSH1 0x4 CALLDATASIZE LT PUSH2 0x3E JUMPI PUSH0 CALLDATALOAD PUSH1 0xE0 SHR DUP1 PUSH4 0x4407E1E8 EQ PUSH2 0x42 JUMPI DUP1 PUSH4 0x8EDD6EB6 EQ PUSH2 0x7E JUMPI DUP1 PUSH4 0xB60D4288 EQ PUSH2 0x94 JUMPI DUP1 PUSH4 0xBEA4DFB5 EQ PUSH2 0x9E JUMPI JUMPDEST PUSH0 PUSH0 REVERT JUMPDEST CALLVALUE DUP1 ISZERO PUSH2 0x4D JUMPI PUSH0 PUSH0 REVERT JUMPDEST POP PUSH2 0x68 PUSH1 0x4 DUP1 CALLDATASIZE SUB DUP2 ADD SWAP1 PUSH2 0x63 SWAP2 SWAP1 PUSH2 0x42B JUMP JUMPDEST PUSH2 0xC8 JUMP JUMPDEST PUSH1 0x40 MLOAD PUSH2 0x75 SWAP2 SWAP1 PUSH2 0x46E JUMP JUMPDEST PUSH1 0x40 MLOAD DUP1 SWAP2 SUB SWAP1 RETURN JUMPDEST CALLVALUE DUP1 ISZERO PUSH2 0x89 JUMPI PUSH0 PUSH0 REVERT JUMPDEST POP PUSH2 0x92 PUSH2 0xDC JUMP JUMPDEST STOP JUMPDEST PUSH2 0x9C PUSH2 0x26A JUMP JUMPDEST STOP JUMPDEST CALLVALUE DUP1 ISZERO PUSH2 0xA9 JUMPI PUSH0 PUSH0 REVERT JUMPDEST POP PUSH2 0xB2 PUSH2 0x301 JUMP JUMPDEST PUSH1 0x40 MLOAD PUSH2 0xBF SWAP2 SWAP1 PUSH2 0x49F JUMP JUMPDEST PUSH1 0x40 MLOAD DUP1 SWAP2 SUB SWAP1 RETURN JUMPDEST PUSH0 PUSH1 0x20 MSTORE DUP1 PUSH0 MSTORE PUSH1 0x40 PUSH0 KECCAK256 PUSH0 SWAP2 POP SWAP1 POP SLOAD DUP2 JUMP JUMPDEST CALLER PUSH20 0xFFFFFFFFFFFFFFFFFFFFFFFFFFFFFFFFFFFFFFFF AND PUSH1 0x1 PUSH0 SWAP1 SLOAD SWAP1 PUSH2 0x100 EXP SWAP1 DIV PUSH20 0xFFFFFFFFFFFFFFFFFFFFFFFFFFFFFFFFFFFFFFFF AND PUSH20 0xFFFFFFFFFFFFFFFFFFFFFFFFFFFFFFFFFFFFFFFF AND EQ PUSH2 0x16B JUMPI PUSH1 0x40 MLOAD PUSH32 0x8C379A000000000000000000000000000000000000000000000000000000000 DUP2 MSTORE PUSH1 0x4 ADD PUSH2 0x162 SWAP1 PUSH2 0x512 JUMP JUMPDEST PUSH1 0x40 MLOAD DUP1 SWAP2 SUB SWAP1 REVERT JUMPDEST PUSH9 0x3635C9ADC5DEA00000 PUSH2 0x17E SELFBALANCE PUSH2 0x39E JUMP JUMPDEST LT ISZERO PUSH2 0x1BF JUMPI PUSH1 0x40 MLOAD PUSH32 0x8C379A000000000000000000000000000000000000000000000000000000000 DUP2 MSTORE PUSH1 0x4 ADD PUSH2 0x1B6 SWAP1 PUSH2 0x57A JUMP JUMPDEST PUSH1 0x40 MLOAD DUP1 SWAP2 SUB SWAP1 REVERT JUMPDEST PUSH0 CALLER PUSH20 0xFFFFFFFFFFFFFFFFFFFFFFFFFFFFFFFFFFFFFFFF AND SELFBALANCE PUSH1 0x40 MLOAD PUSH2 0x1E4 SWAP1 PUSH2 0x5C5 JUMP JUMPDEST PUSH0 PUSH1 0x40 MLOAD DUP1 DUP4 SUB DUP2 DUP6 DUP8 GAS CALL SWAP3 POP POP POP RETURNDATASIZE DUP1 PUSH0 DUP2 EQ PUSH2 0x21E JUMPI PUSH1 0x40 MLOAD SWAP2 POP PUSH1 0x1F NOT PUSH1 0x3F RETURNDATASIZE ADD AND DUP3 ADD PUSH1 0x40 MSTORE RETURNDATASIZE DUP3 MSTORE RETURNDATASIZE PUSH0 PUSH1 0x20 DUP5 ADD RETURNDATACOPY PUSH2 0x223 JUMP JUMPDEST PUSH1 0x60 SWAP2 POP JUMPDEST POP POP SWAP1 POP DUP1 PUSH2 0x267 JUMPI PUSH1 0x40 MLOAD PUSH32 0x8C379A000000000000000000000000000000000000000000000000000000000 DUP2 MSTORE PUSH1 0x4 ADD PUSH2 0x25E SWAP1 PUSH2 0x623 JUMP JUMPDEST PUSH1 0x40 MLOAD DUP1 SWAP2 SUB SWAP1 REVERT JUMPDEST POP JUMP JUMPDEST PUSH9 0x56BC75E2D63100000 PUSH2 0x27D CALLVALUE PUSH2 0x39E JUMP JUMPDEST LT ISZERO PUSH2 0x2BE JUMPI PUSH1 0x40 MLOAD PUSH32 0x8C379A000000000000000000000000000000000000000000000000000000000 DUP2 MSTORE PUSH1 0x4 ADD PUSH2 0x2B5 SWAP1 PUSH2 0x68B JUMP JUMPDEST PUSH1 0x40 MLOAD DUP1 SWAP2 SUB SWAP1 REVERT JUMPDEST CALLVALUE PUSH0 PUSH0 CALLER PUSH20 0xFFFFFFFFFFFFFFFFFFFFFFFFFFFFFFFFFFFFFFFF AND PUSH20 0xFFFFFFFFFFFFFFFFFFFFFFFFFFFFFFFFFFFFFFFF AND DUP2 MSTORE PUSH1 0x20 ADD SWAP1 DUP2 MSTORE PUSH1 0x20 ADD PUSH0 KECCAK256 DUP2 SWAP1 SSTORE POP JUMP JUMPDEST PUSH0 PUSH0 PUSH1 0x2 PUSH0 SWAP1 SLOAD SWAP1 PUSH2 0x100 EXP SWAP1 DIV PUSH20 0xFFFFFFFFFFFFFFFFFFFFFFFFFFFFFFFFFFFFFFFF AND PUSH20 0xFFFFFFFFFFFFFFFFFFFFFFFFFFFFFFFFFFFFFFFF AND PUSH4 0xFEAF968C PUSH1 0x40 MLOAD DUP2 PUSH4 0xFFFFFFFF AND PUSH1 0xE0 SHL DUP2 MSTORE PUSH1 0x4 ADD PUSH1 0xA0 PUSH1 0x40 MLOAD DUP1 DUP4 SUB DUP2 DUP7 GAS STATICCALL ISZERO DUP1 ISZERO PUSH2 0x36D JUMPI RETURNDATASIZE PUSH0 PUSH0 RETURNDATACOPY RETURNDATASIZE PUSH0 REVERT JUMPDEST POP POP POP POP PUSH1 0x40 MLOAD RETURNDATASIZE PUSH1 0x1F NOT PUSH1 0x1F DUP3 ADD AND DUP3 ADD DUP1 PUSH1 0x40 MSTORE POP DUP2 ADD SWAP1 PUSH2 0x391 SWAP2 SWAP1 PUSH2 0x73C JUMP JUMPDEST POP POP POP SWAP2 POP POP DUP1 SWAP2 POP POP SWAP1 JUMP JUMPDEST PUSH0 PUSH0 PUSH2 0x3A8 PUSH2 0x301 JUMP JUMPDEST SWAP1 POP PUSH4 0x5F5E100 DUP2 DUP5 PUSH2 0x3BB SWAP2 SWAP1 PUSH2 0x7E0 JUMP JUMPDEST PUSH2 0x3C5 SWAP2 SWAP1 PUSH2 0x84E JUMP JUMPDEST SWAP2 POP POP SWAP2 SWAP1 POP JUMP JUMPDEST PUSH0 PUSH0 REVERT JUMPDEST PUSH0 PUSH20 0xFFFFFFFFFFFFFFFFFFFFFFFFFFFFFFFFFFFFFFFF DUP3 AND SWAP1 POP SWAP2 SWAP1 POP JUMP JUMPDEST PUSH0 PUSH2 0x3FA DUP3 PUSH2 0x3D1 JUMP JUMPDEST SWAP1 POP SWAP2 SWAP1 POP JUMP JUMPDEST PUSH2 0x40A DUP2 PUSH2 0x3F0 JUMP JUMPDEST DUP2 EQ PUSH2 0x414 JUMPI PUSH0 PUSH0 REVERT JUMPDEST POP JUMP JUMPDEST PUSH0 DUP2 CALLDATALOAD SWAP1 POP PUSH2 0x425 DUP2 PUSH2 0x401 JUMP JUMPDEST SWAP3 SWAP2 POP POP JUMP JUMPDEST PUSH0 PUSH1 0x20 DUP3 DUP5 SUB SLT ISZERO PUSH2 0x440 JUMPI PUSH2 0x43F PUSH2 0x3CD JUMP JUMPDEST JUMPDEST PUSH0 PUSH2 0x44D DUP5 DUP3 DUP6 ADD PUSH2 0x417 JUMP JUMPDEST SWAP2 POP POP SWAP3 SWAP2 POP POP JUMP JUMPDEST PUSH0 DUP2 SWAP1 POP SWAP2 SWAP1 POP JUMP JUMPDEST PUSH2 0x468 DUP2 PUSH2 0x456 JUMP JUMPDEST DUP3 MSTORE POP POP JUMP JUMPDEST PUSH0 PUSH1 0x20 DUP3 ADD SWAP1 POP PUSH2 0x481 PUSH0 DUP4 ADD DUP5 PUSH2 0x45F JUMP JUMPDEST SWAP3 SWAP2 POP POP JUMP JUMPDEST PUSH0 DUP2 SWAP1 POP SWAP2 SWAP1 POP JUMP JUMPDEST PUSH2 0x499 DUP2 PUSH2 0x487 JUMP JUMPDEST DUP3 MSTORE POP POP JUMP JUMPDEST PUSH0 PUSH1 0x20 DUP3 ADD SWAP1 POP PUSH2 0x4B2 PUSH0 DUP4 ADD DUP5 PUSH2 0x490 JUMP JUMPDEST SWAP3 SWAP2 POP POP JUMP JUMPDEST PUSH0 DUP3 DUP3 MSTORE PUSH1 0x20 DUP3 ADD SWAP1 POP SWAP3 SWAP2 POP POP JUMP JUMPDEST PUSH32 0x6D7573742062652061646D696E00000000000000000000000000000000000000 PUSH0 DUP3 ADD MSTORE POP JUMP JUMPDEST PUSH0 PUSH2 0x4FC PUSH1 0xD DUP4 PUSH2 0x4B8 JUMP JUMPDEST SWAP2 POP PUSH2 0x507 DUP3 PUSH2 0x4C8 JUMP JUMPDEST PUSH1 0x20 DUP3 ADD SWAP1 POP SWAP2 SWAP1 POP JUMP JUMPDEST PUSH0 PUSH1 0x20 DUP3 ADD SWAP1 POP DUP2 DUP2 SUB PUSH0 DUP4 ADD MSTORE PUSH2 0x529 DUP2 PUSH2 0x4F0 JUMP JUMPDEST SWAP1 POP SWAP2 SWAP1 POP JUMP JUMPDEST PUSH32 0x546172676574206973206E6F7420726561636865640000000000000000000000 PUSH0 DUP3 ADD MSTORE POP JUMP JUMPDEST PUSH0 PUSH2 0x564 PUSH1 0x15 DUP4 PUSH2 0x4B8 JUMP JUMPDEST SWAP2 POP PUSH2 0x56F DUP3 PUSH2 0x530 JUMP JUMPDEST PUSH1 0x20 DUP3 ADD SWAP1 POP SWAP2 SWAP1 POP JUMP JUMPDEST PUSH0 PUSH1 0x20 DUP3 ADD SWAP1 POP DUP2 DUP2 SUB PUSH0 DUP4 ADD MSTORE PUSH2 0x591 DUP2 PUSH2 0x558 JUMP JUMPDEST SWAP1 POP SWAP2 SWAP1 POP JUMP JUMPDEST PUSH0 DUP2 SWAP1 POP SWAP3 SWAP2 POP POP JUMP JUMPDEST POP JUMP JUMPDEST PUSH0 PUSH2 0x5B0 PUSH0 DUP4 PUSH2 0x598 JUMP JUMPDEST SWAP2 POP PUSH2 0x5BB DUP3 PUSH2 0x5A2 JUMP JUMPDEST PUSH0 DUP3 ADD SWAP1 POP SWAP2 SWAP1 POP JUMP JUMPDEST PUSH0 PUSH2 0x5CF DUP3 PUSH2 0x5A5 JUMP JUMPDEST SWAP2 POP DUP2 SWAP1 POP SWAP2 SWAP1 POP JUMP JUMPDEST PUSH32 0x43616C6C206661696C6564000000000000000000000000000000000000000000 PUSH0 DUP3 ADD MSTORE POP JUMP JUMPDEST PUSH0 PUSH2 0x60D PUSH1 0xB DUP4 PUSH2 0x4B8 JUMP JUMPDEST SWAP2 POP PUSH2 0x618 DUP3 PUSH2 0x5D9 JUMP JUMPDEST PUSH1 0x20 DUP3 ADD SWAP1 POP SWAP2 SWAP1 POP JUMP JUMPDEST PUSH0 PUSH1 0x20 DUP3 ADD SWAP1 POP DUP2 DUP2 SUB PUSH0 DUP4 ADD MSTORE PUSH2 0x63A DUP2 PUSH2 0x601 JUMP JUMPDEST SWAP1 POP SWAP2 SWAP1 POP JUMP JUMPDEST PUSH32 0x53656E64206D6F72652055534400000000000000000000000000000000000000 PUSH0 DUP3 ADD MSTORE POP JUMP JUMPDEST PUSH0 PUSH2 0x675 PUSH1 0xD DUP4 PUSH2 0x4B8 JUMP JUMPDEST SWAP2 POP PUSH2 0x680 DUP3 PUSH2 0x641 JUMP JUMPDEST PUSH1 0x20 DUP3 ADD SWAP1 POP SWAP2 SWAP1 POP JUMP JUMPDEST PUSH0 PUSH1 0x20 DUP3 ADD SWAP1 POP DUP2 DUP2 SUB PUSH0 DUP4 ADD MSTORE PUSH2 0x6A2 DUP2 PUSH2 0x669 JUMP JUMPDEST SWAP1 POP SWAP2 SWAP1 POP JUMP JUMPDEST PUSH0 PUSH10 0xFFFFFFFFFFFFFFFFFFFF DUP3 AND SWAP1 POP SWAP2 SWAP1 POP JUMP JUMPDEST PUSH2 0x6C7 DUP2 PUSH2 0x6A9 JUMP JUMPDEST DUP2 EQ PUSH2 0x6D1 JUMPI PUSH0 PUSH0 REVERT JUMPDEST POP JUMP JUMPDEST PUSH0 DUP2 MLOAD SWAP1 POP PUSH2 0x6E2 DUP2 PUSH2 0x6BE JUMP JUMPDEST SWAP3 SWAP2 POP POP JUMP JUMPDEST PUSH2 0x6F1 DUP2 PUSH2 0x487 JUMP JUMPDEST DUP2 EQ PUSH2 0x6FB JUMPI PUSH0 PUSH0 REVERT JUMPDEST POP JUMP JUMPDEST PUSH0 DUP2 MLOAD SWAP1 POP PUSH2 0x70C DUP2 PUSH2 0x6E8 JUMP JUMPDEST SWAP3 SWAP2 POP POP JUMP JUMPDEST PUSH2 0x71B DUP2 PUSH2 0x456 JUMP JUMPDEST DUP2 EQ PUSH2 0x725 JUMPI PUSH0 PUSH0 REVERT JUMPDEST POP JUMP JUMPDEST PUSH0 DUP2 MLOAD SWAP1 POP PUSH2 0x736 DUP2 PUSH2 0x712 JUMP JUMPDEST SWAP3 SWAP2 POP POP JUMP JUMPDEST PUSH0 PUSH0 PUSH0 PUSH0 PUSH0 PUSH1 0xA0 DUP7 DUP9 SUB SLT ISZERO PUSH2 0x755 JUMPI PUSH2 0x754 PUSH2 0x3CD JUMP JUMPDEST JUMPDEST PUSH0 PUSH2 0x762 DUP9 DUP3 DUP10 ADD PUSH2 0x6D4 JUMP JUMPDEST SWAP6 POP POP PUSH1 0x20 PUSH2 0x773 DUP9 DUP3 DUP10 ADD PUSH2 0x6FE JUMP JUMPDEST SWAP5 POP POP PUSH1 0x40 PUSH2 0x784 DUP9 DUP3 DUP10 ADD PUSH2 0x728 JUMP JUMPDEST SWAP4 POP POP PUSH1 0x60 PUSH2 0x795 DUP9 DUP3 DUP10 ADD PUSH2 0x728 JUMP JUMPDEST SWAP3 POP POP PUSH1 0x80 PUSH2 0x7A6 DUP9 DUP3 DUP10 ADD PUSH2 0x6D4 JUMP JUMPDEST SWAP2 POP POP SWAP3 SWAP6 POP SWAP3 SWAP6 SWAP1 SWAP4 POP JUMP JUMPDEST PUSH32 0x4E487B7100000000000000000000000000000000000000000000000000000000 PUSH0 MSTORE PUSH1 0x11 PUSH1 0x4 MSTORE PUSH1 0x24 PUSH0 REVERT JUMPDEST PUSH0 PUSH2 0x7EA DUP3 PUSH2 0x456 JUMP JUMPDEST SWAP2 POP PUSH2 0x7F5 DUP4 PUSH2 0x456 JUMP JUMPDEST SWAP3 POP DUP3 DUP3 MUL PUSH2 0x803 DUP2 PUSH2 0x456 JUMP JUMPDEST SWAP2 POP DUP3 DUP3 DIV DUP5 EQ DUP4 ISZERO OR PUSH2 0x81A JUMPI PUSH2 0x819 PUSH2 0x7B3 JUMP JUMPDEST JUMPDEST POP SWAP3 SWAP2 POP POP JUMP JUMPDEST PUSH32 0x4E487B7100000000000000000000000000000000000000000000000000000000 PUSH0 MSTORE PUSH1 0x12 PUSH1 0x4 MSTORE PUSH1 0x24 PUSH0 REVERT JUMPDEST PUSH0 PUSH2 0x858 DUP3 PUSH2 0x456 JUMP JUMPDEST SWAP2 POP PUSH2 0x863 DUP4 PUSH2 0x456 JUMP JUMPDEST SWAP3 POP DUP3 PUSH2 0x873 JUMPI PUSH2 0x872 PUSH2 0x821 JUMP JUMPDEST JUMPDEST DUP3 DUP3 DIV SWAP1 POP SWAP3 SWAP2 POP POP JUMP INVALID LOG2 PUSH5 0x6970667358 0x22 SLT KECCAK256 BALANCE 0xD4 GASLIMIT PUSH16 0x748DEDFA6BBF5D87A2AD64C44E9E0B43 SWAP13 DUP8 BLOCKHASH SGT 0xB8 PUSH28 0xB9D70899B88064736F6C634300081F00330000000000000000000000 "
				},
				"gasEstimates": {
					"creation": {
						"codeDepositCost": "445600",
						"executionCost": "49009",
						"totalCost": "494609"
					},
					"external": {
						"fund()": "infinite",
						"funderToAmount(address)": "2779",
						"getChainlinkDataFeedLatestAnswer()": "infinite",
						"getFund()": "infinite"
					},
					"internal": {
						"converETHToUSD(uint256)": "infinite"
					}
				},
				"methodIdentifiers": {
					"fund()": "b60d4288",
					"funderToAmount(address)": "4407e1e8",
					"getChainlinkDataFeedLatestAnswer()": "bea4dfb5",
					"getFund()": "8edd6eb6"
				}
			},
			"storageLayout": {
				"storage": [
					{
						"astId": 53,
						"contract": "contracts/chainLinkStu/FundMe.sol:FundMe",
						"label": "funderToAmount",
						"offset": 0,
						"slot": "0",
						"type": "t_mapping(t_address,t_uint256)"
					},
					{
						"astId": 69,
						"contract": "contracts/chainLinkStu/FundMe.sol:FundMe",
						"label": "owner",
						"offset": 0,
						"slot": "1",
						"type": "t_address"
					},
					{
						"astId": 72,
						"contract": "contracts/chainLinkStu/FundMe.sol:FundMe",
						"label": "dataFeed",
						"offset": 0,
						"slot": "2",
						"type": "t_contract(AggregatorV3Interface)45"
					}
				],
				"types": {
					"t_address": {
						"encoding": "inplace",
						"label": "address",
						"numberOfBytes": "20"
					},
					"t_contract(AggregatorV3Interface)45": {
						"encoding": "inplace",
						"label": "contract AggregatorV3Interface",
						"numberOfBytes": "20"
					},
					"t_mapping(t_address,t_uint256)": {
						"encoding": "mapping",
						"key": "t_address",
						"label": "mapping(address => uint256)",
						"numberOfBytes": "32",
						"value": "t_uint256"
					},
					"t_uint256": {
						"encoding": "inplace",
						"label": "uint256",
						"numberOfBytes": "32"
					}
				}
			},
			"userdoc": {
				"kind": "user",
				"methods": {},
				"version": 1
			}
		}
	}
}