{
	"contracts/homework/07 PamentContract.sol": {
		"PaymentContract": {
			"abi": [
				{
					"inputs": [],
					"stateMutability": "nonpayable",
					"type": "constructor"
				},
				{
					"inputs": [],
					"name": "MIN_DEPOSIT",
					"outputs": [
						{
							"internalType": "uint256",
							"name": "",
							"type": "uint256"
						}
					],
					"stateMutability": "view",
					"type": "function"
				},
				{
					"inputs": [
						{
							"internalType": "address",
							"name": "",
							"type": "address"
						}
					],
					"name": "balances",
					"outputs": [
						{
							"internalType": "uint256",
							"name": "",
							"type": "uint256"
						}
					],
					"stateMutability": "view",
					"type": "function"
				},
				{
					"inputs": [],
					"name": "deposit",
					"outputs": [],
					"stateMutability": "payable",
					"type": "function"
				},
				{
					"inputs": [],
					"name": "getBalance",
					"outputs": [
						{
							"internalType": "uint256",
							"name": "",
							"type": "uint256"
						}
					],
					"stateMutability": "view",
					"type": "function"
				},
				{
					"inputs": [],
					"name": "owner",
					"outputs": [
						{
							"internalType": "address",
							"name": "",
							"type": "address"
						}
					],
					"stateMutability": "view",
					"type": "function"
				},
				{
					"inputs": [],
					"name": "pause",
					"outputs": [],
					"stateMutability": "nonpayable",
					"type": "function"
				},
				{
					"inputs": [],
					"name": "paused",
					"outputs": [
						{
							"internalType": "bool",
							"name": "",
							"type": "bool"
						}
					],
					"stateMutability": "view",
					"type": "function"
				},
				{
					"inputs": [],
					"name": "start",
					"outputs": [],
					"stateMutability": "nonpayable",
					"type": "function"
				},
				{
					"inputs": [
						{
							"internalType": "uint256",
							"name": "_amount",
							"type": "uint256"
						}
					],
					"name": "withdraw",
					"outputs": [],
					"stateMutability": "nonpayable",
					"type": "function"
				}
			],
			"devdoc": {
				"kind": "dev",
				"methods": {},
				"version": 1
			},
			"evm": {
				"assembly": "    /* \"contracts/homework/07 PamentContract.sol\":60:1464  contract PaymentContract {... */\n  mstore(0x40, 0x80)\n    /* \"contracts/homework/07 PamentContract.sol\":140:145  false */\n  0x00\n    /* \"contracts/homework/07 PamentContract.sol\":119:145  bool public paused = false */\n  0x00\n  exp(0x0100, 0x14)\n  dup2\n  sload\n  dup2\n  0xff\n  mul\n  not\n  and\n  swap1\n  dup4\n  iszero\n  iszero\n  mul\n  or\n  swap1\n  sstore\n  pop\n    /* \"contracts/homework/07 PamentContract.sol\":259:309  constructor(){... */\n  callvalue\n  dup1\n  iszero\n  tag_1\n  jumpi\n  revert(0x00, 0x00)\ntag_1:\n  pop\n    /* \"contracts/homework/07 PamentContract.sol\":291:301  msg.sender */\n  caller\n    /* \"contracts/homework/07 PamentContract.sol\":283:288  owner */\n  0x00\n  0x00\n    /* \"contracts/homework/07 PamentContract.sol\":283:301  owner = msg.sender */\n  0x0100\n  exp\n  dup2\n  sload\n  dup2\n  0xffffffffffffffffffffffffffffffffffffffff\n  mul\n  not\n  and\n  swap1\n  dup4\n  0xffffffffffffffffffffffffffffffffffffffff\n  and\n  mul\n  or\n  swap1\n  sstore\n  pop\n    /* \"contracts/homework/07 PamentContract.sol\":60:1464  contract PaymentContract {... */\n  dataSize(sub_0)\n  dup1\n  dataOffset(sub_0)\n  0x00\n  codecopy\n  0x00\n  return\nstop\n\nsub_0: assembly {\n        /* \"contracts/homework/07 PamentContract.sol\":60:1464  contract PaymentContract {... */\n      mstore(0x40, 0x80)\n      jumpi(tag_1, lt(calldatasize, 0x04))\n      shr(0xe0, calldataload(0x00))\n      dup1\n      0x8456cb59\n      gt\n      tag_11\n      jumpi\n      dup1\n      0x8456cb59\n      eq\n      tag_6\n      jumpi\n      dup1\n      0x8da5cb5b\n      eq\n      tag_7\n      jumpi\n      dup1\n      0xbe9a6555\n      eq\n      tag_8\n      jumpi\n      dup1\n      0xd0e30db0\n      eq\n      tag_9\n      jumpi\n      dup1\n      0xe1e158a5\n      eq\n      tag_10\n      jumpi\n      jump(tag_1)\n    tag_11:\n      dup1\n      0x12065fe0\n      eq\n      tag_2\n      jumpi\n      dup1\n      0x27e235e3\n      eq\n      tag_3\n      jumpi\n      dup1\n      0x2e1a7d4d\n      eq\n      tag_4\n      jumpi\n      dup1\n      0x5c975abb\n      eq\n      tag_5\n      jumpi\n    tag_1:\n      revert(0x00, 0x00)\n        /* \"contracts/homework/07 PamentContract.sol\":1342:1461  function getBalance() public view isOwner whenNotPaused returns (uint256){... */\n    tag_2:\n      callvalue\n      dup1\n      iszero\n      tag_12\n      jumpi\n      revert(0x00, 0x00)\n    tag_12:\n      pop\n      tag_13\n      tag_14\n      jump\t// in\n    tag_13:\n      mload(0x40)\n      tag_15\n      swap2\n      swap1\n      tag_16\n      jump\t// in\n    tag_15:\n      mload(0x40)\n      dup1\n      swap2\n      sub\n      swap1\n      return\n        /* \"contracts/homework/07 PamentContract.sol\":152:195  mapping(address => uint256) public balances */\n    tag_3:\n      callvalue\n      dup1\n      iszero\n      tag_17\n      jumpi\n      revert(0x00, 0x00)\n    tag_17:\n      pop\n      tag_18\n      0x04\n      dup1\n      calldatasize\n      sub\n      dup2\n      add\n      swap1\n      tag_19\n      swap2\n      swap1\n      tag_20\n      jump\t// in\n    tag_19:\n      tag_21\n      jump\t// in\n    tag_18:\n      mload(0x40)\n      tag_22\n      swap2\n      swap1\n      tag_16\n      jump\t// in\n    tag_22:\n      mload(0x40)\n      dup1\n      swap2\n      sub\n      swap1\n      return\n        /* \"contracts/homework/07 PamentContract.sol\":799:1164  function withdraw(uint _amount) public isOwner whenNotPaused{... */\n    tag_4:\n      callvalue\n      dup1\n      iszero\n      tag_23\n      jumpi\n      revert(0x00, 0x00)\n    tag_23:\n      pop\n      tag_24\n      0x04\n      dup1\n      calldatasize\n      sub\n      dup2\n      add\n      swap1\n      tag_25\n      swap2\n      swap1\n      tag_26\n      jump\t// in\n    tag_25:\n      tag_27\n      jump\t// in\n    tag_24:\n      stop\n        /* \"contracts/homework/07 PamentContract.sol\":119:145  bool public paused = false */\n    tag_5:\n      callvalue\n      dup1\n      iszero\n      tag_28\n      jumpi\n      revert(0x00, 0x00)\n    tag_28:\n      pop\n      tag_29\n      tag_30\n      jump\t// in\n    tag_29:\n      mload(0x40)\n      tag_31\n      swap2\n      swap1\n      tag_32\n      jump\t// in\n    tag_31:\n      mload(0x40)\n      dup1\n      swap2\n      sub\n      swap1\n      return\n        /* \"contracts/homework/07 PamentContract.sol\":1172:1250  function pause()  public isOwner whenNotPaused{... */\n    tag_6:\n      callvalue\n      dup1\n      iszero\n      tag_33\n      jumpi\n      revert(0x00, 0x00)\n    tag_33:\n      pop\n      tag_34\n      tag_35\n      jump\t// in\n    tag_34:\n      stop\n        /* \"contracts/homework/07 PamentContract.sol\":92:112  address public owner */\n    tag_7:\n      callvalue\n      dup1\n      iszero\n      tag_36\n      jumpi\n      revert(0x00, 0x00)\n    tag_36:\n      pop\n      tag_37\n      tag_38\n      jump\t// in\n    tag_37:\n      mload(0x40)\n      tag_39\n      swap2\n      swap1\n      tag_40\n      jump\t// in\n    tag_39:\n      mload(0x40)\n      dup1\n      swap2\n      sub\n      swap1\n      return\n        /* \"contracts/homework/07 PamentContract.sol\":1258:1334  function start()  public isOwner whenPaused{... */\n    tag_8:\n      callvalue\n      dup1\n      iszero\n      tag_41\n      jumpi\n      revert(0x00, 0x00)\n    tag_41:\n      pop\n      tag_42\n      tag_43\n      jump\t// in\n    tag_42:\n      stop\n        /* \"contracts/homework/07 PamentContract.sol\":622:791  function deposit() public payable isOwner whenNotPaused{... */\n    tag_9:\n      tag_44\n      tag_45\n      jump\t// in\n    tag_44:\n      stop\n        /* \"contracts/homework/07 PamentContract.sol\":202:250  uint256 public constant MIN_DEPOSIT = 0.01 ether */\n    tag_10:\n      callvalue\n      dup1\n      iszero\n      tag_46\n      jumpi\n      revert(0x00, 0x00)\n    tag_46:\n      pop\n      tag_47\n      tag_48\n      jump\t// in\n    tag_47:\n      mload(0x40)\n      tag_49\n      swap2\n      swap1\n      tag_16\n      jump\t// in\n    tag_49:\n      mload(0x40)\n      dup1\n      swap2\n      sub\n      swap1\n      return\n        /* \"contracts/homework/07 PamentContract.sol\":1342:1461  function getBalance() public view isOwner whenNotPaused returns (uint256){... */\n    tag_14:\n        /* \"contracts/homework/07 PamentContract.sol\":1407:1414  uint256 */\n      0x00\n        /* \"contracts/homework/07 PamentContract.sol\":369:374  owner */\n      0x00\n      0x00\n      swap1\n      sload\n      swap1\n      0x0100\n      exp\n      swap1\n      div\n      0xffffffffffffffffffffffffffffffffffffffff\n      and\n        /* \"contracts/homework/07 PamentContract.sol\":355:374  msg.sender == owner */\n      0xffffffffffffffffffffffffffffffffffffffff\n      and\n        /* \"contracts/homework/07 PamentContract.sol\":355:365  msg.sender */\n      caller\n        /* \"contracts/homework/07 PamentContract.sol\":355:374  msg.sender == owner */\n      0xffffffffffffffffffffffffffffffffffffffff\n      and\n      eq\n        /* \"contracts/homework/07 PamentContract.sol\":347:388  require(msg.sender == owner, \"not owner\") */\n      tag_51\n      jumpi\n      mload(0x40)\n      0x08c379a000000000000000000000000000000000000000000000000000000000\n      dup2\n      mstore\n      0x04\n      add\n      tag_52\n      swap1\n      tag_53\n      jump\t// in\n    tag_52:\n      mload(0x40)\n      dup1\n      swap2\n      sub\n      swap1\n      revert\n    tag_51:\n        /* \"contracts/homework/07 PamentContract.sol\":460:466  paused */\n      0x00\n      0x14\n      swap1\n      sload\n      swap1\n      0x0100\n      exp\n      swap1\n      div\n      0xff\n      and\n        /* \"contracts/homework/07 PamentContract.sol\":459:466  !paused */\n      iszero\n        /* \"contracts/homework/07 PamentContract.sol\":451:489  require(!paused, \"contract is paused\") */\n      tag_55\n      jumpi\n      mload(0x40)\n      0x08c379a000000000000000000000000000000000000000000000000000000000\n      dup2\n      mstore\n      0x04\n      add\n      tag_56\n      swap1\n      tag_57\n      jump\t// in\n    tag_56:\n      mload(0x40)\n      dup1\n      swap2\n      sub\n      swap1\n      revert\n    tag_55:\n        /* \"contracts/homework/07 PamentContract.sol\":1433:1441  balances */\n      0x01\n        /* \"contracts/homework/07 PamentContract.sol\":1433:1453  balances[msg.sender] */\n      0x00\n        /* \"contracts/homework/07 PamentContract.sol\":1442:1452  msg.sender */\n      caller\n        /* \"contracts/homework/07 PamentContract.sol\":1433:1453  balances[msg.sender] */\n      0xffffffffffffffffffffffffffffffffffffffff\n      and\n      0xffffffffffffffffffffffffffffffffffffffff\n      and\n      dup2\n      mstore\n      0x20\n      add\n      swap1\n      dup2\n      mstore\n      0x20\n      add\n      0x00\n      keccak256\n      sload\n        /* \"contracts/homework/07 PamentContract.sol\":1426:1453  return balances[msg.sender] */\n      swap1\n      pop\n        /* \"contracts/homework/07 PamentContract.sol\":1342:1461  function getBalance() public view isOwner whenNotPaused returns (uint256){... */\n      swap1\n      jump\t// out\n        /* \"contracts/homework/07 PamentContract.sol\":152:195  mapping(address => uint256) public balances */\n    tag_21:\n      mstore(0x20, 0x01)\n      dup1\n      0x00\n      mstore\n      keccak256(0x00, 0x40)\n      0x00\n      swap2\n      pop\n      swap1\n      pop\n      sload\n      dup2\n      jump\t// out\n        /* \"contracts/homework/07 PamentContract.sol\":799:1164  function withdraw(uint _amount) public isOwner whenNotPaused{... */\n    tag_27:\n        /* \"contracts/homework/07 PamentContract.sol\":369:374  owner */\n      0x00\n      0x00\n      swap1\n      sload\n      swap1\n      0x0100\n      exp\n      swap1\n      div\n      0xffffffffffffffffffffffffffffffffffffffff\n      and\n        /* \"contracts/homework/07 PamentContract.sol\":355:374  msg.sender == owner */\n      0xffffffffffffffffffffffffffffffffffffffff\n      and\n        /* \"contracts/homework/07 PamentContract.sol\":355:365  msg.sender */\n      caller\n        /* \"contracts/homework/07 PamentContract.sol\":355:374  msg.sender == owner */\n      0xffffffffffffffffffffffffffffffffffffffff\n      and\n      eq\n        /* \"contracts/homework/07 PamentContract.sol\":347:388  require(msg.sender == owner, \"not owner\") */\n      tag_60\n      jumpi\n      mload(0x40)\n      0x08c379a000000000000000000000000000000000000000000000000000000000\n      dup2\n      mstore\n      0x04\n      add\n      tag_61\n      swap1\n      tag_53\n      jump\t// in\n    tag_61:\n      mload(0x40)\n      dup1\n      swap2\n      sub\n      swap1\n      revert\n    tag_60:\n        /* \"contracts/homework/07 PamentContract.sol\":460:466  paused */\n      0x00\n      0x14\n      swap1\n      sload\n      swap1\n      0x0100\n      exp\n      swap1\n      div\n      0xff\n      and\n        /* \"contracts/homework/07 PamentContract.sol\":459:466  !paused */\n      iszero\n        /* \"contracts/homework/07 PamentContract.sol\":451:489  require(!paused, \"contract is paused\") */\n      tag_63\n      jumpi\n      mload(0x40)\n      0x08c379a000000000000000000000000000000000000000000000000000000000\n      dup2\n      mstore\n      0x04\n      add\n      tag_64\n      swap1\n      tag_57\n      jump\t// in\n    tag_64:\n      mload(0x40)\n      dup1\n      swap2\n      sub\n      swap1\n      revert\n    tag_63:\n        /* \"contracts/homework/07 PamentContract.sol\":240:250  0.01 ether */\n      0x2386f26fc10000\n        /* \"contracts/homework/07 PamentContract.sol\":878:885  _amount */\n      dup2\n        /* \"contracts/homework/07 PamentContract.sol\":878:899  _amount > MIN_DEPOSIT */\n      gt\n        /* \"contracts/homework/07 PamentContract.sol\":870:919  require(_amount > MIN_DEPOSIT, \"deposit too low\") */\n      tag_66\n      jumpi\n      mload(0x40)\n      0x08c379a000000000000000000000000000000000000000000000000000000000\n      dup2\n      mstore\n      0x04\n      add\n      tag_67\n      swap1\n      tag_68\n      jump\t// in\n    tag_67:\n      mload(0x40)\n      dup1\n      swap2\n      sub\n      swap1\n      revert\n    tag_66:\n        /* \"contracts/homework/07 PamentContract.sol\":962:969  _amount */\n      dup1\n        /* \"contracts/homework/07 PamentContract.sol\":938:946  balances */\n      0x01\n        /* \"contracts/homework/07 PamentContract.sol\":938:958  balances[msg.sender] */\n      0x00\n        /* \"contracts/homework/07 PamentContract.sol\":947:957  msg.sender */\n      caller\n        /* \"contracts/homework/07 PamentContract.sol\":938:958  balances[msg.sender] */\n      0xffffffffffffffffffffffffffffffffffffffff\n      and\n      0xffffffffffffffffffffffffffffffffffffffff\n      and\n      dup2\n      mstore\n      0x20\n      add\n      swap1\n      dup2\n      mstore\n      0x20\n      add\n      0x00\n      keccak256\n      sload\n        /* \"contracts/homework/07 PamentContract.sol\":938:969  balances[msg.sender] >= _amount */\n      lt\n      iszero\n        /* \"contracts/homework/07 PamentContract.sol\":930:988  require(balances[msg.sender] >= _amount,\"balance too low\") */\n      tag_69\n      jumpi\n      mload(0x40)\n      0x08c379a000000000000000000000000000000000000000000000000000000000\n      dup2\n      mstore\n      0x04\n      add\n      tag_70\n      swap1\n      tag_71\n      jump\t// in\n    tag_70:\n      mload(0x40)\n      dup1\n      swap2\n      sub\n      swap1\n      revert\n    tag_69:\n        /* \"contracts/homework/07 PamentContract.sol\":1023:1030  _amount */\n      dup1\n        /* \"contracts/homework/07 PamentContract.sol\":999:1007  balances */\n      0x01\n        /* \"contracts/homework/07 PamentContract.sol\":999:1019  balances[msg.sender] */\n      0x00\n        /* \"contracts/homework/07 PamentContract.sol\":1008:1018  msg.sender */\n      caller\n        /* \"contracts/homework/07 PamentContract.sol\":999:1019  balances[msg.sender] */\n      0xffffffffffffffffffffffffffffffffffffffff\n      and\n      0xffffffffffffffffffffffffffffffffffffffff\n      and\n      dup2\n      mstore\n      0x20\n      add\n      swap1\n      dup2\n      mstore\n      0x20\n      add\n      0x00\n      keccak256\n      0x00\n        /* \"contracts/homework/07 PamentContract.sol\":999:1030  balances[msg.sender] -= _amount */\n      dup3\n      dup3\n      sload\n      tag_72\n      swap2\n      swap1\n      tag_73\n      jump\t// in\n    tag_72:\n      swap3\n      pop\n      pop\n      dup2\n      swap1\n      sstore\n      pop\n        /* \"contracts/homework/07 PamentContract.sol\":1042:1062  bool transferSuccess */\n      0x00\n        /* \"contracts/homework/07 PamentContract.sol\":1068:1073  owner */\n      0x00\n      0x00\n      swap1\n      sload\n      swap1\n      0x0100\n      exp\n      swap1\n      div\n      0xffffffffffffffffffffffffffffffffffffffff\n      and\n        /* \"contracts/homework/07 PamentContract.sol\":1068:1078  owner.call */\n      0xffffffffffffffffffffffffffffffffffffffff\n      and\n        /* \"contracts/homework/07 PamentContract.sol\":1086:1093  _amount */\n      dup3\n        /* \"contracts/homework/07 PamentContract.sol\":1068:1098  owner.call{value: _amount}(\"\") */\n      mload(0x40)\n      tag_74\n      swap1\n      tag_75\n      jump\t// in\n    tag_74:\n      0x00\n      mload(0x40)\n      dup1\n      dup4\n      sub\n      dup2\n      dup6\n      dup8\n      gas\n      call\n      swap3\n      pop\n      pop\n      pop\n      returndatasize\n      dup1\n      0x00\n      dup2\n      eq\n      tag_78\n      jumpi\n      mload(0x40)\n      swap2\n      pop\n      and(add(returndatasize, 0x3f), not(0x1f))\n      dup3\n      add\n      0x40\n      mstore\n      returndatasize\n      dup3\n      mstore\n      returndatasize\n      0x00\n      0x20\n      dup5\n      add\n      returndatacopy\n      jump(tag_77)\n    tag_78:\n      0x60\n      swap2\n      pop\n    tag_77:\n      pop\n        /* \"contracts/homework/07 PamentContract.sol\":1041:1098  (bool transferSuccess, ) = owner.call{value: _amount}(\"\") */\n      pop\n      swap1\n      pop\n        /* \"contracts/homework/07 PamentContract.sol\":1117:1132  transferSuccess */\n      dup1\n        /* \"contracts/homework/07 PamentContract.sol\":1109:1156  require(transferSuccess, \"ETH transfer failed\") */\n      tag_79\n      jumpi\n      mload(0x40)\n      0x08c379a000000000000000000000000000000000000000000000000000000000\n      dup2\n      mstore\n      0x04\n      add\n      tag_80\n      swap1\n      tag_81\n      jump\t// in\n    tag_80:\n      mload(0x40)\n      dup1\n      swap2\n      sub\n      swap1\n      revert\n    tag_79:\n        /* \"contracts/homework/07 PamentContract.sol\":859:1164  {... */\n      pop\n        /* \"contracts/homework/07 PamentContract.sol\":799:1164  function withdraw(uint _amount) public isOwner whenNotPaused{... */\n      pop\n      jump\t// out\n        /* \"contracts/homework/07 PamentContract.sol\":119:145  bool public paused = false */\n    tag_30:\n      0x00\n      0x14\n      swap1\n      sload\n      swap1\n      0x0100\n      exp\n      swap1\n      div\n      0xff\n      and\n      dup2\n      jump\t// out\n        /* \"contracts/homework/07 PamentContract.sol\":1172:1250  function pause()  public isOwner whenNotPaused{... */\n    tag_35:\n        /* \"contracts/homework/07 PamentContract.sol\":369:374  owner */\n      0x00\n      0x00\n      swap1\n      sload\n      swap1\n      0x0100\n      exp\n      swap1\n      div\n      0xffffffffffffffffffffffffffffffffffffffff\n      and\n        /* \"contracts/homework/07 PamentContract.sol\":355:374  msg.sender == owner */\n      0xffffffffffffffffffffffffffffffffffffffff\n      and\n        /* \"contracts/homework/07 PamentContract.sol\":355:365  msg.sender */\n      caller\n        /* \"contracts/homework/07 PamentContract.sol\":355:374  msg.sender == owner */\n      0xffffffffffffffffffffffffffffffffffffffff\n      and\n      eq\n        /* \"contracts/homework/07 PamentContract.sol\":347:388  require(msg.sender == owner, \"not owner\") */\n      tag_83\n      jumpi\n      mload(0x40)\n      0x08c379a000000000000000000000000000000000000000000000000000000000\n      dup2\n      mstore\n      0x04\n      add\n      tag_84\n      swap1\n      tag_53\n      jump\t// in\n    tag_84:\n      mload(0x40)\n      dup1\n      swap2\n      sub\n      swap1\n      revert\n    tag_83:\n        /* \"contracts/homework/07 PamentContract.sol\":460:466  paused */\n      0x00\n      0x14\n      swap1\n      sload\n      swap1\n      0x0100\n      exp\n      swap1\n      div\n      0xff\n      and\n        /* \"contracts/homework/07 PamentContract.sol\":459:466  !paused */\n      iszero\n        /* \"contracts/homework/07 PamentContract.sol\":451:489  require(!paused, \"contract is paused\") */\n      tag_86\n      jumpi\n      mload(0x40)\n      0x08c379a000000000000000000000000000000000000000000000000000000000\n      dup2\n      mstore\n      0x04\n      add\n      tag_87\n      swap1\n      tag_57\n      jump\t// in\n    tag_87:\n      mload(0x40)\n      dup1\n      swap2\n      sub\n      swap1\n      revert\n    tag_86:\n        /* \"contracts/homework/07 PamentContract.sol\":1238:1242  true */\n      0x01\n        /* \"contracts/homework/07 PamentContract.sol\":1229:1235  paused */\n      0x00\n      0x14\n        /* \"contracts/homework/07 PamentContract.sol\":1229:1242  paused = true */\n      0x0100\n      exp\n      dup2\n      sload\n      dup2\n      0xff\n      mul\n      not\n      and\n      swap1\n      dup4\n      iszero\n      iszero\n      mul\n      or\n      swap1\n      sstore\n      pop\n        /* \"contracts/homework/07 PamentContract.sol\":1172:1250  function pause()  public isOwner whenNotPaused{... */\n      jump\t// out\n        /* \"contracts/homework/07 PamentContract.sol\":92:112  address public owner */\n    tag_38:\n      0x00\n      0x00\n      swap1\n      sload\n      swap1\n      0x0100\n      exp\n      swap1\n      div\n      0xffffffffffffffffffffffffffffffffffffffff\n      and\n      dup2\n      jump\t// out\n        /* \"contracts/homework/07 PamentContract.sol\":1258:1334  function start()  public isOwner whenPaused{... */\n    tag_43:\n        /* \"contracts/homework/07 PamentContract.sol\":369:374  owner */\n      0x00\n      0x00\n      swap1\n      sload\n      swap1\n      0x0100\n      exp\n      swap1\n      div\n      0xffffffffffffffffffffffffffffffffffffffff\n      and\n        /* \"contracts/homework/07 PamentContract.sol\":355:374  msg.sender == owner */\n      0xffffffffffffffffffffffffffffffffffffffff\n      and\n        /* \"contracts/homework/07 PamentContract.sol\":355:365  msg.sender */\n      caller\n        /* \"contracts/homework/07 PamentContract.sol\":355:374  msg.sender == owner */\n      0xffffffffffffffffffffffffffffffffffffffff\n      and\n      eq\n        /* \"contracts/homework/07 PamentContract.sol\":347:388  require(msg.sender == owner, \"not owner\") */\n      tag_90\n      jumpi\n      mload(0x40)\n      0x08c379a000000000000000000000000000000000000000000000000000000000\n      dup2\n      mstore\n      0x04\n      add\n      tag_91\n      swap1\n      tag_53\n      jump\t// in\n    tag_91:\n      mload(0x40)\n      dup1\n      swap2\n      sub\n      swap1\n      revert\n    tag_90:\n        /* \"contracts/homework/07 PamentContract.sol\":561:567  paused */\n      0x00\n      0x14\n      swap1\n      sload\n      swap1\n      0x0100\n      exp\n      swap1\n      div\n      0xff\n      and\n        /* \"contracts/homework/07 PamentContract.sol\":553:594  require(paused, \"contract is not paused\") */\n      tag_93\n      jumpi\n      mload(0x40)\n      0x08c379a000000000000000000000000000000000000000000000000000000000\n      dup2\n      mstore\n      0x04\n      add\n      tag_94\n      swap1\n      tag_95\n      jump\t// in\n    tag_94:\n      mload(0x40)\n      dup1\n      swap2\n      sub\n      swap1\n      revert\n    tag_93:\n        /* \"contracts/homework/07 PamentContract.sol\":1321:1326  false */\n      0x00\n        /* \"contracts/homework/07 PamentContract.sol\":1312:1318  paused */\n      0x00\n      0x14\n        /* \"contracts/homework/07 PamentContract.sol\":1312:1326  paused = false */\n      0x0100\n      exp\n      dup2\n      sload\n      dup2\n      0xff\n      mul\n      not\n      and\n      swap1\n      dup4\n      iszero\n      iszero\n      mul\n      or\n      swap1\n      sstore\n      pop\n        /* \"contracts/homework/07 PamentContract.sol\":1258:1334  function start()  public isOwner whenPaused{... */\n      jump\t// out\n        /* \"contracts/homework/07 PamentContract.sol\":622:791  function deposit() public payable isOwner whenNotPaused{... */\n    tag_45:\n        /* \"contracts/homework/07 PamentContract.sol\":369:374  owner */\n      0x00\n      0x00\n      swap1\n      sload\n      swap1\n      0x0100\n      exp\n      swap1\n      div\n      0xffffffffffffffffffffffffffffffffffffffff\n      and\n        /* \"contracts/homework/07 PamentContract.sol\":355:374  msg.sender == owner */\n      0xffffffffffffffffffffffffffffffffffffffff\n      and\n        /* \"contracts/homework/07 PamentContract.sol\":355:365  msg.sender */\n      caller\n        /* \"contracts/homework/07 PamentContract.sol\":355:374  msg.sender == owner */\n      0xffffffffffffffffffffffffffffffffffffffff\n      and\n      eq\n        /* \"contracts/homework/07 PamentContract.sol\":347:388  require(msg.sender == owner, \"not owner\") */\n      tag_98\n      jumpi\n      mload(0x40)\n      0x08c379a000000000000000000000000000000000000000000000000000000000\n      dup2\n      mstore\n      0x04\n      add\n      tag_99\n      swap1\n      tag_53\n      jump\t// in\n    tag_99:\n      mload(0x40)\n      dup1\n      swap2\n      sub\n      swap1\n      revert\n    tag_98:\n        /* \"contracts/homework/07 PamentContract.sol\":460:466  paused */\n      0x00\n      0x14\n      swap1\n      sload\n      swap1\n      0x0100\n      exp\n      swap1\n      div\n      0xff\n      and\n        /* \"contracts/homework/07 PamentContract.sol\":459:466  !paused */\n      iszero\n        /* \"contracts/homework/07 PamentContract.sol\":451:489  require(!paused, \"contract is paused\") */\n      tag_101\n      jumpi\n      mload(0x40)\n      0x08c379a000000000000000000000000000000000000000000000000000000000\n      dup2\n      mstore\n      0x04\n      add\n      tag_102\n      swap1\n      tag_57\n      jump\t// in\n    tag_102:\n      mload(0x40)\n      dup1\n      swap2\n      sub\n      swap1\n      revert\n    tag_101:\n        /* \"contracts/homework/07 PamentContract.sol\":240:250  0.01 ether */\n      0x2386f26fc10000\n        /* \"contracts/homework/07 PamentContract.sol\":696:705  msg.value */\n      callvalue\n        /* \"contracts/homework/07 PamentContract.sol\":696:719  msg.value > MIN_DEPOSIT */\n      gt\n        /* \"contracts/homework/07 PamentContract.sol\":688:739  require(msg.value > MIN_DEPOSIT, \"deposit too low\") */\n      tag_104\n      jumpi\n      mload(0x40)\n      0x08c379a000000000000000000000000000000000000000000000000000000000\n      dup2\n      mstore\n      0x04\n      add\n      tag_105\n      swap1\n      tag_68\n      jump\t// in\n    tag_105:\n      mload(0x40)\n      dup1\n      swap2\n      sub\n      swap1\n      revert\n    tag_104:\n        /* \"contracts/homework/07 PamentContract.sol\":774:783  msg.value */\n      callvalue\n        /* \"contracts/homework/07 PamentContract.sol\":750:758  balances */\n      0x01\n        /* \"contracts/homework/07 PamentContract.sol\":750:770  balances[msg.sender] */\n      0x00\n        /* \"contracts/homework/07 PamentContract.sol\":759:769  msg.sender */\n      caller\n        /* \"contracts/homework/07 PamentContract.sol\":750:770  balances[msg.sender] */\n      0xffffffffffffffffffffffffffffffffffffffff\n      and\n      0xffffffffffffffffffffffffffffffffffffffff\n      and\n      dup2\n      mstore\n      0x20\n      add\n      swap1\n      dup2\n      mstore\n      0x20\n      add\n      0x00\n      keccak256\n      0x00\n        /* \"contracts/homework/07 PamentContract.sol\":750:783  balances[msg.sender] += msg.value */\n      dup3\n      dup3\n      sload\n      tag_106\n      swap2\n      swap1\n      tag_107\n      jump\t// in\n    tag_106:\n      swap3\n      pop\n      pop\n      dup2\n      swap1\n      sstore\n      pop\n        /* \"contracts/homework/07 PamentContract.sol\":622:791  function deposit() public payable isOwner whenNotPaused{... */\n      jump\t// out\n        /* \"contracts/homework/07 PamentContract.sol\":202:250  uint256 public constant MIN_DEPOSIT = 0.01 ether */\n    tag_48:\n        /* \"contracts/homework/07 PamentContract.sol\":240:250  0.01 ether */\n      0x2386f26fc10000\n        /* \"contracts/homework/07 PamentContract.sol\":202:250  uint256 public constant MIN_DEPOSIT = 0.01 ether */\n      dup2\n      jump\t// out\n        /* \"#utility.yul\":7:84   */\n    tag_108:\n        /* \"#utility.yul\":44:51   */\n      0x00\n        /* \"#utility.yul\":73:78   */\n      dup2\n        /* \"#utility.yul\":62:78   */\n      swap1\n      pop\n        /* \"#utility.yul\":7:84   */\n      swap2\n      swap1\n      pop\n      jump\t// out\n        /* \"#utility.yul\":90:208   */\n    tag_109:\n        /* \"#utility.yul\":177:201   */\n      tag_142\n        /* \"#utility.yul\":195:200   */\n      dup2\n        /* \"#utility.yul\":177:201   */\n      tag_108\n      jump\t// in\n    tag_142:\n        /* \"#utility.yul\":172:175   */\n      dup3\n        /* \"#utility.yul\":165:202   */\n      mstore\n        /* \"#utility.yul\":90:208   */\n      pop\n      pop\n      jump\t// out\n        /* \"#utility.yul\":214:436   */\n    tag_16:\n        /* \"#utility.yul\":307:311   */\n      0x00\n        /* \"#utility.yul\":345:347   */\n      0x20\n        /* \"#utility.yul\":334:343   */\n      dup3\n        /* \"#utility.yul\":330:348   */\n      add\n        /* \"#utility.yul\":322:348   */\n      swap1\n      pop\n        /* \"#utility.yul\":358:429   */\n      tag_144\n        /* \"#utility.yul\":426:427   */\n      0x00\n        /* \"#utility.yul\":415:424   */\n      dup4\n        /* \"#utility.yul\":411:428   */\n      add\n        /* \"#utility.yul\":402:408   */\n      dup5\n        /* \"#utility.yul\":358:429   */\n      tag_109\n      jump\t// in\n    tag_144:\n        /* \"#utility.yul\":214:436   */\n      swap3\n      swap2\n      pop\n      pop\n      jump\t// out\n        /* \"#utility.yul\":523:640   */\n    tag_111:\n        /* \"#utility.yul\":632:633   */\n      0x00\n        /* \"#utility.yul\":629:630   */\n      0x00\n        /* \"#utility.yul\":622:634   */\n      revert\n        /* \"#utility.yul\":769:895   */\n    tag_113:\n        /* \"#utility.yul\":806:813   */\n      0x00\n        /* \"#utility.yul\":846:888   */\n      0xffffffffffffffffffffffffffffffffffffffff\n        /* \"#utility.yul\":839:844   */\n      dup3\n        /* \"#utility.yul\":835:889   */\n      and\n        /* \"#utility.yul\":824:889   */\n      swap1\n      pop\n        /* \"#utility.yul\":769:895   */\n      swap2\n      swap1\n      pop\n      jump\t// out\n        /* \"#utility.yul\":901:997   */\n    tag_114:\n        /* \"#utility.yul\":938:945   */\n      0x00\n        /* \"#utility.yul\":967:991   */\n      tag_150\n        /* \"#utility.yul\":985:990   */\n      dup3\n        /* \"#utility.yul\":967:991   */\n      tag_113\n      jump\t// in\n    tag_150:\n        /* \"#utility.yul\":956:991   */\n      swap1\n      pop\n        /* \"#utility.yul\":901:997   */\n      swap2\n      swap1\n      pop\n      jump\t// out\n        /* \"#utility.yul\":1003:1125   */\n    tag_115:\n        /* \"#utility.yul\":1076:1100   */\n      tag_152\n        /* \"#utility.yul\":1094:1099   */\n      dup2\n        /* \"#utility.yul\":1076:1100   */\n      tag_114\n      jump\t// in\n    tag_152:\n        /* \"#utility.yul\":1069:1074   */\n      dup2\n        /* \"#utility.yul\":1066:1101   */\n      eq\n        /* \"#utility.yul\":1056:1119   */\n      tag_153\n      jumpi\n        /* \"#utility.yul\":1115:1116   */\n      0x00\n        /* \"#utility.yul\":1112:1113   */\n      0x00\n        /* \"#utility.yul\":1105:1117   */\n      revert\n        /* \"#utility.yul\":1056:1119   */\n    tag_153:\n        /* \"#utility.yul\":1003:1125   */\n      pop\n      jump\t// out\n        /* \"#utility.yul\":1131:1270   */\n    tag_116:\n        /* \"#utility.yul\":1177:1182   */\n      0x00\n        /* \"#utility.yul\":1215:1221   */\n      dup2\n        /* \"#utility.yul\":1202:1222   */\n      calldataload\n        /* \"#utility.yul\":1193:1222   */\n      swap1\n      pop\n        /* \"#utility.yul\":1231:1264   */\n      tag_155\n        /* \"#utility.yul\":1258:1263   */\n      dup2\n        /* \"#utility.yul\":1231:1264   */\n      tag_115\n      jump\t// in\n    tag_155:\n        /* \"#utility.yul\":1131:1270   */\n      swap3\n      swap2\n      pop\n      pop\n      jump\t// out\n        /* \"#utility.yul\":1276:1605   */\n    tag_20:\n        /* \"#utility.yul\":1335:1341   */\n      0x00\n        /* \"#utility.yul\":1384:1386   */\n      0x20\n        /* \"#utility.yul\":1372:1381   */\n      dup3\n        /* \"#utility.yul\":1363:1370   */\n      dup5\n        /* \"#utility.yul\":1359:1382   */\n      sub\n        /* \"#utility.yul\":1355:1387   */\n      slt\n        /* \"#utility.yul\":1352:1471   */\n      iszero\n      tag_157\n      jumpi\n        /* \"#utility.yul\":1390:1469   */\n      tag_158\n      tag_111\n      jump\t// in\n    tag_158:\n        /* \"#utility.yul\":1352:1471   */\n    tag_157:\n        /* \"#utility.yul\":1510:1511   */\n      0x00\n        /* \"#utility.yul\":1535:1588   */\n      tag_159\n        /* \"#utility.yul\":1580:1587   */\n      dup5\n        /* \"#utility.yul\":1571:1577   */\n      dup3\n        /* \"#utility.yul\":1560:1569   */\n      dup6\n        /* \"#utility.yul\":1556:1578   */\n      add\n        /* \"#utility.yul\":1535:1588   */\n      tag_116\n      jump\t// in\n    tag_159:\n        /* \"#utility.yul\":1525:1588   */\n      swap2\n      pop\n        /* \"#utility.yul\":1481:1598   */\n      pop\n        /* \"#utility.yul\":1276:1605   */\n      swap3\n      swap2\n      pop\n      pop\n      jump\t// out\n        /* \"#utility.yul\":1611:1733   */\n    tag_117:\n        /* \"#utility.yul\":1684:1708   */\n      tag_161\n        /* \"#utility.yul\":1702:1707   */\n      dup2\n        /* \"#utility.yul\":1684:1708   */\n      tag_108\n      jump\t// in\n    tag_161:\n        /* \"#utility.yul\":1677:1682   */\n      dup2\n        /* \"#utility.yul\":1674:1709   */\n      eq\n        /* \"#utility.yul\":1664:1727   */\n      tag_162\n      jumpi\n        /* \"#utility.yul\":1723:1724   */\n      0x00\n        /* \"#utility.yul\":1720:1721   */\n      0x00\n        /* \"#utility.yul\":1713:1725   */\n      revert\n        /* \"#utility.yul\":1664:1727   */\n    tag_162:\n        /* \"#utility.yul\":1611:1733   */\n      pop\n      jump\t// out\n        /* \"#utility.yul\":1739:1878   */\n    tag_118:\n        /* \"#utility.yul\":1785:1790   */\n      0x00\n        /* \"#utility.yul\":1823:1829   */\n      dup2\n        /* \"#utility.yul\":1810:1830   */\n      calldataload\n        /* \"#utility.yul\":1801:1830   */\n      swap1\n      pop\n        /* \"#utility.yul\":1839:1872   */\n      tag_164\n        /* \"#utility.yul\":1866:1871   */\n      dup2\n        /* \"#utility.yul\":1839:1872   */\n      tag_117\n      jump\t// in\n    tag_164:\n        /* \"#utility.yul\":1739:1878   */\n      swap3\n      swap2\n      pop\n      pop\n      jump\t// out\n        /* \"#utility.yul\":1884:2213   */\n    tag_26:\n        /* \"#utility.yul\":1943:1949   */\n      0x00\n        /* \"#utility.yul\":1992:1994   */\n      0x20\n        /* \"#utility.yul\":1980:1989   */\n      dup3\n        /* \"#utility.yul\":1971:1978   */\n      dup5\n        /* \"#utility.yul\":1967:1990   */\n      sub\n        /* \"#utility.yul\":1963:1995   */\n      slt\n        /* \"#utility.yul\":1960:2079   */\n      iszero\n      tag_166\n      jumpi\n        /* \"#utility.yul\":1998:2077   */\n      tag_167\n      tag_111\n      jump\t// in\n    tag_167:\n        /* \"#utility.yul\":1960:2079   */\n    tag_166:\n        /* \"#utility.yul\":2118:2119   */\n      0x00\n        /* \"#utility.yul\":2143:2196   */\n      tag_168\n        /* \"#utility.yul\":2188:2195   */\n      dup5\n        /* \"#utility.yul\":2179:2185   */\n      dup3\n        /* \"#utility.yul\":2168:2177   */\n      dup6\n        /* \"#utility.yul\":2164:2186   */\n      add\n        /* \"#utility.yul\":2143:2196   */\n      tag_118\n      jump\t// in\n    tag_168:\n        /* \"#utility.yul\":2133:2196   */\n      swap2\n      pop\n        /* \"#utility.yul\":2089:2206   */\n      pop\n        /* \"#utility.yul\":1884:2213   */\n      swap3\n      swap2\n      pop\n      pop\n      jump\t// out\n        /* \"#utility.yul\":2219:2309   */\n    tag_119:\n        /* \"#utility.yul\":2253:2260   */\n      0x00\n        /* \"#utility.yul\":2296:2301   */\n      dup2\n        /* \"#utility.yul\":2289:2302   */\n      iszero\n        /* \"#utility.yul\":2282:2303   */\n      iszero\n        /* \"#utility.yul\":2271:2303   */\n      swap1\n      pop\n        /* \"#utility.yul\":2219:2309   */\n      swap2\n      swap1\n      pop\n      jump\t// out\n        /* \"#utility.yul\":2315:2424   */\n    tag_120:\n        /* \"#utility.yul\":2396:2417   */\n      tag_171\n        /* \"#utility.yul\":2411:2416   */\n      dup2\n        /* \"#utility.yul\":2396:2417   */\n      tag_119\n      jump\t// in\n    tag_171:\n        /* \"#utility.yul\":2391:2394   */\n      dup3\n        /* \"#utility.yul\":2384:2418   */\n      mstore\n        /* \"#utility.yul\":2315:2424   */\n      pop\n      pop\n      jump\t// out\n        /* \"#utility.yul\":2430:2640   */\n    tag_32:\n        /* \"#utility.yul\":2517:2521   */\n      0x00\n        /* \"#utility.yul\":2555:2557   */\n      0x20\n        /* \"#utility.yul\":2544:2553   */\n      dup3\n        /* \"#utility.yul\":2540:2558   */\n      add\n        /* \"#utility.yul\":2532:2558   */\n      swap1\n      pop\n        /* \"#utility.yul\":2568:2633   */\n      tag_173\n        /* \"#utility.yul\":2630:2631   */\n      0x00\n        /* \"#utility.yul\":2619:2628   */\n      dup4\n        /* \"#utility.yul\":2615:2632   */\n      add\n        /* \"#utility.yul\":2606:2612   */\n      dup5\n        /* \"#utility.yul\":2568:2633   */\n      tag_120\n      jump\t// in\n    tag_173:\n        /* \"#utility.yul\":2430:2640   */\n      swap3\n      swap2\n      pop\n      pop\n      jump\t// out\n        /* \"#utility.yul\":2646:2764   */\n    tag_121:\n        /* \"#utility.yul\":2733:2757   */\n      tag_175\n        /* \"#utility.yul\":2751:2756   */\n      dup2\n        /* \"#utility.yul\":2733:2757   */\n      tag_114\n      jump\t// in\n    tag_175:\n        /* \"#utility.yul\":2728:2731   */\n      dup3\n        /* \"#utility.yul\":2721:2758   */\n      mstore\n        /* \"#utility.yul\":2646:2764   */\n      pop\n      pop\n      jump\t// out\n        /* \"#utility.yul\":2770:2992   */\n    tag_40:\n        /* \"#utility.yul\":2863:2867   */\n      0x00\n        /* \"#utility.yul\":2901:2903   */\n      0x20\n        /* \"#utility.yul\":2890:2899   */\n      dup3\n        /* \"#utility.yul\":2886:2904   */\n      add\n        /* \"#utility.yul\":2878:2904   */\n      swap1\n      pop\n        /* \"#utility.yul\":2914:2985   */\n      tag_177\n        /* \"#utility.yul\":2982:2983   */\n      0x00\n        /* \"#utility.yul\":2971:2980   */\n      dup4\n        /* \"#utility.yul\":2967:2984   */\n      add\n        /* \"#utility.yul\":2958:2964   */\n      dup5\n        /* \"#utility.yul\":2914:2985   */\n      tag_121\n      jump\t// in\n    tag_177:\n        /* \"#utility.yul\":2770:2992   */\n      swap3\n      swap2\n      pop\n      pop\n      jump\t// out\n        /* \"#utility.yul\":2998:3167   */\n    tag_122:\n        /* \"#utility.yul\":3082:3093   */\n      0x00\n        /* \"#utility.yul\":3116:3122   */\n      dup3\n        /* \"#utility.yul\":3111:3114   */\n      dup3\n        /* \"#utility.yul\":3104:3123   */\n      mstore\n        /* \"#utility.yul\":3156:3160   */\n      0x20\n        /* \"#utility.yul\":3151:3154   */\n      dup3\n        /* \"#utility.yul\":3147:3161   */\n      add\n        /* \"#utility.yul\":3132:3161   */\n      swap1\n      pop\n        /* \"#utility.yul\":2998:3167   */\n      swap3\n      swap2\n      pop\n      pop\n      jump\t// out\n        /* \"#utility.yul\":3173:3332   */\n    tag_123:\n        /* \"#utility.yul\":3313:3324   */\n      0x6e6f74206f776e65720000000000000000000000000000000000000000000000\n        /* \"#utility.yul\":3309:3310   */\n      0x00\n        /* \"#utility.yul\":3301:3307   */\n      dup3\n        /* \"#utility.yul\":3297:3311   */\n      add\n        /* \"#utility.yul\":3290:3325   */\n      mstore\n        /* \"#utility.yul\":3173:3332   */\n      pop\n      jump\t// out\n        /* \"#utility.yul\":3338:3703   */\n    tag_124:\n        /* \"#utility.yul\":3480:3483   */\n      0x00\n        /* \"#utility.yul\":3501:3567   */\n      tag_181\n        /* \"#utility.yul\":3565:3566   */\n      0x09\n        /* \"#utility.yul\":3560:3563   */\n      dup4\n        /* \"#utility.yul\":3501:3567   */\n      tag_122\n      jump\t// in\n    tag_181:\n        /* \"#utility.yul\":3494:3567   */\n      swap2\n      pop\n        /* \"#utility.yul\":3576:3669   */\n      tag_182\n        /* \"#utility.yul\":3665:3668   */\n      dup3\n        /* \"#utility.yul\":3576:3669   */\n      tag_123\n      jump\t// in\n    tag_182:\n        /* \"#utility.yul\":3694:3696   */\n      0x20\n        /* \"#utility.yul\":3689:3692   */\n      dup3\n        /* \"#utility.yul\":3685:3697   */\n      add\n        /* \"#utility.yul\":3678:3697   */\n      swap1\n      pop\n        /* \"#utility.yul\":3338:3703   */\n      swap2\n      swap1\n      pop\n      jump\t// out\n        /* \"#utility.yul\":3709:4128   */\n    tag_53:\n        /* \"#utility.yul\":3875:3879   */\n      0x00\n        /* \"#utility.yul\":3913:3915   */\n      0x20\n        /* \"#utility.yul\":3902:3911   */\n      dup3\n        /* \"#utility.yul\":3898:3916   */\n      add\n        /* \"#utility.yul\":3890:3916   */\n      swap1\n      pop\n        /* \"#utility.yul\":3962:3971   */\n      dup2\n        /* \"#utility.yul\":3956:3960   */\n      dup2\n        /* \"#utility.yul\":3952:3972   */\n      sub\n        /* \"#utility.yul\":3948:3949   */\n      0x00\n        /* \"#utility.yul\":3937:3946   */\n      dup4\n        /* \"#utility.yul\":3933:3950   */\n      add\n        /* \"#utility.yul\":3926:3973   */\n      mstore\n        /* \"#utility.yul\":3990:4121   */\n      tag_184\n        /* \"#utility.yul\":4116:4120   */\n      dup2\n        /* \"#utility.yul\":3990:4121   */\n      tag_124\n      jump\t// in\n    tag_184:\n        /* \"#utility.yul\":3982:4121   */\n      swap1\n      pop\n        /* \"#utility.yul\":3709:4128   */\n      swap2\n      swap1\n      pop\n      jump\t// out\n        /* \"#utility.yul\":4134:4302   */\n    tag_125:\n        /* \"#utility.yul\":4274:4294   */\n      0x636f6e7472616374206973207061757365640000000000000000000000000000\n        /* \"#utility.yul\":4270:4271   */\n      0x00\n        /* \"#utility.yul\":4262:4268   */\n      dup3\n        /* \"#utility.yul\":4258:4272   */\n      add\n        /* \"#utility.yul\":4251:4295   */\n      mstore\n        /* \"#utility.yul\":4134:4302   */\n      pop\n      jump\t// out\n        /* \"#utility.yul\":4308:4674   */\n    tag_126:\n        /* \"#utility.yul\":4450:4453   */\n      0x00\n        /* \"#utility.yul\":4471:4538   */\n      tag_187\n        /* \"#utility.yul\":4535:4537   */\n      0x12\n        /* \"#utility.yul\":4530:4533   */\n      dup4\n        /* \"#utility.yul\":4471:4538   */\n      tag_122\n      jump\t// in\n    tag_187:\n        /* \"#utility.yul\":4464:4538   */\n      swap2\n      pop\n        /* \"#utility.yul\":4547:4640   */\n      tag_188\n        /* \"#utility.yul\":4636:4639   */\n      dup3\n        /* \"#utility.yul\":4547:4640   */\n      tag_125\n      jump\t// in\n    tag_188:\n        /* \"#utility.yul\":4665:4667   */\n      0x20\n        /* \"#utility.yul\":4660:4663   */\n      dup3\n        /* \"#utility.yul\":4656:4668   */\n      add\n        /* \"#utility.yul\":4649:4668   */\n      swap1\n      pop\n        /* \"#utility.yul\":4308:4674   */\n      swap2\n      swap1\n      pop\n      jump\t// out\n        /* \"#utility.yul\":4680:5099   */\n    tag_57:\n        /* \"#utility.yul\":4846:4850   */\n      0x00\n        /* \"#utility.yul\":4884:4886   */\n      0x20\n        /* \"#utility.yul\":4873:4882   */\n      dup3\n        /* \"#utility.yul\":4869:4887   */\n      add\n        /* \"#utility.yul\":4861:4887   */\n      swap1\n      pop\n        /* \"#utility.yul\":4933:4942   */\n      dup2\n        /* \"#utility.yul\":4927:4931   */\n      dup2\n        /* \"#utility.yul\":4923:4943   */\n      sub\n        /* \"#utility.yul\":4919:4920   */\n      0x00\n        /* \"#utility.yul\":4908:4917   */\n      dup4\n        /* \"#utility.yul\":4904:4921   */\n      add\n        /* \"#utility.yul\":4897:4944   */\n      mstore\n        /* \"#utility.yul\":4961:5092   */\n      tag_190\n        /* \"#utility.yul\":5087:5091   */\n      dup2\n        /* \"#utility.yul\":4961:5092   */\n      tag_126\n      jump\t// in\n    tag_190:\n        /* \"#utility.yul\":4953:5092   */\n      swap1\n      pop\n        /* \"#utility.yul\":4680:5099   */\n      swap2\n      swap1\n      pop\n      jump\t// out\n        /* \"#utility.yul\":5105:5270   */\n    tag_127:\n        /* \"#utility.yul\":5245:5262   */\n      0x6465706f73697420746f6f206c6f770000000000000000000000000000000000\n        /* \"#utility.yul\":5241:5242   */\n      0x00\n        /* \"#utility.yul\":5233:5239   */\n      dup3\n        /* \"#utility.yul\":5229:5243   */\n      add\n        /* \"#utility.yul\":5222:5263   */\n      mstore\n        /* \"#utility.yul\":5105:5270   */\n      pop\n      jump\t// out\n        /* \"#utility.yul\":5276:5642   */\n    tag_128:\n        /* \"#utility.yul\":5418:5421   */\n      0x00\n        /* \"#utility.yul\":5439:5506   */\n      tag_193\n        /* \"#utility.yul\":5503:5505   */\n      0x0f\n        /* \"#utility.yul\":5498:5501   */\n      dup4\n        /* \"#utility.yul\":5439:5506   */\n      tag_122\n      jump\t// in\n    tag_193:\n        /* \"#utility.yul\":5432:5506   */\n      swap2\n      pop\n        /* \"#utility.yul\":5515:5608   */\n      tag_194\n        /* \"#utility.yul\":5604:5607   */\n      dup3\n        /* \"#utility.yul\":5515:5608   */\n      tag_127\n      jump\t// in\n    tag_194:\n        /* \"#utility.yul\":5633:5635   */\n      0x20\n        /* \"#utility.yul\":5628:5631   */\n      dup3\n        /* \"#utility.yul\":5624:5636   */\n      add\n        /* \"#utility.yul\":5617:5636   */\n      swap1\n      pop\n        /* \"#utility.yul\":5276:5642   */\n      swap2\n      swap1\n      pop\n      jump\t// out\n        /* \"#utility.yul\":5648:6067   */\n    tag_68:\n        /* \"#utility.yul\":5814:5818   */\n      0x00\n        /* \"#utility.yul\":5852:5854   */\n      0x20\n        /* \"#utility.yul\":5841:5850   */\n      dup3\n        /* \"#utility.yul\":5837:5855   */\n      add\n        /* \"#utility.yul\":5829:5855   */\n      swap1\n      pop\n        /* \"#utility.yul\":5901:5910   */\n      dup2\n        /* \"#utility.yul\":5895:5899   */\n      dup2\n        /* \"#utility.yul\":5891:5911   */\n      sub\n        /* \"#utility.yul\":5887:5888   */\n      0x00\n        /* \"#utility.yul\":5876:5885   */\n      dup4\n        /* \"#utility.yul\":5872:5889   */\n      add\n        /* \"#utility.yul\":5865:5912   */\n      mstore\n        /* \"#utility.yul\":5929:6060   */\n      tag_196\n        /* \"#utility.yul\":6055:6059   */\n      dup2\n        /* \"#utility.yul\":5929:6060   */\n      tag_128\n      jump\t// in\n    tag_196:\n        /* \"#utility.yul\":5921:6060   */\n      swap1\n      pop\n        /* \"#utility.yul\":5648:6067   */\n      swap2\n      swap1\n      pop\n      jump\t// out\n        /* \"#utility.yul\":6073:6238   */\n    tag_129:\n        /* \"#utility.yul\":6213:6230   */\n      0x62616c616e636520746f6f206c6f770000000000000000000000000000000000\n        /* \"#utility.yul\":6209:6210   */\n      0x00\n        /* \"#utility.yul\":6201:6207   */\n      dup3\n        /* \"#utility.yul\":6197:6211   */\n      add\n        /* \"#utility.yul\":6190:6231   */\n      mstore\n        /* \"#utility.yul\":6073:6238   */\n      pop\n      jump\t// out\n        /* \"#utility.yul\":6244:6610   */\n    tag_130:\n        /* \"#utility.yul\":6386:6389   */\n      0x00\n        /* \"#utility.yul\":6407:6474   */\n      tag_199\n        /* \"#utility.yul\":6471:6473   */\n      0x0f\n        /* \"#utility.yul\":6466:6469   */\n      dup4\n        /* \"#utility.yul\":6407:6474   */\n      tag_122\n      jump\t// in\n    tag_199:\n        /* \"#utility.yul\":6400:6474   */\n      swap2\n      pop\n        /* \"#utility.yul\":6483:6576   */\n      tag_200\n        /* \"#utility.yul\":6572:6575   */\n      dup3\n        /* \"#utility.yul\":6483:6576   */\n      tag_129\n      jump\t// in\n    tag_200:\n        /* \"#utility.yul\":6601:6603   */\n      0x20\n        /* \"#utility.yul\":6596:6599   */\n      dup3\n        /* \"#utility.yul\":6592:6604   */\n      add\n        /* \"#utility.yul\":6585:6604   */\n      swap1\n      pop\n        /* \"#utility.yul\":6244:6610   */\n      swap2\n      swap1\n      pop\n      jump\t// out\n        /* \"#utility.yul\":6616:7035   */\n    tag_71:\n        /* \"#utility.yul\":6782:6786   */\n      0x00\n        /* \"#utility.yul\":6820:6822   */\n      0x20\n        /* \"#utility.yul\":6809:6818   */\n      dup3\n        /* \"#utility.yul\":6805:6823   */\n      add\n        /* \"#utility.yul\":6797:6823   */\n      swap1\n      pop\n        /* \"#utility.yul\":6869:6878   */\n      dup2\n        /* \"#utility.yul\":6863:6867   */\n      dup2\n        /* \"#utility.yul\":6859:6879   */\n      sub\n        /* \"#utility.yul\":6855:6856   */\n      0x00\n        /* \"#utility.yul\":6844:6853   */\n      dup4\n        /* \"#utility.yul\":6840:6857   */\n      add\n        /* \"#utility.yul\":6833:6880   */\n      mstore\n        /* \"#utility.yul\":6897:7028   */\n      tag_202\n        /* \"#utility.yul\":7023:7027   */\n      dup2\n        /* \"#utility.yul\":6897:7028   */\n      tag_130\n      jump\t// in\n    tag_202:\n        /* \"#utility.yul\":6889:7028   */\n      swap1\n      pop\n        /* \"#utility.yul\":6616:7035   */\n      swap2\n      swap1\n      pop\n      jump\t// out\n        /* \"#utility.yul\":7041:7221   */\n    tag_131:\n        /* \"#utility.yul\":7089:7166   */\n      0x4e487b7100000000000000000000000000000000000000000000000000000000\n        /* \"#utility.yul\":7086:7087   */\n      0x00\n        /* \"#utility.yul\":7079:7167   */\n      mstore\n        /* \"#utility.yul\":7186:7190   */\n      0x11\n        /* \"#utility.yul\":7183:7184   */\n      0x04\n        /* \"#utility.yul\":7176:7191   */\n      mstore\n        /* \"#utility.yul\":7210:7214   */\n      0x24\n        /* \"#utility.yul\":7207:7208   */\n      0x00\n        /* \"#utility.yul\":7200:7215   */\n      revert\n        /* \"#utility.yul\":7227:7421   */\n    tag_73:\n        /* \"#utility.yul\":7267:7271   */\n      0x00\n        /* \"#utility.yul\":7287:7307   */\n      tag_205\n        /* \"#utility.yul\":7305:7306   */\n      dup3\n        /* \"#utility.yul\":7287:7307   */\n      tag_108\n      jump\t// in\n    tag_205:\n        /* \"#utility.yul\":7282:7307   */\n      swap2\n      pop\n        /* \"#utility.yul\":7321:7341   */\n      tag_206\n        /* \"#utility.yul\":7339:7340   */\n      dup4\n        /* \"#utility.yul\":7321:7341   */\n      tag_108\n      jump\t// in\n    tag_206:\n        /* \"#utility.yul\":7316:7341   */\n      swap3\n      pop\n        /* \"#utility.yul\":7365:7366   */\n      dup3\n        /* \"#utility.yul\":7362:7363   */\n      dup3\n        /* \"#utility.yul\":7358:7367   */\n      sub\n        /* \"#utility.yul\":7350:7367   */\n      swap1\n      pop\n        /* \"#utility.yul\":7389:7390   */\n      dup2\n        /* \"#utility.yul\":7383:7387   */\n      dup2\n        /* \"#utility.yul\":7380:7391   */\n      gt\n        /* \"#utility.yul\":7377:7414   */\n      iszero\n      tag_207\n      jumpi\n        /* \"#utility.yul\":7394:7412   */\n      tag_208\n      tag_131\n      jump\t// in\n    tag_208:\n        /* \"#utility.yul\":7377:7414   */\n    tag_207:\n        /* \"#utility.yul\":7227:7421   */\n      swap3\n      swap2\n      pop\n      pop\n      jump\t// out\n        /* \"#utility.yul\":7427:7574   */\n    tag_132:\n        /* \"#utility.yul\":7528:7539   */\n      0x00\n        /* \"#utility.yul\":7565:7568   */\n      dup2\n        /* \"#utility.yul\":7550:7568   */\n      swap1\n      pop\n        /* \"#utility.yul\":7427:7574   */\n      swap3\n      swap2\n      pop\n      pop\n      jump\t// out\n        /* \"#utility.yul\":7580:7694   */\n    tag_133:\n      pop\n      jump\t// out\n        /* \"#utility.yul\":7700:8098   */\n    tag_134:\n        /* \"#utility.yul\":7859:7862   */\n      0x00\n        /* \"#utility.yul\":7880:7963   */\n      tag_212\n        /* \"#utility.yul\":7961:7962   */\n      0x00\n        /* \"#utility.yul\":7956:7959   */\n      dup4\n        /* \"#utility.yul\":7880:7963   */\n      tag_132\n      jump\t// in\n    tag_212:\n        /* \"#utility.yul\":7873:7963   */\n      swap2\n      pop\n        /* \"#utility.yul\":7972:8065   */\n      tag_213\n        /* \"#utility.yul\":8061:8064   */\n      dup3\n        /* \"#utility.yul\":7972:8065   */\n      tag_133\n      jump\t// in\n    tag_213:\n        /* \"#utility.yul\":8090:8091   */\n      0x00\n        /* \"#utility.yul\":8085:8088   */\n      dup3\n        /* \"#utility.yul\":8081:8092   */\n      add\n        /* \"#utility.yul\":8074:8092   */\n      swap1\n      pop\n        /* \"#utility.yul\":7700:8098   */\n      swap2\n      swap1\n      pop\n      jump\t// out\n        /* \"#utility.yul\":8104:8483   */\n    tag_75:\n        /* \"#utility.yul\":8288:8291   */\n      0x00\n        /* \"#utility.yul\":8310:8457   */\n      tag_215\n        /* \"#utility.yul\":8453:8456   */\n      dup3\n        /* \"#utility.yul\":8310:8457   */\n      tag_134\n      jump\t// in\n    tag_215:\n        /* \"#utility.yul\":8303:8457   */\n      swap2\n      pop\n        /* \"#utility.yul\":8474:8477   */\n      dup2\n        /* \"#utility.yul\":8467:8477   */\n      swap1\n      pop\n        /* \"#utility.yul\":8104:8483   */\n      swap2\n      swap1\n      pop\n      jump\t// out\n        /* \"#utility.yul\":8489:8658   */\n    tag_135:\n        /* \"#utility.yul\":8629:8650   */\n      0x455448207472616e73666572206661696c656400000000000000000000000000\n        /* \"#utility.yul\":8625:8626   */\n      0x00\n        /* \"#utility.yul\":8617:8623   */\n      dup3\n        /* \"#utility.yul\":8613:8627   */\n      add\n        /* \"#utility.yul\":8606:8651   */\n      mstore\n        /* \"#utility.yul\":8489:8658   */\n      pop\n      jump\t// out\n        /* \"#utility.yul\":8664:9030   */\n    tag_136:\n        /* \"#utility.yul\":8806:8809   */\n      0x00\n        /* \"#utility.yul\":8827:8894   */\n      tag_218\n        /* \"#utility.yul\":8891:8893   */\n      0x13\n        /* \"#utility.yul\":8886:8889   */\n      dup4\n        /* \"#utility.yul\":8827:8894   */\n      tag_122\n      jump\t// in\n    tag_218:\n        /* \"#utility.yul\":8820:8894   */\n      swap2\n      pop\n        /* \"#utility.yul\":8903:8996   */\n      tag_219\n        /* \"#utility.yul\":8992:8995   */\n      dup3\n        /* \"#utility.yul\":8903:8996   */\n      tag_135\n      jump\t// in\n    tag_219:\n        /* \"#utility.yul\":9021:9023   */\n      0x20\n        /* \"#utility.yul\":9016:9019   */\n      dup3\n        /* \"#utility.yul\":9012:9024   */\n      add\n        /* \"#utility.yul\":9005:9024   */\n      swap1\n      pop\n        /* \"#utility.yul\":8664:9030   */\n      swap2\n      swap1\n      pop\n      jump\t// out\n        /* \"#utility.yul\":9036:9455   */\n    tag_81:\n        /* \"#utility.yul\":9202:9206   */\n      0x00\n        /* \"#utility.yul\":9240:9242   */\n      0x20\n        /* \"#utility.yul\":9229:9238   */\n      dup3\n        /* \"#utility.yul\":9225:9243   */\n      add\n        /* \"#utility.yul\":9217:9243   */\n      swap1\n      pop\n        /* \"#utility.yul\":9289:9298   */\n      dup2\n        /* \"#utility.yul\":9283:9287   */\n      dup2\n        /* \"#utility.yul\":9279:9299   */\n      sub\n        /* \"#utility.yul\":9275:9276   */\n      0x00\n        /* \"#utility.yul\":9264:9273   */\n      dup4\n        /* \"#utility.yul\":9260:9277   */\n      add\n        /* \"#utility.yul\":9253:9300   */\n      mstore\n        /* \"#utility.yul\":9317:9448   */\n      tag_221\n        /* \"#utility.yul\":9443:9447   */\n      dup2\n        /* \"#utility.yul\":9317:9448   */\n      tag_136\n      jump\t// in\n    tag_221:\n        /* \"#utility.yul\":9309:9448   */\n      swap1\n      pop\n        /* \"#utility.yul\":9036:9455   */\n      swap2\n      swap1\n      pop\n      jump\t// out\n        /* \"#utility.yul\":9461:9633   */\n    tag_137:\n        /* \"#utility.yul\":9601:9625   */\n      0x636f6e7472616374206973206e6f742070617573656400000000000000000000\n        /* \"#utility.yul\":9597:9598   */\n      0x00\n        /* \"#utility.yul\":9589:9595   */\n      dup3\n        /* \"#utility.yul\":9585:9599   */\n      add\n        /* \"#utility.yul\":9578:9626   */\n      mstore\n        /* \"#utility.yul\":9461:9633   */\n      pop\n      jump\t// out\n        /* \"#utility.yul\":9639:10005   */\n    tag_138:\n        /* \"#utility.yul\":9781:9784   */\n      0x00\n        /* \"#utility.yul\":9802:9869   */\n      tag_224\n        /* \"#utility.yul\":9866:9868   */\n      0x16\n        /* \"#utility.yul\":9861:9864   */\n      dup4\n        /* \"#utility.yul\":9802:9869   */\n      tag_122\n      jump\t// in\n    tag_224:\n        /* \"#utility.yul\":9795:9869   */\n      swap2\n      pop\n        /* \"#utility.yul\":9878:9971   */\n      tag_225\n        /* \"#utility.yul\":9967:9970   */\n      dup3\n        /* \"#utility.yul\":9878:9971   */\n      tag_137\n      jump\t// in\n    tag_225:\n        /* \"#utility.yul\":9996:9998   */\n      0x20\n        /* \"#utility.yul\":9991:9994   */\n      dup3\n        /* \"#utility.yul\":9987:9999   */\n      add\n        /* \"#utility.yul\":9980:9999   */\n      swap1\n      pop\n        /* \"#utility.yul\":9639:10005   */\n      swap2\n      swap1\n      pop\n      jump\t// out\n        /* \"#utility.yul\":10011:10430   */\n    tag_95:\n        /* \"#utility.yul\":10177:10181   */\n      0x00\n        /* \"#utility.yul\":10215:10217   */\n      0x20\n        /* \"#utility.yul\":10204:10213   */\n      dup3\n        /* \"#utility.yul\":10200:10218   */\n      add\n        /* \"#utility.yul\":10192:10218   */\n      swap1\n      pop\n        /* \"#utility.yul\":10264:10273   */\n      dup2\n        /* \"#utility.yul\":10258:10262   */\n      dup2\n        /* \"#utility.yul\":10254:10274   */\n      sub\n        /* \"#utility.yul\":10250:10251   */\n      0x00\n        /* \"#utility.yul\":10239:10248   */\n      dup4\n        /* \"#utility.yul\":10235:10252   */\n      add\n        /* \"#utility.yul\":10228:10275   */\n      mstore\n        /* \"#utility.yul\":10292:10423   */\n      tag_227\n        /* \"#utility.yul\":10418:10422   */\n      dup2\n        /* \"#utility.yul\":10292:10423   */\n      tag_138\n      jump\t// in\n    tag_227:\n        /* \"#utility.yul\":10284:10423   */\n      swap1\n      pop\n        /* \"#utility.yul\":10011:10430   */\n      swap2\n      swap1\n      pop\n      jump\t// out\n        /* \"#utility.yul\":10436:10627   */\n    tag_107:\n        /* \"#utility.yul\":10476:10479   */\n      0x00\n        /* \"#utility.yul\":10495:10515   */\n      tag_229\n        /* \"#utility.yul\":10513:10514   */\n      dup3\n        /* \"#utility.yul\":10495:10515   */\n      tag_108\n      jump\t// in\n    tag_229:\n        /* \"#utility.yul\":10490:10515   */\n      swap2\n      pop\n        /* \"#utility.yul\":10529:10549   */\n      tag_230\n        /* \"#utility.yul\":10547:10548   */\n      dup4\n        /* \"#utility.yul\":10529:10549   */\n      tag_108\n      jump\t// in\n    tag_230:\n        /* \"#utility.yul\":10524:10549   */\n      swap3\n      pop\n        /* \"#utility.yul\":10572:10573   */\n      dup3\n        /* \"#utility.yul\":10569:10570   */\n      dup3\n        /* \"#utility.yul\":10565:10574   */\n      add\n        /* \"#utility.yul\":10558:10574   */\n      swap1\n      pop\n        /* \"#utility.yul\":10593:10596   */\n      dup1\n        /* \"#utility.yul\":10590:10591   */\n      dup3\n        /* \"#utility.yul\":10587:10597   */\n      gt\n        /* \"#utility.yul\":10584:10620   */\n      iszero\n      tag_231\n      jumpi\n        /* \"#utility.yul\":10600:10618   */\n      tag_232\n      tag_131\n      jump\t// in\n    tag_232:\n        /* \"#utility.yul\":10584:10620   */\n    tag_231:\n        /* \"#utility.yul\":10436:10627   */\n      swap3\n      swap2\n      pop\n      pop\n      jump\t// out\n\n    auxdata: 0xa264697066735822122071f7107a84d005a6c2531b82c82d1d77435ae9f1b718cc16d57ca7d69bf23b6564736f6c634300081e0033\n}\n",
				"bytecode": {
					"linkReferences": {},
					"object": "60806040525f5f60146101000a81548160ff0219169083151502179055503480156027575f5ffd5b50335f5f6101000a81548173ffffffffffffffffffffffffffffffffffffffff021916908373ffffffffffffffffffffffffffffffffffffffff160217905550610e66806100745f395ff3fe608060405260043610610085575f3560e01c80638456cb59116100585780638456cb59146101415780638da5cb5b14610157578063be9a655514610181578063d0e30db014610197578063e1e158a5146101a157610085565b806312065fe01461008957806327e235e3146100b35780632e1a7d4d146100ef5780635c975abb14610117575b5f5ffd5b348015610094575f5ffd5b5061009d6101cb565b6040516100aa919061098a565b60405180910390f35b3480156100be575f5ffd5b506100d960048036038101906100d49190610a01565b6102ec565b6040516100e6919061098a565b60405180910390f35b3480156100fa575f5ffd5b5061011560048036038101906101109190610a56565b610301565b005b348015610122575f5ffd5b5061012b6105c6565b6040516101389190610a9b565b60405180910390f35b34801561014c575f5ffd5b506101556105d8565b005b348015610162575f5ffd5b5061016b6106d1565b6040516101789190610ac3565b60405180910390f35b34801561018c575f5ffd5b506101956106f5565b005b61019f6107ec565b005b3480156101ac575f5ffd5b506101b5610967565b6040516101c2919061098a565b60405180910390f35b5f5f5f9054906101000a900473ffffffffffffffffffffffffffffffffffffffff1673ffffffffffffffffffffffffffffffffffffffff163373ffffffffffffffffffffffffffffffffffffffff161461025a576040517f08c379a000000000000000000000000000000000000000000000000000000000815260040161025190610b36565b60405180910390fd5b5f60149054906101000a900460ff16156102a9576040517f08c379a00000000000000000000000000000000000000000000000000000000081526004016102a090610b9e565b60405180910390fd5b60015f3373ffffffffffffffffffffffffffffffffffffffff1673ffffffffffffffffffffffffffffffffffffffff1681526020019081526020015f2054905090565b6001602052805f5260405f205f915090505481565b5f5f9054906101000a900473ffffffffffffffffffffffffffffffffffffffff1673ffffffffffffffffffffffffffffffffffffffff163373ffffffffffffffffffffffffffffffffffffffff161461038f576040517f08c379a000000000000000000000000000000000000000000000000000000000815260040161038690610b36565b60405180910390fd5b5f60149054906101000a900460ff16156103de576040517f08c379a00000000000000000000000000000000000000000000000000000000081526004016103d590610b9e565b60405180910390fd5b662386f26fc100008111610427576040517f08c379a000000000000000000000000000000000000000000000000000000000815260040161041e90610c06565b60405180910390fd5b8060015f3373ffffffffffffffffffffffffffffffffffffffff1673ffffffffffffffffffffffffffffffffffffffff1681526020019081526020015f205410156104a7576040517f08c379a000000000000000000000000000000000000000000000000000000000815260040161049e90610c6e565b60405180910390fd5b8060015f3373ffffffffffffffffffffffffffffffffffffffff1673ffffffffffffffffffffffffffffffffffffffff1681526020019081526020015f205f8282546104f39190610cb9565b925050819055505f5f5f9054906101000a900473ffffffffffffffffffffffffffffffffffffffff1673ffffffffffffffffffffffffffffffffffffffff168260405161053f90610d19565b5f6040518083038185875af1925050503d805f8114610579576040519150601f19603f3d011682016040523d82523d5f602084013e61057e565b606091505b50509050806105c2576040517f08c379a00000000000000000000000000000000000000000000000000000000081526004016105b990610d77565b60405180910390fd5b5050565b5f60149054906101000a900460ff1681565b5f5f9054906101000a900473ffffffffffffffffffffffffffffffffffffffff1673ffffffffffffffffffffffffffffffffffffffff163373ffffffffffffffffffffffffffffffffffffffff1614610666576040517f08c379a000000000000000000000000000000000000000000000000000000000815260040161065d90610b36565b60405180910390fd5b5f60149054906101000a900460ff16156106b5576040517f08c379a00000000000000000000000000000000000000000000000000000000081526004016106ac90610b9e565b60405180910390fd5b60015f60146101000a81548160ff021916908315150217905550565b5f5f9054906101000a900473ffffffffffffffffffffffffffffffffffffffff1681565b5f5f9054906101000a900473ffffffffffffffffffffffffffffffffffffffff1673ffffffffffffffffffffffffffffffffffffffff163373ffffffffffffffffffffffffffffffffffffffff1614610783576040517f08c379a000000000000000000000000000000000000000000000000000000000815260040161077a90610b36565b60405180910390fd5b5f60149054906101000a900460ff166107d1576040517f08c379a00000000000000000000000000000000000000000000000000000000081526004016107c890610ddf565b60405180910390fd5b5f5f60146101000a81548160ff021916908315150217905550565b5f5f9054906101000a900473ffffffffffffffffffffffffffffffffffffffff1673ffffffffffffffffffffffffffffffffffffffff163373ffffffffffffffffffffffffffffffffffffffff161461087a576040517f08c379a000000000000000000000000000000000000000000000000000000000815260040161087190610b36565b60405180910390fd5b5f60149054906101000a900460ff16156108c9576040517f08c379a00000000000000000000000000000000000000000000000000000000081526004016108c090610b9e565b60405180910390fd5b662386f26fc100003411610912576040517f08c379a000000000000000000000000000000000000000000000000000000000815260040161090990610c06565b60405180910390fd5b3460015f3373ffffffffffffffffffffffffffffffffffffffff1673ffffffffffffffffffffffffffffffffffffffff1681526020019081526020015f205f82825461095e9190610dfd565b92505081905550565b662386f26fc1000081565b5f819050919050565b61098481610972565b82525050565b5f60208201905061099d5f83018461097b565b92915050565b5f5ffd5b5f73ffffffffffffffffffffffffffffffffffffffff82169050919050565b5f6109d0826109a7565b9050919050565b6109e0816109c6565b81146109ea575f5ffd5b50565b5f813590506109fb816109d7565b92915050565b5f60208284031215610a1657610a156109a3565b5b5f610a23848285016109ed565b91505092915050565b610a3581610972565b8114610a3f575f5ffd5b50565b5f81359050610a5081610a2c565b92915050565b5f60208284031215610a6b57610a6a6109a3565b5b5f610a7884828501610a42565b91505092915050565b5f8115159050919050565b610a9581610a81565b82525050565b5f602082019050610aae5f830184610a8c565b92915050565b610abd816109c6565b82525050565b5f602082019050610ad65f830184610ab4565b92915050565b5f82825260208201905092915050565b7f6e6f74206f776e657200000000000000000000000000000000000000000000005f82015250565b5f610b20600983610adc565b9150610b2b82610aec565b602082019050919050565b5f6020820190508181035f830152610b4d81610b14565b9050919050565b7f636f6e74726163742069732070617573656400000000000000000000000000005f82015250565b5f610b88601283610adc565b9150610b9382610b54565b602082019050919050565b5f6020820190508181035f830152610bb581610b7c565b9050919050565b7f6465706f73697420746f6f206c6f7700000000000000000000000000000000005f82015250565b5f610bf0600f83610adc565b9150610bfb82610bbc565b602082019050919050565b5f6020820190508181035f830152610c1d81610be4565b9050919050565b7f62616c616e636520746f6f206c6f7700000000000000000000000000000000005f82015250565b5f610c58600f83610adc565b9150610c6382610c24565b602082019050919050565b5f6020820190508181035f830152610c8581610c4c565b9050919050565b7f4e487b71000000000000000000000000000000000000000000000000000000005f52601160045260245ffd5b5f610cc382610972565b9150610cce83610972565b9250828203905081811115610ce657610ce5610c8c565b5b92915050565b5f81905092915050565b50565b5f610d045f83610cec565b9150610d0f82610cf6565b5f82019050919050565b5f610d2382610cf9565b9150819050919050565b7f455448207472616e73666572206661696c6564000000000000000000000000005f82015250565b5f610d61601383610adc565b9150610d6c82610d2d565b602082019050919050565b5f6020820190508181035f830152610d8e81610d55565b9050919050565b7f636f6e7472616374206973206e6f7420706175736564000000000000000000005f82015250565b5f610dc9601683610adc565b9150610dd482610d95565b602082019050919050565b5f6020820190508181035f830152610df681610dbd565b9050919050565b5f610e0782610972565b9150610e1283610972565b9250828201905080821115610e2a57610e29610c8c565b5b9291505056fea264697066735822122071f7107a84d005a6c2531b82c82d1d77435ae9f1b718cc16d57ca7d69bf23b6564736f6c634300081e0033",
					"opcodes": "PUSH1 0x80 PUSH1 0x40 MSTORE PUSH0 PUSH0 PUSH1 0x14 PUSH2 0x100 EXP DUP2 SLOAD DUP2 PUSH1 0xFF MUL NOT AND SWAP1 DUP4 ISZERO ISZERO MUL OR SWAP1 SSTORE POP CALLVALUE DUP1 ISZERO PUSH1 0x27 JUMPI PUSH0 PUSH0 REVERT JUMPDEST POP CALLER PUSH0 PUSH0 PUSH2 0x100 EXP DUP2 SLOAD DUP2 PUSH20 0xFFFFFFFFFFFFFFFFFFFFFFFFFFFFFFFFFFFFFFFF MUL NOT AND SWAP1 DUP4 PUSH20 0xFFFFFFFFFFFFFFFFFFFFFFFFFFFFFFFFFFFFFFFF AND MUL OR SWAP1 SSTORE POP PUSH2 0xE66 DUP1 PUSH2 0x74 PUSH0 CODECOPY PUSH0 RETURN INVALID PUSH1 0x80 PUSH1 0x40 MSTORE PUSH1 0x4 CALLDATASIZE LT PUSH2 0x85 JUMPI PUSH0 CALLDATALOAD PUSH1 0xE0 SHR DUP1 PUSH4 0x8456CB59 GT PUSH2 0x58 JUMPI DUP1 PUSH4 0x8456CB59 EQ PUSH2 0x141 JUMPI DUP1 PUSH4 0x8DA5CB5B EQ PUSH2 0x157 JUMPI DUP1 PUSH4 0xBE9A6555 EQ PUSH2 0x181 JUMPI DUP1 PUSH4 0xD0E30DB0 EQ PUSH2 0x197 JUMPI DUP1 PUSH4 0xE1E158A5 EQ PUSH2 0x1A1 JUMPI PUSH2 0x85 JUMP JUMPDEST DUP1 PUSH4 0x12065FE0 EQ PUSH2 0x89 JUMPI DUP1 PUSH4 0x27E235E3 EQ PUSH2 0xB3 JUMPI DUP1 PUSH4 0x2E1A7D4D EQ PUSH2 0xEF JUMPI DUP1 PUSH4 0x5C975ABB EQ PUSH2 0x117 JUMPI JUMPDEST PUSH0 PUSH0 REVERT JUMPDEST CALLVALUE DUP1 ISZERO PUSH2 0x94 JUMPI PUSH0 PUSH0 REVERT JUMPDEST POP PUSH2 0x9D PUSH2 0x1CB JUMP JUMPDEST PUSH1 0x40 MLOAD PUSH2 0xAA SWAP2 SWAP1 PUSH2 0x98A JUMP JUMPDEST PUSH1 0x40 MLOAD DUP1 SWAP2 SUB SWAP1 RETURN JUMPDEST CALLVALUE DUP1 ISZERO PUSH2 0xBE JUMPI PUSH0 PUSH0 REVERT JUMPDEST POP PUSH2 0xD9 PUSH1 0x4 DUP1 CALLDATASIZE SUB DUP2 ADD SWAP1 PUSH2 0xD4 SWAP2 SWAP1 PUSH2 0xA01 JUMP JUMPDEST PUSH2 0x2EC JUMP JUMPDEST PUSH1 0x40 MLOAD PUSH2 0xE6 SWAP2 SWAP1 PUSH2 0x98A JUMP JUMPDEST PUSH1 0x40 MLOAD DUP1 SWAP2 SUB SWAP1 RETURN JUMPDEST CALLVALUE DUP1 ISZERO PUSH2 0xFA JUMPI PUSH0 PUSH0 REVERT JUMPDEST POP PUSH2 0x115 PUSH1 0x4 DUP1 CALLDATASIZE SUB DUP2 ADD SWAP1 PUSH2 0x110 SWAP2 SWAP1 PUSH2 0xA56 JUMP JUMPDEST PUSH2 0x301 JUMP JUMPDEST STOP JUMPDEST CALLVALUE DUP1 ISZERO PUSH2 0x122 JUMPI PUSH0 PUSH0 REVERT JUMPDEST POP PUSH2 0x12B PUSH2 0x5C6 JUMP JUMPDEST PUSH1 0x40 MLOAD PUSH2 0x138 SWAP2 SWAP1 PUSH2 0xA9B JUMP JUMPDEST PUSH1 0x40 MLOAD DUP1 SWAP2 SUB SWAP1 RETURN JUMPDEST CALLVALUE DUP1 ISZERO PUSH2 0x14C JUMPI PUSH0 PUSH0 REVERT JUMPDEST POP PUSH2 0x155 PUSH2 0x5D8 JUMP JUMPDEST STOP JUMPDEST CALLVALUE DUP1 ISZERO PUSH2 0x162 JUMPI PUSH0 PUSH0 REVERT JUMPDEST POP PUSH2 0x16B PUSH2 0x6D1 JUMP JUMPDEST PUSH1 0x40 MLOAD PUSH2 0x178 SWAP2 SWAP1 PUSH2 0xAC3 JUMP JUMPDEST PUSH1 0x40 MLOAD DUP1 SWAP2 SUB SWAP1 RETURN JUMPDEST CALLVALUE DUP1 ISZERO PUSH2 0x18C JUMPI PUSH0 PUSH0 REVERT JUMPDEST POP PUSH2 0x195 PUSH2 0x6F5 JUMP JUMPDEST STOP JUMPDEST PUSH2 0x19F PUSH2 0x7EC JUMP JUMPDEST STOP JUMPDEST CALLVALUE DUP1 ISZERO PUSH2 0x1AC JUMPI PUSH0 PUSH0 REVERT JUMPDEST POP PUSH2 0x1B5 PUSH2 0x967 JUMP JUMPDEST PUSH1 0x40 MLOAD PUSH2 0x1C2 SWAP2 SWAP1 PUSH2 0x98A JUMP JUMPDEST PUSH1 0x40 MLOAD DUP1 SWAP2 SUB SWAP1 RETURN JUMPDEST PUSH0 PUSH0 PUSH0 SWAP1 SLOAD SWAP1 PUSH2 0x100 EXP SWAP1 DIV PUSH20 0xFFFFFFFFFFFFFFFFFFFFFFFFFFFFFFFFFFFFFFFF AND PUSH20 0xFFFFFFFFFFFFFFFFFFFFFFFFFFFFFFFFFFFFFFFF AND CALLER PUSH20 0xFFFFFFFFFFFFFFFFFFFFFFFFFFFFFFFFFFFFFFFF AND EQ PUSH2 0x25A JUMPI PUSH1 0x40 MLOAD PUSH32 0x8C379A000000000000000000000000000000000000000000000000000000000 DUP2 MSTORE PUSH1 0x4 ADD PUSH2 0x251 SWAP1 PUSH2 0xB36 JUMP JUMPDEST PUSH1 0x40 MLOAD DUP1 SWAP2 SUB SWAP1 REVERT JUMPDEST PUSH0 PUSH1 0x14 SWAP1 SLOAD SWAP1 PUSH2 0x100 EXP SWAP1 DIV PUSH1 0xFF AND ISZERO PUSH2 0x2A9 JUMPI PUSH1 0x40 MLOAD PUSH32 0x8C379A000000000000000000000000000000000000000000000000000000000 DUP2 MSTORE PUSH1 0x4 ADD PUSH2 0x2A0 SWAP1 PUSH2 0xB9E JUMP JUMPDEST PUSH1 0x40 MLOAD DUP1 SWAP2 SUB SWAP1 REVERT JUMPDEST PUSH1 0x1 PUSH0 CALLER PUSH20 0xFFFFFFFFFFFFFFFFFFFFFFFFFFFFFFFFFFFFFFFF AND PUSH20 0xFFFFFFFFFFFFFFFFFFFFFFFFFFFFFFFFFFFFFFFF AND DUP2 MSTORE PUSH1 0x20 ADD SWAP1 DUP2 MSTORE PUSH1 0x20 ADD PUSH0 KECCAK256 SLOAD SWAP1 POP SWAP1 JUMP JUMPDEST PUSH1 0x1 PUSH1 0x20 MSTORE DUP1 PUSH0 MSTORE PUSH1 0x40 PUSH0 KECCAK256 PUSH0 SWAP2 POP SWAP1 POP SLOAD DUP2 JUMP JUMPDEST PUSH0 PUSH0 SWAP1 SLOAD SWAP1 PUSH2 0x100 EXP SWAP1 DIV PUSH20 0xFFFFFFFFFFFFFFFFFFFFFFFFFFFFFFFFFFFFFFFF AND PUSH20 0xFFFFFFFFFFFFFFFFFFFFFFFFFFFFFFFFFFFFFFFF AND CALLER PUSH20 0xFFFFFFFFFFFFFFFFFFFFFFFFFFFFFFFFFFFFFFFF AND EQ PUSH2 0x38F JUMPI PUSH1 0x40 MLOAD PUSH32 0x8C379A000000000000000000000000000000000000000000000000000000000 DUP2 MSTORE PUSH1 0x4 ADD PUSH2 0x386 SWAP1 PUSH2 0xB36 JUMP JUMPDEST PUSH1 0x40 MLOAD DUP1 SWAP2 SUB SWAP1 REVERT JUMPDEST PUSH0 PUSH1 0x14 SWAP1 SLOAD SWAP1 PUSH2 0x100 EXP SWAP1 DIV PUSH1 0xFF AND ISZERO PUSH2 0x3DE JUMPI PUSH1 0x40 MLOAD PUSH32 0x8C379A000000000000000000000000000000000000000000000000000000000 DUP2 MSTORE PUSH1 0x4 ADD PUSH2 0x3D5 SWAP1 PUSH2 0xB9E JUMP JUMPDEST PUSH1 0x40 MLOAD DUP1 SWAP2 SUB SWAP1 REVERT JUMPDEST PUSH7 0x2386F26FC10000 DUP2 GT PUSH2 0x427 JUMPI PUSH1 0x40 MLOAD PUSH32 0x8C379A000000000000000000000000000000000000000000000000000000000 DUP2 MSTORE PUSH1 0x4 ADD PUSH2 0x41E SWAP1 PUSH2 0xC06 JUMP JUMPDEST PUSH1 0x40 MLOAD DUP1 SWAP2 SUB SWAP1 REVERT JUMPDEST DUP1 PUSH1 0x1 PUSH0 CALLER PUSH20 0xFFFFFFFFFFFFFFFFFFFFFFFFFFFFFFFFFFFFFFFF AND PUSH20 0xFFFFFFFFFFFFFFFFFFFFFFFFFFFFFFFFFFFFFFFF AND DUP2 MSTORE PUSH1 0x20 ADD SWAP1 DUP2 MSTORE PUSH1 0x20 ADD PUSH0 KECCAK256 SLOAD LT ISZERO PUSH2 0x4A7 JUMPI PUSH1 0x40 MLOAD PUSH32 0x8C379A000000000000000000000000000000000000000000000000000000000 DUP2 MSTORE PUSH1 0x4 ADD PUSH2 0x49E SWAP1 PUSH2 0xC6E JUMP JUMPDEST PUSH1 0x40 MLOAD DUP1 SWAP2 SUB SWAP1 REVERT JUMPDEST DUP1 PUSH1 0x1 PUSH0 CALLER PUSH20 0xFFFFFFFFFFFFFFFFFFFFFFFFFFFFFFFFFFFFFFFF AND PUSH20 0xFFFFFFFFFFFFFFFFFFFFFFFFFFFFFFFFFFFFFFFF AND DUP2 MSTORE PUSH1 0x20 ADD SWAP1 DUP2 MSTORE PUSH1 0x20 ADD PUSH0 KECCAK256 PUSH0 DUP3 DUP3 SLOAD PUSH2 0x4F3 SWAP2 SWAP1 PUSH2 0xCB9 JUMP JUMPDEST SWAP3 POP POP DUP2 SWAP1 SSTORE POP PUSH0 PUSH0 PUSH0 SWAP1 SLOAD SWAP1 PUSH2 0x100 EXP SWAP1 DIV PUSH20 0xFFFFFFFFFFFFFFFFFFFFFFFFFFFFFFFFFFFFFFFF AND PUSH20 0xFFFFFFFFFFFFFFFFFFFFFFFFFFFFFFFFFFFFFFFF AND DUP3 PUSH1 0x40 MLOAD PUSH2 0x53F SWAP1 PUSH2 0xD19 JUMP JUMPDEST PUSH0 PUSH1 0x40 MLOAD DUP1 DUP4 SUB DUP2 DUP6 DUP8 GAS CALL SWAP3 POP POP POP RETURNDATASIZE DUP1 PUSH0 DUP2 EQ PUSH2 0x579 JUMPI PUSH1 0x40 MLOAD SWAP2 POP PUSH1 0x1F NOT PUSH1 0x3F RETURNDATASIZE ADD AND DUP3 ADD PUSH1 0x40 MSTORE RETURNDATASIZE DUP3 MSTORE RETURNDATASIZE PUSH0 PUSH1 0x20 DUP5 ADD RETURNDATACOPY PUSH2 0x57E JUMP JUMPDEST PUSH1 0x60 SWAP2 POP JUMPDEST POP POP SWAP1 POP DUP1 PUSH2 0x5C2 JUMPI PUSH1 0x40 MLOAD PUSH32 0x8C379A000000000000000000000000000000000000000000000000000000000 DUP2 MSTORE PUSH1 0x4 ADD PUSH2 0x5B9 SWAP1 PUSH2 0xD77 JUMP JUMPDEST PUSH1 0x40 MLOAD DUP1 SWAP2 SUB SWAP1 REVERT JUMPDEST POP POP JUMP JUMPDEST PUSH0 PUSH1 0x14 SWAP1 SLOAD SWAP1 PUSH2 0x100 EXP SWAP1 DIV PUSH1 0xFF AND DUP2 JUMP JUMPDEST PUSH0 PUSH0 SWAP1 SLOAD SWAP1 PUSH2 0x100 EXP SWAP1 DIV PUSH20 0xFFFFFFFFFFFFFFFFFFFFFFFFFFFFFFFFFFFFFFFF AND PUSH20 0xFFFFFFFFFFFFFFFFFFFFFFFFFFFFFFFFFFFFFFFF AND CALLER PUSH20 0xFFFFFFFFFFFFFFFFFFFFFFFFFFFFFFFFFFFFFFFF AND EQ PUSH2 0x666 JUMPI PUSH1 0x40 MLOAD PUSH32 0x8C379A000000000000000000000000000000000000000000000000000000000 DUP2 MSTORE PUSH1 0x4 ADD PUSH2 0x65D SWAP1 PUSH2 0xB36 JUMP JUMPDEST PUSH1 0x40 MLOAD DUP1 SWAP2 SUB SWAP1 REVERT JUMPDEST PUSH0 PUSH1 0x14 SWAP1 SLOAD SWAP1 PUSH2 0x100 EXP SWAP1 DIV PUSH1 0xFF AND ISZERO PUSH2 0x6B5 JUMPI PUSH1 0x40 MLOAD PUSH32 0x8C379A000000000000000000000000000000000000000000000000000000000 DUP2 MSTORE PUSH1 0x4 ADD PUSH2 0x6AC SWAP1 PUSH2 0xB9E JUMP JUMPDEST PUSH1 0x40 MLOAD DUP1 SWAP2 SUB SWAP1 REVERT JUMPDEST PUSH1 0x1 PUSH0 PUSH1 0x14 PUSH2 0x100 EXP DUP2 SLOAD DUP2 PUSH1 0xFF MUL NOT AND SWAP1 DUP4 ISZERO ISZERO MUL OR SWAP1 SSTORE POP JUMP JUMPDEST PUSH0 PUSH0 SWAP1 SLOAD SWAP1 PUSH2 0x100 EXP SWAP1 DIV PUSH20 0xFFFFFFFFFFFFFFFFFFFFFFFFFFFFFFFFFFFFFFFF AND DUP2 JUMP JUMPDEST PUSH0 PUSH0 SWAP1 SLOAD SWAP1 PUSH2 0x100 EXP SWAP1 DIV PUSH20 0xFFFFFFFFFFFFFFFFFFFFFFFFFFFFFFFFFFFFFFFF AND PUSH20 0xFFFFFFFFFFFFFFFFFFFFFFFFFFFFFFFFFFFFFFFF AND CALLER PUSH20 0xFFFFFFFFFFFFFFFFFFFFFFFFFFFFFFFFFFFFFFFF AND EQ PUSH2 0x783 JUMPI PUSH1 0x40 MLOAD PUSH32 0x8C379A000000000000000000000000000000000000000000000000000000000 DUP2 MSTORE PUSH1 0x4 ADD PUSH2 0x77A SWAP1 PUSH2 0xB36 JUMP JUMPDEST PUSH1 0x40 MLOAD DUP1 SWAP2 SUB SWAP1 REVERT JUMPDEST PUSH0 PUSH1 0x14 SWAP1 SLOAD SWAP1 PUSH2 0x100 EXP SWAP1 DIV PUSH1 0xFF AND PUSH2 0x7D1 JUMPI PUSH1 0x40 MLOAD PUSH32 0x8C379A000000000000000000000000000000000000000000000000000000000 DUP2 MSTORE PUSH1 0x4 ADD PUSH2 0x7C8 SWAP1 PUSH2 0xDDF JUMP JUMPDEST PUSH1 0x40 MLOAD DUP1 SWAP2 SUB SWAP1 REVERT JUMPDEST PUSH0 PUSH0 PUSH1 0x14 PUSH2 0x100 EXP DUP2 SLOAD DUP2 PUSH1 0xFF MUL NOT AND SWAP1 DUP4 ISZERO ISZERO MUL OR SWAP1 SSTORE POP JUMP JUMPDEST PUSH0 PUSH0 SWAP1 SLOAD SWAP1 PUSH2 0x100 EXP SWAP1 DIV PUSH20 0xFFFFFFFFFFFFFFFFFFFFFFFFFFFFFFFFFFFFFFFF AND PUSH20 0xFFFFFFFFFFFFFFFFFFFFFFFFFFFFFFFFFFFFFFFF AND CALLER PUSH20 0xFFFFFFFFFFFFFFFFFFFFFFFFFFFFFFFFFFFFFFFF AND EQ PUSH2 0x87A JUMPI PUSH1 0x40 MLOAD PUSH32 0x8C379A000000000000000000000000000000000000000000000000000000000 DUP2 MSTORE PUSH1 0x4 ADD PUSH2 0x871 SWAP1 PUSH2 0xB36 JUMP JUMPDEST PUSH1 0x40 MLOAD DUP1 SWAP2 SUB SWAP1 REVERT JUMPDEST PUSH0 PUSH1 0x14 SWAP1 SLOAD SWAP1 PUSH2 0x100 EXP SWAP1 DIV PUSH1 0xFF AND ISZERO PUSH2 0x8C9 JUMPI PUSH1 0x40 MLOAD PUSH32 0x8C379A000000000000000000000000000000000000000000000000000000000 DUP2 MSTORE PUSH1 0x4 ADD PUSH2 0x8C0 SWAP1 PUSH2 0xB9E JUMP JUMPDEST PUSH1 0x40 MLOAD DUP1 SWAP2 SUB SWAP1 REVERT JUMPDEST PUSH7 0x2386F26FC10000 CALLVALUE GT PUSH2 0x912 JUMPI PUSH1 0x40 MLOAD PUSH32 0x8C379A000000000000000000000000000000000000000000000000000000000 DUP2 MSTORE PUSH1 0x4 ADD PUSH2 0x909 SWAP1 PUSH2 0xC06 JUMP JUMPDEST PUSH1 0x40 MLOAD DUP1 SWAP2 SUB SWAP1 REVERT JUMPDEST CALLVALUE PUSH1 0x1 PUSH0 CALLER PUSH20 0xFFFFFFFFFFFFFFFFFFFFFFFFFFFFFFFFFFFFFFFF AND PUSH20 0xFFFFFFFFFFFFFFFFFFFFFFFFFFFFFFFFFFFFFFFF AND DUP2 MSTORE PUSH1 0x20 ADD SWAP1 DUP2 MSTORE PUSH1 0x20 ADD PUSH0 KECCAK256 PUSH0 DUP3 DUP3 SLOAD PUSH2 0x95E SWAP2 SWAP1 PUSH2 0xDFD JUMP JUMPDEST SWAP3 POP POP DUP2 SWAP1 SSTORE POP JUMP JUMPDEST PUSH7 0x2386F26FC10000 DUP2 JUMP JUMPDEST PUSH0 DUP2 SWAP1 POP SWAP2 SWAP1 POP JUMP JUMPDEST PUSH2 0x984 DUP2 PUSH2 0x972 JUMP JUMPDEST DUP3 MSTORE POP POP JUMP JUMPDEST PUSH0 PUSH1 0x20 DUP3 ADD SWAP1 POP PUSH2 0x99D PUSH0 DUP4 ADD DUP5 PUSH2 0x97B JUMP JUMPDEST SWAP3 SWAP2 POP POP JUMP JUMPDEST PUSH0 PUSH0 REVERT JUMPDEST PUSH0 PUSH20 0xFFFFFFFFFFFFFFFFFFFFFFFFFFFFFFFFFFFFFFFF DUP3 AND SWAP1 POP SWAP2 SWAP1 POP JUMP JUMPDEST PUSH0 PUSH2 0x9D0 DUP3 PUSH2 0x9A7 JUMP JUMPDEST SWAP1 POP SWAP2 SWAP1 POP JUMP JUMPDEST PUSH2 0x9E0 DUP2 PUSH2 0x9C6 JUMP JUMPDEST DUP2 EQ PUSH2 0x9EA JUMPI PUSH0 PUSH0 REVERT JUMPDEST POP JUMP JUMPDEST PUSH0 DUP2 CALLDATALOAD SWAP1 POP PUSH2 0x9FB DUP2 PUSH2 0x9D7 JUMP JUMPDEST SWAP3 SWAP2 POP POP JUMP JUMPDEST PUSH0 PUSH1 0x20 DUP3 DUP5 SUB SLT ISZERO PUSH2 0xA16 JUMPI PUSH2 0xA15 PUSH2 0x9A3 JUMP JUMPDEST JUMPDEST PUSH0 PUSH2 0xA23 DUP5 DUP3 DUP6 ADD PUSH2 0x9ED JUMP JUMPDEST SWAP2 POP POP SWAP3 SWAP2 POP POP JUMP JUMPDEST PUSH2 0xA35 DUP2 PUSH2 0x972 JUMP JUMPDEST DUP2 EQ PUSH2 0xA3F JUMPI PUSH0 PUSH0 REVERT JUMPDEST POP JUMP JUMPDEST PUSH0 DUP2 CALLDATALOAD SWAP1 POP PUSH2 0xA50 DUP2 PUSH2 0xA2C JUMP JUMPDEST SWAP3 SWAP2 POP POP JUMP JUMPDEST PUSH0 PUSH1 0x20 DUP3 DUP5 SUB SLT ISZERO PUSH2 0xA6B JUMPI PUSH2 0xA6A PUSH2 0x9A3 JUMP JUMPDEST JUMPDEST PUSH0 PUSH2 0xA78 DUP5 DUP3 DUP6 ADD PUSH2 0xA42 JUMP JUMPDEST SWAP2 POP POP SWAP3 SWAP2 POP POP JUMP JUMPDEST PUSH0 DUP2 ISZERO ISZERO SWAP1 POP SWAP2 SWAP1 POP JUMP JUMPDEST PUSH2 0xA95 DUP2 PUSH2 0xA81 JUMP JUMPDEST DUP3 MSTORE POP POP JUMP JUMPDEST PUSH0 PUSH1 0x20 DUP3 ADD SWAP1 POP PUSH2 0xAAE PUSH0 DUP4 ADD DUP5 PUSH2 0xA8C JUMP JUMPDEST SWAP3 SWAP2 POP POP JUMP JUMPDEST PUSH2 0xABD DUP2 PUSH2 0x9C6 JUMP JUMPDEST DUP3 MSTORE POP POP JUMP JUMPDEST PUSH0 PUSH1 0x20 DUP3 ADD SWAP1 POP PUSH2 0xAD6 PUSH0 DUP4 ADD DUP5 PUSH2 0xAB4 JUMP JUMPDEST SWAP3 SWAP2 POP POP JUMP JUMPDEST PUSH0 DUP3 DUP3 MSTORE PUSH1 0x20 DUP3 ADD SWAP1 POP SWAP3 SWAP2 POP POP JUMP JUMPDEST PUSH32 0x6E6F74206F776E65720000000000000000000000000000000000000000000000 PUSH0 DUP3 ADD MSTORE POP JUMP JUMPDEST PUSH0 PUSH2 0xB20 PUSH1 0x9 DUP4 PUSH2 0xADC JUMP JUMPDEST SWAP2 POP PUSH2 0xB2B DUP3 PUSH2 0xAEC JUMP JUMPDEST PUSH1 0x20 DUP3 ADD SWAP1 POP SWAP2 SWAP1 POP JUMP JUMPDEST PUSH0 PUSH1 0x20 DUP3 ADD SWAP1 POP DUP2 DUP2 SUB PUSH0 DUP4 ADD MSTORE PUSH2 0xB4D DUP2 PUSH2 0xB14 JUMP JUMPDEST SWAP1 POP SWAP2 SWAP1 POP JUMP JUMPDEST PUSH32 0x636F6E7472616374206973207061757365640000000000000000000000000000 PUSH0 DUP3 ADD MSTORE POP JUMP JUMPDEST PUSH0 PUSH2 0xB88 PUSH1 0x12 DUP4 PUSH2 0xADC JUMP JUMPDEST SWAP2 POP PUSH2 0xB93 DUP3 PUSH2 0xB54 JUMP JUMPDEST PUSH1 0x20 DUP3 ADD SWAP1 POP SWAP2 SWAP1 POP JUMP JUMPDEST PUSH0 PUSH1 0x20 DUP3 ADD SWAP1 POP DUP2 DUP2 SUB PUSH0 DUP4 ADD MSTORE PUSH2 0xBB5 DUP2 PUSH2 0xB7C JUMP JUMPDEST SWAP1 POP SWAP2 SWAP1 POP JUMP JUMPDEST PUSH32 0x6465706F73697420746F6F206C6F770000000000000000000000000000000000 PUSH0 DUP3 ADD MSTORE POP JUMP JUMPDEST PUSH0 PUSH2 0xBF0 PUSH1 0xF DUP4 PUSH2 0xADC JUMP JUMPDEST SWAP2 POP PUSH2 0xBFB DUP3 PUSH2 0xBBC JUMP JUMPDEST PUSH1 0x20 DUP3 ADD SWAP1 POP SWAP2 SWAP1 POP JUMP JUMPDEST PUSH0 PUSH1 0x20 DUP3 ADD SWAP1 POP DUP2 DUP2 SUB PUSH0 DUP4 ADD MSTORE PUSH2 0xC1D DUP2 PUSH2 0xBE4 JUMP JUMPDEST SWAP1 POP SWAP2 SWAP1 POP JUMP JUMPDEST PUSH32 0x62616C616E636520746F6F206C6F770000000000000000000000000000000000 PUSH0 DUP3 ADD MSTORE POP JUMP JUMPDEST PUSH0 PUSH2 0xC58 PUSH1 0xF DUP4 PUSH2 0xADC JUMP JUMPDEST SWAP2 POP PUSH2 0xC63 DUP3 PUSH2 0xC24 JUMP JUMPDEST PUSH1 0x20 DUP3 ADD SWAP1 POP SWAP2 SWAP1 POP JUMP JUMPDEST PUSH0 PUSH1 0x20 DUP3 ADD SWAP1 POP DUP2 DUP2 SUB PUSH0 DUP4 ADD MSTORE PUSH2 0xC85 DUP2 PUSH2 0xC4C JUMP JUMPDEST SWAP1 POP SWAP2 SWAP1 POP JUMP JUMPDEST PUSH32 0x4E487B7100000000000000000000000000000000000000000000000000000000 PUSH0 MSTORE PUSH1 0x11 PUSH1 0x4 MSTORE PUSH1 0x24 PUSH0 REVERT JUMPDEST PUSH0 PUSH2 0xCC3 DUP3 PUSH2 0x972 JUMP JUMPDEST SWAP2 POP PUSH2 0xCCE DUP4 PUSH2 0x972 JUMP JUMPDEST SWAP3 POP DUP3 DUP3 SUB SWAP1 POP DUP2 DUP2 GT ISZERO PUSH2 0xCE6 JUMPI PUSH2 0xCE5 PUSH2 0xC8C JUMP JUMPDEST JUMPDEST SWAP3 SWAP2 POP POP JUMP JUMPDEST PUSH0 DUP2 SWAP1 POP SWAP3 SWAP2 POP POP JUMP JUMPDEST POP JUMP JUMPDEST PUSH0 PUSH2 0xD04 PUSH0 DUP4 PUSH2 0xCEC JUMP JUMPDEST SWAP2 POP PUSH2 0xD0F DUP3 PUSH2 0xCF6 JUMP JUMPDEST PUSH0 DUP3 ADD SWAP1 POP SWAP2 SWAP1 POP JUMP JUMPDEST PUSH0 PUSH2 0xD23 DUP3 PUSH2 0xCF9 JUMP JUMPDEST SWAP2 POP DUP2 SWAP1 POP SWAP2 SWAP1 POP JUMP JUMPDEST PUSH32 0x455448207472616E73666572206661696C656400000000000000000000000000 PUSH0 DUP3 ADD MSTORE POP JUMP JUMPDEST PUSH0 PUSH2 0xD61 PUSH1 0x13 DUP4 PUSH2 0xADC JUMP JUMPDEST SWAP2 POP PUSH2 0xD6C DUP3 PUSH2 0xD2D JUMP JUMPDEST PUSH1 0x20 DUP3 ADD SWAP1 POP SWAP2 SWAP1 POP JUMP JUMPDEST PUSH0 PUSH1 0x20 DUP3 ADD SWAP1 POP DUP2 DUP2 SUB PUSH0 DUP4 ADD MSTORE PUSH2 0xD8E DUP2 PUSH2 0xD55 JUMP JUMPDEST SWAP1 POP SWAP2 SWAP1 POP JUMP JUMPDEST PUSH32 0x636F6E7472616374206973206E6F742070617573656400000000000000000000 PUSH0 DUP3 ADD MSTORE POP JUMP JUMPDEST PUSH0 PUSH2 0xDC9 PUSH1 0x16 DUP4 PUSH2 0xADC JUMP JUMPDEST SWAP2 POP PUSH2 0xDD4 DUP3 PUSH2 0xD95 JUMP JUMPDEST PUSH1 0x20 DUP3 ADD SWAP1 POP SWAP2 SWAP1 POP JUMP JUMPDEST PUSH0 PUSH1 0x20 DUP3 ADD SWAP1 POP DUP2 DUP2 SUB PUSH0 DUP4 ADD MSTORE PUSH2 0xDF6 DUP2 PUSH2 0xDBD JUMP JUMPDEST SWAP1 POP SWAP2 SWAP1 POP JUMP JUMPDEST PUSH0 PUSH2 0xE07 DUP3 PUSH2 0x972 JUMP JUMPDEST SWAP2 POP PUSH2 0xE12 DUP4 PUSH2 0x972 JUMP JUMPDEST SWAP3 POP DUP3 DUP3 ADD SWAP1 POP DUP1 DUP3 GT ISZERO PUSH2 0xE2A JUMPI PUSH2 0xE29 PUSH2 0xC8C JUMP JUMPDEST JUMPDEST SWAP3 SWAP2 POP POP JUMP INVALID LOG2 PUSH5 0x6970667358 0x22 SLT KECCAK256 PUSH18 0xF7107A84D005A6C2531B82C82D1D77435AE9 CALL 0xB7 XOR 0xCC AND 0xD5 PUSH29 0xA7D69BF23B6564736F6C634300081E0033000000000000000000000000 "
				},
				"gasEstimates": {
					"creation": {
						"codeDepositCost": "737200",
						"executionCost": "49350",
						"totalCost": "786550"
					},
					"external": {
						"MIN_DEPOSIT()": "413",
						"balances(address)": "2825",
						"deposit()": "infinite",
						"getBalance()": "6893",
						"owner()": "2529",
						"pause()": "28832",
						"paused()": "2583",
						"start()": "28872",
						"withdraw(uint256)": "infinite"
					}
				},
				"methodIdentifiers": {
					"MIN_DEPOSIT()": "e1e158a5",
					"balances(address)": "27e235e3",
					"deposit()": "d0e30db0",
					"getBalance()": "12065fe0",
					"owner()": "8da5cb5b",
					"pause()": "8456cb59",
					"paused()": "5c975abb",
					"start()": "be9a6555",
					"withdraw(uint256)": "2e1a7d4d"
				}
			},
			"storageLayout": {
				"storage": [
					{
						"astId": 3,
						"contract": "contracts/homework/07 PamentContract.sol:PaymentContract",
						"label": "owner",
						"offset": 0,
						"slot": "0",
						"type": "t_address"
					},
					{
						"astId": 6,
						"contract": "contracts/homework/07 PamentContract.sol:PaymentContract",
						"label": "paused",
						"offset": 20,
						"slot": "0",
						"type": "t_bool"
					},
					{
						"astId": 10,
						"contract": "contracts/homework/07 PamentContract.sol:PaymentContract",
						"label": "balances",
						"offset": 0,
						"slot": "1",
						"type": "t_mapping(t_address,t_uint256)"
					}
				],
				"types": {
					"t_address": {
						"encoding": "inplace",
						"label": "address",
						"numberOfBytes": "20"
					},
					"t_bool": {
						"encoding": "inplace",
						"label": "bool",
						"numberOfBytes": "1"
					},
					"t_mapping(t_address,t_uint256)": {
						"encoding": "mapping",
						"key": "t_address",
						"label": "mapping(address => uint256)",
						"numberOfBytes": "32",
						"value": "t_uint256"
					},
					"t_uint256": {
						"encoding": "inplace",
						"label": "uint256",
						"numberOfBytes": "32"
					}
				}
			},
			"userdoc": {
				"kind": "user",
				"methods": {},
				"version": 1
			}
		}
	}
}