{
	"contracts/homework/04 ArryOptimizedCode.sol": {
		"ArryOptimizedCode": {
			"abi": [
				{
					"inputs": [
						{
							"internalType": "uint256",
							"name": "",
							"type": "uint256"
						}
					],
					"name": "data",
					"outputs": [
						{
							"internalType": "uint256",
							"name": "",
							"type": "uint256"
						}
					],
					"stateMutability": "view",
					"type": "function"
				},
				{
					"inputs": [
						{
							"internalType": "uint256[]",
							"name": "values",
							"type": "uint256[]"
						}
					],
					"name": "process1",
					"outputs": [],
					"stateMutability": "nonpayable",
					"type": "function"
				},
				{
					"inputs": [
						{
							"internalType": "uint256[]",
							"name": "values",
							"type": "uint256[]"
						}
					],
					"name": "process2",
					"outputs": [],
					"stateMutability": "nonpayable",
					"type": "function"
				}
			],
			"devdoc": {
				"kind": "dev",
				"methods": {},
				"version": 1
			},
			"evm": {
				"assembly": "    /* \"contracts/homework/04 ArryOptimizedCode.sol\":59:602  contract ArryOptimizedCode {... */\n  mstore(0x40, 0x80)\n  callvalue\n  dup1\n  iszero\n  tag_1\n  jumpi\n  revert(0x00, 0x00)\ntag_1:\n  pop\n  dataSize(sub_0)\n  dup1\n  dataOffset(sub_0)\n  0x00\n  codecopy\n  0x00\n  return\nstop\n\nsub_0: assembly {\n        /* \"contracts/homework/04 ArryOptimizedCode.sol\":59:602  contract ArryOptimizedCode {... */\n      mstore(0x40, 0x80)\n      callvalue\n      dup1\n      iszero\n      tag_1\n      jumpi\n      revert(0x00, 0x00)\n    tag_1:\n      pop\n      jumpi(tag_2, lt(calldatasize, 0x04))\n      shr(0xe0, calldataload(0x00))\n      dup1\n      0x442dc193\n      eq\n      tag_3\n      jumpi\n      dup1\n      0x85ad8a8d\n      eq\n      tag_4\n      jumpi\n      dup1\n      0xf0ba8440\n      eq\n      tag_5\n      jumpi\n    tag_2:\n      revert(0x00, 0x00)\n        /* \"contracts/homework/04 ArryOptimizedCode.sol\":339:597  function process2(uint[] calldata values) public {... */\n    tag_3:\n      tag_6\n      0x04\n      dup1\n      calldatasize\n      sub\n      dup2\n      add\n      swap1\n      tag_7\n      swap2\n      swap1\n      tag_8\n      jump\t// in\n    tag_7:\n      tag_9\n      jump\t// in\n    tag_6:\n      stop\n        /* \"contracts/homework/04 ArryOptimizedCode.sol\":124:329  function process1(uint[] memory values) public {... */\n    tag_4:\n      tag_10\n      0x04\n      dup1\n      calldatasize\n      sub\n      dup2\n      add\n      swap1\n      tag_11\n      swap2\n      swap1\n      tag_12\n      jump\t// in\n    tag_11:\n      tag_13\n      jump\t// in\n    tag_10:\n      stop\n        /* \"contracts/homework/04 ArryOptimizedCode.sol\":93:111  uint[] public data */\n    tag_5:\n      tag_14\n      0x04\n      dup1\n      calldatasize\n      sub\n      dup2\n      add\n      swap1\n      tag_15\n      swap2\n      swap1\n      tag_16\n      jump\t// in\n    tag_15:\n      tag_17\n      jump\t// in\n    tag_14:\n      mload(0x40)\n      tag_18\n      swap2\n      swap1\n      tag_19\n      jump\t// in\n    tag_18:\n      mload(0x40)\n      dup1\n      swap2\n      sub\n      swap1\n      return\n        /* \"contracts/homework/04 ArryOptimizedCode.sol\":339:597  function process2(uint[] calldata values) public {... */\n    tag_9:\n        /* \"contracts/homework/04 ArryOptimizedCode.sol\":399:407  uint len */\n      0x00\n        /* \"contracts/homework/04 ArryOptimizedCode.sol\":410:416  values */\n      dup3\n      dup3\n        /* \"contracts/homework/04 ArryOptimizedCode.sol\":410:423  values.length */\n      swap1\n      pop\n        /* \"contracts/homework/04 ArryOptimizedCode.sol\":399:423  uint len = values.length */\n      swap1\n      pop\n        /* \"contracts/homework/04 ArryOptimizedCode.sol\":438:444  uint i */\n      0x00\n        /* \"contracts/homework/04 ArryOptimizedCode.sol\":447:448  0 */\n      0x00\n        /* \"contracts/homework/04 ArryOptimizedCode.sol\":438:448  uint i = 0 */\n      swap1\n      pop\n        /* \"contracts/homework/04 ArryOptimizedCode.sol\":434:590  for(uint i = 0; i < len; ) {... */\n    tag_21:\n        /* \"contracts/homework/04 ArryOptimizedCode.sol\":454:457  len */\n      dup2\n        /* \"contracts/homework/04 ArryOptimizedCode.sol\":450:451  i */\n      dup2\n        /* \"contracts/homework/04 ArryOptimizedCode.sol\":450:457  i < len */\n      lt\n        /* \"contracts/homework/04 ArryOptimizedCode.sol\":434:590  for(uint i = 0; i < len; ) {... */\n      iszero\n      tag_22\n      jumpi\n        /* \"contracts/homework/04 ArryOptimizedCode.sol\":491:493  10 */\n      0x0a\n        /* \"contracts/homework/04 ArryOptimizedCode.sol\":479:485  values */\n      dup5\n      dup5\n        /* \"contracts/homework/04 ArryOptimizedCode.sol\":486:487  i */\n      dup4\n        /* \"contracts/homework/04 ArryOptimizedCode.sol\":479:488  values[i] */\n      dup2\n      dup2\n      lt\n      tag_24\n      jumpi\n      tag_25\n      tag_26\n      jump\t// in\n    tag_25:\n    tag_24:\n      swap1\n      pop\n      0x20\n      mul\n      add\n      calldataload\n        /* \"contracts/homework/04 ArryOptimizedCode.sol\":479:493  values[i] > 10 */\n      gt\n        /* \"contracts/homework/04 ArryOptimizedCode.sol\":476:550  if(values[i] > 10) {... */\n      iszero\n      tag_27\n      jumpi\n        /* \"contracts/homework/04 ArryOptimizedCode.sol\":514:518  data */\n      0x00\n        /* \"contracts/homework/04 ArryOptimizedCode.sol\":524:530  values */\n      dup5\n      dup5\n        /* \"contracts/homework/04 ArryOptimizedCode.sol\":531:532  i */\n      dup4\n        /* \"contracts/homework/04 ArryOptimizedCode.sol\":524:533  values[i] */\n      dup2\n      dup2\n      lt\n      tag_28\n      jumpi\n      tag_29\n      tag_26\n      jump\t// in\n    tag_29:\n    tag_28:\n      swap1\n      pop\n      0x20\n      mul\n      add\n      calldataload\n        /* \"contracts/homework/04 ArryOptimizedCode.sol\":514:534  data.push(values[i]) */\n      swap1\n      dup1\n      0x01\n      dup2\n      sload\n      add\n      dup1\n      dup3\n      sstore\n      dup1\n      swap2\n      pop\n      pop\n      0x01\n      swap1\n      sub\n      swap1\n      0x00\n      mstore\n      keccak256(0x00, 0x20)\n      add\n      0x00\n      swap1\n      swap2\n      swap1\n      swap2\n      swap1\n      swap2\n      pop\n      sstore\n        /* \"contracts/homework/04 ArryOptimizedCode.sol\":476:550  if(values[i] > 10) {... */\n    tag_27:\n        /* \"contracts/homework/04 ArryOptimizedCode.sol\":574:577  i++ */\n      dup1\n      dup1\n      0x01\n      add\n      swap2\n      pop\n      pop\n        /* \"contracts/homework/04 ArryOptimizedCode.sol\":434:590  for(uint i = 0; i < len; ) {... */\n      jump(tag_21)\n    tag_22:\n      pop\n        /* \"contracts/homework/04 ArryOptimizedCode.sol\":388:597  {... */\n      pop\n        /* \"contracts/homework/04 ArryOptimizedCode.sol\":339:597  function process2(uint[] calldata values) public {... */\n      pop\n      pop\n      jump\t// out\n        /* \"contracts/homework/04 ArryOptimizedCode.sol\":124:329  function process1(uint[] memory values) public {... */\n    tag_13:\n        /* \"contracts/homework/04 ArryOptimizedCode.sol\":186:192  uint i */\n      0x00\n        /* \"contracts/homework/04 ArryOptimizedCode.sol\":195:196  0 */\n      0x00\n        /* \"contracts/homework/04 ArryOptimizedCode.sol\":186:196  uint i = 0 */\n      swap1\n      pop\n        /* \"contracts/homework/04 ArryOptimizedCode.sol\":182:322  for(uint i = 0; i < values.length; i++) {... */\n    tag_32:\n        /* \"contracts/homework/04 ArryOptimizedCode.sol\":202:208  values */\n      dup2\n        /* \"contracts/homework/04 ArryOptimizedCode.sol\":202:215  values.length */\n      mload\n        /* \"contracts/homework/04 ArryOptimizedCode.sol\":198:199  i */\n      dup2\n        /* \"contracts/homework/04 ArryOptimizedCode.sol\":198:215  i < values.length */\n      lt\n        /* \"contracts/homework/04 ArryOptimizedCode.sol\":182:322  for(uint i = 0; i < values.length; i++) {... */\n      iszero\n      tag_33\n      jumpi\n        /* \"contracts/homework/04 ArryOptimizedCode.sol\":252:254  10 */\n      0x0a\n        /* \"contracts/homework/04 ArryOptimizedCode.sol\":240:246  values */\n      dup3\n        /* \"contracts/homework/04 ArryOptimizedCode.sol\":247:248  i */\n      dup3\n        /* \"contracts/homework/04 ArryOptimizedCode.sol\":240:249  values[i] */\n      dup2\n      mload\n      dup2\n      lt\n      tag_35\n      jumpi\n      tag_36\n      tag_26\n      jump\t// in\n    tag_36:\n    tag_35:\n      0x20\n      mul\n      0x20\n      add\n      add\n      mload\n        /* \"contracts/homework/04 ArryOptimizedCode.sol\":240:254  values[i] > 10 */\n      gt\n        /* \"contracts/homework/04 ArryOptimizedCode.sol\":237:311  if(values[i] > 10) {... */\n      iszero\n      tag_37\n      jumpi\n        /* \"contracts/homework/04 ArryOptimizedCode.sol\":275:279  data */\n      0x00\n        /* \"contracts/homework/04 ArryOptimizedCode.sol\":285:291  values */\n      dup3\n        /* \"contracts/homework/04 ArryOptimizedCode.sol\":292:293  i */\n      dup3\n        /* \"contracts/homework/04 ArryOptimizedCode.sol\":285:294  values[i] */\n      dup2\n      mload\n      dup2\n      lt\n      tag_38\n      jumpi\n      tag_39\n      tag_26\n      jump\t// in\n    tag_39:\n    tag_38:\n      0x20\n      mul\n      0x20\n      add\n      add\n      mload\n        /* \"contracts/homework/04 ArryOptimizedCode.sol\":275:295  data.push(values[i]) */\n      swap1\n      dup1\n      0x01\n      dup2\n      sload\n      add\n      dup1\n      dup3\n      sstore\n      dup1\n      swap2\n      pop\n      pop\n      0x01\n      swap1\n      sub\n      swap1\n      0x00\n      mstore\n      keccak256(0x00, 0x20)\n      add\n      0x00\n      swap1\n      swap2\n      swap1\n      swap2\n      swap1\n      swap2\n      pop\n      sstore\n        /* \"contracts/homework/04 ArryOptimizedCode.sol\":237:311  if(values[i] > 10) {... */\n    tag_37:\n        /* \"contracts/homework/04 ArryOptimizedCode.sol\":217:220  i++ */\n      dup1\n      dup1\n      0x01\n      add\n      swap2\n      pop\n      pop\n        /* \"contracts/homework/04 ArryOptimizedCode.sol\":182:322  for(uint i = 0; i < values.length; i++) {... */\n      jump(tag_32)\n    tag_33:\n      pop\n        /* \"contracts/homework/04 ArryOptimizedCode.sol\":124:329  function process1(uint[] memory values) public {... */\n      pop\n      jump\t// out\n        /* \"contracts/homework/04 ArryOptimizedCode.sol\":93:111  uint[] public data */\n    tag_17:\n      0x00\n      dup2\n      dup2\n      sload\n      dup2\n      lt\n      tag_41\n      jumpi\n      0x00\n      dup1\n      revert\n    tag_41:\n      swap1\n      0x00\n      mstore\n      keccak256(0x00, 0x20)\n      add\n      0x00\n      swap2\n      pop\n      swap1\n      pop\n      sload\n      dup2\n      jump\t// out\n        /* \"#utility.yul\":7:82   */\n    tag_43:\n        /* \"#utility.yul\":40:46   */\n      0x00\n        /* \"#utility.yul\":73:75   */\n      0x40\n        /* \"#utility.yul\":67:76   */\n      mload\n        /* \"#utility.yul\":57:76   */\n      swap1\n      pop\n        /* \"#utility.yul\":7:82   */\n      swap1\n      jump\t// out\n        /* \"#utility.yul\":88:205   */\n    tag_44:\n        /* \"#utility.yul\":197:198   */\n      0x00\n        /* \"#utility.yul\":194:195   */\n      0x00\n        /* \"#utility.yul\":187:199   */\n      revert\n        /* \"#utility.yul\":211:328   */\n    tag_45:\n        /* \"#utility.yul\":320:321   */\n      0x00\n        /* \"#utility.yul\":317:318   */\n      0x00\n        /* \"#utility.yul\":310:322   */\n      revert\n        /* \"#utility.yul\":334:451   */\n    tag_46:\n        /* \"#utility.yul\":443:444   */\n      0x00\n        /* \"#utility.yul\":440:441   */\n      0x00\n        /* \"#utility.yul\":433:445   */\n      revert\n        /* \"#utility.yul\":457:574   */\n    tag_47:\n        /* \"#utility.yul\":566:567   */\n      0x00\n        /* \"#utility.yul\":563:564   */\n      0x00\n        /* \"#utility.yul\":556:568   */\n      revert\n        /* \"#utility.yul\":580:697   */\n    tag_48:\n        /* \"#utility.yul\":689:690   */\n      0x00\n        /* \"#utility.yul\":686:687   */\n      0x00\n        /* \"#utility.yul\":679:691   */\n      revert\n        /* \"#utility.yul\":720:1288   */\n    tag_49:\n        /* \"#utility.yul\":793:801   */\n      0x00\n        /* \"#utility.yul\":803:809   */\n      0x00\n        /* \"#utility.yul\":853:856   */\n      dup4\n        /* \"#utility.yul\":846:850   */\n      0x1f\n        /* \"#utility.yul\":838:844   */\n      dup5\n        /* \"#utility.yul\":834:851   */\n      add\n        /* \"#utility.yul\":830:857   */\n      slt\n        /* \"#utility.yul\":820:942   */\n      tag_69\n      jumpi\n        /* \"#utility.yul\":861:940   */\n      tag_70\n      tag_46\n      jump\t// in\n    tag_70:\n        /* \"#utility.yul\":820:942   */\n    tag_69:\n        /* \"#utility.yul\":974:980   */\n      dup3\n        /* \"#utility.yul\":961:981   */\n      calldataload\n        /* \"#utility.yul\":951:981   */\n      swap1\n      pop\n        /* \"#utility.yul\":1004:1022   */\n      0xffffffffffffffff\n        /* \"#utility.yul\":996:1002   */\n      dup2\n        /* \"#utility.yul\":993:1023   */\n      gt\n        /* \"#utility.yul\":990:1107   */\n      iszero\n      tag_71\n      jumpi\n        /* \"#utility.yul\":1026:1105   */\n      tag_72\n      tag_47\n      jump\t// in\n    tag_72:\n        /* \"#utility.yul\":990:1107   */\n    tag_71:\n        /* \"#utility.yul\":1140:1144   */\n      0x20\n        /* \"#utility.yul\":1132:1138   */\n      dup4\n        /* \"#utility.yul\":1128:1145   */\n      add\n        /* \"#utility.yul\":1116:1145   */\n      swap2\n      pop\n        /* \"#utility.yul\":1194:1197   */\n      dup4\n        /* \"#utility.yul\":1186:1190   */\n      0x20\n        /* \"#utility.yul\":1178:1184   */\n      dup3\n        /* \"#utility.yul\":1174:1191   */\n      mul\n        /* \"#utility.yul\":1164:1172   */\n      dup4\n        /* \"#utility.yul\":1160:1192   */\n      add\n        /* \"#utility.yul\":1157:1198   */\n      gt\n        /* \"#utility.yul\":1154:1282   */\n      iszero\n      tag_73\n      jumpi\n        /* \"#utility.yul\":1201:1280   */\n      tag_74\n      tag_48\n      jump\t// in\n    tag_74:\n        /* \"#utility.yul\":1154:1282   */\n    tag_73:\n        /* \"#utility.yul\":720:1288   */\n      swap3\n      pop\n      swap3\n      swap1\n      pop\n      jump\t// out\n        /* \"#utility.yul\":1294:1853   */\n    tag_8:\n        /* \"#utility.yul\":1380:1386   */\n      0x00\n        /* \"#utility.yul\":1388:1394   */\n      0x00\n        /* \"#utility.yul\":1437:1439   */\n      0x20\n        /* \"#utility.yul\":1425:1434   */\n      dup4\n        /* \"#utility.yul\":1416:1423   */\n      dup6\n        /* \"#utility.yul\":1412:1435   */\n      sub\n        /* \"#utility.yul\":1408:1440   */\n      slt\n        /* \"#utility.yul\":1405:1524   */\n      iszero\n      tag_76\n      jumpi\n        /* \"#utility.yul\":1443:1522   */\n      tag_77\n      tag_44\n      jump\t// in\n    tag_77:\n        /* \"#utility.yul\":1405:1524   */\n    tag_76:\n        /* \"#utility.yul\":1591:1592   */\n      0x00\n        /* \"#utility.yul\":1580:1589   */\n      dup4\n        /* \"#utility.yul\":1576:1593   */\n      add\n        /* \"#utility.yul\":1563:1594   */\n      calldataload\n        /* \"#utility.yul\":1621:1639   */\n      0xffffffffffffffff\n        /* \"#utility.yul\":1613:1619   */\n      dup2\n        /* \"#utility.yul\":1610:1640   */\n      gt\n        /* \"#utility.yul\":1607:1724   */\n      iszero\n      tag_78\n      jumpi\n        /* \"#utility.yul\":1643:1722   */\n      tag_79\n      tag_45\n      jump\t// in\n    tag_79:\n        /* \"#utility.yul\":1607:1724   */\n    tag_78:\n        /* \"#utility.yul\":1756:1836   */\n      tag_80\n        /* \"#utility.yul\":1828:1835   */\n      dup6\n        /* \"#utility.yul\":1819:1825   */\n      dup3\n        /* \"#utility.yul\":1808:1817   */\n      dup7\n        /* \"#utility.yul\":1804:1826   */\n      add\n        /* \"#utility.yul\":1756:1836   */\n      tag_49\n      jump\t// in\n    tag_80:\n        /* \"#utility.yul\":1738:1836   */\n      swap3\n      pop\n      swap3\n      pop\n        /* \"#utility.yul\":1534:1846   */\n      pop\n        /* \"#utility.yul\":1294:1853   */\n      swap3\n      pop\n      swap3\n      swap1\n      pop\n      jump\t// out\n        /* \"#utility.yul\":1859:1961   */\n    tag_50:\n        /* \"#utility.yul\":1900:1906   */\n      0x00\n        /* \"#utility.yul\":1951:1953   */\n      0x1f\n        /* \"#utility.yul\":1947:1954   */\n      not\n        /* \"#utility.yul\":1942:1944   */\n      0x1f\n        /* \"#utility.yul\":1935:1940   */\n      dup4\n        /* \"#utility.yul\":1931:1945   */\n      add\n        /* \"#utility.yul\":1927:1955   */\n      and\n        /* \"#utility.yul\":1917:1955   */\n      swap1\n      pop\n        /* \"#utility.yul\":1859:1961   */\n      swap2\n      swap1\n      pop\n      jump\t// out\n        /* \"#utility.yul\":1967:2147   */\n    tag_51:\n        /* \"#utility.yul\":2015:2092   */\n      0x4e487b7100000000000000000000000000000000000000000000000000000000\n        /* \"#utility.yul\":2012:2013   */\n      0x00\n        /* \"#utility.yul\":2005:2093   */\n      mstore\n        /* \"#utility.yul\":2112:2116   */\n      0x41\n        /* \"#utility.yul\":2109:2110   */\n      0x04\n        /* \"#utility.yul\":2102:2117   */\n      mstore\n        /* \"#utility.yul\":2136:2140   */\n      0x24\n        /* \"#utility.yul\":2133:2134   */\n      0x00\n        /* \"#utility.yul\":2126:2141   */\n      revert\n        /* \"#utility.yul\":2153:2434   */\n    tag_52:\n        /* \"#utility.yul\":2236:2263   */\n      tag_84\n        /* \"#utility.yul\":2258:2262   */\n      dup3\n        /* \"#utility.yul\":2236:2263   */\n      tag_50\n      jump\t// in\n    tag_84:\n        /* \"#utility.yul\":2228:2234   */\n      dup2\n        /* \"#utility.yul\":2224:2264   */\n      add\n        /* \"#utility.yul\":2366:2372   */\n      dup2\n        /* \"#utility.yul\":2354:2364   */\n      dup2\n        /* \"#utility.yul\":2351:2373   */\n      lt\n        /* \"#utility.yul\":2330:2348   */\n      0xffffffffffffffff\n        /* \"#utility.yul\":2318:2328   */\n      dup3\n        /* \"#utility.yul\":2315:2349   */\n      gt\n        /* \"#utility.yul\":2312:2374   */\n      or\n        /* \"#utility.yul\":2309:2397   */\n      iszero\n      tag_85\n      jumpi\n        /* \"#utility.yul\":2377:2395   */\n      tag_86\n      tag_51\n      jump\t// in\n    tag_86:\n        /* \"#utility.yul\":2309:2397   */\n    tag_85:\n        /* \"#utility.yul\":2417:2427   */\n      dup1\n        /* \"#utility.yul\":2413:2415   */\n      0x40\n        /* \"#utility.yul\":2406:2428   */\n      mstore\n        /* \"#utility.yul\":2196:2434   */\n      pop\n        /* \"#utility.yul\":2153:2434   */\n      pop\n      pop\n      jump\t// out\n        /* \"#utility.yul\":2440:2569   */\n    tag_53:\n        /* \"#utility.yul\":2474:2480   */\n      0x00\n        /* \"#utility.yul\":2501:2521   */\n      tag_88\n      tag_43\n      jump\t// in\n    tag_88:\n        /* \"#utility.yul\":2491:2521   */\n      swap1\n      pop\n        /* \"#utility.yul\":2530:2563   */\n      tag_89\n        /* \"#utility.yul\":2558:2562   */\n      dup3\n        /* \"#utility.yul\":2550:2556   */\n      dup3\n        /* \"#utility.yul\":2530:2563   */\n      tag_52\n      jump\t// in\n    tag_89:\n        /* \"#utility.yul\":2440:2569   */\n      swap2\n      swap1\n      pop\n      jump\t// out\n        /* \"#utility.yul\":2575:2886   */\n    tag_54:\n        /* \"#utility.yul\":2652:2656   */\n      0x00\n        /* \"#utility.yul\":2742:2760   */\n      0xffffffffffffffff\n        /* \"#utility.yul\":2734:2740   */\n      dup3\n        /* \"#utility.yul\":2731:2761   */\n      gt\n        /* \"#utility.yul\":2728:2784   */\n      iszero\n      tag_91\n      jumpi\n        /* \"#utility.yul\":2764:2782   */\n      tag_92\n      tag_51\n      jump\t// in\n    tag_92:\n        /* \"#utility.yul\":2728:2784   */\n    tag_91:\n        /* \"#utility.yul\":2814:2818   */\n      0x20\n        /* \"#utility.yul\":2806:2812   */\n      dup3\n        /* \"#utility.yul\":2802:2819   */\n      mul\n        /* \"#utility.yul\":2794:2819   */\n      swap1\n      pop\n        /* \"#utility.yul\":2874:2878   */\n      0x20\n        /* \"#utility.yul\":2868:2872   */\n      dup2\n        /* \"#utility.yul\":2864:2879   */\n      add\n        /* \"#utility.yul\":2856:2879   */\n      swap1\n      pop\n        /* \"#utility.yul\":2575:2886   */\n      swap2\n      swap1\n      pop\n      jump\t// out\n        /* \"#utility.yul\":2892:2969   */\n    tag_55:\n        /* \"#utility.yul\":2929:2936   */\n      0x00\n        /* \"#utility.yul\":2958:2963   */\n      dup2\n        /* \"#utility.yul\":2947:2963   */\n      swap1\n      pop\n        /* \"#utility.yul\":2892:2969   */\n      swap2\n      swap1\n      pop\n      jump\t// out\n        /* \"#utility.yul\":2975:3097   */\n    tag_56:\n        /* \"#utility.yul\":3048:3072   */\n      tag_95\n        /* \"#utility.yul\":3066:3071   */\n      dup2\n        /* \"#utility.yul\":3048:3072   */\n      tag_55\n      jump\t// in\n    tag_95:\n        /* \"#utility.yul\":3041:3046   */\n      dup2\n        /* \"#utility.yul\":3038:3073   */\n      eq\n        /* \"#utility.yul\":3028:3091   */\n      tag_96\n      jumpi\n        /* \"#utility.yul\":3087:3088   */\n      0x00\n        /* \"#utility.yul\":3084:3085   */\n      0x00\n        /* \"#utility.yul\":3077:3089   */\n      revert\n        /* \"#utility.yul\":3028:3091   */\n    tag_96:\n        /* \"#utility.yul\":2975:3097   */\n      pop\n      jump\t// out\n        /* \"#utility.yul\":3103:3242   */\n    tag_57:\n        /* \"#utility.yul\":3149:3154   */\n      0x00\n        /* \"#utility.yul\":3187:3193   */\n      dup2\n        /* \"#utility.yul\":3174:3194   */\n      calldataload\n        /* \"#utility.yul\":3165:3194   */\n      swap1\n      pop\n        /* \"#utility.yul\":3203:3236   */\n      tag_98\n        /* \"#utility.yul\":3230:3235   */\n      dup2\n        /* \"#utility.yul\":3203:3236   */\n      tag_56\n      jump\t// in\n    tag_98:\n        /* \"#utility.yul\":3103:3242   */\n      swap3\n      swap2\n      pop\n      pop\n      jump\t// out\n        /* \"#utility.yul\":3265:3975   */\n    tag_58:\n        /* \"#utility.yul\":3361:3366   */\n      0x00\n        /* \"#utility.yul\":3386:3467   */\n      tag_100\n        /* \"#utility.yul\":3402:3466   */\n      tag_101\n        /* \"#utility.yul\":3459:3465   */\n      dup5\n        /* \"#utility.yul\":3402:3466   */\n      tag_54\n      jump\t// in\n    tag_101:\n        /* \"#utility.yul\":3386:3467   */\n      tag_53\n      jump\t// in\n    tag_100:\n        /* \"#utility.yul\":3377:3467   */\n      swap1\n      pop\n        /* \"#utility.yul\":3487:3492   */\n      dup1\n        /* \"#utility.yul\":3516:3522   */\n      dup4\n        /* \"#utility.yul\":3509:3514   */\n      dup3\n        /* \"#utility.yul\":3502:3523   */\n      mstore\n        /* \"#utility.yul\":3550:3554   */\n      0x20\n        /* \"#utility.yul\":3543:3548   */\n      dup3\n        /* \"#utility.yul\":3539:3555   */\n      add\n        /* \"#utility.yul\":3532:3555   */\n      swap1\n      pop\n        /* \"#utility.yul\":3603:3607   */\n      0x20\n        /* \"#utility.yul\":3595:3601   */\n      dup5\n        /* \"#utility.yul\":3591:3608   */\n      mul\n        /* \"#utility.yul\":3583:3589   */\n      dup4\n        /* \"#utility.yul\":3579:3609   */\n      add\n        /* \"#utility.yul\":3632:3635   */\n      dup6\n        /* \"#utility.yul\":3624:3630   */\n      dup2\n        /* \"#utility.yul\":3621:3636   */\n      gt\n        /* \"#utility.yul\":3618:3740   */\n      iszero\n      tag_102\n      jumpi\n        /* \"#utility.yul\":3651:3730   */\n      tag_103\n      tag_48\n      jump\t// in\n    tag_103:\n        /* \"#utility.yul\":3618:3740   */\n    tag_102:\n        /* \"#utility.yul\":3766:3772   */\n      dup4\n        /* \"#utility.yul\":3749:3969   */\n    tag_104:\n        /* \"#utility.yul\":3783:3789   */\n      dup2\n        /* \"#utility.yul\":3778:3781   */\n      dup2\n        /* \"#utility.yul\":3775:3790   */\n      lt\n        /* \"#utility.yul\":3749:3969   */\n      iszero\n      tag_106\n      jumpi\n        /* \"#utility.yul\":3858:3861   */\n      dup1\n        /* \"#utility.yul\":3887:3924   */\n      tag_107\n        /* \"#utility.yul\":3920:3923   */\n      dup9\n        /* \"#utility.yul\":3908:3918   */\n      dup3\n        /* \"#utility.yul\":3887:3924   */\n      tag_57\n      jump\t// in\n    tag_107:\n        /* \"#utility.yul\":3882:3885   */\n      dup5\n        /* \"#utility.yul\":3875:3925   */\n      mstore\n        /* \"#utility.yul\":3954:3958   */\n      0x20\n        /* \"#utility.yul\":3949:3952   */\n      dup5\n        /* \"#utility.yul\":3945:3959   */\n      add\n        /* \"#utility.yul\":3938:3959   */\n      swap4\n      pop\n        /* \"#utility.yul\":3825:3969   */\n      pop\n        /* \"#utility.yul\":3809:3813   */\n      0x20\n        /* \"#utility.yul\":3804:3807   */\n      dup2\n        /* \"#utility.yul\":3800:3814   */\n      add\n        /* \"#utility.yul\":3793:3814   */\n      swap1\n      pop\n        /* \"#utility.yul\":3749:3969   */\n      jump(tag_104)\n    tag_106:\n        /* \"#utility.yul\":3753:3774   */\n      pop\n        /* \"#utility.yul\":3367:3975   */\n      pop\n      pop\n        /* \"#utility.yul\":3265:3975   */\n      swap4\n      swap3\n      pop\n      pop\n      pop\n      jump\t// out\n        /* \"#utility.yul\":3998:4368   */\n    tag_59:\n        /* \"#utility.yul\":4069:4074   */\n      0x00\n        /* \"#utility.yul\":4118:4121   */\n      dup3\n        /* \"#utility.yul\":4111:4115   */\n      0x1f\n        /* \"#utility.yul\":4103:4109   */\n      dup4\n        /* \"#utility.yul\":4099:4116   */\n      add\n        /* \"#utility.yul\":4095:4122   */\n      slt\n        /* \"#utility.yul\":4085:4207   */\n      tag_109\n      jumpi\n        /* \"#utility.yul\":4126:4205   */\n      tag_110\n      tag_46\n      jump\t// in\n    tag_110:\n        /* \"#utility.yul\":4085:4207   */\n    tag_109:\n        /* \"#utility.yul\":4243:4249   */\n      dup2\n        /* \"#utility.yul\":4230:4250   */\n      calldataload\n        /* \"#utility.yul\":4268:4362   */\n      tag_111\n        /* \"#utility.yul\":4358:4361   */\n      dup5\n        /* \"#utility.yul\":4350:4356   */\n      dup3\n        /* \"#utility.yul\":4343:4347   */\n      0x20\n        /* \"#utility.yul\":4335:4341   */\n      dup7\n        /* \"#utility.yul\":4331:4348   */\n      add\n        /* \"#utility.yul\":4268:4362   */\n      tag_58\n      jump\t// in\n    tag_111:\n        /* \"#utility.yul\":4259:4362   */\n      swap2\n      pop\n        /* \"#utility.yul\":4075:4368   */\n      pop\n        /* \"#utility.yul\":3998:4368   */\n      swap3\n      swap2\n      pop\n      pop\n      jump\t// out\n        /* \"#utility.yul\":4374:4913   */\n    tag_12:\n        /* \"#utility.yul\":4458:4464   */\n      0x00\n        /* \"#utility.yul\":4507:4509   */\n      0x20\n        /* \"#utility.yul\":4495:4504   */\n      dup3\n        /* \"#utility.yul\":4486:4493   */\n      dup5\n        /* \"#utility.yul\":4482:4505   */\n      sub\n        /* \"#utility.yul\":4478:4510   */\n      slt\n        /* \"#utility.yul\":4475:4594   */\n      iszero\n      tag_113\n      jumpi\n        /* \"#utility.yul\":4513:4592   */\n      tag_114\n      tag_44\n      jump\t// in\n    tag_114:\n        /* \"#utility.yul\":4475:4594   */\n    tag_113:\n        /* \"#utility.yul\":4661:4662   */\n      0x00\n        /* \"#utility.yul\":4650:4659   */\n      dup3\n        /* \"#utility.yul\":4646:4663   */\n      add\n        /* \"#utility.yul\":4633:4664   */\n      calldataload\n        /* \"#utility.yul\":4691:4709   */\n      0xffffffffffffffff\n        /* \"#utility.yul\":4683:4689   */\n      dup2\n        /* \"#utility.yul\":4680:4710   */\n      gt\n        /* \"#utility.yul\":4677:4794   */\n      iszero\n      tag_115\n      jumpi\n        /* \"#utility.yul\":4713:4792   */\n      tag_116\n      tag_45\n      jump\t// in\n    tag_116:\n        /* \"#utility.yul\":4677:4794   */\n    tag_115:\n        /* \"#utility.yul\":4818:4896   */\n      tag_117\n        /* \"#utility.yul\":4888:4895   */\n      dup5\n        /* \"#utility.yul\":4879:4885   */\n      dup3\n        /* \"#utility.yul\":4868:4877   */\n      dup6\n        /* \"#utility.yul\":4864:4886   */\n      add\n        /* \"#utility.yul\":4818:4896   */\n      tag_59\n      jump\t// in\n    tag_117:\n        /* \"#utility.yul\":4808:4896   */\n      swap2\n      pop\n        /* \"#utility.yul\":4604:4906   */\n      pop\n        /* \"#utility.yul\":4374:4913   */\n      swap3\n      swap2\n      pop\n      pop\n      jump\t// out\n        /* \"#utility.yul\":4919:5248   */\n    tag_16:\n        /* \"#utility.yul\":4978:4984   */\n      0x00\n        /* \"#utility.yul\":5027:5029   */\n      0x20\n        /* \"#utility.yul\":5015:5024   */\n      dup3\n        /* \"#utility.yul\":5006:5013   */\n      dup5\n        /* \"#utility.yul\":5002:5025   */\n      sub\n        /* \"#utility.yul\":4998:5030   */\n      slt\n        /* \"#utility.yul\":4995:5114   */\n      iszero\n      tag_119\n      jumpi\n        /* \"#utility.yul\":5033:5112   */\n      tag_120\n      tag_44\n      jump\t// in\n    tag_120:\n        /* \"#utility.yul\":4995:5114   */\n    tag_119:\n        /* \"#utility.yul\":5153:5154   */\n      0x00\n        /* \"#utility.yul\":5178:5231   */\n      tag_121\n        /* \"#utility.yul\":5223:5230   */\n      dup5\n        /* \"#utility.yul\":5214:5220   */\n      dup3\n        /* \"#utility.yul\":5203:5212   */\n      dup6\n        /* \"#utility.yul\":5199:5221   */\n      add\n        /* \"#utility.yul\":5178:5231   */\n      tag_57\n      jump\t// in\n    tag_121:\n        /* \"#utility.yul\":5168:5231   */\n      swap2\n      pop\n        /* \"#utility.yul\":5124:5241   */\n      pop\n        /* \"#utility.yul\":4919:5248   */\n      swap3\n      swap2\n      pop\n      pop\n      jump\t// out\n        /* \"#utility.yul\":5254:5372   */\n    tag_60:\n        /* \"#utility.yul\":5341:5365   */\n      tag_123\n        /* \"#utility.yul\":5359:5364   */\n      dup2\n        /* \"#utility.yul\":5341:5365   */\n      tag_55\n      jump\t// in\n    tag_123:\n        /* \"#utility.yul\":5336:5339   */\n      dup3\n        /* \"#utility.yul\":5329:5366   */\n      mstore\n        /* \"#utility.yul\":5254:5372   */\n      pop\n      pop\n      jump\t// out\n        /* \"#utility.yul\":5378:5600   */\n    tag_19:\n        /* \"#utility.yul\":5471:5475   */\n      0x00\n        /* \"#utility.yul\":5509:5511   */\n      0x20\n        /* \"#utility.yul\":5498:5507   */\n      dup3\n        /* \"#utility.yul\":5494:5512   */\n      add\n        /* \"#utility.yul\":5486:5512   */\n      swap1\n      pop\n        /* \"#utility.yul\":5522:5593   */\n      tag_125\n        /* \"#utility.yul\":5590:5591   */\n      0x00\n        /* \"#utility.yul\":5579:5588   */\n      dup4\n        /* \"#utility.yul\":5575:5592   */\n      add\n        /* \"#utility.yul\":5566:5572   */\n      dup5\n        /* \"#utility.yul\":5522:5593   */\n      tag_60\n      jump\t// in\n    tag_125:\n        /* \"#utility.yul\":5378:5600   */\n      swap3\n      swap2\n      pop\n      pop\n      jump\t// out\n        /* \"#utility.yul\":5606:5786   */\n    tag_26:\n        /* \"#utility.yul\":5654:5731   */\n      0x4e487b7100000000000000000000000000000000000000000000000000000000\n        /* \"#utility.yul\":5651:5652   */\n      0x00\n        /* \"#utility.yul\":5644:5732   */\n      mstore\n        /* \"#utility.yul\":5751:5755   */\n      0x32\n        /* \"#utility.yul\":5748:5749   */\n      0x04\n        /* \"#utility.yul\":5741:5756   */\n      mstore\n        /* \"#utility.yul\":5775:5779   */\n      0x24\n        /* \"#utility.yul\":5772:5773   */\n      0x00\n        /* \"#utility.yul\":5765:5780   */\n      revert\n\n    auxdata: 0xa2646970667358221220006d398ce1c3cab431156140740cefb4c2d8c677e6eacc0262f528523ece859664736f6c634300081f0033\n}\n",
				"bytecode": {
					"linkReferences": {},
					"object": "6080604052348015600e575f5ffd5b506105098061001c5f395ff3fe608060405234801561000f575f5ffd5b506004361061003f575f3560e01c8063442dc1931461004357806385ad8a8d1461005f578063f0ba84401461007b575b5f5ffd5b61005d60048036038101906100589190610246565b6100ab565b005b6100796004803603810190610074919061040c565b610133565b005b61009560048036038101906100909190610453565b6101b5565b6040516100a2919061048d565b60405180910390f35b5f8282905090505f5f90505b8181101561012d57600a8484838181106100d4576100d36104a6565b5b905060200201351115610120575f8484838181106100f5576100f46104a6565b5b90506020020135908060018154018082558091505060019003905f5260205f20015f90919091909150555b80806001019150506100b7565b50505050565b5f5f90505b81518110156101b157600a828281518110610156576101556104a6565b5b602002602001015111156101a4575f828281518110610178576101776104a6565b5b6020026020010151908060018154018082558091505060019003905f5260205f20015f90919091909150555b8080600101915050610138565b5050565b5f81815481106101c3575f80fd5b905f5260205f20015f915090505481565b5f604051905090565b5f5ffd5b5f5ffd5b5f5ffd5b5f5ffd5b5f5ffd5b5f5f83601f840112610206576102056101e5565b5b8235905067ffffffffffffffff811115610223576102226101e9565b5b60208301915083602082028301111561023f5761023e6101ed565b5b9250929050565b5f5f6020838503121561025c5761025b6101dd565b5b5f83013567ffffffffffffffff811115610279576102786101e1565b5b610285858286016101f1565b92509250509250929050565b5f601f19601f8301169050919050565b7f4e487b71000000000000000000000000000000000000000000000000000000005f52604160045260245ffd5b6102d782610291565b810181811067ffffffffffffffff821117156102f6576102f56102a1565b5b80604052505050565b5f6103086101d4565b905061031482826102ce565b919050565b5f67ffffffffffffffff821115610333576103326102a1565b5b602082029050602081019050919050565b5f819050919050565b61035681610344565b8114610360575f5ffd5b50565b5f813590506103718161034d565b92915050565b5f61038961038484610319565b6102ff565b905080838252602082019050602084028301858111156103ac576103ab6101ed565b5b835b818110156103d557806103c18882610363565b8452602084019350506020810190506103ae565b5050509392505050565b5f82601f8301126103f3576103f26101e5565b5b8135610403848260208601610377565b91505092915050565b5f60208284031215610421576104206101dd565b5b5f82013567ffffffffffffffff81111561043e5761043d6101e1565b5b61044a848285016103df565b91505092915050565b5f60208284031215610468576104676101dd565b5b5f61047584828501610363565b91505092915050565b61048781610344565b82525050565b5f6020820190506104a05f83018461047e565b92915050565b7f4e487b71000000000000000000000000000000000000000000000000000000005f52603260045260245ffdfea2646970667358221220006d398ce1c3cab431156140740cefb4c2d8c677e6eacc0262f528523ece859664736f6c634300081f0033",
					"opcodes": "PUSH1 0x80 PUSH1 0x40 MSTORE CALLVALUE DUP1 ISZERO PUSH1 0xE JUMPI PUSH0 PUSH0 REVERT JUMPDEST POP PUSH2 0x509 DUP1 PUSH2 0x1C PUSH0 CODECOPY PUSH0 RETURN INVALID PUSH1 0x80 PUSH1 0x40 MSTORE CALLVALUE DUP1 ISZERO PUSH2 0xF JUMPI PUSH0 PUSH0 REVERT JUMPDEST POP PUSH1 0x4 CALLDATASIZE LT PUSH2 0x3F JUMPI PUSH0 CALLDATALOAD PUSH1 0xE0 SHR DUP1 PUSH4 0x442DC193 EQ PUSH2 0x43 JUMPI DUP1 PUSH4 0x85AD8A8D EQ PUSH2 0x5F JUMPI DUP1 PUSH4 0xF0BA8440 EQ PUSH2 0x7B JUMPI JUMPDEST PUSH0 PUSH0 REVERT JUMPDEST PUSH2 0x5D PUSH1 0x4 DUP1 CALLDATASIZE SUB DUP2 ADD SWAP1 PUSH2 0x58 SWAP2 SWAP1 PUSH2 0x246 JUMP JUMPDEST PUSH2 0xAB JUMP JUMPDEST STOP JUMPDEST PUSH2 0x79 PUSH1 0x4 DUP1 CALLDATASIZE SUB DUP2 ADD SWAP1 PUSH2 0x74 SWAP2 SWAP1 PUSH2 0x40C JUMP JUMPDEST PUSH2 0x133 JUMP JUMPDEST STOP JUMPDEST PUSH2 0x95 PUSH1 0x4 DUP1 CALLDATASIZE SUB DUP2 ADD SWAP1 PUSH2 0x90 SWAP2 SWAP1 PUSH2 0x453 JUMP JUMPDEST PUSH2 0x1B5 JUMP JUMPDEST PUSH1 0x40 MLOAD PUSH2 0xA2 SWAP2 SWAP1 PUSH2 0x48D JUMP JUMPDEST PUSH1 0x40 MLOAD DUP1 SWAP2 SUB SWAP1 RETURN JUMPDEST PUSH0 DUP3 DUP3 SWAP1 POP SWAP1 POP PUSH0 PUSH0 SWAP1 POP JUMPDEST DUP2 DUP2 LT ISZERO PUSH2 0x12D JUMPI PUSH1 0xA DUP5 DUP5 DUP4 DUP2 DUP2 LT PUSH2 0xD4 JUMPI PUSH2 0xD3 PUSH2 0x4A6 JUMP JUMPDEST JUMPDEST SWAP1 POP PUSH1 0x20 MUL ADD CALLDATALOAD GT ISZERO PUSH2 0x120 JUMPI PUSH0 DUP5 DUP5 DUP4 DUP2 DUP2 LT PUSH2 0xF5 JUMPI PUSH2 0xF4 PUSH2 0x4A6 JUMP JUMPDEST JUMPDEST SWAP1 POP PUSH1 0x20 MUL ADD CALLDATALOAD SWAP1 DUP1 PUSH1 0x1 DUP2 SLOAD ADD DUP1 DUP3 SSTORE DUP1 SWAP2 POP POP PUSH1 0x1 SWAP1 SUB SWAP1 PUSH0 MSTORE PUSH1 0x20 PUSH0 KECCAK256 ADD PUSH0 SWAP1 SWAP2 SWAP1 SWAP2 SWAP1 SWAP2 POP SSTORE JUMPDEST DUP1 DUP1 PUSH1 0x1 ADD SWAP2 POP POP PUSH2 0xB7 JUMP JUMPDEST POP POP POP POP JUMP JUMPDEST PUSH0 PUSH0 SWAP1 POP JUMPDEST DUP2 MLOAD DUP2 LT ISZERO PUSH2 0x1B1 JUMPI PUSH1 0xA DUP3 DUP3 DUP2 MLOAD DUP2 LT PUSH2 0x156 JUMPI PUSH2 0x155 PUSH2 0x4A6 JUMP JUMPDEST JUMPDEST PUSH1 0x20 MUL PUSH1 0x20 ADD ADD MLOAD GT ISZERO PUSH2 0x1A4 JUMPI PUSH0 DUP3 DUP3 DUP2 MLOAD DUP2 LT PUSH2 0x178 JUMPI PUSH2 0x177 PUSH2 0x4A6 JUMP JUMPDEST JUMPDEST PUSH1 0x20 MUL PUSH1 0x20 ADD ADD MLOAD SWAP1 DUP1 PUSH1 0x1 DUP2 SLOAD ADD DUP1 DUP3 SSTORE DUP1 SWAP2 POP POP PUSH1 0x1 SWAP1 SUB SWAP1 PUSH0 MSTORE PUSH1 0x20 PUSH0 KECCAK256 ADD PUSH0 SWAP1 SWAP2 SWAP1 SWAP2 SWAP1 SWAP2 POP SSTORE JUMPDEST DUP1 DUP1 PUSH1 0x1 ADD SWAP2 POP POP PUSH2 0x138 JUMP JUMPDEST POP POP JUMP JUMPDEST PUSH0 DUP2 DUP2 SLOAD DUP2 LT PUSH2 0x1C3 JUMPI PUSH0 DUP1 REVERT JUMPDEST SWAP1 PUSH0 MSTORE PUSH1 0x20 PUSH0 KECCAK256 ADD PUSH0 SWAP2 POP SWAP1 POP SLOAD DUP2 JUMP JUMPDEST PUSH0 PUSH1 0x40 MLOAD SWAP1 POP SWAP1 JUMP JUMPDEST PUSH0 PUSH0 REVERT JUMPDEST PUSH0 PUSH0 REVERT JUMPDEST PUSH0 PUSH0 REVERT JUMPDEST PUSH0 PUSH0 REVERT JUMPDEST PUSH0 PUSH0 REVERT JUMPDEST PUSH0 PUSH0 DUP4 PUSH1 0x1F DUP5 ADD SLT PUSH2 0x206 JUMPI PUSH2 0x205 PUSH2 0x1E5 JUMP JUMPDEST JUMPDEST DUP3 CALLDATALOAD SWAP1 POP PUSH8 0xFFFFFFFFFFFFFFFF DUP2 GT ISZERO PUSH2 0x223 JUMPI PUSH2 0x222 PUSH2 0x1E9 JUMP JUMPDEST JUMPDEST PUSH1 0x20 DUP4 ADD SWAP2 POP DUP4 PUSH1 0x20 DUP3 MUL DUP4 ADD GT ISZERO PUSH2 0x23F JUMPI PUSH2 0x23E PUSH2 0x1ED JUMP JUMPDEST JUMPDEST SWAP3 POP SWAP3 SWAP1 POP JUMP JUMPDEST PUSH0 PUSH0 PUSH1 0x20 DUP4 DUP6 SUB SLT ISZERO PUSH2 0x25C JUMPI PUSH2 0x25B PUSH2 0x1DD JUMP JUMPDEST JUMPDEST PUSH0 DUP4 ADD CALLDATALOAD PUSH8 0xFFFFFFFFFFFFFFFF DUP2 GT ISZERO PUSH2 0x279 JUMPI PUSH2 0x278 PUSH2 0x1E1 JUMP JUMPDEST JUMPDEST PUSH2 0x285 DUP6 DUP3 DUP7 ADD PUSH2 0x1F1 JUMP JUMPDEST SWAP3 POP SWAP3 POP POP SWAP3 POP SWAP3 SWAP1 POP JUMP JUMPDEST PUSH0 PUSH1 0x1F NOT PUSH1 0x1F DUP4 ADD AND SWAP1 POP SWAP2 SWAP1 POP JUMP JUMPDEST PUSH32 0x4E487B7100000000000000000000000000000000000000000000000000000000 PUSH0 MSTORE PUSH1 0x41 PUSH1 0x4 MSTORE PUSH1 0x24 PUSH0 REVERT JUMPDEST PUSH2 0x2D7 DUP3 PUSH2 0x291 JUMP JUMPDEST DUP2 ADD DUP2 DUP2 LT PUSH8 0xFFFFFFFFFFFFFFFF DUP3 GT OR ISZERO PUSH2 0x2F6 JUMPI PUSH2 0x2F5 PUSH2 0x2A1 JUMP JUMPDEST JUMPDEST DUP1 PUSH1 0x40 MSTORE POP POP POP JUMP JUMPDEST PUSH0 PUSH2 0x308 PUSH2 0x1D4 JUMP JUMPDEST SWAP1 POP PUSH2 0x314 DUP3 DUP3 PUSH2 0x2CE JUMP JUMPDEST SWAP2 SWAP1 POP JUMP JUMPDEST PUSH0 PUSH8 0xFFFFFFFFFFFFFFFF DUP3 GT ISZERO PUSH2 0x333 JUMPI PUSH2 0x332 PUSH2 0x2A1 JUMP JUMPDEST JUMPDEST PUSH1 0x20 DUP3 MUL SWAP1 POP PUSH1 0x20 DUP2 ADD SWAP1 POP SWAP2 SWAP1 POP JUMP JUMPDEST PUSH0 DUP2 SWAP1 POP SWAP2 SWAP1 POP JUMP JUMPDEST PUSH2 0x356 DUP2 PUSH2 0x344 JUMP JUMPDEST DUP2 EQ PUSH2 0x360 JUMPI PUSH0 PUSH0 REVERT JUMPDEST POP JUMP JUMPDEST PUSH0 DUP2 CALLDATALOAD SWAP1 POP PUSH2 0x371 DUP2 PUSH2 0x34D JUMP JUMPDEST SWAP3 SWAP2 POP POP JUMP JUMPDEST PUSH0 PUSH2 0x389 PUSH2 0x384 DUP5 PUSH2 0x319 JUMP JUMPDEST PUSH2 0x2FF JUMP JUMPDEST SWAP1 POP DUP1 DUP4 DUP3 MSTORE PUSH1 0x20 DUP3 ADD SWAP1 POP PUSH1 0x20 DUP5 MUL DUP4 ADD DUP6 DUP2 GT ISZERO PUSH2 0x3AC JUMPI PUSH2 0x3AB PUSH2 0x1ED JUMP JUMPDEST JUMPDEST DUP4 JUMPDEST DUP2 DUP2 LT ISZERO PUSH2 0x3D5 JUMPI DUP1 PUSH2 0x3C1 DUP9 DUP3 PUSH2 0x363 JUMP JUMPDEST DUP5 MSTORE PUSH1 0x20 DUP5 ADD SWAP4 POP POP PUSH1 0x20 DUP2 ADD SWAP1 POP PUSH2 0x3AE JUMP JUMPDEST POP POP POP SWAP4 SWAP3 POP POP POP JUMP JUMPDEST PUSH0 DUP3 PUSH1 0x1F DUP4 ADD SLT PUSH2 0x3F3 JUMPI PUSH2 0x3F2 PUSH2 0x1E5 JUMP JUMPDEST JUMPDEST DUP2 CALLDATALOAD PUSH2 0x403 DUP5 DUP3 PUSH1 0x20 DUP7 ADD PUSH2 0x377 JUMP JUMPDEST SWAP2 POP POP SWAP3 SWAP2 POP POP JUMP JUMPDEST PUSH0 PUSH1 0x20 DUP3 DUP5 SUB SLT ISZERO PUSH2 0x421 JUMPI PUSH2 0x420 PUSH2 0x1DD JUMP JUMPDEST JUMPDEST PUSH0 DUP3 ADD CALLDATALOAD PUSH8 0xFFFFFFFFFFFFFFFF DUP2 GT ISZERO PUSH2 0x43E JUMPI PUSH2 0x43D PUSH2 0x1E1 JUMP JUMPDEST JUMPDEST PUSH2 0x44A DUP5 DUP3 DUP6 ADD PUSH2 0x3DF JUMP JUMPDEST SWAP2 POP POP SWAP3 SWAP2 POP POP JUMP JUMPDEST PUSH0 PUSH1 0x20 DUP3 DUP5 SUB SLT ISZERO PUSH2 0x468 JUMPI PUSH2 0x467 PUSH2 0x1DD JUMP JUMPDEST JUMPDEST PUSH0 PUSH2 0x475 DUP5 DUP3 DUP6 ADD PUSH2 0x363 JUMP JUMPDEST SWAP2 POP POP SWAP3 SWAP2 POP POP JUMP JUMPDEST PUSH2 0x487 DUP2 PUSH2 0x344 JUMP JUMPDEST DUP3 MSTORE POP POP JUMP JUMPDEST PUSH0 PUSH1 0x20 DUP3 ADD SWAP1 POP PUSH2 0x4A0 PUSH0 DUP4 ADD DUP5 PUSH2 0x47E JUMP JUMPDEST SWAP3 SWAP2 POP POP JUMP JUMPDEST PUSH32 0x4E487B7100000000000000000000000000000000000000000000000000000000 PUSH0 MSTORE PUSH1 0x32 PUSH1 0x4 MSTORE PUSH1 0x24 PUSH0 REVERT INVALID LOG2 PUSH5 0x6970667358 0x22 SLT KECCAK256 STOP PUSH14 0x398CE1C3CAB431156140740CEFB4 0xC2 0xD8 0xC6 PUSH24 0xE6EACC0262F528523ECE859664736F6C634300081F003300 "
				},
				"gasEstimates": {
					"creation": {
						"codeDepositCost": "257800",
						"executionCost": "298",
						"totalCost": "258098"
					},
					"external": {
						"data(uint256)": "infinite",
						"process1(uint256[])": "infinite",
						"process2(uint256[])": "infinite"
					}
				},
				"methodIdentifiers": {
					"data(uint256)": "f0ba8440",
					"process1(uint256[])": "85ad8a8d",
					"process2(uint256[])": "442dc193"
				}
			},
			"storageLayout": {
				"storage": [
					{
						"astId": 4,
						"contract": "contracts/homework/04 ArryOptimizedCode.sol:ArryOptimizedCode",
						"label": "data",
						"offset": 0,
						"slot": "0",
						"type": "t_array(t_uint256)dyn_storage"
					}
				],
				"types": {
					"t_array(t_uint256)dyn_storage": {
						"base": "t_uint256",
						"encoding": "dynamic_array",
						"label": "uint256[]",
						"numberOfBytes": "32"
					},
					"t_uint256": {
						"encoding": "inplace",
						"label": "uint256",
						"numberOfBytes": "32"
					}
				}
			},
			"userdoc": {
				"kind": "user",
				"methods": {},
				"version": 1
			}
		}
	}
}