{
	"contracts/lesson9.2/SimpleProxy.sol": {
		"Proxy": {
			"abi": [
				{
					"inputs": [
						{
							"internalType": "address",
							"name": "_implementation",
							"type": "address"
						}
					],
					"stateMutability": "nonpayable",
					"type": "constructor"
				},
				{
					"anonymous": false,
					"inputs": [
						{
							"indexed": true,
							"internalType": "address",
							"name": "newImplementation",
							"type": "address"
						}
					],
					"name": "Upgraded",
					"type": "event"
				},
				{
					"stateMutability": "payable",
					"type": "fallback"
				},
				{
					"inputs": [],
					"name": "count",
					"outputs": [
						{
							"internalType": "uint256",
							"name": "",
							"type": "uint256"
						}
					],
					"stateMutability": "view",
					"type": "function"
				},
				{
					"inputs": [],
					"name": "implementation",
					"outputs": [
						{
							"internalType": "address",
							"name": "",
							"type": "address"
						}
					],
					"stateMutability": "view",
					"type": "function"
				},
				{
					"inputs": [],
					"name": "owner",
					"outputs": [
						{
							"internalType": "address",
							"name": "",
							"type": "address"
						}
					],
					"stateMutability": "view",
					"type": "function"
				},
				{
					"inputs": [
						{
							"internalType": "address",
							"name": "_newImplementation",
							"type": "address"
						}
					],
					"name": "upgradeTo",
					"outputs": [],
					"stateMutability": "nonpayable",
					"type": "function"
				},
				{
					"stateMutability": "payable",
					"type": "receive"
				}
			],
			"devdoc": {
				"kind": "dev",
				"methods": {},
				"version": 1
			},
			"evm": {
				"assembly": "    /* \"contracts/lesson9.2/SimpleProxy.sol\":61:1973  contract Proxy {... */\n  mstore(0x40, 0x80)\n    /* \"contracts/lesson9.2/SimpleProxy.sol\":470:587  constructor(address _implementation) {... */\n  callvalue\n  dup1\n  iszero\n  tag_1\n  jumpi\n  revert(0x00, 0x00)\ntag_1:\n  pop\n  mload(0x40)\n  sub(codesize, bytecodeSize)\n  dup1\n  bytecodeSize\n  dup4\n  codecopy\n  dup2\n  dup2\n  add\n  0x40\n  mstore\n  dup2\n  add\n  swap1\n  tag_2\n  swap2\n  swap1\n  tag_3\n  jump\t// in\ntag_2:\n    /* \"contracts/lesson9.2/SimpleProxy.sol\":526:536  msg.sender */\n  caller\n    /* \"contracts/lesson9.2/SimpleProxy.sol\":518:523  owner */\n  0x02\n  0x00\n    /* \"contracts/lesson9.2/SimpleProxy.sol\":518:536  owner = msg.sender */\n  0x0100\n  exp\n  dup2\n  sload\n  dup2\n  0xffffffffffffffffffffffffffffffffffffffff\n  mul\n  not\n  and\n  swap1\n  dup4\n  0xffffffffffffffffffffffffffffffffffffffff\n  and\n  mul\n  or\n  swap1\n  sstore\n  pop\n    /* \"contracts/lesson9.2/SimpleProxy.sol\":564:579  _implementation */\n  dup1\n    /* \"contracts/lesson9.2/SimpleProxy.sol\":547:561  implementation */\n  0x00\n  0x00\n    /* \"contracts/lesson9.2/SimpleProxy.sol\":547:579  implementation = _implementation */\n  0x0100\n  exp\n  dup2\n  sload\n  dup2\n  0xffffffffffffffffffffffffffffffffffffffff\n  mul\n  not\n  and\n  swap1\n  dup4\n  0xffffffffffffffffffffffffffffffffffffffff\n  and\n  mul\n  or\n  swap1\n  sstore\n  pop\n    /* \"contracts/lesson9.2/SimpleProxy.sol\":470:587  constructor(address _implementation) {... */\n  pop\n    /* \"contracts/lesson9.2/SimpleProxy.sol\":61:1973  contract Proxy {... */\n  jump(tag_6)\n    /* \"#utility.yul\":88:205   */\ntag_8:\n    /* \"#utility.yul\":197:198   */\n  0x00\n    /* \"#utility.yul\":194:195   */\n  0x00\n    /* \"#utility.yul\":187:199   */\n  revert\n    /* \"#utility.yul\":334:460   */\ntag_10:\n    /* \"#utility.yul\":371:378   */\n  0x00\n    /* \"#utility.yul\":411:453   */\n  0xffffffffffffffffffffffffffffffffffffffff\n    /* \"#utility.yul\":404:409   */\n  dup3\n    /* \"#utility.yul\":400:454   */\n  and\n    /* \"#utility.yul\":389:454   */\n  swap1\n  pop\n    /* \"#utility.yul\":334:460   */\n  swap2\n  swap1\n  pop\n  jump\t// out\n    /* \"#utility.yul\":466:562   */\ntag_11:\n    /* \"#utility.yul\":503:510   */\n  0x00\n    /* \"#utility.yul\":532:556   */\n  tag_20\n    /* \"#utility.yul\":550:555   */\n  dup3\n    /* \"#utility.yul\":532:556   */\n  tag_10\n  jump\t// in\ntag_20:\n    /* \"#utility.yul\":521:556   */\n  swap1\n  pop\n    /* \"#utility.yul\":466:562   */\n  swap2\n  swap1\n  pop\n  jump\t// out\n    /* \"#utility.yul\":568:690   */\ntag_12:\n    /* \"#utility.yul\":641:665   */\n  tag_22\n    /* \"#utility.yul\":659:664   */\n  dup2\n    /* \"#utility.yul\":641:665   */\n  tag_11\n  jump\t// in\ntag_22:\n    /* \"#utility.yul\":634:639   */\n  dup2\n    /* \"#utility.yul\":631:666   */\n  eq\n    /* \"#utility.yul\":621:684   */\n  tag_23\n  jumpi\n    /* \"#utility.yul\":680:681   */\n  0x00\n    /* \"#utility.yul\":677:678   */\n  0x00\n    /* \"#utility.yul\":670:682   */\n  revert\n    /* \"#utility.yul\":621:684   */\ntag_23:\n    /* \"#utility.yul\":568:690   */\n  pop\n  jump\t// out\n    /* \"#utility.yul\":696:839   */\ntag_13:\n    /* \"#utility.yul\":753:758   */\n  0x00\n    /* \"#utility.yul\":784:790   */\n  dup2\n    /* \"#utility.yul\":778:791   */\n  mload\n    /* \"#utility.yul\":769:791   */\n  swap1\n  pop\n    /* \"#utility.yul\":800:833   */\n  tag_25\n    /* \"#utility.yul\":827:832   */\n  dup2\n    /* \"#utility.yul\":800:833   */\n  tag_12\n  jump\t// in\ntag_25:\n    /* \"#utility.yul\":696:839   */\n  swap3\n  swap2\n  pop\n  pop\n  jump\t// out\n    /* \"#utility.yul\":845:1196   */\ntag_3:\n    /* \"#utility.yul\":915:921   */\n  0x00\n    /* \"#utility.yul\":964:966   */\n  0x20\n    /* \"#utility.yul\":952:961   */\n  dup3\n    /* \"#utility.yul\":943:950   */\n  dup5\n    /* \"#utility.yul\":939:962   */\n  sub\n    /* \"#utility.yul\":935:967   */\n  slt\n    /* \"#utility.yul\":932:1051   */\n  iszero\n  tag_27\n  jumpi\n    /* \"#utility.yul\":970:1049   */\n  tag_28\n  tag_8\n  jump\t// in\ntag_28:\n    /* \"#utility.yul\":932:1051   */\ntag_27:\n    /* \"#utility.yul\":1090:1091   */\n  0x00\n    /* \"#utility.yul\":1115:1179   */\n  tag_29\n    /* \"#utility.yul\":1171:1178   */\n  dup5\n    /* \"#utility.yul\":1162:1168   */\n  dup3\n    /* \"#utility.yul\":1151:1160   */\n  dup6\n    /* \"#utility.yul\":1147:1169   */\n  add\n    /* \"#utility.yul\":1115:1179   */\n  tag_13\n  jump\t// in\ntag_29:\n    /* \"#utility.yul\":1105:1179   */\n  swap2\n  pop\n    /* \"#utility.yul\":1061:1189   */\n  pop\n    /* \"#utility.yul\":845:1196   */\n  swap3\n  swap2\n  pop\n  pop\n  jump\t// out\n    /* \"contracts/lesson9.2/SimpleProxy.sol\":61:1973  contract Proxy {... */\ntag_6:\n  dataSize(sub_0)\n  dup1\n  dataOffset(sub_0)\n  0x00\n  codecopy\n  0x00\n  return\nstop\n\nsub_0: assembly {\n        /* \"contracts/lesson9.2/SimpleProxy.sol\":61:1973  contract Proxy {... */\n      mstore(0x40, 0x80)\n      jumpi(tag_1, lt(calldatasize, 0x04))\n      shr(0xe0, calldataload(0x00))\n      dup1\n      0x06661abd\n      eq\n      tag_3\n      jumpi\n      dup1\n      0x3659cfe6\n      eq\n      tag_4\n      jumpi\n      dup1\n      0x5c60da1b\n      eq\n      tag_5\n      jumpi\n      dup1\n      0x8da5cb5b\n      eq\n      tag_6\n      jumpi\n      jump(tag_2)\n    tag_1:\n      jumpi(tag_2, calldatasize)\n        /* \"contracts/lesson9.2/SimpleProxy.sol\":934:959  _delegate(implementation) */\n      tag_9\n        /* \"contracts/lesson9.2/SimpleProxy.sol\":944:958  implementation */\n      0x00\n      0x00\n      swap1\n      sload\n      swap1\n      0x0100\n      exp\n      swap1\n      div\n      0xffffffffffffffffffffffffffffffffffffffff\n      and\n        /* \"contracts/lesson9.2/SimpleProxy.sol\":934:943  _delegate */\n      tag_10\n        /* \"contracts/lesson9.2/SimpleProxy.sol\":934:959  _delegate(implementation) */\n      jump\t// in\n    tag_9:\n        /* \"contracts/lesson9.2/SimpleProxy.sol\":61:1973  contract Proxy {... */\n      stop\n    tag_2:\n        /* \"contracts/lesson9.2/SimpleProxy.sol\":855:880  _delegate(implementation) */\n      tag_13\n        /* \"contracts/lesson9.2/SimpleProxy.sol\":865:879  implementation */\n      0x00\n      0x00\n      swap1\n      sload\n      swap1\n      0x0100\n      exp\n      swap1\n      div\n      0xffffffffffffffffffffffffffffffffffffffff\n      and\n        /* \"contracts/lesson9.2/SimpleProxy.sol\":855:864  _delegate */\n      tag_10\n        /* \"contracts/lesson9.2/SimpleProxy.sol\":855:880  _delegate(implementation) */\n      jump\t// in\n    tag_13:\n        /* \"contracts/lesson9.2/SimpleProxy.sol\":61:1973  contract Proxy {... */\n      stop\n        /* \"contracts/lesson9.2/SimpleProxy.sol\":214:234  uint256 public count */\n    tag_3:\n      callvalue\n      dup1\n      iszero\n      tag_14\n      jumpi\n      revert(0x00, 0x00)\n    tag_14:\n      pop\n      tag_15\n      tag_16\n      jump\t// in\n    tag_15:\n      mload(0x40)\n      tag_17\n      swap2\n      swap1\n      tag_18\n      jump\t// in\n    tag_17:\n      mload(0x40)\n      dup1\n      swap2\n      sub\n      swap1\n      return\n        /* \"contracts/lesson9.2/SimpleProxy.sol\":1721:1970  function upgradeTo(address _newImplementation) external onlyOwner {... */\n    tag_4:\n      callvalue\n      dup1\n      iszero\n      tag_19\n      jumpi\n      revert(0x00, 0x00)\n    tag_19:\n      pop\n      tag_20\n      0x04\n      dup1\n      calldatasize\n      sub\n      dup2\n      add\n      swap1\n      tag_21\n      swap2\n      swap1\n      tag_22\n      jump\t// in\n    tag_21:\n      tag_23\n      jump\t// in\n    tag_20:\n      stop\n        /* \"contracts/lesson9.2/SimpleProxy.sol\":156:185  address public implementation */\n    tag_5:\n      callvalue\n      dup1\n      iszero\n      tag_24\n      jumpi\n      revert(0x00, 0x00)\n    tag_24:\n      pop\n      tag_25\n      tag_26\n      jump\t// in\n    tag_25:\n      mload(0x40)\n      tag_27\n      swap2\n      swap1\n      tag_28\n      jump\t// in\n    tag_27:\n      mload(0x40)\n      dup1\n      swap2\n      sub\n      swap1\n      return\n        /* \"contracts/lesson9.2/SimpleProxy.sol\":278:298  address public owner */\n    tag_6:\n      callvalue\n      dup1\n      iszero\n      tag_29\n      jumpi\n      revert(0x00, 0x00)\n    tag_29:\n      pop\n      tag_30\n      tag_31\n      jump\t// in\n    tag_30:\n      mload(0x40)\n      tag_32\n      swap2\n      swap1\n      tag_28\n      jump\t// in\n    tag_32:\n      mload(0x40)\n      dup1\n      swap2\n      sub\n      swap1\n      return\n        /* \"contracts/lesson9.2/SimpleProxy.sol\":1008:1664  function _delegate(address _impl) internal {... */\n    tag_10:\n        /* \"contracts/lesson9.2/SimpleProxy.sol\":1206:1220  calldatasize() */\n      calldatasize\n        /* \"contracts/lesson9.2/SimpleProxy.sol\":1203:1204  0 */\n      0x00\n        /* \"contracts/lesson9.2/SimpleProxy.sol\":1200:1201  0 */\n      0x00\n        /* \"contracts/lesson9.2/SimpleProxy.sol\":1187:1221  calldatacopy(0, 0, calldatasize()) */\n      calldatacopy\n        /* \"contracts/lesson9.2/SimpleProxy.sol\":1335:1336  0 */\n      0x00\n        /* \"contracts/lesson9.2/SimpleProxy.sol\":1332:1333  0 */\n      0x00\n        /* \"contracts/lesson9.2/SimpleProxy.sol\":1316:1330  calldatasize() */\n      calldatasize\n        /* \"contracts/lesson9.2/SimpleProxy.sol\":1313:1314  0 */\n      0x00\n        /* \"contracts/lesson9.2/SimpleProxy.sol\":1306:1311  _impl */\n      dup5\n        /* \"contracts/lesson9.2/SimpleProxy.sol\":1299:1304  gas() */\n      gas\n        /* \"contracts/lesson9.2/SimpleProxy.sol\":1286:1337  delegatecall(gas(), _impl, 0, calldatasize(), 0, 0) */\n      delegatecall\n        /* \"contracts/lesson9.2/SimpleProxy.sol\":1418:1434  returndatasize() */\n      returndatasize\n        /* \"contracts/lesson9.2/SimpleProxy.sol\":1415:1416  0 */\n      0x00\n        /* \"contracts/lesson9.2/SimpleProxy.sol\":1412:1413  0 */\n      0x00\n        /* \"contracts/lesson9.2/SimpleProxy.sol\":1397:1435  returndatacopy(0, 0, returndatasize()) */\n      returndatacopy\n        /* \"contracts/lesson9.2/SimpleProxy.sol\":1535:1541  result */\n      dup1\n        /* \"contracts/lesson9.2/SimpleProxy.sol\":1560:1561  0 */\n      0x00\n        /* \"contracts/lesson9.2/SimpleProxy.sol\":1555:1593  case 0 { revert(0, returndatasize()) } */\n      dup2\n      eq\n      tag_35\n      jumpi\n        /* \"contracts/lesson9.2/SimpleProxy.sol\":1627:1643  returndatasize() */\n      returndatasize\n        /* \"contracts/lesson9.2/SimpleProxy.sol\":1624:1625  0 */\n      0x00\n        /* \"contracts/lesson9.2/SimpleProxy.sol\":1617:1644  return(0, returndatasize()) */\n      return\n        /* \"contracts/lesson9.2/SimpleProxy.sol\":1555:1593  case 0 { revert(0, returndatasize()) } */\n    tag_35:\n        /* \"contracts/lesson9.2/SimpleProxy.sol\":1574:1590  returndatasize() */\n      returndatasize\n        /* \"contracts/lesson9.2/SimpleProxy.sol\":1571:1572  0 */\n      0x00\n        /* \"contracts/lesson9.2/SimpleProxy.sol\":1564:1591  revert(0, returndatasize()) */\n      revert\n        /* \"contracts/lesson9.2/SimpleProxy.sol\":214:234  uint256 public count */\n    tag_16:\n      sload(0x01)\n      dup2\n      jump\t// out\n        /* \"contracts/lesson9.2/SimpleProxy.sol\":1721:1970  function upgradeTo(address _newImplementation) external onlyOwner {... */\n    tag_23:\n        /* \"contracts/lesson9.2/SimpleProxy.sol\":695:700  owner */\n      0x02\n      0x00\n      swap1\n      sload\n      swap1\n      0x0100\n      exp\n      swap1\n      div\n      0xffffffffffffffffffffffffffffffffffffffff\n      and\n        /* \"contracts/lesson9.2/SimpleProxy.sol\":681:700  msg.sender == owner */\n      0xffffffffffffffffffffffffffffffffffffffff\n      and\n        /* \"contracts/lesson9.2/SimpleProxy.sol\":681:691  msg.sender */\n      caller\n        /* \"contracts/lesson9.2/SimpleProxy.sol\":681:700  msg.sender == owner */\n      0xffffffffffffffffffffffffffffffffffffffff\n      and\n      eq\n        /* \"contracts/lesson9.2/SimpleProxy.sol\":673:721  require(msg.sender == owner, \"Proxy: not owner\") */\n      tag_37\n      jumpi\n      mload(0x40)\n      0x08c379a000000000000000000000000000000000000000000000000000000000\n      dup2\n      mstore\n      0x04\n      add\n      tag_38\n      swap1\n      tag_39\n      jump\t// in\n    tag_38:\n      mload(0x40)\n      dup1\n      swap2\n      sub\n      swap1\n      revert\n    tag_37:\n        /* \"contracts/lesson9.2/SimpleProxy.sol\":1836:1837  0 */\n      0x00\n        /* \"contracts/lesson9.2/SimpleProxy.sol\":1806:1838  _newImplementation != address(0) */\n      0xffffffffffffffffffffffffffffffffffffffff\n      and\n        /* \"contracts/lesson9.2/SimpleProxy.sol\":1806:1824  _newImplementation */\n      dup2\n        /* \"contracts/lesson9.2/SimpleProxy.sol\":1806:1838  _newImplementation != address(0) */\n      0xffffffffffffffffffffffffffffffffffffffff\n      and\n      sub\n        /* \"contracts/lesson9.2/SimpleProxy.sol\":1798:1872  require(_newImplementation != address(0), \"Proxy: invalid implementation\") */\n      tag_41\n      jumpi\n      mload(0x40)\n      0x08c379a000000000000000000000000000000000000000000000000000000000\n      dup2\n      mstore\n      0x04\n      add\n      tag_42\n      swap1\n      tag_43\n      jump\t// in\n    tag_42:\n      mload(0x40)\n      dup1\n      swap2\n      sub\n      swap1\n      revert\n    tag_41:\n        /* \"contracts/lesson9.2/SimpleProxy.sol\":1900:1918  _newImplementation */\n      dup1\n        /* \"contracts/lesson9.2/SimpleProxy.sol\":1883:1897  implementation */\n      0x00\n      0x00\n        /* \"contracts/lesson9.2/SimpleProxy.sol\":1883:1918  implementation = _newImplementation */\n      0x0100\n      exp\n      dup2\n      sload\n      dup2\n      0xffffffffffffffffffffffffffffffffffffffff\n      mul\n      not\n      and\n      swap1\n      dup4\n      0xffffffffffffffffffffffffffffffffffffffff\n      and\n      mul\n      or\n      swap1\n      sstore\n      pop\n        /* \"contracts/lesson9.2/SimpleProxy.sol\":1943:1961  _newImplementation */\n      dup1\n        /* \"contracts/lesson9.2/SimpleProxy.sol\":1934:1962  Upgraded(_newImplementation) */\n      0xffffffffffffffffffffffffffffffffffffffff\n      and\n      0xbc7cd75a20ee27fd9adebab32041f755214dbc6bffa90cc0225b39da2e5c2d3b\n      mload(0x40)\n      mload(0x40)\n      dup1\n      swap2\n      sub\n      swap1\n      log2\n        /* \"contracts/lesson9.2/SimpleProxy.sol\":1721:1970  function upgradeTo(address _newImplementation) external onlyOwner {... */\n      pop\n      jump\t// out\n        /* \"contracts/lesson9.2/SimpleProxy.sol\":156:185  address public implementation */\n    tag_26:\n      0x00\n      0x00\n      swap1\n      sload\n      swap1\n      0x0100\n      exp\n      swap1\n      div\n      0xffffffffffffffffffffffffffffffffffffffff\n      and\n      dup2\n      jump\t// out\n        /* \"contracts/lesson9.2/SimpleProxy.sol\":278:298  address public owner */\n    tag_31:\n      0x02\n      0x00\n      swap1\n      sload\n      swap1\n      0x0100\n      exp\n      swap1\n      div\n      0xffffffffffffffffffffffffffffffffffffffff\n      and\n      dup2\n      jump\t// out\n        /* \"#utility.yul\":7:84   */\n    tag_44:\n        /* \"#utility.yul\":44:51   */\n      0x00\n        /* \"#utility.yul\":73:78   */\n      dup2\n        /* \"#utility.yul\":62:78   */\n      swap1\n      pop\n        /* \"#utility.yul\":7:84   */\n      swap2\n      swap1\n      pop\n      jump\t// out\n        /* \"#utility.yul\":90:208   */\n    tag_45:\n        /* \"#utility.yul\":177:201   */\n      tag_62\n        /* \"#utility.yul\":195:200   */\n      dup2\n        /* \"#utility.yul\":177:201   */\n      tag_44\n      jump\t// in\n    tag_62:\n        /* \"#utility.yul\":172:175   */\n      dup3\n        /* \"#utility.yul\":165:202   */\n      mstore\n        /* \"#utility.yul\":90:208   */\n      pop\n      pop\n      jump\t// out\n        /* \"#utility.yul\":214:436   */\n    tag_18:\n        /* \"#utility.yul\":307:311   */\n      0x00\n        /* \"#utility.yul\":345:347   */\n      0x20\n        /* \"#utility.yul\":334:343   */\n      dup3\n        /* \"#utility.yul\":330:348   */\n      add\n        /* \"#utility.yul\":322:348   */\n      swap1\n      pop\n        /* \"#utility.yul\":358:429   */\n      tag_64\n        /* \"#utility.yul\":426:427   */\n      0x00\n        /* \"#utility.yul\":415:424   */\n      dup4\n        /* \"#utility.yul\":411:428   */\n      add\n        /* \"#utility.yul\":402:408   */\n      dup5\n        /* \"#utility.yul\":358:429   */\n      tag_45\n      jump\t// in\n    tag_64:\n        /* \"#utility.yul\":214:436   */\n      swap3\n      swap2\n      pop\n      pop\n      jump\t// out\n        /* \"#utility.yul\":523:640   */\n    tag_47:\n        /* \"#utility.yul\":632:633   */\n      0x00\n        /* \"#utility.yul\":629:630   */\n      0x00\n        /* \"#utility.yul\":622:634   */\n      revert\n        /* \"#utility.yul\":769:895   */\n    tag_49:\n        /* \"#utility.yul\":806:813   */\n      0x00\n        /* \"#utility.yul\":846:888   */\n      0xffffffffffffffffffffffffffffffffffffffff\n        /* \"#utility.yul\":839:844   */\n      dup3\n        /* \"#utility.yul\":835:889   */\n      and\n        /* \"#utility.yul\":824:889   */\n      swap1\n      pop\n        /* \"#utility.yul\":769:895   */\n      swap2\n      swap1\n      pop\n      jump\t// out\n        /* \"#utility.yul\":901:997   */\n    tag_50:\n        /* \"#utility.yul\":938:945   */\n      0x00\n        /* \"#utility.yul\":967:991   */\n      tag_70\n        /* \"#utility.yul\":985:990   */\n      dup3\n        /* \"#utility.yul\":967:991   */\n      tag_49\n      jump\t// in\n    tag_70:\n        /* \"#utility.yul\":956:991   */\n      swap1\n      pop\n        /* \"#utility.yul\":901:997   */\n      swap2\n      swap1\n      pop\n      jump\t// out\n        /* \"#utility.yul\":1003:1125   */\n    tag_51:\n        /* \"#utility.yul\":1076:1100   */\n      tag_72\n        /* \"#utility.yul\":1094:1099   */\n      dup2\n        /* \"#utility.yul\":1076:1100   */\n      tag_50\n      jump\t// in\n    tag_72:\n        /* \"#utility.yul\":1069:1074   */\n      dup2\n        /* \"#utility.yul\":1066:1101   */\n      eq\n        /* \"#utility.yul\":1056:1119   */\n      tag_73\n      jumpi\n        /* \"#utility.yul\":1115:1116   */\n      0x00\n        /* \"#utility.yul\":1112:1113   */\n      0x00\n        /* \"#utility.yul\":1105:1117   */\n      revert\n        /* \"#utility.yul\":1056:1119   */\n    tag_73:\n        /* \"#utility.yul\":1003:1125   */\n      pop\n      jump\t// out\n        /* \"#utility.yul\":1131:1270   */\n    tag_52:\n        /* \"#utility.yul\":1177:1182   */\n      0x00\n        /* \"#utility.yul\":1215:1221   */\n      dup2\n        /* \"#utility.yul\":1202:1222   */\n      calldataload\n        /* \"#utility.yul\":1193:1222   */\n      swap1\n      pop\n        /* \"#utility.yul\":1231:1264   */\n      tag_75\n        /* \"#utility.yul\":1258:1263   */\n      dup2\n        /* \"#utility.yul\":1231:1264   */\n      tag_51\n      jump\t// in\n    tag_75:\n        /* \"#utility.yul\":1131:1270   */\n      swap3\n      swap2\n      pop\n      pop\n      jump\t// out\n        /* \"#utility.yul\":1276:1605   */\n    tag_22:\n        /* \"#utility.yul\":1335:1341   */\n      0x00\n        /* \"#utility.yul\":1384:1386   */\n      0x20\n        /* \"#utility.yul\":1372:1381   */\n      dup3\n        /* \"#utility.yul\":1363:1370   */\n      dup5\n        /* \"#utility.yul\":1359:1382   */\n      sub\n        /* \"#utility.yul\":1355:1387   */\n      slt\n        /* \"#utility.yul\":1352:1471   */\n      iszero\n      tag_77\n      jumpi\n        /* \"#utility.yul\":1390:1469   */\n      tag_78\n      tag_47\n      jump\t// in\n    tag_78:\n        /* \"#utility.yul\":1352:1471   */\n    tag_77:\n        /* \"#utility.yul\":1510:1511   */\n      0x00\n        /* \"#utility.yul\":1535:1588   */\n      tag_79\n        /* \"#utility.yul\":1580:1587   */\n      dup5\n        /* \"#utility.yul\":1571:1577   */\n      dup3\n        /* \"#utility.yul\":1560:1569   */\n      dup6\n        /* \"#utility.yul\":1556:1578   */\n      add\n        /* \"#utility.yul\":1535:1588   */\n      tag_52\n      jump\t// in\n    tag_79:\n        /* \"#utility.yul\":1525:1588   */\n      swap2\n      pop\n        /* \"#utility.yul\":1481:1598   */\n      pop\n        /* \"#utility.yul\":1276:1605   */\n      swap3\n      swap2\n      pop\n      pop\n      jump\t// out\n        /* \"#utility.yul\":1611:1729   */\n    tag_53:\n        /* \"#utility.yul\":1698:1722   */\n      tag_81\n        /* \"#utility.yul\":1716:1721   */\n      dup2\n        /* \"#utility.yul\":1698:1722   */\n      tag_50\n      jump\t// in\n    tag_81:\n        /* \"#utility.yul\":1693:1696   */\n      dup3\n        /* \"#utility.yul\":1686:1723   */\n      mstore\n        /* \"#utility.yul\":1611:1729   */\n      pop\n      pop\n      jump\t// out\n        /* \"#utility.yul\":1735:1957   */\n    tag_28:\n        /* \"#utility.yul\":1828:1832   */\n      0x00\n        /* \"#utility.yul\":1866:1868   */\n      0x20\n        /* \"#utility.yul\":1855:1864   */\n      dup3\n        /* \"#utility.yul\":1851:1869   */\n      add\n        /* \"#utility.yul\":1843:1869   */\n      swap1\n      pop\n        /* \"#utility.yul\":1879:1950   */\n      tag_83\n        /* \"#utility.yul\":1947:1948   */\n      0x00\n        /* \"#utility.yul\":1936:1945   */\n      dup4\n        /* \"#utility.yul\":1932:1949   */\n      add\n        /* \"#utility.yul\":1923:1929   */\n      dup5\n        /* \"#utility.yul\":1879:1950   */\n      tag_53\n      jump\t// in\n    tag_83:\n        /* \"#utility.yul\":1735:1957   */\n      swap3\n      swap2\n      pop\n      pop\n      jump\t// out\n        /* \"#utility.yul\":1963:2132   */\n    tag_54:\n        /* \"#utility.yul\":2047:2058   */\n      0x00\n        /* \"#utility.yul\":2081:2087   */\n      dup3\n        /* \"#utility.yul\":2076:2079   */\n      dup3\n        /* \"#utility.yul\":2069:2088   */\n      mstore\n        /* \"#utility.yul\":2121:2125   */\n      0x20\n        /* \"#utility.yul\":2116:2119   */\n      dup3\n        /* \"#utility.yul\":2112:2126   */\n      add\n        /* \"#utility.yul\":2097:2126   */\n      swap1\n      pop\n        /* \"#utility.yul\":1963:2132   */\n      swap3\n      swap2\n      pop\n      pop\n      jump\t// out\n        /* \"#utility.yul\":2138:2304   */\n    tag_55:\n        /* \"#utility.yul\":2278:2296   */\n      0x50726f78793a206e6f74206f776e657200000000000000000000000000000000\n        /* \"#utility.yul\":2274:2275   */\n      0x00\n        /* \"#utility.yul\":2266:2272   */\n      dup3\n        /* \"#utility.yul\":2262:2276   */\n      add\n        /* \"#utility.yul\":2255:2297   */\n      mstore\n        /* \"#utility.yul\":2138:2304   */\n      pop\n      jump\t// out\n        /* \"#utility.yul\":2310:2676   */\n    tag_56:\n        /* \"#utility.yul\":2452:2455   */\n      0x00\n        /* \"#utility.yul\":2473:2540   */\n      tag_87\n        /* \"#utility.yul\":2537:2539   */\n      0x10\n        /* \"#utility.yul\":2532:2535   */\n      dup4\n        /* \"#utility.yul\":2473:2540   */\n      tag_54\n      jump\t// in\n    tag_87:\n        /* \"#utility.yul\":2466:2540   */\n      swap2\n      pop\n        /* \"#utility.yul\":2549:2642   */\n      tag_88\n        /* \"#utility.yul\":2638:2641   */\n      dup3\n        /* \"#utility.yul\":2549:2642   */\n      tag_55\n      jump\t// in\n    tag_88:\n        /* \"#utility.yul\":2667:2669   */\n      0x20\n        /* \"#utility.yul\":2662:2665   */\n      dup3\n        /* \"#utility.yul\":2658:2670   */\n      add\n        /* \"#utility.yul\":2651:2670   */\n      swap1\n      pop\n        /* \"#utility.yul\":2310:2676   */\n      swap2\n      swap1\n      pop\n      jump\t// out\n        /* \"#utility.yul\":2682:3101   */\n    tag_39:\n        /* \"#utility.yul\":2848:2852   */\n      0x00\n        /* \"#utility.yul\":2886:2888   */\n      0x20\n        /* \"#utility.yul\":2875:2884   */\n      dup3\n        /* \"#utility.yul\":2871:2889   */\n      add\n        /* \"#utility.yul\":2863:2889   */\n      swap1\n      pop\n        /* \"#utility.yul\":2935:2944   */\n      dup2\n        /* \"#utility.yul\":2929:2933   */\n      dup2\n        /* \"#utility.yul\":2925:2945   */\n      sub\n        /* \"#utility.yul\":2921:2922   */\n      0x00\n        /* \"#utility.yul\":2910:2919   */\n      dup4\n        /* \"#utility.yul\":2906:2923   */\n      add\n        /* \"#utility.yul\":2899:2946   */\n      mstore\n        /* \"#utility.yul\":2963:3094   */\n      tag_90\n        /* \"#utility.yul\":3089:3093   */\n      dup2\n        /* \"#utility.yul\":2963:3094   */\n      tag_56\n      jump\t// in\n    tag_90:\n        /* \"#utility.yul\":2955:3094   */\n      swap1\n      pop\n        /* \"#utility.yul\":2682:3101   */\n      swap2\n      swap1\n      pop\n      jump\t// out\n        /* \"#utility.yul\":3107:3286   */\n    tag_57:\n        /* \"#utility.yul\":3247:3278   */\n      0x50726f78793a20696e76616c696420696d706c656d656e746174696f6e000000\n        /* \"#utility.yul\":3243:3244   */\n      0x00\n        /* \"#utility.yul\":3235:3241   */\n      dup3\n        /* \"#utility.yul\":3231:3245   */\n      add\n        /* \"#utility.yul\":3224:3279   */\n      mstore\n        /* \"#utility.yul\":3107:3286   */\n      pop\n      jump\t// out\n        /* \"#utility.yul\":3292:3658   */\n    tag_58:\n        /* \"#utility.yul\":3434:3437   */\n      0x00\n        /* \"#utility.yul\":3455:3522   */\n      tag_93\n        /* \"#utility.yul\":3519:3521   */\n      0x1d\n        /* \"#utility.yul\":3514:3517   */\n      dup4\n        /* \"#utility.yul\":3455:3522   */\n      tag_54\n      jump\t// in\n    tag_93:\n        /* \"#utility.yul\":3448:3522   */\n      swap2\n      pop\n        /* \"#utility.yul\":3531:3624   */\n      tag_94\n        /* \"#utility.yul\":3620:3623   */\n      dup3\n        /* \"#utility.yul\":3531:3624   */\n      tag_57\n      jump\t// in\n    tag_94:\n        /* \"#utility.yul\":3649:3651   */\n      0x20\n        /* \"#utility.yul\":3644:3647   */\n      dup3\n        /* \"#utility.yul\":3640:3652   */\n      add\n        /* \"#utility.yul\":3633:3652   */\n      swap1\n      pop\n        /* \"#utility.yul\":3292:3658   */\n      swap2\n      swap1\n      pop\n      jump\t// out\n        /* \"#utility.yul\":3664:4083   */\n    tag_43:\n        /* \"#utility.yul\":3830:3834   */\n      0x00\n        /* \"#utility.yul\":3868:3870   */\n      0x20\n        /* \"#utility.yul\":3857:3866   */\n      dup3\n        /* \"#utility.yul\":3853:3871   */\n      add\n        /* \"#utility.yul\":3845:3871   */\n      swap1\n      pop\n        /* \"#utility.yul\":3917:3926   */\n      dup2\n        /* \"#utility.yul\":3911:3915   */\n      dup2\n        /* \"#utility.yul\":3907:3927   */\n      sub\n        /* \"#utility.yul\":3903:3904   */\n      0x00\n        /* \"#utility.yul\":3892:3901   */\n      dup4\n        /* \"#utility.yul\":3888:3905   */\n      add\n        /* \"#utility.yul\":3881:3928   */\n      mstore\n        /* \"#utility.yul\":3945:4076   */\n      tag_96\n        /* \"#utility.yul\":4071:4075   */\n      dup2\n        /* \"#utility.yul\":3945:4076   */\n      tag_58\n      jump\t// in\n    tag_96:\n        /* \"#utility.yul\":3937:4076   */\n      swap1\n      pop\n        /* \"#utility.yul\":3664:4083   */\n      swap2\n      swap1\n      pop\n      jump\t// out\n\n    auxdata: 0xa26469706673582212201896f10f6e5110e997e564ee18535dabeb909e1a6c79843e30bf33bf0992948d64736f6c634300081e0033\n}\n",
				"bytecode": {
					"linkReferences": {},
					"object": "608060405234801561000f575f5ffd5b5060405161067738038061067783398181016040528101906100319190610114565b3360025f6101000a81548173ffffffffffffffffffffffffffffffffffffffff021916908373ffffffffffffffffffffffffffffffffffffffff160217905550805f5f6101000a81548173ffffffffffffffffffffffffffffffffffffffff021916908373ffffffffffffffffffffffffffffffffffffffff1602179055505061013f565b5f5ffd5b5f73ffffffffffffffffffffffffffffffffffffffff82169050919050565b5f6100e3826100ba565b9050919050565b6100f3816100d9565b81146100fd575f5ffd5b50565b5f8151905061010e816100ea565b92915050565b5f60208284031215610129576101286100b6565b5b5f61013684828501610100565b91505092915050565b61052b8061014c5f395ff3fe608060405260043610610042575f3560e01c806306661abd1461009d5780633659cfe6146100c75780635c60da1b146100ef5780638da5cb5b1461011957610072565b36610072576100705f5f9054906101000a900473ffffffffffffffffffffffffffffffffffffffff16610143565b005b61009b5f5f9054906101000a900473ffffffffffffffffffffffffffffffffffffffff16610143565b005b3480156100a8575f5ffd5b506100b1610162565b6040516100be919061034b565b60405180910390f35b3480156100d2575f5ffd5b506100ed60048036038101906100e891906103c2565b610168565b005b3480156100fa575f5ffd5b506101036102ea565b60405161011091906103fc565b60405180910390f35b348015610124575f5ffd5b5061012d61030e565b60405161013a91906103fc565b60405180910390f35b365f5f375f5f365f845af43d5f5f3e805f811461015e573d5ff35b3d5ffd5b60015481565b60025f9054906101000a900473ffffffffffffffffffffffffffffffffffffffff1673ffffffffffffffffffffffffffffffffffffffff163373ffffffffffffffffffffffffffffffffffffffff16146101f7576040517f08c379a00000000000000000000000000000000000000000000000000000000081526004016101ee9061046f565b60405180910390fd5b5f73ffffffffffffffffffffffffffffffffffffffff168173ffffffffffffffffffffffffffffffffffffffff1603610265576040517f08c379a000000000000000000000000000000000000000000000000000000000815260040161025c906104d7565b60405180910390fd5b805f5f6101000a81548173ffffffffffffffffffffffffffffffffffffffff021916908373ffffffffffffffffffffffffffffffffffffffff1602179055508073ffffffffffffffffffffffffffffffffffffffff167fbc7cd75a20ee27fd9adebab32041f755214dbc6bffa90cc0225b39da2e5c2d3b60405160405180910390a250565b5f5f9054906101000a900473ffffffffffffffffffffffffffffffffffffffff1681565b60025f9054906101000a900473ffffffffffffffffffffffffffffffffffffffff1681565b5f819050919050565b61034581610333565b82525050565b5f60208201905061035e5f83018461033c565b92915050565b5f5ffd5b5f73ffffffffffffffffffffffffffffffffffffffff82169050919050565b5f61039182610368565b9050919050565b6103a181610387565b81146103ab575f5ffd5b50565b5f813590506103bc81610398565b92915050565b5f602082840312156103d7576103d6610364565b5b5f6103e4848285016103ae565b91505092915050565b6103f681610387565b82525050565b5f60208201905061040f5f8301846103ed565b92915050565b5f82825260208201905092915050565b7f50726f78793a206e6f74206f776e6572000000000000000000000000000000005f82015250565b5f610459601083610415565b915061046482610425565b602082019050919050565b5f6020820190508181035f8301526104868161044d565b9050919050565b7f50726f78793a20696e76616c696420696d706c656d656e746174696f6e0000005f82015250565b5f6104c1601d83610415565b91506104cc8261048d565b602082019050919050565b5f6020820190508181035f8301526104ee816104b5565b905091905056fea26469706673582212201896f10f6e5110e997e564ee18535dabeb909e1a6c79843e30bf33bf0992948d64736f6c634300081e0033",
					"opcodes": "PUSH1 0x80 PUSH1 0x40 MSTORE CALLVALUE DUP1 ISZERO PUSH2 0xF JUMPI PUSH0 PUSH0 REVERT JUMPDEST POP PUSH1 0x40 MLOAD PUSH2 0x677 CODESIZE SUB DUP1 PUSH2 0x677 DUP4 CODECOPY DUP2 DUP2 ADD PUSH1 0x40 MSTORE DUP2 ADD SWAP1 PUSH2 0x31 SWAP2 SWAP1 PUSH2 0x114 JUMP JUMPDEST CALLER PUSH1 0x2 PUSH0 PUSH2 0x100 EXP DUP2 SLOAD DUP2 PUSH20 0xFFFFFFFFFFFFFFFFFFFFFFFFFFFFFFFFFFFFFFFF MUL NOT AND SWAP1 DUP4 PUSH20 0xFFFFFFFFFFFFFFFFFFFFFFFFFFFFFFFFFFFFFFFF AND MUL OR SWAP1 SSTORE POP DUP1 PUSH0 PUSH0 PUSH2 0x100 EXP DUP2 SLOAD DUP2 PUSH20 0xFFFFFFFFFFFFFFFFFFFFFFFFFFFFFFFFFFFFFFFF MUL NOT AND SWAP1 DUP4 PUSH20 0xFFFFFFFFFFFFFFFFFFFFFFFFFFFFFFFFFFFFFFFF AND MUL OR SWAP1 SSTORE POP POP PUSH2 0x13F JUMP JUMPDEST PUSH0 PUSH0 REVERT JUMPDEST PUSH0 PUSH20 0xFFFFFFFFFFFFFFFFFFFFFFFFFFFFFFFFFFFFFFFF DUP3 AND SWAP1 POP SWAP2 SWAP1 POP JUMP JUMPDEST PUSH0 PUSH2 0xE3 DUP3 PUSH2 0xBA JUMP JUMPDEST SWAP1 POP SWAP2 SWAP1 POP JUMP JUMPDEST PUSH2 0xF3 DUP2 PUSH2 0xD9 JUMP JUMPDEST DUP2 EQ PUSH2 0xFD JUMPI PUSH0 PUSH0 REVERT JUMPDEST POP JUMP JUMPDEST PUSH0 DUP2 MLOAD SWAP1 POP PUSH2 0x10E DUP2 PUSH2 0xEA JUMP JUMPDEST SWAP3 SWAP2 POP POP JUMP JUMPDEST PUSH0 PUSH1 0x20 DUP3 DUP5 SUB SLT ISZERO PUSH2 0x129 JUMPI PUSH2 0x128 PUSH2 0xB6 JUMP JUMPDEST JUMPDEST PUSH0 PUSH2 0x136 DUP5 DUP3 DUP6 ADD PUSH2 0x100 JUMP JUMPDEST SWAP2 POP POP SWAP3 SWAP2 POP POP JUMP JUMPDEST PUSH2 0x52B DUP1 PUSH2 0x14C PUSH0 CODECOPY PUSH0 RETURN INVALID PUSH1 0x80 PUSH1 0x40 MSTORE PUSH1 0x4 CALLDATASIZE LT PUSH2 0x42 JUMPI PUSH0 CALLDATALOAD PUSH1 0xE0 SHR DUP1 PUSH4 0x6661ABD EQ PUSH2 0x9D JUMPI DUP1 PUSH4 0x3659CFE6 EQ PUSH2 0xC7 JUMPI DUP1 PUSH4 0x5C60DA1B EQ PUSH2 0xEF JUMPI DUP1 PUSH4 0x8DA5CB5B EQ PUSH2 0x119 JUMPI PUSH2 0x72 JUMP JUMPDEST CALLDATASIZE PUSH2 0x72 JUMPI PUSH2 0x70 PUSH0 PUSH0 SWAP1 SLOAD SWAP1 PUSH2 0x100 EXP SWAP1 DIV PUSH20 0xFFFFFFFFFFFFFFFFFFFFFFFFFFFFFFFFFFFFFFFF AND PUSH2 0x143 JUMP JUMPDEST STOP JUMPDEST PUSH2 0x9B PUSH0 PUSH0 SWAP1 SLOAD SWAP1 PUSH2 0x100 EXP SWAP1 DIV PUSH20 0xFFFFFFFFFFFFFFFFFFFFFFFFFFFFFFFFFFFFFFFF AND PUSH2 0x143 JUMP JUMPDEST STOP JUMPDEST CALLVALUE DUP1 ISZERO PUSH2 0xA8 JUMPI PUSH0 PUSH0 REVERT JUMPDEST POP PUSH2 0xB1 PUSH2 0x162 JUMP JUMPDEST PUSH1 0x40 MLOAD PUSH2 0xBE SWAP2 SWAP1 PUSH2 0x34B JUMP JUMPDEST PUSH1 0x40 MLOAD DUP1 SWAP2 SUB SWAP1 RETURN JUMPDEST CALLVALUE DUP1 ISZERO PUSH2 0xD2 JUMPI PUSH0 PUSH0 REVERT JUMPDEST POP PUSH2 0xED PUSH1 0x4 DUP1 CALLDATASIZE SUB DUP2 ADD SWAP1 PUSH2 0xE8 SWAP2 SWAP1 PUSH2 0x3C2 JUMP JUMPDEST PUSH2 0x168 JUMP JUMPDEST STOP JUMPDEST CALLVALUE DUP1 ISZERO PUSH2 0xFA JUMPI PUSH0 PUSH0 REVERT JUMPDEST POP PUSH2 0x103 PUSH2 0x2EA JUMP JUMPDEST PUSH1 0x40 MLOAD PUSH2 0x110 SWAP2 SWAP1 PUSH2 0x3FC JUMP JUMPDEST PUSH1 0x40 MLOAD DUP1 SWAP2 SUB SWAP1 RETURN JUMPDEST CALLVALUE DUP1 ISZERO PUSH2 0x124 JUMPI PUSH0 PUSH0 REVERT JUMPDEST POP PUSH2 0x12D PUSH2 0x30E JUMP JUMPDEST PUSH1 0x40 MLOAD PUSH2 0x13A SWAP2 SWAP1 PUSH2 0x3FC JUMP JUMPDEST PUSH1 0x40 MLOAD DUP1 SWAP2 SUB SWAP1 RETURN JUMPDEST CALLDATASIZE PUSH0 PUSH0 CALLDATACOPY PUSH0 PUSH0 CALLDATASIZE PUSH0 DUP5 GAS DELEGATECALL RETURNDATASIZE PUSH0 PUSH0 RETURNDATACOPY DUP1 PUSH0 DUP2 EQ PUSH2 0x15E JUMPI RETURNDATASIZE PUSH0 RETURN JUMPDEST RETURNDATASIZE PUSH0 REVERT JUMPDEST PUSH1 0x1 SLOAD DUP2 JUMP JUMPDEST PUSH1 0x2 PUSH0 SWAP1 SLOAD SWAP1 PUSH2 0x100 EXP SWAP1 DIV PUSH20 0xFFFFFFFFFFFFFFFFFFFFFFFFFFFFFFFFFFFFFFFF AND PUSH20 0xFFFFFFFFFFFFFFFFFFFFFFFFFFFFFFFFFFFFFFFF AND CALLER PUSH20 0xFFFFFFFFFFFFFFFFFFFFFFFFFFFFFFFFFFFFFFFF AND EQ PUSH2 0x1F7 JUMPI PUSH1 0x40 MLOAD PUSH32 0x8C379A000000000000000000000000000000000000000000000000000000000 DUP2 MSTORE PUSH1 0x4 ADD PUSH2 0x1EE SWAP1 PUSH2 0x46F JUMP JUMPDEST PUSH1 0x40 MLOAD DUP1 SWAP2 SUB SWAP1 REVERT JUMPDEST PUSH0 PUSH20 0xFFFFFFFFFFFFFFFFFFFFFFFFFFFFFFFFFFFFFFFF AND DUP2 PUSH20 0xFFFFFFFFFFFFFFFFFFFFFFFFFFFFFFFFFFFFFFFF AND SUB PUSH2 0x265 JUMPI PUSH1 0x40 MLOAD PUSH32 0x8C379A000000000000000000000000000000000000000000000000000000000 DUP2 MSTORE PUSH1 0x4 ADD PUSH2 0x25C SWAP1 PUSH2 0x4D7 JUMP JUMPDEST PUSH1 0x40 MLOAD DUP1 SWAP2 SUB SWAP1 REVERT JUMPDEST DUP1 PUSH0 PUSH0 PUSH2 0x100 EXP DUP2 SLOAD DUP2 PUSH20 0xFFFFFFFFFFFFFFFFFFFFFFFFFFFFFFFFFFFFFFFF MUL NOT AND SWAP1 DUP4 PUSH20 0xFFFFFFFFFFFFFFFFFFFFFFFFFFFFFFFFFFFFFFFF AND MUL OR SWAP1 SSTORE POP DUP1 PUSH20 0xFFFFFFFFFFFFFFFFFFFFFFFFFFFFFFFFFFFFFFFF AND PUSH32 0xBC7CD75A20EE27FD9ADEBAB32041F755214DBC6BFFA90CC0225B39DA2E5C2D3B PUSH1 0x40 MLOAD PUSH1 0x40 MLOAD DUP1 SWAP2 SUB SWAP1 LOG2 POP JUMP JUMPDEST PUSH0 PUSH0 SWAP1 SLOAD SWAP1 PUSH2 0x100 EXP SWAP1 DIV PUSH20 0xFFFFFFFFFFFFFFFFFFFFFFFFFFFFFFFFFFFFFFFF AND DUP2 JUMP JUMPDEST PUSH1 0x2 PUSH0 SWAP1 SLOAD SWAP1 PUSH2 0x100 EXP SWAP1 DIV PUSH20 0xFFFFFFFFFFFFFFFFFFFFFFFFFFFFFFFFFFFFFFFF AND DUP2 JUMP JUMPDEST PUSH0 DUP2 SWAP1 POP SWAP2 SWAP1 POP JUMP JUMPDEST PUSH2 0x345 DUP2 PUSH2 0x333 JUMP JUMPDEST DUP3 MSTORE POP POP JUMP JUMPDEST PUSH0 PUSH1 0x20 DUP3 ADD SWAP1 POP PUSH2 0x35E PUSH0 DUP4 ADD DUP5 PUSH2 0x33C JUMP JUMPDEST SWAP3 SWAP2 POP POP JUMP JUMPDEST PUSH0 PUSH0 REVERT JUMPDEST PUSH0 PUSH20 0xFFFFFFFFFFFFFFFFFFFFFFFFFFFFFFFFFFFFFFFF DUP3 AND SWAP1 POP SWAP2 SWAP1 POP JUMP JUMPDEST PUSH0 PUSH2 0x391 DUP3 PUSH2 0x368 JUMP JUMPDEST SWAP1 POP SWAP2 SWAP1 POP JUMP JUMPDEST PUSH2 0x3A1 DUP2 PUSH2 0x387 JUMP JUMPDEST DUP2 EQ PUSH2 0x3AB JUMPI PUSH0 PUSH0 REVERT JUMPDEST POP JUMP JUMPDEST PUSH0 DUP2 CALLDATALOAD SWAP1 POP PUSH2 0x3BC DUP2 PUSH2 0x398 JUMP JUMPDEST SWAP3 SWAP2 POP POP JUMP JUMPDEST PUSH0 PUSH1 0x20 DUP3 DUP5 SUB SLT ISZERO PUSH2 0x3D7 JUMPI PUSH2 0x3D6 PUSH2 0x364 JUMP JUMPDEST JUMPDEST PUSH0 PUSH2 0x3E4 DUP5 DUP3 DUP6 ADD PUSH2 0x3AE JUMP JUMPDEST SWAP2 POP POP SWAP3 SWAP2 POP POP JUMP JUMPDEST PUSH2 0x3F6 DUP2 PUSH2 0x387 JUMP JUMPDEST DUP3 MSTORE POP POP JUMP JUMPDEST PUSH0 PUSH1 0x20 DUP3 ADD SWAP1 POP PUSH2 0x40F PUSH0 DUP4 ADD DUP5 PUSH2 0x3ED JUMP JUMPDEST SWAP3 SWAP2 POP POP JUMP JUMPDEST PUSH0 DUP3 DUP3 MSTORE PUSH1 0x20 DUP3 ADD SWAP1 POP SWAP3 SWAP2 POP POP JUMP JUMPDEST PUSH32 0x50726F78793A206E6F74206F776E657200000000000000000000000000000000 PUSH0 DUP3 ADD MSTORE POP JUMP JUMPDEST PUSH0 PUSH2 0x459 PUSH1 0x10 DUP4 PUSH2 0x415 JUMP JUMPDEST SWAP2 POP PUSH2 0x464 DUP3 PUSH2 0x425 JUMP JUMPDEST PUSH1 0x20 DUP3 ADD SWAP1 POP SWAP2 SWAP1 POP JUMP JUMPDEST PUSH0 PUSH1 0x20 DUP3 ADD SWAP1 POP DUP2 DUP2 SUB PUSH0 DUP4 ADD MSTORE PUSH2 0x486 DUP2 PUSH2 0x44D JUMP JUMPDEST SWAP1 POP SWAP2 SWAP1 POP JUMP JUMPDEST PUSH32 0x50726F78793A20696E76616C696420696D706C656D656E746174696F6E000000 PUSH0 DUP3 ADD MSTORE POP JUMP JUMPDEST PUSH0 PUSH2 0x4C1 PUSH1 0x1D DUP4 PUSH2 0x415 JUMP JUMPDEST SWAP2 POP PUSH2 0x4CC DUP3 PUSH2 0x48D JUMP JUMPDEST PUSH1 0x20 DUP3 ADD SWAP1 POP SWAP2 SWAP1 POP JUMP JUMPDEST PUSH0 PUSH1 0x20 DUP3 ADD SWAP1 POP DUP2 DUP2 SUB PUSH0 DUP4 ADD MSTORE PUSH2 0x4EE DUP2 PUSH2 0x4B5 JUMP JUMPDEST SWAP1 POP SWAP2 SWAP1 POP JUMP INVALID LOG2 PUSH5 0x6970667358 0x22 SLT KECCAK256 XOR SWAP7 CALL 0xF PUSH15 0x5110E997E564EE18535DABEB909E1A PUSH13 0x79843E30BF33BF0992948D6473 PUSH16 0x6C634300081E00330000000000000000 "
				},
				"gasEstimates": {
					"creation": {
						"codeDepositCost": "264600",
						"executionCost": "infinite",
						"totalCost": "infinite"
					},
					"external": {
						"": "infinite",
						"count()": "2403",
						"implementation()": "2529",
						"owner()": "2552",
						"upgradeTo(address)": "28078"
					},
					"internal": {
						"_delegate(address)": "infinite"
					}
				},
				"methodIdentifiers": {
					"count()": "06661abd",
					"implementation()": "5c60da1b",
					"owner()": "8da5cb5b",
					"upgradeTo(address)": "3659cfe6"
				}
			},
			"storageLayout": {
				"storage": [
					{
						"astId": 3,
						"contract": "contracts/lesson9.2/SimpleProxy.sol:Proxy",
						"label": "implementation",
						"offset": 0,
						"slot": "0",
						"type": "t_address"
					},
					{
						"astId": 5,
						"contract": "contracts/lesson9.2/SimpleProxy.sol:Proxy",
						"label": "count",
						"offset": 0,
						"slot": "1",
						"type": "t_uint256"
					},
					{
						"astId": 7,
						"contract": "contracts/lesson9.2/SimpleProxy.sol:Proxy",
						"label": "owner",
						"offset": 0,
						"slot": "2",
						"type": "t_address"
					}
				],
				"types": {
					"t_address": {
						"encoding": "inplace",
						"label": "address",
						"numberOfBytes": "20"
					},
					"t_uint256": {
						"encoding": "inplace",
						"label": "uint256",
						"numberOfBytes": "32"
					}
				}
			},
			"userdoc": {
				"kind": "user",
				"methods": {},
				"version": 1
			}
		}
	}
}