{
	"contracts/lesson6.1/02 OwnerSystem.sol": {
		"Ownable": {
			"abi": [
				{
					"inputs": [],
					"stateMutability": "nonpayable",
					"type": "constructor"
				},
				{
					"anonymous": false,
					"inputs": [
						{
							"indexed": true,
							"internalType": "address",
							"name": "previousOwner",
							"type": "address"
						},
						{
							"indexed": true,
							"internalType": "address",
							"name": "newOwner",
							"type": "address"
						}
					],
					"name": "OwnershipTransferred",
					"type": "event"
				},
				{
					"inputs": [],
					"name": "owner",
					"outputs": [
						{
							"internalType": "address",
							"name": "",
							"type": "address"
						}
					],
					"stateMutability": "view",
					"type": "function"
				},
				{
					"inputs": [
						{
							"internalType": "address",
							"name": "_newOwner",
							"type": "address"
						}
					],
					"name": "ownershipTransferred",
					"outputs": [
						{
							"internalType": "bool",
							"name": "",
							"type": "bool"
						}
					],
					"stateMutability": "nonpayable",
					"type": "function"
				}
			],
			"devdoc": {
				"kind": "dev",
				"methods": {},
				"version": 1
			},
			"evm": {
				"assembly": "    /* \"contracts/lesson6.1/02 OwnerSystem.sol\":60:689  contract Ownable  {... */\n  mstore(0x40, 0x80)\n    /* \"contracts/lesson6.1/02 OwnerSystem.sol\":206:312  constructor (){... */\n  callvalue\n  dup1\n  iszero\n  tag_1\n  jumpi\n  revert(0x00, 0x00)\ntag_1:\n  pop\n    /* \"contracts/lesson6.1/02 OwnerSystem.sol\":239:249  msg.sender */\n  caller\n    /* \"contracts/lesson6.1/02 OwnerSystem.sol\":231:236  owner */\n  0x00\n  0x00\n    /* \"contracts/lesson6.1/02 OwnerSystem.sol\":231:249  owner = msg.sender */\n  0x0100\n  exp\n  dup2\n  sload\n  dup2\n  0xffffffffffffffffffffffffffffffffffffffff\n  mul\n  not\n  and\n  swap1\n  dup4\n  0xffffffffffffffffffffffffffffffffffffffff\n  and\n  mul\n  or\n  swap1\n  sstore\n  pop\n    /* \"contracts/lesson6.1/02 OwnerSystem.sol\":298:303  owner */\n  0x00\n  0x00\n  swap1\n  sload\n  swap1\n  0x0100\n  exp\n  swap1\n  div\n  0xffffffffffffffffffffffffffffffffffffffff\n  and\n    /* \"contracts/lesson6.1/02 OwnerSystem.sol\":265:304  OwnershipTransferred(address(0), owner) */\n  0xffffffffffffffffffffffffffffffffffffffff\n  and\n    /* \"contracts/lesson6.1/02 OwnerSystem.sol\":294:295  0 */\n  0x00\n    /* \"contracts/lesson6.1/02 OwnerSystem.sol\":265:304  OwnershipTransferred(address(0), owner) */\n  0xffffffffffffffffffffffffffffffffffffffff\n  and\n  0x8be0079c531659141344cd1fd0a4f28419497f9722a3daafe3b4186f6b6457e0\n  mload(0x40)\n  mload(0x40)\n  dup1\n  swap2\n  sub\n  swap1\n  log3\n    /* \"contracts/lesson6.1/02 OwnerSystem.sol\":60:689  contract Ownable  {... */\n  dataSize(sub_0)\n  dup1\n  dataOffset(sub_0)\n  0x00\n  codecopy\n  0x00\n  return\nstop\n\nsub_0: assembly {\n        /* \"contracts/lesson6.1/02 OwnerSystem.sol\":60:689  contract Ownable  {... */\n      mstore(0x40, 0x80)\n      callvalue\n      dup1\n      iszero\n      tag_1\n      jumpi\n      revert(0x00, 0x00)\n    tag_1:\n      pop\n      jumpi(tag_2, lt(calldatasize, 0x04))\n      shr(0xe0, calldataload(0x00))\n      dup1\n      0x8da5cb5b\n      eq\n      tag_3\n      jumpi\n      dup1\n      0xac9a252a\n      eq\n      tag_4\n      jumpi\n    tag_2:\n      revert(0x00, 0x00)\n        /* \"contracts/lesson6.1/02 OwnerSystem.sol\":85:105  address public owner */\n    tag_3:\n      tag_5\n      tag_6\n      jump\t// in\n    tag_5:\n      mload(0x40)\n      tag_7\n      swap2\n      swap1\n      tag_8\n      jump\t// in\n    tag_7:\n      mload(0x40)\n      dup1\n      swap2\n      sub\n      swap1\n      return\n        /* \"contracts/lesson6.1/02 OwnerSystem.sol\":421:684  function ownershipTransferred(address _newOwner) public virtual onlyOwner returns (bool){... */\n    tag_4:\n      tag_9\n      0x04\n      dup1\n      calldatasize\n      sub\n      dup2\n      add\n      swap1\n      tag_10\n      swap2\n      swap1\n      tag_11\n      jump\t// in\n    tag_10:\n      tag_12\n      jump\t// in\n    tag_9:\n      mload(0x40)\n      tag_13\n      swap2\n      swap1\n      tag_14\n      jump\t// in\n    tag_13:\n      mload(0x40)\n      dup1\n      swap2\n      sub\n      swap1\n      return\n        /* \"contracts/lesson6.1/02 OwnerSystem.sol\":85:105  address public owner */\n    tag_6:\n      0x00\n      0x00\n      swap1\n      sload\n      swap1\n      0x0100\n      exp\n      swap1\n      div\n      0xffffffffffffffffffffffffffffffffffffffff\n      and\n      dup2\n      jump\t// out\n        /* \"contracts/lesson6.1/02 OwnerSystem.sol\":421:684  function ownershipTransferred(address _newOwner) public virtual onlyOwner returns (bool){... */\n    tag_12:\n        /* \"contracts/lesson6.1/02 OwnerSystem.sol\":504:508  bool */\n      0x00\n        /* \"contracts/lesson6.1/02 OwnerSystem.sol\":368:378  msg.sender */\n      caller\n        /* \"contracts/lesson6.1/02 OwnerSystem.sol\":359:378  owner == msg.sender */\n      0xffffffffffffffffffffffffffffffffffffffff\n      and\n        /* \"contracts/lesson6.1/02 OwnerSystem.sol\":359:364  owner */\n      0x00\n      0x00\n      swap1\n      sload\n      swap1\n      0x0100\n      exp\n      swap1\n      div\n      0xffffffffffffffffffffffffffffffffffffffff\n      and\n        /* \"contracts/lesson6.1/02 OwnerSystem.sol\":359:378  owner == msg.sender */\n      0xffffffffffffffffffffffffffffffffffffffff\n      and\n      eq\n        /* \"contracts/lesson6.1/02 OwnerSystem.sol\":351:393  require(owner == msg.sender, \"Only owner\") */\n      tag_16\n      jumpi\n      mload(0x40)\n      0x08c379a000000000000000000000000000000000000000000000000000000000\n      dup2\n      mstore\n      0x04\n      add\n      tag_17\n      swap1\n      tag_18\n      jump\t// in\n    tag_17:\n      mload(0x40)\n      dup1\n      swap2\n      sub\n      swap1\n      revert\n    tag_16:\n        /* \"contracts/lesson6.1/02 OwnerSystem.sol\":549:550  0 */\n      0x00\n        /* \"contracts/lesson6.1/02 OwnerSystem.sol\":528:551  _newOwner != address(0) */\n      0xffffffffffffffffffffffffffffffffffffffff\n      and\n        /* \"contracts/lesson6.1/02 OwnerSystem.sol\":528:537  _newOwner */\n      dup3\n        /* \"contracts/lesson6.1/02 OwnerSystem.sol\":528:551  _newOwner != address(0) */\n      0xffffffffffffffffffffffffffffffffffffffff\n      and\n      sub\n        /* \"contracts/lesson6.1/02 OwnerSystem.sol\":520:568  require(_newOwner != address(0), \"Zero address\") */\n      tag_20\n      jumpi\n      mload(0x40)\n      0x08c379a000000000000000000000000000000000000000000000000000000000\n      dup2\n      mstore\n      0x04\n      add\n      tag_21\n      swap1\n      tag_22\n      jump\t// in\n    tag_21:\n      mload(0x40)\n      dup1\n      swap2\n      sub\n      swap1\n      revert\n    tag_20:\n        /* \"contracts/lesson6.1/02 OwnerSystem.sol\":614:623  _newOwner */\n      dup2\n        /* \"contracts/lesson6.1/02 OwnerSystem.sol\":586:624  OwnershipTransferred(owner, _newOwner) */\n      0xffffffffffffffffffffffffffffffffffffffff\n      and\n        /* \"contracts/lesson6.1/02 OwnerSystem.sol\":607:612  owner */\n      0x00\n      0x00\n      swap1\n      sload\n      swap1\n      0x0100\n      exp\n      swap1\n      div\n      0xffffffffffffffffffffffffffffffffffffffff\n      and\n        /* \"contracts/lesson6.1/02 OwnerSystem.sol\":586:624  OwnershipTransferred(owner, _newOwner) */\n      0xffffffffffffffffffffffffffffffffffffffff\n      and\n      0x8be0079c531659141344cd1fd0a4f28419497f9722a3daafe3b4186f6b6457e0\n      mload(0x40)\n      mload(0x40)\n      dup1\n      swap2\n      sub\n      swap1\n      log3\n        /* \"contracts/lesson6.1/02 OwnerSystem.sol\":643:652  _newOwner */\n      dup2\n        /* \"contracts/lesson6.1/02 OwnerSystem.sol\":635:640  owner */\n      0x00\n      0x00\n        /* \"contracts/lesson6.1/02 OwnerSystem.sol\":635:652  owner = _newOwner */\n      0x0100\n      exp\n      dup2\n      sload\n      dup2\n      0xffffffffffffffffffffffffffffffffffffffff\n      mul\n      not\n      and\n      swap1\n      dup4\n      0xffffffffffffffffffffffffffffffffffffffff\n      and\n      mul\n      or\n      swap1\n      sstore\n      pop\n        /* \"contracts/lesson6.1/02 OwnerSystem.sol\":672:676  true */\n      0x01\n        /* \"contracts/lesson6.1/02 OwnerSystem.sol\":665:676  return true */\n      swap1\n      pop\n        /* \"contracts/lesson6.1/02 OwnerSystem.sol\":421:684  function ownershipTransferred(address _newOwner) public virtual onlyOwner returns (bool){... */\n      swap2\n      swap1\n      pop\n      jump\t// out\n        /* \"#utility.yul\":7:133   */\n    tag_23:\n        /* \"#utility.yul\":44:51   */\n      0x00\n        /* \"#utility.yul\":84:126   */\n      0xffffffffffffffffffffffffffffffffffffffff\n        /* \"#utility.yul\":77:82   */\n      dup3\n        /* \"#utility.yul\":73:127   */\n      and\n        /* \"#utility.yul\":62:127   */\n      swap1\n      pop\n        /* \"#utility.yul\":7:133   */\n      swap2\n      swap1\n      pop\n      jump\t// out\n        /* \"#utility.yul\":139:235   */\n    tag_24:\n        /* \"#utility.yul\":176:183   */\n      0x00\n        /* \"#utility.yul\":205:229   */\n      tag_41\n        /* \"#utility.yul\":223:228   */\n      dup3\n        /* \"#utility.yul\":205:229   */\n      tag_23\n      jump\t// in\n    tag_41:\n        /* \"#utility.yul\":194:229   */\n      swap1\n      pop\n        /* \"#utility.yul\":139:235   */\n      swap2\n      swap1\n      pop\n      jump\t// out\n        /* \"#utility.yul\":241:359   */\n    tag_25:\n        /* \"#utility.yul\":328:352   */\n      tag_43\n        /* \"#utility.yul\":346:351   */\n      dup2\n        /* \"#utility.yul\":328:352   */\n      tag_24\n      jump\t// in\n    tag_43:\n        /* \"#utility.yul\":323:326   */\n      dup3\n        /* \"#utility.yul\":316:353   */\n      mstore\n        /* \"#utility.yul\":241:359   */\n      pop\n      pop\n      jump\t// out\n        /* \"#utility.yul\":365:587   */\n    tag_8:\n        /* \"#utility.yul\":458:462   */\n      0x00\n        /* \"#utility.yul\":496:498   */\n      0x20\n        /* \"#utility.yul\":485:494   */\n      dup3\n        /* \"#utility.yul\":481:499   */\n      add\n        /* \"#utility.yul\":473:499   */\n      swap1\n      pop\n        /* \"#utility.yul\":509:580   */\n      tag_45\n        /* \"#utility.yul\":577:578   */\n      0x00\n        /* \"#utility.yul\":566:575   */\n      dup4\n        /* \"#utility.yul\":562:579   */\n      add\n        /* \"#utility.yul\":553:559   */\n      dup5\n        /* \"#utility.yul\":509:580   */\n      tag_25\n      jump\t// in\n    tag_45:\n        /* \"#utility.yul\":365:587   */\n      swap3\n      swap2\n      pop\n      pop\n      jump\t// out\n        /* \"#utility.yul\":674:791   */\n    tag_27:\n        /* \"#utility.yul\":783:784   */\n      0x00\n        /* \"#utility.yul\":780:781   */\n      0x00\n        /* \"#utility.yul\":773:785   */\n      revert\n        /* \"#utility.yul\":920:1042   */\n    tag_29:\n        /* \"#utility.yul\":993:1017   */\n      tag_50\n        /* \"#utility.yul\":1011:1016   */\n      dup2\n        /* \"#utility.yul\":993:1017   */\n      tag_24\n      jump\t// in\n    tag_50:\n        /* \"#utility.yul\":986:991   */\n      dup2\n        /* \"#utility.yul\":983:1018   */\n      eq\n        /* \"#utility.yul\":973:1036   */\n      tag_51\n      jumpi\n        /* \"#utility.yul\":1032:1033   */\n      0x00\n        /* \"#utility.yul\":1029:1030   */\n      0x00\n        /* \"#utility.yul\":1022:1034   */\n      revert\n        /* \"#utility.yul\":973:1036   */\n    tag_51:\n        /* \"#utility.yul\":920:1042   */\n      pop\n      jump\t// out\n        /* \"#utility.yul\":1048:1187   */\n    tag_30:\n        /* \"#utility.yul\":1094:1099   */\n      0x00\n        /* \"#utility.yul\":1132:1138   */\n      dup2\n        /* \"#utility.yul\":1119:1139   */\n      calldataload\n        /* \"#utility.yul\":1110:1139   */\n      swap1\n      pop\n        /* \"#utility.yul\":1148:1181   */\n      tag_53\n        /* \"#utility.yul\":1175:1180   */\n      dup2\n        /* \"#utility.yul\":1148:1181   */\n      tag_29\n      jump\t// in\n    tag_53:\n        /* \"#utility.yul\":1048:1187   */\n      swap3\n      swap2\n      pop\n      pop\n      jump\t// out\n        /* \"#utility.yul\":1193:1522   */\n    tag_11:\n        /* \"#utility.yul\":1252:1258   */\n      0x00\n        /* \"#utility.yul\":1301:1303   */\n      0x20\n        /* \"#utility.yul\":1289:1298   */\n      dup3\n        /* \"#utility.yul\":1280:1287   */\n      dup5\n        /* \"#utility.yul\":1276:1299   */\n      sub\n        /* \"#utility.yul\":1272:1304   */\n      slt\n        /* \"#utility.yul\":1269:1388   */\n      iszero\n      tag_55\n      jumpi\n        /* \"#utility.yul\":1307:1386   */\n      tag_56\n      tag_27\n      jump\t// in\n    tag_56:\n        /* \"#utility.yul\":1269:1388   */\n    tag_55:\n        /* \"#utility.yul\":1427:1428   */\n      0x00\n        /* \"#utility.yul\":1452:1505   */\n      tag_57\n        /* \"#utility.yul\":1497:1504   */\n      dup5\n        /* \"#utility.yul\":1488:1494   */\n      dup3\n        /* \"#utility.yul\":1477:1486   */\n      dup6\n        /* \"#utility.yul\":1473:1495   */\n      add\n        /* \"#utility.yul\":1452:1505   */\n      tag_30\n      jump\t// in\n    tag_57:\n        /* \"#utility.yul\":1442:1505   */\n      swap2\n      pop\n        /* \"#utility.yul\":1398:1515   */\n      pop\n        /* \"#utility.yul\":1193:1522   */\n      swap3\n      swap2\n      pop\n      pop\n      jump\t// out\n        /* \"#utility.yul\":1528:1618   */\n    tag_31:\n        /* \"#utility.yul\":1562:1569   */\n      0x00\n        /* \"#utility.yul\":1605:1610   */\n      dup2\n        /* \"#utility.yul\":1598:1611   */\n      iszero\n        /* \"#utility.yul\":1591:1612   */\n      iszero\n        /* \"#utility.yul\":1580:1612   */\n      swap1\n      pop\n        /* \"#utility.yul\":1528:1618   */\n      swap2\n      swap1\n      pop\n      jump\t// out\n        /* \"#utility.yul\":1624:1733   */\n    tag_32:\n        /* \"#utility.yul\":1705:1726   */\n      tag_60\n        /* \"#utility.yul\":1720:1725   */\n      dup2\n        /* \"#utility.yul\":1705:1726   */\n      tag_31\n      jump\t// in\n    tag_60:\n        /* \"#utility.yul\":1700:1703   */\n      dup3\n        /* \"#utility.yul\":1693:1727   */\n      mstore\n        /* \"#utility.yul\":1624:1733   */\n      pop\n      pop\n      jump\t// out\n        /* \"#utility.yul\":1739:1949   */\n    tag_14:\n        /* \"#utility.yul\":1826:1830   */\n      0x00\n        /* \"#utility.yul\":1864:1866   */\n      0x20\n        /* \"#utility.yul\":1853:1862   */\n      dup3\n        /* \"#utility.yul\":1849:1867   */\n      add\n        /* \"#utility.yul\":1841:1867   */\n      swap1\n      pop\n        /* \"#utility.yul\":1877:1942   */\n      tag_62\n        /* \"#utility.yul\":1939:1940   */\n      0x00\n        /* \"#utility.yul\":1928:1937   */\n      dup4\n        /* \"#utility.yul\":1924:1941   */\n      add\n        /* \"#utility.yul\":1915:1921   */\n      dup5\n        /* \"#utility.yul\":1877:1942   */\n      tag_32\n      jump\t// in\n    tag_62:\n        /* \"#utility.yul\":1739:1949   */\n      swap3\n      swap2\n      pop\n      pop\n      jump\t// out\n        /* \"#utility.yul\":1955:2124   */\n    tag_33:\n        /* \"#utility.yul\":2039:2050   */\n      0x00\n        /* \"#utility.yul\":2073:2079   */\n      dup3\n        /* \"#utility.yul\":2068:2071   */\n      dup3\n        /* \"#utility.yul\":2061:2080   */\n      mstore\n        /* \"#utility.yul\":2113:2117   */\n      0x20\n        /* \"#utility.yul\":2108:2111   */\n      dup3\n        /* \"#utility.yul\":2104:2118   */\n      add\n        /* \"#utility.yul\":2089:2118   */\n      swap1\n      pop\n        /* \"#utility.yul\":1955:2124   */\n      swap3\n      swap2\n      pop\n      pop\n      jump\t// out\n        /* \"#utility.yul\":2130:2290   */\n    tag_34:\n        /* \"#utility.yul\":2270:2282   */\n      0x4f6e6c79206f776e657200000000000000000000000000000000000000000000\n        /* \"#utility.yul\":2266:2267   */\n      0x00\n        /* \"#utility.yul\":2258:2264   */\n      dup3\n        /* \"#utility.yul\":2254:2268   */\n      add\n        /* \"#utility.yul\":2247:2283   */\n      mstore\n        /* \"#utility.yul\":2130:2290   */\n      pop\n      jump\t// out\n        /* \"#utility.yul\":2296:2662   */\n    tag_35:\n        /* \"#utility.yul\":2438:2441   */\n      0x00\n        /* \"#utility.yul\":2459:2526   */\n      tag_66\n        /* \"#utility.yul\":2523:2525   */\n      0x0a\n        /* \"#utility.yul\":2518:2521   */\n      dup4\n        /* \"#utility.yul\":2459:2526   */\n      tag_33\n      jump\t// in\n    tag_66:\n        /* \"#utility.yul\":2452:2526   */\n      swap2\n      pop\n        /* \"#utility.yul\":2535:2628   */\n      tag_67\n        /* \"#utility.yul\":2624:2627   */\n      dup3\n        /* \"#utility.yul\":2535:2628   */\n      tag_34\n      jump\t// in\n    tag_67:\n        /* \"#utility.yul\":2653:2655   */\n      0x20\n        /* \"#utility.yul\":2648:2651   */\n      dup3\n        /* \"#utility.yul\":2644:2656   */\n      add\n        /* \"#utility.yul\":2637:2656   */\n      swap1\n      pop\n        /* \"#utility.yul\":2296:2662   */\n      swap2\n      swap1\n      pop\n      jump\t// out\n        /* \"#utility.yul\":2668:3087   */\n    tag_18:\n        /* \"#utility.yul\":2834:2838   */\n      0x00\n        /* \"#utility.yul\":2872:2874   */\n      0x20\n        /* \"#utility.yul\":2861:2870   */\n      dup3\n        /* \"#utility.yul\":2857:2875   */\n      add\n        /* \"#utility.yul\":2849:2875   */\n      swap1\n      pop\n        /* \"#utility.yul\":2921:2930   */\n      dup2\n        /* \"#utility.yul\":2915:2919   */\n      dup2\n        /* \"#utility.yul\":2911:2931   */\n      sub\n        /* \"#utility.yul\":2907:2908   */\n      0x00\n        /* \"#utility.yul\":2896:2905   */\n      dup4\n        /* \"#utility.yul\":2892:2909   */\n      add\n        /* \"#utility.yul\":2885:2932   */\n      mstore\n        /* \"#utility.yul\":2949:3080   */\n      tag_69\n        /* \"#utility.yul\":3075:3079   */\n      dup2\n        /* \"#utility.yul\":2949:3080   */\n      tag_35\n      jump\t// in\n    tag_69:\n        /* \"#utility.yul\":2941:3080   */\n      swap1\n      pop\n        /* \"#utility.yul\":2668:3087   */\n      swap2\n      swap1\n      pop\n      jump\t// out\n        /* \"#utility.yul\":3093:3255   */\n    tag_36:\n        /* \"#utility.yul\":3233:3247   */\n      0x5a65726f20616464726573730000000000000000000000000000000000000000\n        /* \"#utility.yul\":3229:3230   */\n      0x00\n        /* \"#utility.yul\":3221:3227   */\n      dup3\n        /* \"#utility.yul\":3217:3231   */\n      add\n        /* \"#utility.yul\":3210:3248   */\n      mstore\n        /* \"#utility.yul\":3093:3255   */\n      pop\n      jump\t// out\n        /* \"#utility.yul\":3261:3627   */\n    tag_37:\n        /* \"#utility.yul\":3403:3406   */\n      0x00\n        /* \"#utility.yul\":3424:3491   */\n      tag_72\n        /* \"#utility.yul\":3488:3490   */\n      0x0c\n        /* \"#utility.yul\":3483:3486   */\n      dup4\n        /* \"#utility.yul\":3424:3491   */\n      tag_33\n      jump\t// in\n    tag_72:\n        /* \"#utility.yul\":3417:3491   */\n      swap2\n      pop\n        /* \"#utility.yul\":3500:3593   */\n      tag_73\n        /* \"#utility.yul\":3589:3592   */\n      dup3\n        /* \"#utility.yul\":3500:3593   */\n      tag_36\n      jump\t// in\n    tag_73:\n        /* \"#utility.yul\":3618:3620   */\n      0x20\n        /* \"#utility.yul\":3613:3616   */\n      dup3\n        /* \"#utility.yul\":3609:3621   */\n      add\n        /* \"#utility.yul\":3602:3621   */\n      swap1\n      pop\n        /* \"#utility.yul\":3261:3627   */\n      swap2\n      swap1\n      pop\n      jump\t// out\n        /* \"#utility.yul\":3633:4052   */\n    tag_22:\n        /* \"#utility.yul\":3799:3803   */\n      0x00\n        /* \"#utility.yul\":3837:3839   */\n      0x20\n        /* \"#utility.yul\":3826:3835   */\n      dup3\n        /* \"#utility.yul\":3822:3840   */\n      add\n        /* \"#utility.yul\":3814:3840   */\n      swap1\n      pop\n        /* \"#utility.yul\":3886:3895   */\n      dup2\n        /* \"#utility.yul\":3880:3884   */\n      dup2\n        /* \"#utility.yul\":3876:3896   */\n      sub\n        /* \"#utility.yul\":3872:3873   */\n      0x00\n        /* \"#utility.yul\":3861:3870   */\n      dup4\n        /* \"#utility.yul\":3857:3874   */\n      add\n        /* \"#utility.yul\":3850:3897   */\n      mstore\n        /* \"#utility.yul\":3914:4045   */\n      tag_75\n        /* \"#utility.yul\":4040:4044   */\n      dup2\n        /* \"#utility.yul\":3914:4045   */\n      tag_37\n      jump\t// in\n    tag_75:\n        /* \"#utility.yul\":3906:4045   */\n      swap1\n      pop\n        /* \"#utility.yul\":3633:4052   */\n      swap2\n      swap1\n      pop\n      jump\t// out\n\n    auxdata: 0xa2646970667358221220c50ea957e574ca41a152ee4ca36906f41509bd8d948d0bf0d09a7fa1ef46dc3264736f6c634300081e0033\n}\n",
				"bytecode": {
					"linkReferences": {},
					"object": "6080604052348015600e575f5ffd5b50335f5f6101000a81548173ffffffffffffffffffffffffffffffffffffffff021916908373ffffffffffffffffffffffffffffffffffffffff1602179055505f5f9054906101000a900473ffffffffffffffffffffffffffffffffffffffff1673ffffffffffffffffffffffffffffffffffffffff165f73ffffffffffffffffffffffffffffffffffffffff167f8be0079c531659141344cd1fd0a4f28419497f9722a3daafe3b4186f6b6457e060405160405180910390a3610463806100d55f395ff3fe608060405234801561000f575f5ffd5b5060043610610034575f3560e01c80638da5cb5b14610038578063ac9a252a14610056575b5f5ffd5b610040610086565b60405161004d91906102a8565b60405180910390f35b610070600480360381019061006b91906102ef565b6100aa565b60405161007d9190610334565b60405180910390f35b5f5f9054906101000a900473ffffffffffffffffffffffffffffffffffffffff1681565b5f3373ffffffffffffffffffffffffffffffffffffffff165f5f9054906101000a900473ffffffffffffffffffffffffffffffffffffffff1673ffffffffffffffffffffffffffffffffffffffff1614610139576040517f08c379a0000000000000000000000000000000000000000000000000000000008152600401610130906103a7565b60405180910390fd5b5f73ffffffffffffffffffffffffffffffffffffffff168273ffffffffffffffffffffffffffffffffffffffff16036101a7576040517f08c379a000000000000000000000000000000000000000000000000000000000815260040161019e9061040f565b60405180910390fd5b8173ffffffffffffffffffffffffffffffffffffffff165f5f9054906101000a900473ffffffffffffffffffffffffffffffffffffffff1673ffffffffffffffffffffffffffffffffffffffff167f8be0079c531659141344cd1fd0a4f28419497f9722a3daafe3b4186f6b6457e060405160405180910390a3815f5f6101000a81548173ffffffffffffffffffffffffffffffffffffffff021916908373ffffffffffffffffffffffffffffffffffffffff16021790555060019050919050565b5f73ffffffffffffffffffffffffffffffffffffffff82169050919050565b5f61029282610269565b9050919050565b6102a281610288565b82525050565b5f6020820190506102bb5f830184610299565b92915050565b5f5ffd5b6102ce81610288565b81146102d8575f5ffd5b50565b5f813590506102e9816102c5565b92915050565b5f60208284031215610304576103036102c1565b5b5f610311848285016102db565b91505092915050565b5f8115159050919050565b61032e8161031a565b82525050565b5f6020820190506103475f830184610325565b92915050565b5f82825260208201905092915050565b7f4f6e6c79206f776e6572000000000000000000000000000000000000000000005f82015250565b5f610391600a8361034d565b915061039c8261035d565b602082019050919050565b5f6020820190508181035f8301526103be81610385565b9050919050565b7f5a65726f206164647265737300000000000000000000000000000000000000005f82015250565b5f6103f9600c8361034d565b9150610404826103c5565b602082019050919050565b5f6020820190508181035f830152610426816103ed565b905091905056fea2646970667358221220c50ea957e574ca41a152ee4ca36906f41509bd8d948d0bf0d09a7fa1ef46dc3264736f6c634300081e0033",
					"opcodes": "PUSH1 0x80 PUSH1 0x40 MSTORE CALLVALUE DUP1 ISZERO PUSH1 0xE JUMPI PUSH0 PUSH0 REVERT JUMPDEST POP CALLER PUSH0 PUSH0 PUSH2 0x100 EXP DUP2 SLOAD DUP2 PUSH20 0xFFFFFFFFFFFFFFFFFFFFFFFFFFFFFFFFFFFFFFFF MUL NOT AND SWAP1 DUP4 PUSH20 0xFFFFFFFFFFFFFFFFFFFFFFFFFFFFFFFFFFFFFFFF AND MUL OR SWAP1 SSTORE POP PUSH0 PUSH0 SWAP1 SLOAD SWAP1 PUSH2 0x100 EXP SWAP1 DIV PUSH20 0xFFFFFFFFFFFFFFFFFFFFFFFFFFFFFFFFFFFFFFFF AND PUSH20 0xFFFFFFFFFFFFFFFFFFFFFFFFFFFFFFFFFFFFFFFF AND PUSH0 PUSH20 0xFFFFFFFFFFFFFFFFFFFFFFFFFFFFFFFFFFFFFFFF AND PUSH32 0x8BE0079C531659141344CD1FD0A4F28419497F9722A3DAAFE3B4186F6B6457E0 PUSH1 0x40 MLOAD PUSH1 0x40 MLOAD DUP1 SWAP2 SUB SWAP1 LOG3 PUSH2 0x463 DUP1 PUSH2 0xD5 PUSH0 CODECOPY PUSH0 RETURN INVALID PUSH1 0x80 PUSH1 0x40 MSTORE CALLVALUE DUP1 ISZERO PUSH2 0xF JUMPI PUSH0 PUSH0 REVERT JUMPDEST POP PUSH1 0x4 CALLDATASIZE LT PUSH2 0x34 JUMPI PUSH0 CALLDATALOAD PUSH1 0xE0 SHR DUP1 PUSH4 0x8DA5CB5B EQ PUSH2 0x38 JUMPI DUP1 PUSH4 0xAC9A252A EQ PUSH2 0x56 JUMPI JUMPDEST PUSH0 PUSH0 REVERT JUMPDEST PUSH2 0x40 PUSH2 0x86 JUMP JUMPDEST PUSH1 0x40 MLOAD PUSH2 0x4D SWAP2 SWAP1 PUSH2 0x2A8 JUMP JUMPDEST PUSH1 0x40 MLOAD DUP1 SWAP2 SUB SWAP1 RETURN JUMPDEST PUSH2 0x70 PUSH1 0x4 DUP1 CALLDATASIZE SUB DUP2 ADD SWAP1 PUSH2 0x6B SWAP2 SWAP1 PUSH2 0x2EF JUMP JUMPDEST PUSH2 0xAA JUMP JUMPDEST PUSH1 0x40 MLOAD PUSH2 0x7D SWAP2 SWAP1 PUSH2 0x334 JUMP JUMPDEST PUSH1 0x40 MLOAD DUP1 SWAP2 SUB SWAP1 RETURN JUMPDEST PUSH0 PUSH0 SWAP1 SLOAD SWAP1 PUSH2 0x100 EXP SWAP1 DIV PUSH20 0xFFFFFFFFFFFFFFFFFFFFFFFFFFFFFFFFFFFFFFFF AND DUP2 JUMP JUMPDEST PUSH0 CALLER PUSH20 0xFFFFFFFFFFFFFFFFFFFFFFFFFFFFFFFFFFFFFFFF AND PUSH0 PUSH0 SWAP1 SLOAD SWAP1 PUSH2 0x100 EXP SWAP1 DIV PUSH20 0xFFFFFFFFFFFFFFFFFFFFFFFFFFFFFFFFFFFFFFFF AND PUSH20 0xFFFFFFFFFFFFFFFFFFFFFFFFFFFFFFFFFFFFFFFF AND EQ PUSH2 0x139 JUMPI PUSH1 0x40 MLOAD PUSH32 0x8C379A000000000000000000000000000000000000000000000000000000000 DUP2 MSTORE PUSH1 0x4 ADD PUSH2 0x130 SWAP1 PUSH2 0x3A7 JUMP JUMPDEST PUSH1 0x40 MLOAD DUP1 SWAP2 SUB SWAP1 REVERT JUMPDEST PUSH0 PUSH20 0xFFFFFFFFFFFFFFFFFFFFFFFFFFFFFFFFFFFFFFFF AND DUP3 PUSH20 0xFFFFFFFFFFFFFFFFFFFFFFFFFFFFFFFFFFFFFFFF AND SUB PUSH2 0x1A7 JUMPI PUSH1 0x40 MLOAD PUSH32 0x8C379A000000000000000000000000000000000000000000000000000000000 DUP2 MSTORE PUSH1 0x4 ADD PUSH2 0x19E SWAP1 PUSH2 0x40F JUMP JUMPDEST PUSH1 0x40 MLOAD DUP1 SWAP2 SUB SWAP1 REVERT JUMPDEST DUP2 PUSH20 0xFFFFFFFFFFFFFFFFFFFFFFFFFFFFFFFFFFFFFFFF AND PUSH0 PUSH0 SWAP1 SLOAD SWAP1 PUSH2 0x100 EXP SWAP1 DIV PUSH20 0xFFFFFFFFFFFFFFFFFFFFFFFFFFFFFFFFFFFFFFFF AND PUSH20 0xFFFFFFFFFFFFFFFFFFFFFFFFFFFFFFFFFFFFFFFF AND PUSH32 0x8BE0079C531659141344CD1FD0A4F28419497F9722A3DAAFE3B4186F6B6457E0 PUSH1 0x40 MLOAD PUSH1 0x40 MLOAD DUP1 SWAP2 SUB SWAP1 LOG3 DUP2 PUSH0 PUSH0 PUSH2 0x100 EXP DUP2 SLOAD DUP2 PUSH20 0xFFFFFFFFFFFFFFFFFFFFFFFFFFFFFFFFFFFFFFFF MUL NOT AND SWAP1 DUP4 PUSH20 0xFFFFFFFFFFFFFFFFFFFFFFFFFFFFFFFFFFFFFFFF AND MUL OR SWAP1 SSTORE POP PUSH1 0x1 SWAP1 POP SWAP2 SWAP1 POP JUMP JUMPDEST PUSH0 PUSH20 0xFFFFFFFFFFFFFFFFFFFFFFFFFFFFFFFFFFFFFFFF DUP3 AND SWAP1 POP SWAP2 SWAP1 POP JUMP JUMPDEST PUSH0 PUSH2 0x292 DUP3 PUSH2 0x269 JUMP JUMPDEST SWAP1 POP SWAP2 SWAP1 POP JUMP JUMPDEST PUSH2 0x2A2 DUP2 PUSH2 0x288 JUMP JUMPDEST DUP3 MSTORE POP POP JUMP JUMPDEST PUSH0 PUSH1 0x20 DUP3 ADD SWAP1 POP PUSH2 0x2BB PUSH0 DUP4 ADD DUP5 PUSH2 0x299 JUMP JUMPDEST SWAP3 SWAP2 POP POP JUMP JUMPDEST PUSH0 PUSH0 REVERT JUMPDEST PUSH2 0x2CE DUP2 PUSH2 0x288 JUMP JUMPDEST DUP2 EQ PUSH2 0x2D8 JUMPI PUSH0 PUSH0 REVERT JUMPDEST POP JUMP JUMPDEST PUSH0 DUP2 CALLDATALOAD SWAP1 POP PUSH2 0x2E9 DUP2 PUSH2 0x2C5 JUMP JUMPDEST SWAP3 SWAP2 POP POP JUMP JUMPDEST PUSH0 PUSH1 0x20 DUP3 DUP5 SUB SLT ISZERO PUSH2 0x304 JUMPI PUSH2 0x303 PUSH2 0x2C1 JUMP JUMPDEST JUMPDEST PUSH0 PUSH2 0x311 DUP5 DUP3 DUP6 ADD PUSH2 0x2DB JUMP JUMPDEST SWAP2 POP POP SWAP3 SWAP2 POP POP JUMP JUMPDEST PUSH0 DUP2 ISZERO ISZERO SWAP1 POP SWAP2 SWAP1 POP JUMP JUMPDEST PUSH2 0x32E DUP2 PUSH2 0x31A JUMP JUMPDEST DUP3 MSTORE POP POP JUMP JUMPDEST PUSH0 PUSH1 0x20 DUP3 ADD SWAP1 POP PUSH2 0x347 PUSH0 DUP4 ADD DUP5 PUSH2 0x325 JUMP JUMPDEST SWAP3 SWAP2 POP POP JUMP JUMPDEST PUSH0 DUP3 DUP3 MSTORE PUSH1 0x20 DUP3 ADD SWAP1 POP SWAP3 SWAP2 POP POP JUMP JUMPDEST PUSH32 0x4F6E6C79206F776E657200000000000000000000000000000000000000000000 PUSH0 DUP3 ADD MSTORE POP JUMP JUMPDEST PUSH0 PUSH2 0x391 PUSH1 0xA DUP4 PUSH2 0x34D JUMP JUMPDEST SWAP2 POP PUSH2 0x39C DUP3 PUSH2 0x35D JUMP JUMPDEST PUSH1 0x20 DUP3 ADD SWAP1 POP SWAP2 SWAP1 POP JUMP JUMPDEST PUSH0 PUSH1 0x20 DUP3 ADD SWAP1 POP DUP2 DUP2 SUB PUSH0 DUP4 ADD MSTORE PUSH2 0x3BE DUP2 PUSH2 0x385 JUMP JUMPDEST SWAP1 POP SWAP2 SWAP1 POP JUMP JUMPDEST PUSH32 0x5A65726F20616464726573730000000000000000000000000000000000000000 PUSH0 DUP3 ADD MSTORE POP JUMP JUMPDEST PUSH0 PUSH2 0x3F9 PUSH1 0xC DUP4 PUSH2 0x34D JUMP JUMPDEST SWAP2 POP PUSH2 0x404 DUP3 PUSH2 0x3C5 JUMP JUMPDEST PUSH1 0x20 DUP3 ADD SWAP1 POP SWAP2 SWAP1 POP JUMP JUMPDEST PUSH0 PUSH1 0x20 DUP3 ADD SWAP1 POP DUP2 DUP2 SUB PUSH0 DUP4 ADD MSTORE PUSH2 0x426 DUP2 PUSH2 0x3ED JUMP JUMPDEST SWAP1 POP SWAP2 SWAP1 POP JUMP INVALID LOG2 PUSH5 0x6970667358 0x22 SLT KECCAK256 0xC5 0xE 0xA9 JUMPI JUMPF 0x74CA COINBASE LOG1 MSTORE RETURNCONTRACT 0x4C LOG3 PUSH10 0x6F41509BD8D948D0BF0 0xD0 SWAP11 PUSH32 0xA1EF46DC3264736F6C634300081E003300000000000000000000000000000000 "
				},
				"gasEstimates": {
					"creation": {
						"codeDepositCost": "224600",
						"executionCost": "28209",
						"totalCost": "252809"
					},
					"external": {
						"owner()": "2485",
						"ownershipTransferred(address)": "30793"
					}
				},
				"methodIdentifiers": {
					"owner()": "8da5cb5b",
					"ownershipTransferred(address)": "ac9a252a"
				}
			},
			"storageLayout": {
				"storage": [
					{
						"astId": 3,
						"contract": "contracts/lesson6.1/02 OwnerSystem.sol:Ownable",
						"label": "owner",
						"offset": 0,
						"slot": "0",
						"type": "t_address"
					}
				],
				"types": {
					"t_address": {
						"encoding": "inplace",
						"label": "address",
						"numberOfBytes": "20"
					}
				}
			},
			"userdoc": {
				"kind": "user",
				"methods": {},
				"version": 1
			}
		}
	}
}