{
	"contracts/lesson9.2/CloneFactory.sol": {
		"CloneFactory": {
			"abi": [
				{
					"inputs": [],
					"stateMutability": "nonpayable",
					"type": "constructor"
				},
				{
					"anonymous": false,
					"inputs": [
						{
							"indexed": true,
							"internalType": "address",
							"name": "cloneAddress",
							"type": "address"
						},
						{
							"indexed": true,
							"internalType": "address",
							"name": "creator",
							"type": "address"
						}
					],
					"name": "CloneCreated",
					"type": "event"
				},
				{
					"inputs": [
						{
							"internalType": "uint256",
							"name": "",
							"type": "uint256"
						}
					],
					"name": "clones",
					"outputs": [
						{
							"internalType": "address",
							"name": "",
							"type": "address"
						}
					],
					"stateMutability": "view",
					"type": "function"
				},
				{
					"inputs": [
						{
							"internalType": "string",
							"name": "name",
							"type": "string"
						},
						{
							"internalType": "string",
							"name": "symbol",
							"type": "string"
						},
						{
							"internalType": "uint256",
							"name": "initialSupply",
							"type": "uint256"
						}
					],
					"name": "createClone",
					"outputs": [
						{
							"internalType": "address",
							"name": "",
							"type": "address"
						}
					],
					"stateMutability": "nonpayable",
					"type": "function"
				},
				{
					"inputs": [],
					"name": "implementation",
					"outputs": [
						{
							"internalType": "address",
							"name": "",
							"type": "address"
						}
					],
					"stateMutability": "view",
					"type": "function"
				},
				{
					"inputs": [
						{
							"internalType": "address",
							"name": "",
							"type": "address"
						},
						{
							"internalType": "uint256",
							"name": "",
							"type": "uint256"
						}
					],
					"name": "userClones",
					"outputs": [
						{
							"internalType": "address",
							"name": "",
							"type": "address"
						}
					],
					"stateMutability": "view",
					"type": "function"
				}
			],
			"devdoc": {
				"kind": "dev",
				"methods": {
					"constructor": {
						"details": "模板合约只部署一次"
					},
					"createClone(string,string,uint256)": {
						"details": "使用create2创建确定性地址的克隆",
						"params": {
							"initialSupply": "初始供应量",
							"name": "代币名称",
							"symbol": "代币符号"
						},
						"returns": {
							"_0": "克隆合约地址"
						}
					}
				},
				"version": 1
			},
			"evm": {
				"assembly": "    /* \"contracts/lesson9.2/CloneFactory.sol\":1053:3273  contract CloneFactory {... */\n  mstore(0x40, 0x80)\n    /* \"contracts/lesson9.2/CloneFactory.sol\":1520:1604  constructor() {... */\n  callvalue\n  dup1\n  iszero\n  tag_1\n  jumpi\n  revert(0x00, 0x00)\ntag_1:\n  pop\n    /* \"contracts/lesson9.2/CloneFactory.sol\":1570:1595  new TokenImplementation() */\n  mload(0x40)\n  tag_4\n  swap1\n  tag_5\n  jump\t// in\ntag_4:\n  mload(0x40)\n  dup1\n  swap2\n  sub\n  swap1\n  0x00\n  create\n  dup1\n  iszero\n  dup1\n  iszero\n  tag_6\n  jumpi\n  returndatacopy(0x00, 0x00, returndatasize)\n  revert(0x00, returndatasize)\ntag_6:\n  pop\n    /* \"contracts/lesson9.2/CloneFactory.sol\":1545:1559  implementation */\n  0x00\n  0x00\n    /* \"contracts/lesson9.2/CloneFactory.sol\":1545:1596  implementation = address(new TokenImplementation()) */\n  0x0100\n  exp\n  dup2\n  sload\n  dup2\n  0xffffffffffffffffffffffffffffffffffffffff\n  mul\n  not\n  and\n  swap1\n  dup4\n  0xffffffffffffffffffffffffffffffffffffffff\n  and\n  mul\n  or\n  swap1\n  sstore\n  pop\n    /* \"contracts/lesson9.2/CloneFactory.sol\":1053:3273  contract CloneFactory {... */\n  jump(tag_7)\ntag_5:\n  dataSize(sub_1)\n  dup1\n  dataOffset(sub_1)\n  dup4\n  codecopy\n  add\n  swap1\n  jump\t// out\ntag_7:\n  dataSize(sub_0)\n  dup1\n  dataOffset(sub_0)\n  0x00\n  codecopy\n  0x00\n  return\nstop\n\nsub_0: assembly {\n        /* \"contracts/lesson9.2/CloneFactory.sol\":1053:3273  contract CloneFactory {... */\n      mstore(0x40, 0x80)\n      callvalue\n      dup1\n      iszero\n      tag_1\n      jumpi\n      revert(0x00, 0x00)\n    tag_1:\n      pop\n      jumpi(tag_2, lt(calldatasize, 0x04))\n      shr(0xe0, calldataload(0x00))\n      dup1\n      0x0e039916\n      eq\n      tag_3\n      jumpi\n      dup1\n      0x175453e0\n      eq\n      tag_4\n      jumpi\n      dup1\n      0x5c60da1b\n      eq\n      tag_5\n      jumpi\n      dup1\n      0x869ac8cc\n      eq\n      tag_6\n      jumpi\n    tag_2:\n      revert(0x00, 0x00)\n        /* \"contracts/lesson9.2/CloneFactory.sol\":1187:1210  address[] public clones */\n    tag_3:\n      tag_7\n      0x04\n      dup1\n      calldatasize\n      sub\n      dup2\n      add\n      swap1\n      tag_8\n      swap2\n      swap1\n      tag_9\n      jump\t// in\n    tag_8:\n      tag_10\n      jump\t// in\n    tag_7:\n      mload(0x40)\n      tag_11\n      swap2\n      swap1\n      tag_12\n      jump\t// in\n    tag_11:\n      mload(0x40)\n      dup1\n      swap2\n      sub\n      swap1\n      return\n        /* \"contracts/lesson9.2/CloneFactory.sol\":1868:2746  function createClone(... */\n    tag_4:\n      tag_13\n      0x04\n      dup1\n      calldatasize\n      sub\n      dup2\n      add\n      swap1\n      tag_14\n      swap2\n      swap1\n      tag_15\n      jump\t// in\n    tag_14:\n      tag_16\n      jump\t// in\n    tag_13:\n      mload(0x40)\n      tag_17\n      swap2\n      swap1\n      tag_12\n      jump\t// in\n    tag_17:\n      mload(0x40)\n      dup1\n      swap2\n      sub\n      swap1\n      return\n        /* \"contracts/lesson9.2/CloneFactory.sol\":1109:1138  address public implementation */\n    tag_5:\n      tag_18\n      tag_19\n      jump\t// in\n    tag_18:\n      mload(0x40)\n      tag_20\n      swap2\n      swap1\n      tag_12\n      jump\t// in\n    tag_20:\n      mload(0x40)\n      dup1\n      swap2\n      sub\n      swap1\n      return\n        /* \"contracts/lesson9.2/CloneFactory.sol\":1265:1312  mapping(address => address[]) public userClones */\n    tag_6:\n      tag_21\n      0x04\n      dup1\n      calldatasize\n      sub\n      dup2\n      add\n      swap1\n      tag_22\n      swap2\n      swap1\n      tag_23\n      jump\t// in\n    tag_22:\n      tag_24\n      jump\t// in\n    tag_21:\n      mload(0x40)\n      tag_25\n      swap2\n      swap1\n      tag_12\n      jump\t// in\n    tag_25:\n      mload(0x40)\n      dup1\n      swap2\n      sub\n      swap1\n      return\n        /* \"contracts/lesson9.2/CloneFactory.sol\":1187:1210  address[] public clones */\n    tag_10:\n      0x01\n      dup2\n      dup2\n      sload\n      dup2\n      lt\n      tag_26\n      jumpi\n      0x00\n      dup1\n      revert\n    tag_26:\n      swap1\n      0x00\n      mstore\n      keccak256(0x00, 0x20)\n      add\n      0x00\n      swap2\n      pop\n      sload\n      swap1\n      0x0100\n      exp\n      swap1\n      div\n      0xffffffffffffffffffffffffffffffffffffffff\n      and\n      dup2\n      jump\t// out\n        /* \"contracts/lesson9.2/CloneFactory.sol\":1868:2746  function createClone(... */\n    tag_16:\n        /* \"contracts/lesson9.2/CloneFactory.sol\":2004:2011  address */\n      0x00\n        /* \"contracts/lesson9.2/CloneFactory.sol\":2164:2185  bytes memory bytecode */\n      0x00\n        /* \"contracts/lesson9.2/CloneFactory.sol\":2188:2206  getCloneBytecode() */\n      tag_29\n        /* \"contracts/lesson9.2/CloneFactory.sol\":2188:2204  getCloneBytecode */\n      tag_30\n        /* \"contracts/lesson9.2/CloneFactory.sol\":2188:2206  getCloneBytecode() */\n      jump\t// in\n    tag_29:\n        /* \"contracts/lesson9.2/CloneFactory.sol\":2164:2206  bytes memory bytecode = getCloneBytecode() */\n      swap1\n      pop\n        /* \"contracts/lesson9.2/CloneFactory.sol\":2217:2229  bytes32 salt */\n      0x00\n        /* \"contracts/lesson9.2/CloneFactory.sol\":2259:2269  msg.sender */\n      caller\n        /* \"contracts/lesson9.2/CloneFactory.sol\":2271:2277  clones */\n      0x01\n        /* \"contracts/lesson9.2/CloneFactory.sol\":2271:2284  clones.length */\n      dup1\n      sload\n      swap1\n      pop\n        /* \"contracts/lesson9.2/CloneFactory.sol\":2242:2285  abi.encodePacked(msg.sender, clones.length) */\n      add(0x20, mload(0x40))\n      tag_31\n      swap3\n      swap2\n      swap1\n      tag_32\n      jump\t// in\n    tag_31:\n      mload(0x40)\n      0x20\n      dup2\n      dup4\n      sub\n      sub\n      dup2\n      mstore\n      swap1\n      0x40\n      mstore\n        /* \"contracts/lesson9.2/CloneFactory.sol\":2232:2286  keccak256(abi.encodePacked(msg.sender, clones.length)) */\n      dup1\n      mload\n      swap1\n      0x20\n      add\n      keccak256\n        /* \"contracts/lesson9.2/CloneFactory.sol\":2217:2286  bytes32 salt = keccak256(abi.encodePacked(msg.sender, clones.length)) */\n      swap1\n      pop\n        /* \"contracts/lesson9.2/CloneFactory.sol\":2307:2320  address clone */\n      0x00\n        /* \"contracts/lesson9.2/CloneFactory.sol\":2413:2417  salt */\n      dup2\n        /* \"contracts/lesson9.2/CloneFactory.sol\":2402:2410  bytecode */\n      dup4\n        /* \"contracts/lesson9.2/CloneFactory.sol\":2396:2411  mload(bytecode) */\n      mload\n        /* \"contracts/lesson9.2/CloneFactory.sol\":2389:2393  0x20 */\n      0x20\n        /* \"contracts/lesson9.2/CloneFactory.sol\":2379:2387  bytecode */\n      dup6\n        /* \"contracts/lesson9.2/CloneFactory.sol\":2375:2394  add(bytecode, 0x20) */\n      add\n        /* \"contracts/lesson9.2/CloneFactory.sol\":2372:2373  0 */\n      0x00\n        /* \"contracts/lesson9.2/CloneFactory.sol\":2364:2418  create2(0, add(bytecode, 0x20), mload(bytecode), salt) */\n      create2\n        /* \"contracts/lesson9.2/CloneFactory.sol\":2355:2418  clone := create2(0, add(bytecode, 0x20), mload(bytecode), salt) */\n      swap1\n      pop\n        /* \"contracts/lesson9.2/CloneFactory.sol\":2497:2502  clone */\n      dup1\n        /* \"contracts/lesson9.2/CloneFactory.sol\":2477:2514  TokenImplementation(clone).initialize */\n      0xffffffffffffffffffffffffffffffffffffffff\n      and\n      0xb119490e\n        /* \"contracts/lesson9.2/CloneFactory.sol\":2515:2519  name */\n      dup9\n        /* \"contracts/lesson9.2/CloneFactory.sol\":2521:2527  symbol */\n      dup9\n        /* \"contracts/lesson9.2/CloneFactory.sol\":2529:2542  initialSupply */\n      dup9\n        /* \"contracts/lesson9.2/CloneFactory.sol\":2477:2543  TokenImplementation(clone).initialize(name, symbol, initialSupply) */\n      mload(0x40)\n      dup5\n      0xffffffff\n      and\n      0xe0\n      shl\n      dup2\n      mstore\n      0x04\n      add\n      tag_33\n      swap4\n      swap3\n      swap2\n      swap1\n      tag_34\n      jump\t// in\n    tag_33:\n      0x00\n      mload(0x40)\n      dup1\n      dup4\n      sub\n      dup2\n      0x00\n      dup8\n      dup1\n      extcodesize\n      iszero\n      dup1\n      iszero\n      tag_35\n      jumpi\n      revert(0x00, 0x00)\n    tag_35:\n      pop\n      gas\n      call\n      iszero\n      dup1\n      iszero\n      tag_37\n      jumpi\n      returndatacopy(0x00, 0x00, returndatasize)\n      revert(0x00, returndatasize)\n    tag_37:\n      pop\n      pop\n      pop\n      pop\n        /* \"contracts/lesson9.2/CloneFactory.sol\":2595:2601  clones */\n      0x01\n        /* \"contracts/lesson9.2/CloneFactory.sol\":2607:2612  clone */\n      dup2\n        /* \"contracts/lesson9.2/CloneFactory.sol\":2595:2613  clones.push(clone) */\n      swap1\n      dup1\n      0x01\n      dup2\n      sload\n      add\n      dup1\n      dup3\n      sstore\n      dup1\n      swap2\n      pop\n      pop\n      0x01\n      swap1\n      sub\n      swap1\n      0x00\n      mstore\n      keccak256(0x00, 0x20)\n      add\n      0x00\n      swap1\n      swap2\n      swap1\n      swap2\n      swap1\n      swap2\n      0x0100\n      exp\n      dup2\n      sload\n      dup2\n      0xffffffffffffffffffffffffffffffffffffffff\n      mul\n      not\n      and\n      swap1\n      dup4\n      0xffffffffffffffffffffffffffffffffffffffff\n      and\n      mul\n      or\n      swap1\n      sstore\n      pop\n        /* \"contracts/lesson9.2/CloneFactory.sol\":2624:2634  userClones */\n      0x02\n        /* \"contracts/lesson9.2/CloneFactory.sol\":2624:2646  userClones[msg.sender] */\n      0x00\n        /* \"contracts/lesson9.2/CloneFactory.sol\":2635:2645  msg.sender */\n      caller\n        /* \"contracts/lesson9.2/CloneFactory.sol\":2624:2646  userClones[msg.sender] */\n      0xffffffffffffffffffffffffffffffffffffffff\n      and\n      0xffffffffffffffffffffffffffffffffffffffff\n      and\n      dup2\n      mstore\n      0x20\n      add\n      swap1\n      dup2\n      mstore\n      0x20\n      add\n      0x00\n      keccak256\n        /* \"contracts/lesson9.2/CloneFactory.sol\":2652:2657  clone */\n      dup2\n        /* \"contracts/lesson9.2/CloneFactory.sol\":2624:2658  userClones[msg.sender].push(clone) */\n      swap1\n      dup1\n      0x01\n      dup2\n      sload\n      add\n      dup1\n      dup3\n      sstore\n      dup1\n      swap2\n      pop\n      pop\n      0x01\n      swap1\n      sub\n      swap1\n      0x00\n      mstore\n      keccak256(0x00, 0x20)\n      add\n      0x00\n      swap1\n      swap2\n      swap1\n      swap2\n      swap1\n      swap2\n      0x0100\n      exp\n      dup2\n      sload\n      dup2\n      0xffffffffffffffffffffffffffffffffffffffff\n      mul\n      not\n      and\n      swap1\n      dup4\n      0xffffffffffffffffffffffffffffffffffffffff\n      and\n      mul\n      or\n      swap1\n      sstore\n      pop\n        /* \"contracts/lesson9.2/CloneFactory.sol\":2704:2714  msg.sender */\n      caller\n        /* \"contracts/lesson9.2/CloneFactory.sol\":2684:2715  CloneCreated(clone, msg.sender) */\n      0xffffffffffffffffffffffffffffffffffffffff\n      and\n        /* \"contracts/lesson9.2/CloneFactory.sol\":2697:2702  clone */\n      dup2\n        /* \"contracts/lesson9.2/CloneFactory.sol\":2684:2715  CloneCreated(clone, msg.sender) */\n      0xffffffffffffffffffffffffffffffffffffffff\n      and\n      0x3d2b821286d97aa9d35330d87a82f7b548b9737b10e2d1ba59994edfd50e9d2b\n      mload(0x40)\n      mload(0x40)\n      dup1\n      swap2\n      sub\n      swap1\n      log3\n        /* \"contracts/lesson9.2/CloneFactory.sol\":2733:2738  clone */\n      dup1\n        /* \"contracts/lesson9.2/CloneFactory.sol\":2726:2738  return clone */\n      swap4\n      pop\n      pop\n      pop\n      pop\n        /* \"contracts/lesson9.2/CloneFactory.sol\":1868:2746  function createClone(... */\n      swap4\n      swap3\n      pop\n      pop\n      pop\n      jump\t// out\n        /* \"contracts/lesson9.2/CloneFactory.sol\":1109:1138  address public implementation */\n    tag_19:\n      0x00\n      0x00\n      swap1\n      sload\n      swap1\n      0x0100\n      exp\n      swap1\n      div\n      0xffffffffffffffffffffffffffffffffffffffff\n      and\n      dup2\n      jump\t// out\n        /* \"contracts/lesson9.2/CloneFactory.sol\":1265:1312  mapping(address => address[]) public userClones */\n    tag_24:\n      mstore(0x20, 0x02)\n      dup2\n      0x00\n      mstore\n      keccak256(0x00, 0x40)\n      dup2\n      dup2\n      sload\n      dup2\n      lt\n      tag_40\n      jumpi\n      0x00\n      dup1\n      revert\n    tag_40:\n      swap1\n      0x00\n      mstore\n      keccak256(0x00, 0x20)\n      add\n      0x00\n      swap2\n      pop\n      swap2\n      pop\n      swap1\n      sload\n      swap1\n      0x0100\n      exp\n      swap1\n      div\n      0xffffffffffffffffffffffffffffffffffffffff\n      and\n      dup2\n      jump\t// out\n        /* \"contracts/lesson9.2/CloneFactory.sol\":2904:3270  function getCloneBytecode() internal view returns (bytes memory) {... */\n    tag_30:\n        /* \"contracts/lesson9.2/CloneFactory.sol\":2955:2967  bytes memory */\n      0x60\n        /* \"contracts/lesson9.2/CloneFactory.sol\":3187:3201  implementation */\n      0x00\n      0x00\n      swap1\n      sload\n      swap1\n      0x0100\n      exp\n      swap1\n      div\n      0xffffffffffffffffffffffffffffffffffffffff\n      and\n        /* \"contracts/lesson9.2/CloneFactory.sol\":3096:3262  abi.encodePacked(... */\n      add(0x20, mload(0x40))\n      tag_43\n      swap2\n      swap1\n      tag_44\n      jump\t// in\n    tag_43:\n      mload(0x40)\n      0x20\n      dup2\n      dup4\n      sub\n      sub\n      dup2\n      mstore\n      swap1\n      0x40\n      mstore\n        /* \"contracts/lesson9.2/CloneFactory.sol\":3089:3262  return abi.encodePacked(... */\n      swap1\n      pop\n        /* \"contracts/lesson9.2/CloneFactory.sol\":2904:3270  function getCloneBytecode() internal view returns (bytes memory) {... */\n      swap1\n      jump\t// out\n        /* \"#utility.yul\":7:82   */\n    tag_45:\n        /* \"#utility.yul\":40:46   */\n      0x00\n        /* \"#utility.yul\":73:75   */\n      0x40\n        /* \"#utility.yul\":67:76   */\n      mload\n        /* \"#utility.yul\":57:76   */\n      swap1\n      pop\n        /* \"#utility.yul\":7:82   */\n      swap1\n      jump\t// out\n        /* \"#utility.yul\":88:205   */\n    tag_46:\n        /* \"#utility.yul\":197:198   */\n      0x00\n        /* \"#utility.yul\":194:195   */\n      0x00\n        /* \"#utility.yul\":187:199   */\n      revert\n        /* \"#utility.yul\":211:328   */\n    tag_47:\n        /* \"#utility.yul\":320:321   */\n      0x00\n        /* \"#utility.yul\":317:318   */\n      0x00\n        /* \"#utility.yul\":310:322   */\n      revert\n        /* \"#utility.yul\":334:411   */\n    tag_48:\n        /* \"#utility.yul\":371:378   */\n      0x00\n        /* \"#utility.yul\":400:405   */\n      dup2\n        /* \"#utility.yul\":389:405   */\n      swap1\n      pop\n        /* \"#utility.yul\":334:411   */\n      swap2\n      swap1\n      pop\n      jump\t// out\n        /* \"#utility.yul\":417:539   */\n    tag_49:\n        /* \"#utility.yul\":490:514   */\n      tag_88\n        /* \"#utility.yul\":508:513   */\n      dup2\n        /* \"#utility.yul\":490:514   */\n      tag_48\n      jump\t// in\n    tag_88:\n        /* \"#utility.yul\":483:488   */\n      dup2\n        /* \"#utility.yul\":480:515   */\n      eq\n        /* \"#utility.yul\":470:533   */\n      tag_89\n      jumpi\n        /* \"#utility.yul\":529:530   */\n      0x00\n        /* \"#utility.yul\":526:527   */\n      0x00\n        /* \"#utility.yul\":519:531   */\n      revert\n        /* \"#utility.yul\":470:533   */\n    tag_89:\n        /* \"#utility.yul\":417:539   */\n      pop\n      jump\t// out\n        /* \"#utility.yul\":545:684   */\n    tag_50:\n        /* \"#utility.yul\":591:596   */\n      0x00\n        /* \"#utility.yul\":629:635   */\n      dup2\n        /* \"#utility.yul\":616:636   */\n      calldataload\n        /* \"#utility.yul\":607:636   */\n      swap1\n      pop\n        /* \"#utility.yul\":645:678   */\n      tag_91\n        /* \"#utility.yul\":672:677   */\n      dup2\n        /* \"#utility.yul\":645:678   */\n      tag_49\n      jump\t// in\n    tag_91:\n        /* \"#utility.yul\":545:684   */\n      swap3\n      swap2\n      pop\n      pop\n      jump\t// out\n        /* \"#utility.yul\":690:1019   */\n    tag_9:\n        /* \"#utility.yul\":749:755   */\n      0x00\n        /* \"#utility.yul\":798:800   */\n      0x20\n        /* \"#utility.yul\":786:795   */\n      dup3\n        /* \"#utility.yul\":777:784   */\n      dup5\n        /* \"#utility.yul\":773:796   */\n      sub\n        /* \"#utility.yul\":769:801   */\n      slt\n        /* \"#utility.yul\":766:885   */\n      iszero\n      tag_93\n      jumpi\n        /* \"#utility.yul\":804:883   */\n      tag_94\n      tag_46\n      jump\t// in\n    tag_94:\n        /* \"#utility.yul\":766:885   */\n    tag_93:\n        /* \"#utility.yul\":924:925   */\n      0x00\n        /* \"#utility.yul\":949:1002   */\n      tag_95\n        /* \"#utility.yul\":994:1001   */\n      dup5\n        /* \"#utility.yul\":985:991   */\n      dup3\n        /* \"#utility.yul\":974:983   */\n      dup6\n        /* \"#utility.yul\":970:992   */\n      add\n        /* \"#utility.yul\":949:1002   */\n      tag_50\n      jump\t// in\n    tag_95:\n        /* \"#utility.yul\":939:1002   */\n      swap2\n      pop\n        /* \"#utility.yul\":895:1012   */\n      pop\n        /* \"#utility.yul\":690:1019   */\n      swap3\n      swap2\n      pop\n      pop\n      jump\t// out\n        /* \"#utility.yul\":1025:1151   */\n    tag_51:\n        /* \"#utility.yul\":1062:1069   */\n      0x00\n        /* \"#utility.yul\":1102:1144   */\n      0xffffffffffffffffffffffffffffffffffffffff\n        /* \"#utility.yul\":1095:1100   */\n      dup3\n        /* \"#utility.yul\":1091:1145   */\n      and\n        /* \"#utility.yul\":1080:1145   */\n      swap1\n      pop\n        /* \"#utility.yul\":1025:1151   */\n      swap2\n      swap1\n      pop\n      jump\t// out\n        /* \"#utility.yul\":1157:1253   */\n    tag_52:\n        /* \"#utility.yul\":1194:1201   */\n      0x00\n        /* \"#utility.yul\":1223:1247   */\n      tag_98\n        /* \"#utility.yul\":1241:1246   */\n      dup3\n        /* \"#utility.yul\":1223:1247   */\n      tag_51\n      jump\t// in\n    tag_98:\n        /* \"#utility.yul\":1212:1247   */\n      swap1\n      pop\n        /* \"#utility.yul\":1157:1253   */\n      swap2\n      swap1\n      pop\n      jump\t// out\n        /* \"#utility.yul\":1259:1377   */\n    tag_53:\n        /* \"#utility.yul\":1346:1370   */\n      tag_100\n        /* \"#utility.yul\":1364:1369   */\n      dup2\n        /* \"#utility.yul\":1346:1370   */\n      tag_52\n      jump\t// in\n    tag_100:\n        /* \"#utility.yul\":1341:1344   */\n      dup3\n        /* \"#utility.yul\":1334:1371   */\n      mstore\n        /* \"#utility.yul\":1259:1377   */\n      pop\n      pop\n      jump\t// out\n        /* \"#utility.yul\":1383:1605   */\n    tag_12:\n        /* \"#utility.yul\":1476:1480   */\n      0x00\n        /* \"#utility.yul\":1514:1516   */\n      0x20\n        /* \"#utility.yul\":1503:1512   */\n      dup3\n        /* \"#utility.yul\":1499:1517   */\n      add\n        /* \"#utility.yul\":1491:1517   */\n      swap1\n      pop\n        /* \"#utility.yul\":1527:1598   */\n      tag_102\n        /* \"#utility.yul\":1595:1596   */\n      0x00\n        /* \"#utility.yul\":1584:1593   */\n      dup4\n        /* \"#utility.yul\":1580:1597   */\n      add\n        /* \"#utility.yul\":1571:1577   */\n      dup5\n        /* \"#utility.yul\":1527:1598   */\n      tag_53\n      jump\t// in\n    tag_102:\n        /* \"#utility.yul\":1383:1605   */\n      swap3\n      swap2\n      pop\n      pop\n      jump\t// out\n        /* \"#utility.yul\":1611:1728   */\n    tag_54:\n        /* \"#utility.yul\":1720:1721   */\n      0x00\n        /* \"#utility.yul\":1717:1718   */\n      0x00\n        /* \"#utility.yul\":1710:1722   */\n      revert\n        /* \"#utility.yul\":1734:1851   */\n    tag_55:\n        /* \"#utility.yul\":1843:1844   */\n      0x00\n        /* \"#utility.yul\":1840:1841   */\n      0x00\n        /* \"#utility.yul\":1833:1845   */\n      revert\n        /* \"#utility.yul\":1857:1959   */\n    tag_56:\n        /* \"#utility.yul\":1898:1904   */\n      0x00\n        /* \"#utility.yul\":1949:1951   */\n      0x1f\n        /* \"#utility.yul\":1945:1952   */\n      not\n        /* \"#utility.yul\":1940:1942   */\n      0x1f\n        /* \"#utility.yul\":1933:1938   */\n      dup4\n        /* \"#utility.yul\":1929:1943   */\n      add\n        /* \"#utility.yul\":1925:1953   */\n      and\n        /* \"#utility.yul\":1915:1953   */\n      swap1\n      pop\n        /* \"#utility.yul\":1857:1959   */\n      swap2\n      swap1\n      pop\n      jump\t// out\n        /* \"#utility.yul\":1965:2145   */\n    tag_57:\n        /* \"#utility.yul\":2013:2090   */\n      0x4e487b7100000000000000000000000000000000000000000000000000000000\n        /* \"#utility.yul\":2010:2011   */\n      0x00\n        /* \"#utility.yul\":2003:2091   */\n      mstore\n        /* \"#utility.yul\":2110:2114   */\n      0x41\n        /* \"#utility.yul\":2107:2108   */\n      0x04\n        /* \"#utility.yul\":2100:2115   */\n      mstore\n        /* \"#utility.yul\":2134:2138   */\n      0x24\n        /* \"#utility.yul\":2131:2132   */\n      0x00\n        /* \"#utility.yul\":2124:2139   */\n      revert\n        /* \"#utility.yul\":2151:2432   */\n    tag_58:\n        /* \"#utility.yul\":2234:2261   */\n      tag_108\n        /* \"#utility.yul\":2256:2260   */\n      dup3\n        /* \"#utility.yul\":2234:2261   */\n      tag_56\n      jump\t// in\n    tag_108:\n        /* \"#utility.yul\":2226:2232   */\n      dup2\n        /* \"#utility.yul\":2222:2262   */\n      add\n        /* \"#utility.yul\":2364:2370   */\n      dup2\n        /* \"#utility.yul\":2352:2362   */\n      dup2\n        /* \"#utility.yul\":2349:2371   */\n      lt\n        /* \"#utility.yul\":2328:2346   */\n      0xffffffffffffffff\n        /* \"#utility.yul\":2316:2326   */\n      dup3\n        /* \"#utility.yul\":2313:2347   */\n      gt\n        /* \"#utility.yul\":2310:2372   */\n      or\n        /* \"#utility.yul\":2307:2395   */\n      iszero\n      tag_109\n      jumpi\n        /* \"#utility.yul\":2375:2393   */\n      tag_110\n      tag_57\n      jump\t// in\n    tag_110:\n        /* \"#utility.yul\":2307:2395   */\n    tag_109:\n        /* \"#utility.yul\":2415:2425   */\n      dup1\n        /* \"#utility.yul\":2411:2413   */\n      0x40\n        /* \"#utility.yul\":2404:2426   */\n      mstore\n        /* \"#utility.yul\":2194:2432   */\n      pop\n        /* \"#utility.yul\":2151:2432   */\n      pop\n      pop\n      jump\t// out\n        /* \"#utility.yul\":2438:2567   */\n    tag_59:\n        /* \"#utility.yul\":2472:2478   */\n      0x00\n        /* \"#utility.yul\":2499:2519   */\n      tag_112\n      tag_45\n      jump\t// in\n    tag_112:\n        /* \"#utility.yul\":2489:2519   */\n      swap1\n      pop\n        /* \"#utility.yul\":2528:2561   */\n      tag_113\n        /* \"#utility.yul\":2556:2560   */\n      dup3\n        /* \"#utility.yul\":2548:2554   */\n      dup3\n        /* \"#utility.yul\":2528:2561   */\n      tag_58\n      jump\t// in\n    tag_113:\n        /* \"#utility.yul\":2438:2567   */\n      swap2\n      swap1\n      pop\n      jump\t// out\n        /* \"#utility.yul\":2573:2881   */\n    tag_60:\n        /* \"#utility.yul\":2635:2639   */\n      0x00\n        /* \"#utility.yul\":2725:2743   */\n      0xffffffffffffffff\n        /* \"#utility.yul\":2717:2723   */\n      dup3\n        /* \"#utility.yul\":2714:2744   */\n      gt\n        /* \"#utility.yul\":2711:2767   */\n      iszero\n      tag_115\n      jumpi\n        /* \"#utility.yul\":2747:2765   */\n      tag_116\n      tag_57\n      jump\t// in\n    tag_116:\n        /* \"#utility.yul\":2711:2767   */\n    tag_115:\n        /* \"#utility.yul\":2785:2814   */\n      tag_117\n        /* \"#utility.yul\":2807:2813   */\n      dup3\n        /* \"#utility.yul\":2785:2814   */\n      tag_56\n      jump\t// in\n    tag_117:\n        /* \"#utility.yul\":2777:2814   */\n      swap1\n      pop\n        /* \"#utility.yul\":2869:2873   */\n      0x20\n        /* \"#utility.yul\":2863:2867   */\n      dup2\n        /* \"#utility.yul\":2859:2874   */\n      add\n        /* \"#utility.yul\":2851:2874   */\n      swap1\n      pop\n        /* \"#utility.yul\":2573:2881   */\n      swap2\n      swap1\n      pop\n      jump\t// out\n        /* \"#utility.yul\":2887:3035   */\n    tag_61:\n        /* \"#utility.yul\":2985:2991   */\n      dup3\n        /* \"#utility.yul\":2980:2983   */\n      dup2\n        /* \"#utility.yul\":2975:2978   */\n      dup4\n        /* \"#utility.yul\":2962:2992   */\n      calldatacopy\n        /* \"#utility.yul\":3026:3027   */\n      0x00\n        /* \"#utility.yul\":3017:3023   */\n      dup4\n        /* \"#utility.yul\":3012:3015   */\n      dup4\n        /* \"#utility.yul\":3008:3024   */\n      add\n        /* \"#utility.yul\":3001:3028   */\n      mstore\n        /* \"#utility.yul\":2887:3035   */\n      pop\n      pop\n      pop\n      jump\t// out\n        /* \"#utility.yul\":3041:3466   */\n    tag_62:\n        /* \"#utility.yul\":3119:3124   */\n      0x00\n        /* \"#utility.yul\":3144:3210   */\n      tag_120\n        /* \"#utility.yul\":3160:3209   */\n      tag_121\n        /* \"#utility.yul\":3202:3208   */\n      dup5\n        /* \"#utility.yul\":3160:3209   */\n      tag_60\n      jump\t// in\n    tag_121:\n        /* \"#utility.yul\":3144:3210   */\n      tag_59\n      jump\t// in\n    tag_120:\n        /* \"#utility.yul\":3135:3210   */\n      swap1\n      pop\n        /* \"#utility.yul\":3233:3239   */\n      dup3\n        /* \"#utility.yul\":3226:3231   */\n      dup2\n        /* \"#utility.yul\":3219:3240   */\n      mstore\n        /* \"#utility.yul\":3271:3275   */\n      0x20\n        /* \"#utility.yul\":3264:3269   */\n      dup2\n        /* \"#utility.yul\":3260:3276   */\n      add\n        /* \"#utility.yul\":3309:3312   */\n      dup5\n        /* \"#utility.yul\":3300:3306   */\n      dup5\n        /* \"#utility.yul\":3295:3298   */\n      dup5\n        /* \"#utility.yul\":3291:3307   */\n      add\n        /* \"#utility.yul\":3288:3313   */\n      gt\n        /* \"#utility.yul\":3285:3397   */\n      iszero\n      tag_122\n      jumpi\n        /* \"#utility.yul\":3316:3395   */\n      tag_123\n      tag_55\n      jump\t// in\n    tag_123:\n        /* \"#utility.yul\":3285:3397   */\n    tag_122:\n        /* \"#utility.yul\":3406:3460   */\n      tag_124\n        /* \"#utility.yul\":3453:3459   */\n      dup5\n        /* \"#utility.yul\":3448:3451   */\n      dup3\n        /* \"#utility.yul\":3443:3446   */\n      dup6\n        /* \"#utility.yul\":3406:3460   */\n      tag_61\n      jump\t// in\n    tag_124:\n        /* \"#utility.yul\":3125:3466   */\n      pop\n        /* \"#utility.yul\":3041:3466   */\n      swap4\n      swap3\n      pop\n      pop\n      pop\n      jump\t// out\n        /* \"#utility.yul\":3486:3826   */\n    tag_63:\n        /* \"#utility.yul\":3542:3547   */\n      0x00\n        /* \"#utility.yul\":3591:3594   */\n      dup3\n        /* \"#utility.yul\":3584:3588   */\n      0x1f\n        /* \"#utility.yul\":3576:3582   */\n      dup4\n        /* \"#utility.yul\":3572:3589   */\n      add\n        /* \"#utility.yul\":3568:3595   */\n      slt\n        /* \"#utility.yul\":3558:3680   */\n      tag_126\n      jumpi\n        /* \"#utility.yul\":3599:3678   */\n      tag_127\n      tag_54\n      jump\t// in\n    tag_127:\n        /* \"#utility.yul\":3558:3680   */\n    tag_126:\n        /* \"#utility.yul\":3716:3722   */\n      dup2\n        /* \"#utility.yul\":3703:3723   */\n      calldataload\n        /* \"#utility.yul\":3741:3820   */\n      tag_128\n        /* \"#utility.yul\":3816:3819   */\n      dup5\n        /* \"#utility.yul\":3808:3814   */\n      dup3\n        /* \"#utility.yul\":3801:3805   */\n      0x20\n        /* \"#utility.yul\":3793:3799   */\n      dup7\n        /* \"#utility.yul\":3789:3806   */\n      add\n        /* \"#utility.yul\":3741:3820   */\n      tag_62\n      jump\t// in\n    tag_128:\n        /* \"#utility.yul\":3732:3820   */\n      swap2\n      pop\n        /* \"#utility.yul\":3548:3826   */\n      pop\n        /* \"#utility.yul\":3486:3826   */\n      swap3\n      swap2\n      pop\n      pop\n      jump\t// out\n        /* \"#utility.yul\":3832:4811   */\n    tag_15:\n        /* \"#utility.yul\":3929:3935   */\n      0x00\n        /* \"#utility.yul\":3937:3943   */\n      0x00\n        /* \"#utility.yul\":3945:3951   */\n      0x00\n        /* \"#utility.yul\":3994:3996   */\n      0x60\n        /* \"#utility.yul\":3982:3991   */\n      dup5\n        /* \"#utility.yul\":3973:3980   */\n      dup7\n        /* \"#utility.yul\":3969:3992   */\n      sub\n        /* \"#utility.yul\":3965:3997   */\n      slt\n        /* \"#utility.yul\":3962:4081   */\n      iszero\n      tag_130\n      jumpi\n        /* \"#utility.yul\":4000:4079   */\n      tag_131\n      tag_46\n      jump\t// in\n    tag_131:\n        /* \"#utility.yul\":3962:4081   */\n    tag_130:\n        /* \"#utility.yul\":4148:4149   */\n      0x00\n        /* \"#utility.yul\":4137:4146   */\n      dup5\n        /* \"#utility.yul\":4133:4150   */\n      add\n        /* \"#utility.yul\":4120:4151   */\n      calldataload\n        /* \"#utility.yul\":4178:4196   */\n      0xffffffffffffffff\n        /* \"#utility.yul\":4170:4176   */\n      dup2\n        /* \"#utility.yul\":4167:4197   */\n      gt\n        /* \"#utility.yul\":4164:4281   */\n      iszero\n      tag_132\n      jumpi\n        /* \"#utility.yul\":4200:4279   */\n      tag_133\n      tag_47\n      jump\t// in\n    tag_133:\n        /* \"#utility.yul\":4164:4281   */\n    tag_132:\n        /* \"#utility.yul\":4305:4368   */\n      tag_134\n        /* \"#utility.yul\":4360:4367   */\n      dup7\n        /* \"#utility.yul\":4351:4357   */\n      dup3\n        /* \"#utility.yul\":4340:4349   */\n      dup8\n        /* \"#utility.yul\":4336:4358   */\n      add\n        /* \"#utility.yul\":4305:4368   */\n      tag_63\n      jump\t// in\n    tag_134:\n        /* \"#utility.yul\":4295:4368   */\n      swap4\n      pop\n        /* \"#utility.yul\":4091:4378   */\n      pop\n        /* \"#utility.yul\":4445:4447   */\n      0x20\n        /* \"#utility.yul\":4434:4443   */\n      dup5\n        /* \"#utility.yul\":4430:4448   */\n      add\n        /* \"#utility.yul\":4417:4449   */\n      calldataload\n        /* \"#utility.yul\":4476:4494   */\n      0xffffffffffffffff\n        /* \"#utility.yul\":4468:4474   */\n      dup2\n        /* \"#utility.yul\":4465:4495   */\n      gt\n        /* \"#utility.yul\":4462:4579   */\n      iszero\n      tag_135\n      jumpi\n        /* \"#utility.yul\":4498:4577   */\n      tag_136\n      tag_47\n      jump\t// in\n    tag_136:\n        /* \"#utility.yul\":4462:4579   */\n    tag_135:\n        /* \"#utility.yul\":4603:4666   */\n      tag_137\n        /* \"#utility.yul\":4658:4665   */\n      dup7\n        /* \"#utility.yul\":4649:4655   */\n      dup3\n        /* \"#utility.yul\":4638:4647   */\n      dup8\n        /* \"#utility.yul\":4634:4656   */\n      add\n        /* \"#utility.yul\":4603:4666   */\n      tag_63\n      jump\t// in\n    tag_137:\n        /* \"#utility.yul\":4593:4666   */\n      swap3\n      pop\n        /* \"#utility.yul\":4388:4676   */\n      pop\n        /* \"#utility.yul\":4715:4717   */\n      0x40\n        /* \"#utility.yul\":4741:4794   */\n      tag_138\n        /* \"#utility.yul\":4786:4793   */\n      dup7\n        /* \"#utility.yul\":4777:4783   */\n      dup3\n        /* \"#utility.yul\":4766:4775   */\n      dup8\n        /* \"#utility.yul\":4762:4784   */\n      add\n        /* \"#utility.yul\":4741:4794   */\n      tag_50\n      jump\t// in\n    tag_138:\n        /* \"#utility.yul\":4731:4794   */\n      swap2\n      pop\n        /* \"#utility.yul\":4686:4804   */\n      pop\n        /* \"#utility.yul\":3832:4811   */\n      swap3\n      pop\n      swap3\n      pop\n      swap3\n      jump\t// out\n        /* \"#utility.yul\":4817:4939   */\n    tag_64:\n        /* \"#utility.yul\":4890:4914   */\n      tag_140\n        /* \"#utility.yul\":4908:4913   */\n      dup2\n        /* \"#utility.yul\":4890:4914   */\n      tag_52\n      jump\t// in\n    tag_140:\n        /* \"#utility.yul\":4883:4888   */\n      dup2\n        /* \"#utility.yul\":4880:4915   */\n      eq\n        /* \"#utility.yul\":4870:4933   */\n      tag_141\n      jumpi\n        /* \"#utility.yul\":4929:4930   */\n      0x00\n        /* \"#utility.yul\":4926:4927   */\n      0x00\n        /* \"#utility.yul\":4919:4931   */\n      revert\n        /* \"#utility.yul\":4870:4933   */\n    tag_141:\n        /* \"#utility.yul\":4817:4939   */\n      pop\n      jump\t// out\n        /* \"#utility.yul\":4945:5084   */\n    tag_65:\n        /* \"#utility.yul\":4991:4996   */\n      0x00\n        /* \"#utility.yul\":5029:5035   */\n      dup2\n        /* \"#utility.yul\":5016:5036   */\n      calldataload\n        /* \"#utility.yul\":5007:5036   */\n      swap1\n      pop\n        /* \"#utility.yul\":5045:5078   */\n      tag_143\n        /* \"#utility.yul\":5072:5077   */\n      dup2\n        /* \"#utility.yul\":5045:5078   */\n      tag_64\n      jump\t// in\n    tag_143:\n        /* \"#utility.yul\":4945:5084   */\n      swap3\n      swap2\n      pop\n      pop\n      jump\t// out\n        /* \"#utility.yul\":5090:5564   */\n    tag_23:\n        /* \"#utility.yul\":5158:5164   */\n      0x00\n        /* \"#utility.yul\":5166:5172   */\n      0x00\n        /* \"#utility.yul\":5215:5217   */\n      0x40\n        /* \"#utility.yul\":5203:5212   */\n      dup4\n        /* \"#utility.yul\":5194:5201   */\n      dup6\n        /* \"#utility.yul\":5190:5213   */\n      sub\n        /* \"#utility.yul\":5186:5218   */\n      slt\n        /* \"#utility.yul\":5183:5302   */\n      iszero\n      tag_145\n      jumpi\n        /* \"#utility.yul\":5221:5300   */\n      tag_146\n      tag_46\n      jump\t// in\n    tag_146:\n        /* \"#utility.yul\":5183:5302   */\n    tag_145:\n        /* \"#utility.yul\":5341:5342   */\n      0x00\n        /* \"#utility.yul\":5366:5419   */\n      tag_147\n        /* \"#utility.yul\":5411:5418   */\n      dup6\n        /* \"#utility.yul\":5402:5408   */\n      dup3\n        /* \"#utility.yul\":5391:5400   */\n      dup7\n        /* \"#utility.yul\":5387:5409   */\n      add\n        /* \"#utility.yul\":5366:5419   */\n      tag_65\n      jump\t// in\n    tag_147:\n        /* \"#utility.yul\":5356:5419   */\n      swap3\n      pop\n        /* \"#utility.yul\":5312:5429   */\n      pop\n        /* \"#utility.yul\":5468:5470   */\n      0x20\n        /* \"#utility.yul\":5494:5547   */\n      tag_148\n        /* \"#utility.yul\":5539:5546   */\n      dup6\n        /* \"#utility.yul\":5530:5536   */\n      dup3\n        /* \"#utility.yul\":5519:5528   */\n      dup7\n        /* \"#utility.yul\":5515:5537   */\n      add\n        /* \"#utility.yul\":5494:5547   */\n      tag_50\n      jump\t// in\n    tag_148:\n        /* \"#utility.yul\":5484:5547   */\n      swap2\n      pop\n        /* \"#utility.yul\":5439:5557   */\n      pop\n        /* \"#utility.yul\":5090:5564   */\n      swap3\n      pop\n      swap3\n      swap1\n      pop\n      jump\t// out\n        /* \"#utility.yul\":5570:5664   */\n    tag_66:\n        /* \"#utility.yul\":5603:5611   */\n      0x00\n        /* \"#utility.yul\":5651:5656   */\n      dup2\n        /* \"#utility.yul\":5647:5649   */\n      0x60\n        /* \"#utility.yul\":5643:5657   */\n      shl\n        /* \"#utility.yul\":5622:5657   */\n      swap1\n      pop\n        /* \"#utility.yul\":5570:5664   */\n      swap2\n      swap1\n      pop\n      jump\t// out\n        /* \"#utility.yul\":5670:5764   */\n    tag_67:\n        /* \"#utility.yul\":5709:5716   */\n      0x00\n        /* \"#utility.yul\":5738:5758   */\n      tag_151\n        /* \"#utility.yul\":5752:5757   */\n      dup3\n        /* \"#utility.yul\":5738:5758   */\n      tag_66\n      jump\t// in\n    tag_151:\n        /* \"#utility.yul\":5727:5758   */\n      swap1\n      pop\n        /* \"#utility.yul\":5670:5764   */\n      swap2\n      swap1\n      pop\n      jump\t// out\n        /* \"#utility.yul\":5770:5870   */\n    tag_68:\n        /* \"#utility.yul\":5809:5816   */\n      0x00\n        /* \"#utility.yul\":5838:5864   */\n      tag_153\n        /* \"#utility.yul\":5858:5863   */\n      dup3\n        /* \"#utility.yul\":5838:5864   */\n      tag_67\n      jump\t// in\n    tag_153:\n        /* \"#utility.yul\":5827:5864   */\n      swap1\n      pop\n        /* \"#utility.yul\":5770:5870   */\n      swap2\n      swap1\n      pop\n      jump\t// out\n        /* \"#utility.yul\":5876:6033   */\n    tag_69:\n        /* \"#utility.yul\":5981:6026   */\n      tag_155\n        /* \"#utility.yul\":6001:6025   */\n      tag_156\n        /* \"#utility.yul\":6019:6024   */\n      dup3\n        /* \"#utility.yul\":6001:6025   */\n      tag_52\n      jump\t// in\n    tag_156:\n        /* \"#utility.yul\":5981:6026   */\n      tag_68\n      jump\t// in\n    tag_155:\n        /* \"#utility.yul\":5976:5979   */\n      dup3\n        /* \"#utility.yul\":5969:6027   */\n      mstore\n        /* \"#utility.yul\":5876:6033   */\n      pop\n      pop\n      jump\t// out\n        /* \"#utility.yul\":6039:6118   */\n    tag_70:\n        /* \"#utility.yul\":6078:6085   */\n      0x00\n        /* \"#utility.yul\":6107:6112   */\n      dup2\n        /* \"#utility.yul\":6096:6112   */\n      swap1\n      pop\n        /* \"#utility.yul\":6039:6118   */\n      swap2\n      swap1\n      pop\n      jump\t// out\n        /* \"#utility.yul\":6124:6281   */\n    tag_71:\n        /* \"#utility.yul\":6229:6274   */\n      tag_159\n        /* \"#utility.yul\":6249:6273   */\n      tag_160\n        /* \"#utility.yul\":6267:6272   */\n      dup3\n        /* \"#utility.yul\":6249:6273   */\n      tag_48\n      jump\t// in\n    tag_160:\n        /* \"#utility.yul\":6229:6274   */\n      tag_70\n      jump\t// in\n    tag_159:\n        /* \"#utility.yul\":6224:6227   */\n      dup3\n        /* \"#utility.yul\":6217:6275   */\n      mstore\n        /* \"#utility.yul\":6124:6281   */\n      pop\n      pop\n      jump\t// out\n        /* \"#utility.yul\":6287:6684   */\n    tag_32:\n        /* \"#utility.yul\":6427:6430   */\n      0x00\n        /* \"#utility.yul\":6442:6517   */\n      tag_162\n        /* \"#utility.yul\":6513:6516   */\n      dup3\n        /* \"#utility.yul\":6504:6510   */\n      dup6\n        /* \"#utility.yul\":6442:6517   */\n      tag_69\n      jump\t// in\n    tag_162:\n        /* \"#utility.yul\":6542:6544   */\n      0x14\n        /* \"#utility.yul\":6537:6540   */\n      dup3\n        /* \"#utility.yul\":6533:6545   */\n      add\n        /* \"#utility.yul\":6526:6545   */\n      swap2\n      pop\n        /* \"#utility.yul\":6555:6630   */\n      tag_163\n        /* \"#utility.yul\":6626:6629   */\n      dup3\n        /* \"#utility.yul\":6617:6623   */\n      dup5\n        /* \"#utility.yul\":6555:6630   */\n      tag_71\n      jump\t// in\n    tag_163:\n        /* \"#utility.yul\":6655:6657   */\n      0x20\n        /* \"#utility.yul\":6650:6653   */\n      dup3\n        /* \"#utility.yul\":6646:6658   */\n      add\n        /* \"#utility.yul\":6639:6658   */\n      swap2\n      pop\n        /* \"#utility.yul\":6675:6678   */\n      dup2\n        /* \"#utility.yul\":6668:6678   */\n      swap1\n      pop\n        /* \"#utility.yul\":6287:6684   */\n      swap4\n      swap3\n      pop\n      pop\n      pop\n      jump\t// out\n        /* \"#utility.yul\":6690:6789   */\n    tag_72:\n        /* \"#utility.yul\":6742:6748   */\n      0x00\n        /* \"#utility.yul\":6776:6781   */\n      dup2\n        /* \"#utility.yul\":6770:6782   */\n      mload\n        /* \"#utility.yul\":6760:6782   */\n      swap1\n      pop\n        /* \"#utility.yul\":6690:6789   */\n      swap2\n      swap1\n      pop\n      jump\t// out\n        /* \"#utility.yul\":6795:6964   */\n    tag_73:\n        /* \"#utility.yul\":6879:6890   */\n      0x00\n        /* \"#utility.yul\":6913:6919   */\n      dup3\n        /* \"#utility.yul\":6908:6911   */\n      dup3\n        /* \"#utility.yul\":6901:6920   */\n      mstore\n        /* \"#utility.yul\":6953:6957   */\n      0x20\n        /* \"#utility.yul\":6948:6951   */\n      dup3\n        /* \"#utility.yul\":6944:6958   */\n      add\n        /* \"#utility.yul\":6929:6958   */\n      swap1\n      pop\n        /* \"#utility.yul\":6795:6964   */\n      swap3\n      swap2\n      pop\n      pop\n      jump\t// out\n        /* \"#utility.yul\":6970:7109   */\n    tag_74:\n        /* \"#utility.yul\":7059:7065   */\n      dup3\n        /* \"#utility.yul\":7054:7057   */\n      dup2\n        /* \"#utility.yul\":7049:7052   */\n      dup4\n        /* \"#utility.yul\":7043:7066   */\n      mcopy\n        /* \"#utility.yul\":7100:7101   */\n      0x00\n        /* \"#utility.yul\":7091:7097   */\n      dup4\n        /* \"#utility.yul\":7086:7089   */\n      dup4\n        /* \"#utility.yul\":7082:7098   */\n      add\n        /* \"#utility.yul\":7075:7102   */\n      mstore\n        /* \"#utility.yul\":6970:7109   */\n      pop\n      pop\n      pop\n      jump\t// out\n        /* \"#utility.yul\":7115:7492   */\n    tag_75:\n        /* \"#utility.yul\":7203:7206   */\n      0x00\n        /* \"#utility.yul\":7231:7270   */\n      tag_168\n        /* \"#utility.yul\":7264:7269   */\n      dup3\n        /* \"#utility.yul\":7231:7270   */\n      tag_72\n      jump\t// in\n    tag_168:\n        /* \"#utility.yul\":7286:7357   */\n      tag_169\n        /* \"#utility.yul\":7350:7356   */\n      dup2\n        /* \"#utility.yul\":7345:7348   */\n      dup6\n        /* \"#utility.yul\":7286:7357   */\n      tag_73\n      jump\t// in\n    tag_169:\n        /* \"#utility.yul\":7279:7357   */\n      swap4\n      pop\n        /* \"#utility.yul\":7366:7431   */\n      tag_170\n        /* \"#utility.yul\":7424:7430   */\n      dup2\n        /* \"#utility.yul\":7419:7422   */\n      dup6\n        /* \"#utility.yul\":7412:7416   */\n      0x20\n        /* \"#utility.yul\":7405:7410   */\n      dup7\n        /* \"#utility.yul\":7401:7417   */\n      add\n        /* \"#utility.yul\":7366:7431   */\n      tag_74\n      jump\t// in\n    tag_170:\n        /* \"#utility.yul\":7456:7485   */\n      tag_171\n        /* \"#utility.yul\":7478:7484   */\n      dup2\n        /* \"#utility.yul\":7456:7485   */\n      tag_56\n      jump\t// in\n    tag_171:\n        /* \"#utility.yul\":7451:7454   */\n      dup5\n        /* \"#utility.yul\":7447:7486   */\n      add\n        /* \"#utility.yul\":7440:7486   */\n      swap2\n      pop\n        /* \"#utility.yul\":7207:7492   */\n      pop\n        /* \"#utility.yul\":7115:7492   */\n      swap3\n      swap2\n      pop\n      pop\n      jump\t// out\n        /* \"#utility.yul\":7498:7616   */\n    tag_76:\n        /* \"#utility.yul\":7585:7609   */\n      tag_173\n        /* \"#utility.yul\":7603:7608   */\n      dup2\n        /* \"#utility.yul\":7585:7609   */\n      tag_48\n      jump\t// in\n    tag_173:\n        /* \"#utility.yul\":7580:7583   */\n      dup3\n        /* \"#utility.yul\":7573:7610   */\n      mstore\n        /* \"#utility.yul\":7498:7616   */\n      pop\n      pop\n      jump\t// out\n        /* \"#utility.yul\":7622:8246   */\n    tag_34:\n        /* \"#utility.yul\":7811:7815   */\n      0x00\n        /* \"#utility.yul\":7849:7851   */\n      0x60\n        /* \"#utility.yul\":7838:7847   */\n      dup3\n        /* \"#utility.yul\":7834:7852   */\n      add\n        /* \"#utility.yul\":7826:7852   */\n      swap1\n      pop\n        /* \"#utility.yul\":7898:7907   */\n      dup2\n        /* \"#utility.yul\":7892:7896   */\n      dup2\n        /* \"#utility.yul\":7888:7908   */\n      sub\n        /* \"#utility.yul\":7884:7885   */\n      0x00\n        /* \"#utility.yul\":7873:7882   */\n      dup4\n        /* \"#utility.yul\":7869:7886   */\n      add\n        /* \"#utility.yul\":7862:7909   */\n      mstore\n        /* \"#utility.yul\":7926:8004   */\n      tag_175\n        /* \"#utility.yul\":7999:8003   */\n      dup2\n        /* \"#utility.yul\":7990:7996   */\n      dup7\n        /* \"#utility.yul\":7926:8004   */\n      tag_75\n      jump\t// in\n    tag_175:\n        /* \"#utility.yul\":7918:8004   */\n      swap1\n      pop\n        /* \"#utility.yul\":8051:8060   */\n      dup2\n        /* \"#utility.yul\":8045:8049   */\n      dup2\n        /* \"#utility.yul\":8041:8061   */\n      sub\n        /* \"#utility.yul\":8036:8038   */\n      0x20\n        /* \"#utility.yul\":8025:8034   */\n      dup4\n        /* \"#utility.yul\":8021:8039   */\n      add\n        /* \"#utility.yul\":8014:8062   */\n      mstore\n        /* \"#utility.yul\":8079:8157   */\n      tag_176\n        /* \"#utility.yul\":8152:8156   */\n      dup2\n        /* \"#utility.yul\":8143:8149   */\n      dup6\n        /* \"#utility.yul\":8079:8157   */\n      tag_75\n      jump\t// in\n    tag_176:\n        /* \"#utility.yul\":8071:8157   */\n      swap1\n      pop\n        /* \"#utility.yul\":8167:8239   */\n      tag_177\n        /* \"#utility.yul\":8235:8237   */\n      0x40\n        /* \"#utility.yul\":8224:8233   */\n      dup4\n        /* \"#utility.yul\":8220:8238   */\n      add\n        /* \"#utility.yul\":8211:8217   */\n      dup5\n        /* \"#utility.yul\":8167:8239   */\n      tag_76\n      jump\t// in\n    tag_177:\n        /* \"#utility.yul\":7622:8246   */\n      swap5\n      swap4\n      pop\n      pop\n      pop\n      pop\n      jump\t// out\n        /* \"#utility.yul\":8252:8400   */\n    tag_77:\n        /* \"#utility.yul\":8354:8365   */\n      0x00\n        /* \"#utility.yul\":8391:8394   */\n      dup2\n        /* \"#utility.yul\":8376:8394   */\n      swap1\n      pop\n        /* \"#utility.yul\":8252:8400   */\n      swap3\n      swap2\n      pop\n      pop\n      jump\t// out\n        /* \"#utility.yul\":8406:8620   */\n    tag_78:\n        /* \"#utility.yul\":8546:8612   */\n      0x3d602d80600a3d3981f3363d3d373d3d3d363d73000000000000000000000000\n        /* \"#utility.yul\":8542:8543   */\n      0x00\n        /* \"#utility.yul\":8534:8540   */\n      dup3\n        /* \"#utility.yul\":8530:8544   */\n      add\n        /* \"#utility.yul\":8523:8613   */\n      mstore\n        /* \"#utility.yul\":8406:8620   */\n      pop\n      jump\t// out\n        /* \"#utility.yul\":8626:9028   */\n    tag_79:\n        /* \"#utility.yul\":8786:8789   */\n      0x00\n        /* \"#utility.yul\":8807:8892   */\n      tag_181\n        /* \"#utility.yul\":8889:8891   */\n      0x14\n        /* \"#utility.yul\":8884:8887   */\n      dup4\n        /* \"#utility.yul\":8807:8892   */\n      tag_77\n      jump\t// in\n    tag_181:\n        /* \"#utility.yul\":8800:8892   */\n      swap2\n      pop\n        /* \"#utility.yul\":8901:8994   */\n      tag_182\n        /* \"#utility.yul\":8990:8993   */\n      dup3\n        /* \"#utility.yul\":8901:8994   */\n      tag_78\n      jump\t// in\n    tag_182:\n        /* \"#utility.yul\":9019:9021   */\n      0x14\n        /* \"#utility.yul\":9014:9017   */\n      dup3\n        /* \"#utility.yul\":9010:9022   */\n      add\n        /* \"#utility.yul\":9003:9022   */\n      swap1\n      pop\n        /* \"#utility.yul\":8626:9028   */\n      swap2\n      swap1\n      pop\n      jump\t// out\n        /* \"#utility.yul\":9034:9248   */\n    tag_80:\n        /* \"#utility.yul\":9174:9240   */\n      0x5af43d82803e903d91602b57fd5bf30000000000000000000000000000000000\n        /* \"#utility.yul\":9170:9171   */\n      0x00\n        /* \"#utility.yul\":9162:9168   */\n      dup3\n        /* \"#utility.yul\":9158:9172   */\n      add\n        /* \"#utility.yul\":9151:9241   */\n      mstore\n        /* \"#utility.yul\":9034:9248   */\n      pop\n      jump\t// out\n        /* \"#utility.yul\":9254:9656   */\n    tag_81:\n        /* \"#utility.yul\":9414:9417   */\n      0x00\n        /* \"#utility.yul\":9435:9520   */\n      tag_185\n        /* \"#utility.yul\":9517:9519   */\n      0x0f\n        /* \"#utility.yul\":9512:9515   */\n      dup4\n        /* \"#utility.yul\":9435:9520   */\n      tag_77\n      jump\t// in\n    tag_185:\n        /* \"#utility.yul\":9428:9520   */\n      swap2\n      pop\n        /* \"#utility.yul\":9529:9622   */\n      tag_186\n        /* \"#utility.yul\":9618:9621   */\n      dup3\n        /* \"#utility.yul\":9529:9622   */\n      tag_80\n      jump\t// in\n    tag_186:\n        /* \"#utility.yul\":9647:9649   */\n      0x0f\n        /* \"#utility.yul\":9642:9645   */\n      dup3\n        /* \"#utility.yul\":9638:9650   */\n      add\n        /* \"#utility.yul\":9631:9650   */\n      swap1\n      pop\n        /* \"#utility.yul\":9254:9656   */\n      swap2\n      swap1\n      pop\n      jump\t// out\n        /* \"#utility.yul\":9662:10450   */\n    tag_44:\n        /* \"#utility.yul\":9976:9979   */\n      0x00\n        /* \"#utility.yul\":9998:10146   */\n      tag_188\n        /* \"#utility.yul\":10142:10145   */\n      dup3\n        /* \"#utility.yul\":9998:10146   */\n      tag_79\n      jump\t// in\n    tag_188:\n        /* \"#utility.yul\":9991:10146   */\n      swap2\n      pop\n        /* \"#utility.yul\":10156:10231   */\n      tag_189\n        /* \"#utility.yul\":10227:10230   */\n      dup3\n        /* \"#utility.yul\":10218:10224   */\n      dup5\n        /* \"#utility.yul\":10156:10231   */\n      tag_69\n      jump\t// in\n    tag_189:\n        /* \"#utility.yul\":10256:10258   */\n      0x14\n        /* \"#utility.yul\":10251:10254   */\n      dup3\n        /* \"#utility.yul\":10247:10259   */\n      add\n        /* \"#utility.yul\":10240:10259   */\n      swap2\n      pop\n        /* \"#utility.yul\":10276:10424   */\n      tag_190\n        /* \"#utility.yul\":10420:10423   */\n      dup3\n        /* \"#utility.yul\":10276:10424   */\n      tag_81\n      jump\t// in\n    tag_190:\n        /* \"#utility.yul\":10269:10424   */\n      swap2\n      pop\n        /* \"#utility.yul\":10441:10444   */\n      dup2\n        /* \"#utility.yul\":10434:10444   */\n      swap1\n      pop\n        /* \"#utility.yul\":9662:10450   */\n      swap3\n      swap2\n      pop\n      pop\n      jump\t// out\n\n    auxdata: 0xa2646970667358221220dcd14c58781304a30954affca867d046bfe028b6637a330ad5e0734a29a0b1ca64736f6c634300081e0033\n}\n\nsub_1: assembly {\n        /* \"contracts/lesson9.2/CloneFactory.sol\":99:1027  contract TokenImplementation {... */\n      mstore(0x40, 0x80)\n      callvalue\n      dup1\n      iszero\n      tag_1\n      jumpi\n      revert(0x00, 0x00)\n    tag_1:\n      pop\n      dataSize(sub_0)\n      dup1\n      dataOffset(sub_0)\n      0x00\n      codecopy\n      0x00\n      return\n    stop\n\n    sub_0: assembly {\n            /* \"contracts/lesson9.2/CloneFactory.sol\":99:1027  contract TokenImplementation {... */\n          mstore(0x40, 0x80)\n          callvalue\n          dup1\n          iszero\n          tag_1\n          jumpi\n          revert(0x00, 0x00)\n        tag_1:\n          pop\n          jumpi(tag_2, lt(calldatasize, 0x04))\n          shr(0xe0, calldataload(0x00))\n          dup1\n          0x27e235e3\n          gt\n          tag_10\n          jumpi\n          dup1\n          0x27e235e3\n          eq\n          tag_6\n          jumpi\n          dup1\n          0x95d89b41\n          eq\n          tag_7\n          jumpi\n          dup1\n          0xa9059cbb\n          eq\n          tag_8\n          jumpi\n          dup1\n          0xb119490e\n          eq\n          tag_9\n          jumpi\n          jump(tag_2)\n        tag_10:\n          dup1\n          0x02d05d3f\n          eq\n          tag_3\n          jumpi\n          dup1\n          0x06fdde03\n          eq\n          tag_4\n          jumpi\n          dup1\n          0x18160ddd\n          eq\n          tag_5\n          jumpi\n        tag_2:\n          revert(0x00, 0x00)\n            /* \"contracts/lesson9.2/CloneFactory.sol\":187:209  address public creator */\n        tag_3:\n          tag_11\n          tag_12\n          jump\t// in\n        tag_11:\n          mload(0x40)\n          tag_13\n          swap2\n          swap1\n          tag_14\n          jump\t// in\n        tag_13:\n          mload(0x40)\n          dup1\n          swap2\n          sub\n          swap1\n          return\n            /* \"contracts/lesson9.2/CloneFactory.sol\":135:153  string public name */\n        tag_4:\n          tag_15\n          tag_16\n          jump\t// in\n        tag_15:\n          mload(0x40)\n          tag_17\n          swap2\n          swap1\n          tag_18\n          jump\t// in\n        tag_17:\n          mload(0x40)\n          dup1\n          swap2\n          sub\n          swap1\n          return\n            /* \"contracts/lesson9.2/CloneFactory.sol\":216:242  uint256 public totalSupply */\n        tag_5:\n          tag_19\n          tag_20\n          jump\t// in\n        tag_19:\n          mload(0x40)\n          tag_21\n          swap2\n          swap1\n          tag_22\n          jump\t// in\n        tag_21:\n          mload(0x40)\n          dup1\n          swap2\n          sub\n          swap1\n          return\n            /* \"contracts/lesson9.2/CloneFactory.sol\":255:298  mapping(address => uint256) public balances */\n        tag_6:\n          tag_23\n          0x04\n          dup1\n          calldatasize\n          sub\n          dup2\n          add\n          swap1\n          tag_24\n          swap2\n          swap1\n          tag_25\n          jump\t// in\n        tag_24:\n          tag_26\n          jump\t// in\n        tag_23:\n          mload(0x40)\n          tag_27\n          swap2\n          swap1\n          tag_22\n          jump\t// in\n        tag_27:\n          mload(0x40)\n          dup1\n          swap2\n          sub\n          swap1\n          return\n            /* \"contracts/lesson9.2/CloneFactory.sol\":160:180  string public symbol */\n        tag_7:\n          tag_28\n          tag_29\n          jump\t// in\n        tag_28:\n          mload(0x40)\n          tag_30\n          swap2\n          swap1\n          tag_18\n          jump\t// in\n        tag_30:\n          mload(0x40)\n          dup1\n          swap2\n          sub\n          swap1\n          return\n            /* \"contracts/lesson9.2/CloneFactory.sol\":815:1024  function transfer(address to, uint256 amount) public {... */\n        tag_8:\n          tag_31\n          0x04\n          dup1\n          calldatasize\n          sub\n          dup2\n          add\n          swap1\n          tag_32\n          swap2\n          swap1\n          tag_33\n          jump\t// in\n        tag_32:\n          tag_34\n          jump\t// in\n        tag_31:\n          stop\n            /* \"contracts/lesson9.2/CloneFactory.sol\":455:803  function initialize(... */\n        tag_9:\n          tag_35\n          0x04\n          dup1\n          calldatasize\n          sub\n          dup2\n          add\n          swap1\n          tag_36\n          swap2\n          swap1\n          tag_37\n          jump\t// in\n        tag_36:\n          tag_38\n          jump\t// in\n        tag_35:\n          stop\n            /* \"contracts/lesson9.2/CloneFactory.sol\":187:209  address public creator */\n        tag_12:\n          0x02\n          0x00\n          swap1\n          sload\n          swap1\n          0x0100\n          exp\n          swap1\n          div\n          0xffffffffffffffffffffffffffffffffffffffff\n          and\n          dup2\n          jump\t// out\n            /* \"contracts/lesson9.2/CloneFactory.sol\":135:153  string public name */\n        tag_16:\n          0x00\n          dup1\n          sload\n          tag_39\n          swap1\n          tag_40\n          jump\t// in\n        tag_39:\n          dup1\n          0x1f\n          add\n          0x20\n          dup1\n          swap2\n          div\n          mul\n          0x20\n          add\n          mload(0x40)\n          swap1\n          dup2\n          add\n          0x40\n          mstore\n          dup1\n          swap3\n          swap2\n          swap1\n          dup2\n          dup2\n          mstore\n          0x20\n          add\n          dup3\n          dup1\n          sload\n          tag_41\n          swap1\n          tag_40\n          jump\t// in\n        tag_41:\n          dup1\n          iszero\n          tag_42\n          jumpi\n          dup1\n          0x1f\n          lt\n          tag_43\n          jumpi\n          0x0100\n          dup1\n          dup4\n          sload\n          div\n          mul\n          dup4\n          mstore\n          swap2\n          0x20\n          add\n          swap2\n          jump(tag_42)\n        tag_43:\n          dup3\n          add\n          swap2\n          swap1\n          0x00\n          mstore\n          keccak256(0x00, 0x20)\n          swap1\n        tag_44:\n          dup2\n          sload\n          dup2\n          mstore\n          swap1\n          0x01\n          add\n          swap1\n          0x20\n          add\n          dup1\n          dup4\n          gt\n          tag_44\n          jumpi\n          dup3\n          swap1\n          sub\n          0x1f\n          and\n          dup3\n          add\n          swap2\n        tag_42:\n          pop\n          pop\n          pop\n          pop\n          pop\n          dup2\n          jump\t// out\n            /* \"contracts/lesson9.2/CloneFactory.sol\":216:242  uint256 public totalSupply */\n        tag_20:\n          sload(0x03)\n          dup2\n          jump\t// out\n            /* \"contracts/lesson9.2/CloneFactory.sol\":255:298  mapping(address => uint256) public balances */\n        tag_26:\n          mstore(0x20, 0x04)\n          dup1\n          0x00\n          mstore\n          keccak256(0x00, 0x40)\n          0x00\n          swap2\n          pop\n          swap1\n          pop\n          sload\n          dup2\n          jump\t// out\n            /* \"contracts/lesson9.2/CloneFactory.sol\":160:180  string public symbol */\n        tag_29:\n          0x01\n          dup1\n          sload\n          tag_45\n          swap1\n          tag_40\n          jump\t// in\n        tag_45:\n          dup1\n          0x1f\n          add\n          0x20\n          dup1\n          swap2\n          div\n          mul\n          0x20\n          add\n          mload(0x40)\n          swap1\n          dup2\n          add\n          0x40\n          mstore\n          dup1\n          swap3\n          swap2\n          swap1\n          dup2\n          dup2\n          mstore\n          0x20\n          add\n          dup3\n          dup1\n          sload\n          tag_46\n          swap1\n          tag_40\n          jump\t// in\n        tag_46:\n          dup1\n          iszero\n          tag_47\n          jumpi\n          dup1\n          0x1f\n          lt\n          tag_48\n          jumpi\n          0x0100\n          dup1\n          dup4\n          sload\n          div\n          mul\n          dup4\n          mstore\n          swap2\n          0x20\n          add\n          swap2\n          jump(tag_47)\n        tag_48:\n          dup3\n          add\n          swap2\n          swap1\n          0x00\n          mstore\n          keccak256(0x00, 0x20)\n          swap1\n        tag_49:\n          dup2\n          sload\n          dup2\n          mstore\n          swap1\n          0x01\n          add\n          swap1\n          0x20\n          add\n          dup1\n          dup4\n          gt\n          tag_49\n          jumpi\n          dup3\n          swap1\n          sub\n          0x1f\n          and\n          dup3\n          add\n          swap2\n        tag_47:\n          pop\n          pop\n          pop\n          pop\n          pop\n          dup2\n          jump\t// out\n            /* \"contracts/lesson9.2/CloneFactory.sol\":815:1024  function transfer(address to, uint256 amount) public {... */\n        tag_34:\n            /* \"contracts/lesson9.2/CloneFactory.sol\":911:917  amount */\n          dup1\n            /* \"contracts/lesson9.2/CloneFactory.sol\":887:895  balances */\n          0x04\n            /* \"contracts/lesson9.2/CloneFactory.sol\":887:907  balances[msg.sender] */\n          0x00\n            /* \"contracts/lesson9.2/CloneFactory.sol\":896:906  msg.sender */\n          caller\n            /* \"contracts/lesson9.2/CloneFactory.sol\":887:907  balances[msg.sender] */\n          0xffffffffffffffffffffffffffffffffffffffff\n          and\n          0xffffffffffffffffffffffffffffffffffffffff\n          and\n          dup2\n          mstore\n          0x20\n          add\n          swap1\n          dup2\n          mstore\n          0x20\n          add\n          0x00\n          keccak256\n          sload\n            /* \"contracts/lesson9.2/CloneFactory.sol\":887:917  balances[msg.sender] >= amount */\n          lt\n          iszero\n            /* \"contracts/lesson9.2/CloneFactory.sol\":879:942  require(balances[msg.sender] >= amount, \"Insufficient balance\") */\n          tag_51\n          jumpi\n          mload(0x40)\n          0x08c379a000000000000000000000000000000000000000000000000000000000\n          dup2\n          mstore\n          0x04\n          add\n          tag_52\n          swap1\n          tag_53\n          jump\t// in\n        tag_52:\n          mload(0x40)\n          dup1\n          swap2\n          sub\n          swap1\n          revert\n        tag_51:\n            /* \"contracts/lesson9.2/CloneFactory.sol\":977:983  amount */\n          dup1\n            /* \"contracts/lesson9.2/CloneFactory.sol\":953:961  balances */\n          0x04\n            /* \"contracts/lesson9.2/CloneFactory.sol\":953:973  balances[msg.sender] */\n          0x00\n            /* \"contracts/lesson9.2/CloneFactory.sol\":962:972  msg.sender */\n          caller\n            /* \"contracts/lesson9.2/CloneFactory.sol\":953:973  balances[msg.sender] */\n          0xffffffffffffffffffffffffffffffffffffffff\n          and\n          0xffffffffffffffffffffffffffffffffffffffff\n          and\n          dup2\n          mstore\n          0x20\n          add\n          swap1\n          dup2\n          mstore\n          0x20\n          add\n          0x00\n          keccak256\n          0x00\n            /* \"contracts/lesson9.2/CloneFactory.sol\":953:983  balances[msg.sender] -= amount */\n          dup3\n          dup3\n          sload\n          tag_54\n          swap2\n          swap1\n          tag_55\n          jump\t// in\n        tag_54:\n          swap3\n          pop\n          pop\n          dup2\n          swap1\n          sstore\n          pop\n            /* \"contracts/lesson9.2/CloneFactory.sol\":1010:1016  amount */\n          dup1\n            /* \"contracts/lesson9.2/CloneFactory.sol\":994:1002  balances */\n          0x04\n            /* \"contracts/lesson9.2/CloneFactory.sol\":994:1006  balances[to] */\n          0x00\n            /* \"contracts/lesson9.2/CloneFactory.sol\":1003:1005  to */\n          dup5\n            /* \"contracts/lesson9.2/CloneFactory.sol\":994:1006  balances[to] */\n          0xffffffffffffffffffffffffffffffffffffffff\n          and\n          0xffffffffffffffffffffffffffffffffffffffff\n          and\n          dup2\n          mstore\n          0x20\n          add\n          swap1\n          dup2\n          mstore\n          0x20\n          add\n          0x00\n          keccak256\n          0x00\n            /* \"contracts/lesson9.2/CloneFactory.sol\":994:1016  balances[to] += amount */\n          dup3\n          dup3\n          sload\n          tag_56\n          swap2\n          swap1\n          tag_57\n          jump\t// in\n        tag_56:\n          swap3\n          pop\n          pop\n          dup2\n          swap1\n          sstore\n          pop\n            /* \"contracts/lesson9.2/CloneFactory.sol\":815:1024  function transfer(address to, uint256 amount) public {... */\n          pop\n          pop\n          jump\t// out\n            /* \"contracts/lesson9.2/CloneFactory.sol\":455:803  function initialize(... */\n        tag_38:\n            /* \"contracts/lesson9.2/CloneFactory.sol\":615:616  0 */\n          0x00\n            /* \"contracts/lesson9.2/CloneFactory.sol\":596:617  creator == address(0) */\n          0xffffffffffffffffffffffffffffffffffffffff\n          and\n            /* \"contracts/lesson9.2/CloneFactory.sol\":596:603  creator */\n          0x02\n          0x00\n          swap1\n          sload\n          swap1\n          0x0100\n          exp\n          swap1\n          div\n          0xffffffffffffffffffffffffffffffffffffffff\n          and\n            /* \"contracts/lesson9.2/CloneFactory.sol\":596:617  creator == address(0) */\n          0xffffffffffffffffffffffffffffffffffffffff\n          and\n          eq\n            /* \"contracts/lesson9.2/CloneFactory.sol\":588:641  require(creator == address(0), \"Already initialized\") */\n          tag_59\n          jumpi\n          mload(0x40)\n          0x08c379a000000000000000000000000000000000000000000000000000000000\n          dup2\n          mstore\n          0x04\n          add\n          tag_60\n          swap1\n          tag_61\n          jump\t// in\n        tag_60:\n          mload(0x40)\n          dup1\n          swap2\n          sub\n          swap1\n          revert\n        tag_59:\n            /* \"contracts/lesson9.2/CloneFactory.sol\":659:664  _name */\n          dup3\n            /* \"contracts/lesson9.2/CloneFactory.sol\":652:656  name */\n          0x00\n            /* \"contracts/lesson9.2/CloneFactory.sol\":652:664  name = _name */\n          swap1\n          dup2\n          tag_62\n          swap2\n          swap1\n          tag_63\n          jump\t// in\n        tag_62:\n          pop\n            /* \"contracts/lesson9.2/CloneFactory.sol\":684:691  _symbol */\n          dup2\n            /* \"contracts/lesson9.2/CloneFactory.sol\":675:681  symbol */\n          0x01\n            /* \"contracts/lesson9.2/CloneFactory.sol\":675:691  symbol = _symbol */\n          swap1\n          dup2\n          tag_64\n          swap2\n          swap1\n          tag_63\n          jump\t// in\n        tag_64:\n          pop\n            /* \"contracts/lesson9.2/CloneFactory.sol\":712:722  msg.sender */\n          caller\n            /* \"contracts/lesson9.2/CloneFactory.sol\":702:709  creator */\n          0x02\n          0x00\n            /* \"contracts/lesson9.2/CloneFactory.sol\":702:722  creator = msg.sender */\n          0x0100\n          exp\n          dup2\n          sload\n          dup2\n          0xffffffffffffffffffffffffffffffffffffffff\n          mul\n          not\n          and\n          swap1\n          dup4\n          0xffffffffffffffffffffffffffffffffffffffff\n          and\n          mul\n          or\n          swap1\n          sstore\n          pop\n            /* \"contracts/lesson9.2/CloneFactory.sol\":747:754  _supply */\n          dup1\n            /* \"contracts/lesson9.2/CloneFactory.sol\":733:744  totalSupply */\n          0x03\n            /* \"contracts/lesson9.2/CloneFactory.sol\":733:754  totalSupply = _supply */\n          dup2\n          swap1\n          sstore\n          pop\n            /* \"contracts/lesson9.2/CloneFactory.sol\":788:795  _supply */\n          dup1\n            /* \"contracts/lesson9.2/CloneFactory.sol\":765:773  balances */\n          0x04\n            /* \"contracts/lesson9.2/CloneFactory.sol\":765:785  balances[msg.sender] */\n          0x00\n            /* \"contracts/lesson9.2/CloneFactory.sol\":774:784  msg.sender */\n          caller\n            /* \"contracts/lesson9.2/CloneFactory.sol\":765:785  balances[msg.sender] */\n          0xffffffffffffffffffffffffffffffffffffffff\n          and\n          0xffffffffffffffffffffffffffffffffffffffff\n          and\n          dup2\n          mstore\n          0x20\n          add\n          swap1\n          dup2\n          mstore\n          0x20\n          add\n          0x00\n          keccak256\n            /* \"contracts/lesson9.2/CloneFactory.sol\":765:795  balances[msg.sender] = _supply */\n          dup2\n          swap1\n          sstore\n          pop\n            /* \"contracts/lesson9.2/CloneFactory.sol\":455:803  function initialize(... */\n          pop\n          pop\n          pop\n          jump\t// out\n            /* \"#utility.yul\":7:133   */\n        tag_65:\n            /* \"#utility.yul\":44:51   */\n          0x00\n            /* \"#utility.yul\":84:126   */\n          0xffffffffffffffffffffffffffffffffffffffff\n            /* \"#utility.yul\":77:82   */\n          dup3\n            /* \"#utility.yul\":73:127   */\n          and\n            /* \"#utility.yul\":62:127   */\n          swap1\n          pop\n            /* \"#utility.yul\":7:133   */\n          swap2\n          swap1\n          pop\n          jump\t// out\n            /* \"#utility.yul\":139:235   */\n        tag_66:\n            /* \"#utility.yul\":176:183   */\n          0x00\n            /* \"#utility.yul\":205:229   */\n          tag_115\n            /* \"#utility.yul\":223:228   */\n          dup3\n            /* \"#utility.yul\":205:229   */\n          tag_65\n          jump\t// in\n        tag_115:\n            /* \"#utility.yul\":194:229   */\n          swap1\n          pop\n            /* \"#utility.yul\":139:235   */\n          swap2\n          swap1\n          pop\n          jump\t// out\n            /* \"#utility.yul\":241:359   */\n        tag_67:\n            /* \"#utility.yul\":328:352   */\n          tag_117\n            /* \"#utility.yul\":346:351   */\n          dup2\n            /* \"#utility.yul\":328:352   */\n          tag_66\n          jump\t// in\n        tag_117:\n            /* \"#utility.yul\":323:326   */\n          dup3\n            /* \"#utility.yul\":316:353   */\n          mstore\n            /* \"#utility.yul\":241:359   */\n          pop\n          pop\n          jump\t// out\n            /* \"#utility.yul\":365:587   */\n        tag_14:\n            /* \"#utility.yul\":458:462   */\n          0x00\n            /* \"#utility.yul\":496:498   */\n          0x20\n            /* \"#utility.yul\":485:494   */\n          dup3\n            /* \"#utility.yul\":481:499   */\n          add\n            /* \"#utility.yul\":473:499   */\n          swap1\n          pop\n            /* \"#utility.yul\":509:580   */\n          tag_119\n            /* \"#utility.yul\":577:578   */\n          0x00\n            /* \"#utility.yul\":566:575   */\n          dup4\n            /* \"#utility.yul\":562:579   */\n          add\n            /* \"#utility.yul\":553:559   */\n          dup5\n            /* \"#utility.yul\":509:580   */\n          tag_67\n          jump\t// in\n        tag_119:\n            /* \"#utility.yul\":365:587   */\n          swap3\n          swap2\n          pop\n          pop\n          jump\t// out\n            /* \"#utility.yul\":593:692   */\n        tag_68:\n            /* \"#utility.yul\":645:651   */\n          0x00\n            /* \"#utility.yul\":679:684   */\n          dup2\n            /* \"#utility.yul\":673:685   */\n          mload\n            /* \"#utility.yul\":663:685   */\n          swap1\n          pop\n            /* \"#utility.yul\":593:692   */\n          swap2\n          swap1\n          pop\n          jump\t// out\n            /* \"#utility.yul\":698:867   */\n        tag_69:\n            /* \"#utility.yul\":782:793   */\n          0x00\n            /* \"#utility.yul\":816:822   */\n          dup3\n            /* \"#utility.yul\":811:814   */\n          dup3\n            /* \"#utility.yul\":804:823   */\n          mstore\n            /* \"#utility.yul\":856:860   */\n          0x20\n            /* \"#utility.yul\":851:854   */\n          dup3\n            /* \"#utility.yul\":847:861   */\n          add\n            /* \"#utility.yul\":832:861   */\n          swap1\n          pop\n            /* \"#utility.yul\":698:867   */\n          swap3\n          swap2\n          pop\n          pop\n          jump\t// out\n            /* \"#utility.yul\":873:1012   */\n        tag_70:\n            /* \"#utility.yul\":962:968   */\n          dup3\n            /* \"#utility.yul\":957:960   */\n          dup2\n            /* \"#utility.yul\":952:955   */\n          dup4\n            /* \"#utility.yul\":946:969   */\n          mcopy\n            /* \"#utility.yul\":1003:1004   */\n          0x00\n            /* \"#utility.yul\":994:1000   */\n          dup4\n            /* \"#utility.yul\":989:992   */\n          dup4\n            /* \"#utility.yul\":985:1001   */\n          add\n            /* \"#utility.yul\":978:1005   */\n          mstore\n            /* \"#utility.yul\":873:1012   */\n          pop\n          pop\n          pop\n          jump\t// out\n            /* \"#utility.yul\":1018:1120   */\n        tag_71:\n            /* \"#utility.yul\":1059:1065   */\n          0x00\n            /* \"#utility.yul\":1110:1112   */\n          0x1f\n            /* \"#utility.yul\":1106:1113   */\n          not\n            /* \"#utility.yul\":1101:1103   */\n          0x1f\n            /* \"#utility.yul\":1094:1099   */\n          dup4\n            /* \"#utility.yul\":1090:1104   */\n          add\n            /* \"#utility.yul\":1086:1114   */\n          and\n            /* \"#utility.yul\":1076:1114   */\n          swap1\n          pop\n            /* \"#utility.yul\":1018:1120   */\n          swap2\n          swap1\n          pop\n          jump\t// out\n            /* \"#utility.yul\":1126:1503   */\n        tag_72:\n            /* \"#utility.yul\":1214:1217   */\n          0x00\n            /* \"#utility.yul\":1242:1281   */\n          tag_125\n            /* \"#utility.yul\":1275:1280   */\n          dup3\n            /* \"#utility.yul\":1242:1281   */\n          tag_68\n          jump\t// in\n        tag_125:\n            /* \"#utility.yul\":1297:1368   */\n          tag_126\n            /* \"#utility.yul\":1361:1367   */\n          dup2\n            /* \"#utility.yul\":1356:1359   */\n          dup6\n            /* \"#utility.yul\":1297:1368   */\n          tag_69\n          jump\t// in\n        tag_126:\n            /* \"#utility.yul\":1290:1368   */\n          swap4\n          pop\n            /* \"#utility.yul\":1377:1442   */\n          tag_127\n            /* \"#utility.yul\":1435:1441   */\n          dup2\n            /* \"#utility.yul\":1430:1433   */\n          dup6\n            /* \"#utility.yul\":1423:1427   */\n          0x20\n            /* \"#utility.yul\":1416:1421   */\n          dup7\n            /* \"#utility.yul\":1412:1428   */\n          add\n            /* \"#utility.yul\":1377:1442   */\n          tag_70\n          jump\t// in\n        tag_127:\n            /* \"#utility.yul\":1467:1496   */\n          tag_128\n            /* \"#utility.yul\":1489:1495   */\n          dup2\n            /* \"#utility.yul\":1467:1496   */\n          tag_71\n          jump\t// in\n        tag_128:\n            /* \"#utility.yul\":1462:1465   */\n          dup5\n            /* \"#utility.yul\":1458:1497   */\n          add\n            /* \"#utility.yul\":1451:1497   */\n          swap2\n          pop\n            /* \"#utility.yul\":1218:1503   */\n          pop\n            /* \"#utility.yul\":1126:1503   */\n          swap3\n          swap2\n          pop\n          pop\n          jump\t// out\n            /* \"#utility.yul\":1509:1822   */\n        tag_18:\n            /* \"#utility.yul\":1622:1626   */\n          0x00\n            /* \"#utility.yul\":1660:1662   */\n          0x20\n            /* \"#utility.yul\":1649:1658   */\n          dup3\n            /* \"#utility.yul\":1645:1663   */\n          add\n            /* \"#utility.yul\":1637:1663   */\n          swap1\n          pop\n            /* \"#utility.yul\":1709:1718   */\n          dup2\n            /* \"#utility.yul\":1703:1707   */\n          dup2\n            /* \"#utility.yul\":1699:1719   */\n          sub\n            /* \"#utility.yul\":1695:1696   */\n          0x00\n            /* \"#utility.yul\":1684:1693   */\n          dup4\n            /* \"#utility.yul\":1680:1697   */\n          add\n            /* \"#utility.yul\":1673:1720   */\n          mstore\n            /* \"#utility.yul\":1737:1815   */\n          tag_130\n            /* \"#utility.yul\":1810:1814   */\n          dup2\n            /* \"#utility.yul\":1801:1807   */\n          dup5\n            /* \"#utility.yul\":1737:1815   */\n          tag_72\n          jump\t// in\n        tag_130:\n            /* \"#utility.yul\":1729:1815   */\n          swap1\n          pop\n            /* \"#utility.yul\":1509:1822   */\n          swap3\n          swap2\n          pop\n          pop\n          jump\t// out\n            /* \"#utility.yul\":1828:1905   */\n        tag_73:\n            /* \"#utility.yul\":1865:1872   */\n          0x00\n            /* \"#utility.yul\":1894:1899   */\n          dup2\n            /* \"#utility.yul\":1883:1899   */\n          swap1\n          pop\n            /* \"#utility.yul\":1828:1905   */\n          swap2\n          swap1\n          pop\n          jump\t// out\n            /* \"#utility.yul\":1911:2029   */\n        tag_74:\n            /* \"#utility.yul\":1998:2022   */\n          tag_133\n            /* \"#utility.yul\":2016:2021   */\n          dup2\n            /* \"#utility.yul\":1998:2022   */\n          tag_73\n          jump\t// in\n        tag_133:\n            /* \"#utility.yul\":1993:1996   */\n          dup3\n            /* \"#utility.yul\":1986:2023   */\n          mstore\n            /* \"#utility.yul\":1911:2029   */\n          pop\n          pop\n          jump\t// out\n            /* \"#utility.yul\":2035:2257   */\n        tag_22:\n            /* \"#utility.yul\":2128:2132   */\n          0x00\n            /* \"#utility.yul\":2166:2168   */\n          0x20\n            /* \"#utility.yul\":2155:2164   */\n          dup3\n            /* \"#utility.yul\":2151:2169   */\n          add\n            /* \"#utility.yul\":2143:2169   */\n          swap1\n          pop\n            /* \"#utility.yul\":2179:2250   */\n          tag_135\n            /* \"#utility.yul\":2247:2248   */\n          0x00\n            /* \"#utility.yul\":2236:2245   */\n          dup4\n            /* \"#utility.yul\":2232:2249   */\n          add\n            /* \"#utility.yul\":2223:2229   */\n          dup5\n            /* \"#utility.yul\":2179:2250   */\n          tag_74\n          jump\t// in\n        tag_135:\n            /* \"#utility.yul\":2035:2257   */\n          swap3\n          swap2\n          pop\n          pop\n          jump\t// out\n            /* \"#utility.yul\":2263:2338   */\n        tag_75:\n            /* \"#utility.yul\":2296:2302   */\n          0x00\n            /* \"#utility.yul\":2329:2331   */\n          0x40\n            /* \"#utility.yul\":2323:2332   */\n          mload\n            /* \"#utility.yul\":2313:2332   */\n          swap1\n          pop\n            /* \"#utility.yul\":2263:2338   */\n          swap1\n          jump\t// out\n            /* \"#utility.yul\":2344:2461   */\n        tag_76:\n            /* \"#utility.yul\":2453:2454   */\n          0x00\n            /* \"#utility.yul\":2450:2451   */\n          0x00\n            /* \"#utility.yul\":2443:2455   */\n          revert\n            /* \"#utility.yul\":2467:2584   */\n        tag_77:\n            /* \"#utility.yul\":2576:2577   */\n          0x00\n            /* \"#utility.yul\":2573:2574   */\n          0x00\n            /* \"#utility.yul\":2566:2578   */\n          revert\n            /* \"#utility.yul\":2590:2712   */\n        tag_78:\n            /* \"#utility.yul\":2663:2687   */\n          tag_140\n            /* \"#utility.yul\":2681:2686   */\n          dup2\n            /* \"#utility.yul\":2663:2687   */\n          tag_66\n          jump\t// in\n        tag_140:\n            /* \"#utility.yul\":2656:2661   */\n          dup2\n            /* \"#utility.yul\":2653:2688   */\n          eq\n            /* \"#utility.yul\":2643:2706   */\n          tag_141\n          jumpi\n            /* \"#utility.yul\":2702:2703   */\n          0x00\n            /* \"#utility.yul\":2699:2700   */\n          0x00\n            /* \"#utility.yul\":2692:2704   */\n          revert\n            /* \"#utility.yul\":2643:2706   */\n        tag_141:\n            /* \"#utility.yul\":2590:2712   */\n          pop\n          jump\t// out\n            /* \"#utility.yul\":2718:2857   */\n        tag_79:\n            /* \"#utility.yul\":2764:2769   */\n          0x00\n            /* \"#utility.yul\":2802:2808   */\n          dup2\n            /* \"#utility.yul\":2789:2809   */\n          calldataload\n            /* \"#utility.yul\":2780:2809   */\n          swap1\n          pop\n            /* \"#utility.yul\":2818:2851   */\n          tag_143\n            /* \"#utility.yul\":2845:2850   */\n          dup2\n            /* \"#utility.yul\":2818:2851   */\n          tag_78\n          jump\t// in\n        tag_143:\n            /* \"#utility.yul\":2718:2857   */\n          swap3\n          swap2\n          pop\n          pop\n          jump\t// out\n            /* \"#utility.yul\":2863:3192   */\n        tag_25:\n            /* \"#utility.yul\":2922:2928   */\n          0x00\n            /* \"#utility.yul\":2971:2973   */\n          0x20\n            /* \"#utility.yul\":2959:2968   */\n          dup3\n            /* \"#utility.yul\":2950:2957   */\n          dup5\n            /* \"#utility.yul\":2946:2969   */\n          sub\n            /* \"#utility.yul\":2942:2974   */\n          slt\n            /* \"#utility.yul\":2939:3058   */\n          iszero\n          tag_145\n          jumpi\n            /* \"#utility.yul\":2977:3056   */\n          tag_146\n          tag_76\n          jump\t// in\n        tag_146:\n            /* \"#utility.yul\":2939:3058   */\n        tag_145:\n            /* \"#utility.yul\":3097:3098   */\n          0x00\n            /* \"#utility.yul\":3122:3175   */\n          tag_147\n            /* \"#utility.yul\":3167:3174   */\n          dup5\n            /* \"#utility.yul\":3158:3164   */\n          dup3\n            /* \"#utility.yul\":3147:3156   */\n          dup6\n            /* \"#utility.yul\":3143:3165   */\n          add\n            /* \"#utility.yul\":3122:3175   */\n          tag_79\n          jump\t// in\n        tag_147:\n            /* \"#utility.yul\":3112:3175   */\n          swap2\n          pop\n            /* \"#utility.yul\":3068:3185   */\n          pop\n            /* \"#utility.yul\":2863:3192   */\n          swap3\n          swap2\n          pop\n          pop\n          jump\t// out\n            /* \"#utility.yul\":3198:3320   */\n        tag_80:\n            /* \"#utility.yul\":3271:3295   */\n          tag_149\n            /* \"#utility.yul\":3289:3294   */\n          dup2\n            /* \"#utility.yul\":3271:3295   */\n          tag_73\n          jump\t// in\n        tag_149:\n            /* \"#utility.yul\":3264:3269   */\n          dup2\n            /* \"#utility.yul\":3261:3296   */\n          eq\n            /* \"#utility.yul\":3251:3314   */\n          tag_150\n          jumpi\n            /* \"#utility.yul\":3310:3311   */\n          0x00\n            /* \"#utility.yul\":3307:3308   */\n          0x00\n            /* \"#utility.yul\":3300:3312   */\n          revert\n            /* \"#utility.yul\":3251:3314   */\n        tag_150:\n            /* \"#utility.yul\":3198:3320   */\n          pop\n          jump\t// out\n            /* \"#utility.yul\":3326:3465   */\n        tag_81:\n            /* \"#utility.yul\":3372:3377   */\n          0x00\n            /* \"#utility.yul\":3410:3416   */\n          dup2\n            /* \"#utility.yul\":3397:3417   */\n          calldataload\n            /* \"#utility.yul\":3388:3417   */\n          swap1\n          pop\n            /* \"#utility.yul\":3426:3459   */\n          tag_152\n            /* \"#utility.yul\":3453:3458   */\n          dup2\n            /* \"#utility.yul\":3426:3459   */\n          tag_80\n          jump\t// in\n        tag_152:\n            /* \"#utility.yul\":3326:3465   */\n          swap3\n          swap2\n          pop\n          pop\n          jump\t// out\n            /* \"#utility.yul\":3471:3945   */\n        tag_33:\n            /* \"#utility.yul\":3539:3545   */\n          0x00\n            /* \"#utility.yul\":3547:3553   */\n          0x00\n            /* \"#utility.yul\":3596:3598   */\n          0x40\n            /* \"#utility.yul\":3584:3593   */\n          dup4\n            /* \"#utility.yul\":3575:3582   */\n          dup6\n            /* \"#utility.yul\":3571:3594   */\n          sub\n            /* \"#utility.yul\":3567:3599   */\n          slt\n            /* \"#utility.yul\":3564:3683   */\n          iszero\n          tag_154\n          jumpi\n            /* \"#utility.yul\":3602:3681   */\n          tag_155\n          tag_76\n          jump\t// in\n        tag_155:\n            /* \"#utility.yul\":3564:3683   */\n        tag_154:\n            /* \"#utility.yul\":3722:3723   */\n          0x00\n            /* \"#utility.yul\":3747:3800   */\n          tag_156\n            /* \"#utility.yul\":3792:3799   */\n          dup6\n            /* \"#utility.yul\":3783:3789   */\n          dup3\n            /* \"#utility.yul\":3772:3781   */\n          dup7\n            /* \"#utility.yul\":3768:3790   */\n          add\n            /* \"#utility.yul\":3747:3800   */\n          tag_79\n          jump\t// in\n        tag_156:\n            /* \"#utility.yul\":3737:3800   */\n          swap3\n          pop\n            /* \"#utility.yul\":3693:3810   */\n          pop\n            /* \"#utility.yul\":3849:3851   */\n          0x20\n            /* \"#utility.yul\":3875:3928   */\n          tag_157\n            /* \"#utility.yul\":3920:3927   */\n          dup6\n            /* \"#utility.yul\":3911:3917   */\n          dup3\n            /* \"#utility.yul\":3900:3909   */\n          dup7\n            /* \"#utility.yul\":3896:3918   */\n          add\n            /* \"#utility.yul\":3875:3928   */\n          tag_81\n          jump\t// in\n        tag_157:\n            /* \"#utility.yul\":3865:3928   */\n          swap2\n          pop\n            /* \"#utility.yul\":3820:3938   */\n          pop\n            /* \"#utility.yul\":3471:3945   */\n          swap3\n          pop\n          swap3\n          swap1\n          pop\n          jump\t// out\n            /* \"#utility.yul\":3951:4068   */\n        tag_82:\n            /* \"#utility.yul\":4060:4061   */\n          0x00\n            /* \"#utility.yul\":4057:4058   */\n          0x00\n            /* \"#utility.yul\":4050:4062   */\n          revert\n            /* \"#utility.yul\":4074:4191   */\n        tag_83:\n            /* \"#utility.yul\":4183:4184   */\n          0x00\n            /* \"#utility.yul\":4180:4181   */\n          0x00\n            /* \"#utility.yul\":4173:4185   */\n          revert\n            /* \"#utility.yul\":4197:4377   */\n        tag_84:\n            /* \"#utility.yul\":4245:4322   */\n          0x4e487b7100000000000000000000000000000000000000000000000000000000\n            /* \"#utility.yul\":4242:4243   */\n          0x00\n            /* \"#utility.yul\":4235:4323   */\n          mstore\n            /* \"#utility.yul\":4342:4346   */\n          0x41\n            /* \"#utility.yul\":4339:4340   */\n          0x04\n            /* \"#utility.yul\":4332:4347   */\n          mstore\n            /* \"#utility.yul\":4366:4370   */\n          0x24\n            /* \"#utility.yul\":4363:4364   */\n          0x00\n            /* \"#utility.yul\":4356:4371   */\n          revert\n            /* \"#utility.yul\":4383:4664   */\n        tag_85:\n            /* \"#utility.yul\":4466:4493   */\n          tag_162\n            /* \"#utility.yul\":4488:4492   */\n          dup3\n            /* \"#utility.yul\":4466:4493   */\n          tag_71\n          jump\t// in\n        tag_162:\n            /* \"#utility.yul\":4458:4464   */\n          dup2\n            /* \"#utility.yul\":4454:4494   */\n          add\n            /* \"#utility.yul\":4596:4602   */\n          dup2\n            /* \"#utility.yul\":4584:4594   */\n          dup2\n            /* \"#utility.yul\":4581:4603   */\n          lt\n            /* \"#utility.yul\":4560:4578   */\n          0xffffffffffffffff\n            /* \"#utility.yul\":4548:4558   */\n          dup3\n            /* \"#utility.yul\":4545:4579   */\n          gt\n            /* \"#utility.yul\":4542:4604   */\n          or\n            /* \"#utility.yul\":4539:4627   */\n          iszero\n          tag_163\n          jumpi\n            /* \"#utility.yul\":4607:4625   */\n          tag_164\n          tag_84\n          jump\t// in\n        tag_164:\n            /* \"#utility.yul\":4539:4627   */\n        tag_163:\n            /* \"#utility.yul\":4647:4657   */\n          dup1\n            /* \"#utility.yul\":4643:4645   */\n          0x40\n            /* \"#utility.yul\":4636:4658   */\n          mstore\n            /* \"#utility.yul\":4426:4664   */\n          pop\n            /* \"#utility.yul\":4383:4664   */\n          pop\n          pop\n          jump\t// out\n            /* \"#utility.yul\":4670:4799   */\n        tag_86:\n            /* \"#utility.yul\":4704:4710   */\n          0x00\n            /* \"#utility.yul\":4731:4751   */\n          tag_166\n          tag_75\n          jump\t// in\n        tag_166:\n            /* \"#utility.yul\":4721:4751   */\n          swap1\n          pop\n            /* \"#utility.yul\":4760:4793   */\n          tag_167\n            /* \"#utility.yul\":4788:4792   */\n          dup3\n            /* \"#utility.yul\":4780:4786   */\n          dup3\n            /* \"#utility.yul\":4760:4793   */\n          tag_85\n          jump\t// in\n        tag_167:\n            /* \"#utility.yul\":4670:4799   */\n          swap2\n          swap1\n          pop\n          jump\t// out\n            /* \"#utility.yul\":4805:5113   */\n        tag_87:\n            /* \"#utility.yul\":4867:4871   */\n          0x00\n            /* \"#utility.yul\":4957:4975   */\n          0xffffffffffffffff\n            /* \"#utility.yul\":4949:4955   */\n          dup3\n            /* \"#utility.yul\":4946:4976   */\n          gt\n            /* \"#utility.yul\":4943:4999   */\n          iszero\n          tag_169\n          jumpi\n            /* \"#utility.yul\":4979:4997   */\n          tag_170\n          tag_84\n          jump\t// in\n        tag_170:\n            /* \"#utility.yul\":4943:4999   */\n        tag_169:\n            /* \"#utility.yul\":5017:5046   */\n          tag_171\n            /* \"#utility.yul\":5039:5045   */\n          dup3\n            /* \"#utility.yul\":5017:5046   */\n          tag_71\n          jump\t// in\n        tag_171:\n            /* \"#utility.yul\":5009:5046   */\n          swap1\n          pop\n            /* \"#utility.yul\":5101:5105   */\n          0x20\n            /* \"#utility.yul\":5095:5099   */\n          dup2\n            /* \"#utility.yul\":5091:5106   */\n          add\n            /* \"#utility.yul\":5083:5106   */\n          swap1\n          pop\n            /* \"#utility.yul\":4805:5113   */\n          swap2\n          swap1\n          pop\n          jump\t// out\n            /* \"#utility.yul\":5119:5267   */\n        tag_88:\n            /* \"#utility.yul\":5217:5223   */\n          dup3\n            /* \"#utility.yul\":5212:5215   */\n          dup2\n            /* \"#utility.yul\":5207:5210   */\n          dup4\n            /* \"#utility.yul\":5194:5224   */\n          calldatacopy\n            /* \"#utility.yul\":5258:5259   */\n          0x00\n            /* \"#utility.yul\":5249:5255   */\n          dup4\n            /* \"#utility.yul\":5244:5247   */\n          dup4\n            /* \"#utility.yul\":5240:5256   */\n          add\n            /* \"#utility.yul\":5233:5260   */\n          mstore\n            /* \"#utility.yul\":5119:5267   */\n          pop\n          pop\n          pop\n          jump\t// out\n            /* \"#utility.yul\":5273:5698   */\n        tag_89:\n            /* \"#utility.yul\":5351:5356   */\n          0x00\n            /* \"#utility.yul\":5376:5442   */\n          tag_174\n            /* \"#utility.yul\":5392:5441   */\n          tag_175\n            /* \"#utility.yul\":5434:5440   */\n          dup5\n            /* \"#utility.yul\":5392:5441   */\n          tag_87\n          jump\t// in\n        tag_175:\n            /* \"#utility.yul\":5376:5442   */\n          tag_86\n          jump\t// in\n        tag_174:\n            /* \"#utility.yul\":5367:5442   */\n          swap1\n          pop\n            /* \"#utility.yul\":5465:5471   */\n          dup3\n            /* \"#utility.yul\":5458:5463   */\n          dup2\n            /* \"#utility.yul\":5451:5472   */\n          mstore\n            /* \"#utility.yul\":5503:5507   */\n          0x20\n            /* \"#utility.yul\":5496:5501   */\n          dup2\n            /* \"#utility.yul\":5492:5508   */\n          add\n            /* \"#utility.yul\":5541:5544   */\n          dup5\n            /* \"#utility.yul\":5532:5538   */\n          dup5\n            /* \"#utility.yul\":5527:5530   */\n          dup5\n            /* \"#utility.yul\":5523:5539   */\n          add\n            /* \"#utility.yul\":5520:5545   */\n          gt\n            /* \"#utility.yul\":5517:5629   */\n          iszero\n          tag_176\n          jumpi\n            /* \"#utility.yul\":5548:5627   */\n          tag_177\n          tag_83\n          jump\t// in\n        tag_177:\n            /* \"#utility.yul\":5517:5629   */\n        tag_176:\n            /* \"#utility.yul\":5638:5692   */\n          tag_178\n            /* \"#utility.yul\":5685:5691   */\n          dup5\n            /* \"#utility.yul\":5680:5683   */\n          dup3\n            /* \"#utility.yul\":5675:5678   */\n          dup6\n            /* \"#utility.yul\":5638:5692   */\n          tag_88\n          jump\t// in\n        tag_178:\n            /* \"#utility.yul\":5357:5698   */\n          pop\n            /* \"#utility.yul\":5273:5698   */\n          swap4\n          swap3\n          pop\n          pop\n          pop\n          jump\t// out\n            /* \"#utility.yul\":5718:6058   */\n        tag_90:\n            /* \"#utility.yul\":5774:5779   */\n          0x00\n            /* \"#utility.yul\":5823:5826   */\n          dup3\n            /* \"#utility.yul\":5816:5820   */\n          0x1f\n            /* \"#utility.yul\":5808:5814   */\n          dup4\n            /* \"#utility.yul\":5804:5821   */\n          add\n            /* \"#utility.yul\":5800:5827   */\n          slt\n            /* \"#utility.yul\":5790:5912   */\n          tag_180\n          jumpi\n            /* \"#utility.yul\":5831:5910   */\n          tag_181\n          tag_82\n          jump\t// in\n        tag_181:\n            /* \"#utility.yul\":5790:5912   */\n        tag_180:\n            /* \"#utility.yul\":5948:5954   */\n          dup2\n            /* \"#utility.yul\":5935:5955   */\n          calldataload\n            /* \"#utility.yul\":5973:6052   */\n          tag_182\n            /* \"#utility.yul\":6048:6051   */\n          dup5\n            /* \"#utility.yul\":6040:6046   */\n          dup3\n            /* \"#utility.yul\":6033:6037   */\n          0x20\n            /* \"#utility.yul\":6025:6031   */\n          dup7\n            /* \"#utility.yul\":6021:6038   */\n          add\n            /* \"#utility.yul\":5973:6052   */\n          tag_89\n          jump\t// in\n        tag_182:\n            /* \"#utility.yul\":5964:6052   */\n          swap2\n          pop\n            /* \"#utility.yul\":5780:6058   */\n          pop\n            /* \"#utility.yul\":5718:6058   */\n          swap3\n          swap2\n          pop\n          pop\n          jump\t// out\n            /* \"#utility.yul\":6064:7043   */\n        tag_37:\n            /* \"#utility.yul\":6161:6167   */\n          0x00\n            /* \"#utility.yul\":6169:6175   */\n          0x00\n            /* \"#utility.yul\":6177:6183   */\n          0x00\n            /* \"#utility.yul\":6226:6228   */\n          0x60\n            /* \"#utility.yul\":6214:6223   */\n          dup5\n            /* \"#utility.yul\":6205:6212   */\n          dup7\n            /* \"#utility.yul\":6201:6224   */\n          sub\n            /* \"#utility.yul\":6197:6229   */\n          slt\n            /* \"#utility.yul\":6194:6313   */\n          iszero\n          tag_184\n          jumpi\n            /* \"#utility.yul\":6232:6311   */\n          tag_185\n          tag_76\n          jump\t// in\n        tag_185:\n            /* \"#utility.yul\":6194:6313   */\n        tag_184:\n            /* \"#utility.yul\":6380:6381   */\n          0x00\n            /* \"#utility.yul\":6369:6378   */\n          dup5\n            /* \"#utility.yul\":6365:6382   */\n          add\n            /* \"#utility.yul\":6352:6383   */\n          calldataload\n            /* \"#utility.yul\":6410:6428   */\n          0xffffffffffffffff\n            /* \"#utility.yul\":6402:6408   */\n          dup2\n            /* \"#utility.yul\":6399:6429   */\n          gt\n            /* \"#utility.yul\":6396:6513   */\n          iszero\n          tag_186\n          jumpi\n            /* \"#utility.yul\":6432:6511   */\n          tag_187\n          tag_77\n          jump\t// in\n        tag_187:\n            /* \"#utility.yul\":6396:6513   */\n        tag_186:\n            /* \"#utility.yul\":6537:6600   */\n          tag_188\n            /* \"#utility.yul\":6592:6599   */\n          dup7\n            /* \"#utility.yul\":6583:6589   */\n          dup3\n            /* \"#utility.yul\":6572:6581   */\n          dup8\n            /* \"#utility.yul\":6568:6590   */\n          add\n            /* \"#utility.yul\":6537:6600   */\n          tag_90\n          jump\t// in\n        tag_188:\n            /* \"#utility.yul\":6527:6600   */\n          swap4\n          pop\n            /* \"#utility.yul\":6323:6610   */\n          pop\n            /* \"#utility.yul\":6677:6679   */\n          0x20\n            /* \"#utility.yul\":6666:6675   */\n          dup5\n            /* \"#utility.yul\":6662:6680   */\n          add\n            /* \"#utility.yul\":6649:6681   */\n          calldataload\n            /* \"#utility.yul\":6708:6726   */\n          0xffffffffffffffff\n            /* \"#utility.yul\":6700:6706   */\n          dup2\n            /* \"#utility.yul\":6697:6727   */\n          gt\n            /* \"#utility.yul\":6694:6811   */\n          iszero\n          tag_189\n          jumpi\n            /* \"#utility.yul\":6730:6809   */\n          tag_190\n          tag_77\n          jump\t// in\n        tag_190:\n            /* \"#utility.yul\":6694:6811   */\n        tag_189:\n            /* \"#utility.yul\":6835:6898   */\n          tag_191\n            /* \"#utility.yul\":6890:6897   */\n          dup7\n            /* \"#utility.yul\":6881:6887   */\n          dup3\n            /* \"#utility.yul\":6870:6879   */\n          dup8\n            /* \"#utility.yul\":6866:6888   */\n          add\n            /* \"#utility.yul\":6835:6898   */\n          tag_90\n          jump\t// in\n        tag_191:\n            /* \"#utility.yul\":6825:6898   */\n          swap3\n          pop\n            /* \"#utility.yul\":6620:6908   */\n          pop\n            /* \"#utility.yul\":6947:6949   */\n          0x40\n            /* \"#utility.yul\":6973:7026   */\n          tag_192\n            /* \"#utility.yul\":7018:7025   */\n          dup7\n            /* \"#utility.yul\":7009:7015   */\n          dup3\n            /* \"#utility.yul\":6998:7007   */\n          dup8\n            /* \"#utility.yul\":6994:7016   */\n          add\n            /* \"#utility.yul\":6973:7026   */\n          tag_81\n          jump\t// in\n        tag_192:\n            /* \"#utility.yul\":6963:7026   */\n          swap2\n          pop\n            /* \"#utility.yul\":6918:7036   */\n          pop\n            /* \"#utility.yul\":6064:7043   */\n          swap3\n          pop\n          swap3\n          pop\n          swap3\n          jump\t// out\n            /* \"#utility.yul\":7049:7229   */\n        tag_91:\n            /* \"#utility.yul\":7097:7174   */\n          0x4e487b7100000000000000000000000000000000000000000000000000000000\n            /* \"#utility.yul\":7094:7095   */\n          0x00\n            /* \"#utility.yul\":7087:7175   */\n          mstore\n            /* \"#utility.yul\":7194:7198   */\n          0x22\n            /* \"#utility.yul\":7191:7192   */\n          0x04\n            /* \"#utility.yul\":7184:7199   */\n          mstore\n            /* \"#utility.yul\":7218:7222   */\n          0x24\n            /* \"#utility.yul\":7215:7216   */\n          0x00\n            /* \"#utility.yul\":7208:7223   */\n          revert\n            /* \"#utility.yul\":7235:7555   */\n        tag_40:\n            /* \"#utility.yul\":7279:7285   */\n          0x00\n            /* \"#utility.yul\":7316:7317   */\n          0x02\n            /* \"#utility.yul\":7310:7314   */\n          dup3\n            /* \"#utility.yul\":7306:7318   */\n          div\n            /* \"#utility.yul\":7296:7318   */\n          swap1\n          pop\n            /* \"#utility.yul\":7363:7364   */\n          0x01\n            /* \"#utility.yul\":7357:7361   */\n          dup3\n            /* \"#utility.yul\":7353:7365   */\n          and\n            /* \"#utility.yul\":7384:7402   */\n          dup1\n            /* \"#utility.yul\":7374:7455   */\n          tag_195\n          jumpi\n            /* \"#utility.yul\":7440:7444   */\n          0x7f\n            /* \"#utility.yul\":7432:7438   */\n          dup3\n            /* \"#utility.yul\":7428:7445   */\n          and\n            /* \"#utility.yul\":7418:7445   */\n          swap2\n          pop\n            /* \"#utility.yul\":7374:7455   */\n        tag_195:\n            /* \"#utility.yul\":7502:7504   */\n          0x20\n            /* \"#utility.yul\":7494:7500   */\n          dup3\n            /* \"#utility.yul\":7491:7505   */\n          lt\n            /* \"#utility.yul\":7471:7489   */\n          dup2\n            /* \"#utility.yul\":7468:7506   */\n          sub\n            /* \"#utility.yul\":7465:7549   */\n          tag_196\n          jumpi\n            /* \"#utility.yul\":7521:7539   */\n          tag_197\n          tag_91\n          jump\t// in\n        tag_197:\n            /* \"#utility.yul\":7465:7549   */\n        tag_196:\n            /* \"#utility.yul\":7286:7555   */\n          pop\n            /* \"#utility.yul\":7235:7555   */\n          swap2\n          swap1\n          pop\n          jump\t// out\n            /* \"#utility.yul\":7561:7731   */\n        tag_92:\n            /* \"#utility.yul\":7701:7723   */\n          0x496e73756666696369656e742062616c616e6365000000000000000000000000\n            /* \"#utility.yul\":7697:7698   */\n          0x00\n            /* \"#utility.yul\":7689:7695   */\n          dup3\n            /* \"#utility.yul\":7685:7699   */\n          add\n            /* \"#utility.yul\":7678:7724   */\n          mstore\n            /* \"#utility.yul\":7561:7731   */\n          pop\n          jump\t// out\n            /* \"#utility.yul\":7737:8103   */\n        tag_93:\n            /* \"#utility.yul\":7879:7882   */\n          0x00\n            /* \"#utility.yul\":7900:7967   */\n          tag_200\n            /* \"#utility.yul\":7964:7966   */\n          0x14\n            /* \"#utility.yul\":7959:7962   */\n          dup4\n            /* \"#utility.yul\":7900:7967   */\n          tag_69\n          jump\t// in\n        tag_200:\n            /* \"#utility.yul\":7893:7967   */\n          swap2\n          pop\n            /* \"#utility.yul\":7976:8069   */\n          tag_201\n            /* \"#utility.yul\":8065:8068   */\n          dup3\n            /* \"#utility.yul\":7976:8069   */\n          tag_92\n          jump\t// in\n        tag_201:\n            /* \"#utility.yul\":8094:8096   */\n          0x20\n            /* \"#utility.yul\":8089:8092   */\n          dup3\n            /* \"#utility.yul\":8085:8097   */\n          add\n            /* \"#utility.yul\":8078:8097   */\n          swap1\n          pop\n            /* \"#utility.yul\":7737:8103   */\n          swap2\n          swap1\n          pop\n          jump\t// out\n            /* \"#utility.yul\":8109:8528   */\n        tag_53:\n            /* \"#utility.yul\":8275:8279   */\n          0x00\n            /* \"#utility.yul\":8313:8315   */\n          0x20\n            /* \"#utility.yul\":8302:8311   */\n          dup3\n            /* \"#utility.yul\":8298:8316   */\n          add\n            /* \"#utility.yul\":8290:8316   */\n          swap1\n          pop\n            /* \"#utility.yul\":8362:8371   */\n          dup2\n            /* \"#utility.yul\":8356:8360   */\n          dup2\n            /* \"#utility.yul\":8352:8372   */\n          sub\n            /* \"#utility.yul\":8348:8349   */\n          0x00\n            /* \"#utility.yul\":8337:8346   */\n          dup4\n            /* \"#utility.yul\":8333:8350   */\n          add\n            /* \"#utility.yul\":8326:8373   */\n          mstore\n            /* \"#utility.yul\":8390:8521   */\n          tag_203\n            /* \"#utility.yul\":8516:8520   */\n          dup2\n            /* \"#utility.yul\":8390:8521   */\n          tag_93\n          jump\t// in\n        tag_203:\n            /* \"#utility.yul\":8382:8521   */\n          swap1\n          pop\n            /* \"#utility.yul\":8109:8528   */\n          swap2\n          swap1\n          pop\n          jump\t// out\n            /* \"#utility.yul\":8534:8714   */\n        tag_94:\n            /* \"#utility.yul\":8582:8659   */\n          0x4e487b7100000000000000000000000000000000000000000000000000000000\n            /* \"#utility.yul\":8579:8580   */\n          0x00\n            /* \"#utility.yul\":8572:8660   */\n          mstore\n            /* \"#utility.yul\":8679:8683   */\n          0x11\n            /* \"#utility.yul\":8676:8677   */\n          0x04\n            /* \"#utility.yul\":8669:8684   */\n          mstore\n            /* \"#utility.yul\":8703:8707   */\n          0x24\n            /* \"#utility.yul\":8700:8701   */\n          0x00\n            /* \"#utility.yul\":8693:8708   */\n          revert\n            /* \"#utility.yul\":8720:8914   */\n        tag_55:\n            /* \"#utility.yul\":8760:8764   */\n          0x00\n            /* \"#utility.yul\":8780:8800   */\n          tag_206\n            /* \"#utility.yul\":8798:8799   */\n          dup3\n            /* \"#utility.yul\":8780:8800   */\n          tag_73\n          jump\t// in\n        tag_206:\n            /* \"#utility.yul\":8775:8800   */\n          swap2\n          pop\n            /* \"#utility.yul\":8814:8834   */\n          tag_207\n            /* \"#utility.yul\":8832:8833   */\n          dup4\n            /* \"#utility.yul\":8814:8834   */\n          tag_73\n          jump\t// in\n        tag_207:\n            /* \"#utility.yul\":8809:8834   */\n          swap3\n          pop\n            /* \"#utility.yul\":8858:8859   */\n          dup3\n            /* \"#utility.yul\":8855:8856   */\n          dup3\n            /* \"#utility.yul\":8851:8860   */\n          sub\n            /* \"#utility.yul\":8843:8860   */\n          swap1\n          pop\n            /* \"#utility.yul\":8882:8883   */\n          dup2\n            /* \"#utility.yul\":8876:8880   */\n          dup2\n            /* \"#utility.yul\":8873:8884   */\n          gt\n            /* \"#utility.yul\":8870:8907   */\n          iszero\n          tag_208\n          jumpi\n            /* \"#utility.yul\":8887:8905   */\n          tag_209\n          tag_94\n          jump\t// in\n        tag_209:\n            /* \"#utility.yul\":8870:8907   */\n        tag_208:\n            /* \"#utility.yul\":8720:8914   */\n          swap3\n          swap2\n          pop\n          pop\n          jump\t// out\n            /* \"#utility.yul\":8920:9111   */\n        tag_57:\n            /* \"#utility.yul\":8960:8963   */\n          0x00\n            /* \"#utility.yul\":8979:8999   */\n          tag_211\n            /* \"#utility.yul\":8997:8998   */\n          dup3\n            /* \"#utility.yul\":8979:8999   */\n          tag_73\n          jump\t// in\n        tag_211:\n            /* \"#utility.yul\":8974:8999   */\n          swap2\n          pop\n            /* \"#utility.yul\":9013:9033   */\n          tag_212\n            /* \"#utility.yul\":9031:9032   */\n          dup4\n            /* \"#utility.yul\":9013:9033   */\n          tag_73\n          jump\t// in\n        tag_212:\n            /* \"#utility.yul\":9008:9033   */\n          swap3\n          pop\n            /* \"#utility.yul\":9056:9057   */\n          dup3\n            /* \"#utility.yul\":9053:9054   */\n          dup3\n            /* \"#utility.yul\":9049:9058   */\n          add\n            /* \"#utility.yul\":9042:9058   */\n          swap1\n          pop\n            /* \"#utility.yul\":9077:9080   */\n          dup1\n            /* \"#utility.yul\":9074:9075   */\n          dup3\n            /* \"#utility.yul\":9071:9081   */\n          gt\n            /* \"#utility.yul\":9068:9104   */\n          iszero\n          tag_213\n          jumpi\n            /* \"#utility.yul\":9084:9102   */\n          tag_214\n          tag_94\n          jump\t// in\n        tag_214:\n            /* \"#utility.yul\":9068:9104   */\n        tag_213:\n            /* \"#utility.yul\":8920:9111   */\n          swap3\n          swap2\n          pop\n          pop\n          jump\t// out\n            /* \"#utility.yul\":9117:9286   */\n        tag_95:\n            /* \"#utility.yul\":9257:9278   */\n          0x416c726561647920696e697469616c697a656400000000000000000000000000\n            /* \"#utility.yul\":9253:9254   */\n          0x00\n            /* \"#utility.yul\":9245:9251   */\n          dup3\n            /* \"#utility.yul\":9241:9255   */\n          add\n            /* \"#utility.yul\":9234:9279   */\n          mstore\n            /* \"#utility.yul\":9117:9286   */\n          pop\n          jump\t// out\n            /* \"#utility.yul\":9292:9658   */\n        tag_96:\n            /* \"#utility.yul\":9434:9437   */\n          0x00\n            /* \"#utility.yul\":9455:9522   */\n          tag_217\n            /* \"#utility.yul\":9519:9521   */\n          0x13\n            /* \"#utility.yul\":9514:9517   */\n          dup4\n            /* \"#utility.yul\":9455:9522   */\n          tag_69\n          jump\t// in\n        tag_217:\n            /* \"#utility.yul\":9448:9522   */\n          swap2\n          pop\n            /* \"#utility.yul\":9531:9624   */\n          tag_218\n            /* \"#utility.yul\":9620:9623   */\n          dup3\n            /* \"#utility.yul\":9531:9624   */\n          tag_95\n          jump\t// in\n        tag_218:\n            /* \"#utility.yul\":9649:9651   */\n          0x20\n            /* \"#utility.yul\":9644:9647   */\n          dup3\n            /* \"#utility.yul\":9640:9652   */\n          add\n            /* \"#utility.yul\":9633:9652   */\n          swap1\n          pop\n            /* \"#utility.yul\":9292:9658   */\n          swap2\n          swap1\n          pop\n          jump\t// out\n            /* \"#utility.yul\":9664:10083   */\n        tag_61:\n            /* \"#utility.yul\":9830:9834   */\n          0x00\n            /* \"#utility.yul\":9868:9870   */\n          0x20\n            /* \"#utility.yul\":9857:9866   */\n          dup3\n            /* \"#utility.yul\":9853:9871   */\n          add\n            /* \"#utility.yul\":9845:9871   */\n          swap1\n          pop\n            /* \"#utility.yul\":9917:9926   */\n          dup2\n            /* \"#utility.yul\":9911:9915   */\n          dup2\n            /* \"#utility.yul\":9907:9927   */\n          sub\n            /* \"#utility.yul\":9903:9904   */\n          0x00\n            /* \"#utility.yul\":9892:9901   */\n          dup4\n            /* \"#utility.yul\":9888:9905   */\n          add\n            /* \"#utility.yul\":9881:9928   */\n          mstore\n            /* \"#utility.yul\":9945:10076   */\n          tag_220\n            /* \"#utility.yul\":10071:10075   */\n          dup2\n            /* \"#utility.yul\":9945:10076   */\n          tag_96\n          jump\t// in\n        tag_220:\n            /* \"#utility.yul\":9937:10076   */\n          swap1\n          pop\n            /* \"#utility.yul\":9664:10083   */\n          swap2\n          swap1\n          pop\n          jump\t// out\n            /* \"#utility.yul\":10089:10230   */\n        tag_97:\n            /* \"#utility.yul\":10138:10142   */\n          0x00\n            /* \"#utility.yul\":10161:10164   */\n          dup2\n            /* \"#utility.yul\":10153:10164   */\n          swap1\n          pop\n            /* \"#utility.yul\":10184:10187   */\n          dup2\n            /* \"#utility.yul\":10181:10182   */\n          0x00\n            /* \"#utility.yul\":10174:10188   */\n          mstore\n            /* \"#utility.yul\":10218:10222   */\n          0x20\n            /* \"#utility.yul\":10215:10216   */\n          0x00\n            /* \"#utility.yul\":10205:10223   */\n          keccak256\n            /* \"#utility.yul\":10197:10223   */\n          swap1\n          pop\n            /* \"#utility.yul\":10089:10230   */\n          swap2\n          swap1\n          pop\n          jump\t// out\n            /* \"#utility.yul\":10236:10329   */\n        tag_98:\n            /* \"#utility.yul\":10273:10279   */\n          0x00\n            /* \"#utility.yul\":10320:10322   */\n          0x20\n            /* \"#utility.yul\":10315:10317   */\n          0x1f\n            /* \"#utility.yul\":10308:10313   */\n          dup4\n            /* \"#utility.yul\":10304:10318   */\n          add\n            /* \"#utility.yul\":10300:10323   */\n          div\n            /* \"#utility.yul\":10290:10323   */\n          swap1\n          pop\n            /* \"#utility.yul\":10236:10329   */\n          swap2\n          swap1\n          pop\n          jump\t// out\n            /* \"#utility.yul\":10335:10442   */\n        tag_99:\n            /* \"#utility.yul\":10379:10387   */\n          0x00\n            /* \"#utility.yul\":10429:10434   */\n          dup3\n            /* \"#utility.yul\":10423:10427   */\n          dup3\n            /* \"#utility.yul\":10419:10435   */\n          shl\n            /* \"#utility.yul\":10398:10435   */\n          swap1\n          pop\n            /* \"#utility.yul\":10335:10442   */\n          swap3\n          swap2\n          pop\n          pop\n          jump\t// out\n            /* \"#utility.yul\":10448:10841   */\n        tag_100:\n            /* \"#utility.yul\":10517:10523   */\n          0x00\n            /* \"#utility.yul\":10567:10568   */\n          0x08\n            /* \"#utility.yul\":10555:10565   */\n          dup4\n            /* \"#utility.yul\":10551:10569   */\n          mul\n            /* \"#utility.yul\":10590:10687   */\n          tag_225\n            /* \"#utility.yul\":10620:10686   */\n          0xffffffffffffffffffffffffffffffffffffffffffffffffffffffffffffffff\n            /* \"#utility.yul\":10609:10618   */\n          dup3\n            /* \"#utility.yul\":10590:10687   */\n          tag_99\n          jump\t// in\n        tag_225:\n            /* \"#utility.yul\":10708:10747   */\n          tag_226\n            /* \"#utility.yul\":10738:10746   */\n          dup7\n            /* \"#utility.yul\":10727:10736   */\n          dup4\n            /* \"#utility.yul\":10708:10747   */\n          tag_99\n          jump\t// in\n        tag_226:\n            /* \"#utility.yul\":10696:10747   */\n          swap6\n          pop\n            /* \"#utility.yul\":10780:10784   */\n          dup1\n            /* \"#utility.yul\":10776:10785   */\n          not\n            /* \"#utility.yul\":10769:10774   */\n          dup5\n            /* \"#utility.yul\":10765:10786   */\n          and\n            /* \"#utility.yul\":10756:10786   */\n          swap4\n          pop\n            /* \"#utility.yul\":10829:10833   */\n          dup1\n            /* \"#utility.yul\":10819:10827   */\n          dup7\n            /* \"#utility.yul\":10815:10834   */\n          and\n            /* \"#utility.yul\":10808:10813   */\n          dup5\n            /* \"#utility.yul\":10805:10835   */\n          or\n            /* \"#utility.yul\":10795:10835   */\n          swap3\n          pop\n            /* \"#utility.yul\":10524:10841   */\n          pop\n          pop\n            /* \"#utility.yul\":10448:10841   */\n          swap4\n          swap3\n          pop\n          pop\n          pop\n          jump\t// out\n            /* \"#utility.yul\":10847:10907   */\n        tag_101:\n            /* \"#utility.yul\":10875:10878   */\n          0x00\n            /* \"#utility.yul\":10896:10901   */\n          dup2\n            /* \"#utility.yul\":10889:10901   */\n          swap1\n          pop\n            /* \"#utility.yul\":10847:10907   */\n          swap2\n          swap1\n          pop\n          jump\t// out\n            /* \"#utility.yul\":10913:11055   */\n        tag_102:\n            /* \"#utility.yul\":10963:10972   */\n          0x00\n            /* \"#utility.yul\":10996:11049   */\n          tag_229\n            /* \"#utility.yul\":11014:11048   */\n          tag_230\n            /* \"#utility.yul\":11023:11047   */\n          tag_231\n            /* \"#utility.yul\":11041:11046   */\n          dup5\n            /* \"#utility.yul\":11023:11047   */\n          tag_73\n          jump\t// in\n        tag_231:\n            /* \"#utility.yul\":11014:11048   */\n          tag_101\n          jump\t// in\n        tag_230:\n            /* \"#utility.yul\":10996:11049   */\n          tag_73\n          jump\t// in\n        tag_229:\n            /* \"#utility.yul\":10983:11049   */\n          swap1\n          pop\n            /* \"#utility.yul\":10913:11055   */\n          swap2\n          swap1\n          pop\n          jump\t// out\n            /* \"#utility.yul\":11061:11136   */\n        tag_103:\n            /* \"#utility.yul\":11104:11107   */\n          0x00\n            /* \"#utility.yul\":11125:11130   */\n          dup2\n            /* \"#utility.yul\":11118:11130   */\n          swap1\n          pop\n            /* \"#utility.yul\":11061:11136   */\n          swap2\n          swap1\n          pop\n          jump\t// out\n            /* \"#utility.yul\":11142:11411   */\n        tag_104:\n            /* \"#utility.yul\":11252:11291   */\n          tag_234\n            /* \"#utility.yul\":11283:11290   */\n          dup4\n            /* \"#utility.yul\":11252:11291   */\n          tag_102\n          jump\t// in\n        tag_234:\n            /* \"#utility.yul\":11313:11404   */\n          tag_235\n            /* \"#utility.yul\":11362:11403   */\n          tag_236\n            /* \"#utility.yul\":11386:11402   */\n          dup3\n            /* \"#utility.yul\":11362:11403   */\n          tag_103\n          jump\t// in\n        tag_236:\n            /* \"#utility.yul\":11354:11360   */\n          dup5\n            /* \"#utility.yul\":11347:11351   */\n          dup5\n            /* \"#utility.yul\":11341:11352   */\n          sload\n            /* \"#utility.yul\":11313:11404   */\n          tag_100\n          jump\t// in\n        tag_235:\n            /* \"#utility.yul\":11307:11311   */\n          dup3\n            /* \"#utility.yul\":11300:11405   */\n          sstore\n            /* \"#utility.yul\":11218:11411   */\n          pop\n            /* \"#utility.yul\":11142:11411   */\n          pop\n          pop\n          pop\n          jump\t// out\n            /* \"#utility.yul\":11417:11490   */\n        tag_105:\n            /* \"#utility.yul\":11462:11465   */\n          0x00\n            /* \"#utility.yul\":11483:11484   */\n          0x00\n            /* \"#utility.yul\":11476:11484   */\n          swap1\n          pop\n            /* \"#utility.yul\":11417:11490   */\n          swap1\n          jump\t// out\n            /* \"#utility.yul\":11496:11685   */\n        tag_106:\n            /* \"#utility.yul\":11573:11605   */\n          tag_239\n          tag_105\n          jump\t// in\n        tag_239:\n            /* \"#utility.yul\":11614:11679   */\n          tag_240\n            /* \"#utility.yul\":11672:11678   */\n          dup2\n            /* \"#utility.yul\":11664:11670   */\n          dup5\n            /* \"#utility.yul\":11658:11662   */\n          dup5\n            /* \"#utility.yul\":11614:11679   */\n          tag_104\n          jump\t// in\n        tag_240:\n            /* \"#utility.yul\":11549:11685   */\n          pop\n            /* \"#utility.yul\":11496:11685   */\n          pop\n          pop\n          jump\t// out\n            /* \"#utility.yul\":11691:11877   */\n        tag_107:\n            /* \"#utility.yul\":11751:11871   */\n        tag_242:\n            /* \"#utility.yul\":11768:11771   */\n          dup2\n            /* \"#utility.yul\":11761:11766   */\n          dup2\n            /* \"#utility.yul\":11758:11772   */\n          lt\n            /* \"#utility.yul\":11751:11871   */\n          iszero\n          tag_244\n          jumpi\n            /* \"#utility.yul\":11822:11861   */\n          tag_245\n            /* \"#utility.yul\":11859:11860   */\n          0x00\n            /* \"#utility.yul\":11852:11857   */\n          dup3\n            /* \"#utility.yul\":11822:11861   */\n          tag_106\n          jump\t// in\n        tag_245:\n            /* \"#utility.yul\":11795:11796   */\n          0x01\n            /* \"#utility.yul\":11788:11793   */\n          dup2\n            /* \"#utility.yul\":11784:11797   */\n          add\n            /* \"#utility.yul\":11775:11797   */\n          swap1\n          pop\n            /* \"#utility.yul\":11751:11871   */\n          jump(tag_242)\n        tag_244:\n            /* \"#utility.yul\":11691:11877   */\n          pop\n          pop\n          jump\t// out\n            /* \"#utility.yul\":11883:12426   */\n        tag_108:\n            /* \"#utility.yul\":11984:11986   */\n          0x1f\n            /* \"#utility.yul\":11979:11982   */\n          dup3\n            /* \"#utility.yul\":11976:11987   */\n          gt\n            /* \"#utility.yul\":11973:12419   */\n          iszero\n          tag_247\n          jumpi\n            /* \"#utility.yul\":12018:12056   */\n          tag_248\n            /* \"#utility.yul\":12050:12055   */\n          dup2\n            /* \"#utility.yul\":12018:12056   */\n          tag_97\n          jump\t// in\n        tag_248:\n            /* \"#utility.yul\":12102:12131   */\n          tag_249\n            /* \"#utility.yul\":12120:12130   */\n          dup5\n            /* \"#utility.yul\":12102:12131   */\n          tag_98\n          jump\t// in\n        tag_249:\n            /* \"#utility.yul\":12092:12100   */\n          dup2\n            /* \"#utility.yul\":12088:12132   */\n          add\n            /* \"#utility.yul\":12285:12287   */\n          0x20\n            /* \"#utility.yul\":12273:12283   */\n          dup6\n            /* \"#utility.yul\":12270:12288   */\n          lt\n            /* \"#utility.yul\":12267:12316   */\n          iszero\n          tag_250\n          jumpi\n            /* \"#utility.yul\":12306:12314   */\n          dup2\n            /* \"#utility.yul\":12291:12314   */\n          swap1\n          pop\n            /* \"#utility.yul\":12267:12316   */\n        tag_250:\n            /* \"#utility.yul\":12329:12409   */\n          tag_251\n            /* \"#utility.yul\":12385:12407   */\n          tag_252\n            /* \"#utility.yul\":12403:12406   */\n          dup6\n            /* \"#utility.yul\":12385:12407   */\n          tag_98\n          jump\t// in\n        tag_252:\n            /* \"#utility.yul\":12375:12383   */\n          dup4\n            /* \"#utility.yul\":12371:12408   */\n          add\n            /* \"#utility.yul\":12358:12369   */\n          dup3\n            /* \"#utility.yul\":12329:12409   */\n          tag_107\n          jump\t// in\n        tag_251:\n            /* \"#utility.yul\":11988:12419   */\n          pop\n          pop\n            /* \"#utility.yul\":11973:12419   */\n        tag_247:\n            /* \"#utility.yul\":11883:12426   */\n          pop\n          pop\n          pop\n          jump\t// out\n            /* \"#utility.yul\":12432:12549   */\n        tag_109:\n            /* \"#utility.yul\":12486:12494   */\n          0x00\n            /* \"#utility.yul\":12536:12541   */\n          dup3\n            /* \"#utility.yul\":12530:12534   */\n          dup3\n            /* \"#utility.yul\":12526:12542   */\n          shr\n            /* \"#utility.yul\":12505:12542   */\n          swap1\n          pop\n            /* \"#utility.yul\":12432:12549   */\n          swap3\n          swap2\n          pop\n          pop\n          jump\t// out\n            /* \"#utility.yul\":12555:12724   */\n        tag_110:\n            /* \"#utility.yul\":12599:12605   */\n          0x00\n            /* \"#utility.yul\":12632:12683   */\n          tag_255\n            /* \"#utility.yul\":12680:12681   */\n          0x00\n            /* \"#utility.yul\":12676:12682   */\n          not\n            /* \"#utility.yul\":12668:12673   */\n          dup5\n            /* \"#utility.yul\":12665:12666   */\n          0x08\n            /* \"#utility.yul\":12661:12674   */\n          mul\n            /* \"#utility.yul\":12632:12683   */\n          tag_109\n          jump\t// in\n        tag_255:\n            /* \"#utility.yul\":12628:12684   */\n          not\n            /* \"#utility.yul\":12713:12717   */\n          dup1\n            /* \"#utility.yul\":12707:12711   */\n          dup4\n            /* \"#utility.yul\":12703:12718   */\n          and\n            /* \"#utility.yul\":12693:12718   */\n          swap2\n          pop\n            /* \"#utility.yul\":12606:12724   */\n          pop\n            /* \"#utility.yul\":12555:12724   */\n          swap3\n          swap2\n          pop\n          pop\n          jump\t// out\n            /* \"#utility.yul\":12729:13024   */\n        tag_111:\n            /* \"#utility.yul\":12805:12809   */\n          0x00\n            /* \"#utility.yul\":12951:12980   */\n          tag_257\n            /* \"#utility.yul\":12976:12979   */\n          dup4\n            /* \"#utility.yul\":12970:12974   */\n          dup4\n            /* \"#utility.yul\":12951:12980   */\n          tag_110\n          jump\t// in\n        tag_257:\n            /* \"#utility.yul\":12943:12980   */\n          swap2\n          pop\n            /* \"#utility.yul\":13013:13016   */\n          dup3\n            /* \"#utility.yul\":13010:13011   */\n          0x02\n            /* \"#utility.yul\":13006:13017   */\n          mul\n            /* \"#utility.yul\":13000:13004   */\n          dup3\n            /* \"#utility.yul\":12997:13018   */\n          or\n            /* \"#utility.yul\":12989:13018   */\n          swap1\n          pop\n            /* \"#utility.yul\":12729:13024   */\n          swap3\n          swap2\n          pop\n          pop\n          jump\t// out\n            /* \"#utility.yul\":13029:14424   */\n        tag_63:\n            /* \"#utility.yul\":13146:13183   */\n          tag_259\n            /* \"#utility.yul\":13179:13182   */\n          dup3\n            /* \"#utility.yul\":13146:13183   */\n          tag_68\n          jump\t// in\n        tag_259:\n            /* \"#utility.yul\":13248:13266   */\n          0xffffffffffffffff\n            /* \"#utility.yul\":13240:13246   */\n          dup2\n            /* \"#utility.yul\":13237:13267   */\n          gt\n            /* \"#utility.yul\":13234:13290   */\n          iszero\n          tag_260\n          jumpi\n            /* \"#utility.yul\":13270:13288   */\n          tag_261\n          tag_84\n          jump\t// in\n        tag_261:\n            /* \"#utility.yul\":13234:13290   */\n        tag_260:\n            /* \"#utility.yul\":13314:13352   */\n          tag_262\n            /* \"#utility.yul\":13346:13350   */\n          dup3\n            /* \"#utility.yul\":13340:13351   */\n          sload\n            /* \"#utility.yul\":13314:13352   */\n          tag_40\n          jump\t// in\n        tag_262:\n            /* \"#utility.yul\":13399:13466   */\n          tag_263\n            /* \"#utility.yul\":13459:13465   */\n          dup3\n            /* \"#utility.yul\":13451:13457   */\n          dup3\n            /* \"#utility.yul\":13445:13449   */\n          dup6\n            /* \"#utility.yul\":13399:13466   */\n          tag_108\n          jump\t// in\n        tag_263:\n            /* \"#utility.yul\":13493:13494   */\n          0x00\n            /* \"#utility.yul\":13517:13521   */\n          0x20\n            /* \"#utility.yul\":13504:13521   */\n          swap1\n          pop\n            /* \"#utility.yul\":13549:13551   */\n          0x1f\n            /* \"#utility.yul\":13541:13547   */\n          dup4\n            /* \"#utility.yul\":13538:13552   */\n          gt\n            /* \"#utility.yul\":13566:13567   */\n          0x01\n            /* \"#utility.yul\":13561:14179   */\n          dup2\n          eq\n          tag_265\n          jumpi\n            /* \"#utility.yul\":14223:14224   */\n          0x00\n            /* \"#utility.yul\":14240:14246   */\n          dup5\n            /* \"#utility.yul\":14237:14314   */\n          iszero\n          tag_266\n          jumpi\n            /* \"#utility.yul\":14289:14298   */\n          dup3\n            /* \"#utility.yul\":14284:14287   */\n          dup8\n            /* \"#utility.yul\":14280:14299   */\n          add\n            /* \"#utility.yul\":14274:14300   */\n          mload\n            /* \"#utility.yul\":14265:14300   */\n          swap1\n          pop\n            /* \"#utility.yul\":14237:14314   */\n        tag_266:\n            /* \"#utility.yul\":14340:14407   */\n          tag_267\n            /* \"#utility.yul\":14400:14406   */\n          dup6\n            /* \"#utility.yul\":14393:14398   */\n          dup3\n            /* \"#utility.yul\":14340:14407   */\n          tag_111\n          jump\t// in\n        tag_267:\n            /* \"#utility.yul\":14334:14338   */\n          dup7\n            /* \"#utility.yul\":14327:14408   */\n          sstore\n            /* \"#utility.yul\":14196:14418   */\n          pop\n            /* \"#utility.yul\":13531:14418   */\n          jump(tag_264)\n            /* \"#utility.yul\":13561:14179   */\n        tag_265:\n            /* \"#utility.yul\":13613:13617   */\n          0x1f\n            /* \"#utility.yul\":13609:13618   */\n          not\n            /* \"#utility.yul\":13601:13607   */\n          dup5\n            /* \"#utility.yul\":13597:13619   */\n          and\n            /* \"#utility.yul\":13647:13684   */\n          tag_268\n            /* \"#utility.yul\":13679:13683   */\n          dup7\n            /* \"#utility.yul\":13647:13684   */\n          tag_97\n          jump\t// in\n        tag_268:\n            /* \"#utility.yul\":13706:13707   */\n          0x00\n            /* \"#utility.yul\":13720:13928   */\n        tag_269:\n            /* \"#utility.yul\":13734:13741   */\n          dup3\n            /* \"#utility.yul\":13731:13732   */\n          dup2\n            /* \"#utility.yul\":13728:13742   */\n          lt\n            /* \"#utility.yul\":13720:13928   */\n          iszero\n          tag_271\n          jumpi\n            /* \"#utility.yul\":13813:13822   */\n          dup5\n            /* \"#utility.yul\":13808:13811   */\n          dup10\n            /* \"#utility.yul\":13804:13823   */\n          add\n            /* \"#utility.yul\":13798:13824   */\n          mload\n            /* \"#utility.yul\":13790:13796   */\n          dup3\n            /* \"#utility.yul\":13783:13825   */\n          sstore\n            /* \"#utility.yul\":13864:13865   */\n          0x01\n            /* \"#utility.yul\":13856:13862   */\n          dup3\n            /* \"#utility.yul\":13852:13866   */\n          add\n            /* \"#utility.yul\":13842:13866   */\n          swap2\n          pop\n            /* \"#utility.yul\":13911:13913   */\n          0x20\n            /* \"#utility.yul\":13900:13909   */\n          dup6\n            /* \"#utility.yul\":13896:13914   */\n          add\n            /* \"#utility.yul\":13883:13914   */\n          swap5\n          pop\n            /* \"#utility.yul\":13757:13761   */\n          0x20\n            /* \"#utility.yul\":13754:13755   */\n          dup2\n            /* \"#utility.yul\":13750:13762   */\n          add\n            /* \"#utility.yul\":13745:13762   */\n          swap1\n          pop\n            /* \"#utility.yul\":13720:13928   */\n          jump(tag_269)\n        tag_271:\n            /* \"#utility.yul\":13956:13962   */\n          dup7\n            /* \"#utility.yul\":13947:13954   */\n          dup4\n            /* \"#utility.yul\":13944:13963   */\n          lt\n            /* \"#utility.yul\":13941:14120   */\n          iszero\n          tag_272\n          jumpi\n            /* \"#utility.yul\":14014:14023   */\n          dup5\n            /* \"#utility.yul\":14009:14012   */\n          dup10\n            /* \"#utility.yul\":14005:14024   */\n          add\n            /* \"#utility.yul\":13999:14025   */\n          mload\n            /* \"#utility.yul\":14057:14105   */\n          tag_273\n            /* \"#utility.yul\":14099:14103   */\n          0x1f\n            /* \"#utility.yul\":14091:14097   */\n          dup10\n            /* \"#utility.yul\":14087:14104   */\n          and\n            /* \"#utility.yul\":14076:14085   */\n          dup3\n            /* \"#utility.yul\":14057:14105   */\n          tag_110\n          jump\t// in\n        tag_273:\n            /* \"#utility.yul\":14049:14055   */\n          dup4\n            /* \"#utility.yul\":14042:14106   */\n          sstore\n            /* \"#utility.yul\":13964:14120   */\n          pop\n            /* \"#utility.yul\":13941:14120   */\n        tag_272:\n            /* \"#utility.yul\":14166:14167   */\n          0x01\n            /* \"#utility.yul\":14162:14163   */\n          0x02\n            /* \"#utility.yul\":14154:14160   */\n          dup9\n            /* \"#utility.yul\":14150:14164   */\n          mul\n            /* \"#utility.yul\":14146:14168   */\n          add\n            /* \"#utility.yul\":14140:14144   */\n          dup9\n            /* \"#utility.yul\":14133:14169   */\n          sstore\n            /* \"#utility.yul\":13568:14179   */\n          pop\n          pop\n          pop\n            /* \"#utility.yul\":13531:14418   */\n        tag_264:\n          pop\n            /* \"#utility.yul\":13121:14424   */\n          pop\n          pop\n          pop\n            /* \"#utility.yul\":13029:14424   */\n          pop\n          pop\n          jump\t// out\n\n        auxdata: 0xa26469706673582212209b2118ddfd1bb7949cc49a0f9ae21a0d15c6c81b75c78a7f9fcae90b88920b8864736f6c634300081e0033\n    }\n}\n",
				"bytecode": {
					"linkReferences": {},
					"object": "6080604052348015600e575f5ffd5b506040516019906074565b604051809103905ff0801580156031573d5f5f3e3d5ffd5b505f5f6101000a81548173ffffffffffffffffffffffffffffffffffffffff021916908373ffffffffffffffffffffffffffffffffffffffff1602179055506081565b610d38806109c683390190565b6109388061008e5f395ff3fe608060405234801561000f575f5ffd5b506004361061004a575f3560e01c80630e0399161461004e578063175453e01461007e5780635c60da1b146100ae578063869ac8cc146100cc575b5f5ffd5b61006860048036038101906100639190610443565b6100fc565b60405161007591906104ad565b60405180910390f35b61009860048036038101906100939190610602565b610137565b6040516100a591906104ad565b60405180910390f35b6100b661034c565b6040516100c391906104ad565b60405180910390f35b6100e660048036038101906100e191906106b4565b610370565b6040516100f391906104ad565b60405180910390f35b6001818154811061010b575f80fd5b905f5260205f20015f915054906101000a900473ffffffffffffffffffffffffffffffffffffffff1681565b5f5f6101416103b8565b90505f3360018054905060405160200161015c929190610757565b6040516020818303038152906040528051906020012090505f818351602085015ff590508073ffffffffffffffffffffffffffffffffffffffff1663b119490e8888886040518463ffffffff1660e01b81526004016101bd939291906107f1565b5f604051808303815f87803b1580156101d4575f5ffd5b505af11580156101e6573d5f5f3e3d5ffd5b50505050600181908060018154018082558091505060019003905f5260205f20015f9091909190916101000a81548173ffffffffffffffffffffffffffffffffffffffff021916908373ffffffffffffffffffffffffffffffffffffffff16021790555060025f3373ffffffffffffffffffffffffffffffffffffffff1673ffffffffffffffffffffffffffffffffffffffff1681526020019081526020015f2081908060018154018082558091505060019003905f5260205f20015f9091909190916101000a81548173ffffffffffffffffffffffffffffffffffffffff021916908373ffffffffffffffffffffffffffffffffffffffff1602179055503373ffffffffffffffffffffffffffffffffffffffff168173ffffffffffffffffffffffffffffffffffffffff167f3d2b821286d97aa9d35330d87a82f7b548b9737b10e2d1ba59994edfd50e9d2b60405160405180910390a38093505050509392505050565b5f5f9054906101000a900473ffffffffffffffffffffffffffffffffffffffff1681565b6002602052815f5260405f208181548110610389575f80fd5b905f5260205f20015f915091509054906101000a900473ffffffffffffffffffffffffffffffffffffffff1681565b60605f5f9054906101000a900473ffffffffffffffffffffffffffffffffffffffff166040516020016103eb91906108d2565b604051602081830303815290604052905090565b5f604051905090565b5f5ffd5b5f5ffd5b5f819050919050565b61042281610410565b811461042c575f5ffd5b50565b5f8135905061043d81610419565b92915050565b5f6020828403121561045857610457610408565b5b5f6104658482850161042f565b91505092915050565b5f73ffffffffffffffffffffffffffffffffffffffff82169050919050565b5f6104978261046e565b9050919050565b6104a78161048d565b82525050565b5f6020820190506104c05f83018461049e565b92915050565b5f5ffd5b5f5ffd5b5f601f19601f8301169050919050565b7f4e487b71000000000000000000000000000000000000000000000000000000005f52604160045260245ffd5b610514826104ce565b810181811067ffffffffffffffff82111715610533576105326104de565b5b80604052505050565b5f6105456103ff565b9050610551828261050b565b919050565b5f67ffffffffffffffff8211156105705761056f6104de565b5b610579826104ce565b9050602081019050919050565b828183375f83830152505050565b5f6105a66105a184610556565b61053c565b9050828152602081018484840111156105c2576105c16104ca565b5b6105cd848285610586565b509392505050565b5f82601f8301126105e9576105e86104c6565b5b81356105f9848260208601610594565b91505092915050565b5f5f5f6060848603121561061957610618610408565b5b5f84013567ffffffffffffffff8111156106365761063561040c565b5b610642868287016105d5565b935050602084013567ffffffffffffffff8111156106635761066261040c565b5b61066f868287016105d5565b92505060406106808682870161042f565b9150509250925092565b6106938161048d565b811461069d575f5ffd5b50565b5f813590506106ae8161068a565b92915050565b5f5f604083850312156106ca576106c9610408565b5b5f6106d7858286016106a0565b92505060206106e88582860161042f565b9150509250929050565b5f8160601b9050919050565b5f610708826106f2565b9050919050565b5f610719826106fe565b9050919050565b61073161072c8261048d565b61070f565b82525050565b5f819050919050565b61075161074c82610410565b610737565b82525050565b5f6107628285610720565b6014820191506107728284610740565b6020820191508190509392505050565b5f81519050919050565b5f82825260208201905092915050565b8281835e5f83830152505050565b5f6107b482610782565b6107be818561078c565b93506107ce81856020860161079c565b6107d7816104ce565b840191505092915050565b6107eb81610410565b82525050565b5f6060820190508181035f83015261080981866107aa565b9050818103602083015261081d81856107aa565b905061082c60408301846107e2565b949350505050565b5f81905092915050565b7f3d602d80600a3d3981f3363d3d373d3d3d363d730000000000000000000000005f82015250565b5f610872601483610834565b915061087d8261083e565b601482019050919050565b7f5af43d82803e903d91602b57fd5bf300000000000000000000000000000000005f82015250565b5f6108bc600f83610834565b91506108c782610888565b600f82019050919050565b5f6108dc82610866565b91506108e88284610720565b6014820191506108f7826108b0565b91508190509291505056fea2646970667358221220dcd14c58781304a30954affca867d046bfe028b6637a330ad5e0734a29a0b1ca64736f6c634300081e00336080604052348015600e575f5ffd5b50610d1c8061001c5f395ff3fe608060405234801561000f575f5ffd5b506004361061007b575f3560e01c806327e235e31161005957806327e235e3146100d957806395d89b4114610109578063a9059cbb14610127578063b119490e146101435761007b565b806302d05d3f1461007f57806306fdde031461009d57806318160ddd146100bb575b5f5ffd5b61008761015f565b604051610094919061055b565b60405180910390f35b6100a5610184565b6040516100b291906105e4565b60405180910390f35b6100c361020f565b6040516100d0919061061c565b60405180910390f35b6100f360048036038101906100ee9190610670565b610215565b604051610100919061061c565b60405180910390f35b61011161022a565b60405161011e91906105e4565b60405180910390f35b610141600480360381019061013c91906106c5565b6102b6565b005b61015d6004803603810190610158919061082f565b6103e0565b005b60025f9054906101000a900473ffffffffffffffffffffffffffffffffffffffff1681565b5f8054610190906108e4565b80601f01602080910402602001604051908101604052809291908181526020018280546101bc906108e4565b80156102075780601f106101de57610100808354040283529160200191610207565b820191905f5260205f20905b8154815290600101906020018083116101ea57829003601f168201915b505050505081565b60035481565b6004602052805f5260405f205f915090505481565b60018054610237906108e4565b80601f0160208091040260200160405190810160405280929190818152602001828054610263906108e4565b80156102ae5780601f10610285576101008083540402835291602001916102ae565b820191905f5260205f20905b81548152906001019060200180831161029157829003601f168201915b505050505081565b8060045f3373ffffffffffffffffffffffffffffffffffffffff1673ffffffffffffffffffffffffffffffffffffffff1681526020019081526020015f20541015610336576040517f08c379a000000000000000000000000000000000000000000000000000000000815260040161032d9061095e565b60405180910390fd5b8060045f3373ffffffffffffffffffffffffffffffffffffffff1673ffffffffffffffffffffffffffffffffffffffff1681526020019081526020015f205f82825461038291906109a9565b925050819055508060045f8473ffffffffffffffffffffffffffffffffffffffff1673ffffffffffffffffffffffffffffffffffffffff1681526020019081526020015f205f8282546103d591906109dc565b925050819055505050565b5f73ffffffffffffffffffffffffffffffffffffffff1660025f9054906101000a900473ffffffffffffffffffffffffffffffffffffffff1673ffffffffffffffffffffffffffffffffffffffff161461046f576040517f08c379a000000000000000000000000000000000000000000000000000000000815260040161046690610a59565b60405180910390fd5b825f908161047d9190610c17565b50816001908161048d9190610c17565b503360025f6101000a81548173ffffffffffffffffffffffffffffffffffffffff021916908373ffffffffffffffffffffffffffffffffffffffff160217905550806003819055508060045f3373ffffffffffffffffffffffffffffffffffffffff1673ffffffffffffffffffffffffffffffffffffffff1681526020019081526020015f2081905550505050565b5f73ffffffffffffffffffffffffffffffffffffffff82169050919050565b5f6105458261051c565b9050919050565b6105558161053b565b82525050565b5f60208201905061056e5f83018461054c565b92915050565b5f81519050919050565b5f82825260208201905092915050565b8281835e5f83830152505050565b5f601f19601f8301169050919050565b5f6105b682610574565b6105c0818561057e565b93506105d081856020860161058e565b6105d98161059c565b840191505092915050565b5f6020820190508181035f8301526105fc81846105ac565b905092915050565b5f819050919050565b61061681610604565b82525050565b5f60208201905061062f5f83018461060d565b92915050565b5f604051905090565b5f5ffd5b5f5ffd5b61064f8161053b565b8114610659575f5ffd5b50565b5f8135905061066a81610646565b92915050565b5f602082840312156106855761068461063e565b5b5f6106928482850161065c565b91505092915050565b6106a481610604565b81146106ae575f5ffd5b50565b5f813590506106bf8161069b565b92915050565b5f5f604083850312156106db576106da61063e565b5b5f6106e88582860161065c565b92505060206106f9858286016106b1565b9150509250929050565b5f5ffd5b5f5ffd5b7f4e487b71000000000000000000000000000000000000000000000000000000005f52604160045260245ffd5b6107418261059c565b810181811067ffffffffffffffff821117156107605761075f61070b565b5b80604052505050565b5f610772610635565b905061077e8282610738565b919050565b5f67ffffffffffffffff82111561079d5761079c61070b565b5b6107a68261059c565b9050602081019050919050565b828183375f83830152505050565b5f6107d36107ce84610783565b610769565b9050828152602081018484840111156107ef576107ee610707565b5b6107fa8482856107b3565b509392505050565b5f82601f83011261081657610815610703565b5b81356108268482602086016107c1565b91505092915050565b5f5f5f606084860312156108465761084561063e565b5b5f84013567ffffffffffffffff81111561086357610862610642565b5b61086f86828701610802565b935050602084013567ffffffffffffffff8111156108905761088f610642565b5b61089c86828701610802565b92505060406108ad868287016106b1565b9150509250925092565b7f4e487b71000000000000000000000000000000000000000000000000000000005f52602260045260245ffd5b5f60028204905060018216806108fb57607f821691505b60208210810361090e5761090d6108b7565b5b50919050565b7f496e73756666696369656e742062616c616e63650000000000000000000000005f82015250565b5f61094860148361057e565b915061095382610914565b602082019050919050565b5f6020820190508181035f8301526109758161093c565b9050919050565b7f4e487b71000000000000000000000000000000000000000000000000000000005f52601160045260245ffd5b5f6109b382610604565b91506109be83610604565b92508282039050818111156109d6576109d561097c565b5b92915050565b5f6109e682610604565b91506109f183610604565b9250828201905080821115610a0957610a0861097c565b5b92915050565b7f416c726561647920696e697469616c697a6564000000000000000000000000005f82015250565b5f610a4360138361057e565b9150610a4e82610a0f565b602082019050919050565b5f6020820190508181035f830152610a7081610a37565b9050919050565b5f819050815f5260205f209050919050565b5f6020601f8301049050919050565b5f82821b905092915050565b5f60088302610ad37fffffffffffffffffffffffffffffffffffffffffffffffffffffffffffffffff82610a98565b610add8683610a98565b95508019841693508086168417925050509392505050565b5f819050919050565b5f610b18610b13610b0e84610604565b610af5565b610604565b9050919050565b5f819050919050565b610b3183610afe565b610b45610b3d82610b1f565b848454610aa4565b825550505050565b5f5f905090565b610b5c610b4d565b610b67818484610b28565b505050565b5b81811015610b8a57610b7f5f82610b54565b600181019050610b6d565b5050565b601f821115610bcf57610ba081610a77565b610ba984610a89565b81016020851015610bb8578190505b610bcc610bc485610a89565b830182610b6c565b50505b505050565b5f82821c905092915050565b5f610bef5f1984600802610bd4565b1980831691505092915050565b5f610c078383610be0565b9150826002028217905092915050565b610c2082610574565b67ffffffffffffffff811115610c3957610c3861070b565b5b610c4382546108e4565b610c4e828285610b8e565b5f60209050601f831160018114610c7f575f8415610c6d578287015190505b610c778582610bfc565b865550610cde565b601f198416610c8d86610a77565b5f5b82811015610cb457848901518255600182019150602085019450602081019050610c8f565b86831015610cd15784890151610ccd601f891682610be0565b8355505b6001600288020188555050505b50505050505056fea26469706673582212209b2118ddfd1bb7949cc49a0f9ae21a0d15c6c81b75c78a7f9fcae90b88920b8864736f6c634300081e0033",
					"opcodes": "PUSH1 0x80 PUSH1 0x40 MSTORE CALLVALUE DUP1 ISZERO PUSH1 0xE JUMPI PUSH0 PUSH0 REVERT JUMPDEST POP PUSH1 0x40 MLOAD PUSH1 0x19 SWAP1 PUSH1 0x74 JUMP JUMPDEST PUSH1 0x40 MLOAD DUP1 SWAP2 SUB SWAP1 PUSH0 CREATE DUP1 ISZERO DUP1 ISZERO PUSH1 0x31 JUMPI RETURNDATASIZE PUSH0 PUSH0 RETURNDATACOPY RETURNDATASIZE PUSH0 REVERT JUMPDEST POP PUSH0 PUSH0 PUSH2 0x100 EXP DUP2 SLOAD DUP2 PUSH20 0xFFFFFFFFFFFFFFFFFFFFFFFFFFFFFFFFFFFFFFFF MUL NOT AND SWAP1 DUP4 PUSH20 0xFFFFFFFFFFFFFFFFFFFFFFFFFFFFFFFFFFFFFFFF AND MUL OR SWAP1 SSTORE POP PUSH1 0x81 JUMP JUMPDEST PUSH2 0xD38 DUP1 PUSH2 0x9C6 DUP4 CODECOPY ADD SWAP1 JUMP JUMPDEST PUSH2 0x938 DUP1 PUSH2 0x8E PUSH0 CODECOPY PUSH0 RETURN INVALID PUSH1 0x80 PUSH1 0x40 MSTORE CALLVALUE DUP1 ISZERO PUSH2 0xF JUMPI PUSH0 PUSH0 REVERT JUMPDEST POP PUSH1 0x4 CALLDATASIZE LT PUSH2 0x4A JUMPI PUSH0 CALLDATALOAD PUSH1 0xE0 SHR DUP1 PUSH4 0xE039916 EQ PUSH2 0x4E JUMPI DUP1 PUSH4 0x175453E0 EQ PUSH2 0x7E JUMPI DUP1 PUSH4 0x5C60DA1B EQ PUSH2 0xAE JUMPI DUP1 PUSH4 0x869AC8CC EQ PUSH2 0xCC JUMPI JUMPDEST PUSH0 PUSH0 REVERT JUMPDEST PUSH2 0x68 PUSH1 0x4 DUP1 CALLDATASIZE SUB DUP2 ADD SWAP1 PUSH2 0x63 SWAP2 SWAP1 PUSH2 0x443 JUMP JUMPDEST PUSH2 0xFC JUMP JUMPDEST PUSH1 0x40 MLOAD PUSH2 0x75 SWAP2 SWAP1 PUSH2 0x4AD JUMP JUMPDEST PUSH1 0x40 MLOAD DUP1 SWAP2 SUB SWAP1 RETURN JUMPDEST PUSH2 0x98 PUSH1 0x4 DUP1 CALLDATASIZE SUB DUP2 ADD SWAP1 PUSH2 0x93 SWAP2 SWAP1 PUSH2 0x602 JUMP JUMPDEST PUSH2 0x137 JUMP JUMPDEST PUSH1 0x40 MLOAD PUSH2 0xA5 SWAP2 SWAP1 PUSH2 0x4AD JUMP JUMPDEST PUSH1 0x40 MLOAD DUP1 SWAP2 SUB SWAP1 RETURN JUMPDEST PUSH2 0xB6 PUSH2 0x34C JUMP JUMPDEST PUSH1 0x40 MLOAD PUSH2 0xC3 SWAP2 SWAP1 PUSH2 0x4AD JUMP JUMPDEST PUSH1 0x40 MLOAD DUP1 SWAP2 SUB SWAP1 RETURN JUMPDEST PUSH2 0xE6 PUSH1 0x4 DUP1 CALLDATASIZE SUB DUP2 ADD SWAP1 PUSH2 0xE1 SWAP2 SWAP1 PUSH2 0x6B4 JUMP JUMPDEST PUSH2 0x370 JUMP JUMPDEST PUSH1 0x40 MLOAD PUSH2 0xF3 SWAP2 SWAP1 PUSH2 0x4AD JUMP JUMPDEST PUSH1 0x40 MLOAD DUP1 SWAP2 SUB SWAP1 RETURN JUMPDEST PUSH1 0x1 DUP2 DUP2 SLOAD DUP2 LT PUSH2 0x10B JUMPI PUSH0 DUP1 REVERT JUMPDEST SWAP1 PUSH0 MSTORE PUSH1 0x20 PUSH0 KECCAK256 ADD PUSH0 SWAP2 POP SLOAD SWAP1 PUSH2 0x100 EXP SWAP1 DIV PUSH20 0xFFFFFFFFFFFFFFFFFFFFFFFFFFFFFFFFFFFFFFFF AND DUP2 JUMP JUMPDEST PUSH0 PUSH0 PUSH2 0x141 PUSH2 0x3B8 JUMP JUMPDEST SWAP1 POP PUSH0 CALLER PUSH1 0x1 DUP1 SLOAD SWAP1 POP PUSH1 0x40 MLOAD PUSH1 0x20 ADD PUSH2 0x15C SWAP3 SWAP2 SWAP1 PUSH2 0x757 JUMP JUMPDEST PUSH1 0x40 MLOAD PUSH1 0x20 DUP2 DUP4 SUB SUB DUP2 MSTORE SWAP1 PUSH1 0x40 MSTORE DUP1 MLOAD SWAP1 PUSH1 0x20 ADD KECCAK256 SWAP1 POP PUSH0 DUP2 DUP4 MLOAD PUSH1 0x20 DUP6 ADD PUSH0 CREATE2 SWAP1 POP DUP1 PUSH20 0xFFFFFFFFFFFFFFFFFFFFFFFFFFFFFFFFFFFFFFFF AND PUSH4 0xB119490E DUP9 DUP9 DUP9 PUSH1 0x40 MLOAD DUP5 PUSH4 0xFFFFFFFF AND PUSH1 0xE0 SHL DUP2 MSTORE PUSH1 0x4 ADD PUSH2 0x1BD SWAP4 SWAP3 SWAP2 SWAP1 PUSH2 0x7F1 JUMP JUMPDEST PUSH0 PUSH1 0x40 MLOAD DUP1 DUP4 SUB DUP2 PUSH0 DUP8 DUP1 EXTCODESIZE ISZERO DUP1 ISZERO PUSH2 0x1D4 JUMPI PUSH0 PUSH0 REVERT JUMPDEST POP GAS CALL ISZERO DUP1 ISZERO PUSH2 0x1E6 JUMPI RETURNDATASIZE PUSH0 PUSH0 RETURNDATACOPY RETURNDATASIZE PUSH0 REVERT JUMPDEST POP POP POP POP PUSH1 0x1 DUP2 SWAP1 DUP1 PUSH1 0x1 DUP2 SLOAD ADD DUP1 DUP3 SSTORE DUP1 SWAP2 POP POP PUSH1 0x1 SWAP1 SUB SWAP1 PUSH0 MSTORE PUSH1 0x20 PUSH0 KECCAK256 ADD PUSH0 SWAP1 SWAP2 SWAP1 SWAP2 SWAP1 SWAP2 PUSH2 0x100 EXP DUP2 SLOAD DUP2 PUSH20 0xFFFFFFFFFFFFFFFFFFFFFFFFFFFFFFFFFFFFFFFF MUL NOT AND SWAP1 DUP4 PUSH20 0xFFFFFFFFFFFFFFFFFFFFFFFFFFFFFFFFFFFFFFFF AND MUL OR SWAP1 SSTORE POP PUSH1 0x2 PUSH0 CALLER PUSH20 0xFFFFFFFFFFFFFFFFFFFFFFFFFFFFFFFFFFFFFFFF AND PUSH20 0xFFFFFFFFFFFFFFFFFFFFFFFFFFFFFFFFFFFFFFFF AND DUP2 MSTORE PUSH1 0x20 ADD SWAP1 DUP2 MSTORE PUSH1 0x20 ADD PUSH0 KECCAK256 DUP2 SWAP1 DUP1 PUSH1 0x1 DUP2 SLOAD ADD DUP1 DUP3 SSTORE DUP1 SWAP2 POP POP PUSH1 0x1 SWAP1 SUB SWAP1 PUSH0 MSTORE PUSH1 0x20 PUSH0 KECCAK256 ADD PUSH0 SWAP1 SWAP2 SWAP1 SWAP2 SWAP1 SWAP2 PUSH2 0x100 EXP DUP2 SLOAD DUP2 PUSH20 0xFFFFFFFFFFFFFFFFFFFFFFFFFFFFFFFFFFFFFFFF MUL NOT AND SWAP1 DUP4 PUSH20 0xFFFFFFFFFFFFFFFFFFFFFFFFFFFFFFFFFFFFFFFF AND MUL OR SWAP1 SSTORE POP CALLER PUSH20 0xFFFFFFFFFFFFFFFFFFFFFFFFFFFFFFFFFFFFFFFF AND DUP2 PUSH20 0xFFFFFFFFFFFFFFFFFFFFFFFFFFFFFFFFFFFFFFFF AND PUSH32 0x3D2B821286D97AA9D35330D87A82F7B548B9737B10E2D1BA59994EDFD50E9D2B PUSH1 0x40 MLOAD PUSH1 0x40 MLOAD DUP1 SWAP2 SUB SWAP1 LOG3 DUP1 SWAP4 POP POP POP POP SWAP4 SWAP3 POP POP POP JUMP JUMPDEST PUSH0 PUSH0 SWAP1 SLOAD SWAP1 PUSH2 0x100 EXP SWAP1 DIV PUSH20 0xFFFFFFFFFFFFFFFFFFFFFFFFFFFFFFFFFFFFFFFF AND DUP2 JUMP JUMPDEST PUSH1 0x2 PUSH1 0x20 MSTORE DUP2 PUSH0 MSTORE PUSH1 0x40 PUSH0 KECCAK256 DUP2 DUP2 SLOAD DUP2 LT PUSH2 0x389 JUMPI PUSH0 DUP1 REVERT JUMPDEST SWAP1 PUSH0 MSTORE PUSH1 0x20 PUSH0 KECCAK256 ADD PUSH0 SWAP2 POP SWAP2 POP SWAP1 SLOAD SWAP1 PUSH2 0x100 EXP SWAP1 DIV PUSH20 0xFFFFFFFFFFFFFFFFFFFFFFFFFFFFFFFFFFFFFFFF AND DUP2 JUMP JUMPDEST PUSH1 0x60 PUSH0 PUSH0 SWAP1 SLOAD SWAP1 PUSH2 0x100 EXP SWAP1 DIV PUSH20 0xFFFFFFFFFFFFFFFFFFFFFFFFFFFFFFFFFFFFFFFF AND PUSH1 0x40 MLOAD PUSH1 0x20 ADD PUSH2 0x3EB SWAP2 SWAP1 PUSH2 0x8D2 JUMP JUMPDEST PUSH1 0x40 MLOAD PUSH1 0x20 DUP2 DUP4 SUB SUB DUP2 MSTORE SWAP1 PUSH1 0x40 MSTORE SWAP1 POP SWAP1 JUMP JUMPDEST PUSH0 PUSH1 0x40 MLOAD SWAP1 POP SWAP1 JUMP JUMPDEST PUSH0 PUSH0 REVERT JUMPDEST PUSH0 PUSH0 REVERT JUMPDEST PUSH0 DUP2 SWAP1 POP SWAP2 SWAP1 POP JUMP JUMPDEST PUSH2 0x422 DUP2 PUSH2 0x410 JUMP JUMPDEST DUP2 EQ PUSH2 0x42C JUMPI PUSH0 PUSH0 REVERT JUMPDEST POP JUMP JUMPDEST PUSH0 DUP2 CALLDATALOAD SWAP1 POP PUSH2 0x43D DUP2 PUSH2 0x419 JUMP JUMPDEST SWAP3 SWAP2 POP POP JUMP JUMPDEST PUSH0 PUSH1 0x20 DUP3 DUP5 SUB SLT ISZERO PUSH2 0x458 JUMPI PUSH2 0x457 PUSH2 0x408 JUMP JUMPDEST JUMPDEST PUSH0 PUSH2 0x465 DUP5 DUP3 DUP6 ADD PUSH2 0x42F JUMP JUMPDEST SWAP2 POP POP SWAP3 SWAP2 POP POP JUMP JUMPDEST PUSH0 PUSH20 0xFFFFFFFFFFFFFFFFFFFFFFFFFFFFFFFFFFFFFFFF DUP3 AND SWAP1 POP SWAP2 SWAP1 POP JUMP JUMPDEST PUSH0 PUSH2 0x497 DUP3 PUSH2 0x46E JUMP JUMPDEST SWAP1 POP SWAP2 SWAP1 POP JUMP JUMPDEST PUSH2 0x4A7 DUP2 PUSH2 0x48D JUMP JUMPDEST DUP3 MSTORE POP POP JUMP JUMPDEST PUSH0 PUSH1 0x20 DUP3 ADD SWAP1 POP PUSH2 0x4C0 PUSH0 DUP4 ADD DUP5 PUSH2 0x49E JUMP JUMPDEST SWAP3 SWAP2 POP POP JUMP JUMPDEST PUSH0 PUSH0 REVERT JUMPDEST PUSH0 PUSH0 REVERT JUMPDEST PUSH0 PUSH1 0x1F NOT PUSH1 0x1F DUP4 ADD AND SWAP1 POP SWAP2 SWAP1 POP JUMP JUMPDEST PUSH32 0x4E487B7100000000000000000000000000000000000000000000000000000000 PUSH0 MSTORE PUSH1 0x41 PUSH1 0x4 MSTORE PUSH1 0x24 PUSH0 REVERT JUMPDEST PUSH2 0x514 DUP3 PUSH2 0x4CE JUMP JUMPDEST DUP2 ADD DUP2 DUP2 LT PUSH8 0xFFFFFFFFFFFFFFFF DUP3 GT OR ISZERO PUSH2 0x533 JUMPI PUSH2 0x532 PUSH2 0x4DE JUMP JUMPDEST JUMPDEST DUP1 PUSH1 0x40 MSTORE POP POP POP JUMP JUMPDEST PUSH0 PUSH2 0x545 PUSH2 0x3FF JUMP JUMPDEST SWAP1 POP PUSH2 0x551 DUP3 DUP3 PUSH2 0x50B JUMP JUMPDEST SWAP2 SWAP1 POP JUMP JUMPDEST PUSH0 PUSH8 0xFFFFFFFFFFFFFFFF DUP3 GT ISZERO PUSH2 0x570 JUMPI PUSH2 0x56F PUSH2 0x4DE JUMP JUMPDEST JUMPDEST PUSH2 0x579 DUP3 PUSH2 0x4CE JUMP JUMPDEST SWAP1 POP PUSH1 0x20 DUP2 ADD SWAP1 POP SWAP2 SWAP1 POP JUMP JUMPDEST DUP3 DUP2 DUP4 CALLDATACOPY PUSH0 DUP4 DUP4 ADD MSTORE POP POP POP JUMP JUMPDEST PUSH0 PUSH2 0x5A6 PUSH2 0x5A1 DUP5 PUSH2 0x556 JUMP JUMPDEST PUSH2 0x53C JUMP JUMPDEST SWAP1 POP DUP3 DUP2 MSTORE PUSH1 0x20 DUP2 ADD DUP5 DUP5 DUP5 ADD GT ISZERO PUSH2 0x5C2 JUMPI PUSH2 0x5C1 PUSH2 0x4CA JUMP JUMPDEST JUMPDEST PUSH2 0x5CD DUP5 DUP3 DUP6 PUSH2 0x586 JUMP JUMPDEST POP SWAP4 SWAP3 POP POP POP JUMP JUMPDEST PUSH0 DUP3 PUSH1 0x1F DUP4 ADD SLT PUSH2 0x5E9 JUMPI PUSH2 0x5E8 PUSH2 0x4C6 JUMP JUMPDEST JUMPDEST DUP2 CALLDATALOAD PUSH2 0x5F9 DUP5 DUP3 PUSH1 0x20 DUP7 ADD PUSH2 0x594 JUMP JUMPDEST SWAP2 POP POP SWAP3 SWAP2 POP POP JUMP JUMPDEST PUSH0 PUSH0 PUSH0 PUSH1 0x60 DUP5 DUP7 SUB SLT ISZERO PUSH2 0x619 JUMPI PUSH2 0x618 PUSH2 0x408 JUMP JUMPDEST JUMPDEST PUSH0 DUP5 ADD CALLDATALOAD PUSH8 0xFFFFFFFFFFFFFFFF DUP2 GT ISZERO PUSH2 0x636 JUMPI PUSH2 0x635 PUSH2 0x40C JUMP JUMPDEST JUMPDEST PUSH2 0x642 DUP7 DUP3 DUP8 ADD PUSH2 0x5D5 JUMP JUMPDEST SWAP4 POP POP PUSH1 0x20 DUP5 ADD CALLDATALOAD PUSH8 0xFFFFFFFFFFFFFFFF DUP2 GT ISZERO PUSH2 0x663 JUMPI PUSH2 0x662 PUSH2 0x40C JUMP JUMPDEST JUMPDEST PUSH2 0x66F DUP7 DUP3 DUP8 ADD PUSH2 0x5D5 JUMP JUMPDEST SWAP3 POP POP PUSH1 0x40 PUSH2 0x680 DUP7 DUP3 DUP8 ADD PUSH2 0x42F JUMP JUMPDEST SWAP2 POP POP SWAP3 POP SWAP3 POP SWAP3 JUMP JUMPDEST PUSH2 0x693 DUP2 PUSH2 0x48D JUMP JUMPDEST DUP2 EQ PUSH2 0x69D JUMPI PUSH0 PUSH0 REVERT JUMPDEST POP JUMP JUMPDEST PUSH0 DUP2 CALLDATALOAD SWAP1 POP PUSH2 0x6AE DUP2 PUSH2 0x68A JUMP JUMPDEST SWAP3 SWAP2 POP POP JUMP JUMPDEST PUSH0 PUSH0 PUSH1 0x40 DUP4 DUP6 SUB SLT ISZERO PUSH2 0x6CA JUMPI PUSH2 0x6C9 PUSH2 0x408 JUMP JUMPDEST JUMPDEST PUSH0 PUSH2 0x6D7 DUP6 DUP3 DUP7 ADD PUSH2 0x6A0 JUMP JUMPDEST SWAP3 POP POP PUSH1 0x20 PUSH2 0x6E8 DUP6 DUP3 DUP7 ADD PUSH2 0x42F JUMP JUMPDEST SWAP2 POP POP SWAP3 POP SWAP3 SWAP1 POP JUMP JUMPDEST PUSH0 DUP2 PUSH1 0x60 SHL SWAP1 POP SWAP2 SWAP1 POP JUMP JUMPDEST PUSH0 PUSH2 0x708 DUP3 PUSH2 0x6F2 JUMP JUMPDEST SWAP1 POP SWAP2 SWAP1 POP JUMP JUMPDEST PUSH0 PUSH2 0x719 DUP3 PUSH2 0x6FE JUMP JUMPDEST SWAP1 POP SWAP2 SWAP1 POP JUMP JUMPDEST PUSH2 0x731 PUSH2 0x72C DUP3 PUSH2 0x48D JUMP JUMPDEST PUSH2 0x70F JUMP JUMPDEST DUP3 MSTORE POP POP JUMP JUMPDEST PUSH0 DUP2 SWAP1 POP SWAP2 SWAP1 POP JUMP JUMPDEST PUSH2 0x751 PUSH2 0x74C DUP3 PUSH2 0x410 JUMP JUMPDEST PUSH2 0x737 JUMP JUMPDEST DUP3 MSTORE POP POP JUMP JUMPDEST PUSH0 PUSH2 0x762 DUP3 DUP6 PUSH2 0x720 JUMP JUMPDEST PUSH1 0x14 DUP3 ADD SWAP2 POP PUSH2 0x772 DUP3 DUP5 PUSH2 0x740 JUMP JUMPDEST PUSH1 0x20 DUP3 ADD SWAP2 POP DUP2 SWAP1 POP SWAP4 SWAP3 POP POP POP JUMP JUMPDEST PUSH0 DUP2 MLOAD SWAP1 POP SWAP2 SWAP1 POP JUMP JUMPDEST PUSH0 DUP3 DUP3 MSTORE PUSH1 0x20 DUP3 ADD SWAP1 POP SWAP3 SWAP2 POP POP JUMP JUMPDEST DUP3 DUP2 DUP4 MCOPY PUSH0 DUP4 DUP4 ADD MSTORE POP POP POP JUMP JUMPDEST PUSH0 PUSH2 0x7B4 DUP3 PUSH2 0x782 JUMP JUMPDEST PUSH2 0x7BE DUP2 DUP6 PUSH2 0x78C JUMP JUMPDEST SWAP4 POP PUSH2 0x7CE DUP2 DUP6 PUSH1 0x20 DUP7 ADD PUSH2 0x79C JUMP JUMPDEST PUSH2 0x7D7 DUP2 PUSH2 0x4CE JUMP JUMPDEST DUP5 ADD SWAP2 POP POP SWAP3 SWAP2 POP POP JUMP JUMPDEST PUSH2 0x7EB DUP2 PUSH2 0x410 JUMP JUMPDEST DUP3 MSTORE POP POP JUMP JUMPDEST PUSH0 PUSH1 0x60 DUP3 ADD SWAP1 POP DUP2 DUP2 SUB PUSH0 DUP4 ADD MSTORE PUSH2 0x809 DUP2 DUP7 PUSH2 0x7AA JUMP JUMPDEST SWAP1 POP DUP2 DUP2 SUB PUSH1 0x20 DUP4 ADD MSTORE PUSH2 0x81D DUP2 DUP6 PUSH2 0x7AA JUMP JUMPDEST SWAP1 POP PUSH2 0x82C PUSH1 0x40 DUP4 ADD DUP5 PUSH2 0x7E2 JUMP JUMPDEST SWAP5 SWAP4 POP POP POP POP JUMP JUMPDEST PUSH0 DUP2 SWAP1 POP SWAP3 SWAP2 POP POP JUMP JUMPDEST PUSH32 0x3D602D80600A3D3981F3363D3D373D3D3D363D73000000000000000000000000 PUSH0 DUP3 ADD MSTORE POP JUMP JUMPDEST PUSH0 PUSH2 0x872 PUSH1 0x14 DUP4 PUSH2 0x834 JUMP JUMPDEST SWAP2 POP PUSH2 0x87D DUP3 PUSH2 0x83E JUMP JUMPDEST PUSH1 0x14 DUP3 ADD SWAP1 POP SWAP2 SWAP1 POP JUMP JUMPDEST PUSH32 0x5AF43D82803E903D91602B57FD5BF30000000000000000000000000000000000 PUSH0 DUP3 ADD MSTORE POP JUMP JUMPDEST PUSH0 PUSH2 0x8BC PUSH1 0xF DUP4 PUSH2 0x834 JUMP JUMPDEST SWAP2 POP PUSH2 0x8C7 DUP3 PUSH2 0x888 JUMP JUMPDEST PUSH1 0xF DUP3 ADD SWAP1 POP SWAP2 SWAP1 POP JUMP JUMPDEST PUSH0 PUSH2 0x8DC DUP3 PUSH2 0x866 JUMP JUMPDEST SWAP2 POP PUSH2 0x8E8 DUP3 DUP5 PUSH2 0x720 JUMP JUMPDEST PUSH1 0x14 DUP3 ADD SWAP2 POP PUSH2 0x8F7 DUP3 PUSH2 0x8B0 JUMP JUMPDEST SWAP2 POP DUP2 SWAP1 POP SWAP3 SWAP2 POP POP JUMP INVALID LOG2 PUSH5 0x6970667358 0x22 SLT KECCAK256 0xDC DATALOADN 0x4C58 PUSH25 0x1304A30954AFFCA867D046BFE028B6637A330AD5E0734A29A0 0xB1 0xCA PUSH5 0x736F6C6343 STOP ADDMOD 0x1E STOP CALLER PUSH1 0x80 PUSH1 0x40 MSTORE CALLVALUE DUP1 ISZERO PUSH1 0xE JUMPI PUSH0 PUSH0 REVERT JUMPDEST POP PUSH2 0xD1C DUP1 PUSH2 0x1C PUSH0 CODECOPY PUSH0 RETURN INVALID PUSH1 0x80 PUSH1 0x40 MSTORE CALLVALUE DUP1 ISZERO PUSH2 0xF JUMPI PUSH0 PUSH0 REVERT JUMPDEST POP PUSH1 0x4 CALLDATASIZE LT PUSH2 0x7B JUMPI PUSH0 CALLDATALOAD PUSH1 0xE0 SHR DUP1 PUSH4 0x27E235E3 GT PUSH2 0x59 JUMPI DUP1 PUSH4 0x27E235E3 EQ PUSH2 0xD9 JUMPI DUP1 PUSH4 0x95D89B41 EQ PUSH2 0x109 JUMPI DUP1 PUSH4 0xA9059CBB EQ PUSH2 0x127 JUMPI DUP1 PUSH4 0xB119490E EQ PUSH2 0x143 JUMPI PUSH2 0x7B JUMP JUMPDEST DUP1 PUSH4 0x2D05D3F EQ PUSH2 0x7F JUMPI DUP1 PUSH4 0x6FDDE03 EQ PUSH2 0x9D JUMPI DUP1 PUSH4 0x18160DDD EQ PUSH2 0xBB JUMPI JUMPDEST PUSH0 PUSH0 REVERT JUMPDEST PUSH2 0x87 PUSH2 0x15F JUMP JUMPDEST PUSH1 0x40 MLOAD PUSH2 0x94 SWAP2 SWAP1 PUSH2 0x55B JUMP JUMPDEST PUSH1 0x40 MLOAD DUP1 SWAP2 SUB SWAP1 RETURN JUMPDEST PUSH2 0xA5 PUSH2 0x184 JUMP JUMPDEST PUSH1 0x40 MLOAD PUSH2 0xB2 SWAP2 SWAP1 PUSH2 0x5E4 JUMP JUMPDEST PUSH1 0x40 MLOAD DUP1 SWAP2 SUB SWAP1 RETURN JUMPDEST PUSH2 0xC3 PUSH2 0x20F JUMP JUMPDEST PUSH1 0x40 MLOAD PUSH2 0xD0 SWAP2 SWAP1 PUSH2 0x61C JUMP JUMPDEST PUSH1 0x40 MLOAD DUP1 SWAP2 SUB SWAP1 RETURN JUMPDEST PUSH2 0xF3 PUSH1 0x4 DUP1 CALLDATASIZE SUB DUP2 ADD SWAP1 PUSH2 0xEE SWAP2 SWAP1 PUSH2 0x670 JUMP JUMPDEST PUSH2 0x215 JUMP JUMPDEST PUSH1 0x40 MLOAD PUSH2 0x100 SWAP2 SWAP1 PUSH2 0x61C JUMP JUMPDEST PUSH1 0x40 MLOAD DUP1 SWAP2 SUB SWAP1 RETURN JUMPDEST PUSH2 0x111 PUSH2 0x22A JUMP JUMPDEST PUSH1 0x40 MLOAD PUSH2 0x11E SWAP2 SWAP1 PUSH2 0x5E4 JUMP JUMPDEST PUSH1 0x40 MLOAD DUP1 SWAP2 SUB SWAP1 RETURN JUMPDEST PUSH2 0x141 PUSH1 0x4 DUP1 CALLDATASIZE SUB DUP2 ADD SWAP1 PUSH2 0x13C SWAP2 SWAP1 PUSH2 0x6C5 JUMP JUMPDEST PUSH2 0x2B6 JUMP JUMPDEST STOP JUMPDEST PUSH2 0x15D PUSH1 0x4 DUP1 CALLDATASIZE SUB DUP2 ADD SWAP1 PUSH2 0x158 SWAP2 SWAP1 PUSH2 0x82F JUMP JUMPDEST PUSH2 0x3E0 JUMP JUMPDEST STOP JUMPDEST PUSH1 0x2 PUSH0 SWAP1 SLOAD SWAP1 PUSH2 0x100 EXP SWAP1 DIV PUSH20 0xFFFFFFFFFFFFFFFFFFFFFFFFFFFFFFFFFFFFFFFF AND DUP2 JUMP JUMPDEST PUSH0 DUP1 SLOAD PUSH2 0x190 SWAP1 PUSH2 0x8E4 JUMP JUMPDEST DUP1 PUSH1 0x1F ADD PUSH1 0x20 DUP1 SWAP2 DIV MUL PUSH1 0x20 ADD PUSH1 0x40 MLOAD SWAP1 DUP2 ADD PUSH1 0x40 MSTORE DUP1 SWAP3 SWAP2 SWAP1 DUP2 DUP2 MSTORE PUSH1 0x20 ADD DUP3 DUP1 SLOAD PUSH2 0x1BC SWAP1 PUSH2 0x8E4 JUMP JUMPDEST DUP1 ISZERO PUSH2 0x207 JUMPI DUP1 PUSH1 0x1F LT PUSH2 0x1DE JUMPI PUSH2 0x100 DUP1 DUP4 SLOAD DIV MUL DUP4 MSTORE SWAP2 PUSH1 0x20 ADD SWAP2 PUSH2 0x207 JUMP JUMPDEST DUP3 ADD SWAP2 SWAP1 PUSH0 MSTORE PUSH1 0x20 PUSH0 KECCAK256 SWAP1 JUMPDEST DUP2 SLOAD DUP2 MSTORE SWAP1 PUSH1 0x1 ADD SWAP1 PUSH1 0x20 ADD DUP1 DUP4 GT PUSH2 0x1EA JUMPI DUP3 SWAP1 SUB PUSH1 0x1F AND DUP3 ADD SWAP2 JUMPDEST POP POP POP POP POP DUP2 JUMP JUMPDEST PUSH1 0x3 SLOAD DUP2 JUMP JUMPDEST PUSH1 0x4 PUSH1 0x20 MSTORE DUP1 PUSH0 MSTORE PUSH1 0x40 PUSH0 KECCAK256 PUSH0 SWAP2 POP SWAP1 POP SLOAD DUP2 JUMP JUMPDEST PUSH1 0x1 DUP1 SLOAD PUSH2 0x237 SWAP1 PUSH2 0x8E4 JUMP JUMPDEST DUP1 PUSH1 0x1F ADD PUSH1 0x20 DUP1 SWAP2 DIV MUL PUSH1 0x20 ADD PUSH1 0x40 MLOAD SWAP1 DUP2 ADD PUSH1 0x40 MSTORE DUP1 SWAP3 SWAP2 SWAP1 DUP2 DUP2 MSTORE PUSH1 0x20 ADD DUP3 DUP1 SLOAD PUSH2 0x263 SWAP1 PUSH2 0x8E4 JUMP JUMPDEST DUP1 ISZERO PUSH2 0x2AE JUMPI DUP1 PUSH1 0x1F LT PUSH2 0x285 JUMPI PUSH2 0x100 DUP1 DUP4 SLOAD DIV MUL DUP4 MSTORE SWAP2 PUSH1 0x20 ADD SWAP2 PUSH2 0x2AE JUMP JUMPDEST DUP3 ADD SWAP2 SWAP1 PUSH0 MSTORE PUSH1 0x20 PUSH0 KECCAK256 SWAP1 JUMPDEST DUP2 SLOAD DUP2 MSTORE SWAP1 PUSH1 0x1 ADD SWAP1 PUSH1 0x20 ADD DUP1 DUP4 GT PUSH2 0x291 JUMPI DUP3 SWAP1 SUB PUSH1 0x1F AND DUP3 ADD SWAP2 JUMPDEST POP POP POP POP POP DUP2 JUMP JUMPDEST DUP1 PUSH1 0x4 PUSH0 CALLER PUSH20 0xFFFFFFFFFFFFFFFFFFFFFFFFFFFFFFFFFFFFFFFF AND PUSH20 0xFFFFFFFFFFFFFFFFFFFFFFFFFFFFFFFFFFFFFFFF AND DUP2 MSTORE PUSH1 0x20 ADD SWAP1 DUP2 MSTORE PUSH1 0x20 ADD PUSH0 KECCAK256 SLOAD LT ISZERO PUSH2 0x336 JUMPI PUSH1 0x40 MLOAD PUSH32 0x8C379A000000000000000000000000000000000000000000000000000000000 DUP2 MSTORE PUSH1 0x4 ADD PUSH2 0x32D SWAP1 PUSH2 0x95E JUMP JUMPDEST PUSH1 0x40 MLOAD DUP1 SWAP2 SUB SWAP1 REVERT JUMPDEST DUP1 PUSH1 0x4 PUSH0 CALLER PUSH20 0xFFFFFFFFFFFFFFFFFFFFFFFFFFFFFFFFFFFFFFFF AND PUSH20 0xFFFFFFFFFFFFFFFFFFFFFFFFFFFFFFFFFFFFFFFF AND DUP2 MSTORE PUSH1 0x20 ADD SWAP1 DUP2 MSTORE PUSH1 0x20 ADD PUSH0 KECCAK256 PUSH0 DUP3 DUP3 SLOAD PUSH2 0x382 SWAP2 SWAP1 PUSH2 0x9A9 JUMP JUMPDEST SWAP3 POP POP DUP2 SWAP1 SSTORE POP DUP1 PUSH1 0x4 PUSH0 DUP5 PUSH20 0xFFFFFFFFFFFFFFFFFFFFFFFFFFFFFFFFFFFFFFFF AND PUSH20 0xFFFFFFFFFFFFFFFFFFFFFFFFFFFFFFFFFFFFFFFF AND DUP2 MSTORE PUSH1 0x20 ADD SWAP1 DUP2 MSTORE PUSH1 0x20 ADD PUSH0 KECCAK256 PUSH0 DUP3 DUP3 SLOAD PUSH2 0x3D5 SWAP2 SWAP1 PUSH2 0x9DC JUMP JUMPDEST SWAP3 POP POP DUP2 SWAP1 SSTORE POP POP POP JUMP JUMPDEST PUSH0 PUSH20 0xFFFFFFFFFFFFFFFFFFFFFFFFFFFFFFFFFFFFFFFF AND PUSH1 0x2 PUSH0 SWAP1 SLOAD SWAP1 PUSH2 0x100 EXP SWAP1 DIV PUSH20 0xFFFFFFFFFFFFFFFFFFFFFFFFFFFFFFFFFFFFFFFF AND PUSH20 0xFFFFFFFFFFFFFFFFFFFFFFFFFFFFFFFFFFFFFFFF AND EQ PUSH2 0x46F JUMPI PUSH1 0x40 MLOAD PUSH32 0x8C379A000000000000000000000000000000000000000000000000000000000 DUP2 MSTORE PUSH1 0x4 ADD PUSH2 0x466 SWAP1 PUSH2 0xA59 JUMP JUMPDEST PUSH1 0x40 MLOAD DUP1 SWAP2 SUB SWAP1 REVERT JUMPDEST DUP3 PUSH0 SWAP1 DUP2 PUSH2 0x47D SWAP2 SWAP1 PUSH2 0xC17 JUMP JUMPDEST POP DUP2 PUSH1 0x1 SWAP1 DUP2 PUSH2 0x48D SWAP2 SWAP1 PUSH2 0xC17 JUMP JUMPDEST POP CALLER PUSH1 0x2 PUSH0 PUSH2 0x100 EXP DUP2 SLOAD DUP2 PUSH20 0xFFFFFFFFFFFFFFFFFFFFFFFFFFFFFFFFFFFFFFFF MUL NOT AND SWAP1 DUP4 PUSH20 0xFFFFFFFFFFFFFFFFFFFFFFFFFFFFFFFFFFFFFFFF AND MUL OR SWAP1 SSTORE POP DUP1 PUSH1 0x3 DUP2 SWAP1 SSTORE POP DUP1 PUSH1 0x4 PUSH0 CALLER PUSH20 0xFFFFFFFFFFFFFFFFFFFFFFFFFFFFFFFFFFFFFFFF AND PUSH20 0xFFFFFFFFFFFFFFFFFFFFFFFFFFFFFFFFFFFFFFFF AND DUP2 MSTORE PUSH1 0x20 ADD SWAP1 DUP2 MSTORE PUSH1 0x20 ADD PUSH0 KECCAK256 DUP2 SWAP1 SSTORE POP POP POP POP JUMP JUMPDEST PUSH0 PUSH20 0xFFFFFFFFFFFFFFFFFFFFFFFFFFFFFFFFFFFFFFFF DUP3 AND SWAP1 POP SWAP2 SWAP1 POP JUMP JUMPDEST PUSH0 PUSH2 0x545 DUP3 PUSH2 0x51C JUMP JUMPDEST SWAP1 POP SWAP2 SWAP1 POP JUMP JUMPDEST PUSH2 0x555 DUP2 PUSH2 0x53B JUMP JUMPDEST DUP3 MSTORE POP POP JUMP JUMPDEST PUSH0 PUSH1 0x20 DUP3 ADD SWAP1 POP PUSH2 0x56E PUSH0 DUP4 ADD DUP5 PUSH2 0x54C JUMP JUMPDEST SWAP3 SWAP2 POP POP JUMP JUMPDEST PUSH0 DUP2 MLOAD SWAP1 POP SWAP2 SWAP1 POP JUMP JUMPDEST PUSH0 DUP3 DUP3 MSTORE PUSH1 0x20 DUP3 ADD SWAP1 POP SWAP3 SWAP2 POP POP JUMP JUMPDEST DUP3 DUP2 DUP4 MCOPY PUSH0 DUP4 DUP4 ADD MSTORE POP POP POP JUMP JUMPDEST PUSH0 PUSH1 0x1F NOT PUSH1 0x1F DUP4 ADD AND SWAP1 POP SWAP2 SWAP1 POP JUMP JUMPDEST PUSH0 PUSH2 0x5B6 DUP3 PUSH2 0x574 JUMP JUMPDEST PUSH2 0x5C0 DUP2 DUP6 PUSH2 0x57E JUMP JUMPDEST SWAP4 POP PUSH2 0x5D0 DUP2 DUP6 PUSH1 0x20 DUP7 ADD PUSH2 0x58E JUMP JUMPDEST PUSH2 0x5D9 DUP2 PUSH2 0x59C JUMP JUMPDEST DUP5 ADD SWAP2 POP POP SWAP3 SWAP2 POP POP JUMP JUMPDEST PUSH0 PUSH1 0x20 DUP3 ADD SWAP1 POP DUP2 DUP2 SUB PUSH0 DUP4 ADD MSTORE PUSH2 0x5FC DUP2 DUP5 PUSH2 0x5AC JUMP JUMPDEST SWAP1 POP SWAP3 SWAP2 POP POP JUMP JUMPDEST PUSH0 DUP2 SWAP1 POP SWAP2 SWAP1 POP JUMP JUMPDEST PUSH2 0x616 DUP2 PUSH2 0x604 JUMP JUMPDEST DUP3 MSTORE POP POP JUMP JUMPDEST PUSH0 PUSH1 0x20 DUP3 ADD SWAP1 POP PUSH2 0x62F PUSH0 DUP4 ADD DUP5 PUSH2 0x60D JUMP JUMPDEST SWAP3 SWAP2 POP POP JUMP JUMPDEST PUSH0 PUSH1 0x40 MLOAD SWAP1 POP SWAP1 JUMP JUMPDEST PUSH0 PUSH0 REVERT JUMPDEST PUSH0 PUSH0 REVERT JUMPDEST PUSH2 0x64F DUP2 PUSH2 0x53B JUMP JUMPDEST DUP2 EQ PUSH2 0x659 JUMPI PUSH0 PUSH0 REVERT JUMPDEST POP JUMP JUMPDEST PUSH0 DUP2 CALLDATALOAD SWAP1 POP PUSH2 0x66A DUP2 PUSH2 0x646 JUMP JUMPDEST SWAP3 SWAP2 POP POP JUMP JUMPDEST PUSH0 PUSH1 0x20 DUP3 DUP5 SUB SLT ISZERO PUSH2 0x685 JUMPI PUSH2 0x684 PUSH2 0x63E JUMP JUMPDEST JUMPDEST PUSH0 PUSH2 0x692 DUP5 DUP3 DUP6 ADD PUSH2 0x65C JUMP JUMPDEST SWAP2 POP POP SWAP3 SWAP2 POP POP JUMP JUMPDEST PUSH2 0x6A4 DUP2 PUSH2 0x604 JUMP JUMPDEST DUP2 EQ PUSH2 0x6AE JUMPI PUSH0 PUSH0 REVERT JUMPDEST POP JUMP JUMPDEST PUSH0 DUP2 CALLDATALOAD SWAP1 POP PUSH2 0x6BF DUP2 PUSH2 0x69B JUMP JUMPDEST SWAP3 SWAP2 POP POP JUMP JUMPDEST PUSH0 PUSH0 PUSH1 0x40 DUP4 DUP6 SUB SLT ISZERO PUSH2 0x6DB JUMPI PUSH2 0x6DA PUSH2 0x63E JUMP JUMPDEST JUMPDEST PUSH0 PUSH2 0x6E8 DUP6 DUP3 DUP7 ADD PUSH2 0x65C JUMP JUMPDEST SWAP3 POP POP PUSH1 0x20 PUSH2 0x6F9 DUP6 DUP3 DUP7 ADD PUSH2 0x6B1 JUMP JUMPDEST SWAP2 POP POP SWAP3 POP SWAP3 SWAP1 POP JUMP JUMPDEST PUSH0 PUSH0 REVERT JUMPDEST PUSH0 PUSH0 REVERT JUMPDEST PUSH32 0x4E487B7100000000000000000000000000000000000000000000000000000000 PUSH0 MSTORE PUSH1 0x41 PUSH1 0x4 MSTORE PUSH1 0x24 PUSH0 REVERT JUMPDEST PUSH2 0x741 DUP3 PUSH2 0x59C JUMP JUMPDEST DUP2 ADD DUP2 DUP2 LT PUSH8 0xFFFFFFFFFFFFFFFF DUP3 GT OR ISZERO PUSH2 0x760 JUMPI PUSH2 0x75F PUSH2 0x70B JUMP JUMPDEST JUMPDEST DUP1 PUSH1 0x40 MSTORE POP POP POP JUMP JUMPDEST PUSH0 PUSH2 0x772 PUSH2 0x635 JUMP JUMPDEST SWAP1 POP PUSH2 0x77E DUP3 DUP3 PUSH2 0x738 JUMP JUMPDEST SWAP2 SWAP1 POP JUMP JUMPDEST PUSH0 PUSH8 0xFFFFFFFFFFFFFFFF DUP3 GT ISZERO PUSH2 0x79D JUMPI PUSH2 0x79C PUSH2 0x70B JUMP JUMPDEST JUMPDEST PUSH2 0x7A6 DUP3 PUSH2 0x59C JUMP JUMPDEST SWAP1 POP PUSH1 0x20 DUP2 ADD SWAP1 POP SWAP2 SWAP1 POP JUMP JUMPDEST DUP3 DUP2 DUP4 CALLDATACOPY PUSH0 DUP4 DUP4 ADD MSTORE POP POP POP JUMP JUMPDEST PUSH0 PUSH2 0x7D3 PUSH2 0x7CE DUP5 PUSH2 0x783 JUMP JUMPDEST PUSH2 0x769 JUMP JUMPDEST SWAP1 POP DUP3 DUP2 MSTORE PUSH1 0x20 DUP2 ADD DUP5 DUP5 DUP5 ADD GT ISZERO PUSH2 0x7EF JUMPI PUSH2 0x7EE PUSH2 0x707 JUMP JUMPDEST JUMPDEST PUSH2 0x7FA DUP5 DUP3 DUP6 PUSH2 0x7B3 JUMP JUMPDEST POP SWAP4 SWAP3 POP POP POP JUMP JUMPDEST PUSH0 DUP3 PUSH1 0x1F DUP4 ADD SLT PUSH2 0x816 JUMPI PUSH2 0x815 PUSH2 0x703 JUMP JUMPDEST JUMPDEST DUP2 CALLDATALOAD PUSH2 0x826 DUP5 DUP3 PUSH1 0x20 DUP7 ADD PUSH2 0x7C1 JUMP JUMPDEST SWAP2 POP POP SWAP3 SWAP2 POP POP JUMP JUMPDEST PUSH0 PUSH0 PUSH0 PUSH1 0x60 DUP5 DUP7 SUB SLT ISZERO PUSH2 0x846 JUMPI PUSH2 0x845 PUSH2 0x63E JUMP JUMPDEST JUMPDEST PUSH0 DUP5 ADD CALLDATALOAD PUSH8 0xFFFFFFFFFFFFFFFF DUP2 GT ISZERO PUSH2 0x863 JUMPI PUSH2 0x862 PUSH2 0x642 JUMP JUMPDEST JUMPDEST PUSH2 0x86F DUP7 DUP3 DUP8 ADD PUSH2 0x802 JUMP JUMPDEST SWAP4 POP POP PUSH1 0x20 DUP5 ADD CALLDATALOAD PUSH8 0xFFFFFFFFFFFFFFFF DUP2 GT ISZERO PUSH2 0x890 JUMPI PUSH2 0x88F PUSH2 0x642 JUMP JUMPDEST JUMPDEST PUSH2 0x89C DUP7 DUP3 DUP8 ADD PUSH2 0x802 JUMP JUMPDEST SWAP3 POP POP PUSH1 0x40 PUSH2 0x8AD DUP7 DUP3 DUP8 ADD PUSH2 0x6B1 JUMP JUMPDEST SWAP2 POP POP SWAP3 POP SWAP3 POP SWAP3 JUMP JUMPDEST PUSH32 0x4E487B7100000000000000000000000000000000000000000000000000000000 PUSH0 MSTORE PUSH1 0x22 PUSH1 0x4 MSTORE PUSH1 0x24 PUSH0 REVERT JUMPDEST PUSH0 PUSH1 0x2 DUP3 DIV SWAP1 POP PUSH1 0x1 DUP3 AND DUP1 PUSH2 0x8FB JUMPI PUSH1 0x7F DUP3 AND SWAP2 POP JUMPDEST PUSH1 0x20 DUP3 LT DUP2 SUB PUSH2 0x90E JUMPI PUSH2 0x90D PUSH2 0x8B7 JUMP JUMPDEST JUMPDEST POP SWAP2 SWAP1 POP JUMP JUMPDEST PUSH32 0x496E73756666696369656E742062616C616E6365000000000000000000000000 PUSH0 DUP3 ADD MSTORE POP JUMP JUMPDEST PUSH0 PUSH2 0x948 PUSH1 0x14 DUP4 PUSH2 0x57E JUMP JUMPDEST SWAP2 POP PUSH2 0x953 DUP3 PUSH2 0x914 JUMP JUMPDEST PUSH1 0x20 DUP3 ADD SWAP1 POP SWAP2 SWAP1 POP JUMP JUMPDEST PUSH0 PUSH1 0x20 DUP3 ADD SWAP1 POP DUP2 DUP2 SUB PUSH0 DUP4 ADD MSTORE PUSH2 0x975 DUP2 PUSH2 0x93C JUMP JUMPDEST SWAP1 POP SWAP2 SWAP1 POP JUMP JUMPDEST PUSH32 0x4E487B7100000000000000000000000000000000000000000000000000000000 PUSH0 MSTORE PUSH1 0x11 PUSH1 0x4 MSTORE PUSH1 0x24 PUSH0 REVERT JUMPDEST PUSH0 PUSH2 0x9B3 DUP3 PUSH2 0x604 JUMP JUMPDEST SWAP2 POP PUSH2 0x9BE DUP4 PUSH2 0x604 JUMP JUMPDEST SWAP3 POP DUP3 DUP3 SUB SWAP1 POP DUP2 DUP2 GT ISZERO PUSH2 0x9D6 JUMPI PUSH2 0x9D5 PUSH2 0x97C JUMP JUMPDEST JUMPDEST SWAP3 SWAP2 POP POP JUMP JUMPDEST PUSH0 PUSH2 0x9E6 DUP3 PUSH2 0x604 JUMP JUMPDEST SWAP2 POP PUSH2 0x9F1 DUP4 PUSH2 0x604 JUMP JUMPDEST SWAP3 POP DUP3 DUP3 ADD SWAP1 POP DUP1 DUP3 GT ISZERO PUSH2 0xA09 JUMPI PUSH2 0xA08 PUSH2 0x97C JUMP JUMPDEST JUMPDEST SWAP3 SWAP2 POP POP JUMP JUMPDEST PUSH32 0x416C726561647920696E697469616C697A656400000000000000000000000000 PUSH0 DUP3 ADD MSTORE POP JUMP JUMPDEST PUSH0 PUSH2 0xA43 PUSH1 0x13 DUP4 PUSH2 0x57E JUMP JUMPDEST SWAP2 POP PUSH2 0xA4E DUP3 PUSH2 0xA0F JUMP JUMPDEST PUSH1 0x20 DUP3 ADD SWAP1 POP SWAP2 SWAP1 POP JUMP JUMPDEST PUSH0 PUSH1 0x20 DUP3 ADD SWAP1 POP DUP2 DUP2 SUB PUSH0 DUP4 ADD MSTORE PUSH2 0xA70 DUP2 PUSH2 0xA37 JUMP JUMPDEST SWAP1 POP SWAP2 SWAP1 POP JUMP JUMPDEST PUSH0 DUP2 SWAP1 POP DUP2 PUSH0 MSTORE PUSH1 0x20 PUSH0 KECCAK256 SWAP1 POP SWAP2 SWAP1 POP JUMP JUMPDEST PUSH0 PUSH1 0x20 PUSH1 0x1F DUP4 ADD DIV SWAP1 POP SWAP2 SWAP1 POP JUMP JUMPDEST PUSH0 DUP3 DUP3 SHL SWAP1 POP SWAP3 SWAP2 POP POP JUMP JUMPDEST PUSH0 PUSH1 0x8 DUP4 MUL PUSH2 0xAD3 PUSH32 0xFFFFFFFFFFFFFFFFFFFFFFFFFFFFFFFFFFFFFFFFFFFFFFFFFFFFFFFFFFFFFFFF DUP3 PUSH2 0xA98 JUMP JUMPDEST PUSH2 0xADD DUP7 DUP4 PUSH2 0xA98 JUMP JUMPDEST SWAP6 POP DUP1 NOT DUP5 AND SWAP4 POP DUP1 DUP7 AND DUP5 OR SWAP3 POP POP POP SWAP4 SWAP3 POP POP POP JUMP JUMPDEST PUSH0 DUP2 SWAP1 POP SWAP2 SWAP1 POP JUMP JUMPDEST PUSH0 PUSH2 0xB18 PUSH2 0xB13 PUSH2 0xB0E DUP5 PUSH2 0x604 JUMP JUMPDEST PUSH2 0xAF5 JUMP JUMPDEST PUSH2 0x604 JUMP JUMPDEST SWAP1 POP SWAP2 SWAP1 POP JUMP JUMPDEST PUSH0 DUP2 SWAP1 POP SWAP2 SWAP1 POP JUMP JUMPDEST PUSH2 0xB31 DUP4 PUSH2 0xAFE JUMP JUMPDEST PUSH2 0xB45 PUSH2 0xB3D DUP3 PUSH2 0xB1F JUMP JUMPDEST DUP5 DUP5 SLOAD PUSH2 0xAA4 JUMP JUMPDEST DUP3 SSTORE POP POP POP POP JUMP JUMPDEST PUSH0 PUSH0 SWAP1 POP SWAP1 JUMP JUMPDEST PUSH2 0xB5C PUSH2 0xB4D JUMP JUMPDEST PUSH2 0xB67 DUP2 DUP5 DUP5 PUSH2 0xB28 JUMP JUMPDEST POP POP POP JUMP JUMPDEST JUMPDEST DUP2 DUP2 LT ISZERO PUSH2 0xB8A JUMPI PUSH2 0xB7F PUSH0 DUP3 PUSH2 0xB54 JUMP JUMPDEST PUSH1 0x1 DUP2 ADD SWAP1 POP PUSH2 0xB6D JUMP JUMPDEST POP POP JUMP JUMPDEST PUSH1 0x1F DUP3 GT ISZERO PUSH2 0xBCF JUMPI PUSH2 0xBA0 DUP2 PUSH2 0xA77 JUMP JUMPDEST PUSH2 0xBA9 DUP5 PUSH2 0xA89 JUMP JUMPDEST DUP2 ADD PUSH1 0x20 DUP6 LT ISZERO PUSH2 0xBB8 JUMPI DUP2 SWAP1 POP JUMPDEST PUSH2 0xBCC PUSH2 0xBC4 DUP6 PUSH2 0xA89 JUMP JUMPDEST DUP4 ADD DUP3 PUSH2 0xB6C JUMP JUMPDEST POP POP JUMPDEST POP POP POP JUMP JUMPDEST PUSH0 DUP3 DUP3 SHR SWAP1 POP SWAP3 SWAP2 POP POP JUMP JUMPDEST PUSH0 PUSH2 0xBEF PUSH0 NOT DUP5 PUSH1 0x8 MUL PUSH2 0xBD4 JUMP JUMPDEST NOT DUP1 DUP4 AND SWAP2 POP POP SWAP3 SWAP2 POP POP JUMP JUMPDEST PUSH0 PUSH2 0xC07 DUP4 DUP4 PUSH2 0xBE0 JUMP JUMPDEST SWAP2 POP DUP3 PUSH1 0x2 MUL DUP3 OR SWAP1 POP SWAP3 SWAP2 POP POP JUMP JUMPDEST PUSH2 0xC20 DUP3 PUSH2 0x574 JUMP JUMPDEST PUSH8 0xFFFFFFFFFFFFFFFF DUP2 GT ISZERO PUSH2 0xC39 JUMPI PUSH2 0xC38 PUSH2 0x70B JUMP JUMPDEST JUMPDEST PUSH2 0xC43 DUP3 SLOAD PUSH2 0x8E4 JUMP JUMPDEST PUSH2 0xC4E DUP3 DUP3 DUP6 PUSH2 0xB8E JUMP JUMPDEST PUSH0 PUSH1 0x20 SWAP1 POP PUSH1 0x1F DUP4 GT PUSH1 0x1 DUP2 EQ PUSH2 0xC7F JUMPI PUSH0 DUP5 ISZERO PUSH2 0xC6D JUMPI DUP3 DUP8 ADD MLOAD SWAP1 POP JUMPDEST PUSH2 0xC77 DUP6 DUP3 PUSH2 0xBFC JUMP JUMPDEST DUP7 SSTORE POP PUSH2 0xCDE JUMP JUMPDEST PUSH1 0x1F NOT DUP5 AND PUSH2 0xC8D DUP7 PUSH2 0xA77 JUMP JUMPDEST PUSH0 JUMPDEST DUP3 DUP2 LT ISZERO PUSH2 0xCB4 JUMPI DUP5 DUP10 ADD MLOAD DUP3 SSTORE PUSH1 0x1 DUP3 ADD SWAP2 POP PUSH1 0x20 DUP6 ADD SWAP5 POP PUSH1 0x20 DUP2 ADD SWAP1 POP PUSH2 0xC8F JUMP JUMPDEST DUP7 DUP4 LT ISZERO PUSH2 0xCD1 JUMPI DUP5 DUP10 ADD MLOAD PUSH2 0xCCD PUSH1 0x1F DUP10 AND DUP3 PUSH2 0xBE0 JUMP JUMPDEST DUP4 SSTORE POP JUMPDEST PUSH1 0x1 PUSH1 0x2 DUP9 MUL ADD DUP9 SSTORE POP POP POP JUMPDEST POP POP POP POP POP POP JUMP INVALID LOG2 PUSH5 0x6970667358 0x22 SLT KECCAK256 SWAP12 0x21 XOR 0xDD REVERT SHL 0xB7 SWAP5 SWAP13 0xC4 SWAP11 0xF SWAP11 0xE2 BYTE 0xD ISZERO 0xC6 0xC8 SHL PUSH22 0xC78A7F9FCAE90B88920B8864736F6C634300081E0033 "
				},
				"gasEstimates": {
					"creation": {
						"codeDepositCost": "472000",
						"executionCost": "infinite",
						"totalCost": "infinite"
					},
					"external": {
						"clones(uint256)": "4922",
						"createClone(string,string,uint256)": "infinite",
						"implementation()": "2529",
						"userClones(address,uint256)": "infinite"
					},
					"internal": {
						"getCloneBytecode()": "infinite"
					}
				},
				"methodIdentifiers": {
					"clones(uint256)": "0e039916",
					"createClone(string,string,uint256)": "175453e0",
					"implementation()": "5c60da1b",
					"userClones(address,uint256)": "869ac8cc"
				}
			},
			"storageLayout": {
				"storage": [
					{
						"astId": 92,
						"contract": "contracts/lesson9.2/CloneFactory.sol:CloneFactory",
						"label": "implementation",
						"offset": 0,
						"slot": "0",
						"type": "t_address"
					},
					{
						"astId": 95,
						"contract": "contracts/lesson9.2/CloneFactory.sol:CloneFactory",
						"label": "clones",
						"offset": 0,
						"slot": "1",
						"type": "t_array(t_address)dyn_storage"
					},
					{
						"astId": 100,
						"contract": "contracts/lesson9.2/CloneFactory.sol:CloneFactory",
						"label": "userClones",
						"offset": 0,
						"slot": "2",
						"type": "t_mapping(t_address,t_array(t_address)dyn_storage)"
					}
				],
				"types": {
					"t_address": {
						"encoding": "inplace",
						"label": "address",
						"numberOfBytes": "20"
					},
					"t_array(t_address)dyn_storage": {
						"base": "t_address",
						"encoding": "dynamic_array",
						"label": "address[]",
						"numberOfBytes": "32"
					},
					"t_mapping(t_address,t_array(t_address)dyn_storage)": {
						"encoding": "mapping",
						"key": "t_address",
						"label": "mapping(address => address[])",
						"numberOfBytes": "32",
						"value": "t_array(t_address)dyn_storage"
					}
				}
			},
			"userdoc": {
				"kind": "user",
				"methods": {
					"constructor": {
						"notice": "构造函数：部署模板合约"
					},
					"createClone(string,string,uint256)": {
						"notice": "创建克隆"
					}
				},
				"version": 1
			}
		}
	}
}