{
	"contracts/reviewCalls 8.1/calls.sol": {
		"Caller": {
			"abi": [
				{
					"anonymous": false,
					"inputs": [
						{
							"indexed": false,
							"internalType": "string",
							"name": "method",
							"type": "string"
						},
						{
							"indexed": false,
							"internalType": "bool",
							"name": "success",
							"type": "bool"
						},
						{
							"indexed": false,
							"internalType": "uint256",
							"name": "value",
							"type": "uint256"
						},
						{
							"indexed": false,
							"internalType": "address",
							"name": "sender",
							"type": "address"
						}
					],
					"name": "CallResult",
					"type": "event"
				},
				{
					"inputs": [],
					"name": "sender",
					"outputs": [
						{
							"internalType": "address",
							"name": "",
							"type": "address"
						}
					],
					"stateMutability": "view",
					"type": "function"
				},
				{
					"inputs": [
						{
							"internalType": "address",
							"name": "target",
							"type": "address"
						},
						{
							"internalType": "uint256",
							"name": "newValue",
							"type": "uint256"
						}
					],
					"name": "testCall",
					"outputs": [],
					"stateMutability": "nonpayable",
					"type": "function"
				},
				{
					"inputs": [
						{
							"internalType": "address",
							"name": "target",
							"type": "address"
						},
						{
							"internalType": "uint256",
							"name": "newValue",
							"type": "uint256"
						}
					],
					"name": "testDelegatecall",
					"outputs": [],
					"stateMutability": "nonpayable",
					"type": "function"
				},
				{
					"inputs": [
						{
							"internalType": "address",
							"name": "target",
							"type": "address"
						}
					],
					"name": "testStaticcall",
					"outputs": [
						{
							"internalType": "uint256",
							"name": "",
							"type": "uint256"
						}
					],
					"stateMutability": "view",
					"type": "function"
				},
				{
					"inputs": [],
					"name": "value",
					"outputs": [
						{
							"internalType": "uint256",
							"name": "",
							"type": "uint256"
						}
					],
					"stateMutability": "view",
					"type": "function"
				}
			],
			"devdoc": {
				"kind": "dev",
				"methods": {
					"testCall(address,uint256)": {
						"details": "call在目标合约的上下文中执行，修改目标合约的状态"
					},
					"testDelegatecall(address,uint256)": {
						"details": "delegatecall在调用者的上下文中执行，修改调用者的状态"
					},
					"testStaticcall(address)": {
						"details": "staticcall只能调用view/pure函数，不能修改状态"
					}
				},
				"version": 1
			},
			"evm": {
				"assembly": "    /* \"contracts/reviewCalls 8.1/calls.sol\":623:3644  contract Caller {... */\n  mstore(0x40, 0x80)\n  callvalue\n  dup1\n  iszero\n  tag_1\n  jumpi\n  revert(0x00, 0x00)\ntag_1:\n  pop\n  dataSize(sub_0)\n  dup1\n  dataOffset(sub_0)\n  0x00\n  codecopy\n  0x00\n  return\nstop\n\nsub_0: assembly {\n        /* \"contracts/reviewCalls 8.1/calls.sol\":623:3644  contract Caller {... */\n      mstore(0x40, 0x80)\n      callvalue\n      dup1\n      iszero\n      tag_1\n      jumpi\n      revert(0x00, 0x00)\n    tag_1:\n      pop\n      jumpi(tag_2, lt(calldatasize, 0x04))\n      shr(0xe0, calldataload(0x00))\n      dup1\n      0x2d0bb8b8\n      eq\n      tag_3\n      jumpi\n      dup1\n      0x3fa4f245\n      eq\n      tag_4\n      jumpi\n      dup1\n      0x59c75ada\n      eq\n      tag_5\n      jumpi\n      dup1\n      0x67e404ce\n      eq\n      tag_6\n      jumpi\n      dup1\n      0xba65fc09\n      eq\n      tag_7\n      jumpi\n    tag_2:\n      revert(0x00, 0x00)\n        /* \"contracts/reviewCalls 8.1/calls.sol\":2032:2986  function testDelegatecall(address target, uint256 newValue) external {... */\n    tag_3:\n      tag_8\n      0x04\n      dup1\n      calldatasize\n      sub\n      dup2\n      add\n      swap1\n      tag_9\n      swap2\n      swap1\n      tag_10\n      jump\t// in\n    tag_9:\n      tag_11\n      jump\t// in\n    tag_8:\n      stop\n        /* \"contracts/reviewCalls 8.1/calls.sol\":679:699  uint256 public value */\n    tag_4:\n      tag_12\n      tag_13\n      jump\t// in\n    tag_12:\n      mload(0x40)\n      tag_14\n      swap2\n      swap1\n      tag_15\n      jump\t// in\n    tag_14:\n      mload(0x40)\n      dup1\n      swap2\n      sub\n      swap1\n      return\n        /* \"contracts/reviewCalls 8.1/calls.sol\":970:1869  function testCall(address target, uint256 newValue) external {... */\n    tag_5:\n      tag_16\n      0x04\n      dup1\n      calldatasize\n      sub\n      dup2\n      add\n      swap1\n      tag_17\n      swap2\n      swap1\n      tag_10\n      jump\t// in\n    tag_17:\n      tag_18\n      jump\t// in\n    tag_16:\n      stop\n        /* \"contracts/reviewCalls 8.1/calls.sol\":706:727  address public sender */\n    tag_6:\n      tag_19\n      tag_20\n      jump\t// in\n    tag_19:\n      mload(0x40)\n      tag_21\n      swap2\n      swap1\n      tag_22\n      jump\t// in\n    tag_21:\n      mload(0x40)\n      dup1\n      swap2\n      sub\n      swap1\n      return\n        /* \"contracts/reviewCalls 8.1/calls.sol\":3133:3641  function testStaticcall(address target) external view returns (uint256) {... */\n    tag_7:\n      tag_23\n      0x04\n      dup1\n      calldatasize\n      sub\n      dup2\n      add\n      swap1\n      tag_24\n      swap2\n      swap1\n      tag_25\n      jump\t// in\n    tag_24:\n      tag_26\n      jump\t// in\n    tag_23:\n      mload(0x40)\n      tag_27\n      swap2\n      swap1\n      tag_15\n      jump\t// in\n    tag_27:\n      mload(0x40)\n      dup1\n      swap2\n      sub\n      swap1\n      return\n        /* \"contracts/reviewCalls 8.1/calls.sol\":2032:2986  function testDelegatecall(address target, uint256 newValue) external {... */\n    tag_11:\n        /* \"contracts/reviewCalls 8.1/calls.sol\":2149:2174  uint256 callerValueBefore */\n      0x00\n        /* \"contracts/reviewCalls 8.1/calls.sol\":2177:2182  value */\n      sload(0x00)\n        /* \"contracts/reviewCalls 8.1/calls.sol\":2149:2182  uint256 callerValueBefore = value */\n      swap1\n      pop\n        /* \"contracts/reviewCalls 8.1/calls.sol\":2193:2218  uint256 targetValueBefore */\n      0x00\n        /* \"contracts/reviewCalls 8.1/calls.sol\":2228:2234  target */\n      dup4\n        /* \"contracts/reviewCalls 8.1/calls.sol\":2221:2241  Target(target).value */\n      0xffffffffffffffffffffffffffffffffffffffff\n      and\n      0x3fa4f245\n        /* \"contracts/reviewCalls 8.1/calls.sol\":2221:2243  Target(target).value() */\n      mload(0x40)\n      dup2\n      0xffffffff\n      and\n      0xe0\n      shl\n      dup2\n      mstore\n      0x04\n      add\n      0x20\n      mload(0x40)\n      dup1\n      dup4\n      sub\n      dup2\n      dup7\n      gas\n      staticcall\n      iszero\n      dup1\n      iszero\n      tag_30\n      jumpi\n      returndatacopy(0x00, 0x00, returndatasize)\n      revert(0x00, returndatasize)\n    tag_30:\n      pop\n      pop\n      pop\n      pop\n      mload(0x40)\n      returndatasize\n      not(0x1f)\n      0x1f\n      dup3\n      add\n      and\n      dup3\n      add\n      dup1\n      0x40\n      mstore\n      pop\n      dup2\n      add\n      swap1\n      tag_31\n      swap2\n      swap1\n      tag_32\n      jump\t// in\n    tag_31:\n        /* \"contracts/reviewCalls 8.1/calls.sol\":2193:2243  uint256 targetValueBefore = Target(target).value() */\n      swap1\n      pop\n        /* \"contracts/reviewCalls 8.1/calls.sol\":2331:2343  bool success */\n      0x00\n        /* \"contracts/reviewCalls 8.1/calls.sol\":2349:2355  target */\n      dup5\n        /* \"contracts/reviewCalls 8.1/calls.sol\":2349:2368  target.delegatecall */\n      0xffffffffffffffffffffffffffffffffffffffff\n      and\n        /* \"contracts/reviewCalls 8.1/calls.sol\":2428:2436  newValue */\n      dup5\n        /* \"contracts/reviewCalls 8.1/calls.sol\":2383:2437  abi.encodeWithSignature(\"setValue(uint256)\", newValue) */\n      add(0x24, mload(0x40))\n      tag_33\n      swap2\n      swap1\n      tag_15\n      jump\t// in\n    tag_33:\n      mload(0x40)\n      0x20\n      dup2\n      dup4\n      sub\n      sub\n      dup2\n      mstore\n      swap1\n      0x40\n      mstore\n      and(not(0xffffffffffffffffffffffffffffffffffffffffffffffffffffffff), 0x5524107700000000000000000000000000000000000000000000000000000000)\n      0x20\n      dup3\n      add\n      dup1\n      mload\n      0xffffffffffffffffffffffffffffffffffffffffffffffffffffffff\n      dup4\n      dup2\n      dup4\n      and\n      or\n      dup4\n      mstore\n      pop\n      pop\n      pop\n      pop\n        /* \"contracts/reviewCalls 8.1/calls.sol\":2349:2448  target.delegatecall(... */\n      mload(0x40)\n      tag_34\n      swap2\n      swap1\n      tag_35\n      jump\t// in\n    tag_34:\n      0x00\n      mload(0x40)\n      dup1\n      dup4\n      sub\n      dup2\n      dup6\n      gas\n      delegatecall\n      swap2\n      pop\n      pop\n      returndatasize\n      dup1\n      0x00\n      dup2\n      eq\n      tag_38\n      jumpi\n      mload(0x40)\n      swap2\n      pop\n      and(add(returndatasize, 0x3f), not(0x1f))\n      dup3\n      add\n      0x40\n      mstore\n      returndatasize\n      dup3\n      mstore\n      returndatasize\n      0x00\n      0x20\n      dup5\n      add\n      returndatacopy\n      jump(tag_37)\n    tag_38:\n      0x60\n      swap2\n      pop\n    tag_37:\n      pop\n        /* \"contracts/reviewCalls 8.1/calls.sol\":2330:2448  (bool success, ) = target.delegatecall(... */\n      pop\n      swap1\n      pop\n        /* \"contracts/reviewCalls 8.1/calls.sol\":2467:2474  success */\n      dup1\n        /* \"contracts/reviewCalls 8.1/calls.sol\":2459:2498  require(success, \"Delegatecall failed\") */\n      tag_39\n      jumpi\n      mload(0x40)\n      0x08c379a000000000000000000000000000000000000000000000000000000000\n      dup2\n      mstore\n      0x04\n      add\n      tag_40\n      swap1\n      tag_41\n      jump\t// in\n    tag_40:\n      mload(0x40)\n      dup1\n      swap2\n      sub\n      swap1\n      revert\n    tag_39:\n        /* \"contracts/reviewCalls 8.1/calls.sol\":2550:2574  uint256 callerValueAfter */\n      0x00\n        /* \"contracts/reviewCalls 8.1/calls.sol\":2577:2582  value */\n      sload(0x00)\n        /* \"contracts/reviewCalls 8.1/calls.sol\":2550:2582  uint256 callerValueAfter = value */\n      swap1\n      pop\n        /* \"contracts/reviewCalls 8.1/calls.sol\":2593:2617  uint256 targetValueAfter */\n      0x00\n        /* \"contracts/reviewCalls 8.1/calls.sol\":2627:2633  target */\n      dup7\n        /* \"contracts/reviewCalls 8.1/calls.sol\":2620:2640  Target(target).value */\n      0xffffffffffffffffffffffffffffffffffffffff\n      and\n      0x3fa4f245\n        /* \"contracts/reviewCalls 8.1/calls.sol\":2620:2642  Target(target).value() */\n      mload(0x40)\n      dup2\n      0xffffffff\n      and\n      0xe0\n      shl\n      dup2\n      mstore\n      0x04\n      add\n      0x20\n      mload(0x40)\n      dup1\n      dup4\n      sub\n      dup2\n      dup7\n      gas\n      staticcall\n      iszero\n      dup1\n      iszero\n      tag_43\n      jumpi\n      returndatacopy(0x00, 0x00, returndatasize)\n      revert(0x00, returndatasize)\n    tag_43:\n      pop\n      pop\n      pop\n      pop\n      mload(0x40)\n      returndatasize\n      not(0x1f)\n      0x1f\n      dup3\n      add\n      and\n      dup3\n      add\n      dup1\n      0x40\n      mstore\n      pop\n      dup2\n      add\n      swap1\n      tag_44\n      swap2\n      swap1\n      tag_32\n      jump\t// in\n    tag_44:\n        /* \"contracts/reviewCalls 8.1/calls.sol\":2593:2642  uint256 targetValueAfter = Target(target).value() */\n      swap1\n      pop\n        /* \"contracts/reviewCalls 8.1/calls.sol\":2765:2978  CallResult(... */\n      0x129de0e46985680c7cb4faba48ed41798382c6cfe85efbe6b9feb961e4dc1e1e\n        /* \"contracts/reviewCalls 8.1/calls.sol\":2819:2826  success */\n      dup4\n        /* \"contracts/reviewCalls 8.1/calls.sol\":2841:2857  callerValueAfter */\n      dup4\n        /* \"contracts/reviewCalls 8.1/calls.sol\":2901:2907  sender */\n      0x01\n      0x00\n      swap1\n      sload\n      swap1\n      0x0100\n      exp\n      swap1\n      div\n      0xffffffffffffffffffffffffffffffffffffffff\n      and\n        /* \"contracts/reviewCalls 8.1/calls.sol\":2765:2978  CallResult(... */\n      mload(0x40)\n      tag_45\n      swap4\n      swap3\n      swap2\n      swap1\n      tag_46\n      jump\t// in\n    tag_45:\n      mload(0x40)\n      dup1\n      swap2\n      sub\n      swap1\n      log1\n        /* \"contracts/reviewCalls 8.1/calls.sol\":2101:2986  {... */\n      pop\n      pop\n      pop\n      pop\n      pop\n        /* \"contracts/reviewCalls 8.1/calls.sol\":2032:2986  function testDelegatecall(address target, uint256 newValue) external {... */\n      pop\n      pop\n      jump\t// out\n        /* \"contracts/reviewCalls 8.1/calls.sol\":679:699  uint256 public value */\n    tag_13:\n      sload(0x00)\n      dup2\n      jump\t// out\n        /* \"contracts/reviewCalls 8.1/calls.sol\":970:1869  function testCall(address target, uint256 newValue) external {... */\n    tag_18:\n        /* \"contracts/reviewCalls 8.1/calls.sol\":1079:1104  uint256 callerValueBefore */\n      0x00\n        /* \"contracts/reviewCalls 8.1/calls.sol\":1107:1112  value */\n      sload(0x00)\n        /* \"contracts/reviewCalls 8.1/calls.sol\":1079:1112  uint256 callerValueBefore = value */\n      swap1\n      pop\n        /* \"contracts/reviewCalls 8.1/calls.sol\":1123:1148  uint256 targetValueBefore */\n      0x00\n        /* \"contracts/reviewCalls 8.1/calls.sol\":1158:1164  target */\n      dup4\n        /* \"contracts/reviewCalls 8.1/calls.sol\":1151:1171  Target(target).value */\n      0xffffffffffffffffffffffffffffffffffffffff\n      and\n      0x3fa4f245\n        /* \"contracts/reviewCalls 8.1/calls.sol\":1151:1173  Target(target).value() */\n      mload(0x40)\n      dup2\n      0xffffffff\n      and\n      0xe0\n      shl\n      dup2\n      mstore\n      0x04\n      add\n      0x20\n      mload(0x40)\n      dup1\n      dup4\n      sub\n      dup2\n      dup7\n      gas\n      staticcall\n      iszero\n      dup1\n      iszero\n      tag_49\n      jumpi\n      returndatacopy(0x00, 0x00, returndatasize)\n      revert(0x00, returndatasize)\n    tag_49:\n      pop\n      pop\n      pop\n      pop\n      mload(0x40)\n      returndatasize\n      not(0x1f)\n      0x1f\n      dup3\n      add\n      and\n      dup3\n      add\n      dup1\n      0x40\n      mstore\n      pop\n      dup2\n      add\n      swap1\n      tag_50\n      swap2\n      swap1\n      tag_32\n      jump\t// in\n    tag_50:\n        /* \"contracts/reviewCalls 8.1/calls.sol\":1123:1173  uint256 targetValueBefore = Target(target).value() */\n      swap1\n      pop\n        /* \"contracts/reviewCalls 8.1/calls.sol\":1253:1265  bool success */\n      0x00\n        /* \"contracts/reviewCalls 8.1/calls.sol\":1271:1277  target */\n      dup5\n        /* \"contracts/reviewCalls 8.1/calls.sol\":1271:1282  target.call */\n      0xffffffffffffffffffffffffffffffffffffffff\n      and\n        /* \"contracts/reviewCalls 8.1/calls.sol\":1342:1350  newValue */\n      dup5\n        /* \"contracts/reviewCalls 8.1/calls.sol\":1297:1351  abi.encodeWithSignature(\"setValue(uint256)\", newValue) */\n      add(0x24, mload(0x40))\n      tag_51\n      swap2\n      swap1\n      tag_15\n      jump\t// in\n    tag_51:\n      mload(0x40)\n      0x20\n      dup2\n      dup4\n      sub\n      sub\n      dup2\n      mstore\n      swap1\n      0x40\n      mstore\n      and(not(0xffffffffffffffffffffffffffffffffffffffffffffffffffffffff), 0x5524107700000000000000000000000000000000000000000000000000000000)\n      0x20\n      dup3\n      add\n      dup1\n      mload\n      0xffffffffffffffffffffffffffffffffffffffffffffffffffffffff\n      dup4\n      dup2\n      dup4\n      and\n      or\n      dup4\n      mstore\n      pop\n      pop\n      pop\n      pop\n        /* \"contracts/reviewCalls 8.1/calls.sol\":1271:1362  target.call(... */\n      mload(0x40)\n      tag_52\n      swap2\n      swap1\n      tag_35\n      jump\t// in\n    tag_52:\n      0x00\n      mload(0x40)\n      dup1\n      dup4\n      sub\n      dup2\n      0x00\n      dup7\n      gas\n      call\n      swap2\n      pop\n      pop\n      returndatasize\n      dup1\n      0x00\n      dup2\n      eq\n      tag_55\n      jumpi\n      mload(0x40)\n      swap2\n      pop\n      and(add(returndatasize, 0x3f), not(0x1f))\n      dup3\n      add\n      0x40\n      mstore\n      returndatasize\n      dup3\n      mstore\n      returndatasize\n      0x00\n      0x20\n      dup5\n      add\n      returndatacopy\n      jump(tag_54)\n    tag_55:\n      0x60\n      swap2\n      pop\n    tag_54:\n      pop\n        /* \"contracts/reviewCalls 8.1/calls.sol\":1252:1362  (bool success, ) = target.call(... */\n      pop\n      swap1\n      pop\n        /* \"contracts/reviewCalls 8.1/calls.sol\":1381:1388  success */\n      dup1\n        /* \"contracts/reviewCalls 8.1/calls.sol\":1373:1404  require(success, \"Call failed\") */\n      tag_56\n      jumpi\n      mload(0x40)\n      0x08c379a000000000000000000000000000000000000000000000000000000000\n      dup2\n      mstore\n      0x04\n      add\n      tag_57\n      swap1\n      tag_58\n      jump\t// in\n    tag_57:\n      mload(0x40)\n      dup1\n      swap2\n      sub\n      swap1\n      revert\n    tag_56:\n        /* \"contracts/reviewCalls 8.1/calls.sol\":1456:1480  uint256 callerValueAfter */\n      0x00\n        /* \"contracts/reviewCalls 8.1/calls.sol\":1483:1488  value */\n      sload(0x00)\n        /* \"contracts/reviewCalls 8.1/calls.sol\":1456:1488  uint256 callerValueAfter = value */\n      swap1\n      pop\n        /* \"contracts/reviewCalls 8.1/calls.sol\":1499:1523  uint256 targetValueAfter */\n      0x00\n        /* \"contracts/reviewCalls 8.1/calls.sol\":1533:1539  target */\n      dup7\n        /* \"contracts/reviewCalls 8.1/calls.sol\":1526:1546  Target(target).value */\n      0xffffffffffffffffffffffffffffffffffffffff\n      and\n      0x3fa4f245\n        /* \"contracts/reviewCalls 8.1/calls.sol\":1526:1548  Target(target).value() */\n      mload(0x40)\n      dup2\n      0xffffffff\n      and\n      0xe0\n      shl\n      dup2\n      mstore\n      0x04\n      add\n      0x20\n      mload(0x40)\n      dup1\n      dup4\n      sub\n      dup2\n      dup7\n      gas\n      staticcall\n      iszero\n      dup1\n      iszero\n      tag_60\n      jumpi\n      returndatacopy(0x00, 0x00, returndatasize)\n      revert(0x00, returndatasize)\n    tag_60:\n      pop\n      pop\n      pop\n      pop\n      mload(0x40)\n      returndatasize\n      not(0x1f)\n      0x1f\n      dup3\n      add\n      and\n      dup3\n      add\n      dup1\n      0x40\n      mstore\n      pop\n      dup2\n      add\n      swap1\n      tag_61\n      swap2\n      swap1\n      tag_32\n      jump\t// in\n    tag_61:\n        /* \"contracts/reviewCalls 8.1/calls.sol\":1499:1548  uint256 targetValueAfter = Target(target).value() */\n      swap1\n      pop\n        /* \"contracts/reviewCalls 8.1/calls.sol\":1663:1861  CallResult(... */\n      0x129de0e46985680c7cb4faba48ed41798382c6cfe85efbe6b9feb961e4dc1e1e\n        /* \"contracts/reviewCalls 8.1/calls.sol\":1709:1716  success */\n      dup4\n        /* \"contracts/reviewCalls 8.1/calls.sol\":1731:1747  targetValueAfter */\n      dup3\n        /* \"contracts/reviewCalls 8.1/calls.sol\":1801:1807  target */\n      dup10\n        /* \"contracts/reviewCalls 8.1/calls.sol\":1794:1815  Target(target).sender */\n      0xffffffffffffffffffffffffffffffffffffffff\n      and\n      0x67e404ce\n        /* \"contracts/reviewCalls 8.1/calls.sol\":1794:1817  Target(target).sender() */\n      mload(0x40)\n      dup2\n      0xffffffff\n      and\n      0xe0\n      shl\n      dup2\n      mstore\n      0x04\n      add\n      0x20\n      mload(0x40)\n      dup1\n      dup4\n      sub\n      dup2\n      dup7\n      gas\n      staticcall\n      iszero\n      dup1\n      iszero\n      tag_63\n      jumpi\n      returndatacopy(0x00, 0x00, returndatasize)\n      revert(0x00, returndatasize)\n    tag_63:\n      pop\n      pop\n      pop\n      pop\n      mload(0x40)\n      returndatasize\n      not(0x1f)\n      0x1f\n      dup3\n      add\n      and\n      dup3\n      add\n      dup1\n      0x40\n      mstore\n      pop\n      dup2\n      add\n      swap1\n      tag_64\n      swap2\n      swap1\n      tag_65\n      jump\t// in\n    tag_64:\n        /* \"contracts/reviewCalls 8.1/calls.sol\":1663:1861  CallResult(... */\n      mload(0x40)\n      tag_66\n      swap4\n      swap3\n      swap2\n      swap1\n      tag_67\n      jump\t// in\n    tag_66:\n      mload(0x40)\n      dup1\n      swap2\n      sub\n      swap1\n      log1\n        /* \"contracts/reviewCalls 8.1/calls.sol\":1031:1869  {... */\n      pop\n      pop\n      pop\n      pop\n      pop\n        /* \"contracts/reviewCalls 8.1/calls.sol\":970:1869  function testCall(address target, uint256 newValue) external {... */\n      pop\n      pop\n      jump\t// out\n        /* \"contracts/reviewCalls 8.1/calls.sol\":706:727  address public sender */\n    tag_20:\n      0x01\n      0x00\n      swap1\n      sload\n      swap1\n      0x0100\n      exp\n      swap1\n      div\n      0xffffffffffffffffffffffffffffffffffffffff\n      and\n      dup2\n      jump\t// out\n        /* \"contracts/reviewCalls 8.1/calls.sol\":3133:3641  function testStaticcall(address target) external view returns (uint256) {... */\n    tag_26:\n        /* \"contracts/reviewCalls 8.1/calls.sol\":3196:3203  uint256 */\n      0x00\n        /* \"contracts/reviewCalls 8.1/calls.sol\":3262:3274  bool success */\n      0x00\n        /* \"contracts/reviewCalls 8.1/calls.sol\":3276:3299  bytes memory returnData */\n      0x00\n        /* \"contracts/reviewCalls 8.1/calls.sol\":3303:3309  target */\n      dup4\n        /* \"contracts/reviewCalls 8.1/calls.sol\":3303:3320  target.staticcall */\n      0xffffffffffffffffffffffffffffffffffffffff\n      and\n        /* \"contracts/reviewCalls 8.1/calls.sol\":3335:3372  abi.encodeWithSignature(\"getValue()\") */\n      add(0x24, mload(0x40))\n      mload(0x40)\n      0x20\n      dup2\n      dup4\n      sub\n      sub\n      dup2\n      mstore\n      swap1\n      0x40\n      mstore\n      and(not(0xffffffffffffffffffffffffffffffffffffffffffffffffffffffff), 0x2096525500000000000000000000000000000000000000000000000000000000)\n      0x20\n      dup3\n      add\n      dup1\n      mload\n      0xffffffffffffffffffffffffffffffffffffffffffffffffffffffff\n      dup4\n      dup2\n      dup4\n      and\n      or\n      dup4\n      mstore\n      pop\n      pop\n      pop\n      pop\n        /* \"contracts/reviewCalls 8.1/calls.sol\":3303:3383  target.staticcall(... */\n      mload(0x40)\n      tag_69\n      swap2\n      swap1\n      tag_35\n      jump\t// in\n    tag_69:\n      0x00\n      mload(0x40)\n      dup1\n      dup4\n      sub\n      dup2\n      dup6\n      gas\n      staticcall\n      swap2\n      pop\n      pop\n      returndatasize\n      dup1\n      0x00\n      dup2\n      eq\n      tag_72\n      jumpi\n      mload(0x40)\n      swap2\n      pop\n      and(add(returndatasize, 0x3f), not(0x1f))\n      dup3\n      add\n      0x40\n      mstore\n      returndatasize\n      dup3\n      mstore\n      returndatasize\n      0x00\n      0x20\n      dup5\n      add\n      returndatacopy\n      jump(tag_71)\n    tag_72:\n      0x60\n      swap2\n      pop\n    tag_71:\n      pop\n        /* \"contracts/reviewCalls 8.1/calls.sol\":3261:3383  (bool success, bytes memory returnData) = target.staticcall(... */\n      swap2\n      pop\n      swap2\n      pop\n        /* \"contracts/reviewCalls 8.1/calls.sol\":3402:3409  success */\n      dup2\n        /* \"contracts/reviewCalls 8.1/calls.sol\":3394:3431  require(success, \"Staticcall failed\") */\n      tag_73\n      jumpi\n      mload(0x40)\n      0x08c379a000000000000000000000000000000000000000000000000000000000\n      dup2\n      mstore\n      0x04\n      add\n      tag_74\n      swap1\n      tag_75\n      jump\t// in\n    tag_74:\n      mload(0x40)\n      dup1\n      swap2\n      sub\n      swap1\n      revert\n    tag_73:\n        /* \"contracts/reviewCalls 8.1/calls.sol\":3480:3493  uint256 value */\n      0x00\n        /* \"contracts/reviewCalls 8.1/calls.sol\":3507:3517  returnData */\n      dup2\n        /* \"contracts/reviewCalls 8.1/calls.sol\":3496:3529  abi.decode(returnData, (uint256)) */\n      dup1\n      0x20\n      add\n      swap1\n      mload\n      dup2\n      add\n      swap1\n      tag_76\n      swap2\n      swap1\n      tag_32\n      jump\t// in\n    tag_76:\n        /* \"contracts/reviewCalls 8.1/calls.sol\":3480:3529  uint256 value = abi.decode(returnData, (uint256)) */\n      swap1\n      pop\n        /* \"contracts/reviewCalls 8.1/calls.sol\":3628:3633  value */\n      dup1\n        /* \"contracts/reviewCalls 8.1/calls.sol\":3621:3633  return value */\n      swap4\n      pop\n      pop\n      pop\n      pop\n        /* \"contracts/reviewCalls 8.1/calls.sol\":3133:3641  function testStaticcall(address target) external view returns (uint256) {... */\n      swap2\n      swap1\n      pop\n      jump\t// out\n        /* \"#utility.yul\":88:205   */\n    tag_78:\n        /* \"#utility.yul\":197:198   */\n      0x00\n        /* \"#utility.yul\":194:195   */\n      0x00\n        /* \"#utility.yul\":187:199   */\n      revert\n        /* \"#utility.yul\":334:460   */\n    tag_80:\n        /* \"#utility.yul\":371:378   */\n      0x00\n        /* \"#utility.yul\":411:453   */\n      0xffffffffffffffffffffffffffffffffffffffff\n        /* \"#utility.yul\":404:409   */\n      dup3\n        /* \"#utility.yul\":400:454   */\n      and\n        /* \"#utility.yul\":389:454   */\n      swap1\n      pop\n        /* \"#utility.yul\":334:460   */\n      swap2\n      swap1\n      pop\n      jump\t// out\n        /* \"#utility.yul\":466:562   */\n    tag_81:\n        /* \"#utility.yul\":503:510   */\n      0x00\n        /* \"#utility.yul\":532:556   */\n      tag_114\n        /* \"#utility.yul\":550:555   */\n      dup3\n        /* \"#utility.yul\":532:556   */\n      tag_80\n      jump\t// in\n    tag_114:\n        /* \"#utility.yul\":521:556   */\n      swap1\n      pop\n        /* \"#utility.yul\":466:562   */\n      swap2\n      swap1\n      pop\n      jump\t// out\n        /* \"#utility.yul\":568:690   */\n    tag_82:\n        /* \"#utility.yul\":641:665   */\n      tag_116\n        /* \"#utility.yul\":659:664   */\n      dup2\n        /* \"#utility.yul\":641:665   */\n      tag_81\n      jump\t// in\n    tag_116:\n        /* \"#utility.yul\":634:639   */\n      dup2\n        /* \"#utility.yul\":631:666   */\n      eq\n        /* \"#utility.yul\":621:684   */\n      tag_117\n      jumpi\n        /* \"#utility.yul\":680:681   */\n      0x00\n        /* \"#utility.yul\":677:678   */\n      0x00\n        /* \"#utility.yul\":670:682   */\n      revert\n        /* \"#utility.yul\":621:684   */\n    tag_117:\n        /* \"#utility.yul\":568:690   */\n      pop\n      jump\t// out\n        /* \"#utility.yul\":696:835   */\n    tag_83:\n        /* \"#utility.yul\":742:747   */\n      0x00\n        /* \"#utility.yul\":780:786   */\n      dup2\n        /* \"#utility.yul\":767:787   */\n      calldataload\n        /* \"#utility.yul\":758:787   */\n      swap1\n      pop\n        /* \"#utility.yul\":796:829   */\n      tag_119\n        /* \"#utility.yul\":823:828   */\n      dup2\n        /* \"#utility.yul\":796:829   */\n      tag_82\n      jump\t// in\n    tag_119:\n        /* \"#utility.yul\":696:835   */\n      swap3\n      swap2\n      pop\n      pop\n      jump\t// out\n        /* \"#utility.yul\":841:918   */\n    tag_84:\n        /* \"#utility.yul\":878:885   */\n      0x00\n        /* \"#utility.yul\":907:912   */\n      dup2\n        /* \"#utility.yul\":896:912   */\n      swap1\n      pop\n        /* \"#utility.yul\":841:918   */\n      swap2\n      swap1\n      pop\n      jump\t// out\n        /* \"#utility.yul\":924:1046   */\n    tag_85:\n        /* \"#utility.yul\":997:1021   */\n      tag_122\n        /* \"#utility.yul\":1015:1020   */\n      dup2\n        /* \"#utility.yul\":997:1021   */\n      tag_84\n      jump\t// in\n    tag_122:\n        /* \"#utility.yul\":990:995   */\n      dup2\n        /* \"#utility.yul\":987:1022   */\n      eq\n        /* \"#utility.yul\":977:1040   */\n      tag_123\n      jumpi\n        /* \"#utility.yul\":1036:1037   */\n      0x00\n        /* \"#utility.yul\":1033:1034   */\n      0x00\n        /* \"#utility.yul\":1026:1038   */\n      revert\n        /* \"#utility.yul\":977:1040   */\n    tag_123:\n        /* \"#utility.yul\":924:1046   */\n      pop\n      jump\t// out\n        /* \"#utility.yul\":1052:1191   */\n    tag_86:\n        /* \"#utility.yul\":1098:1103   */\n      0x00\n        /* \"#utility.yul\":1136:1142   */\n      dup2\n        /* \"#utility.yul\":1123:1143   */\n      calldataload\n        /* \"#utility.yul\":1114:1143   */\n      swap1\n      pop\n        /* \"#utility.yul\":1152:1185   */\n      tag_125\n        /* \"#utility.yul\":1179:1184   */\n      dup2\n        /* \"#utility.yul\":1152:1185   */\n      tag_85\n      jump\t// in\n    tag_125:\n        /* \"#utility.yul\":1052:1191   */\n      swap3\n      swap2\n      pop\n      pop\n      jump\t// out\n        /* \"#utility.yul\":1197:1671   */\n    tag_10:\n        /* \"#utility.yul\":1265:1271   */\n      0x00\n        /* \"#utility.yul\":1273:1279   */\n      0x00\n        /* \"#utility.yul\":1322:1324   */\n      0x40\n        /* \"#utility.yul\":1310:1319   */\n      dup4\n        /* \"#utility.yul\":1301:1308   */\n      dup6\n        /* \"#utility.yul\":1297:1320   */\n      sub\n        /* \"#utility.yul\":1293:1325   */\n      slt\n        /* \"#utility.yul\":1290:1409   */\n      iszero\n      tag_127\n      jumpi\n        /* \"#utility.yul\":1328:1407   */\n      tag_128\n      tag_78\n      jump\t// in\n    tag_128:\n        /* \"#utility.yul\":1290:1409   */\n    tag_127:\n        /* \"#utility.yul\":1448:1449   */\n      0x00\n        /* \"#utility.yul\":1473:1526   */\n      tag_129\n        /* \"#utility.yul\":1518:1525   */\n      dup6\n        /* \"#utility.yul\":1509:1515   */\n      dup3\n        /* \"#utility.yul\":1498:1507   */\n      dup7\n        /* \"#utility.yul\":1494:1516   */\n      add\n        /* \"#utility.yul\":1473:1526   */\n      tag_83\n      jump\t// in\n    tag_129:\n        /* \"#utility.yul\":1463:1526   */\n      swap3\n      pop\n        /* \"#utility.yul\":1419:1536   */\n      pop\n        /* \"#utility.yul\":1575:1577   */\n      0x20\n        /* \"#utility.yul\":1601:1654   */\n      tag_130\n        /* \"#utility.yul\":1646:1653   */\n      dup6\n        /* \"#utility.yul\":1637:1643   */\n      dup3\n        /* \"#utility.yul\":1626:1635   */\n      dup7\n        /* \"#utility.yul\":1622:1644   */\n      add\n        /* \"#utility.yul\":1601:1654   */\n      tag_86\n      jump\t// in\n    tag_130:\n        /* \"#utility.yul\":1591:1654   */\n      swap2\n      pop\n        /* \"#utility.yul\":1546:1664   */\n      pop\n        /* \"#utility.yul\":1197:1671   */\n      swap3\n      pop\n      swap3\n      swap1\n      pop\n      jump\t// out\n        /* \"#utility.yul\":1677:1795   */\n    tag_87:\n        /* \"#utility.yul\":1764:1788   */\n      tag_132\n        /* \"#utility.yul\":1782:1787   */\n      dup2\n        /* \"#utility.yul\":1764:1788   */\n      tag_84\n      jump\t// in\n    tag_132:\n        /* \"#utility.yul\":1759:1762   */\n      dup3\n        /* \"#utility.yul\":1752:1789   */\n      mstore\n        /* \"#utility.yul\":1677:1795   */\n      pop\n      pop\n      jump\t// out\n        /* \"#utility.yul\":1801:2023   */\n    tag_15:\n        /* \"#utility.yul\":1894:1898   */\n      0x00\n        /* \"#utility.yul\":1932:1934   */\n      0x20\n        /* \"#utility.yul\":1921:1930   */\n      dup3\n        /* \"#utility.yul\":1917:1935   */\n      add\n        /* \"#utility.yul\":1909:1935   */\n      swap1\n      pop\n        /* \"#utility.yul\":1945:2016   */\n      tag_134\n        /* \"#utility.yul\":2013:2014   */\n      0x00\n        /* \"#utility.yul\":2002:2011   */\n      dup4\n        /* \"#utility.yul\":1998:2015   */\n      add\n        /* \"#utility.yul\":1989:1995   */\n      dup5\n        /* \"#utility.yul\":1945:2016   */\n      tag_87\n      jump\t// in\n    tag_134:\n        /* \"#utility.yul\":1801:2023   */\n      swap3\n      swap2\n      pop\n      pop\n      jump\t// out\n        /* \"#utility.yul\":2029:2147   */\n    tag_88:\n        /* \"#utility.yul\":2116:2140   */\n      tag_136\n        /* \"#utility.yul\":2134:2139   */\n      dup2\n        /* \"#utility.yul\":2116:2140   */\n      tag_81\n      jump\t// in\n    tag_136:\n        /* \"#utility.yul\":2111:2114   */\n      dup3\n        /* \"#utility.yul\":2104:2141   */\n      mstore\n        /* \"#utility.yul\":2029:2147   */\n      pop\n      pop\n      jump\t// out\n        /* \"#utility.yul\":2153:2375   */\n    tag_22:\n        /* \"#utility.yul\":2246:2250   */\n      0x00\n        /* \"#utility.yul\":2284:2286   */\n      0x20\n        /* \"#utility.yul\":2273:2282   */\n      dup3\n        /* \"#utility.yul\":2269:2287   */\n      add\n        /* \"#utility.yul\":2261:2287   */\n      swap1\n      pop\n        /* \"#utility.yul\":2297:2368   */\n      tag_138\n        /* \"#utility.yul\":2365:2366   */\n      0x00\n        /* \"#utility.yul\":2354:2363   */\n      dup4\n        /* \"#utility.yul\":2350:2367   */\n      add\n        /* \"#utility.yul\":2341:2347   */\n      dup5\n        /* \"#utility.yul\":2297:2368   */\n      tag_88\n      jump\t// in\n    tag_138:\n        /* \"#utility.yul\":2153:2375   */\n      swap3\n      swap2\n      pop\n      pop\n      jump\t// out\n        /* \"#utility.yul\":2381:2710   */\n    tag_25:\n        /* \"#utility.yul\":2440:2446   */\n      0x00\n        /* \"#utility.yul\":2489:2491   */\n      0x20\n        /* \"#utility.yul\":2477:2486   */\n      dup3\n        /* \"#utility.yul\":2468:2475   */\n      dup5\n        /* \"#utility.yul\":2464:2487   */\n      sub\n        /* \"#utility.yul\":2460:2492   */\n      slt\n        /* \"#utility.yul\":2457:2576   */\n      iszero\n      tag_140\n      jumpi\n        /* \"#utility.yul\":2495:2574   */\n      tag_141\n      tag_78\n      jump\t// in\n    tag_141:\n        /* \"#utility.yul\":2457:2576   */\n    tag_140:\n        /* \"#utility.yul\":2615:2616   */\n      0x00\n        /* \"#utility.yul\":2640:2693   */\n      tag_142\n        /* \"#utility.yul\":2685:2692   */\n      dup5\n        /* \"#utility.yul\":2676:2682   */\n      dup3\n        /* \"#utility.yul\":2665:2674   */\n      dup6\n        /* \"#utility.yul\":2661:2683   */\n      add\n        /* \"#utility.yul\":2640:2693   */\n      tag_83\n      jump\t// in\n    tag_142:\n        /* \"#utility.yul\":2630:2693   */\n      swap2\n      pop\n        /* \"#utility.yul\":2586:2703   */\n      pop\n        /* \"#utility.yul\":2381:2710   */\n      swap3\n      swap2\n      pop\n      pop\n      jump\t// out\n        /* \"#utility.yul\":2716:2859   */\n    tag_89:\n        /* \"#utility.yul\":2773:2778   */\n      0x00\n        /* \"#utility.yul\":2804:2810   */\n      dup2\n        /* \"#utility.yul\":2798:2811   */\n      mload\n        /* \"#utility.yul\":2789:2811   */\n      swap1\n      pop\n        /* \"#utility.yul\":2820:2853   */\n      tag_144\n        /* \"#utility.yul\":2847:2852   */\n      dup2\n        /* \"#utility.yul\":2820:2853   */\n      tag_85\n      jump\t// in\n    tag_144:\n        /* \"#utility.yul\":2716:2859   */\n      swap3\n      swap2\n      pop\n      pop\n      jump\t// out\n        /* \"#utility.yul\":2865:3216   */\n    tag_32:\n        /* \"#utility.yul\":2935:2941   */\n      0x00\n        /* \"#utility.yul\":2984:2986   */\n      0x20\n        /* \"#utility.yul\":2972:2981   */\n      dup3\n        /* \"#utility.yul\":2963:2970   */\n      dup5\n        /* \"#utility.yul\":2959:2982   */\n      sub\n        /* \"#utility.yul\":2955:2987   */\n      slt\n        /* \"#utility.yul\":2952:3071   */\n      iszero\n      tag_146\n      jumpi\n        /* \"#utility.yul\":2990:3069   */\n      tag_147\n      tag_78\n      jump\t// in\n    tag_147:\n        /* \"#utility.yul\":2952:3071   */\n    tag_146:\n        /* \"#utility.yul\":3110:3111   */\n      0x00\n        /* \"#utility.yul\":3135:3199   */\n      tag_148\n        /* \"#utility.yul\":3191:3198   */\n      dup5\n        /* \"#utility.yul\":3182:3188   */\n      dup3\n        /* \"#utility.yul\":3171:3180   */\n      dup6\n        /* \"#utility.yul\":3167:3189   */\n      add\n        /* \"#utility.yul\":3135:3199   */\n      tag_89\n      jump\t// in\n    tag_148:\n        /* \"#utility.yul\":3125:3199   */\n      swap2\n      pop\n        /* \"#utility.yul\":3081:3209   */\n      pop\n        /* \"#utility.yul\":2865:3216   */\n      swap3\n      swap2\n      pop\n      pop\n      jump\t// out\n        /* \"#utility.yul\":3222:3320   */\n    tag_90:\n        /* \"#utility.yul\":3273:3279   */\n      0x00\n        /* \"#utility.yul\":3307:3312   */\n      dup2\n        /* \"#utility.yul\":3301:3313   */\n      mload\n        /* \"#utility.yul\":3291:3313   */\n      swap1\n      pop\n        /* \"#utility.yul\":3222:3320   */\n      swap2\n      swap1\n      pop\n      jump\t// out\n        /* \"#utility.yul\":3326:3473   */\n    tag_91:\n        /* \"#utility.yul\":3427:3438   */\n      0x00\n        /* \"#utility.yul\":3464:3467   */\n      dup2\n        /* \"#utility.yul\":3449:3467   */\n      swap1\n      pop\n        /* \"#utility.yul\":3326:3473   */\n      swap3\n      swap2\n      pop\n      pop\n      jump\t// out\n        /* \"#utility.yul\":3479:3618   */\n    tag_92:\n        /* \"#utility.yul\":3568:3574   */\n      dup3\n        /* \"#utility.yul\":3563:3566   */\n      dup2\n        /* \"#utility.yul\":3558:3561   */\n      dup4\n        /* \"#utility.yul\":3552:3575   */\n      mcopy\n        /* \"#utility.yul\":3609:3610   */\n      0x00\n        /* \"#utility.yul\":3600:3606   */\n      dup4\n        /* \"#utility.yul\":3595:3598   */\n      dup4\n        /* \"#utility.yul\":3591:3607   */\n      add\n        /* \"#utility.yul\":3584:3611   */\n      mstore\n        /* \"#utility.yul\":3479:3618   */\n      pop\n      pop\n      pop\n      jump\t// out\n        /* \"#utility.yul\":3624:4010   */\n    tag_93:\n        /* \"#utility.yul\":3728:3731   */\n      0x00\n        /* \"#utility.yul\":3756:3794   */\n      tag_153\n        /* \"#utility.yul\":3788:3793   */\n      dup3\n        /* \"#utility.yul\":3756:3794   */\n      tag_90\n      jump\t// in\n    tag_153:\n        /* \"#utility.yul\":3810:3898   */\n      tag_154\n        /* \"#utility.yul\":3891:3897   */\n      dup2\n        /* \"#utility.yul\":3886:3889   */\n      dup6\n        /* \"#utility.yul\":3810:3898   */\n      tag_91\n      jump\t// in\n    tag_154:\n        /* \"#utility.yul\":3803:3898   */\n      swap4\n      pop\n        /* \"#utility.yul\":3907:3972   */\n      tag_155\n        /* \"#utility.yul\":3965:3971   */\n      dup2\n        /* \"#utility.yul\":3960:3963   */\n      dup6\n        /* \"#utility.yul\":3953:3957   */\n      0x20\n        /* \"#utility.yul\":3946:3951   */\n      dup7\n        /* \"#utility.yul\":3942:3958   */\n      add\n        /* \"#utility.yul\":3907:3972   */\n      tag_92\n      jump\t// in\n    tag_155:\n        /* \"#utility.yul\":3997:4003   */\n      dup1\n        /* \"#utility.yul\":3992:3995   */\n      dup5\n        /* \"#utility.yul\":3988:4004   */\n      add\n        /* \"#utility.yul\":3981:4004   */\n      swap2\n      pop\n        /* \"#utility.yul\":3732:4010   */\n      pop\n        /* \"#utility.yul\":3624:4010   */\n      swap3\n      swap2\n      pop\n      pop\n      jump\t// out\n        /* \"#utility.yul\":4016:4287   */\n    tag_35:\n        /* \"#utility.yul\":4146:4149   */\n      0x00\n        /* \"#utility.yul\":4168:4261   */\n      tag_157\n        /* \"#utility.yul\":4257:4260   */\n      dup3\n        /* \"#utility.yul\":4248:4254   */\n      dup5\n        /* \"#utility.yul\":4168:4261   */\n      tag_93\n      jump\t// in\n    tag_157:\n        /* \"#utility.yul\":4161:4261   */\n      swap2\n      pop\n        /* \"#utility.yul\":4278:4281   */\n      dup2\n        /* \"#utility.yul\":4271:4281   */\n      swap1\n      pop\n        /* \"#utility.yul\":4016:4287   */\n      swap3\n      swap2\n      pop\n      pop\n      jump\t// out\n        /* \"#utility.yul\":4293:4462   */\n    tag_94:\n        /* \"#utility.yul\":4377:4388   */\n      0x00\n        /* \"#utility.yul\":4411:4417   */\n      dup3\n        /* \"#utility.yul\":4406:4409   */\n      dup3\n        /* \"#utility.yul\":4399:4418   */\n      mstore\n        /* \"#utility.yul\":4451:4455   */\n      0x20\n        /* \"#utility.yul\":4446:4449   */\n      dup3\n        /* \"#utility.yul\":4442:4456   */\n      add\n        /* \"#utility.yul\":4427:4456   */\n      swap1\n      pop\n        /* \"#utility.yul\":4293:4462   */\n      swap3\n      swap2\n      pop\n      pop\n      jump\t// out\n        /* \"#utility.yul\":4468:4637   */\n    tag_95:\n        /* \"#utility.yul\":4608:4629   */\n      0x44656c656761746563616c6c206661696c656400000000000000000000000000\n        /* \"#utility.yul\":4604:4605   */\n      0x00\n        /* \"#utility.yul\":4596:4602   */\n      dup3\n        /* \"#utility.yul\":4592:4606   */\n      add\n        /* \"#utility.yul\":4585:4630   */\n      mstore\n        /* \"#utility.yul\":4468:4637   */\n      pop\n      jump\t// out\n        /* \"#utility.yul\":4643:5009   */\n    tag_96:\n        /* \"#utility.yul\":4785:4788   */\n      0x00\n        /* \"#utility.yul\":4806:4873   */\n      tag_161\n        /* \"#utility.yul\":4870:4872   */\n      0x13\n        /* \"#utility.yul\":4865:4868   */\n      dup4\n        /* \"#utility.yul\":4806:4873   */\n      tag_94\n      jump\t// in\n    tag_161:\n        /* \"#utility.yul\":4799:4873   */\n      swap2\n      pop\n        /* \"#utility.yul\":4882:4975   */\n      tag_162\n        /* \"#utility.yul\":4971:4974   */\n      dup3\n        /* \"#utility.yul\":4882:4975   */\n      tag_95\n      jump\t// in\n    tag_162:\n        /* \"#utility.yul\":5000:5002   */\n      0x20\n        /* \"#utility.yul\":4995:4998   */\n      dup3\n        /* \"#utility.yul\":4991:5003   */\n      add\n        /* \"#utility.yul\":4984:5003   */\n      swap1\n      pop\n        /* \"#utility.yul\":4643:5009   */\n      swap2\n      swap1\n      pop\n      jump\t// out\n        /* \"#utility.yul\":5015:5434   */\n    tag_41:\n        /* \"#utility.yul\":5181:5185   */\n      0x00\n        /* \"#utility.yul\":5219:5221   */\n      0x20\n        /* \"#utility.yul\":5208:5217   */\n      dup3\n        /* \"#utility.yul\":5204:5222   */\n      add\n        /* \"#utility.yul\":5196:5222   */\n      swap1\n      pop\n        /* \"#utility.yul\":5268:5277   */\n      dup2\n        /* \"#utility.yul\":5262:5266   */\n      dup2\n        /* \"#utility.yul\":5258:5278   */\n      sub\n        /* \"#utility.yul\":5254:5255   */\n      0x00\n        /* \"#utility.yul\":5243:5252   */\n      dup4\n        /* \"#utility.yul\":5239:5256   */\n      add\n        /* \"#utility.yul\":5232:5279   */\n      mstore\n        /* \"#utility.yul\":5296:5427   */\n      tag_164\n        /* \"#utility.yul\":5422:5426   */\n      dup2\n        /* \"#utility.yul\":5296:5427   */\n      tag_96\n      jump\t// in\n    tag_164:\n        /* \"#utility.yul\":5288:5427   */\n      swap1\n      pop\n        /* \"#utility.yul\":5015:5434   */\n      swap2\n      swap1\n      pop\n      jump\t// out\n        /* \"#utility.yul\":5440:5602   */\n    tag_97:\n        /* \"#utility.yul\":5580:5594   */\n      0x64656c656761746563616c6c0000000000000000000000000000000000000000\n        /* \"#utility.yul\":5576:5577   */\n      0x00\n        /* \"#utility.yul\":5568:5574   */\n      dup3\n        /* \"#utility.yul\":5564:5578   */\n      add\n        /* \"#utility.yul\":5557:5595   */\n      mstore\n        /* \"#utility.yul\":5440:5602   */\n      pop\n      jump\t// out\n        /* \"#utility.yul\":5608:5974   */\n    tag_98:\n        /* \"#utility.yul\":5750:5753   */\n      0x00\n        /* \"#utility.yul\":5771:5838   */\n      tag_167\n        /* \"#utility.yul\":5835:5837   */\n      0x0c\n        /* \"#utility.yul\":5830:5833   */\n      dup4\n        /* \"#utility.yul\":5771:5838   */\n      tag_94\n      jump\t// in\n    tag_167:\n        /* \"#utility.yul\":5764:5838   */\n      swap2\n      pop\n        /* \"#utility.yul\":5847:5940   */\n      tag_168\n        /* \"#utility.yul\":5936:5939   */\n      dup3\n        /* \"#utility.yul\":5847:5940   */\n      tag_97\n      jump\t// in\n    tag_168:\n        /* \"#utility.yul\":5965:5967   */\n      0x20\n        /* \"#utility.yul\":5960:5963   */\n      dup3\n        /* \"#utility.yul\":5956:5968   */\n      add\n        /* \"#utility.yul\":5949:5968   */\n      swap1\n      pop\n        /* \"#utility.yul\":5608:5974   */\n      swap2\n      swap1\n      pop\n      jump\t// out\n        /* \"#utility.yul\":5980:6070   */\n    tag_99:\n        /* \"#utility.yul\":6014:6021   */\n      0x00\n        /* \"#utility.yul\":6057:6062   */\n      dup2\n        /* \"#utility.yul\":6050:6063   */\n      iszero\n        /* \"#utility.yul\":6043:6064   */\n      iszero\n        /* \"#utility.yul\":6032:6064   */\n      swap1\n      pop\n        /* \"#utility.yul\":5980:6070   */\n      swap2\n      swap1\n      pop\n      jump\t// out\n        /* \"#utility.yul\":6076:6185   */\n    tag_100:\n        /* \"#utility.yul\":6157:6178   */\n      tag_171\n        /* \"#utility.yul\":6172:6177   */\n      dup2\n        /* \"#utility.yul\":6157:6178   */\n      tag_99\n      jump\t// in\n    tag_171:\n        /* \"#utility.yul\":6152:6155   */\n      dup3\n        /* \"#utility.yul\":6145:6179   */\n      mstore\n        /* \"#utility.yul\":6076:6185   */\n      pop\n      pop\n      jump\t// out\n        /* \"#utility.yul\":6191:6929   */\n    tag_46:\n        /* \"#utility.yul\":6435:6439   */\n      0x00\n        /* \"#utility.yul\":6473:6476   */\n      0x80\n        /* \"#utility.yul\":6462:6471   */\n      dup3\n        /* \"#utility.yul\":6458:6477   */\n      add\n        /* \"#utility.yul\":6450:6477   */\n      swap1\n      pop\n        /* \"#utility.yul\":6523:6532   */\n      dup2\n        /* \"#utility.yul\":6517:6521   */\n      dup2\n        /* \"#utility.yul\":6513:6533   */\n      sub\n        /* \"#utility.yul\":6509:6510   */\n      0x00\n        /* \"#utility.yul\":6498:6507   */\n      dup4\n        /* \"#utility.yul\":6494:6511   */\n      add\n        /* \"#utility.yul\":6487:6534   */\n      mstore\n        /* \"#utility.yul\":6551:6682   */\n      tag_173\n        /* \"#utility.yul\":6677:6681   */\n      dup2\n        /* \"#utility.yul\":6551:6682   */\n      tag_98\n      jump\t// in\n    tag_173:\n        /* \"#utility.yul\":6543:6682   */\n      swap1\n      pop\n        /* \"#utility.yul\":6692:6758   */\n      tag_174\n        /* \"#utility.yul\":6754:6756   */\n      0x20\n        /* \"#utility.yul\":6743:6752   */\n      dup4\n        /* \"#utility.yul\":6739:6757   */\n      add\n        /* \"#utility.yul\":6730:6736   */\n      dup7\n        /* \"#utility.yul\":6692:6758   */\n      tag_100\n      jump\t// in\n    tag_174:\n        /* \"#utility.yul\":6768:6840   */\n      tag_175\n        /* \"#utility.yul\":6836:6838   */\n      0x40\n        /* \"#utility.yul\":6825:6834   */\n      dup4\n        /* \"#utility.yul\":6821:6839   */\n      add\n        /* \"#utility.yul\":6812:6818   */\n      dup6\n        /* \"#utility.yul\":6768:6840   */\n      tag_87\n      jump\t// in\n    tag_175:\n        /* \"#utility.yul\":6850:6922   */\n      tag_176\n        /* \"#utility.yul\":6918:6920   */\n      0x60\n        /* \"#utility.yul\":6907:6916   */\n      dup4\n        /* \"#utility.yul\":6903:6921   */\n      add\n        /* \"#utility.yul\":6894:6900   */\n      dup5\n        /* \"#utility.yul\":6850:6922   */\n      tag_88\n      jump\t// in\n    tag_176:\n        /* \"#utility.yul\":6191:6929   */\n      swap5\n      swap4\n      pop\n      pop\n      pop\n      pop\n      jump\t// out\n        /* \"#utility.yul\":6935:7096   */\n    tag_101:\n        /* \"#utility.yul\":7075:7088   */\n      0x43616c6c206661696c6564000000000000000000000000000000000000000000\n        /* \"#utility.yul\":7071:7072   */\n      0x00\n        /* \"#utility.yul\":7063:7069   */\n      dup3\n        /* \"#utility.yul\":7059:7073   */\n      add\n        /* \"#utility.yul\":7052:7089   */\n      mstore\n        /* \"#utility.yul\":6935:7096   */\n      pop\n      jump\t// out\n        /* \"#utility.yul\":7102:7468   */\n    tag_102:\n        /* \"#utility.yul\":7244:7247   */\n      0x00\n        /* \"#utility.yul\":7265:7332   */\n      tag_179\n        /* \"#utility.yul\":7329:7331   */\n      0x0b\n        /* \"#utility.yul\":7324:7327   */\n      dup4\n        /* \"#utility.yul\":7265:7332   */\n      tag_94\n      jump\t// in\n    tag_179:\n        /* \"#utility.yul\":7258:7332   */\n      swap2\n      pop\n        /* \"#utility.yul\":7341:7434   */\n      tag_180\n        /* \"#utility.yul\":7430:7433   */\n      dup3\n        /* \"#utility.yul\":7341:7434   */\n      tag_101\n      jump\t// in\n    tag_180:\n        /* \"#utility.yul\":7459:7461   */\n      0x20\n        /* \"#utility.yul\":7454:7457   */\n      dup3\n        /* \"#utility.yul\":7450:7462   */\n      add\n        /* \"#utility.yul\":7443:7462   */\n      swap1\n      pop\n        /* \"#utility.yul\":7102:7468   */\n      swap2\n      swap1\n      pop\n      jump\t// out\n        /* \"#utility.yul\":7474:7893   */\n    tag_58:\n        /* \"#utility.yul\":7640:7644   */\n      0x00\n        /* \"#utility.yul\":7678:7680   */\n      0x20\n        /* \"#utility.yul\":7667:7676   */\n      dup3\n        /* \"#utility.yul\":7663:7681   */\n      add\n        /* \"#utility.yul\":7655:7681   */\n      swap1\n      pop\n        /* \"#utility.yul\":7727:7736   */\n      dup2\n        /* \"#utility.yul\":7721:7725   */\n      dup2\n        /* \"#utility.yul\":7717:7737   */\n      sub\n        /* \"#utility.yul\":7713:7714   */\n      0x00\n        /* \"#utility.yul\":7702:7711   */\n      dup4\n        /* \"#utility.yul\":7698:7715   */\n      add\n        /* \"#utility.yul\":7691:7738   */\n      mstore\n        /* \"#utility.yul\":7755:7886   */\n      tag_182\n        /* \"#utility.yul\":7881:7885   */\n      dup2\n        /* \"#utility.yul\":7755:7886   */\n      tag_102\n      jump\t// in\n    tag_182:\n        /* \"#utility.yul\":7747:7886   */\n      swap1\n      pop\n        /* \"#utility.yul\":7474:7893   */\n      swap2\n      swap1\n      pop\n      jump\t// out\n        /* \"#utility.yul\":7899:8042   */\n    tag_103:\n        /* \"#utility.yul\":7956:7961   */\n      0x00\n        /* \"#utility.yul\":7987:7993   */\n      dup2\n        /* \"#utility.yul\":7981:7994   */\n      mload\n        /* \"#utility.yul\":7972:7994   */\n      swap1\n      pop\n        /* \"#utility.yul\":8003:8036   */\n      tag_184\n        /* \"#utility.yul\":8030:8035   */\n      dup2\n        /* \"#utility.yul\":8003:8036   */\n      tag_82\n      jump\t// in\n    tag_184:\n        /* \"#utility.yul\":7899:8042   */\n      swap3\n      swap2\n      pop\n      pop\n      jump\t// out\n        /* \"#utility.yul\":8048:8399   */\n    tag_65:\n        /* \"#utility.yul\":8118:8124   */\n      0x00\n        /* \"#utility.yul\":8167:8169   */\n      0x20\n        /* \"#utility.yul\":8155:8164   */\n      dup3\n        /* \"#utility.yul\":8146:8153   */\n      dup5\n        /* \"#utility.yul\":8142:8165   */\n      sub\n        /* \"#utility.yul\":8138:8170   */\n      slt\n        /* \"#utility.yul\":8135:8254   */\n      iszero\n      tag_186\n      jumpi\n        /* \"#utility.yul\":8173:8252   */\n      tag_187\n      tag_78\n      jump\t// in\n    tag_187:\n        /* \"#utility.yul\":8135:8254   */\n    tag_186:\n        /* \"#utility.yul\":8293:8294   */\n      0x00\n        /* \"#utility.yul\":8318:8382   */\n      tag_188\n        /* \"#utility.yul\":8374:8381   */\n      dup5\n        /* \"#utility.yul\":8365:8371   */\n      dup3\n        /* \"#utility.yul\":8354:8363   */\n      dup6\n        /* \"#utility.yul\":8350:8372   */\n      add\n        /* \"#utility.yul\":8318:8382   */\n      tag_103\n      jump\t// in\n    tag_188:\n        /* \"#utility.yul\":8308:8382   */\n      swap2\n      pop\n        /* \"#utility.yul\":8264:8392   */\n      pop\n        /* \"#utility.yul\":8048:8399   */\n      swap3\n      swap2\n      pop\n      pop\n      jump\t// out\n        /* \"#utility.yul\":8405:8559   */\n    tag_104:\n        /* \"#utility.yul\":8545:8551   */\n      0x63616c6c00000000000000000000000000000000000000000000000000000000\n        /* \"#utility.yul\":8541:8542   */\n      0x00\n        /* \"#utility.yul\":8533:8539   */\n      dup3\n        /* \"#utility.yul\":8529:8543   */\n      add\n        /* \"#utility.yul\":8522:8552   */\n      mstore\n        /* \"#utility.yul\":8405:8559   */\n      pop\n      jump\t// out\n        /* \"#utility.yul\":8565:8930   */\n    tag_105:\n        /* \"#utility.yul\":8707:8710   */\n      0x00\n        /* \"#utility.yul\":8728:8794   */\n      tag_191\n        /* \"#utility.yul\":8792:8793   */\n      0x04\n        /* \"#utility.yul\":8787:8790   */\n      dup4\n        /* \"#utility.yul\":8728:8794   */\n      tag_94\n      jump\t// in\n    tag_191:\n        /* \"#utility.yul\":8721:8794   */\n      swap2\n      pop\n        /* \"#utility.yul\":8803:8896   */\n      tag_192\n        /* \"#utility.yul\":8892:8895   */\n      dup3\n        /* \"#utility.yul\":8803:8896   */\n      tag_104\n      jump\t// in\n    tag_192:\n        /* \"#utility.yul\":8921:8923   */\n      0x20\n        /* \"#utility.yul\":8916:8919   */\n      dup3\n        /* \"#utility.yul\":8912:8924   */\n      add\n        /* \"#utility.yul\":8905:8924   */\n      swap1\n      pop\n        /* \"#utility.yul\":8565:8930   */\n      swap2\n      swap1\n      pop\n      jump\t// out\n        /* \"#utility.yul\":8936:9674   */\n    tag_67:\n        /* \"#utility.yul\":9180:9184   */\n      0x00\n        /* \"#utility.yul\":9218:9221   */\n      0x80\n        /* \"#utility.yul\":9207:9216   */\n      dup3\n        /* \"#utility.yul\":9203:9222   */\n      add\n        /* \"#utility.yul\":9195:9222   */\n      swap1\n      pop\n        /* \"#utility.yul\":9268:9277   */\n      dup2\n        /* \"#utility.yul\":9262:9266   */\n      dup2\n        /* \"#utility.yul\":9258:9278   */\n      sub\n        /* \"#utility.yul\":9254:9255   */\n      0x00\n        /* \"#utility.yul\":9243:9252   */\n      dup4\n        /* \"#utility.yul\":9239:9256   */\n      add\n        /* \"#utility.yul\":9232:9279   */\n      mstore\n        /* \"#utility.yul\":9296:9427   */\n      tag_194\n        /* \"#utility.yul\":9422:9426   */\n      dup2\n        /* \"#utility.yul\":9296:9427   */\n      tag_105\n      jump\t// in\n    tag_194:\n        /* \"#utility.yul\":9288:9427   */\n      swap1\n      pop\n        /* \"#utility.yul\":9437:9503   */\n      tag_195\n        /* \"#utility.yul\":9499:9501   */\n      0x20\n        /* \"#utility.yul\":9488:9497   */\n      dup4\n        /* \"#utility.yul\":9484:9502   */\n      add\n        /* \"#utility.yul\":9475:9481   */\n      dup7\n        /* \"#utility.yul\":9437:9503   */\n      tag_100\n      jump\t// in\n    tag_195:\n        /* \"#utility.yul\":9513:9585   */\n      tag_196\n        /* \"#utility.yul\":9581:9583   */\n      0x40\n        /* \"#utility.yul\":9570:9579   */\n      dup4\n        /* \"#utility.yul\":9566:9584   */\n      add\n        /* \"#utility.yul\":9557:9563   */\n      dup6\n        /* \"#utility.yul\":9513:9585   */\n      tag_87\n      jump\t// in\n    tag_196:\n        /* \"#utility.yul\":9595:9667   */\n      tag_197\n        /* \"#utility.yul\":9663:9665   */\n      0x60\n        /* \"#utility.yul\":9652:9661   */\n      dup4\n        /* \"#utility.yul\":9648:9666   */\n      add\n        /* \"#utility.yul\":9639:9645   */\n      dup5\n        /* \"#utility.yul\":9595:9667   */\n      tag_88\n      jump\t// in\n    tag_197:\n        /* \"#utility.yul\":8936:9674   */\n      swap5\n      swap4\n      pop\n      pop\n      pop\n      pop\n      jump\t// out\n        /* \"#utility.yul\":9680:9847   */\n    tag_106:\n        /* \"#utility.yul\":9820:9839   */\n      0x53746174696363616c6c206661696c6564000000000000000000000000000000\n        /* \"#utility.yul\":9816:9817   */\n      0x00\n        /* \"#utility.yul\":9808:9814   */\n      dup3\n        /* \"#utility.yul\":9804:9818   */\n      add\n        /* \"#utility.yul\":9797:9840   */\n      mstore\n        /* \"#utility.yul\":9680:9847   */\n      pop\n      jump\t// out\n        /* \"#utility.yul\":9853:10219   */\n    tag_107:\n        /* \"#utility.yul\":9995:9998   */\n      0x00\n        /* \"#utility.yul\":10016:10083   */\n      tag_200\n        /* \"#utility.yul\":10080:10082   */\n      0x11\n        /* \"#utility.yul\":10075:10078   */\n      dup4\n        /* \"#utility.yul\":10016:10083   */\n      tag_94\n      jump\t// in\n    tag_200:\n        /* \"#utility.yul\":10009:10083   */\n      swap2\n      pop\n        /* \"#utility.yul\":10092:10185   */\n      tag_201\n        /* \"#utility.yul\":10181:10184   */\n      dup3\n        /* \"#utility.yul\":10092:10185   */\n      tag_106\n      jump\t// in\n    tag_201:\n        /* \"#utility.yul\":10210:10212   */\n      0x20\n        /* \"#utility.yul\":10205:10208   */\n      dup3\n        /* \"#utility.yul\":10201:10213   */\n      add\n        /* \"#utility.yul\":10194:10213   */\n      swap1\n      pop\n        /* \"#utility.yul\":9853:10219   */\n      swap2\n      swap1\n      pop\n      jump\t// out\n        /* \"#utility.yul\":10225:10644   */\n    tag_75:\n        /* \"#utility.yul\":10391:10395   */\n      0x00\n        /* \"#utility.yul\":10429:10431   */\n      0x20\n        /* \"#utility.yul\":10418:10427   */\n      dup3\n        /* \"#utility.yul\":10414:10432   */\n      add\n        /* \"#utility.yul\":10406:10432   */\n      swap1\n      pop\n        /* \"#utility.yul\":10478:10487   */\n      dup2\n        /* \"#utility.yul\":10472:10476   */\n      dup2\n        /* \"#utility.yul\":10468:10488   */\n      sub\n        /* \"#utility.yul\":10464:10465   */\n      0x00\n        /* \"#utility.yul\":10453:10462   */\n      dup4\n        /* \"#utility.yul\":10449:10466   */\n      add\n        /* \"#utility.yul\":10442:10489   */\n      mstore\n        /* \"#utility.yul\":10506:10637   */\n      tag_203\n        /* \"#utility.yul\":10632:10636   */\n      dup2\n        /* \"#utility.yul\":10506:10637   */\n      tag_107\n      jump\t// in\n    tag_203:\n        /* \"#utility.yul\":10498:10637   */\n      swap1\n      pop\n        /* \"#utility.yul\":10225:10644   */\n      swap2\n      swap1\n      pop\n      jump\t// out\n\n    auxdata: 0xa2646970667358221220ccea41a5b6e7232e34cb32da43bd581321b97fda4d4620e50cc2f607610efc6164736f6c634300081e0033\n}\n",
				"bytecode": {
					"linkReferences": {},
					"object": "6080604052348015600e575f5ffd5b50610cb38061001c5f395ff3fe608060405234801561000f575f5ffd5b5060043610610055575f3560e01c80632d0bb8b8146100595780633fa4f2451461007557806359c75ada1461009357806367e404ce146100af578063ba65fc09146100cd575b5f5ffd5b610073600480360381019061006e9190610858565b6100fd565b005b61007d610380565b60405161008a91906108a5565b60405180910390f35b6100ad60048036038101906100a89190610858565b610385565b005b6100b7610654565b6040516100c491906108cd565b60405180910390f35b6100e760048036038101906100e291906108e6565b610679565b6040516100f491906108a5565b60405180910390f35b5f5f5490505f8373ffffffffffffffffffffffffffffffffffffffff16633fa4f2456040518163ffffffff1660e01b8152600401602060405180830381865afa15801561014c573d5f5f3e3d5ffd5b505050506040513d601f19601f820116820180604052508101906101709190610925565b90505f8473ffffffffffffffffffffffffffffffffffffffff168460405160240161019b91906108a5565b6040516020818303038152906040527f55241077000000000000000000000000000000000000000000000000000000007bffffffffffffffffffffffffffffffffffffffffffffffffffffffff19166020820180517bffffffffffffffffffffffffffffffffffffffffffffffffffffffff838183161783525050505060405161022591906109a2565b5f60405180830381855af49150503d805f811461025d576040519150601f19603f3d011682016040523d82523d5f602084013e610262565b606091505b50509050806102a6576040517f08c379a000000000000000000000000000000000000000000000000000000000815260040161029d90610a12565b60405180910390fd5b5f5f5490505f8673ffffffffffffffffffffffffffffffffffffffff16633fa4f2456040518163ffffffff1660e01b8152600401602060405180830381865afa1580156102f5573d5f5f3e3d5ffd5b505050506040513d601f19601f820116820180604052508101906103199190610925565b90507f129de0e46985680c7cb4faba48ed41798382c6cfe85efbe6b9feb961e4dc1e1e838360015f9054906101000a900473ffffffffffffffffffffffffffffffffffffffff1660405161036f93929190610a94565b60405180910390a150505050505050565b5f5481565b5f5f5490505f8373ffffffffffffffffffffffffffffffffffffffff16633fa4f2456040518163ffffffff1660e01b8152600401602060405180830381865afa1580156103d4573d5f5f3e3d5ffd5b505050506040513d601f19601f820116820180604052508101906103f89190610925565b90505f8473ffffffffffffffffffffffffffffffffffffffff168460405160240161042391906108a5565b6040516020818303038152906040527f55241077000000000000000000000000000000000000000000000000000000007bffffffffffffffffffffffffffffffffffffffffffffffffffffffff19166020820180517bffffffffffffffffffffffffffffffffffffffffffffffffffffffff83818316178352505050506040516104ad91906109a2565b5f604051808303815f865af19150503d805f81146104e6576040519150601f19603f3d011682016040523d82523d5f602084013e6104eb565b606091505b505090508061052f576040517f08c379a000000000000000000000000000000000000000000000000000000000815260040161052690610b26565b60405180910390fd5b5f5f5490505f8673ffffffffffffffffffffffffffffffffffffffff16633fa4f2456040518163ffffffff1660e01b8152600401602060405180830381865afa15801561057e573d5f5f3e3d5ffd5b505050506040513d601f19601f820116820180604052508101906105a29190610925565b90507f129de0e46985680c7cb4faba48ed41798382c6cfe85efbe6b9feb961e4dc1e1e83828973ffffffffffffffffffffffffffffffffffffffff166367e404ce6040518163ffffffff1660e01b8152600401602060405180830381865afa158015610610573d5f5f3e3d5ffd5b505050506040513d601f19601f820116820180604052508101906106349190610b58565b60405161064393929190610bcd565b60405180910390a150505050505050565b60015f9054906101000a900473ffffffffffffffffffffffffffffffffffffffff1681565b5f5f5f8373ffffffffffffffffffffffffffffffffffffffff166040516024016040516020818303038152906040527f20965255000000000000000000000000000000000000000000000000000000007bffffffffffffffffffffffffffffffffffffffffffffffffffffffff19166020820180517bffffffffffffffffffffffffffffffffffffffffffffffffffffffff838183161783525050505060405161072391906109a2565b5f60405180830381855afa9150503d805f811461075b576040519150601f19603f3d011682016040523d82523d5f602084013e610760565b606091505b5091509150816107a5576040517f08c379a000000000000000000000000000000000000000000000000000000000815260040161079c90610c5f565b60405180910390fd5b5f818060200190518101906107ba9190610925565b9050809350505050919050565b5f5ffd5b5f73ffffffffffffffffffffffffffffffffffffffff82169050919050565b5f6107f4826107cb565b9050919050565b610804816107ea565b811461080e575f5ffd5b50565b5f8135905061081f816107fb565b92915050565b5f819050919050565b61083781610825565b8114610841575f5ffd5b50565b5f813590506108528161082e565b92915050565b5f5f6040838503121561086e5761086d6107c7565b5b5f61087b85828601610811565b925050602061088c85828601610844565b9150509250929050565b61089f81610825565b82525050565b5f6020820190506108b85f830184610896565b92915050565b6108c7816107ea565b82525050565b5f6020820190506108e05f8301846108be565b92915050565b5f602082840312156108fb576108fa6107c7565b5b5f61090884828501610811565b91505092915050565b5f8151905061091f8161082e565b92915050565b5f6020828403121561093a576109396107c7565b5b5f61094784828501610911565b91505092915050565b5f81519050919050565b5f81905092915050565b8281835e5f83830152505050565b5f61097c82610950565b610986818561095a565b9350610996818560208601610964565b80840191505092915050565b5f6109ad8284610972565b915081905092915050565b5f82825260208201905092915050565b7f44656c656761746563616c6c206661696c6564000000000000000000000000005f82015250565b5f6109fc6013836109b8565b9150610a07826109c8565b602082019050919050565b5f6020820190508181035f830152610a29816109f0565b9050919050565b7f64656c656761746563616c6c00000000000000000000000000000000000000005f82015250565b5f610a64600c836109b8565b9150610a6f82610a30565b602082019050919050565b5f8115159050919050565b610a8e81610a7a565b82525050565b5f6080820190508181035f830152610aab81610a58565b9050610aba6020830186610a85565b610ac76040830185610896565b610ad460608301846108be565b949350505050565b7f43616c6c206661696c65640000000000000000000000000000000000000000005f82015250565b5f610b10600b836109b8565b9150610b1b82610adc565b602082019050919050565b5f6020820190508181035f830152610b3d81610b04565b9050919050565b5f81519050610b52816107fb565b92915050565b5f60208284031215610b6d57610b6c6107c7565b5b5f610b7a84828501610b44565b91505092915050565b7f63616c6c000000000000000000000000000000000000000000000000000000005f82015250565b5f610bb76004836109b8565b9150610bc282610b83565b602082019050919050565b5f6080820190508181035f830152610be481610bab565b9050610bf36020830186610a85565b610c006040830185610896565b610c0d60608301846108be565b949350505050565b7f53746174696363616c6c206661696c65640000000000000000000000000000005f82015250565b5f610c496011836109b8565b9150610c5482610c15565b602082019050919050565b5f6020820190508181035f830152610c7681610c3d565b905091905056fea2646970667358221220ccea41a5b6e7232e34cb32da43bd581321b97fda4d4620e50cc2f607610efc6164736f6c634300081e0033",
					"opcodes": "PUSH1 0x80 PUSH1 0x40 MSTORE CALLVALUE DUP1 ISZERO PUSH1 0xE JUMPI PUSH0 PUSH0 REVERT JUMPDEST POP PUSH2 0xCB3 DUP1 PUSH2 0x1C PUSH0 CODECOPY PUSH0 RETURN INVALID PUSH1 0x80 PUSH1 0x40 MSTORE CALLVALUE DUP1 ISZERO PUSH2 0xF JUMPI PUSH0 PUSH0 REVERT JUMPDEST POP PUSH1 0x4 CALLDATASIZE LT PUSH2 0x55 JUMPI PUSH0 CALLDATALOAD PUSH1 0xE0 SHR DUP1 PUSH4 0x2D0BB8B8 EQ PUSH2 0x59 JUMPI DUP1 PUSH4 0x3FA4F245 EQ PUSH2 0x75 JUMPI DUP1 PUSH4 0x59C75ADA EQ PUSH2 0x93 JUMPI DUP1 PUSH4 0x67E404CE EQ PUSH2 0xAF JUMPI DUP1 PUSH4 0xBA65FC09 EQ PUSH2 0xCD JUMPI JUMPDEST PUSH0 PUSH0 REVERT JUMPDEST PUSH2 0x73 PUSH1 0x4 DUP1 CALLDATASIZE SUB DUP2 ADD SWAP1 PUSH2 0x6E SWAP2 SWAP1 PUSH2 0x858 JUMP JUMPDEST PUSH2 0xFD JUMP JUMPDEST STOP JUMPDEST PUSH2 0x7D PUSH2 0x380 JUMP JUMPDEST PUSH1 0x40 MLOAD PUSH2 0x8A SWAP2 SWAP1 PUSH2 0x8A5 JUMP JUMPDEST PUSH1 0x40 MLOAD DUP1 SWAP2 SUB SWAP1 RETURN JUMPDEST PUSH2 0xAD PUSH1 0x4 DUP1 CALLDATASIZE SUB DUP2 ADD SWAP1 PUSH2 0xA8 SWAP2 SWAP1 PUSH2 0x858 JUMP JUMPDEST PUSH2 0x385 JUMP JUMPDEST STOP JUMPDEST PUSH2 0xB7 PUSH2 0x654 JUMP JUMPDEST PUSH1 0x40 MLOAD PUSH2 0xC4 SWAP2 SWAP1 PUSH2 0x8CD JUMP JUMPDEST PUSH1 0x40 MLOAD DUP1 SWAP2 SUB SWAP1 RETURN JUMPDEST PUSH2 0xE7 PUSH1 0x4 DUP1 CALLDATASIZE SUB DUP2 ADD SWAP1 PUSH2 0xE2 SWAP2 SWAP1 PUSH2 0x8E6 JUMP JUMPDEST PUSH2 0x679 JUMP JUMPDEST PUSH1 0x40 MLOAD PUSH2 0xF4 SWAP2 SWAP1 PUSH2 0x8A5 JUMP JUMPDEST PUSH1 0x40 MLOAD DUP1 SWAP2 SUB SWAP1 RETURN JUMPDEST PUSH0 PUSH0 SLOAD SWAP1 POP PUSH0 DUP4 PUSH20 0xFFFFFFFFFFFFFFFFFFFFFFFFFFFFFFFFFFFFFFFF AND PUSH4 0x3FA4F245 PUSH1 0x40 MLOAD DUP2 PUSH4 0xFFFFFFFF AND PUSH1 0xE0 SHL DUP2 MSTORE PUSH1 0x4 ADD PUSH1 0x20 PUSH1 0x40 MLOAD DUP1 DUP4 SUB DUP2 DUP7 GAS STATICCALL ISZERO DUP1 ISZERO PUSH2 0x14C JUMPI RETURNDATASIZE PUSH0 PUSH0 RETURNDATACOPY RETURNDATASIZE PUSH0 REVERT JUMPDEST POP POP POP POP PUSH1 0x40 MLOAD RETURNDATASIZE PUSH1 0x1F NOT PUSH1 0x1F DUP3 ADD AND DUP3 ADD DUP1 PUSH1 0x40 MSTORE POP DUP2 ADD SWAP1 PUSH2 0x170 SWAP2 SWAP1 PUSH2 0x925 JUMP JUMPDEST SWAP1 POP PUSH0 DUP5 PUSH20 0xFFFFFFFFFFFFFFFFFFFFFFFFFFFFFFFFFFFFFFFF AND DUP5 PUSH1 0x40 MLOAD PUSH1 0x24 ADD PUSH2 0x19B SWAP2 SWAP1 PUSH2 0x8A5 JUMP JUMPDEST PUSH1 0x40 MLOAD PUSH1 0x20 DUP2 DUP4 SUB SUB DUP2 MSTORE SWAP1 PUSH1 0x40 MSTORE PUSH32 0x5524107700000000000000000000000000000000000000000000000000000000 PUSH28 0xFFFFFFFFFFFFFFFFFFFFFFFFFFFFFFFFFFFFFFFFFFFFFFFFFFFFFFFF NOT AND PUSH1 0x20 DUP3 ADD DUP1 MLOAD PUSH28 0xFFFFFFFFFFFFFFFFFFFFFFFFFFFFFFFFFFFFFFFFFFFFFFFFFFFFFFFF DUP4 DUP2 DUP4 AND OR DUP4 MSTORE POP POP POP POP PUSH1 0x40 MLOAD PUSH2 0x225 SWAP2 SWAP1 PUSH2 0x9A2 JUMP JUMPDEST PUSH0 PUSH1 0x40 MLOAD DUP1 DUP4 SUB DUP2 DUP6 GAS DELEGATECALL SWAP2 POP POP RETURNDATASIZE DUP1 PUSH0 DUP2 EQ PUSH2 0x25D JUMPI PUSH1 0x40 MLOAD SWAP2 POP PUSH1 0x1F NOT PUSH1 0x3F RETURNDATASIZE ADD AND DUP3 ADD PUSH1 0x40 MSTORE RETURNDATASIZE DUP3 MSTORE RETURNDATASIZE PUSH0 PUSH1 0x20 DUP5 ADD RETURNDATACOPY PUSH2 0x262 JUMP JUMPDEST PUSH1 0x60 SWAP2 POP JUMPDEST POP POP SWAP1 POP DUP1 PUSH2 0x2A6 JUMPI PUSH1 0x40 MLOAD PUSH32 0x8C379A000000000000000000000000000000000000000000000000000000000 DUP2 MSTORE PUSH1 0x4 ADD PUSH2 0x29D SWAP1 PUSH2 0xA12 JUMP JUMPDEST PUSH1 0x40 MLOAD DUP1 SWAP2 SUB SWAP1 REVERT JUMPDEST PUSH0 PUSH0 SLOAD SWAP1 POP PUSH0 DUP7 PUSH20 0xFFFFFFFFFFFFFFFFFFFFFFFFFFFFFFFFFFFFFFFF AND PUSH4 0x3FA4F245 PUSH1 0x40 MLOAD DUP2 PUSH4 0xFFFFFFFF AND PUSH1 0xE0 SHL DUP2 MSTORE PUSH1 0x4 ADD PUSH1 0x20 PUSH1 0x40 MLOAD DUP1 DUP4 SUB DUP2 DUP7 GAS STATICCALL ISZERO DUP1 ISZERO PUSH2 0x2F5 JUMPI RETURNDATASIZE PUSH0 PUSH0 RETURNDATACOPY RETURNDATASIZE PUSH0 REVERT JUMPDEST POP POP POP POP PUSH1 0x40 MLOAD RETURNDATASIZE PUSH1 0x1F NOT PUSH1 0x1F DUP3 ADD AND DUP3 ADD DUP1 PUSH1 0x40 MSTORE POP DUP2 ADD SWAP1 PUSH2 0x319 SWAP2 SWAP1 PUSH2 0x925 JUMP JUMPDEST SWAP1 POP PUSH32 0x129DE0E46985680C7CB4FABA48ED41798382C6CFE85EFBE6B9FEB961E4DC1E1E DUP4 DUP4 PUSH1 0x1 PUSH0 SWAP1 SLOAD SWAP1 PUSH2 0x100 EXP SWAP1 DIV PUSH20 0xFFFFFFFFFFFFFFFFFFFFFFFFFFFFFFFFFFFFFFFF AND PUSH1 0x40 MLOAD PUSH2 0x36F SWAP4 SWAP3 SWAP2 SWAP1 PUSH2 0xA94 JUMP JUMPDEST PUSH1 0x40 MLOAD DUP1 SWAP2 SUB SWAP1 LOG1 POP POP POP POP POP POP POP JUMP JUMPDEST PUSH0 SLOAD DUP2 JUMP JUMPDEST PUSH0 PUSH0 SLOAD SWAP1 POP PUSH0 DUP4 PUSH20 0xFFFFFFFFFFFFFFFFFFFFFFFFFFFFFFFFFFFFFFFF AND PUSH4 0x3FA4F245 PUSH1 0x40 MLOAD DUP2 PUSH4 0xFFFFFFFF AND PUSH1 0xE0 SHL DUP2 MSTORE PUSH1 0x4 ADD PUSH1 0x20 PUSH1 0x40 MLOAD DUP1 DUP4 SUB DUP2 DUP7 GAS STATICCALL ISZERO DUP1 ISZERO PUSH2 0x3D4 JUMPI RETURNDATASIZE PUSH0 PUSH0 RETURNDATACOPY RETURNDATASIZE PUSH0 REVERT JUMPDEST POP POP POP POP PUSH1 0x40 MLOAD RETURNDATASIZE PUSH1 0x1F NOT PUSH1 0x1F DUP3 ADD AND DUP3 ADD DUP1 PUSH1 0x40 MSTORE POP DUP2 ADD SWAP1 PUSH2 0x3F8 SWAP2 SWAP1 PUSH2 0x925 JUMP JUMPDEST SWAP1 POP PUSH0 DUP5 PUSH20 0xFFFFFFFFFFFFFFFFFFFFFFFFFFFFFFFFFFFFFFFF AND DUP5 PUSH1 0x40 MLOAD PUSH1 0x24 ADD PUSH2 0x423 SWAP2 SWAP1 PUSH2 0x8A5 JUMP JUMPDEST PUSH1 0x40 MLOAD PUSH1 0x20 DUP2 DUP4 SUB SUB DUP2 MSTORE SWAP1 PUSH1 0x40 MSTORE PUSH32 0x5524107700000000000000000000000000000000000000000000000000000000 PUSH28 0xFFFFFFFFFFFFFFFFFFFFFFFFFFFFFFFFFFFFFFFFFFFFFFFFFFFFFFFF NOT AND PUSH1 0x20 DUP3 ADD DUP1 MLOAD PUSH28 0xFFFFFFFFFFFFFFFFFFFFFFFFFFFFFFFFFFFFFFFFFFFFFFFFFFFFFFFF DUP4 DUP2 DUP4 AND OR DUP4 MSTORE POP POP POP POP PUSH1 0x40 MLOAD PUSH2 0x4AD SWAP2 SWAP1 PUSH2 0x9A2 JUMP JUMPDEST PUSH0 PUSH1 0x40 MLOAD DUP1 DUP4 SUB DUP2 PUSH0 DUP7 GAS CALL SWAP2 POP POP RETURNDATASIZE DUP1 PUSH0 DUP2 EQ PUSH2 0x4E6 JUMPI PUSH1 0x40 MLOAD SWAP2 POP PUSH1 0x1F NOT PUSH1 0x3F RETURNDATASIZE ADD AND DUP3 ADD PUSH1 0x40 MSTORE RETURNDATASIZE DUP3 MSTORE RETURNDATASIZE PUSH0 PUSH1 0x20 DUP5 ADD RETURNDATACOPY PUSH2 0x4EB JUMP JUMPDEST PUSH1 0x60 SWAP2 POP JUMPDEST POP POP SWAP1 POP DUP1 PUSH2 0x52F JUMPI PUSH1 0x40 MLOAD PUSH32 0x8C379A000000000000000000000000000000000000000000000000000000000 DUP2 MSTORE PUSH1 0x4 ADD PUSH2 0x526 SWAP1 PUSH2 0xB26 JUMP JUMPDEST PUSH1 0x40 MLOAD DUP1 SWAP2 SUB SWAP1 REVERT JUMPDEST PUSH0 PUSH0 SLOAD SWAP1 POP PUSH0 DUP7 PUSH20 0xFFFFFFFFFFFFFFFFFFFFFFFFFFFFFFFFFFFFFFFF AND PUSH4 0x3FA4F245 PUSH1 0x40 MLOAD DUP2 PUSH4 0xFFFFFFFF AND PUSH1 0xE0 SHL DUP2 MSTORE PUSH1 0x4 ADD PUSH1 0x20 PUSH1 0x40 MLOAD DUP1 DUP4 SUB DUP2 DUP7 GAS STATICCALL ISZERO DUP1 ISZERO PUSH2 0x57E JUMPI RETURNDATASIZE PUSH0 PUSH0 RETURNDATACOPY RETURNDATASIZE PUSH0 REVERT JUMPDEST POP POP POP POP PUSH1 0x40 MLOAD RETURNDATASIZE PUSH1 0x1F NOT PUSH1 0x1F DUP3 ADD AND DUP3 ADD DUP1 PUSH1 0x40 MSTORE POP DUP2 ADD SWAP1 PUSH2 0x5A2 SWAP2 SWAP1 PUSH2 0x925 JUMP JUMPDEST SWAP1 POP PUSH32 0x129DE0E46985680C7CB4FABA48ED41798382C6CFE85EFBE6B9FEB961E4DC1E1E DUP4 DUP3 DUP10 PUSH20 0xFFFFFFFFFFFFFFFFFFFFFFFFFFFFFFFFFFFFFFFF AND PUSH4 0x67E404CE PUSH1 0x40 MLOAD DUP2 PUSH4 0xFFFFFFFF AND PUSH1 0xE0 SHL DUP2 MSTORE PUSH1 0x4 ADD PUSH1 0x20 PUSH1 0x40 MLOAD DUP1 DUP4 SUB DUP2 DUP7 GAS STATICCALL ISZERO DUP1 ISZERO PUSH2 0x610 JUMPI RETURNDATASIZE PUSH0 PUSH0 RETURNDATACOPY RETURNDATASIZE PUSH0 REVERT JUMPDEST POP POP POP POP PUSH1 0x40 MLOAD RETURNDATASIZE PUSH1 0x1F NOT PUSH1 0x1F DUP3 ADD AND DUP3 ADD DUP1 PUSH1 0x40 MSTORE POP DUP2 ADD SWAP1 PUSH2 0x634 SWAP2 SWAP1 PUSH2 0xB58 JUMP JUMPDEST PUSH1 0x40 MLOAD PUSH2 0x643 SWAP4 SWAP3 SWAP2 SWAP1 PUSH2 0xBCD JUMP JUMPDEST PUSH1 0x40 MLOAD DUP1 SWAP2 SUB SWAP1 LOG1 POP POP POP POP POP POP POP JUMP JUMPDEST PUSH1 0x1 PUSH0 SWAP1 SLOAD SWAP1 PUSH2 0x100 EXP SWAP1 DIV PUSH20 0xFFFFFFFFFFFFFFFFFFFFFFFFFFFFFFFFFFFFFFFF AND DUP2 JUMP JUMPDEST PUSH0 PUSH0 PUSH0 DUP4 PUSH20 0xFFFFFFFFFFFFFFFFFFFFFFFFFFFFFFFFFFFFFFFF AND PUSH1 0x40 MLOAD PUSH1 0x24 ADD PUSH1 0x40 MLOAD PUSH1 0x20 DUP2 DUP4 SUB SUB DUP2 MSTORE SWAP1 PUSH1 0x40 MSTORE PUSH32 0x2096525500000000000000000000000000000000000000000000000000000000 PUSH28 0xFFFFFFFFFFFFFFFFFFFFFFFFFFFFFFFFFFFFFFFFFFFFFFFFFFFFFFFF NOT AND PUSH1 0x20 DUP3 ADD DUP1 MLOAD PUSH28 0xFFFFFFFFFFFFFFFFFFFFFFFFFFFFFFFFFFFFFFFFFFFFFFFFFFFFFFFF DUP4 DUP2 DUP4 AND OR DUP4 MSTORE POP POP POP POP PUSH1 0x40 MLOAD PUSH2 0x723 SWAP2 SWAP1 PUSH2 0x9A2 JUMP JUMPDEST PUSH0 PUSH1 0x40 MLOAD DUP1 DUP4 SUB DUP2 DUP6 GAS STATICCALL SWAP2 POP POP RETURNDATASIZE DUP1 PUSH0 DUP2 EQ PUSH2 0x75B JUMPI PUSH1 0x40 MLOAD SWAP2 POP PUSH1 0x1F NOT PUSH1 0x3F RETURNDATASIZE ADD AND DUP3 ADD PUSH1 0x40 MSTORE RETURNDATASIZE DUP3 MSTORE RETURNDATASIZE PUSH0 PUSH1 0x20 DUP5 ADD RETURNDATACOPY PUSH2 0x760 JUMP JUMPDEST PUSH1 0x60 SWAP2 POP JUMPDEST POP SWAP2 POP SWAP2 POP DUP2 PUSH2 0x7A5 JUMPI PUSH1 0x40 MLOAD PUSH32 0x8C379A000000000000000000000000000000000000000000000000000000000 DUP2 MSTORE PUSH1 0x4 ADD PUSH2 0x79C SWAP1 PUSH2 0xC5F JUMP JUMPDEST PUSH1 0x40 MLOAD DUP1 SWAP2 SUB SWAP1 REVERT JUMPDEST PUSH0 DUP2 DUP1 PUSH1 0x20 ADD SWAP1 MLOAD DUP2 ADD SWAP1 PUSH2 0x7BA SWAP2 SWAP1 PUSH2 0x925 JUMP JUMPDEST SWAP1 POP DUP1 SWAP4 POP POP POP POP SWAP2 SWAP1 POP JUMP JUMPDEST PUSH0 PUSH0 REVERT JUMPDEST PUSH0 PUSH20 0xFFFFFFFFFFFFFFFFFFFFFFFFFFFFFFFFFFFFFFFF DUP3 AND SWAP1 POP SWAP2 SWAP1 POP JUMP JUMPDEST PUSH0 PUSH2 0x7F4 DUP3 PUSH2 0x7CB JUMP JUMPDEST SWAP1 POP SWAP2 SWAP1 POP JUMP JUMPDEST PUSH2 0x804 DUP2 PUSH2 0x7EA JUMP JUMPDEST DUP2 EQ PUSH2 0x80E JUMPI PUSH0 PUSH0 REVERT JUMPDEST POP JUMP JUMPDEST PUSH0 DUP2 CALLDATALOAD SWAP1 POP PUSH2 0x81F DUP2 PUSH2 0x7FB JUMP JUMPDEST SWAP3 SWAP2 POP POP JUMP JUMPDEST PUSH0 DUP2 SWAP1 POP SWAP2 SWAP1 POP JUMP JUMPDEST PUSH2 0x837 DUP2 PUSH2 0x825 JUMP JUMPDEST DUP2 EQ PUSH2 0x841 JUMPI PUSH0 PUSH0 REVERT JUMPDEST POP JUMP JUMPDEST PUSH0 DUP2 CALLDATALOAD SWAP1 POP PUSH2 0x852 DUP2 PUSH2 0x82E JUMP JUMPDEST SWAP3 SWAP2 POP POP JUMP JUMPDEST PUSH0 PUSH0 PUSH1 0x40 DUP4 DUP6 SUB SLT ISZERO PUSH2 0x86E JUMPI PUSH2 0x86D PUSH2 0x7C7 JUMP JUMPDEST JUMPDEST PUSH0 PUSH2 0x87B DUP6 DUP3 DUP7 ADD PUSH2 0x811 JUMP JUMPDEST SWAP3 POP POP PUSH1 0x20 PUSH2 0x88C DUP6 DUP3 DUP7 ADD PUSH2 0x844 JUMP JUMPDEST SWAP2 POP POP SWAP3 POP SWAP3 SWAP1 POP JUMP JUMPDEST PUSH2 0x89F DUP2 PUSH2 0x825 JUMP JUMPDEST DUP3 MSTORE POP POP JUMP JUMPDEST PUSH0 PUSH1 0x20 DUP3 ADD SWAP1 POP PUSH2 0x8B8 PUSH0 DUP4 ADD DUP5 PUSH2 0x896 JUMP JUMPDEST SWAP3 SWAP2 POP POP JUMP JUMPDEST PUSH2 0x8C7 DUP2 PUSH2 0x7EA JUMP JUMPDEST DUP3 MSTORE POP POP JUMP JUMPDEST PUSH0 PUSH1 0x20 DUP3 ADD SWAP1 POP PUSH2 0x8E0 PUSH0 DUP4 ADD DUP5 PUSH2 0x8BE JUMP JUMPDEST SWAP3 SWAP2 POP POP JUMP JUMPDEST PUSH0 PUSH1 0x20 DUP3 DUP5 SUB SLT ISZERO PUSH2 0x8FB JUMPI PUSH2 0x8FA PUSH2 0x7C7 JUMP JUMPDEST JUMPDEST PUSH0 PUSH2 0x908 DUP5 DUP3 DUP6 ADD PUSH2 0x811 JUMP JUMPDEST SWAP2 POP POP SWAP3 SWAP2 POP POP JUMP JUMPDEST PUSH0 DUP2 MLOAD SWAP1 POP PUSH2 0x91F DUP2 PUSH2 0x82E JUMP JUMPDEST SWAP3 SWAP2 POP POP JUMP JUMPDEST PUSH0 PUSH1 0x20 DUP3 DUP5 SUB SLT ISZERO PUSH2 0x93A JUMPI PUSH2 0x939 PUSH2 0x7C7 JUMP JUMPDEST JUMPDEST PUSH0 PUSH2 0x947 DUP5 DUP3 DUP6 ADD PUSH2 0x911 JUMP JUMPDEST SWAP2 POP POP SWAP3 SWAP2 POP POP JUMP JUMPDEST PUSH0 DUP2 MLOAD SWAP1 POP SWAP2 SWAP1 POP JUMP JUMPDEST PUSH0 DUP2 SWAP1 POP SWAP3 SWAP2 POP POP JUMP JUMPDEST DUP3 DUP2 DUP4 MCOPY PUSH0 DUP4 DUP4 ADD MSTORE POP POP POP JUMP JUMPDEST PUSH0 PUSH2 0x97C DUP3 PUSH2 0x950 JUMP JUMPDEST PUSH2 0x986 DUP2 DUP6 PUSH2 0x95A JUMP JUMPDEST SWAP4 POP PUSH2 0x996 DUP2 DUP6 PUSH1 0x20 DUP7 ADD PUSH2 0x964 JUMP JUMPDEST DUP1 DUP5 ADD SWAP2 POP POP SWAP3 SWAP2 POP POP JUMP JUMPDEST PUSH0 PUSH2 0x9AD DUP3 DUP5 PUSH2 0x972 JUMP JUMPDEST SWAP2 POP DUP2 SWAP1 POP SWAP3 SWAP2 POP POP JUMP JUMPDEST PUSH0 DUP3 DUP3 MSTORE PUSH1 0x20 DUP3 ADD SWAP1 POP SWAP3 SWAP2 POP POP JUMP JUMPDEST PUSH32 0x44656C656761746563616C6C206661696C656400000000000000000000000000 PUSH0 DUP3 ADD MSTORE POP JUMP JUMPDEST PUSH0 PUSH2 0x9FC PUSH1 0x13 DUP4 PUSH2 0x9B8 JUMP JUMPDEST SWAP2 POP PUSH2 0xA07 DUP3 PUSH2 0x9C8 JUMP JUMPDEST PUSH1 0x20 DUP3 ADD SWAP1 POP SWAP2 SWAP1 POP JUMP JUMPDEST PUSH0 PUSH1 0x20 DUP3 ADD SWAP1 POP DUP2 DUP2 SUB PUSH0 DUP4 ADD MSTORE PUSH2 0xA29 DUP2 PUSH2 0x9F0 JUMP JUMPDEST SWAP1 POP SWAP2 SWAP1 POP JUMP JUMPDEST PUSH32 0x64656C656761746563616C6C0000000000000000000000000000000000000000 PUSH0 DUP3 ADD MSTORE POP JUMP JUMPDEST PUSH0 PUSH2 0xA64 PUSH1 0xC DUP4 PUSH2 0x9B8 JUMP JUMPDEST SWAP2 POP PUSH2 0xA6F DUP3 PUSH2 0xA30 JUMP JUMPDEST PUSH1 0x20 DUP3 ADD SWAP1 POP SWAP2 SWAP1 POP JUMP JUMPDEST PUSH0 DUP2 ISZERO ISZERO SWAP1 POP SWAP2 SWAP1 POP JUMP JUMPDEST PUSH2 0xA8E DUP2 PUSH2 0xA7A JUMP JUMPDEST DUP3 MSTORE POP POP JUMP JUMPDEST PUSH0 PUSH1 0x80 DUP3 ADD SWAP1 POP DUP2 DUP2 SUB PUSH0 DUP4 ADD MSTORE PUSH2 0xAAB DUP2 PUSH2 0xA58 JUMP JUMPDEST SWAP1 POP PUSH2 0xABA PUSH1 0x20 DUP4 ADD DUP7 PUSH2 0xA85 JUMP JUMPDEST PUSH2 0xAC7 PUSH1 0x40 DUP4 ADD DUP6 PUSH2 0x896 JUMP JUMPDEST PUSH2 0xAD4 PUSH1 0x60 DUP4 ADD DUP5 PUSH2 0x8BE JUMP JUMPDEST SWAP5 SWAP4 POP POP POP POP JUMP JUMPDEST PUSH32 0x43616C6C206661696C6564000000000000000000000000000000000000000000 PUSH0 DUP3 ADD MSTORE POP JUMP JUMPDEST PUSH0 PUSH2 0xB10 PUSH1 0xB DUP4 PUSH2 0x9B8 JUMP JUMPDEST SWAP2 POP PUSH2 0xB1B DUP3 PUSH2 0xADC JUMP JUMPDEST PUSH1 0x20 DUP3 ADD SWAP1 POP SWAP2 SWAP1 POP JUMP JUMPDEST PUSH0 PUSH1 0x20 DUP3 ADD SWAP1 POP DUP2 DUP2 SUB PUSH0 DUP4 ADD MSTORE PUSH2 0xB3D DUP2 PUSH2 0xB04 JUMP JUMPDEST SWAP1 POP SWAP2 SWAP1 POP JUMP JUMPDEST PUSH0 DUP2 MLOAD SWAP1 POP PUSH2 0xB52 DUP2 PUSH2 0x7FB JUMP JUMPDEST SWAP3 SWAP2 POP POP JUMP JUMPDEST PUSH0 PUSH1 0x20 DUP3 DUP5 SUB SLT ISZERO PUSH2 0xB6D JUMPI PUSH2 0xB6C PUSH2 0x7C7 JUMP JUMPDEST JUMPDEST PUSH0 PUSH2 0xB7A DUP5 DUP3 DUP6 ADD PUSH2 0xB44 JUMP JUMPDEST SWAP2 POP POP SWAP3 SWAP2 POP POP JUMP JUMPDEST PUSH32 0x63616C6C00000000000000000000000000000000000000000000000000000000 PUSH0 DUP3 ADD MSTORE POP JUMP JUMPDEST PUSH0 PUSH2 0xBB7 PUSH1 0x4 DUP4 PUSH2 0x9B8 JUMP JUMPDEST SWAP2 POP PUSH2 0xBC2 DUP3 PUSH2 0xB83 JUMP JUMPDEST PUSH1 0x20 DUP3 ADD SWAP1 POP SWAP2 SWAP1 POP JUMP JUMPDEST PUSH0 PUSH1 0x80 DUP3 ADD SWAP1 POP DUP2 DUP2 SUB PUSH0 DUP4 ADD MSTORE PUSH2 0xBE4 DUP2 PUSH2 0xBAB JUMP JUMPDEST SWAP1 POP PUSH2 0xBF3 PUSH1 0x20 DUP4 ADD DUP7 PUSH2 0xA85 JUMP JUMPDEST PUSH2 0xC00 PUSH1 0x40 DUP4 ADD DUP6 PUSH2 0x896 JUMP JUMPDEST PUSH2 0xC0D PUSH1 0x60 DUP4 ADD DUP5 PUSH2 0x8BE JUMP JUMPDEST SWAP5 SWAP4 POP POP POP POP JUMP JUMPDEST PUSH32 0x53746174696363616C6C206661696C6564000000000000000000000000000000 PUSH0 DUP3 ADD MSTORE POP JUMP JUMPDEST PUSH0 PUSH2 0xC49 PUSH1 0x11 DUP4 PUSH2 0x9B8 JUMP JUMPDEST SWAP2 POP PUSH2 0xC54 DUP3 PUSH2 0xC15 JUMP JUMPDEST PUSH1 0x20 DUP3 ADD SWAP1 POP SWAP2 SWAP1 POP JUMP JUMPDEST PUSH0 PUSH1 0x20 DUP3 ADD SWAP1 POP DUP2 DUP2 SUB PUSH0 DUP4 ADD MSTORE PUSH2 0xC76 DUP2 PUSH2 0xC3D JUMP JUMPDEST SWAP1 POP SWAP2 SWAP1 POP JUMP INVALID LOG2 PUSH5 0x6970667358 0x22 SLT KECCAK256 0xCC 0xEA COINBASE 0xA5 0xB6 SWAPN 0x23 0x2E CALLVALUE 0xCB ORIGIN 0xDA NUMBER 0xBD PC SGT 0x21 0xB9 PUSH32 0xDA4D4620E50CC2F607610EFC6164736F6C634300081E00330000000000000000 "
				},
				"gasEstimates": {
					"creation": {
						"codeDepositCost": "650200",
						"executionCost": "681",
						"totalCost": "650881"
					},
					"external": {
						"sender()": "2552",
						"testCall(address,uint256)": "infinite",
						"testDelegatecall(address,uint256)": "infinite",
						"testStaticcall(address)": "infinite",
						"value()": "2424"
					}
				},
				"methodIdentifiers": {
					"sender()": "67e404ce",
					"testCall(address,uint256)": "59c75ada",
					"testDelegatecall(address,uint256)": "2d0bb8b8",
					"testStaticcall(address)": "ba65fc09",
					"value()": "3fa4f245"
				}
			},
			"storageLayout": {
				"storage": [
					{
						"astId": 43,
						"contract": "contracts/reviewCalls 8.1/calls.sol:Caller",
						"label": "value",
						"offset": 0,
						"slot": "0",
						"type": "t_uint256"
					},
					{
						"astId": 45,
						"contract": "contracts/reviewCalls 8.1/calls.sol:Caller",
						"label": "sender",
						"offset": 0,
						"slot": "1",
						"type": "t_address"
					}
				],
				"types": {
					"t_address": {
						"encoding": "inplace",
						"label": "address",
						"numberOfBytes": "20"
					},
					"t_uint256": {
						"encoding": "inplace",
						"label": "uint256",
						"numberOfBytes": "32"
					}
				}
			},
			"userdoc": {
				"kind": "user",
				"methods": {
					"testCall(address,uint256)": {
						"notice": "使用call方法调用"
					},
					"testDelegatecall(address,uint256)": {
						"notice": "使用delegatecall方法调用"
					},
					"testStaticcall(address)": {
						"notice": "使用staticcall方法调用"
					}
				},
				"version": 1
			}
		}
	}
}