{
	"contracts/lesson8.1/03ProxyCon.sol": {
		"Proxy": {
			"abi": [
				{
					"inputs": [
						{
							"internalType": "address",
							"name": "_implementation",
							"type": "address"
						}
					],
					"stateMutability": "nonpayable",
					"type": "constructor"
				},
				{
					"anonymous": false,
					"inputs": [
						{
							"indexed": true,
							"internalType": "address",
							"name": "newImplementation",
							"type": "address"
						}
					],
					"name": "Upgraded",
					"type": "event"
				},
				{
					"stateMutability": "payable",
					"type": "fallback"
				},
				{
					"inputs": [],
					"name": "implementation",
					"outputs": [
						{
							"internalType": "address",
							"name": "",
							"type": "address"
						}
					],
					"stateMutability": "view",
					"type": "function"
				},
				{
					"inputs": [],
					"name": "owner",
					"outputs": [
						{
							"internalType": "address",
							"name": "",
							"type": "address"
						}
					],
					"stateMutability": "view",
					"type": "function"
				},
				{
					"inputs": [
						{
							"internalType": "address",
							"name": "newImplementation",
							"type": "address"
						}
					],
					"name": "upgrade",
					"outputs": [],
					"stateMutability": "nonpayable",
					"type": "function"
				},
				{
					"inputs": [],
					"name": "value",
					"outputs": [
						{
							"internalType": "uint256",
							"name": "",
							"type": "uint256"
						}
					],
					"stateMutability": "view",
					"type": "function"
				},
				{
					"stateMutability": "payable",
					"type": "receive"
				}
			],
			"devdoc": {
				"kind": "dev",
				"methods": {
					"upgrade(address)": {
						"params": {
							"newImplementation": "新的逻辑合约地址"
						}
					}
				},
				"version": 1
			},
			"evm": {
				"assembly": "    /* \"contracts/lesson8.1/03ProxyCon.sol\":1572:3509  contract Proxy {... */\n  mstore(0x40, 0x80)\n    /* \"contracts/lesson8.1/03ProxyCon.sol\":1964:2081  constructor(address _implementation) {... */\n  callvalue\n  dup1\n  iszero\n  tag_1\n  jumpi\n  revert(0x00, 0x00)\ntag_1:\n  pop\n  mload(0x40)\n  sub(codesize, bytecodeSize)\n  dup1\n  bytecodeSize\n  dup4\n  codecopy\n  dup2\n  dup2\n  add\n  0x40\n  mstore\n  dup2\n  add\n  swap1\n  tag_2\n  swap2\n  swap1\n  tag_3\n  jump\t// in\ntag_2:\n    /* \"contracts/lesson8.1/03ProxyCon.sol\":2029:2044  _implementation */\n  dup1\n    /* \"contracts/lesson8.1/03ProxyCon.sol\":2012:2026  implementation */\n  0x00\n  0x00\n    /* \"contracts/lesson8.1/03ProxyCon.sol\":2012:2044  implementation = _implementation */\n  0x0100\n  exp\n  dup2\n  sload\n  dup2\n  0xffffffffffffffffffffffffffffffffffffffff\n  mul\n  not\n  and\n  swap1\n  dup4\n  0xffffffffffffffffffffffffffffffffffffffff\n  and\n  mul\n  or\n  swap1\n  sstore\n  pop\n    /* \"contracts/lesson8.1/03ProxyCon.sol\":2063:2073  msg.sender */\n  caller\n    /* \"contracts/lesson8.1/03ProxyCon.sol\":2055:2060  owner */\n  0x02\n  0x00\n    /* \"contracts/lesson8.1/03ProxyCon.sol\":2055:2073  owner = msg.sender */\n  0x0100\n  exp\n  dup2\n  sload\n  dup2\n  0xffffffffffffffffffffffffffffffffffffffff\n  mul\n  not\n  and\n  swap1\n  dup4\n  0xffffffffffffffffffffffffffffffffffffffff\n  and\n  mul\n  or\n  swap1\n  sstore\n  pop\n    /* \"contracts/lesson8.1/03ProxyCon.sol\":1964:2081  constructor(address _implementation) {... */\n  pop\n    /* \"contracts/lesson8.1/03ProxyCon.sol\":1572:3509  contract Proxy {... */\n  jump(tag_6)\n    /* \"#utility.yul\":88:205   */\ntag_8:\n    /* \"#utility.yul\":197:198   */\n  0x00\n    /* \"#utility.yul\":194:195   */\n  0x00\n    /* \"#utility.yul\":187:199   */\n  revert\n    /* \"#utility.yul\":334:460   */\ntag_10:\n    /* \"#utility.yul\":371:378   */\n  0x00\n    /* \"#utility.yul\":411:453   */\n  0xffffffffffffffffffffffffffffffffffffffff\n    /* \"#utility.yul\":404:409   */\n  dup3\n    /* \"#utility.yul\":400:454   */\n  and\n    /* \"#utility.yul\":389:454   */\n  swap1\n  pop\n    /* \"#utility.yul\":334:460   */\n  swap2\n  swap1\n  pop\n  jump\t// out\n    /* \"#utility.yul\":466:562   */\ntag_11:\n    /* \"#utility.yul\":503:510   */\n  0x00\n    /* \"#utility.yul\":532:556   */\n  tag_20\n    /* \"#utility.yul\":550:555   */\n  dup3\n    /* \"#utility.yul\":532:556   */\n  tag_10\n  jump\t// in\ntag_20:\n    /* \"#utility.yul\":521:556   */\n  swap1\n  pop\n    /* \"#utility.yul\":466:562   */\n  swap2\n  swap1\n  pop\n  jump\t// out\n    /* \"#utility.yul\":568:690   */\ntag_12:\n    /* \"#utility.yul\":641:665   */\n  tag_22\n    /* \"#utility.yul\":659:664   */\n  dup2\n    /* \"#utility.yul\":641:665   */\n  tag_11\n  jump\t// in\ntag_22:\n    /* \"#utility.yul\":634:639   */\n  dup2\n    /* \"#utility.yul\":631:666   */\n  eq\n    /* \"#utility.yul\":621:684   */\n  tag_23\n  jumpi\n    /* \"#utility.yul\":680:681   */\n  0x00\n    /* \"#utility.yul\":677:678   */\n  0x00\n    /* \"#utility.yul\":670:682   */\n  revert\n    /* \"#utility.yul\":621:684   */\ntag_23:\n    /* \"#utility.yul\":568:690   */\n  pop\n  jump\t// out\n    /* \"#utility.yul\":696:839   */\ntag_13:\n    /* \"#utility.yul\":753:758   */\n  0x00\n    /* \"#utility.yul\":784:790   */\n  dup2\n    /* \"#utility.yul\":778:791   */\n  mload\n    /* \"#utility.yul\":769:791   */\n  swap1\n  pop\n    /* \"#utility.yul\":800:833   */\n  tag_25\n    /* \"#utility.yul\":827:832   */\n  dup2\n    /* \"#utility.yul\":800:833   */\n  tag_12\n  jump\t// in\ntag_25:\n    /* \"#utility.yul\":696:839   */\n  swap3\n  swap2\n  pop\n  pop\n  jump\t// out\n    /* \"#utility.yul\":845:1196   */\ntag_3:\n    /* \"#utility.yul\":915:921   */\n  0x00\n    /* \"#utility.yul\":964:966   */\n  0x20\n    /* \"#utility.yul\":952:961   */\n  dup3\n    /* \"#utility.yul\":943:950   */\n  dup5\n    /* \"#utility.yul\":939:962   */\n  sub\n    /* \"#utility.yul\":935:967   */\n  slt\n    /* \"#utility.yul\":932:1051   */\n  iszero\n  tag_27\n  jumpi\n    /* \"#utility.yul\":970:1049   */\n  tag_28\n  tag_8\n  jump\t// in\ntag_28:\n    /* \"#utility.yul\":932:1051   */\ntag_27:\n    /* \"#utility.yul\":1090:1091   */\n  0x00\n    /* \"#utility.yul\":1115:1179   */\n  tag_29\n    /* \"#utility.yul\":1171:1178   */\n  dup5\n    /* \"#utility.yul\":1162:1168   */\n  dup3\n    /* \"#utility.yul\":1151:1160   */\n  dup6\n    /* \"#utility.yul\":1147:1169   */\n  add\n    /* \"#utility.yul\":1115:1179   */\n  tag_13\n  jump\t// in\ntag_29:\n    /* \"#utility.yul\":1105:1179   */\n  swap2\n  pop\n    /* \"#utility.yul\":1061:1189   */\n  pop\n    /* \"#utility.yul\":845:1196   */\n  swap3\n  swap2\n  pop\n  pop\n  jump\t// out\n    /* \"contracts/lesson8.1/03ProxyCon.sol\":1572:3509  contract Proxy {... */\ntag_6:\n  dataSize(sub_0)\n  dup1\n  dataOffset(sub_0)\n  0x00\n  codecopy\n  0x00\n  return\nstop\n\nsub_0: assembly {\n        /* \"contracts/lesson8.1/03ProxyCon.sol\":1572:3509  contract Proxy {... */\n      mstore(0x40, 0x80)\n      jumpi(tag_1, lt(calldatasize, 0x04))\n      shr(0xe0, calldataload(0x00))\n      dup1\n      0x0900f010\n      eq\n      tag_3\n      jumpi\n      dup1\n      0x3fa4f245\n      eq\n      tag_4\n      jumpi\n      dup1\n      0x5c60da1b\n      eq\n      tag_5\n      jumpi\n      dup1\n      0x8da5cb5b\n      eq\n      tag_6\n      jumpi\n      jump(tag_2)\n    tag_1:\n      jumpi(tag_2, calldatasize)\n      stop\n    tag_2:\n        /* \"contracts/lesson8.1/03ProxyCon.sol\":2669:2681  address impl */\n      0x00\n        /* \"contracts/lesson8.1/03ProxyCon.sol\":2684:2698  implementation */\n      0x00\n      0x00\n      swap1\n      sload\n      swap1\n      0x0100\n      exp\n      swap1\n      div\n      0xffffffffffffffffffffffffffffffffffffffff\n      and\n        /* \"contracts/lesson8.1/03ProxyCon.sol\":2669:2698  address impl = implementation */\n      swap1\n      pop\n        /* \"contracts/lesson8.1/03ProxyCon.sol\":2733:2734  0 */\n      0x00\n        /* \"contracts/lesson8.1/03ProxyCon.sol\":2717:2735  impl != address(0) */\n      0xffffffffffffffffffffffffffffffffffffffff\n      and\n        /* \"contracts/lesson8.1/03ProxyCon.sol\":2717:2721  impl */\n      dup2\n        /* \"contracts/lesson8.1/03ProxyCon.sol\":2717:2735  impl != address(0) */\n      0xffffffffffffffffffffffffffffffffffffffff\n      and\n      sub\n        /* \"contracts/lesson8.1/03ProxyCon.sol\":2709:2762  require(impl != address(0), \"Implementation not set\") */\n      tag_11\n      jumpi\n      mload(0x40)\n      0x08c379a000000000000000000000000000000000000000000000000000000000\n      dup2\n      mstore\n      0x04\n      add\n      tag_12\n      swap1\n      tag_13\n      jump\t// in\n    tag_12:\n      mload(0x40)\n      dup1\n      swap2\n      sub\n      swap1\n      revert\n    tag_11:\n        /* \"contracts/lesson8.1/03ProxyCon.sol\":3007:3019  bool success */\n      0x00\n        /* \"contracts/lesson8.1/03ProxyCon.sol\":3021:3044  bytes memory returnData */\n      0x00\n        /* \"contracts/lesson8.1/03ProxyCon.sol\":3048:3052  impl */\n      dup3\n        /* \"contracts/lesson8.1/03ProxyCon.sol\":3048:3065  impl.delegatecall */\n      0xffffffffffffffffffffffffffffffffffffffff\n      and\n        /* \"contracts/lesson8.1/03ProxyCon.sol\":3066:3074  msg.data */\n      0x00\n      calldatasize\n        /* \"contracts/lesson8.1/03ProxyCon.sol\":3048:3075  impl.delegatecall(msg.data) */\n      mload(0x40)\n      tag_14\n      swap3\n      swap2\n      swap1\n      tag_15\n      jump\t// in\n    tag_14:\n      0x00\n      mload(0x40)\n      dup1\n      dup4\n      sub\n      dup2\n      dup6\n      gas\n      delegatecall\n      swap2\n      pop\n      pop\n      returndatasize\n      dup1\n      0x00\n      dup2\n      eq\n      tag_18\n      jumpi\n      mload(0x40)\n      swap2\n      pop\n      and(add(returndatasize, 0x3f), not(0x1f))\n      dup3\n      add\n      0x40\n      mstore\n      returndatasize\n      dup3\n      mstore\n      returndatasize\n      0x00\n      0x20\n      dup5\n      add\n      returndatacopy\n      jump(tag_17)\n    tag_18:\n      0x60\n      swap2\n      pop\n    tag_17:\n      pop\n        /* \"contracts/lesson8.1/03ProxyCon.sol\":3006:3075  (bool success, bytes memory returnData) = impl.delegatecall(msg.data) */\n      swap2\n      pop\n      swap2\n      pop\n        /* \"contracts/lesson8.1/03ProxyCon.sol\":3101:3108  success */\n      dup2\n        /* \"contracts/lesson8.1/03ProxyCon.sol\":3096:3306  if (!success) {... */\n      tag_19\n      jumpi\n        /* \"contracts/lesson8.1/03ProxyCon.sol\":3218:3234  returndatasize() */\n      returndatasize\n        /* \"contracts/lesson8.1/03ProxyCon.sol\":3215:3216  0 */\n      0x00\n        /* \"contracts/lesson8.1/03ProxyCon.sol\":3212:3213  0 */\n      0x00\n        /* \"contracts/lesson8.1/03ProxyCon.sol\":3197:3235  returndatacopy(0, 0, returndatasize()) */\n      returndatacopy\n        /* \"contracts/lesson8.1/03ProxyCon.sol\":3263:3279  returndatasize() */\n      returndatasize\n        /* \"contracts/lesson8.1/03ProxyCon.sol\":3260:3261  0 */\n      0x00\n        /* \"contracts/lesson8.1/03ProxyCon.sol\":3253:3280  revert(0, returndatasize()) */\n      revert\n        /* \"contracts/lesson8.1/03ProxyCon.sol\":3096:3306  if (!success) {... */\n    tag_19:\n        /* \"contracts/lesson8.1/03ProxyCon.sol\":3411:3421  returnData */\n      dup1\n        /* \"contracts/lesson8.1/03ProxyCon.sol\":3405:3422  mload(returnData) */\n      mload\n        /* \"contracts/lesson8.1/03ProxyCon.sol\":3398:3402  0x20 */\n      0x20\n        /* \"contracts/lesson8.1/03ProxyCon.sol\":3386:3396  returnData */\n      dup3\n        /* \"contracts/lesson8.1/03ProxyCon.sol\":3382:3403  add(returnData, 0x20) */\n      add\n        /* \"contracts/lesson8.1/03ProxyCon.sol\":3375:3423  return(add(returnData, 0x20), mload(returnData)) */\n      return\n        /* \"contracts/lesson8.1/03ProxyCon.sol\":2219:2420  function upgrade(address newImplementation) external {... */\n    tag_3:\n      callvalue\n      dup1\n      iszero\n      tag_20\n      jumpi\n      revert(0x00, 0x00)\n    tag_20:\n      pop\n      tag_21\n      0x04\n      dup1\n      calldatasize\n      sub\n      dup2\n      add\n      swap1\n      tag_22\n      swap2\n      swap1\n      tag_23\n      jump\t// in\n    tag_22:\n      tag_24\n      jump\t// in\n    tag_21:\n      stop\n        /* \"contracts/lesson8.1/03ProxyCon.sol\":1706:1726  uint256 public value */\n    tag_4:\n      callvalue\n      dup1\n      iszero\n      tag_25\n      jumpi\n      revert(0x00, 0x00)\n    tag_25:\n      pop\n      tag_26\n      tag_27\n      jump\t// in\n    tag_26:\n      mload(0x40)\n      tag_28\n      swap2\n      swap1\n      tag_29\n      jump\t// in\n    tag_28:\n      mload(0x40)\n      dup1\n      swap2\n      sub\n      swap1\n      return\n        /* \"contracts/lesson8.1/03ProxyCon.sol\":1648:1677  address public implementation */\n    tag_5:\n      callvalue\n      dup1\n      iszero\n      tag_30\n      jumpi\n      revert(0x00, 0x00)\n    tag_30:\n      pop\n      tag_31\n      tag_32\n      jump\t// in\n    tag_31:\n      mload(0x40)\n      tag_33\n      swap2\n      swap1\n      tag_34\n      jump\t// in\n    tag_33:\n      mload(0x40)\n      dup1\n      swap2\n      sub\n      swap1\n      return\n        /* \"contracts/lesson8.1/03ProxyCon.sol\":1775:1795  address public owner */\n    tag_6:\n      callvalue\n      dup1\n      iszero\n      tag_35\n      jumpi\n      revert(0x00, 0x00)\n    tag_35:\n      pop\n      tag_36\n      tag_37\n      jump\t// in\n    tag_36:\n      mload(0x40)\n      tag_38\n      swap2\n      swap1\n      tag_34\n      jump\t// in\n    tag_38:\n      mload(0x40)\n      dup1\n      swap2\n      sub\n      swap1\n      return\n        /* \"contracts/lesson8.1/03ProxyCon.sol\":2219:2420  function upgrade(address newImplementation) external {... */\n    tag_24:\n        /* \"contracts/lesson8.1/03ProxyCon.sol\":2305:2310  owner */\n      0x02\n      0x00\n      swap1\n      sload\n      swap1\n      0x0100\n      exp\n      swap1\n      div\n      0xffffffffffffffffffffffffffffffffffffffff\n      and\n        /* \"contracts/lesson8.1/03ProxyCon.sol\":2291:2310  msg.sender == owner */\n      0xffffffffffffffffffffffffffffffffffffffff\n      and\n        /* \"contracts/lesson8.1/03ProxyCon.sol\":2291:2301  msg.sender */\n      caller\n        /* \"contracts/lesson8.1/03ProxyCon.sol\":2291:2310  msg.sender == owner */\n      0xffffffffffffffffffffffffffffffffffffffff\n      and\n      eq\n        /* \"contracts/lesson8.1/03ProxyCon.sol\":2283:2324  require(msg.sender == owner, \"Not owner\") */\n      tag_40\n      jumpi\n      mload(0x40)\n      0x08c379a000000000000000000000000000000000000000000000000000000000\n      dup2\n      mstore\n      0x04\n      add\n      tag_41\n      swap1\n      tag_42\n      jump\t// in\n    tag_41:\n      mload(0x40)\n      dup1\n      swap2\n      sub\n      swap1\n      revert\n    tag_40:\n        /* \"contracts/lesson8.1/03ProxyCon.sol\":2352:2369  newImplementation */\n      dup1\n        /* \"contracts/lesson8.1/03ProxyCon.sol\":2335:2349  implementation */\n      0x00\n      0x00\n        /* \"contracts/lesson8.1/03ProxyCon.sol\":2335:2369  implementation = newImplementation */\n      0x0100\n      exp\n      dup2\n      sload\n      dup2\n      0xffffffffffffffffffffffffffffffffffffffff\n      mul\n      not\n      and\n      swap1\n      dup4\n      0xffffffffffffffffffffffffffffffffffffffff\n      and\n      mul\n      or\n      swap1\n      sstore\n      pop\n        /* \"contracts/lesson8.1/03ProxyCon.sol\":2394:2411  newImplementation */\n      dup1\n        /* \"contracts/lesson8.1/03ProxyCon.sol\":2385:2412  Upgraded(newImplementation) */\n      0xffffffffffffffffffffffffffffffffffffffff\n      and\n      0xbc7cd75a20ee27fd9adebab32041f755214dbc6bffa90cc0225b39da2e5c2d3b\n      mload(0x40)\n      mload(0x40)\n      dup1\n      swap2\n      sub\n      swap1\n      log2\n        /* \"contracts/lesson8.1/03ProxyCon.sol\":2219:2420  function upgrade(address newImplementation) external {... */\n      pop\n      jump\t// out\n        /* \"contracts/lesson8.1/03ProxyCon.sol\":1706:1726  uint256 public value */\n    tag_27:\n      sload(0x01)\n      dup2\n      jump\t// out\n        /* \"contracts/lesson8.1/03ProxyCon.sol\":1648:1677  address public implementation */\n    tag_32:\n      0x00\n      0x00\n      swap1\n      sload\n      swap1\n      0x0100\n      exp\n      swap1\n      div\n      0xffffffffffffffffffffffffffffffffffffffff\n      and\n      dup2\n      jump\t// out\n        /* \"contracts/lesson8.1/03ProxyCon.sol\":1775:1795  address public owner */\n    tag_37:\n      0x02\n      0x00\n      swap1\n      sload\n      swap1\n      0x0100\n      exp\n      swap1\n      div\n      0xffffffffffffffffffffffffffffffffffffffff\n      and\n      dup2\n      jump\t// out\n        /* \"#utility.yul\":7:176   */\n    tag_43:\n        /* \"#utility.yul\":91:102   */\n      0x00\n        /* \"#utility.yul\":125:131   */\n      dup3\n        /* \"#utility.yul\":120:123   */\n      dup3\n        /* \"#utility.yul\":113:132   */\n      mstore\n        /* \"#utility.yul\":165:169   */\n      0x20\n        /* \"#utility.yul\":160:163   */\n      dup3\n        /* \"#utility.yul\":156:170   */\n      add\n        /* \"#utility.yul\":141:170   */\n      swap1\n      pop\n        /* \"#utility.yul\":7:176   */\n      swap3\n      swap2\n      pop\n      pop\n      jump\t// out\n        /* \"#utility.yul\":182:354   */\n    tag_44:\n        /* \"#utility.yul\":322:346   */\n      0x496d706c656d656e746174696f6e206e6f742073657400000000000000000000\n        /* \"#utility.yul\":318:319   */\n      0x00\n        /* \"#utility.yul\":310:316   */\n      dup3\n        /* \"#utility.yul\":306:320   */\n      add\n        /* \"#utility.yul\":299:347   */\n      mstore\n        /* \"#utility.yul\":182:354   */\n      pop\n      jump\t// out\n        /* \"#utility.yul\":360:726   */\n    tag_45:\n        /* \"#utility.yul\":502:505   */\n      0x00\n        /* \"#utility.yul\":523:590   */\n      tag_65\n        /* \"#utility.yul\":587:589   */\n      0x16\n        /* \"#utility.yul\":582:585   */\n      dup4\n        /* \"#utility.yul\":523:590   */\n      tag_43\n      jump\t// in\n    tag_65:\n        /* \"#utility.yul\":516:590   */\n      swap2\n      pop\n        /* \"#utility.yul\":599:692   */\n      tag_66\n        /* \"#utility.yul\":688:691   */\n      dup3\n        /* \"#utility.yul\":599:692   */\n      tag_44\n      jump\t// in\n    tag_66:\n        /* \"#utility.yul\":717:719   */\n      0x20\n        /* \"#utility.yul\":712:715   */\n      dup3\n        /* \"#utility.yul\":708:720   */\n      add\n        /* \"#utility.yul\":701:720   */\n      swap1\n      pop\n        /* \"#utility.yul\":360:726   */\n      swap2\n      swap1\n      pop\n      jump\t// out\n        /* \"#utility.yul\":732:1151   */\n    tag_13:\n        /* \"#utility.yul\":898:902   */\n      0x00\n        /* \"#utility.yul\":936:938   */\n      0x20\n        /* \"#utility.yul\":925:934   */\n      dup3\n        /* \"#utility.yul\":921:939   */\n      add\n        /* \"#utility.yul\":913:939   */\n      swap1\n      pop\n        /* \"#utility.yul\":985:994   */\n      dup2\n        /* \"#utility.yul\":979:983   */\n      dup2\n        /* \"#utility.yul\":975:995   */\n      sub\n        /* \"#utility.yul\":971:972   */\n      0x00\n        /* \"#utility.yul\":960:969   */\n      dup4\n        /* \"#utility.yul\":956:973   */\n      add\n        /* \"#utility.yul\":949:996   */\n      mstore\n        /* \"#utility.yul\":1013:1144   */\n      tag_68\n        /* \"#utility.yul\":1139:1143   */\n      dup2\n        /* \"#utility.yul\":1013:1144   */\n      tag_45\n      jump\t// in\n    tag_68:\n        /* \"#utility.yul\":1005:1144   */\n      swap1\n      pop\n        /* \"#utility.yul\":732:1151   */\n      swap2\n      swap1\n      pop\n      jump\t// out\n        /* \"#utility.yul\":1157:1304   */\n    tag_46:\n        /* \"#utility.yul\":1258:1269   */\n      0x00\n        /* \"#utility.yul\":1295:1298   */\n      dup2\n        /* \"#utility.yul\":1280:1298   */\n      swap1\n      pop\n        /* \"#utility.yul\":1157:1304   */\n      swap3\n      swap2\n      pop\n      pop\n      jump\t// out\n        /* \"#utility.yul\":1310:1458   */\n    tag_47:\n        /* \"#utility.yul\":1408:1414   */\n      dup3\n        /* \"#utility.yul\":1403:1406   */\n      dup2\n        /* \"#utility.yul\":1398:1401   */\n      dup4\n        /* \"#utility.yul\":1385:1415   */\n      calldatacopy\n        /* \"#utility.yul\":1449:1450   */\n      0x00\n        /* \"#utility.yul\":1440:1446   */\n      dup4\n        /* \"#utility.yul\":1435:1438   */\n      dup4\n        /* \"#utility.yul\":1431:1447   */\n      add\n        /* \"#utility.yul\":1424:1451   */\n      mstore\n        /* \"#utility.yul\":1310:1458   */\n      pop\n      pop\n      pop\n      jump\t// out\n        /* \"#utility.yul\":1486:1813   */\n    tag_48:\n        /* \"#utility.yul\":1600:1603   */\n      0x00\n        /* \"#utility.yul\":1621:1709   */\n      tag_72\n        /* \"#utility.yul\":1702:1708   */\n      dup4\n        /* \"#utility.yul\":1697:1700   */\n      dup6\n        /* \"#utility.yul\":1621:1709   */\n      tag_46\n      jump\t// in\n    tag_72:\n        /* \"#utility.yul\":1614:1709   */\n      swap4\n      pop\n        /* \"#utility.yul\":1719:1775   */\n      tag_73\n        /* \"#utility.yul\":1768:1774   */\n      dup4\n        /* \"#utility.yul\":1763:1766   */\n      dup6\n        /* \"#utility.yul\":1756:1761   */\n      dup5\n        /* \"#utility.yul\":1719:1775   */\n      tag_47\n      jump\t// in\n    tag_73:\n        /* \"#utility.yul\":1800:1806   */\n      dup3\n        /* \"#utility.yul\":1795:1798   */\n      dup5\n        /* \"#utility.yul\":1791:1807   */\n      add\n        /* \"#utility.yul\":1784:1807   */\n      swap1\n      pop\n        /* \"#utility.yul\":1486:1813   */\n      swap4\n      swap3\n      pop\n      pop\n      pop\n      jump\t// out\n        /* \"#utility.yul\":1819:2110   */\n    tag_15:\n        /* \"#utility.yul\":1959:1962   */\n      0x00\n        /* \"#utility.yul\":1981:2084   */\n      tag_75\n        /* \"#utility.yul\":2080:2083   */\n      dup3\n        /* \"#utility.yul\":2071:2077   */\n      dup5\n        /* \"#utility.yul\":2063:2069   */\n      dup7\n        /* \"#utility.yul\":1981:2084   */\n      tag_48\n      jump\t// in\n    tag_75:\n        /* \"#utility.yul\":1974:2084   */\n      swap2\n      pop\n        /* \"#utility.yul\":2101:2104   */\n      dup2\n        /* \"#utility.yul\":2094:2104   */\n      swap1\n      pop\n        /* \"#utility.yul\":1819:2110   */\n      swap4\n      swap3\n      pop\n      pop\n      pop\n      jump\t// out\n        /* \"#utility.yul\":2197:2314   */\n    tag_50:\n        /* \"#utility.yul\":2306:2307   */\n      0x00\n        /* \"#utility.yul\":2303:2304   */\n      0x00\n        /* \"#utility.yul\":2296:2308   */\n      revert\n        /* \"#utility.yul\":2443:2569   */\n    tag_52:\n        /* \"#utility.yul\":2480:2487   */\n      0x00\n        /* \"#utility.yul\":2520:2562   */\n      0xffffffffffffffffffffffffffffffffffffffff\n        /* \"#utility.yul\":2513:2518   */\n      dup3\n        /* \"#utility.yul\":2509:2563   */\n      and\n        /* \"#utility.yul\":2498:2563   */\n      swap1\n      pop\n        /* \"#utility.yul\":2443:2569   */\n      swap2\n      swap1\n      pop\n      jump\t// out\n        /* \"#utility.yul\":2575:2671   */\n    tag_53:\n        /* \"#utility.yul\":2612:2619   */\n      0x00\n        /* \"#utility.yul\":2641:2665   */\n      tag_81\n        /* \"#utility.yul\":2659:2664   */\n      dup3\n        /* \"#utility.yul\":2641:2665   */\n      tag_52\n      jump\t// in\n    tag_81:\n        /* \"#utility.yul\":2630:2665   */\n      swap1\n      pop\n        /* \"#utility.yul\":2575:2671   */\n      swap2\n      swap1\n      pop\n      jump\t// out\n        /* \"#utility.yul\":2677:2799   */\n    tag_54:\n        /* \"#utility.yul\":2750:2774   */\n      tag_83\n        /* \"#utility.yul\":2768:2773   */\n      dup2\n        /* \"#utility.yul\":2750:2774   */\n      tag_53\n      jump\t// in\n    tag_83:\n        /* \"#utility.yul\":2743:2748   */\n      dup2\n        /* \"#utility.yul\":2740:2775   */\n      eq\n        /* \"#utility.yul\":2730:2793   */\n      tag_84\n      jumpi\n        /* \"#utility.yul\":2789:2790   */\n      0x00\n        /* \"#utility.yul\":2786:2787   */\n      0x00\n        /* \"#utility.yul\":2779:2791   */\n      revert\n        /* \"#utility.yul\":2730:2793   */\n    tag_84:\n        /* \"#utility.yul\":2677:2799   */\n      pop\n      jump\t// out\n        /* \"#utility.yul\":2805:2944   */\n    tag_55:\n        /* \"#utility.yul\":2851:2856   */\n      0x00\n        /* \"#utility.yul\":2889:2895   */\n      dup2\n        /* \"#utility.yul\":2876:2896   */\n      calldataload\n        /* \"#utility.yul\":2867:2896   */\n      swap1\n      pop\n        /* \"#utility.yul\":2905:2938   */\n      tag_86\n        /* \"#utility.yul\":2932:2937   */\n      dup2\n        /* \"#utility.yul\":2905:2938   */\n      tag_54\n      jump\t// in\n    tag_86:\n        /* \"#utility.yul\":2805:2944   */\n      swap3\n      swap2\n      pop\n      pop\n      jump\t// out\n        /* \"#utility.yul\":2950:3279   */\n    tag_23:\n        /* \"#utility.yul\":3009:3015   */\n      0x00\n        /* \"#utility.yul\":3058:3060   */\n      0x20\n        /* \"#utility.yul\":3046:3055   */\n      dup3\n        /* \"#utility.yul\":3037:3044   */\n      dup5\n        /* \"#utility.yul\":3033:3056   */\n      sub\n        /* \"#utility.yul\":3029:3061   */\n      slt\n        /* \"#utility.yul\":3026:3145   */\n      iszero\n      tag_88\n      jumpi\n        /* \"#utility.yul\":3064:3143   */\n      tag_89\n      tag_50\n      jump\t// in\n    tag_89:\n        /* \"#utility.yul\":3026:3145   */\n    tag_88:\n        /* \"#utility.yul\":3184:3185   */\n      0x00\n        /* \"#utility.yul\":3209:3262   */\n      tag_90\n        /* \"#utility.yul\":3254:3261   */\n      dup5\n        /* \"#utility.yul\":3245:3251   */\n      dup3\n        /* \"#utility.yul\":3234:3243   */\n      dup6\n        /* \"#utility.yul\":3230:3252   */\n      add\n        /* \"#utility.yul\":3209:3262   */\n      tag_55\n      jump\t// in\n    tag_90:\n        /* \"#utility.yul\":3199:3262   */\n      swap2\n      pop\n        /* \"#utility.yul\":3155:3272   */\n      pop\n        /* \"#utility.yul\":2950:3279   */\n      swap3\n      swap2\n      pop\n      pop\n      jump\t// out\n        /* \"#utility.yul\":3285:3362   */\n    tag_56:\n        /* \"#utility.yul\":3322:3329   */\n      0x00\n        /* \"#utility.yul\":3351:3356   */\n      dup2\n        /* \"#utility.yul\":3340:3356   */\n      swap1\n      pop\n        /* \"#utility.yul\":3285:3362   */\n      swap2\n      swap1\n      pop\n      jump\t// out\n        /* \"#utility.yul\":3368:3486   */\n    tag_57:\n        /* \"#utility.yul\":3455:3479   */\n      tag_93\n        /* \"#utility.yul\":3473:3478   */\n      dup2\n        /* \"#utility.yul\":3455:3479   */\n      tag_56\n      jump\t// in\n    tag_93:\n        /* \"#utility.yul\":3450:3453   */\n      dup3\n        /* \"#utility.yul\":3443:3480   */\n      mstore\n        /* \"#utility.yul\":3368:3486   */\n      pop\n      pop\n      jump\t// out\n        /* \"#utility.yul\":3492:3714   */\n    tag_29:\n        /* \"#utility.yul\":3585:3589   */\n      0x00\n        /* \"#utility.yul\":3623:3625   */\n      0x20\n        /* \"#utility.yul\":3612:3621   */\n      dup3\n        /* \"#utility.yul\":3608:3626   */\n      add\n        /* \"#utility.yul\":3600:3626   */\n      swap1\n      pop\n        /* \"#utility.yul\":3636:3707   */\n      tag_95\n        /* \"#utility.yul\":3704:3705   */\n      0x00\n        /* \"#utility.yul\":3693:3702   */\n      dup4\n        /* \"#utility.yul\":3689:3706   */\n      add\n        /* \"#utility.yul\":3680:3686   */\n      dup5\n        /* \"#utility.yul\":3636:3707   */\n      tag_57\n      jump\t// in\n    tag_95:\n        /* \"#utility.yul\":3492:3714   */\n      swap3\n      swap2\n      pop\n      pop\n      jump\t// out\n        /* \"#utility.yul\":3720:3838   */\n    tag_58:\n        /* \"#utility.yul\":3807:3831   */\n      tag_97\n        /* \"#utility.yul\":3825:3830   */\n      dup2\n        /* \"#utility.yul\":3807:3831   */\n      tag_53\n      jump\t// in\n    tag_97:\n        /* \"#utility.yul\":3802:3805   */\n      dup3\n        /* \"#utility.yul\":3795:3832   */\n      mstore\n        /* \"#utility.yul\":3720:3838   */\n      pop\n      pop\n      jump\t// out\n        /* \"#utility.yul\":3844:4066   */\n    tag_34:\n        /* \"#utility.yul\":3937:3941   */\n      0x00\n        /* \"#utility.yul\":3975:3977   */\n      0x20\n        /* \"#utility.yul\":3964:3973   */\n      dup3\n        /* \"#utility.yul\":3960:3978   */\n      add\n        /* \"#utility.yul\":3952:3978   */\n      swap1\n      pop\n        /* \"#utility.yul\":3988:4059   */\n      tag_99\n        /* \"#utility.yul\":4056:4057   */\n      0x00\n        /* \"#utility.yul\":4045:4054   */\n      dup4\n        /* \"#utility.yul\":4041:4058   */\n      add\n        /* \"#utility.yul\":4032:4038   */\n      dup5\n        /* \"#utility.yul\":3988:4059   */\n      tag_58\n      jump\t// in\n    tag_99:\n        /* \"#utility.yul\":3844:4066   */\n      swap3\n      swap2\n      pop\n      pop\n      jump\t// out\n        /* \"#utility.yul\":4072:4231   */\n    tag_59:\n        /* \"#utility.yul\":4212:4223   */\n      0x4e6f74206f776e65720000000000000000000000000000000000000000000000\n        /* \"#utility.yul\":4208:4209   */\n      0x00\n        /* \"#utility.yul\":4200:4206   */\n      dup3\n        /* \"#utility.yul\":4196:4210   */\n      add\n        /* \"#utility.yul\":4189:4224   */\n      mstore\n        /* \"#utility.yul\":4072:4231   */\n      pop\n      jump\t// out\n        /* \"#utility.yul\":4237:4602   */\n    tag_60:\n        /* \"#utility.yul\":4379:4382   */\n      0x00\n        /* \"#utility.yul\":4400:4466   */\n      tag_102\n        /* \"#utility.yul\":4464:4465   */\n      0x09\n        /* \"#utility.yul\":4459:4462   */\n      dup4\n        /* \"#utility.yul\":4400:4466   */\n      tag_43\n      jump\t// in\n    tag_102:\n        /* \"#utility.yul\":4393:4466   */\n      swap2\n      pop\n        /* \"#utility.yul\":4475:4568   */\n      tag_103\n        /* \"#utility.yul\":4564:4567   */\n      dup3\n        /* \"#utility.yul\":4475:4568   */\n      tag_59\n      jump\t// in\n    tag_103:\n        /* \"#utility.yul\":4593:4595   */\n      0x20\n        /* \"#utility.yul\":4588:4591   */\n      dup3\n        /* \"#utility.yul\":4584:4596   */\n      add\n        /* \"#utility.yul\":4577:4596   */\n      swap1\n      pop\n        /* \"#utility.yul\":4237:4602   */\n      swap2\n      swap1\n      pop\n      jump\t// out\n        /* \"#utility.yul\":4608:5027   */\n    tag_42:\n        /* \"#utility.yul\":4774:4778   */\n      0x00\n        /* \"#utility.yul\":4812:4814   */\n      0x20\n        /* \"#utility.yul\":4801:4810   */\n      dup3\n        /* \"#utility.yul\":4797:4815   */\n      add\n        /* \"#utility.yul\":4789:4815   */\n      swap1\n      pop\n        /* \"#utility.yul\":4861:4870   */\n      dup2\n        /* \"#utility.yul\":4855:4859   */\n      dup2\n        /* \"#utility.yul\":4851:4871   */\n      sub\n        /* \"#utility.yul\":4847:4848   */\n      0x00\n        /* \"#utility.yul\":4836:4845   */\n      dup4\n        /* \"#utility.yul\":4832:4849   */\n      add\n        /* \"#utility.yul\":4825:4872   */\n      mstore\n        /* \"#utility.yul\":4889:5020   */\n      tag_105\n        /* \"#utility.yul\":5015:5019   */\n      dup2\n        /* \"#utility.yul\":4889:5020   */\n      tag_60\n      jump\t// in\n    tag_105:\n        /* \"#utility.yul\":4881:5020   */\n      swap1\n      pop\n        /* \"#utility.yul\":4608:5027   */\n      swap2\n      swap1\n      pop\n      jump\t// out\n\n    auxdata: 0xa2646970667358221220fe75f53f75292753f0c1fc70e20d087defc3e1e6ed0f3e5a25adf6074e9c12c464736f6c634300081e0033\n}\n",
				"bytecode": {
					"linkReferences": {},
					"object": "608060405234801561000f575f5ffd5b506040516106fc3803806106fc83398181016040528101906100319190610114565b805f5f6101000a81548173ffffffffffffffffffffffffffffffffffffffff021916908373ffffffffffffffffffffffffffffffffffffffff1602179055503360025f6101000a81548173ffffffffffffffffffffffffffffffffffffffff021916908373ffffffffffffffffffffffffffffffffffffffff1602179055505061013f565b5f5ffd5b5f73ffffffffffffffffffffffffffffffffffffffff82169050919050565b5f6100e3826100ba565b9050919050565b6100f3816100d9565b81146100fd575f5ffd5b50565b5f8151905061010e816100ea565b92915050565b5f60208284031215610129576101286100b6565b5b5f61013684828501610100565b91505092915050565b6105b08061014c5f395ff3fe608060405260043610610042575f3560e01c80630900f0101461015b5780633fa4f245146101835780635c60da1b146101ad5780638da5cb5b146101d757610049565b3661004957005b5f5f5f9054906101000a900473ffffffffffffffffffffffffffffffffffffffff1690505f73ffffffffffffffffffffffffffffffffffffffff168173ffffffffffffffffffffffffffffffffffffffff16036100db576040517f08c379a00000000000000000000000000000000000000000000000000000000081526004016100d2906103be565b60405180910390fd5b5f5f8273ffffffffffffffffffffffffffffffffffffffff165f36604051610104929190610418565b5f60405180830381855af49150503d805f811461013c576040519150601f19603f3d011682016040523d82523d5f602084013e610141565b606091505b509150915081610153573d5f5f3e3d5ffd5b805160208201f35b348015610166575f5ffd5b50610181600480360381019061017c919061048e565b610201565b005b34801561018e575f5ffd5b50610197610315565b6040516101a491906104d1565b60405180910390f35b3480156101b8575f5ffd5b506101c161031b565b6040516101ce91906104f9565b60405180910390f35b3480156101e2575f5ffd5b506101eb61033f565b6040516101f891906104f9565b60405180910390f35b60025f9054906101000a900473ffffffffffffffffffffffffffffffffffffffff1673ffffffffffffffffffffffffffffffffffffffff163373ffffffffffffffffffffffffffffffffffffffff1614610290576040517f08c379a00000000000000000000000000000000000000000000000000000000081526004016102879061055c565b60405180910390fd5b805f5f6101000a81548173ffffffffffffffffffffffffffffffffffffffff021916908373ffffffffffffffffffffffffffffffffffffffff1602179055508073ffffffffffffffffffffffffffffffffffffffff167fbc7cd75a20ee27fd9adebab32041f755214dbc6bffa90cc0225b39da2e5c2d3b60405160405180910390a250565b60015481565b5f5f9054906101000a900473ffffffffffffffffffffffffffffffffffffffff1681565b60025f9054906101000a900473ffffffffffffffffffffffffffffffffffffffff1681565b5f82825260208201905092915050565b7f496d706c656d656e746174696f6e206e6f7420736574000000000000000000005f82015250565b5f6103a8601683610364565b91506103b382610374565b602082019050919050565b5f6020820190508181035f8301526103d58161039c565b9050919050565b5f81905092915050565b828183375f83830152505050565b5f6103ff83856103dc565b935061040c8385846103e6565b82840190509392505050565b5f6104248284866103f4565b91508190509392505050565b5f5ffd5b5f73ffffffffffffffffffffffffffffffffffffffff82169050919050565b5f61045d82610434565b9050919050565b61046d81610453565b8114610477575f5ffd5b50565b5f8135905061048881610464565b92915050565b5f602082840312156104a3576104a2610430565b5b5f6104b08482850161047a565b91505092915050565b5f819050919050565b6104cb816104b9565b82525050565b5f6020820190506104e45f8301846104c2565b92915050565b6104f381610453565b82525050565b5f60208201905061050c5f8301846104ea565b92915050565b7f4e6f74206f776e657200000000000000000000000000000000000000000000005f82015250565b5f610546600983610364565b915061055182610512565b602082019050919050565b5f6020820190508181035f8301526105738161053a565b905091905056fea2646970667358221220fe75f53f75292753f0c1fc70e20d087defc3e1e6ed0f3e5a25adf6074e9c12c464736f6c634300081e0033",
					"opcodes": "PUSH1 0x80 PUSH1 0x40 MSTORE CALLVALUE DUP1 ISZERO PUSH2 0xF JUMPI PUSH0 PUSH0 REVERT JUMPDEST POP PUSH1 0x40 MLOAD PUSH2 0x6FC CODESIZE SUB DUP1 PUSH2 0x6FC DUP4 CODECOPY DUP2 DUP2 ADD PUSH1 0x40 MSTORE DUP2 ADD SWAP1 PUSH2 0x31 SWAP2 SWAP1 PUSH2 0x114 JUMP JUMPDEST DUP1 PUSH0 PUSH0 PUSH2 0x100 EXP DUP2 SLOAD DUP2 PUSH20 0xFFFFFFFFFFFFFFFFFFFFFFFFFFFFFFFFFFFFFFFF MUL NOT AND SWAP1 DUP4 PUSH20 0xFFFFFFFFFFFFFFFFFFFFFFFFFFFFFFFFFFFFFFFF AND MUL OR SWAP1 SSTORE POP CALLER PUSH1 0x2 PUSH0 PUSH2 0x100 EXP DUP2 SLOAD DUP2 PUSH20 0xFFFFFFFFFFFFFFFFFFFFFFFFFFFFFFFFFFFFFFFF MUL NOT AND SWAP1 DUP4 PUSH20 0xFFFFFFFFFFFFFFFFFFFFFFFFFFFFFFFFFFFFFFFF AND MUL OR SWAP1 SSTORE POP POP PUSH2 0x13F JUMP JUMPDEST PUSH0 PUSH0 REVERT JUMPDEST PUSH0 PUSH20 0xFFFFFFFFFFFFFFFFFFFFFFFFFFFFFFFFFFFFFFFF DUP3 AND SWAP1 POP SWAP2 SWAP1 POP JUMP JUMPDEST PUSH0 PUSH2 0xE3 DUP3 PUSH2 0xBA JUMP JUMPDEST SWAP1 POP SWAP2 SWAP1 POP JUMP JUMPDEST PUSH2 0xF3 DUP2 PUSH2 0xD9 JUMP JUMPDEST DUP2 EQ PUSH2 0xFD JUMPI PUSH0 PUSH0 REVERT JUMPDEST POP JUMP JUMPDEST PUSH0 DUP2 MLOAD SWAP1 POP PUSH2 0x10E DUP2 PUSH2 0xEA JUMP JUMPDEST SWAP3 SWAP2 POP POP JUMP JUMPDEST PUSH0 PUSH1 0x20 DUP3 DUP5 SUB SLT ISZERO PUSH2 0x129 JUMPI PUSH2 0x128 PUSH2 0xB6 JUMP JUMPDEST JUMPDEST PUSH0 PUSH2 0x136 DUP5 DUP3 DUP6 ADD PUSH2 0x100 JUMP JUMPDEST SWAP2 POP POP SWAP3 SWAP2 POP POP JUMP JUMPDEST PUSH2 0x5B0 DUP1 PUSH2 0x14C PUSH0 CODECOPY PUSH0 RETURN INVALID PUSH1 0x80 PUSH1 0x40 MSTORE PUSH1 0x4 CALLDATASIZE LT PUSH2 0x42 JUMPI PUSH0 CALLDATALOAD PUSH1 0xE0 SHR DUP1 PUSH4 0x900F010 EQ PUSH2 0x15B JUMPI DUP1 PUSH4 0x3FA4F245 EQ PUSH2 0x183 JUMPI DUP1 PUSH4 0x5C60DA1B EQ PUSH2 0x1AD JUMPI DUP1 PUSH4 0x8DA5CB5B EQ PUSH2 0x1D7 JUMPI PUSH2 0x49 JUMP JUMPDEST CALLDATASIZE PUSH2 0x49 JUMPI STOP JUMPDEST PUSH0 PUSH0 PUSH0 SWAP1 SLOAD SWAP1 PUSH2 0x100 EXP SWAP1 DIV PUSH20 0xFFFFFFFFFFFFFFFFFFFFFFFFFFFFFFFFFFFFFFFF AND SWAP1 POP PUSH0 PUSH20 0xFFFFFFFFFFFFFFFFFFFFFFFFFFFFFFFFFFFFFFFF AND DUP2 PUSH20 0xFFFFFFFFFFFFFFFFFFFFFFFFFFFFFFFFFFFFFFFF AND SUB PUSH2 0xDB JUMPI PUSH1 0x40 MLOAD PUSH32 0x8C379A000000000000000000000000000000000000000000000000000000000 DUP2 MSTORE PUSH1 0x4 ADD PUSH2 0xD2 SWAP1 PUSH2 0x3BE JUMP JUMPDEST PUSH1 0x40 MLOAD DUP1 SWAP2 SUB SWAP1 REVERT JUMPDEST PUSH0 PUSH0 DUP3 PUSH20 0xFFFFFFFFFFFFFFFFFFFFFFFFFFFFFFFFFFFFFFFF AND PUSH0 CALLDATASIZE PUSH1 0x40 MLOAD PUSH2 0x104 SWAP3 SWAP2 SWAP1 PUSH2 0x418 JUMP JUMPDEST PUSH0 PUSH1 0x40 MLOAD DUP1 DUP4 SUB DUP2 DUP6 GAS DELEGATECALL SWAP2 POP POP RETURNDATASIZE DUP1 PUSH0 DUP2 EQ PUSH2 0x13C JUMPI PUSH1 0x40 MLOAD SWAP2 POP PUSH1 0x1F NOT PUSH1 0x3F RETURNDATASIZE ADD AND DUP3 ADD PUSH1 0x40 MSTORE RETURNDATASIZE DUP3 MSTORE RETURNDATASIZE PUSH0 PUSH1 0x20 DUP5 ADD RETURNDATACOPY PUSH2 0x141 JUMP JUMPDEST PUSH1 0x60 SWAP2 POP JUMPDEST POP SWAP2 POP SWAP2 POP DUP2 PUSH2 0x153 JUMPI RETURNDATASIZE PUSH0 PUSH0 RETURNDATACOPY RETURNDATASIZE PUSH0 REVERT JUMPDEST DUP1 MLOAD PUSH1 0x20 DUP3 ADD RETURN JUMPDEST CALLVALUE DUP1 ISZERO PUSH2 0x166 JUMPI PUSH0 PUSH0 REVERT JUMPDEST POP PUSH2 0x181 PUSH1 0x4 DUP1 CALLDATASIZE SUB DUP2 ADD SWAP1 PUSH2 0x17C SWAP2 SWAP1 PUSH2 0x48E JUMP JUMPDEST PUSH2 0x201 JUMP JUMPDEST STOP JUMPDEST CALLVALUE DUP1 ISZERO PUSH2 0x18E JUMPI PUSH0 PUSH0 REVERT JUMPDEST POP PUSH2 0x197 PUSH2 0x315 JUMP JUMPDEST PUSH1 0x40 MLOAD PUSH2 0x1A4 SWAP2 SWAP1 PUSH2 0x4D1 JUMP JUMPDEST PUSH1 0x40 MLOAD DUP1 SWAP2 SUB SWAP1 RETURN JUMPDEST CALLVALUE DUP1 ISZERO PUSH2 0x1B8 JUMPI PUSH0 PUSH0 REVERT JUMPDEST POP PUSH2 0x1C1 PUSH2 0x31B JUMP JUMPDEST PUSH1 0x40 MLOAD PUSH2 0x1CE SWAP2 SWAP1 PUSH2 0x4F9 JUMP JUMPDEST PUSH1 0x40 MLOAD DUP1 SWAP2 SUB SWAP1 RETURN JUMPDEST CALLVALUE DUP1 ISZERO PUSH2 0x1E2 JUMPI PUSH0 PUSH0 REVERT JUMPDEST POP PUSH2 0x1EB PUSH2 0x33F JUMP JUMPDEST PUSH1 0x40 MLOAD PUSH2 0x1F8 SWAP2 SWAP1 PUSH2 0x4F9 JUMP JUMPDEST PUSH1 0x40 MLOAD DUP1 SWAP2 SUB SWAP1 RETURN JUMPDEST PUSH1 0x2 PUSH0 SWAP1 SLOAD SWAP1 PUSH2 0x100 EXP SWAP1 DIV PUSH20 0xFFFFFFFFFFFFFFFFFFFFFFFFFFFFFFFFFFFFFFFF AND PUSH20 0xFFFFFFFFFFFFFFFFFFFFFFFFFFFFFFFFFFFFFFFF AND CALLER PUSH20 0xFFFFFFFFFFFFFFFFFFFFFFFFFFFFFFFFFFFFFFFF AND EQ PUSH2 0x290 JUMPI PUSH1 0x40 MLOAD PUSH32 0x8C379A000000000000000000000000000000000000000000000000000000000 DUP2 MSTORE PUSH1 0x4 ADD PUSH2 0x287 SWAP1 PUSH2 0x55C JUMP JUMPDEST PUSH1 0x40 MLOAD DUP1 SWAP2 SUB SWAP1 REVERT JUMPDEST DUP1 PUSH0 PUSH0 PUSH2 0x100 EXP DUP2 SLOAD DUP2 PUSH20 0xFFFFFFFFFFFFFFFFFFFFFFFFFFFFFFFFFFFFFFFF MUL NOT AND SWAP1 DUP4 PUSH20 0xFFFFFFFFFFFFFFFFFFFFFFFFFFFFFFFFFFFFFFFF AND MUL OR SWAP1 SSTORE POP DUP1 PUSH20 0xFFFFFFFFFFFFFFFFFFFFFFFFFFFFFFFFFFFFFFFF AND PUSH32 0xBC7CD75A20EE27FD9ADEBAB32041F755214DBC6BFFA90CC0225B39DA2E5C2D3B PUSH1 0x40 MLOAD PUSH1 0x40 MLOAD DUP1 SWAP2 SUB SWAP1 LOG2 POP JUMP JUMPDEST PUSH1 0x1 SLOAD DUP2 JUMP JUMPDEST PUSH0 PUSH0 SWAP1 SLOAD SWAP1 PUSH2 0x100 EXP SWAP1 DIV PUSH20 0xFFFFFFFFFFFFFFFFFFFFFFFFFFFFFFFFFFFFFFFF AND DUP2 JUMP JUMPDEST PUSH1 0x2 PUSH0 SWAP1 SLOAD SWAP1 PUSH2 0x100 EXP SWAP1 DIV PUSH20 0xFFFFFFFFFFFFFFFFFFFFFFFFFFFFFFFFFFFFFFFF AND DUP2 JUMP JUMPDEST PUSH0 DUP3 DUP3 MSTORE PUSH1 0x20 DUP3 ADD SWAP1 POP SWAP3 SWAP2 POP POP JUMP JUMPDEST PUSH32 0x496D706C656D656E746174696F6E206E6F742073657400000000000000000000 PUSH0 DUP3 ADD MSTORE POP JUMP JUMPDEST PUSH0 PUSH2 0x3A8 PUSH1 0x16 DUP4 PUSH2 0x364 JUMP JUMPDEST SWAP2 POP PUSH2 0x3B3 DUP3 PUSH2 0x374 JUMP JUMPDEST PUSH1 0x20 DUP3 ADD SWAP1 POP SWAP2 SWAP1 POP JUMP JUMPDEST PUSH0 PUSH1 0x20 DUP3 ADD SWAP1 POP DUP2 DUP2 SUB PUSH0 DUP4 ADD MSTORE PUSH2 0x3D5 DUP2 PUSH2 0x39C JUMP JUMPDEST SWAP1 POP SWAP2 SWAP1 POP JUMP JUMPDEST PUSH0 DUP2 SWAP1 POP SWAP3 SWAP2 POP POP JUMP JUMPDEST DUP3 DUP2 DUP4 CALLDATACOPY PUSH0 DUP4 DUP4 ADD MSTORE POP POP POP JUMP JUMPDEST PUSH0 PUSH2 0x3FF DUP4 DUP6 PUSH2 0x3DC JUMP JUMPDEST SWAP4 POP PUSH2 0x40C DUP4 DUP6 DUP5 PUSH2 0x3E6 JUMP JUMPDEST DUP3 DUP5 ADD SWAP1 POP SWAP4 SWAP3 POP POP POP JUMP JUMPDEST PUSH0 PUSH2 0x424 DUP3 DUP5 DUP7 PUSH2 0x3F4 JUMP JUMPDEST SWAP2 POP DUP2 SWAP1 POP SWAP4 SWAP3 POP POP POP JUMP JUMPDEST PUSH0 PUSH0 REVERT JUMPDEST PUSH0 PUSH20 0xFFFFFFFFFFFFFFFFFFFFFFFFFFFFFFFFFFFFFFFF DUP3 AND SWAP1 POP SWAP2 SWAP1 POP JUMP JUMPDEST PUSH0 PUSH2 0x45D DUP3 PUSH2 0x434 JUMP JUMPDEST SWAP1 POP SWAP2 SWAP1 POP JUMP JUMPDEST PUSH2 0x46D DUP2 PUSH2 0x453 JUMP JUMPDEST DUP2 EQ PUSH2 0x477 JUMPI PUSH0 PUSH0 REVERT JUMPDEST POP JUMP JUMPDEST PUSH0 DUP2 CALLDATALOAD SWAP1 POP PUSH2 0x488 DUP2 PUSH2 0x464 JUMP JUMPDEST SWAP3 SWAP2 POP POP JUMP JUMPDEST PUSH0 PUSH1 0x20 DUP3 DUP5 SUB SLT ISZERO PUSH2 0x4A3 JUMPI PUSH2 0x4A2 PUSH2 0x430 JUMP JUMPDEST JUMPDEST PUSH0 PUSH2 0x4B0 DUP5 DUP3 DUP6 ADD PUSH2 0x47A JUMP JUMPDEST SWAP2 POP POP SWAP3 SWAP2 POP POP JUMP JUMPDEST PUSH0 DUP2 SWAP1 POP SWAP2 SWAP1 POP JUMP JUMPDEST PUSH2 0x4CB DUP2 PUSH2 0x4B9 JUMP JUMPDEST DUP3 MSTORE POP POP JUMP JUMPDEST PUSH0 PUSH1 0x20 DUP3 ADD SWAP1 POP PUSH2 0x4E4 PUSH0 DUP4 ADD DUP5 PUSH2 0x4C2 JUMP JUMPDEST SWAP3 SWAP2 POP POP JUMP JUMPDEST PUSH2 0x4F3 DUP2 PUSH2 0x453 JUMP JUMPDEST DUP3 MSTORE POP POP JUMP JUMPDEST PUSH0 PUSH1 0x20 DUP3 ADD SWAP1 POP PUSH2 0x50C PUSH0 DUP4 ADD DUP5 PUSH2 0x4EA JUMP JUMPDEST SWAP3 SWAP2 POP POP JUMP JUMPDEST PUSH32 0x4E6F74206F776E65720000000000000000000000000000000000000000000000 PUSH0 DUP3 ADD MSTORE POP JUMP JUMPDEST PUSH0 PUSH2 0x546 PUSH1 0x9 DUP4 PUSH2 0x364 JUMP JUMPDEST SWAP2 POP PUSH2 0x551 DUP3 PUSH2 0x512 JUMP JUMPDEST PUSH1 0x20 DUP3 ADD SWAP1 POP SWAP2 SWAP1 POP JUMP JUMPDEST PUSH0 PUSH1 0x20 DUP3 ADD SWAP1 POP DUP2 DUP2 SUB PUSH0 DUP4 ADD MSTORE PUSH2 0x573 DUP2 PUSH2 0x53A JUMP JUMPDEST SWAP1 POP SWAP2 SWAP1 POP JUMP INVALID LOG2 PUSH5 0x6970667358 0x22 SLT KECCAK256 INVALID PUSH22 0xF53F75292753F0C1FC70E20D087DEFC3E1E6ED0F3E5A 0x25 0xAD 0xF6 SMOD 0x4E SWAP13 SLT 0xC4 PUSH5 0x736F6C6343 STOP ADDMOD 0x1E STOP CALLER "
				},
				"gasEstimates": {
					"creation": {
						"codeDepositCost": "291200",
						"executionCost": "infinite",
						"totalCost": "infinite"
					},
					"external": {
						"": "infinite",
						"implementation()": "2529",
						"owner()": "2552",
						"upgrade(address)": "28022",
						"value()": "2425"
					}
				},
				"methodIdentifiers": {
					"implementation()": "5c60da1b",
					"owner()": "8da5cb5b",
					"upgrade(address)": "0900f010",
					"value()": "3fa4f245"
				}
			},
			"storageLayout": {
				"storage": [
					{
						"astId": 74,
						"contract": "contracts/lesson8.1/03ProxyCon.sol:Proxy",
						"label": "implementation",
						"offset": 0,
						"slot": "0",
						"type": "t_address"
					},
					{
						"astId": 76,
						"contract": "contracts/lesson8.1/03ProxyCon.sol:Proxy",
						"label": "value",
						"offset": 0,
						"slot": "1",
						"type": "t_uint256"
					},
					{
						"astId": 78,
						"contract": "contracts/lesson8.1/03ProxyCon.sol:Proxy",
						"label": "owner",
						"offset": 0,
						"slot": "2",
						"type": "t_address"
					}
				],
				"types": {
					"t_address": {
						"encoding": "inplace",
						"label": "address",
						"numberOfBytes": "20"
					},
					"t_uint256": {
						"encoding": "inplace",
						"label": "uint256",
						"numberOfBytes": "32"
					}
				}
			},
			"userdoc": {
				"kind": "user",
				"methods": {
					"upgrade(address)": {
						"notice": "升级函数：更换逻辑合约"
					}
				},
				"version": 1
			}
		}
	}
}