{
	"contracts/PracticeContract1.sol": {
		"PracticeContract1": {
			"abi": [
				{
					"inputs": [],
					"name": "MULTIPLIER",
					"outputs": [
						{
							"internalType": "uint256",
							"name": "",
							"type": "uint256"
						}
					],
					"stateMutability": "view",
					"type": "function"
				},
				{
					"inputs": [
						{
							"internalType": "uint256[]",
							"name": "inputs",
							"type": "uint256[]"
						}
					],
					"name": "batchProcess",
					"outputs": [],
					"stateMutability": "nonpayable",
					"type": "function"
				},
				{
					"inputs": [],
					"name": "getSum",
					"outputs": [
						{
							"internalType": "uint256",
							"name": "",
							"type": "uint256"
						}
					],
					"stateMutability": "view",
					"type": "function"
				},
				{
					"inputs": [
						{
							"internalType": "uint256",
							"name": "",
							"type": "uint256"
						}
					],
					"name": "numbers",
					"outputs": [
						{
							"internalType": "uint256",
							"name": "",
							"type": "uint256"
						}
					],
					"stateMutability": "view",
					"type": "function"
				}
			],
			"devdoc": {
				"kind": "dev",
				"methods": {},
				"version": 1
			},
			"evm": {
				"assembly": "    /* \"contracts/PracticeContract1.sol\":60:810  contract PracticeContract1 {... */\n  mstore(0x40, 0x80)\n  callvalue\n  dup1\n  iszero\n  tag_1\n  jumpi\n  revert(0x00, 0x00)\ntag_1:\n  pop\n  dataSize(sub_0)\n  dup1\n  dataOffset(sub_0)\n  0x00\n  codecopy\n  0x00\n  return\nstop\n\nsub_0: assembly {\n        /* \"contracts/PracticeContract1.sol\":60:810  contract PracticeContract1 {... */\n      mstore(0x40, 0x80)\n      callvalue\n      dup1\n      iszero\n      tag_1\n      jumpi\n      revert(0x00, 0x00)\n    tag_1:\n      pop\n      jumpi(tag_2, lt(calldatasize, 0x04))\n      shr(0xe0, calldataload(0x00))\n      dup1\n      0x059f8b16\n      eq\n      tag_3\n      jumpi\n      dup1\n      0x540c1018\n      eq\n      tag_4\n      jumpi\n      dup1\n      0x569c5f6d\n      eq\n      tag_5\n      jumpi\n      dup1\n      0xd39fa233\n      eq\n      tag_6\n      jumpi\n    tag_2:\n      revert(0x00, 0x00)\n        /* \"contracts/PracticeContract1.sol\":165:203  uint256 public constant MULTIPLIER = 2 */\n    tag_3:\n      tag_7\n      tag_8\n      jump\t// in\n    tag_7:\n      mload(0x40)\n      tag_9\n      swap2\n      swap1\n      tag_10\n      jump\t// in\n    tag_9:\n      mload(0x40)\n      dup1\n      swap2\n      sub\n      swap1\n      return\n        /* \"contracts/PracticeContract1.sol\":216:527  function batchProcess(... */\n    tag_4:\n      tag_11\n      0x04\n      dup1\n      calldatasize\n      sub\n      dup2\n      add\n      swap1\n      tag_12\n      swap2\n      swap1\n      tag_13\n      jump\t// in\n    tag_12:\n      tag_14\n      jump\t// in\n    tag_11:\n      stop\n        /* \"contracts/PracticeContract1.sol\":539:807  function getSum() external view returns (uint256) {... */\n    tag_5:\n      tag_15\n      tag_16\n      jump\t// in\n    tag_15:\n      mload(0x40)\n      tag_17\n      swap2\n      swap1\n      tag_10\n      jump\t// in\n    tag_17:\n      mload(0x40)\n      dup1\n      swap2\n      sub\n      swap1\n      return\n        /* \"contracts/PracticeContract1.sol\":94:118  uint256[] public numbers */\n    tag_6:\n      tag_18\n      0x04\n      dup1\n      calldatasize\n      sub\n      dup2\n      add\n      swap1\n      tag_19\n      swap2\n      swap1\n      tag_20\n      jump\t// in\n    tag_19:\n      tag_21\n      jump\t// in\n    tag_18:\n      mload(0x40)\n      tag_22\n      swap2\n      swap1\n      tag_10\n      jump\t// in\n    tag_22:\n      mload(0x40)\n      dup1\n      swap2\n      sub\n      swap1\n      return\n        /* \"contracts/PracticeContract1.sol\":165:203  uint256 public constant MULTIPLIER = 2 */\n    tag_8:\n        /* \"contracts/PracticeContract1.sol\":202:203  2 */\n      0x02\n        /* \"contracts/PracticeContract1.sol\":165:203  uint256 public constant MULTIPLIER = 2 */\n      dup2\n      jump\t// out\n        /* \"contracts/PracticeContract1.sol\":216:527  function batchProcess(... */\n    tag_14:\n        /* \"contracts/PracticeContract1.sol\":343:351  uint len */\n      0x00\n        /* \"contracts/PracticeContract1.sol\":354:360  inputs */\n      dup3\n      dup3\n        /* \"contracts/PracticeContract1.sol\":354:367  inputs.length */\n      swap1\n      pop\n        /* \"contracts/PracticeContract1.sol\":343:367  uint len = inputs.length */\n      swap1\n      pop\n        /* \"contracts/PracticeContract1.sol\":393:399  uint i */\n      0x00\n        /* \"contracts/PracticeContract1.sol\":402:403  0 */\n      0x00\n        /* \"contracts/PracticeContract1.sol\":393:403  uint i = 0 */\n      swap1\n      pop\n        /* \"contracts/PracticeContract1.sol\":388:520  for (uint i = 0; i < len; i++) {... */\n    tag_24:\n        /* \"contracts/PracticeContract1.sol\":409:412  len */\n      dup2\n        /* \"contracts/PracticeContract1.sol\":405:406  i */\n      dup2\n        /* \"contracts/PracticeContract1.sol\":405:412  i < len */\n      lt\n        /* \"contracts/PracticeContract1.sol\":388:520  for (uint i = 0; i < len; i++) {... */\n      iszero\n      tag_25\n      jumpi\n        /* \"contracts/PracticeContract1.sol\":434:448  uint256 result */\n      0x00\n        /* \"contracts/PracticeContract1.sol\":202:203  2 */\n      0x02\n        /* \"contracts/PracticeContract1.sol\":451:457  inputs */\n      dup6\n      dup6\n        /* \"contracts/PracticeContract1.sol\":458:459  i */\n      dup5\n        /* \"contracts/PracticeContract1.sol\":451:460  inputs[i] */\n      dup2\n      dup2\n      lt\n      tag_27\n      jumpi\n      tag_28\n      tag_29\n      jump\t// in\n    tag_28:\n    tag_27:\n      swap1\n      pop\n      0x20\n      mul\n      add\n      calldataload\n        /* \"contracts/PracticeContract1.sol\":451:473  inputs[i] * MULTIPLIER */\n      tag_30\n      swap2\n      swap1\n      tag_31\n      jump\t// in\n    tag_30:\n        /* \"contracts/PracticeContract1.sol\":434:473  uint256 result = inputs[i] * MULTIPLIER */\n      swap1\n      pop\n        /* \"contracts/PracticeContract1.sol\":488:495  numbers */\n      0x00\n        /* \"contracts/PracticeContract1.sol\":501:507  result */\n      dup2\n        /* \"contracts/PracticeContract1.sol\":488:508  numbers.push(result) */\n      swap1\n      dup1\n      0x01\n      dup2\n      sload\n      add\n      dup1\n      dup3\n      sstore\n      dup1\n      swap2\n      pop\n      pop\n      0x01\n      swap1\n      sub\n      swap1\n      0x00\n      mstore\n      keccak256(0x00, 0x20)\n      add\n      0x00\n      swap1\n      swap2\n      swap1\n      swap2\n      swap1\n      swap2\n      pop\n      sstore\n        /* \"contracts/PracticeContract1.sol\":419:520  {... */\n      pop\n        /* \"contracts/PracticeContract1.sol\":414:417  i++ */\n      dup1\n      dup1\n      0x01\n      add\n      swap2\n      pop\n      pop\n        /* \"contracts/PracticeContract1.sol\":388:520  for (uint i = 0; i < len; i++) {... */\n      jump(tag_24)\n    tag_25:\n      pop\n        /* \"contracts/PracticeContract1.sol\":290:527  {... */\n      pop\n        /* \"contracts/PracticeContract1.sol\":216:527  function batchProcess(... */\n      pop\n      pop\n      jump\t// out\n        /* \"contracts/PracticeContract1.sol\":539:807  function getSum() external view returns (uint256) {... */\n    tag_16:\n        /* \"contracts/PracticeContract1.sol\":580:587  uint256 */\n      0x00\n        /* \"contracts/PracticeContract1.sol\":642:653  uint256 sum */\n      0x00\n        /* \"contracts/PracticeContract1.sol\":656:657  0 */\n      0x00\n        /* \"contracts/PracticeContract1.sol\":642:657  uint256 sum = 0 */\n      swap1\n      pop\n        /* \"contracts/PracticeContract1.sol\":668:676  uint len */\n      0x00\n        /* \"contracts/PracticeContract1.sol\":679:686  numbers */\n      0x00\n        /* \"contracts/PracticeContract1.sol\":679:693  numbers.length */\n      dup1\n      sload\n      swap1\n      pop\n        /* \"contracts/PracticeContract1.sol\":668:693  uint len = numbers.length */\n      swap1\n      pop\n        /* \"contracts/PracticeContract1.sol\":709:715  uint i */\n      0x00\n        /* \"contracts/PracticeContract1.sol\":718:719  0 */\n      0x00\n        /* \"contracts/PracticeContract1.sol\":709:719  uint i = 0 */\n      swap1\n      pop\n        /* \"contracts/PracticeContract1.sol\":704:779  for (uint i = 0; i < len; i++) {... */\n    tag_34:\n        /* \"contracts/PracticeContract1.sol\":725:728  len */\n      dup2\n        /* \"contracts/PracticeContract1.sol\":721:722  i */\n      dup2\n        /* \"contracts/PracticeContract1.sol\":721:728  i < len */\n      lt\n        /* \"contracts/PracticeContract1.sol\":704:779  for (uint i = 0; i < len; i++) {... */\n      iszero\n      tag_35\n      jumpi\n        /* \"contracts/PracticeContract1.sol\":757:764  numbers */\n      0x00\n        /* \"contracts/PracticeContract1.sol\":765:766  i */\n      dup2\n        /* \"contracts/PracticeContract1.sol\":757:767  numbers[i] */\n      dup2\n      sload\n      dup2\n      lt\n      tag_37\n      jumpi\n      tag_38\n      tag_29\n      jump\t// in\n    tag_38:\n    tag_37:\n      swap1\n      0x00\n      mstore\n      keccak256(0x00, 0x20)\n      add\n      sload\n        /* \"contracts/PracticeContract1.sol\":750:767  sum += numbers[i] */\n      dup4\n      tag_40\n      swap2\n      swap1\n      tag_41\n      jump\t// in\n    tag_40:\n      swap3\n      pop\n        /* \"contracts/PracticeContract1.sol\":730:733  i++ */\n      dup1\n      dup1\n      0x01\n      add\n      swap2\n      pop\n      pop\n        /* \"contracts/PracticeContract1.sol\":704:779  for (uint i = 0; i < len; i++) {... */\n      jump(tag_34)\n    tag_35:\n      pop\n        /* \"contracts/PracticeContract1.sol\":796:799  sum */\n      dup2\n        /* \"contracts/PracticeContract1.sol\":789:799  return sum */\n      swap3\n      pop\n      pop\n      pop\n        /* \"contracts/PracticeContract1.sol\":539:807  function getSum() external view returns (uint256) {... */\n      swap1\n      jump\t// out\n        /* \"contracts/PracticeContract1.sol\":94:118  uint256[] public numbers */\n    tag_21:\n      0x00\n      dup2\n      dup2\n      sload\n      dup2\n      lt\n      tag_42\n      jumpi\n      0x00\n      dup1\n      revert\n    tag_42:\n      swap1\n      0x00\n      mstore\n      keccak256(0x00, 0x20)\n      add\n      0x00\n      swap2\n      pop\n      swap1\n      pop\n      sload\n      dup2\n      jump\t// out\n        /* \"#utility.yul\":7:84   */\n    tag_44:\n        /* \"#utility.yul\":44:51   */\n      0x00\n        /* \"#utility.yul\":73:78   */\n      dup2\n        /* \"#utility.yul\":62:78   */\n      swap1\n      pop\n        /* \"#utility.yul\":7:84   */\n      swap2\n      swap1\n      pop\n      jump\t// out\n        /* \"#utility.yul\":90:208   */\n    tag_45:\n        /* \"#utility.yul\":177:201   */\n      tag_59\n        /* \"#utility.yul\":195:200   */\n      dup2\n        /* \"#utility.yul\":177:201   */\n      tag_44\n      jump\t// in\n    tag_59:\n        /* \"#utility.yul\":172:175   */\n      dup3\n        /* \"#utility.yul\":165:202   */\n      mstore\n        /* \"#utility.yul\":90:208   */\n      pop\n      pop\n      jump\t// out\n        /* \"#utility.yul\":214:436   */\n    tag_10:\n        /* \"#utility.yul\":307:311   */\n      0x00\n        /* \"#utility.yul\":345:347   */\n      0x20\n        /* \"#utility.yul\":334:343   */\n      dup3\n        /* \"#utility.yul\":330:348   */\n      add\n        /* \"#utility.yul\":322:348   */\n      swap1\n      pop\n        /* \"#utility.yul\":358:429   */\n      tag_61\n        /* \"#utility.yul\":426:427   */\n      0x00\n        /* \"#utility.yul\":415:424   */\n      dup4\n        /* \"#utility.yul\":411:428   */\n      add\n        /* \"#utility.yul\":402:408   */\n      dup5\n        /* \"#utility.yul\":358:429   */\n      tag_45\n      jump\t// in\n    tag_61:\n        /* \"#utility.yul\":214:436   */\n      swap3\n      swap2\n      pop\n      pop\n      jump\t// out\n        /* \"#utility.yul\":523:640   */\n    tag_47:\n        /* \"#utility.yul\":632:633   */\n      0x00\n        /* \"#utility.yul\":629:630   */\n      0x00\n        /* \"#utility.yul\":622:634   */\n      revert\n        /* \"#utility.yul\":646:763   */\n    tag_48:\n        /* \"#utility.yul\":755:756   */\n      0x00\n        /* \"#utility.yul\":752:753   */\n      0x00\n        /* \"#utility.yul\":745:757   */\n      revert\n        /* \"#utility.yul\":769:886   */\n    tag_49:\n        /* \"#utility.yul\":878:879   */\n      0x00\n        /* \"#utility.yul\":875:876   */\n      0x00\n        /* \"#utility.yul\":868:880   */\n      revert\n        /* \"#utility.yul\":892:1009   */\n    tag_50:\n        /* \"#utility.yul\":1001:1002   */\n      0x00\n        /* \"#utility.yul\":998:999   */\n      0x00\n        /* \"#utility.yul\":991:1003   */\n      revert\n        /* \"#utility.yul\":1015:1132   */\n    tag_51:\n        /* \"#utility.yul\":1124:1125   */\n      0x00\n        /* \"#utility.yul\":1121:1122   */\n      0x00\n        /* \"#utility.yul\":1114:1126   */\n      revert\n        /* \"#utility.yul\":1155:1723   */\n    tag_52:\n        /* \"#utility.yul\":1228:1236   */\n      0x00\n        /* \"#utility.yul\":1238:1244   */\n      0x00\n        /* \"#utility.yul\":1288:1291   */\n      dup4\n        /* \"#utility.yul\":1281:1285   */\n      0x1f\n        /* \"#utility.yul\":1273:1279   */\n      dup5\n        /* \"#utility.yul\":1269:1286   */\n      add\n        /* \"#utility.yul\":1265:1292   */\n      slt\n        /* \"#utility.yul\":1255:1377   */\n      tag_69\n      jumpi\n        /* \"#utility.yul\":1296:1375   */\n      tag_70\n      tag_49\n      jump\t// in\n    tag_70:\n        /* \"#utility.yul\":1255:1377   */\n    tag_69:\n        /* \"#utility.yul\":1409:1415   */\n      dup3\n        /* \"#utility.yul\":1396:1416   */\n      calldataload\n        /* \"#utility.yul\":1386:1416   */\n      swap1\n      pop\n        /* \"#utility.yul\":1439:1457   */\n      0xffffffffffffffff\n        /* \"#utility.yul\":1431:1437   */\n      dup2\n        /* \"#utility.yul\":1428:1458   */\n      gt\n        /* \"#utility.yul\":1425:1542   */\n      iszero\n      tag_71\n      jumpi\n        /* \"#utility.yul\":1461:1540   */\n      tag_72\n      tag_50\n      jump\t// in\n    tag_72:\n        /* \"#utility.yul\":1425:1542   */\n    tag_71:\n        /* \"#utility.yul\":1575:1579   */\n      0x20\n        /* \"#utility.yul\":1567:1573   */\n      dup4\n        /* \"#utility.yul\":1563:1580   */\n      add\n        /* \"#utility.yul\":1551:1580   */\n      swap2\n      pop\n        /* \"#utility.yul\":1629:1632   */\n      dup4\n        /* \"#utility.yul\":1621:1625   */\n      0x20\n        /* \"#utility.yul\":1613:1619   */\n      dup3\n        /* \"#utility.yul\":1609:1626   */\n      mul\n        /* \"#utility.yul\":1599:1607   */\n      dup4\n        /* \"#utility.yul\":1595:1627   */\n      add\n        /* \"#utility.yul\":1592:1633   */\n      gt\n        /* \"#utility.yul\":1589:1717   */\n      iszero\n      tag_73\n      jumpi\n        /* \"#utility.yul\":1636:1715   */\n      tag_74\n      tag_51\n      jump\t// in\n    tag_74:\n        /* \"#utility.yul\":1589:1717   */\n    tag_73:\n        /* \"#utility.yul\":1155:1723   */\n      swap3\n      pop\n      swap3\n      swap1\n      pop\n      jump\t// out\n        /* \"#utility.yul\":1729:2288   */\n    tag_13:\n        /* \"#utility.yul\":1815:1821   */\n      0x00\n        /* \"#utility.yul\":1823:1829   */\n      0x00\n        /* \"#utility.yul\":1872:1874   */\n      0x20\n        /* \"#utility.yul\":1860:1869   */\n      dup4\n        /* \"#utility.yul\":1851:1858   */\n      dup6\n        /* \"#utility.yul\":1847:1870   */\n      sub\n        /* \"#utility.yul\":1843:1875   */\n      slt\n        /* \"#utility.yul\":1840:1959   */\n      iszero\n      tag_76\n      jumpi\n        /* \"#utility.yul\":1878:1957   */\n      tag_77\n      tag_47\n      jump\t// in\n    tag_77:\n        /* \"#utility.yul\":1840:1959   */\n    tag_76:\n        /* \"#utility.yul\":2026:2027   */\n      0x00\n        /* \"#utility.yul\":2015:2024   */\n      dup4\n        /* \"#utility.yul\":2011:2028   */\n      add\n        /* \"#utility.yul\":1998:2029   */\n      calldataload\n        /* \"#utility.yul\":2056:2074   */\n      0xffffffffffffffff\n        /* \"#utility.yul\":2048:2054   */\n      dup2\n        /* \"#utility.yul\":2045:2075   */\n      gt\n        /* \"#utility.yul\":2042:2159   */\n      iszero\n      tag_78\n      jumpi\n        /* \"#utility.yul\":2078:2157   */\n      tag_79\n      tag_48\n      jump\t// in\n    tag_79:\n        /* \"#utility.yul\":2042:2159   */\n    tag_78:\n        /* \"#utility.yul\":2191:2271   */\n      tag_80\n        /* \"#utility.yul\":2263:2270   */\n      dup6\n        /* \"#utility.yul\":2254:2260   */\n      dup3\n        /* \"#utility.yul\":2243:2252   */\n      dup7\n        /* \"#utility.yul\":2239:2261   */\n      add\n        /* \"#utility.yul\":2191:2271   */\n      tag_52\n      jump\t// in\n    tag_80:\n        /* \"#utility.yul\":2173:2271   */\n      swap3\n      pop\n      swap3\n      pop\n        /* \"#utility.yul\":1969:2281   */\n      pop\n        /* \"#utility.yul\":1729:2288   */\n      swap3\n      pop\n      swap3\n      swap1\n      pop\n      jump\t// out\n        /* \"#utility.yul\":2294:2416   */\n    tag_53:\n        /* \"#utility.yul\":2367:2391   */\n      tag_82\n        /* \"#utility.yul\":2385:2390   */\n      dup2\n        /* \"#utility.yul\":2367:2391   */\n      tag_44\n      jump\t// in\n    tag_82:\n        /* \"#utility.yul\":2360:2365   */\n      dup2\n        /* \"#utility.yul\":2357:2392   */\n      eq\n        /* \"#utility.yul\":2347:2410   */\n      tag_83\n      jumpi\n        /* \"#utility.yul\":2406:2407   */\n      0x00\n        /* \"#utility.yul\":2403:2404   */\n      0x00\n        /* \"#utility.yul\":2396:2408   */\n      revert\n        /* \"#utility.yul\":2347:2410   */\n    tag_83:\n        /* \"#utility.yul\":2294:2416   */\n      pop\n      jump\t// out\n        /* \"#utility.yul\":2422:2561   */\n    tag_54:\n        /* \"#utility.yul\":2468:2473   */\n      0x00\n        /* \"#utility.yul\":2506:2512   */\n      dup2\n        /* \"#utility.yul\":2493:2513   */\n      calldataload\n        /* \"#utility.yul\":2484:2513   */\n      swap1\n      pop\n        /* \"#utility.yul\":2522:2555   */\n      tag_85\n        /* \"#utility.yul\":2549:2554   */\n      dup2\n        /* \"#utility.yul\":2522:2555   */\n      tag_53\n      jump\t// in\n    tag_85:\n        /* \"#utility.yul\":2422:2561   */\n      swap3\n      swap2\n      pop\n      pop\n      jump\t// out\n        /* \"#utility.yul\":2567:2896   */\n    tag_20:\n        /* \"#utility.yul\":2626:2632   */\n      0x00\n        /* \"#utility.yul\":2675:2677   */\n      0x20\n        /* \"#utility.yul\":2663:2672   */\n      dup3\n        /* \"#utility.yul\":2654:2661   */\n      dup5\n        /* \"#utility.yul\":2650:2673   */\n      sub\n        /* \"#utility.yul\":2646:2678   */\n      slt\n        /* \"#utility.yul\":2643:2762   */\n      iszero\n      tag_87\n      jumpi\n        /* \"#utility.yul\":2681:2760   */\n      tag_88\n      tag_47\n      jump\t// in\n    tag_88:\n        /* \"#utility.yul\":2643:2762   */\n    tag_87:\n        /* \"#utility.yul\":2801:2802   */\n      0x00\n        /* \"#utility.yul\":2826:2879   */\n      tag_89\n        /* \"#utility.yul\":2871:2878   */\n      dup5\n        /* \"#utility.yul\":2862:2868   */\n      dup3\n        /* \"#utility.yul\":2851:2860   */\n      dup6\n        /* \"#utility.yul\":2847:2869   */\n      add\n        /* \"#utility.yul\":2826:2879   */\n      tag_54\n      jump\t// in\n    tag_89:\n        /* \"#utility.yul\":2816:2879   */\n      swap2\n      pop\n        /* \"#utility.yul\":2772:2889   */\n      pop\n        /* \"#utility.yul\":2567:2896   */\n      swap3\n      swap2\n      pop\n      pop\n      jump\t// out\n        /* \"#utility.yul\":2902:3082   */\n    tag_29:\n        /* \"#utility.yul\":2950:3027   */\n      0x4e487b7100000000000000000000000000000000000000000000000000000000\n        /* \"#utility.yul\":2947:2948   */\n      0x00\n        /* \"#utility.yul\":2940:3028   */\n      mstore\n        /* \"#utility.yul\":3047:3051   */\n      0x32\n        /* \"#utility.yul\":3044:3045   */\n      0x04\n        /* \"#utility.yul\":3037:3052   */\n      mstore\n        /* \"#utility.yul\":3071:3075   */\n      0x24\n        /* \"#utility.yul\":3068:3069   */\n      0x00\n        /* \"#utility.yul\":3061:3076   */\n      revert\n        /* \"#utility.yul\":3088:3268   */\n    tag_55:\n        /* \"#utility.yul\":3136:3213   */\n      0x4e487b7100000000000000000000000000000000000000000000000000000000\n        /* \"#utility.yul\":3133:3134   */\n      0x00\n        /* \"#utility.yul\":3126:3214   */\n      mstore\n        /* \"#utility.yul\":3233:3237   */\n      0x11\n        /* \"#utility.yul\":3230:3231   */\n      0x04\n        /* \"#utility.yul\":3223:3238   */\n      mstore\n        /* \"#utility.yul\":3257:3261   */\n      0x24\n        /* \"#utility.yul\":3254:3255   */\n      0x00\n        /* \"#utility.yul\":3247:3262   */\n      revert\n        /* \"#utility.yul\":3274:3684   */\n    tag_31:\n        /* \"#utility.yul\":3314:3321   */\n      0x00\n        /* \"#utility.yul\":3337:3357   */\n      tag_93\n        /* \"#utility.yul\":3355:3356   */\n      dup3\n        /* \"#utility.yul\":3337:3357   */\n      tag_44\n      jump\t// in\n    tag_93:\n        /* \"#utility.yul\":3332:3357   */\n      swap2\n      pop\n        /* \"#utility.yul\":3371:3391   */\n      tag_94\n        /* \"#utility.yul\":3389:3390   */\n      dup4\n        /* \"#utility.yul\":3371:3391   */\n      tag_44\n      jump\t// in\n    tag_94:\n        /* \"#utility.yul\":3366:3391   */\n      swap3\n      pop\n        /* \"#utility.yul\":3426:3427   */\n      dup3\n        /* \"#utility.yul\":3423:3424   */\n      dup3\n        /* \"#utility.yul\":3419:3428   */\n      mul\n        /* \"#utility.yul\":3448:3478   */\n      tag_95\n        /* \"#utility.yul\":3466:3477   */\n      dup2\n        /* \"#utility.yul\":3448:3478   */\n      tag_44\n      jump\t// in\n    tag_95:\n        /* \"#utility.yul\":3437:3478   */\n      swap2\n      pop\n        /* \"#utility.yul\":3627:3628   */\n      dup3\n        /* \"#utility.yul\":3618:3625   */\n      dup3\n        /* \"#utility.yul\":3614:3629   */\n      div\n        /* \"#utility.yul\":3611:3612   */\n      dup5\n        /* \"#utility.yul\":3608:3630   */\n      eq\n        /* \"#utility.yul\":3588:3589   */\n      dup4\n        /* \"#utility.yul\":3581:3590   */\n      iszero\n        /* \"#utility.yul\":3561:3644   */\n      or\n        /* \"#utility.yul\":3538:3677   */\n      tag_96\n      jumpi\n        /* \"#utility.yul\":3657:3675   */\n      tag_97\n      tag_55\n      jump\t// in\n    tag_97:\n        /* \"#utility.yul\":3538:3677   */\n    tag_96:\n        /* \"#utility.yul\":3322:3684   */\n      pop\n        /* \"#utility.yul\":3274:3684   */\n      swap3\n      swap2\n      pop\n      pop\n      jump\t// out\n        /* \"#utility.yul\":3690:3881   */\n    tag_41:\n        /* \"#utility.yul\":3730:3733   */\n      0x00\n        /* \"#utility.yul\":3749:3769   */\n      tag_99\n        /* \"#utility.yul\":3767:3768   */\n      dup3\n        /* \"#utility.yul\":3749:3769   */\n      tag_44\n      jump\t// in\n    tag_99:\n        /* \"#utility.yul\":3744:3769   */\n      swap2\n      pop\n        /* \"#utility.yul\":3783:3803   */\n      tag_100\n        /* \"#utility.yul\":3801:3802   */\n      dup4\n        /* \"#utility.yul\":3783:3803   */\n      tag_44\n      jump\t// in\n    tag_100:\n        /* \"#utility.yul\":3778:3803   */\n      swap3\n      pop\n        /* \"#utility.yul\":3826:3827   */\n      dup3\n        /* \"#utility.yul\":3823:3824   */\n      dup3\n        /* \"#utility.yul\":3819:3828   */\n      add\n        /* \"#utility.yul\":3812:3828   */\n      swap1\n      pop\n        /* \"#utility.yul\":3847:3850   */\n      dup1\n        /* \"#utility.yul\":3844:3845   */\n      dup3\n        /* \"#utility.yul\":3841:3851   */\n      gt\n        /* \"#utility.yul\":3838:3874   */\n      iszero\n      tag_101\n      jumpi\n        /* \"#utility.yul\":3854:3872   */\n      tag_102\n      tag_55\n      jump\t// in\n    tag_102:\n        /* \"#utility.yul\":3838:3874   */\n    tag_101:\n        /* \"#utility.yul\":3690:3881   */\n      swap3\n      swap2\n      pop\n      pop\n      jump\t// out\n\n    auxdata: 0xa26469706673582212208573cb400f585c0f845f9ec954a64eca21f8f34dcd2aea671dab867631ad253264736f6c634300081f0033\n}\n",
				"bytecode": {
					"linkReferences": {},
					"object": "6080604052348015600e575f5ffd5b506104078061001c5f395ff3fe608060405234801561000f575f5ffd5b506004361061004a575f3560e01c8063059f8b161461004e578063540c10181461006c578063569c5f6d14610088578063d39fa233146100a6575b5f5ffd5b6100566100d6565b60405161006391906101e1565b60405180910390f35b61008660048036038101906100819190610263565b6100db565b005b610090610151565b60405161009d91906101e1565b60405180910390f35b6100c060048036038101906100bb91906102d8565b6101aa565b6040516100cd91906101e1565b60405180910390f35b600281565b5f8282905090505f5f90505b8181101561014b575f600285858481811061010557610104610303565b5b90506020020135610116919061035d565b90505f81908060018154018082558091505060019003905f5260205f20015f90919091909150555080806001019150506100e7565b50505050565b5f5f5f90505f5f8054905090505f5f90505b818110156101a1575f818154811061017e5761017d610303565b5b905f5260205f20015483610192919061039e565b92508080600101915050610163565b50819250505090565b5f81815481106101b8575f80fd5b905f5260205f20015f915090505481565b5f819050919050565b6101db816101c9565b82525050565b5f6020820190506101f45f8301846101d2565b92915050565b5f5ffd5b5f5ffd5b5f5ffd5b5f5ffd5b5f5ffd5b5f5f83601f84011261022357610222610202565b5b8235905067ffffffffffffffff8111156102405761023f610206565b5b60208301915083602082028301111561025c5761025b61020a565b5b9250929050565b5f5f60208385031215610279576102786101fa565b5b5f83013567ffffffffffffffff811115610296576102956101fe565b5b6102a28582860161020e565b92509250509250929050565b6102b7816101c9565b81146102c1575f5ffd5b50565b5f813590506102d2816102ae565b92915050565b5f602082840312156102ed576102ec6101fa565b5b5f6102fa848285016102c4565b91505092915050565b7f4e487b71000000000000000000000000000000000000000000000000000000005f52603260045260245ffd5b7f4e487b71000000000000000000000000000000000000000000000000000000005f52601160045260245ffd5b5f610367826101c9565b9150610372836101c9565b9250828202610380816101c9565b9150828204841483151761039757610396610330565b5b5092915050565b5f6103a8826101c9565b91506103b3836101c9565b92508282019050808211156103cb576103ca610330565b5b9291505056fea26469706673582212208573cb400f585c0f845f9ec954a64eca21f8f34dcd2aea671dab867631ad253264736f6c634300081f0033",
					"opcodes": "PUSH1 0x80 PUSH1 0x40 MSTORE CALLVALUE DUP1 ISZERO PUSH1 0xE JUMPI PUSH0 PUSH0 REVERT JUMPDEST POP PUSH2 0x407 DUP1 PUSH2 0x1C PUSH0 CODECOPY PUSH0 RETURN INVALID PUSH1 0x80 PUSH1 0x40 MSTORE CALLVALUE DUP1 ISZERO PUSH2 0xF JUMPI PUSH0 PUSH0 REVERT JUMPDEST POP PUSH1 0x4 CALLDATASIZE LT PUSH2 0x4A JUMPI PUSH0 CALLDATALOAD PUSH1 0xE0 SHR DUP1 PUSH4 0x59F8B16 EQ PUSH2 0x4E JUMPI DUP1 PUSH4 0x540C1018 EQ PUSH2 0x6C JUMPI DUP1 PUSH4 0x569C5F6D EQ PUSH2 0x88 JUMPI DUP1 PUSH4 0xD39FA233 EQ PUSH2 0xA6 JUMPI JUMPDEST PUSH0 PUSH0 REVERT JUMPDEST PUSH2 0x56 PUSH2 0xD6 JUMP JUMPDEST PUSH1 0x40 MLOAD PUSH2 0x63 SWAP2 SWAP1 PUSH2 0x1E1 JUMP JUMPDEST PUSH1 0x40 MLOAD DUP1 SWAP2 SUB SWAP1 RETURN JUMPDEST PUSH2 0x86 PUSH1 0x4 DUP1 CALLDATASIZE SUB DUP2 ADD SWAP1 PUSH2 0x81 SWAP2 SWAP1 PUSH2 0x263 JUMP JUMPDEST PUSH2 0xDB JUMP JUMPDEST STOP JUMPDEST PUSH2 0x90 PUSH2 0x151 JUMP JUMPDEST PUSH1 0x40 MLOAD PUSH2 0x9D SWAP2 SWAP1 PUSH2 0x1E1 JUMP JUMPDEST PUSH1 0x40 MLOAD DUP1 SWAP2 SUB SWAP1 RETURN JUMPDEST PUSH2 0xC0 PUSH1 0x4 DUP1 CALLDATASIZE SUB DUP2 ADD SWAP1 PUSH2 0xBB SWAP2 SWAP1 PUSH2 0x2D8 JUMP JUMPDEST PUSH2 0x1AA JUMP JUMPDEST PUSH1 0x40 MLOAD PUSH2 0xCD SWAP2 SWAP1 PUSH2 0x1E1 JUMP JUMPDEST PUSH1 0x40 MLOAD DUP1 SWAP2 SUB SWAP1 RETURN JUMPDEST PUSH1 0x2 DUP2 JUMP JUMPDEST PUSH0 DUP3 DUP3 SWAP1 POP SWAP1 POP PUSH0 PUSH0 SWAP1 POP JUMPDEST DUP2 DUP2 LT ISZERO PUSH2 0x14B JUMPI PUSH0 PUSH1 0x2 DUP6 DUP6 DUP5 DUP2 DUP2 LT PUSH2 0x105 JUMPI PUSH2 0x104 PUSH2 0x303 JUMP JUMPDEST JUMPDEST SWAP1 POP PUSH1 0x20 MUL ADD CALLDATALOAD PUSH2 0x116 SWAP2 SWAP1 PUSH2 0x35D JUMP JUMPDEST SWAP1 POP PUSH0 DUP2 SWAP1 DUP1 PUSH1 0x1 DUP2 SLOAD ADD DUP1 DUP3 SSTORE DUP1 SWAP2 POP POP PUSH1 0x1 SWAP1 SUB SWAP1 PUSH0 MSTORE PUSH1 0x20 PUSH0 KECCAK256 ADD PUSH0 SWAP1 SWAP2 SWAP1 SWAP2 SWAP1 SWAP2 POP SSTORE POP DUP1 DUP1 PUSH1 0x1 ADD SWAP2 POP POP PUSH2 0xE7 JUMP JUMPDEST POP POP POP POP JUMP JUMPDEST PUSH0 PUSH0 PUSH0 SWAP1 POP PUSH0 PUSH0 DUP1 SLOAD SWAP1 POP SWAP1 POP PUSH0 PUSH0 SWAP1 POP JUMPDEST DUP2 DUP2 LT ISZERO PUSH2 0x1A1 JUMPI PUSH0 DUP2 DUP2 SLOAD DUP2 LT PUSH2 0x17E JUMPI PUSH2 0x17D PUSH2 0x303 JUMP JUMPDEST JUMPDEST SWAP1 PUSH0 MSTORE PUSH1 0x20 PUSH0 KECCAK256 ADD SLOAD DUP4 PUSH2 0x192 SWAP2 SWAP1 PUSH2 0x39E JUMP JUMPDEST SWAP3 POP DUP1 DUP1 PUSH1 0x1 ADD SWAP2 POP POP PUSH2 0x163 JUMP JUMPDEST POP DUP2 SWAP3 POP POP POP SWAP1 JUMP JUMPDEST PUSH0 DUP2 DUP2 SLOAD DUP2 LT PUSH2 0x1B8 JUMPI PUSH0 DUP1 REVERT JUMPDEST SWAP1 PUSH0 MSTORE PUSH1 0x20 PUSH0 KECCAK256 ADD PUSH0 SWAP2 POP SWAP1 POP SLOAD DUP2 JUMP JUMPDEST PUSH0 DUP2 SWAP1 POP SWAP2 SWAP1 POP JUMP JUMPDEST PUSH2 0x1DB DUP2 PUSH2 0x1C9 JUMP JUMPDEST DUP3 MSTORE POP POP JUMP JUMPDEST PUSH0 PUSH1 0x20 DUP3 ADD SWAP1 POP PUSH2 0x1F4 PUSH0 DUP4 ADD DUP5 PUSH2 0x1D2 JUMP JUMPDEST SWAP3 SWAP2 POP POP JUMP JUMPDEST PUSH0 PUSH0 REVERT JUMPDEST PUSH0 PUSH0 REVERT JUMPDEST PUSH0 PUSH0 REVERT JUMPDEST PUSH0 PUSH0 REVERT JUMPDEST PUSH0 PUSH0 REVERT JUMPDEST PUSH0 PUSH0 DUP4 PUSH1 0x1F DUP5 ADD SLT PUSH2 0x223 JUMPI PUSH2 0x222 PUSH2 0x202 JUMP JUMPDEST JUMPDEST DUP3 CALLDATALOAD SWAP1 POP PUSH8 0xFFFFFFFFFFFFFFFF DUP2 GT ISZERO PUSH2 0x240 JUMPI PUSH2 0x23F PUSH2 0x206 JUMP JUMPDEST JUMPDEST PUSH1 0x20 DUP4 ADD SWAP2 POP DUP4 PUSH1 0x20 DUP3 MUL DUP4 ADD GT ISZERO PUSH2 0x25C JUMPI PUSH2 0x25B PUSH2 0x20A JUMP JUMPDEST JUMPDEST SWAP3 POP SWAP3 SWAP1 POP JUMP JUMPDEST PUSH0 PUSH0 PUSH1 0x20 DUP4 DUP6 SUB SLT ISZERO PUSH2 0x279 JUMPI PUSH2 0x278 PUSH2 0x1FA JUMP JUMPDEST JUMPDEST PUSH0 DUP4 ADD CALLDATALOAD PUSH8 0xFFFFFFFFFFFFFFFF DUP2 GT ISZERO PUSH2 0x296 JUMPI PUSH2 0x295 PUSH2 0x1FE JUMP JUMPDEST JUMPDEST PUSH2 0x2A2 DUP6 DUP3 DUP7 ADD PUSH2 0x20E JUMP JUMPDEST SWAP3 POP SWAP3 POP POP SWAP3 POP SWAP3 SWAP1 POP JUMP JUMPDEST PUSH2 0x2B7 DUP2 PUSH2 0x1C9 JUMP JUMPDEST DUP2 EQ PUSH2 0x2C1 JUMPI PUSH0 PUSH0 REVERT JUMPDEST POP JUMP JUMPDEST PUSH0 DUP2 CALLDATALOAD SWAP1 POP PUSH2 0x2D2 DUP2 PUSH2 0x2AE JUMP JUMPDEST SWAP3 SWAP2 POP POP JUMP JUMPDEST PUSH0 PUSH1 0x20 DUP3 DUP5 SUB SLT ISZERO PUSH2 0x2ED JUMPI PUSH2 0x2EC PUSH2 0x1FA JUMP JUMPDEST JUMPDEST PUSH0 PUSH2 0x2FA DUP5 DUP3 DUP6 ADD PUSH2 0x2C4 JUMP JUMPDEST SWAP2 POP POP SWAP3 SWAP2 POP POP JUMP JUMPDEST PUSH32 0x4E487B7100000000000000000000000000000000000000000000000000000000 PUSH0 MSTORE PUSH1 0x32 PUSH1 0x4 MSTORE PUSH1 0x24 PUSH0 REVERT JUMPDEST PUSH32 0x4E487B7100000000000000000000000000000000000000000000000000000000 PUSH0 MSTORE PUSH1 0x11 PUSH1 0x4 MSTORE PUSH1 0x24 PUSH0 REVERT JUMPDEST PUSH0 PUSH2 0x367 DUP3 PUSH2 0x1C9 JUMP JUMPDEST SWAP2 POP PUSH2 0x372 DUP4 PUSH2 0x1C9 JUMP JUMPDEST SWAP3 POP DUP3 DUP3 MUL PUSH2 0x380 DUP2 PUSH2 0x1C9 JUMP JUMPDEST SWAP2 POP DUP3 DUP3 DIV DUP5 EQ DUP4 ISZERO OR PUSH2 0x397 JUMPI PUSH2 0x396 PUSH2 0x330 JUMP JUMPDEST JUMPDEST POP SWAP3 SWAP2 POP POP JUMP JUMPDEST PUSH0 PUSH2 0x3A8 DUP3 PUSH2 0x1C9 JUMP JUMPDEST SWAP2 POP PUSH2 0x3B3 DUP4 PUSH2 0x1C9 JUMP JUMPDEST SWAP3 POP DUP3 DUP3 ADD SWAP1 POP DUP1 DUP3 GT ISZERO PUSH2 0x3CB JUMPI PUSH2 0x3CA PUSH2 0x330 JUMP JUMPDEST JUMPDEST SWAP3 SWAP2 POP POP JUMP INVALID LOG2 PUSH5 0x6970667358 0x22 SLT KECCAK256 DUP6 PUSH20 0xCB400F585C0F845F9EC954A64ECA21F8F34DCD2A 0xEA PUSH8 0x1DAB867631AD2532 PUSH5 0x736F6C6343 STOP ADDMOD 0x1F STOP CALLER "
				},
				"gasEstimates": {
					"creation": {
						"codeDepositCost": "206200",
						"executionCost": "249",
						"totalCost": "206449"
					},
					"external": {
						"MULTIPLIER()": "303",
						"batchProcess(uint256[])": "infinite",
						"getSum()": "infinite",
						"numbers(uint256)": "infinite"
					}
				},
				"methodIdentifiers": {
					"MULTIPLIER()": "059f8b16",
					"batchProcess(uint256[])": "540c1018",
					"getSum()": "569c5f6d",
					"numbers(uint256)": "d39fa233"
				}
			},
			"storageLayout": {
				"storage": [
					{
						"astId": 4,
						"contract": "contracts/PracticeContract1.sol:PracticeContract1",
						"label": "numbers",
						"offset": 0,
						"slot": "0",
						"type": "t_array(t_uint256)dyn_storage"
					}
				],
				"types": {
					"t_array(t_uint256)dyn_storage": {
						"base": "t_uint256",
						"encoding": "dynamic_array",
						"label": "uint256[]",
						"numberOfBytes": "32"
					},
					"t_uint256": {
						"encoding": "inplace",
						"label": "uint256",
						"numberOfBytes": "32"
					}
				}
			},
			"userdoc": {
				"kind": "user",
				"methods": {},
				"version": 1
			}
		}
	}
}