{
	"contracts/lesson8.1/04Create2.sol": {
		"CounterFactory": {
			"abi": [
				{
					"anonymous": false,
					"inputs": [
						{
							"indexed": true,
							"internalType": "address",
							"name": "counterAddress",
							"type": "address"
						},
						{
							"indexed": false,
							"internalType": "bytes32",
							"name": "salt",
							"type": "bytes32"
						}
					],
					"name": "CounterCreated",
					"type": "event"
				},
				{
					"inputs": [
						{
							"internalType": "bytes32",
							"name": "salt",
							"type": "bytes32"
						},
						{
							"internalType": "address",
							"name": "deployer",
							"type": "address"
						}
					],
					"name": "computeAddress",
					"outputs": [
						{
							"internalType": "address",
							"name": "",
							"type": "address"
						}
					],
					"stateMutability": "view",
					"type": "function"
				},
				{
					"inputs": [
						{
							"internalType": "bytes32",
							"name": "salt",
							"type": "bytes32"
						}
					],
					"name": "createWithCreate2",
					"outputs": [
						{
							"internalType": "address",
							"name": "",
							"type": "address"
						}
					],
					"stateMutability": "nonpayable",
					"type": "function"
				}
			],
			"devdoc": {
				"kind": "dev",
				"methods": {},
				"version": 1
			},
			"evm": {
				"assembly": "    /* \"contracts/lesson8.1/04Create2.sol\":353:1306  contract CounterFactory {... */\n  mstore(0x40, 0x80)\n  callvalue\n  dup1\n  iszero\n  tag_1\n  jumpi\n  revert(0x00, 0x00)\ntag_1:\n  pop\n  dataSize(sub_0)\n  dup1\n  dataOffset(sub_0)\n  0x00\n  codecopy\n  0x00\n  return\nstop\n\nsub_0: assembly {\n        /* \"contracts/lesson8.1/04Create2.sol\":353:1306  contract CounterFactory {... */\n      mstore(0x40, 0x80)\n      callvalue\n      dup1\n      iszero\n      tag_1\n      jumpi\n      revert(0x00, 0x00)\n    tag_1:\n      pop\n      jumpi(tag_2, lt(calldatasize, 0x04))\n      shr(0xe0, calldataload(0x00))\n      dup1\n      0x2f1f618d\n      eq\n      tag_3\n      jumpi\n      dup1\n      0xc540f6ca\n      eq\n      tag_4\n      jumpi\n    tag_2:\n      revert(0x00, 0x00)\n        /* \"contracts/lesson8.1/04Create2.sol\":751:1303  function computeAddress(bytes32 salt, address deployer) ... */\n    tag_3:\n      tag_5\n      0x04\n      dup1\n      calldatasize\n      sub\n      dup2\n      add\n      swap1\n      tag_6\n      swap2\n      swap1\n      tag_7\n      jump\t// in\n    tag_6:\n      tag_8\n      jump\t// in\n    tag_5:\n      mload(0x40)\n      tag_9\n      swap2\n      swap1\n      tag_10\n      jump\t// in\n    tag_9:\n      mload(0x40)\n      dup1\n      swap2\n      sub\n      swap1\n      return\n        /* \"contracts/lesson8.1/04Create2.sol\":463:739  function createWithCreate2(bytes32 salt) external returns (address) {... */\n    tag_4:\n      tag_11\n      0x04\n      dup1\n      calldatasize\n      sub\n      dup2\n      add\n      swap1\n      tag_12\n      swap2\n      swap1\n      tag_13\n      jump\t// in\n    tag_12:\n      tag_14\n      jump\t// in\n    tag_11:\n      mload(0x40)\n      tag_15\n      swap2\n      swap1\n      tag_10\n      jump\t// in\n    tag_15:\n      mload(0x40)\n      dup1\n      swap2\n      sub\n      swap1\n      return\n        /* \"contracts/lesson8.1/04Create2.sol\":751:1303  function computeAddress(bytes32 salt, address deployer) ... */\n    tag_8:\n        /* \"contracts/lesson8.1/04Create2.sol\":860:867  address */\n      0x00\n        /* \"contracts/lesson8.1/04Create2.sol\":886:907  bytes memory bytecode */\n      0x00\n        /* \"contracts/lesson8.1/04Create2.sol\":941:967  type(Counter).creationCode */\n      mload(0x40)\n      dup1\n      0x20\n      add\n      tag_17\n      swap1\n      tag_18\n      jump\t// in\n    tag_17:\n      0x20\n      dup3\n      add\n      dup2\n      sub\n      dup3\n      mstore\n      not(0x1f)\n      0x1f\n      dup3\n      add\n      and\n      0x40\n      mstore\n      pop\n        /* \"contracts/lesson8.1/04Create2.sol\":993:1003  msg.sender */\n      caller\n        /* \"contracts/lesson8.1/04Create2.sol\":982:1004  abi.encode(msg.sender) */\n      add(0x20, mload(0x40))\n      tag_19\n      swap2\n      swap1\n      tag_10\n      jump\t// in\n    tag_19:\n      mload(0x40)\n      0x20\n      dup2\n      dup4\n      sub\n      sub\n      dup2\n      mstore\n      swap1\n      0x40\n      mstore\n        /* \"contracts/lesson8.1/04Create2.sol\":910:1015  abi.encodePacked(... */\n      add(0x20, mload(0x40))\n      tag_20\n      swap3\n      swap2\n      swap1\n      tag_21\n      jump\t// in\n    tag_20:\n      mload(0x40)\n      0x20\n      dup2\n      dup4\n      sub\n      sub\n      dup2\n      mstore\n      swap1\n      0x40\n      mstore\n        /* \"contracts/lesson8.1/04Create2.sol\":886:1015  bytes memory bytecode = abi.encodePacked(... */\n      swap1\n      pop\n        /* \"contracts/lesson8.1/04Create2.sol\":1036:1048  bytes32 hash */\n      0x00\n        /* \"contracts/lesson8.1/04Create2.sol\":1117:1121  0xff */\n      0xff\n        /* \"contracts/lesson8.1/04Create2.sol\":1110:1122  bytes1(0xff) */\n      0xf8\n      shl\n        /* \"contracts/lesson8.1/04Create2.sol\":1141:1149  deployer */\n      dup5\n        /* \"contracts/lesson8.1/04Create2.sol\":1168:1172  salt */\n      dup7\n        /* \"contracts/lesson8.1/04Create2.sol\":1201:1209  bytecode */\n      dup5\n        /* \"contracts/lesson8.1/04Create2.sol\":1191:1210  keccak256(bytecode) */\n      dup1\n      mload\n      swap1\n      0x20\n      add\n      keccak256\n        /* \"contracts/lesson8.1/04Create2.sol\":1075:1225  abi.encodePacked(... */\n      add(0x20, mload(0x40))\n      tag_22\n      swap5\n      swap4\n      swap3\n      swap2\n      swap1\n      tag_23\n      jump\t// in\n    tag_22:\n      mload(0x40)\n      0x20\n      dup2\n      dup4\n      sub\n      sub\n      dup2\n      mstore\n      swap1\n      0x40\n      mstore\n        /* \"contracts/lesson8.1/04Create2.sol\":1051:1236  keccak256(... */\n      dup1\n      mload\n      swap1\n      0x20\n      add\n      keccak256\n        /* \"contracts/lesson8.1/04Create2.sol\":1036:1236  bytes32 hash = keccak256(... */\n      swap1\n      pop\n        /* \"contracts/lesson8.1/04Create2.sol\":1288:1292  hash */\n      dup1\n        /* \"contracts/lesson8.1/04Create2.sol\":1280:1293  uint256(hash) */\n      0x00\n      shr\n        /* \"contracts/lesson8.1/04Create2.sol\":1257:1295  return address(uint160(uint256(hash))) */\n      swap3\n      pop\n      pop\n      pop\n        /* \"contracts/lesson8.1/04Create2.sol\":751:1303  function computeAddress(bytes32 salt, address deployer) ... */\n      swap3\n      swap2\n      pop\n      pop\n      jump\t// out\n        /* \"contracts/lesson8.1/04Create2.sol\":463:739  function createWithCreate2(bytes32 salt) external returns (address) {... */\n    tag_14:\n        /* \"contracts/lesson8.1/04Create2.sol\":522:529  address */\n      0x00\n        /* \"contracts/lesson8.1/04Create2.sol\":542:557  Counter counter */\n      0x00\n        /* \"contracts/lesson8.1/04Create2.sol\":578:582  salt */\n      dup3\n        /* \"contracts/lesson8.1/04Create2.sol\":584:594  msg.sender */\n      caller\n        /* \"contracts/lesson8.1/04Create2.sol\":560:595  new Counter{salt: salt}(msg.sender) */\n      mload(0x40)\n      tag_25\n      swap1\n      tag_18\n      jump\t// in\n    tag_25:\n      tag_26\n      swap2\n      swap1\n      tag_10\n      jump\t// in\n    tag_26:\n      dup2\n      swap1\n      mload(0x40)\n      dup1\n      swap2\n      sub\n      swap1\n      0x00\n      create2\n      swap1\n      pop\n      dup1\n      iszero\n      dup1\n      iszero\n      tag_27\n      jumpi\n      returndatacopy(0x00, 0x00, returndatasize)\n      revert(0x00, returndatasize)\n    tag_27:\n      pop\n        /* \"contracts/lesson8.1/04Create2.sol\":542:595  Counter counter = new Counter{salt: salt}(msg.sender) */\n      swap1\n      pop\n        /* \"contracts/lesson8.1/04Create2.sol\":606:628  address counterAddress */\n      0x00\n        /* \"contracts/lesson8.1/04Create2.sol\":639:646  counter */\n      dup2\n        /* \"contracts/lesson8.1/04Create2.sol\":606:647  address counterAddress = address(counter) */\n      swap1\n      pop\n        /* \"contracts/lesson8.1/04Create2.sol\":678:692  counterAddress */\n      dup1\n        /* \"contracts/lesson8.1/04Create2.sol\":663:699  CounterCreated(counterAddress, salt) */\n      0xffffffffffffffffffffffffffffffffffffffff\n      and\n      0xf668b7c3ab3227f1bff325b7bd2bc3efba1bc5bebbaaecb02198994b530f9d16\n        /* \"contracts/lesson8.1/04Create2.sol\":694:698  salt */\n      dup6\n        /* \"contracts/lesson8.1/04Create2.sol\":663:699  CounterCreated(counterAddress, salt) */\n      mload(0x40)\n      tag_28\n      swap2\n      swap1\n      tag_29\n      jump\t// in\n    tag_28:\n      mload(0x40)\n      dup1\n      swap2\n      sub\n      swap1\n      log2\n        /* \"contracts/lesson8.1/04Create2.sol\":717:731  counterAddress */\n      dup1\n        /* \"contracts/lesson8.1/04Create2.sol\":710:731  return counterAddress */\n      swap3\n      pop\n      pop\n      pop\n        /* \"contracts/lesson8.1/04Create2.sol\":463:739  function createWithCreate2(bytes32 salt) external returns (address) {... */\n      swap2\n      swap1\n      pop\n      jump\t// out\n    tag_18:\n      dataSize(sub_0)\n      dup1\n      dataOffset(sub_0)\n      dup4\n      codecopy\n      add\n      swap1\n      jump\t// out\n        /* \"#utility.yul\":88:205   */\n    tag_31:\n        /* \"#utility.yul\":197:198   */\n      0x00\n        /* \"#utility.yul\":194:195   */\n      0x00\n        /* \"#utility.yul\":187:199   */\n      revert\n        /* \"#utility.yul\":334:411   */\n    tag_33:\n        /* \"#utility.yul\":371:378   */\n      0x00\n        /* \"#utility.yul\":400:405   */\n      dup2\n        /* \"#utility.yul\":389:405   */\n      swap1\n      pop\n        /* \"#utility.yul\":334:411   */\n      swap2\n      swap1\n      pop\n      jump\t// out\n        /* \"#utility.yul\":417:539   */\n    tag_34:\n        /* \"#utility.yul\":490:514   */\n      tag_61\n        /* \"#utility.yul\":508:513   */\n      dup2\n        /* \"#utility.yul\":490:514   */\n      tag_33\n      jump\t// in\n    tag_61:\n        /* \"#utility.yul\":483:488   */\n      dup2\n        /* \"#utility.yul\":480:515   */\n      eq\n        /* \"#utility.yul\":470:533   */\n      tag_62\n      jumpi\n        /* \"#utility.yul\":529:530   */\n      0x00\n        /* \"#utility.yul\":526:527   */\n      0x00\n        /* \"#utility.yul\":519:531   */\n      revert\n        /* \"#utility.yul\":470:533   */\n    tag_62:\n        /* \"#utility.yul\":417:539   */\n      pop\n      jump\t// out\n        /* \"#utility.yul\":545:684   */\n    tag_35:\n        /* \"#utility.yul\":591:596   */\n      0x00\n        /* \"#utility.yul\":629:635   */\n      dup2\n        /* \"#utility.yul\":616:636   */\n      calldataload\n        /* \"#utility.yul\":607:636   */\n      swap1\n      pop\n        /* \"#utility.yul\":645:678   */\n      tag_64\n        /* \"#utility.yul\":672:677   */\n      dup2\n        /* \"#utility.yul\":645:678   */\n      tag_34\n      jump\t// in\n    tag_64:\n        /* \"#utility.yul\":545:684   */\n      swap3\n      swap2\n      pop\n      pop\n      jump\t// out\n        /* \"#utility.yul\":690:816   */\n    tag_36:\n        /* \"#utility.yul\":727:734   */\n      0x00\n        /* \"#utility.yul\":767:809   */\n      0xffffffffffffffffffffffffffffffffffffffff\n        /* \"#utility.yul\":760:765   */\n      dup3\n        /* \"#utility.yul\":756:810   */\n      and\n        /* \"#utility.yul\":745:810   */\n      swap1\n      pop\n        /* \"#utility.yul\":690:816   */\n      swap2\n      swap1\n      pop\n      jump\t// out\n        /* \"#utility.yul\":822:918   */\n    tag_37:\n        /* \"#utility.yul\":859:866   */\n      0x00\n        /* \"#utility.yul\":888:912   */\n      tag_67\n        /* \"#utility.yul\":906:911   */\n      dup3\n        /* \"#utility.yul\":888:912   */\n      tag_36\n      jump\t// in\n    tag_67:\n        /* \"#utility.yul\":877:912   */\n      swap1\n      pop\n        /* \"#utility.yul\":822:918   */\n      swap2\n      swap1\n      pop\n      jump\t// out\n        /* \"#utility.yul\":924:1046   */\n    tag_38:\n        /* \"#utility.yul\":997:1021   */\n      tag_69\n        /* \"#utility.yul\":1015:1020   */\n      dup2\n        /* \"#utility.yul\":997:1021   */\n      tag_37\n      jump\t// in\n    tag_69:\n        /* \"#utility.yul\":990:995   */\n      dup2\n        /* \"#utility.yul\":987:1022   */\n      eq\n        /* \"#utility.yul\":977:1040   */\n      tag_70\n      jumpi\n        /* \"#utility.yul\":1036:1037   */\n      0x00\n        /* \"#utility.yul\":1033:1034   */\n      0x00\n        /* \"#utility.yul\":1026:1038   */\n      revert\n        /* \"#utility.yul\":977:1040   */\n    tag_70:\n        /* \"#utility.yul\":924:1046   */\n      pop\n      jump\t// out\n        /* \"#utility.yul\":1052:1191   */\n    tag_39:\n        /* \"#utility.yul\":1098:1103   */\n      0x00\n        /* \"#utility.yul\":1136:1142   */\n      dup2\n        /* \"#utility.yul\":1123:1143   */\n      calldataload\n        /* \"#utility.yul\":1114:1143   */\n      swap1\n      pop\n        /* \"#utility.yul\":1152:1185   */\n      tag_72\n        /* \"#utility.yul\":1179:1184   */\n      dup2\n        /* \"#utility.yul\":1152:1185   */\n      tag_38\n      jump\t// in\n    tag_72:\n        /* \"#utility.yul\":1052:1191   */\n      swap3\n      swap2\n      pop\n      pop\n      jump\t// out\n        /* \"#utility.yul\":1197:1671   */\n    tag_7:\n        /* \"#utility.yul\":1265:1271   */\n      0x00\n        /* \"#utility.yul\":1273:1279   */\n      0x00\n        /* \"#utility.yul\":1322:1324   */\n      0x40\n        /* \"#utility.yul\":1310:1319   */\n      dup4\n        /* \"#utility.yul\":1301:1308   */\n      dup6\n        /* \"#utility.yul\":1297:1320   */\n      sub\n        /* \"#utility.yul\":1293:1325   */\n      slt\n        /* \"#utility.yul\":1290:1409   */\n      iszero\n      tag_74\n      jumpi\n        /* \"#utility.yul\":1328:1407   */\n      tag_75\n      tag_31\n      jump\t// in\n    tag_75:\n        /* \"#utility.yul\":1290:1409   */\n    tag_74:\n        /* \"#utility.yul\":1448:1449   */\n      0x00\n        /* \"#utility.yul\":1473:1526   */\n      tag_76\n        /* \"#utility.yul\":1518:1525   */\n      dup6\n        /* \"#utility.yul\":1509:1515   */\n      dup3\n        /* \"#utility.yul\":1498:1507   */\n      dup7\n        /* \"#utility.yul\":1494:1516   */\n      add\n        /* \"#utility.yul\":1473:1526   */\n      tag_35\n      jump\t// in\n    tag_76:\n        /* \"#utility.yul\":1463:1526   */\n      swap3\n      pop\n        /* \"#utility.yul\":1419:1536   */\n      pop\n        /* \"#utility.yul\":1575:1577   */\n      0x20\n        /* \"#utility.yul\":1601:1654   */\n      tag_77\n        /* \"#utility.yul\":1646:1653   */\n      dup6\n        /* \"#utility.yul\":1637:1643   */\n      dup3\n        /* \"#utility.yul\":1626:1635   */\n      dup7\n        /* \"#utility.yul\":1622:1644   */\n      add\n        /* \"#utility.yul\":1601:1654   */\n      tag_39\n      jump\t// in\n    tag_77:\n        /* \"#utility.yul\":1591:1654   */\n      swap2\n      pop\n        /* \"#utility.yul\":1546:1664   */\n      pop\n        /* \"#utility.yul\":1197:1671   */\n      swap3\n      pop\n      swap3\n      swap1\n      pop\n      jump\t// out\n        /* \"#utility.yul\":1677:1795   */\n    tag_40:\n        /* \"#utility.yul\":1764:1788   */\n      tag_79\n        /* \"#utility.yul\":1782:1787   */\n      dup2\n        /* \"#utility.yul\":1764:1788   */\n      tag_37\n      jump\t// in\n    tag_79:\n        /* \"#utility.yul\":1759:1762   */\n      dup3\n        /* \"#utility.yul\":1752:1789   */\n      mstore\n        /* \"#utility.yul\":1677:1795   */\n      pop\n      pop\n      jump\t// out\n        /* \"#utility.yul\":1801:2023   */\n    tag_10:\n        /* \"#utility.yul\":1894:1898   */\n      0x00\n        /* \"#utility.yul\":1932:1934   */\n      0x20\n        /* \"#utility.yul\":1921:1930   */\n      dup3\n        /* \"#utility.yul\":1917:1935   */\n      add\n        /* \"#utility.yul\":1909:1935   */\n      swap1\n      pop\n        /* \"#utility.yul\":1945:2016   */\n      tag_81\n        /* \"#utility.yul\":2013:2014   */\n      0x00\n        /* \"#utility.yul\":2002:2011   */\n      dup4\n        /* \"#utility.yul\":1998:2015   */\n      add\n        /* \"#utility.yul\":1989:1995   */\n      dup5\n        /* \"#utility.yul\":1945:2016   */\n      tag_40\n      jump\t// in\n    tag_81:\n        /* \"#utility.yul\":1801:2023   */\n      swap3\n      swap2\n      pop\n      pop\n      jump\t// out\n        /* \"#utility.yul\":2029:2358   */\n    tag_13:\n        /* \"#utility.yul\":2088:2094   */\n      0x00\n        /* \"#utility.yul\":2137:2139   */\n      0x20\n        /* \"#utility.yul\":2125:2134   */\n      dup3\n        /* \"#utility.yul\":2116:2123   */\n      dup5\n        /* \"#utility.yul\":2112:2135   */\n      sub\n        /* \"#utility.yul\":2108:2140   */\n      slt\n        /* \"#utility.yul\":2105:2224   */\n      iszero\n      tag_83\n      jumpi\n        /* \"#utility.yul\":2143:2222   */\n      tag_84\n      tag_31\n      jump\t// in\n    tag_84:\n        /* \"#utility.yul\":2105:2224   */\n    tag_83:\n        /* \"#utility.yul\":2263:2264   */\n      0x00\n        /* \"#utility.yul\":2288:2341   */\n      tag_85\n        /* \"#utility.yul\":2333:2340   */\n      dup5\n        /* \"#utility.yul\":2324:2330   */\n      dup3\n        /* \"#utility.yul\":2313:2322   */\n      dup6\n        /* \"#utility.yul\":2309:2331   */\n      add\n        /* \"#utility.yul\":2288:2341   */\n      tag_35\n      jump\t// in\n    tag_85:\n        /* \"#utility.yul\":2278:2341   */\n      swap2\n      pop\n        /* \"#utility.yul\":2234:2351   */\n      pop\n        /* \"#utility.yul\":2029:2358   */\n      swap3\n      swap2\n      pop\n      pop\n      jump\t// out\n        /* \"#utility.yul\":2364:2462   */\n    tag_41:\n        /* \"#utility.yul\":2415:2421   */\n      0x00\n        /* \"#utility.yul\":2449:2454   */\n      dup2\n        /* \"#utility.yul\":2443:2455   */\n      mload\n        /* \"#utility.yul\":2433:2455   */\n      swap1\n      pop\n        /* \"#utility.yul\":2364:2462   */\n      swap2\n      swap1\n      pop\n      jump\t// out\n        /* \"#utility.yul\":2468:2615   */\n    tag_42:\n        /* \"#utility.yul\":2569:2580   */\n      0x00\n        /* \"#utility.yul\":2606:2609   */\n      dup2\n        /* \"#utility.yul\":2591:2609   */\n      swap1\n      pop\n        /* \"#utility.yul\":2468:2615   */\n      swap3\n      swap2\n      pop\n      pop\n      jump\t// out\n        /* \"#utility.yul\":2621:2760   */\n    tag_43:\n        /* \"#utility.yul\":2710:2716   */\n      dup3\n        /* \"#utility.yul\":2705:2708   */\n      dup2\n        /* \"#utility.yul\":2700:2703   */\n      dup4\n        /* \"#utility.yul\":2694:2717   */\n      mcopy\n        /* \"#utility.yul\":2751:2752   */\n      0x00\n        /* \"#utility.yul\":2742:2748   */\n      dup4\n        /* \"#utility.yul\":2737:2740   */\n      dup4\n        /* \"#utility.yul\":2733:2749   */\n      add\n        /* \"#utility.yul\":2726:2753   */\n      mstore\n        /* \"#utility.yul\":2621:2760   */\n      pop\n      pop\n      pop\n      jump\t// out\n        /* \"#utility.yul\":2766:3152   */\n    tag_44:\n        /* \"#utility.yul\":2870:2873   */\n      0x00\n        /* \"#utility.yul\":2898:2936   */\n      tag_90\n        /* \"#utility.yul\":2930:2935   */\n      dup3\n        /* \"#utility.yul\":2898:2936   */\n      tag_41\n      jump\t// in\n    tag_90:\n        /* \"#utility.yul\":2952:3040   */\n      tag_91\n        /* \"#utility.yul\":3033:3039   */\n      dup2\n        /* \"#utility.yul\":3028:3031   */\n      dup6\n        /* \"#utility.yul\":2952:3040   */\n      tag_42\n      jump\t// in\n    tag_91:\n        /* \"#utility.yul\":2945:3040   */\n      swap4\n      pop\n        /* \"#utility.yul\":3049:3114   */\n      tag_92\n        /* \"#utility.yul\":3107:3113   */\n      dup2\n        /* \"#utility.yul\":3102:3105   */\n      dup6\n        /* \"#utility.yul\":3095:3099   */\n      0x20\n        /* \"#utility.yul\":3088:3093   */\n      dup7\n        /* \"#utility.yul\":3084:3100   */\n      add\n        /* \"#utility.yul\":3049:3114   */\n      tag_43\n      jump\t// in\n    tag_92:\n        /* \"#utility.yul\":3139:3145   */\n      dup1\n        /* \"#utility.yul\":3134:3137   */\n      dup5\n        /* \"#utility.yul\":3130:3146   */\n      add\n        /* \"#utility.yul\":3123:3146   */\n      swap2\n      pop\n        /* \"#utility.yul\":2874:3152   */\n      pop\n        /* \"#utility.yul\":2766:3152   */\n      swap3\n      swap2\n      pop\n      pop\n      jump\t// out\n        /* \"#utility.yul\":3158:3585   */\n    tag_21:\n        /* \"#utility.yul\":3334:3337   */\n      0x00\n        /* \"#utility.yul\":3356:3449   */\n      tag_94\n        /* \"#utility.yul\":3445:3448   */\n      dup3\n        /* \"#utility.yul\":3436:3442   */\n      dup6\n        /* \"#utility.yul\":3356:3449   */\n      tag_44\n      jump\t// in\n    tag_94:\n        /* \"#utility.yul\":3349:3449   */\n      swap2\n      pop\n        /* \"#utility.yul\":3466:3559   */\n      tag_95\n        /* \"#utility.yul\":3555:3558   */\n      dup3\n        /* \"#utility.yul\":3546:3552   */\n      dup5\n        /* \"#utility.yul\":3466:3559   */\n      tag_44\n      jump\t// in\n    tag_95:\n        /* \"#utility.yul\":3459:3559   */\n      swap2\n      pop\n        /* \"#utility.yul\":3576:3579   */\n      dup2\n        /* \"#utility.yul\":3569:3579   */\n      swap1\n      pop\n        /* \"#utility.yul\":3158:3585   */\n      swap4\n      swap3\n      pop\n      pop\n      pop\n      jump\t// out\n        /* \"#utility.yul\":3591:3740   */\n    tag_45:\n        /* \"#utility.yul\":3627:3634   */\n      0x00\n        /* \"#utility.yul\":3667:3733   */\n      0xff00000000000000000000000000000000000000000000000000000000000000\n        /* \"#utility.yul\":3660:3665   */\n      dup3\n        /* \"#utility.yul\":3656:3734   */\n      and\n        /* \"#utility.yul\":3645:3734   */\n      swap1\n      pop\n        /* \"#utility.yul\":3591:3740   */\n      swap2\n      swap1\n      pop\n      jump\t// out\n        /* \"#utility.yul\":3746:3824   */\n    tag_46:\n        /* \"#utility.yul\":3784:3791   */\n      0x00\n        /* \"#utility.yul\":3813:3818   */\n      dup2\n        /* \"#utility.yul\":3802:3818   */\n      swap1\n      pop\n        /* \"#utility.yul\":3746:3824   */\n      swap2\n      swap1\n      pop\n      jump\t// out\n        /* \"#utility.yul\":3830:3983   */\n    tag_47:\n        /* \"#utility.yul\":3933:3976   */\n      tag_99\n        /* \"#utility.yul\":3952:3975   */\n      tag_100\n        /* \"#utility.yul\":3969:3974   */\n      dup3\n        /* \"#utility.yul\":3952:3975   */\n      tag_45\n      jump\t// in\n    tag_100:\n        /* \"#utility.yul\":3933:3976   */\n      tag_46\n      jump\t// in\n    tag_99:\n        /* \"#utility.yul\":3928:3931   */\n      dup3\n        /* \"#utility.yul\":3921:3977   */\n      mstore\n        /* \"#utility.yul\":3830:3983   */\n      pop\n      pop\n      jump\t// out\n        /* \"#utility.yul\":3989:4083   */\n    tag_48:\n        /* \"#utility.yul\":4022:4030   */\n      0x00\n        /* \"#utility.yul\":4070:4075   */\n      dup2\n        /* \"#utility.yul\":4066:4068   */\n      0x60\n        /* \"#utility.yul\":4062:4076   */\n      shl\n        /* \"#utility.yul\":4041:4076   */\n      swap1\n      pop\n        /* \"#utility.yul\":3989:4083   */\n      swap2\n      swap1\n      pop\n      jump\t// out\n        /* \"#utility.yul\":4089:4183   */\n    tag_49:\n        /* \"#utility.yul\":4128:4135   */\n      0x00\n        /* \"#utility.yul\":4157:4177   */\n      tag_103\n        /* \"#utility.yul\":4171:4176   */\n      dup3\n        /* \"#utility.yul\":4157:4177   */\n      tag_48\n      jump\t// in\n    tag_103:\n        /* \"#utility.yul\":4146:4177   */\n      swap1\n      pop\n        /* \"#utility.yul\":4089:4183   */\n      swap2\n      swap1\n      pop\n      jump\t// out\n        /* \"#utility.yul\":4189:4289   */\n    tag_50:\n        /* \"#utility.yul\":4228:4235   */\n      0x00\n        /* \"#utility.yul\":4257:4283   */\n      tag_105\n        /* \"#utility.yul\":4277:4282   */\n      dup3\n        /* \"#utility.yul\":4257:4283   */\n      tag_49\n      jump\t// in\n    tag_105:\n        /* \"#utility.yul\":4246:4283   */\n      swap1\n      pop\n        /* \"#utility.yul\":4189:4289   */\n      swap2\n      swap1\n      pop\n      jump\t// out\n        /* \"#utility.yul\":4295:4452   */\n    tag_51:\n        /* \"#utility.yul\":4400:4445   */\n      tag_107\n        /* \"#utility.yul\":4420:4444   */\n      tag_108\n        /* \"#utility.yul\":4438:4443   */\n      dup3\n        /* \"#utility.yul\":4420:4444   */\n      tag_37\n      jump\t// in\n    tag_108:\n        /* \"#utility.yul\":4400:4445   */\n      tag_50\n      jump\t// in\n    tag_107:\n        /* \"#utility.yul\":4395:4398   */\n      dup3\n        /* \"#utility.yul\":4388:4446   */\n      mstore\n        /* \"#utility.yul\":4295:4452   */\n      pop\n      pop\n      jump\t// out\n        /* \"#utility.yul\":4458:4537   */\n    tag_52:\n        /* \"#utility.yul\":4497:4504   */\n      0x00\n        /* \"#utility.yul\":4526:4531   */\n      dup2\n        /* \"#utility.yul\":4515:4531   */\n      swap1\n      pop\n        /* \"#utility.yul\":4458:4537   */\n      swap2\n      swap1\n      pop\n      jump\t// out\n        /* \"#utility.yul\":4543:4700   */\n    tag_53:\n        /* \"#utility.yul\":4648:4693   */\n      tag_111\n        /* \"#utility.yul\":4668:4692   */\n      tag_112\n        /* \"#utility.yul\":4686:4691   */\n      dup3\n        /* \"#utility.yul\":4668:4692   */\n      tag_33\n      jump\t// in\n    tag_112:\n        /* \"#utility.yul\":4648:4693   */\n      tag_52\n      jump\t// in\n    tag_111:\n        /* \"#utility.yul\":4643:4646   */\n      dup3\n        /* \"#utility.yul\":4636:4694   */\n      mstore\n        /* \"#utility.yul\":4543:4700   */\n      pop\n      pop\n      jump\t// out\n        /* \"#utility.yul\":4706:5380   */\n    tag_23:\n        /* \"#utility.yul\":4900:4903   */\n      0x00\n        /* \"#utility.yul\":4915:4988   */\n      tag_114\n        /* \"#utility.yul\":4984:4987   */\n      dup3\n        /* \"#utility.yul\":4975:4981   */\n      dup8\n        /* \"#utility.yul\":4915:4988   */\n      tag_47\n      jump\t// in\n    tag_114:\n        /* \"#utility.yul\":5013:5014   */\n      0x01\n        /* \"#utility.yul\":5008:5011   */\n      dup3\n        /* \"#utility.yul\":5004:5015   */\n      add\n        /* \"#utility.yul\":4997:5015   */\n      swap2\n      pop\n        /* \"#utility.yul\":5025:5100   */\n      tag_115\n        /* \"#utility.yul\":5096:5099   */\n      dup3\n        /* \"#utility.yul\":5087:5093   */\n      dup7\n        /* \"#utility.yul\":5025:5100   */\n      tag_51\n      jump\t// in\n    tag_115:\n        /* \"#utility.yul\":5125:5127   */\n      0x14\n        /* \"#utility.yul\":5120:5123   */\n      dup3\n        /* \"#utility.yul\":5116:5128   */\n      add\n        /* \"#utility.yul\":5109:5128   */\n      swap2\n      pop\n        /* \"#utility.yul\":5138:5213   */\n      tag_116\n        /* \"#utility.yul\":5209:5212   */\n      dup3\n        /* \"#utility.yul\":5200:5206   */\n      dup6\n        /* \"#utility.yul\":5138:5213   */\n      tag_53\n      jump\t// in\n    tag_116:\n        /* \"#utility.yul\":5238:5240   */\n      0x20\n        /* \"#utility.yul\":5233:5236   */\n      dup3\n        /* \"#utility.yul\":5229:5241   */\n      add\n        /* \"#utility.yul\":5222:5241   */\n      swap2\n      pop\n        /* \"#utility.yul\":5251:5326   */\n      tag_117\n        /* \"#utility.yul\":5322:5325   */\n      dup3\n        /* \"#utility.yul\":5313:5319   */\n      dup5\n        /* \"#utility.yul\":5251:5326   */\n      tag_53\n      jump\t// in\n    tag_117:\n        /* \"#utility.yul\":5351:5353   */\n      0x20\n        /* \"#utility.yul\":5346:5349   */\n      dup3\n        /* \"#utility.yul\":5342:5354   */\n      add\n        /* \"#utility.yul\":5335:5354   */\n      swap2\n      pop\n        /* \"#utility.yul\":5371:5374   */\n      dup2\n        /* \"#utility.yul\":5364:5374   */\n      swap1\n      pop\n        /* \"#utility.yul\":4706:5380   */\n      swap6\n      swap5\n      pop\n      pop\n      pop\n      pop\n      pop\n      jump\t// out\n        /* \"#utility.yul\":5386:5504   */\n    tag_54:\n        /* \"#utility.yul\":5473:5497   */\n      tag_119\n        /* \"#utility.yul\":5491:5496   */\n      dup2\n        /* \"#utility.yul\":5473:5497   */\n      tag_33\n      jump\t// in\n    tag_119:\n        /* \"#utility.yul\":5468:5471   */\n      dup3\n        /* \"#utility.yul\":5461:5498   */\n      mstore\n        /* \"#utility.yul\":5386:5504   */\n      pop\n      pop\n      jump\t// out\n        /* \"#utility.yul\":5510:5732   */\n    tag_29:\n        /* \"#utility.yul\":5603:5607   */\n      0x00\n        /* \"#utility.yul\":5641:5643   */\n      0x20\n        /* \"#utility.yul\":5630:5639   */\n      dup3\n        /* \"#utility.yul\":5626:5644   */\n      add\n        /* \"#utility.yul\":5618:5644   */\n      swap1\n      pop\n        /* \"#utility.yul\":5654:5725   */\n      tag_121\n        /* \"#utility.yul\":5722:5723   */\n      0x00\n        /* \"#utility.yul\":5711:5720   */\n      dup4\n        /* \"#utility.yul\":5707:5724   */\n      add\n        /* \"#utility.yul\":5698:5704   */\n      dup5\n        /* \"#utility.yul\":5654:5725   */\n      tag_54\n      jump\t// in\n    tag_121:\n        /* \"#utility.yul\":5510:5732   */\n      swap3\n      swap2\n      pop\n      pop\n      jump\t// out\n    stop\n\n    sub_0: assembly {\n            /* \"contracts/lesson8.1/04Create2.sol\":61:349  contract Counter {... */\n          mstore(0x40, 0x80)\n            /* \"contracts/lesson8.1/04Create2.sol\":145:226  constructor(address _owner) {... */\n          callvalue\n          dup1\n          iszero\n          tag_1\n          jumpi\n          revert(0x00, 0x00)\n        tag_1:\n          pop\n          mload(0x40)\n          sub(codesize, bytecodeSize)\n          dup1\n          bytecodeSize\n          dup4\n          codecopy\n          dup2\n          dup2\n          add\n          0x40\n          mstore\n          dup2\n          add\n          swap1\n          tag_2\n          swap2\n          swap1\n          tag_3\n          jump\t// in\n        tag_2:\n            /* \"contracts/lesson8.1/04Create2.sol\":192:198  _owner */\n          dup1\n            /* \"contracts/lesson8.1/04Create2.sol\":184:189  owner */\n          0x01\n          0x00\n            /* \"contracts/lesson8.1/04Create2.sol\":184:198  owner = _owner */\n          0x0100\n          exp\n          dup2\n          sload\n          dup2\n          0xffffffffffffffffffffffffffffffffffffffff\n          mul\n          not\n          and\n          swap1\n          dup4\n          0xffffffffffffffffffffffffffffffffffffffff\n          and\n          mul\n          or\n          swap1\n          sstore\n          pop\n            /* \"contracts/lesson8.1/04Create2.sol\":217:218  0 */\n          0x00\n            /* \"contracts/lesson8.1/04Create2.sol\":209:214  count */\n          0x00\n            /* \"contracts/lesson8.1/04Create2.sol\":209:218  count = 0 */\n          dup2\n          swap1\n          sstore\n          pop\n            /* \"contracts/lesson8.1/04Create2.sol\":145:226  constructor(address _owner) {... */\n          pop\n            /* \"contracts/lesson8.1/04Create2.sol\":61:349  contract Counter {... */\n          jump(tag_6)\n            /* \"#utility.yul\":88:205   */\n        tag_8:\n            /* \"#utility.yul\":197:198   */\n          0x00\n            /* \"#utility.yul\":194:195   */\n          0x00\n            /* \"#utility.yul\":187:199   */\n          revert\n            /* \"#utility.yul\":334:460   */\n        tag_10:\n            /* \"#utility.yul\":371:378   */\n          0x00\n            /* \"#utility.yul\":411:453   */\n          0xffffffffffffffffffffffffffffffffffffffff\n            /* \"#utility.yul\":404:409   */\n          dup3\n            /* \"#utility.yul\":400:454   */\n          and\n            /* \"#utility.yul\":389:454   */\n          swap1\n          pop\n            /* \"#utility.yul\":334:460   */\n          swap2\n          swap1\n          pop\n          jump\t// out\n            /* \"#utility.yul\":466:562   */\n        tag_11:\n            /* \"#utility.yul\":503:510   */\n          0x00\n            /* \"#utility.yul\":532:556   */\n          tag_20\n            /* \"#utility.yul\":550:555   */\n          dup3\n            /* \"#utility.yul\":532:556   */\n          tag_10\n          jump\t// in\n        tag_20:\n            /* \"#utility.yul\":521:556   */\n          swap1\n          pop\n            /* \"#utility.yul\":466:562   */\n          swap2\n          swap1\n          pop\n          jump\t// out\n            /* \"#utility.yul\":568:690   */\n        tag_12:\n            /* \"#utility.yul\":641:665   */\n          tag_22\n            /* \"#utility.yul\":659:664   */\n          dup2\n            /* \"#utility.yul\":641:665   */\n          tag_11\n          jump\t// in\n        tag_22:\n            /* \"#utility.yul\":634:639   */\n          dup2\n            /* \"#utility.yul\":631:666   */\n          eq\n            /* \"#utility.yul\":621:684   */\n          tag_23\n          jumpi\n            /* \"#utility.yul\":680:681   */\n          0x00\n            /* \"#utility.yul\":677:678   */\n          0x00\n            /* \"#utility.yul\":670:682   */\n          revert\n            /* \"#utility.yul\":621:684   */\n        tag_23:\n            /* \"#utility.yul\":568:690   */\n          pop\n          jump\t// out\n            /* \"#utility.yul\":696:839   */\n        tag_13:\n            /* \"#utility.yul\":753:758   */\n          0x00\n            /* \"#utility.yul\":784:790   */\n          dup2\n            /* \"#utility.yul\":778:791   */\n          mload\n            /* \"#utility.yul\":769:791   */\n          swap1\n          pop\n            /* \"#utility.yul\":800:833   */\n          tag_25\n            /* \"#utility.yul\":827:832   */\n          dup2\n            /* \"#utility.yul\":800:833   */\n          tag_12\n          jump\t// in\n        tag_25:\n            /* \"#utility.yul\":696:839   */\n          swap3\n          swap2\n          pop\n          pop\n          jump\t// out\n            /* \"#utility.yul\":845:1196   */\n        tag_3:\n            /* \"#utility.yul\":915:921   */\n          0x00\n            /* \"#utility.yul\":964:966   */\n          0x20\n            /* \"#utility.yul\":952:961   */\n          dup3\n            /* \"#utility.yul\":943:950   */\n          dup5\n            /* \"#utility.yul\":939:962   */\n          sub\n            /* \"#utility.yul\":935:967   */\n          slt\n            /* \"#utility.yul\":932:1051   */\n          iszero\n          tag_27\n          jumpi\n            /* \"#utility.yul\":970:1049   */\n          tag_28\n          tag_8\n          jump\t// in\n        tag_28:\n            /* \"#utility.yul\":932:1051   */\n        tag_27:\n            /* \"#utility.yul\":1090:1091   */\n          0x00\n            /* \"#utility.yul\":1115:1179   */\n          tag_29\n            /* \"#utility.yul\":1171:1178   */\n          dup5\n            /* \"#utility.yul\":1162:1168   */\n          dup3\n            /* \"#utility.yul\":1151:1160   */\n          dup6\n            /* \"#utility.yul\":1147:1169   */\n          add\n            /* \"#utility.yul\":1115:1179   */\n          tag_13\n          jump\t// in\n        tag_29:\n            /* \"#utility.yul\":1105:1179   */\n          swap2\n          pop\n            /* \"#utility.yul\":1061:1189   */\n          pop\n            /* \"#utility.yul\":845:1196   */\n          swap3\n          swap2\n          pop\n          pop\n          jump\t// out\n            /* \"contracts/lesson8.1/04Create2.sol\":61:349  contract Counter {... */\n        tag_6:\n          dataSize(sub_0)\n          dup1\n          dataOffset(sub_0)\n          0x00\n          codecopy\n          0x00\n          return\n        stop\n\n        sub_0: assembly {\n                /* \"contracts/lesson8.1/04Create2.sol\":61:349  contract Counter {... */\n              mstore(0x40, 0x80)\n              callvalue\n              dup1\n              iszero\n              tag_1\n              jumpi\n              revert(0x00, 0x00)\n            tag_1:\n              pop\n              jumpi(tag_2, lt(calldatasize, 0x04))\n              shr(0xe0, calldataload(0x00))\n              dup1\n              0x06661abd\n              eq\n              tag_3\n              jumpi\n              dup1\n              0x8da5cb5b\n              eq\n              tag_4\n              jumpi\n              dup1\n              0xd09de08a\n              eq\n              tag_5\n              jumpi\n            tag_2:\n              revert(0x00, 0x00)\n                /* \"contracts/lesson8.1/04Create2.sol\":85:105  uint256 public count */\n            tag_3:\n              tag_6\n              tag_7\n              jump\t// in\n            tag_6:\n              mload(0x40)\n              tag_8\n              swap2\n              swap1\n              tag_9\n              jump\t// in\n            tag_8:\n              mload(0x40)\n              dup1\n              swap2\n              sub\n              swap1\n              return\n                /* \"contracts/lesson8.1/04Create2.sol\":112:132  address public owner */\n            tag_4:\n              tag_10\n              tag_11\n              jump\t// in\n            tag_10:\n              mload(0x40)\n              tag_12\n              swap2\n              swap1\n              tag_13\n              jump\t// in\n            tag_12:\n              mload(0x40)\n              dup1\n              swap2\n              sub\n              swap1\n              return\n                /* \"contracts/lesson8.1/04Create2.sol\":238:346  function increment() external {... */\n            tag_5:\n              tag_14\n              tag_15\n              jump\t// in\n            tag_14:\n              stop\n                /* \"contracts/lesson8.1/04Create2.sol\":85:105  uint256 public count */\n            tag_7:\n              sload(0x00)\n              dup2\n              jump\t// out\n                /* \"contracts/lesson8.1/04Create2.sol\":112:132  address public owner */\n            tag_11:\n              0x01\n              0x00\n              swap1\n              sload\n              swap1\n              0x0100\n              exp\n              swap1\n              div\n              0xffffffffffffffffffffffffffffffffffffffff\n              and\n              dup2\n              jump\t// out\n                /* \"contracts/lesson8.1/04Create2.sol\":238:346  function increment() external {... */\n            tag_15:\n                /* \"contracts/lesson8.1/04Create2.sol\":301:306  owner */\n              0x01\n              0x00\n              swap1\n              sload\n              swap1\n              0x0100\n              exp\n              swap1\n              div\n              0xffffffffffffffffffffffffffffffffffffffff\n              and\n                /* \"contracts/lesson8.1/04Create2.sol\":287:306  msg.sender == owner */\n              0xffffffffffffffffffffffffffffffffffffffff\n              and\n                /* \"contracts/lesson8.1/04Create2.sol\":287:297  msg.sender */\n              caller\n                /* \"contracts/lesson8.1/04Create2.sol\":287:306  msg.sender == owner */\n              0xffffffffffffffffffffffffffffffffffffffff\n              and\n              eq\n                /* \"contracts/lesson8.1/04Create2.sol\":279:320  require(msg.sender == owner, \"Not owner\") */\n              tag_17\n              jumpi\n              mload(0x40)\n              0x08c379a000000000000000000000000000000000000000000000000000000000\n              dup2\n              mstore\n              0x04\n              add\n              tag_18\n              swap1\n              tag_19\n              jump\t// in\n            tag_18:\n              mload(0x40)\n              dup1\n              swap2\n              sub\n              swap1\n              revert\n            tag_17:\n                /* \"contracts/lesson8.1/04Create2.sol\":331:336  count */\n              0x00\n              0x00\n                /* \"contracts/lesson8.1/04Create2.sol\":331:338  count++ */\n              dup2\n              sload\n              dup1\n              swap3\n              swap2\n              swap1\n              tag_20\n              swap1\n              tag_21\n              jump\t// in\n            tag_20:\n              swap2\n              swap1\n              pop\n              sstore\n              pop\n                /* \"contracts/lesson8.1/04Create2.sol\":238:346  function increment() external {... */\n              jump\t// out\n                /* \"#utility.yul\":7:84   */\n            tag_22:\n                /* \"#utility.yul\":44:51   */\n              0x00\n                /* \"#utility.yul\":73:78   */\n              dup2\n                /* \"#utility.yul\":62:78   */\n              swap1\n              pop\n                /* \"#utility.yul\":7:84   */\n              swap2\n              swap1\n              pop\n              jump\t// out\n                /* \"#utility.yul\":90:208   */\n            tag_23:\n                /* \"#utility.yul\":177:201   */\n              tag_34\n                /* \"#utility.yul\":195:200   */\n              dup2\n                /* \"#utility.yul\":177:201   */\n              tag_22\n              jump\t// in\n            tag_34:\n                /* \"#utility.yul\":172:175   */\n              dup3\n                /* \"#utility.yul\":165:202   */\n              mstore\n                /* \"#utility.yul\":90:208   */\n              pop\n              pop\n              jump\t// out\n                /* \"#utility.yul\":214:436   */\n            tag_9:\n                /* \"#utility.yul\":307:311   */\n              0x00\n                /* \"#utility.yul\":345:347   */\n              0x20\n                /* \"#utility.yul\":334:343   */\n              dup3\n                /* \"#utility.yul\":330:348   */\n              add\n                /* \"#utility.yul\":322:348   */\n              swap1\n              pop\n                /* \"#utility.yul\":358:429   */\n              tag_36\n                /* \"#utility.yul\":426:427   */\n              0x00\n                /* \"#utility.yul\":415:424   */\n              dup4\n                /* \"#utility.yul\":411:428   */\n              add\n                /* \"#utility.yul\":402:408   */\n              dup5\n                /* \"#utility.yul\":358:429   */\n              tag_23\n              jump\t// in\n            tag_36:\n                /* \"#utility.yul\":214:436   */\n              swap3\n              swap2\n              pop\n              pop\n              jump\t// out\n                /* \"#utility.yul\":442:568   */\n            tag_24:\n                /* \"#utility.yul\":479:486   */\n              0x00\n                /* \"#utility.yul\":519:561   */\n              0xffffffffffffffffffffffffffffffffffffffff\n                /* \"#utility.yul\":512:517   */\n              dup3\n                /* \"#utility.yul\":508:562   */\n              and\n                /* \"#utility.yul\":497:562   */\n              swap1\n              pop\n                /* \"#utility.yul\":442:568   */\n              swap2\n              swap1\n              pop\n              jump\t// out\n                /* \"#utility.yul\":574:670   */\n            tag_25:\n                /* \"#utility.yul\":611:618   */\n              0x00\n                /* \"#utility.yul\":640:664   */\n              tag_39\n                /* \"#utility.yul\":658:663   */\n              dup3\n                /* \"#utility.yul\":640:664   */\n              tag_24\n              jump\t// in\n            tag_39:\n                /* \"#utility.yul\":629:664   */\n              swap1\n              pop\n                /* \"#utility.yul\":574:670   */\n              swap2\n              swap1\n              pop\n              jump\t// out\n                /* \"#utility.yul\":676:794   */\n            tag_26:\n                /* \"#utility.yul\":763:787   */\n              tag_41\n                /* \"#utility.yul\":781:786   */\n              dup2\n                /* \"#utility.yul\":763:787   */\n              tag_25\n              jump\t// in\n            tag_41:\n                /* \"#utility.yul\":758:761   */\n              dup3\n                /* \"#utility.yul\":751:788   */\n              mstore\n                /* \"#utility.yul\":676:794   */\n              pop\n              pop\n              jump\t// out\n                /* \"#utility.yul\":800:1022   */\n            tag_13:\n                /* \"#utility.yul\":893:897   */\n              0x00\n                /* \"#utility.yul\":931:933   */\n              0x20\n                /* \"#utility.yul\":920:929   */\n              dup3\n                /* \"#utility.yul\":916:934   */\n              add\n                /* \"#utility.yul\":908:934   */\n              swap1\n              pop\n                /* \"#utility.yul\":944:1015   */\n              tag_43\n                /* \"#utility.yul\":1012:1013   */\n              0x00\n                /* \"#utility.yul\":1001:1010   */\n              dup4\n                /* \"#utility.yul\":997:1014   */\n              add\n                /* \"#utility.yul\":988:994   */\n              dup5\n                /* \"#utility.yul\":944:1015   */\n              tag_26\n              jump\t// in\n            tag_43:\n                /* \"#utility.yul\":800:1022   */\n              swap3\n              swap2\n              pop\n              pop\n              jump\t// out\n                /* \"#utility.yul\":1028:1197   */\n            tag_27:\n                /* \"#utility.yul\":1112:1123   */\n              0x00\n                /* \"#utility.yul\":1146:1152   */\n              dup3\n                /* \"#utility.yul\":1141:1144   */\n              dup3\n                /* \"#utility.yul\":1134:1153   */\n              mstore\n                /* \"#utility.yul\":1186:1190   */\n              0x20\n                /* \"#utility.yul\":1181:1184   */\n              dup3\n                /* \"#utility.yul\":1177:1191   */\n              add\n                /* \"#utility.yul\":1162:1191   */\n              swap1\n              pop\n                /* \"#utility.yul\":1028:1197   */\n              swap3\n              swap2\n              pop\n              pop\n              jump\t// out\n                /* \"#utility.yul\":1203:1362   */\n            tag_28:\n                /* \"#utility.yul\":1343:1354   */\n              0x4e6f74206f776e65720000000000000000000000000000000000000000000000\n                /* \"#utility.yul\":1339:1340   */\n              0x00\n                /* \"#utility.yul\":1331:1337   */\n              dup3\n                /* \"#utility.yul\":1327:1341   */\n              add\n                /* \"#utility.yul\":1320:1355   */\n              mstore\n                /* \"#utility.yul\":1203:1362   */\n              pop\n              jump\t// out\n                /* \"#utility.yul\":1368:1733   */\n            tag_29:\n                /* \"#utility.yul\":1510:1513   */\n              0x00\n                /* \"#utility.yul\":1531:1597   */\n              tag_47\n                /* \"#utility.yul\":1595:1596   */\n              0x09\n                /* \"#utility.yul\":1590:1593   */\n              dup4\n                /* \"#utility.yul\":1531:1597   */\n              tag_27\n              jump\t// in\n            tag_47:\n                /* \"#utility.yul\":1524:1597   */\n              swap2\n              pop\n                /* \"#utility.yul\":1606:1699   */\n              tag_48\n                /* \"#utility.yul\":1695:1698   */\n              dup3\n                /* \"#utility.yul\":1606:1699   */\n              tag_28\n              jump\t// in\n            tag_48:\n                /* \"#utility.yul\":1724:1726   */\n              0x20\n                /* \"#utility.yul\":1719:1722   */\n              dup3\n                /* \"#utility.yul\":1715:1727   */\n              add\n                /* \"#utility.yul\":1708:1727   */\n              swap1\n              pop\n                /* \"#utility.yul\":1368:1733   */\n              swap2\n              swap1\n              pop\n              jump\t// out\n                /* \"#utility.yul\":1739:2158   */\n            tag_19:\n                /* \"#utility.yul\":1905:1909   */\n              0x00\n                /* \"#utility.yul\":1943:1945   */\n              0x20\n                /* \"#utility.yul\":1932:1941   */\n              dup3\n                /* \"#utility.yul\":1928:1946   */\n              add\n                /* \"#utility.yul\":1920:1946   */\n              swap1\n              pop\n                /* \"#utility.yul\":1992:2001   */\n              dup2\n                /* \"#utility.yul\":1986:1990   */\n              dup2\n                /* \"#utility.yul\":1982:2002   */\n              sub\n                /* \"#utility.yul\":1978:1979   */\n              0x00\n                /* \"#utility.yul\":1967:1976   */\n              dup4\n                /* \"#utility.yul\":1963:1980   */\n              add\n                /* \"#utility.yul\":1956:2003   */\n              mstore\n                /* \"#utility.yul\":2020:2151   */\n              tag_50\n                /* \"#utility.yul\":2146:2150   */\n              dup2\n                /* \"#utility.yul\":2020:2151   */\n              tag_29\n              jump\t// in\n            tag_50:\n                /* \"#utility.yul\":2012:2151   */\n              swap1\n              pop\n                /* \"#utility.yul\":1739:2158   */\n              swap2\n              swap1\n              pop\n              jump\t// out\n                /* \"#utility.yul\":2164:2344   */\n            tag_30:\n                /* \"#utility.yul\":2212:2289   */\n              0x4e487b7100000000000000000000000000000000000000000000000000000000\n                /* \"#utility.yul\":2209:2210   */\n              0x00\n                /* \"#utility.yul\":2202:2290   */\n              mstore\n                /* \"#utility.yul\":2309:2313   */\n              0x11\n                /* \"#utility.yul\":2306:2307   */\n              0x04\n                /* \"#utility.yul\":2299:2314   */\n              mstore\n                /* \"#utility.yul\":2333:2337   */\n              0x24\n                /* \"#utility.yul\":2330:2331   */\n              0x00\n                /* \"#utility.yul\":2323:2338   */\n              revert\n                /* \"#utility.yul\":2350:2583   */\n            tag_21:\n                /* \"#utility.yul\":2389:2392   */\n              0x00\n                /* \"#utility.yul\":2412:2436   */\n              tag_53\n                /* \"#utility.yul\":2430:2435   */\n              dup3\n                /* \"#utility.yul\":2412:2436   */\n              tag_22\n              jump\t// in\n            tag_53:\n                /* \"#utility.yul\":2403:2436   */\n              swap2\n              pop\n                /* \"#utility.yul\":2458:2524   */\n              0xffffffffffffffffffffffffffffffffffffffffffffffffffffffffffffffff\n                /* \"#utility.yul\":2451:2456   */\n              dup3\n                /* \"#utility.yul\":2448:2525   */\n              sub\n                /* \"#utility.yul\":2445:2548   */\n              tag_54\n              jumpi\n                /* \"#utility.yul\":2528:2546   */\n              tag_55\n              tag_30\n              jump\t// in\n            tag_55:\n                /* \"#utility.yul\":2445:2548   */\n            tag_54:\n                /* \"#utility.yul\":2575:2576   */\n              0x01\n                /* \"#utility.yul\":2568:2573   */\n              dup3\n                /* \"#utility.yul\":2564:2577   */\n              add\n                /* \"#utility.yul\":2557:2577   */\n              swap1\n              pop\n                /* \"#utility.yul\":2350:2583   */\n              swap2\n              swap1\n              pop\n              jump\t// out\n\n            auxdata: 0xa2646970667358221220c3aab14da609f8aae4f4e866ccd526e40aa792851966f660103df20f9886948664736f6c634300081e0033\n        }\n    }\n\n    auxdata: 0xa264697066735822122000d5045ab7b518845c8a4f8b442663dce251fb1b600db57b2ee275655844e98164736f6c634300081e0033\n}\n",
				"bytecode": {
					"linkReferences": {},
					"object": "6080604052348015600e575f5ffd5b506108f58061001c5f395ff3fe608060405234801561000f575f5ffd5b5060043610610034575f3560e01c80632f1f618d14610038578063c540f6ca14610068575b5f5ffd5b610052600480360381019061004d919061027c565b610098565b60405161005f91906102c9565b60405180910390f35b610082600480360381019061007d91906102e2565b610148565b60405161008f91906102c9565b60405180910390f35b5f5f604051806020016100aa906101de565b6020820181038252601f19601f82011660405250336040516020016100cf91906102c9565b6040516020818303038152906040526040516020016100ef92919061035f565b60405160208183030381529060405290505f60ff60f81b848684805190602001206040516020016101239493929190610432565b604051602081830303815290604052805190602001209050805f1c9250505092915050565b5f5f8233604051610158906101de565b61016291906102c9565b8190604051809103905ff590508015801561017f573d5f5f3e3d5ffd5b5090505f8190508073ffffffffffffffffffffffffffffffffffffffff167ff668b7c3ab3227f1bff325b7bd2bc3efba1bc5bebbaaecb02198994b530f9d16856040516101cc919061048e565b60405180910390a28092505050919050565b610418806104a883390190565b5f5ffd5b5f819050919050565b610201816101ef565b811461020b575f5ffd5b50565b5f8135905061021c816101f8565b92915050565b5f73ffffffffffffffffffffffffffffffffffffffff82169050919050565b5f61024b82610222565b9050919050565b61025b81610241565b8114610265575f5ffd5b50565b5f8135905061027681610252565b92915050565b5f5f60408385031215610292576102916101eb565b5b5f61029f8582860161020e565b92505060206102b085828601610268565b9150509250929050565b6102c381610241565b82525050565b5f6020820190506102dc5f8301846102ba565b92915050565b5f602082840312156102f7576102f66101eb565b5b5f6103048482850161020e565b91505092915050565b5f81519050919050565b5f81905092915050565b8281835e5f83830152505050565b5f6103398261030d565b6103438185610317565b9350610353818560208601610321565b80840191505092915050565b5f61036a828561032f565b9150610376828461032f565b91508190509392505050565b5f7fff0000000000000000000000000000000000000000000000000000000000000082169050919050565b5f819050919050565b6103c76103c282610382565b6103ad565b82525050565b5f8160601b9050919050565b5f6103e3826103cd565b9050919050565b5f6103f4826103d9565b9050919050565b61040c61040782610241565b6103ea565b82525050565b5f819050919050565b61042c610427826101ef565b610412565b82525050565b5f61043d82876103b6565b60018201915061044d82866103fb565b60148201915061045d828561041b565b60208201915061046d828461041b565b60208201915081905095945050505050565b610488816101ef565b82525050565b5f6020820190506104a15f83018461047f565b9291505056fe608060405234801561000f575f5ffd5b50604051610418380380610418833981810160405281019061003191906100db565b8060015f6101000a81548173ffffffffffffffffffffffffffffffffffffffff021916908373ffffffffffffffffffffffffffffffffffffffff1602179055505f5f8190555050610106565b5f5ffd5b5f73ffffffffffffffffffffffffffffffffffffffff82169050919050565b5f6100aa82610081565b9050919050565b6100ba816100a0565b81146100c4575f5ffd5b50565b5f815190506100d5816100b1565b92915050565b5f602082840312156100f0576100ef61007d565b5b5f6100fd848285016100c7565b91505092915050565b610305806101135f395ff3fe608060405234801561000f575f5ffd5b506004361061003f575f3560e01c806306661abd146100435780638da5cb5b14610061578063d09de08a1461007f575b5f5ffd5b61004b610089565b6040516100589190610172565b60405180910390f35b61006961008e565b60405161007691906101ca565b60405180910390f35b6100876100b3565b005b5f5481565b60015f9054906101000a900473ffffffffffffffffffffffffffffffffffffffff1681565b60015f9054906101000a900473ffffffffffffffffffffffffffffffffffffffff1673ffffffffffffffffffffffffffffffffffffffff163373ffffffffffffffffffffffffffffffffffffffff1614610142576040517f08c379a00000000000000000000000000000000000000000000000000000000081526004016101399061023d565b60405180910390fd5b5f5f81548092919061015390610288565b9190505550565b5f819050919050565b61016c8161015a565b82525050565b5f6020820190506101855f830184610163565b92915050565b5f73ffffffffffffffffffffffffffffffffffffffff82169050919050565b5f6101b48261018b565b9050919050565b6101c4816101aa565b82525050565b5f6020820190506101dd5f8301846101bb565b92915050565b5f82825260208201905092915050565b7f4e6f74206f776e657200000000000000000000000000000000000000000000005f82015250565b5f6102276009836101e3565b9150610232826101f3565b602082019050919050565b5f6020820190508181035f8301526102548161021b565b9050919050565b7f4e487b71000000000000000000000000000000000000000000000000000000005f52601160045260245ffd5b5f6102928261015a565b91507fffffffffffffffffffffffffffffffffffffffffffffffffffffffffffffffff82036102c4576102c361025b565b5b60018201905091905056fea2646970667358221220c3aab14da609f8aae4f4e866ccd526e40aa792851966f660103df20f9886948664736f6c634300081e0033a264697066735822122000d5045ab7b518845c8a4f8b442663dce251fb1b600db57b2ee275655844e98164736f6c634300081e0033",
					"opcodes": "PUSH1 0x80 PUSH1 0x40 MSTORE CALLVALUE DUP1 ISZERO PUSH1 0xE JUMPI PUSH0 PUSH0 REVERT JUMPDEST POP PUSH2 0x8F5 DUP1 PUSH2 0x1C PUSH0 CODECOPY PUSH0 RETURN INVALID PUSH1 0x80 PUSH1 0x40 MSTORE CALLVALUE DUP1 ISZERO PUSH2 0xF JUMPI PUSH0 PUSH0 REVERT JUMPDEST POP PUSH1 0x4 CALLDATASIZE LT PUSH2 0x34 JUMPI PUSH0 CALLDATALOAD PUSH1 0xE0 SHR DUP1 PUSH4 0x2F1F618D EQ PUSH2 0x38 JUMPI DUP1 PUSH4 0xC540F6CA EQ PUSH2 0x68 JUMPI JUMPDEST PUSH0 PUSH0 REVERT JUMPDEST PUSH2 0x52 PUSH1 0x4 DUP1 CALLDATASIZE SUB DUP2 ADD SWAP1 PUSH2 0x4D SWAP2 SWAP1 PUSH2 0x27C JUMP JUMPDEST PUSH2 0x98 JUMP JUMPDEST PUSH1 0x40 MLOAD PUSH2 0x5F SWAP2 SWAP1 PUSH2 0x2C9 JUMP JUMPDEST PUSH1 0x40 MLOAD DUP1 SWAP2 SUB SWAP1 RETURN JUMPDEST PUSH2 0x82 PUSH1 0x4 DUP1 CALLDATASIZE SUB DUP2 ADD SWAP1 PUSH2 0x7D SWAP2 SWAP1 PUSH2 0x2E2 JUMP JUMPDEST PUSH2 0x148 JUMP JUMPDEST PUSH1 0x40 MLOAD PUSH2 0x8F SWAP2 SWAP1 PUSH2 0x2C9 JUMP JUMPDEST PUSH1 0x40 MLOAD DUP1 SWAP2 SUB SWAP1 RETURN JUMPDEST PUSH0 PUSH0 PUSH1 0x40 MLOAD DUP1 PUSH1 0x20 ADD PUSH2 0xAA SWAP1 PUSH2 0x1DE JUMP JUMPDEST PUSH1 0x20 DUP3 ADD DUP2 SUB DUP3 MSTORE PUSH1 0x1F NOT PUSH1 0x1F DUP3 ADD AND PUSH1 0x40 MSTORE POP CALLER PUSH1 0x40 MLOAD PUSH1 0x20 ADD PUSH2 0xCF SWAP2 SWAP1 PUSH2 0x2C9 JUMP JUMPDEST PUSH1 0x40 MLOAD PUSH1 0x20 DUP2 DUP4 SUB SUB DUP2 MSTORE SWAP1 PUSH1 0x40 MSTORE PUSH1 0x40 MLOAD PUSH1 0x20 ADD PUSH2 0xEF SWAP3 SWAP2 SWAP1 PUSH2 0x35F JUMP JUMPDEST PUSH1 0x40 MLOAD PUSH1 0x20 DUP2 DUP4 SUB SUB DUP2 MSTORE SWAP1 PUSH1 0x40 MSTORE SWAP1 POP PUSH0 PUSH1 0xFF PUSH1 0xF8 SHL DUP5 DUP7 DUP5 DUP1 MLOAD SWAP1 PUSH1 0x20 ADD KECCAK256 PUSH1 0x40 MLOAD PUSH1 0x20 ADD PUSH2 0x123 SWAP5 SWAP4 SWAP3 SWAP2 SWAP1 PUSH2 0x432 JUMP JUMPDEST PUSH1 0x40 MLOAD PUSH1 0x20 DUP2 DUP4 SUB SUB DUP2 MSTORE SWAP1 PUSH1 0x40 MSTORE DUP1 MLOAD SWAP1 PUSH1 0x20 ADD KECCAK256 SWAP1 POP DUP1 PUSH0 SHR SWAP3 POP POP POP SWAP3 SWAP2 POP POP JUMP JUMPDEST PUSH0 PUSH0 DUP3 CALLER PUSH1 0x40 MLOAD PUSH2 0x158 SWAP1 PUSH2 0x1DE JUMP JUMPDEST PUSH2 0x162 SWAP2 SWAP1 PUSH2 0x2C9 JUMP JUMPDEST DUP2 SWAP1 PUSH1 0x40 MLOAD DUP1 SWAP2 SUB SWAP1 PUSH0 CREATE2 SWAP1 POP DUP1 ISZERO DUP1 ISZERO PUSH2 0x17F JUMPI RETURNDATASIZE PUSH0 PUSH0 RETURNDATACOPY RETURNDATASIZE PUSH0 REVERT JUMPDEST POP SWAP1 POP PUSH0 DUP2 SWAP1 POP DUP1 PUSH20 0xFFFFFFFFFFFFFFFFFFFFFFFFFFFFFFFFFFFFFFFF AND PUSH32 0xF668B7C3AB3227F1BFF325B7BD2BC3EFBA1BC5BEBBAAECB02198994B530F9D16 DUP6 PUSH1 0x40 MLOAD PUSH2 0x1CC SWAP2 SWAP1 PUSH2 0x48E JUMP JUMPDEST PUSH1 0x40 MLOAD DUP1 SWAP2 SUB SWAP1 LOG2 DUP1 SWAP3 POP POP POP SWAP2 SWAP1 POP JUMP JUMPDEST PUSH2 0x418 DUP1 PUSH2 0x4A8 DUP4 CODECOPY ADD SWAP1 JUMP JUMPDEST PUSH0 PUSH0 REVERT JUMPDEST PUSH0 DUP2 SWAP1 POP SWAP2 SWAP1 POP JUMP JUMPDEST PUSH2 0x201 DUP2 PUSH2 0x1EF JUMP JUMPDEST DUP2 EQ PUSH2 0x20B JUMPI PUSH0 PUSH0 REVERT JUMPDEST POP JUMP JUMPDEST PUSH0 DUP2 CALLDATALOAD SWAP1 POP PUSH2 0x21C DUP2 PUSH2 0x1F8 JUMP JUMPDEST SWAP3 SWAP2 POP POP JUMP JUMPDEST PUSH0 PUSH20 0xFFFFFFFFFFFFFFFFFFFFFFFFFFFFFFFFFFFFFFFF DUP3 AND SWAP1 POP SWAP2 SWAP1 POP JUMP JUMPDEST PUSH0 PUSH2 0x24B DUP3 PUSH2 0x222 JUMP JUMPDEST SWAP1 POP SWAP2 SWAP1 POP JUMP JUMPDEST PUSH2 0x25B DUP2 PUSH2 0x241 JUMP JUMPDEST DUP2 EQ PUSH2 0x265 JUMPI PUSH0 PUSH0 REVERT JUMPDEST POP JUMP JUMPDEST PUSH0 DUP2 CALLDATALOAD SWAP1 POP PUSH2 0x276 DUP2 PUSH2 0x252 JUMP JUMPDEST SWAP3 SWAP2 POP POP JUMP JUMPDEST PUSH0 PUSH0 PUSH1 0x40 DUP4 DUP6 SUB SLT ISZERO PUSH2 0x292 JUMPI PUSH2 0x291 PUSH2 0x1EB JUMP JUMPDEST JUMPDEST PUSH0 PUSH2 0x29F DUP6 DUP3 DUP7 ADD PUSH2 0x20E JUMP JUMPDEST SWAP3 POP POP PUSH1 0x20 PUSH2 0x2B0 DUP6 DUP3 DUP7 ADD PUSH2 0x268 JUMP JUMPDEST SWAP2 POP POP SWAP3 POP SWAP3 SWAP1 POP JUMP JUMPDEST PUSH2 0x2C3 DUP2 PUSH2 0x241 JUMP JUMPDEST DUP3 MSTORE POP POP JUMP JUMPDEST PUSH0 PUSH1 0x20 DUP3 ADD SWAP1 POP PUSH2 0x2DC PUSH0 DUP4 ADD DUP5 PUSH2 0x2BA JUMP JUMPDEST SWAP3 SWAP2 POP POP JUMP JUMPDEST PUSH0 PUSH1 0x20 DUP3 DUP5 SUB SLT ISZERO PUSH2 0x2F7 JUMPI PUSH2 0x2F6 PUSH2 0x1EB JUMP JUMPDEST JUMPDEST PUSH0 PUSH2 0x304 DUP5 DUP3 DUP6 ADD PUSH2 0x20E JUMP JUMPDEST SWAP2 POP POP SWAP3 SWAP2 POP POP JUMP JUMPDEST PUSH0 DUP2 MLOAD SWAP1 POP SWAP2 SWAP1 POP JUMP JUMPDEST PUSH0 DUP2 SWAP1 POP SWAP3 SWAP2 POP POP JUMP JUMPDEST DUP3 DUP2 DUP4 MCOPY PUSH0 DUP4 DUP4 ADD MSTORE POP POP POP JUMP JUMPDEST PUSH0 PUSH2 0x339 DUP3 PUSH2 0x30D JUMP JUMPDEST PUSH2 0x343 DUP2 DUP6 PUSH2 0x317 JUMP JUMPDEST SWAP4 POP PUSH2 0x353 DUP2 DUP6 PUSH1 0x20 DUP7 ADD PUSH2 0x321 JUMP JUMPDEST DUP1 DUP5 ADD SWAP2 POP POP SWAP3 SWAP2 POP POP JUMP JUMPDEST PUSH0 PUSH2 0x36A DUP3 DUP6 PUSH2 0x32F JUMP JUMPDEST SWAP2 POP PUSH2 0x376 DUP3 DUP5 PUSH2 0x32F JUMP JUMPDEST SWAP2 POP DUP2 SWAP1 POP SWAP4 SWAP3 POP POP POP JUMP JUMPDEST PUSH0 PUSH32 0xFF00000000000000000000000000000000000000000000000000000000000000 DUP3 AND SWAP1 POP SWAP2 SWAP1 POP JUMP JUMPDEST PUSH0 DUP2 SWAP1 POP SWAP2 SWAP1 POP JUMP JUMPDEST PUSH2 0x3C7 PUSH2 0x3C2 DUP3 PUSH2 0x382 JUMP JUMPDEST PUSH2 0x3AD JUMP JUMPDEST DUP3 MSTORE POP POP JUMP JUMPDEST PUSH0 DUP2 PUSH1 0x60 SHL SWAP1 POP SWAP2 SWAP1 POP JUMP JUMPDEST PUSH0 PUSH2 0x3E3 DUP3 PUSH2 0x3CD JUMP JUMPDEST SWAP1 POP SWAP2 SWAP1 POP JUMP JUMPDEST PUSH0 PUSH2 0x3F4 DUP3 PUSH2 0x3D9 JUMP JUMPDEST SWAP1 POP SWAP2 SWAP1 POP JUMP JUMPDEST PUSH2 0x40C PUSH2 0x407 DUP3 PUSH2 0x241 JUMP JUMPDEST PUSH2 0x3EA JUMP JUMPDEST DUP3 MSTORE POP POP JUMP JUMPDEST PUSH0 DUP2 SWAP1 POP SWAP2 SWAP1 POP JUMP JUMPDEST PUSH2 0x42C PUSH2 0x427 DUP3 PUSH2 0x1EF JUMP JUMPDEST PUSH2 0x412 JUMP JUMPDEST DUP3 MSTORE POP POP JUMP JUMPDEST PUSH0 PUSH2 0x43D DUP3 DUP8 PUSH2 0x3B6 JUMP JUMPDEST PUSH1 0x1 DUP3 ADD SWAP2 POP PUSH2 0x44D DUP3 DUP7 PUSH2 0x3FB JUMP JUMPDEST PUSH1 0x14 DUP3 ADD SWAP2 POP PUSH2 0x45D DUP3 DUP6 PUSH2 0x41B JUMP JUMPDEST PUSH1 0x20 DUP3 ADD SWAP2 POP PUSH2 0x46D DUP3 DUP5 PUSH2 0x41B JUMP JUMPDEST PUSH1 0x20 DUP3 ADD SWAP2 POP DUP2 SWAP1 POP SWAP6 SWAP5 POP POP POP POP POP JUMP JUMPDEST PUSH2 0x488 DUP2 PUSH2 0x1EF JUMP JUMPDEST DUP3 MSTORE POP POP JUMP JUMPDEST PUSH0 PUSH1 0x20 DUP3 ADD SWAP1 POP PUSH2 0x4A1 PUSH0 DUP4 ADD DUP5 PUSH2 0x47F JUMP JUMPDEST SWAP3 SWAP2 POP POP JUMP INVALID PUSH1 0x80 PUSH1 0x40 MSTORE CALLVALUE DUP1 ISZERO PUSH2 0xF JUMPI PUSH0 PUSH0 REVERT JUMPDEST POP PUSH1 0x40 MLOAD PUSH2 0x418 CODESIZE SUB DUP1 PUSH2 0x418 DUP4 CODECOPY DUP2 DUP2 ADD PUSH1 0x40 MSTORE DUP2 ADD SWAP1 PUSH2 0x31 SWAP2 SWAP1 PUSH2 0xDB JUMP JUMPDEST DUP1 PUSH1 0x1 PUSH0 PUSH2 0x100 EXP DUP2 SLOAD DUP2 PUSH20 0xFFFFFFFFFFFFFFFFFFFFFFFFFFFFFFFFFFFFFFFF MUL NOT AND SWAP1 DUP4 PUSH20 0xFFFFFFFFFFFFFFFFFFFFFFFFFFFFFFFFFFFFFFFF AND MUL OR SWAP1 SSTORE POP PUSH0 PUSH0 DUP2 SWAP1 SSTORE POP POP PUSH2 0x106 JUMP JUMPDEST PUSH0 PUSH0 REVERT JUMPDEST PUSH0 PUSH20 0xFFFFFFFFFFFFFFFFFFFFFFFFFFFFFFFFFFFFFFFF DUP3 AND SWAP1 POP SWAP2 SWAP1 POP JUMP JUMPDEST PUSH0 PUSH2 0xAA DUP3 PUSH2 0x81 JUMP JUMPDEST SWAP1 POP SWAP2 SWAP1 POP JUMP JUMPDEST PUSH2 0xBA DUP2 PUSH2 0xA0 JUMP JUMPDEST DUP2 EQ PUSH2 0xC4 JUMPI PUSH0 PUSH0 REVERT JUMPDEST POP JUMP JUMPDEST PUSH0 DUP2 MLOAD SWAP1 POP PUSH2 0xD5 DUP2 PUSH2 0xB1 JUMP JUMPDEST SWAP3 SWAP2 POP POP JUMP JUMPDEST PUSH0 PUSH1 0x20 DUP3 DUP5 SUB SLT ISZERO PUSH2 0xF0 JUMPI PUSH2 0xEF PUSH2 0x7D JUMP JUMPDEST JUMPDEST PUSH0 PUSH2 0xFD DUP5 DUP3 DUP6 ADD PUSH2 0xC7 JUMP JUMPDEST SWAP2 POP POP SWAP3 SWAP2 POP POP JUMP JUMPDEST PUSH2 0x305 DUP1 PUSH2 0x113 PUSH0 CODECOPY PUSH0 RETURN INVALID PUSH1 0x80 PUSH1 0x40 MSTORE CALLVALUE DUP1 ISZERO PUSH2 0xF JUMPI PUSH0 PUSH0 REVERT JUMPDEST POP PUSH1 0x4 CALLDATASIZE LT PUSH2 0x3F JUMPI PUSH0 CALLDATALOAD PUSH1 0xE0 SHR DUP1 PUSH4 0x6661ABD EQ PUSH2 0x43 JUMPI DUP1 PUSH4 0x8DA5CB5B EQ PUSH2 0x61 JUMPI DUP1 PUSH4 0xD09DE08A EQ PUSH2 0x7F JUMPI JUMPDEST PUSH0 PUSH0 REVERT JUMPDEST PUSH2 0x4B PUSH2 0x89 JUMP JUMPDEST PUSH1 0x40 MLOAD PUSH2 0x58 SWAP2 SWAP1 PUSH2 0x172 JUMP JUMPDEST PUSH1 0x40 MLOAD DUP1 SWAP2 SUB SWAP1 RETURN JUMPDEST PUSH2 0x69 PUSH2 0x8E JUMP JUMPDEST PUSH1 0x40 MLOAD PUSH2 0x76 SWAP2 SWAP1 PUSH2 0x1CA JUMP JUMPDEST PUSH1 0x40 MLOAD DUP1 SWAP2 SUB SWAP1 RETURN JUMPDEST PUSH2 0x87 PUSH2 0xB3 JUMP JUMPDEST STOP JUMPDEST PUSH0 SLOAD DUP2 JUMP JUMPDEST PUSH1 0x1 PUSH0 SWAP1 SLOAD SWAP1 PUSH2 0x100 EXP SWAP1 DIV PUSH20 0xFFFFFFFFFFFFFFFFFFFFFFFFFFFFFFFFFFFFFFFF AND DUP2 JUMP JUMPDEST PUSH1 0x1 PUSH0 SWAP1 SLOAD SWAP1 PUSH2 0x100 EXP SWAP1 DIV PUSH20 0xFFFFFFFFFFFFFFFFFFFFFFFFFFFFFFFFFFFFFFFF AND PUSH20 0xFFFFFFFFFFFFFFFFFFFFFFFFFFFFFFFFFFFFFFFF AND CALLER PUSH20 0xFFFFFFFFFFFFFFFFFFFFFFFFFFFFFFFFFFFFFFFF AND EQ PUSH2 0x142 JUMPI PUSH1 0x40 MLOAD PUSH32 0x8C379A000000000000000000000000000000000000000000000000000000000 DUP2 MSTORE PUSH1 0x4 ADD PUSH2 0x139 SWAP1 PUSH2 0x23D JUMP JUMPDEST PUSH1 0x40 MLOAD DUP1 SWAP2 SUB SWAP1 REVERT JUMPDEST PUSH0 PUSH0 DUP2 SLOAD DUP1 SWAP3 SWAP2 SWAP1 PUSH2 0x153 SWAP1 PUSH2 0x288 JUMP JUMPDEST SWAP2 SWAP1 POP SSTORE POP JUMP JUMPDEST PUSH0 DUP2 SWAP1 POP SWAP2 SWAP1 POP JUMP JUMPDEST PUSH2 0x16C DUP2 PUSH2 0x15A JUMP JUMPDEST DUP3 MSTORE POP POP JUMP JUMPDEST PUSH0 PUSH1 0x20 DUP3 ADD SWAP1 POP PUSH2 0x185 PUSH0 DUP4 ADD DUP5 PUSH2 0x163 JUMP JUMPDEST SWAP3 SWAP2 POP POP JUMP JUMPDEST PUSH0 PUSH20 0xFFFFFFFFFFFFFFFFFFFFFFFFFFFFFFFFFFFFFFFF DUP3 AND SWAP1 POP SWAP2 SWAP1 POP JUMP JUMPDEST PUSH0 PUSH2 0x1B4 DUP3 PUSH2 0x18B JUMP JUMPDEST SWAP1 POP SWAP2 SWAP1 POP JUMP JUMPDEST PUSH2 0x1C4 DUP2 PUSH2 0x1AA JUMP JUMPDEST DUP3 MSTORE POP POP JUMP JUMPDEST PUSH0 PUSH1 0x20 DUP3 ADD SWAP1 POP PUSH2 0x1DD PUSH0 DUP4 ADD DUP5 PUSH2 0x1BB JUMP JUMPDEST SWAP3 SWAP2 POP POP JUMP JUMPDEST PUSH0 DUP3 DUP3 MSTORE PUSH1 0x20 DUP3 ADD SWAP1 POP SWAP3 SWAP2 POP POP JUMP JUMPDEST PUSH32 0x4E6F74206F776E65720000000000000000000000000000000000000000000000 PUSH0 DUP3 ADD MSTORE POP JUMP JUMPDEST PUSH0 PUSH2 0x227 PUSH1 0x9 DUP4 PUSH2 0x1E3 JUMP JUMPDEST SWAP2 POP PUSH2 0x232 DUP3 PUSH2 0x1F3 JUMP JUMPDEST PUSH1 0x20 DUP3 ADD SWAP1 POP SWAP2 SWAP1 POP JUMP JUMPDEST PUSH0 PUSH1 0x20 DUP3 ADD SWAP1 POP DUP2 DUP2 SUB PUSH0 DUP4 ADD MSTORE PUSH2 0x254 DUP2 PUSH2 0x21B JUMP JUMPDEST SWAP1 POP SWAP2 SWAP1 POP JUMP JUMPDEST PUSH32 0x4E487B7100000000000000000000000000000000000000000000000000000000 PUSH0 MSTORE PUSH1 0x11 PUSH1 0x4 MSTORE PUSH1 0x24 PUSH0 REVERT JUMPDEST PUSH0 PUSH2 0x292 DUP3 PUSH2 0x15A JUMP JUMPDEST SWAP2 POP PUSH32 0xFFFFFFFFFFFFFFFFFFFFFFFFFFFFFFFFFFFFFFFFFFFFFFFFFFFFFFFFFFFFFFFF DUP3 SUB PUSH2 0x2C4 JUMPI PUSH2 0x2C3 PUSH2 0x25B JUMP JUMPDEST JUMPDEST PUSH1 0x1 DUP3 ADD SWAP1 POP SWAP2 SWAP1 POP JUMP INVALID LOG2 PUSH5 0x6970667358 0x22 SLT KECCAK256 0xC3 0xAA 0xB1 0x4D 0xA6 MULMOD EXTCALL 0xAA RETF DELEGATECALL 0xE8 PUSH7 0xCCD526E40AA792 DUP6 NOT PUSH7 0xF660103DF20F98 DUP7 SWAP5 DUP7 PUSH5 0x736F6C6343 STOP ADDMOD 0x1E STOP CALLER LOG2 PUSH5 0x6970667358 0x22 SLT KECCAK256 STOP 0xD5 DIV GAS 0xB7 0xB5 XOR DUP5 TLOAD DUP11 0x4F DUP12 PREVRANDAO 0x26 PUSH4 0xDCE251FB SHL PUSH1 0xD 0xB5 PUSH28 0x2EE275655844E98164736F6C634300081E0033000000000000000000 "
				},
				"gasEstimates": {
					"creation": {
						"codeDepositCost": "458600",
						"executionCost": "491",
						"totalCost": "459091"
					},
					"external": {
						"computeAddress(bytes32,address)": "infinite",
						"createWithCreate2(bytes32)": "infinite"
					}
				},
				"methodIdentifiers": {
					"computeAddress(bytes32,address)": "2f1f618d",
					"createWithCreate2(bytes32)": "c540f6ca"
				}
			},
			"storageLayout": {
				"storage": [],
				"types": null
			},
			"userdoc": {
				"kind": "user",
				"methods": {},
				"version": 1
			}
		}
	}
}