{
	"contracts/lesson8.1/04Create2.sol": {
		"Counter": {
			"abi": [
				{
					"inputs": [
						{
							"internalType": "address",
							"name": "_owner",
							"type": "address"
						}
					],
					"stateMutability": "nonpayable",
					"type": "constructor"
				},
				{
					"inputs": [],
					"name": "count",
					"outputs": [
						{
							"internalType": "uint256",
							"name": "",
							"type": "uint256"
						}
					],
					"stateMutability": "view",
					"type": "function"
				},
				{
					"inputs": [],
					"name": "increment",
					"outputs": [],
					"stateMutability": "nonpayable",
					"type": "function"
				},
				{
					"inputs": [],
					"name": "owner",
					"outputs": [
						{
							"internalType": "address",
							"name": "",
							"type": "address"
						}
					],
					"stateMutability": "view",
					"type": "function"
				}
			],
			"devdoc": {
				"kind": "dev",
				"methods": {},
				"version": 1
			},
			"evm": {
				"assembly": "    /* \"contracts/lesson8.1/04Create2.sol\":61:349  contract Counter {... */\n  mstore(0x40, 0x80)\n    /* \"contracts/lesson8.1/04Create2.sol\":145:226  constructor(address _owner) {... */\n  callvalue\n  dup1\n  iszero\n  tag_1\n  jumpi\n  revert(0x00, 0x00)\ntag_1:\n  pop\n  mload(0x40)\n  sub(codesize, bytecodeSize)\n  dup1\n  bytecodeSize\n  dup4\n  codecopy\n  dup2\n  dup2\n  add\n  0x40\n  mstore\n  dup2\n  add\n  swap1\n  tag_2\n  swap2\n  swap1\n  tag_3\n  jump\t// in\ntag_2:\n    /* \"contracts/lesson8.1/04Create2.sol\":192:198  _owner */\n  dup1\n    /* \"contracts/lesson8.1/04Create2.sol\":184:189  owner */\n  0x01\n  0x00\n    /* \"contracts/lesson8.1/04Create2.sol\":184:198  owner = _owner */\n  0x0100\n  exp\n  dup2\n  sload\n  dup2\n  0xffffffffffffffffffffffffffffffffffffffff\n  mul\n  not\n  and\n  swap1\n  dup4\n  0xffffffffffffffffffffffffffffffffffffffff\n  and\n  mul\n  or\n  swap1\n  sstore\n  pop\n    /* \"contracts/lesson8.1/04Create2.sol\":217:218  0 */\n  0x00\n    /* \"contracts/lesson8.1/04Create2.sol\":209:214  count */\n  0x00\n    /* \"contracts/lesson8.1/04Create2.sol\":209:218  count = 0 */\n  dup2\n  swap1\n  sstore\n  pop\n    /* \"contracts/lesson8.1/04Create2.sol\":145:226  constructor(address _owner) {... */\n  pop\n    /* \"contracts/lesson8.1/04Create2.sol\":61:349  contract Counter {... */\n  jump(tag_6)\n    /* \"#utility.yul\":88:205   */\ntag_8:\n    /* \"#utility.yul\":197:198   */\n  0x00\n    /* \"#utility.yul\":194:195   */\n  0x00\n    /* \"#utility.yul\":187:199   */\n  revert\n    /* \"#utility.yul\":334:460   */\ntag_10:\n    /* \"#utility.yul\":371:378   */\n  0x00\n    /* \"#utility.yul\":411:453   */\n  0xffffffffffffffffffffffffffffffffffffffff\n    /* \"#utility.yul\":404:409   */\n  dup3\n    /* \"#utility.yul\":400:454   */\n  and\n    /* \"#utility.yul\":389:454   */\n  swap1\n  pop\n    /* \"#utility.yul\":334:460   */\n  swap2\n  swap1\n  pop\n  jump\t// out\n    /* \"#utility.yul\":466:562   */\ntag_11:\n    /* \"#utility.yul\":503:510   */\n  0x00\n    /* \"#utility.yul\":532:556   */\n  tag_20\n    /* \"#utility.yul\":550:555   */\n  dup3\n    /* \"#utility.yul\":532:556   */\n  tag_10\n  jump\t// in\ntag_20:\n    /* \"#utility.yul\":521:556   */\n  swap1\n  pop\n    /* \"#utility.yul\":466:562   */\n  swap2\n  swap1\n  pop\n  jump\t// out\n    /* \"#utility.yul\":568:690   */\ntag_12:\n    /* \"#utility.yul\":641:665   */\n  tag_22\n    /* \"#utility.yul\":659:664   */\n  dup2\n    /* \"#utility.yul\":641:665   */\n  tag_11\n  jump\t// in\ntag_22:\n    /* \"#utility.yul\":634:639   */\n  dup2\n    /* \"#utility.yul\":631:666   */\n  eq\n    /* \"#utility.yul\":621:684   */\n  tag_23\n  jumpi\n    /* \"#utility.yul\":680:681   */\n  0x00\n    /* \"#utility.yul\":677:678   */\n  0x00\n    /* \"#utility.yul\":670:682   */\n  revert\n    /* \"#utility.yul\":621:684   */\ntag_23:\n    /* \"#utility.yul\":568:690   */\n  pop\n  jump\t// out\n    /* \"#utility.yul\":696:839   */\ntag_13:\n    /* \"#utility.yul\":753:758   */\n  0x00\n    /* \"#utility.yul\":784:790   */\n  dup2\n    /* \"#utility.yul\":778:791   */\n  mload\n    /* \"#utility.yul\":769:791   */\n  swap1\n  pop\n    /* \"#utility.yul\":800:833   */\n  tag_25\n    /* \"#utility.yul\":827:832   */\n  dup2\n    /* \"#utility.yul\":800:833   */\n  tag_12\n  jump\t// in\ntag_25:\n    /* \"#utility.yul\":696:839   */\n  swap3\n  swap2\n  pop\n  pop\n  jump\t// out\n    /* \"#utility.yul\":845:1196   */\ntag_3:\n    /* \"#utility.yul\":915:921   */\n  0x00\n    /* \"#utility.yul\":964:966   */\n  0x20\n    /* \"#utility.yul\":952:961   */\n  dup3\n    /* \"#utility.yul\":943:950   */\n  dup5\n    /* \"#utility.yul\":939:962   */\n  sub\n    /* \"#utility.yul\":935:967   */\n  slt\n    /* \"#utility.yul\":932:1051   */\n  iszero\n  tag_27\n  jumpi\n    /* \"#utility.yul\":970:1049   */\n  tag_28\n  tag_8\n  jump\t// in\ntag_28:\n    /* \"#utility.yul\":932:1051   */\ntag_27:\n    /* \"#utility.yul\":1090:1091   */\n  0x00\n    /* \"#utility.yul\":1115:1179   */\n  tag_29\n    /* \"#utility.yul\":1171:1178   */\n  dup5\n    /* \"#utility.yul\":1162:1168   */\n  dup3\n    /* \"#utility.yul\":1151:1160   */\n  dup6\n    /* \"#utility.yul\":1147:1169   */\n  add\n    /* \"#utility.yul\":1115:1179   */\n  tag_13\n  jump\t// in\ntag_29:\n    /* \"#utility.yul\":1105:1179   */\n  swap2\n  pop\n    /* \"#utility.yul\":1061:1189   */\n  pop\n    /* \"#utility.yul\":845:1196   */\n  swap3\n  swap2\n  pop\n  pop\n  jump\t// out\n    /* \"contracts/lesson8.1/04Create2.sol\":61:349  contract Counter {... */\ntag_6:\n  dataSize(sub_0)\n  dup1\n  dataOffset(sub_0)\n  0x00\n  codecopy\n  0x00\n  return\nstop\n\nsub_0: assembly {\n        /* \"contracts/lesson8.1/04Create2.sol\":61:349  contract Counter {... */\n      mstore(0x40, 0x80)\n      callvalue\n      dup1\n      iszero\n      tag_1\n      jumpi\n      revert(0x00, 0x00)\n    tag_1:\n      pop\n      jumpi(tag_2, lt(calldatasize, 0x04))\n      shr(0xe0, calldataload(0x00))\n      dup1\n      0x06661abd\n      eq\n      tag_3\n      jumpi\n      dup1\n      0x8da5cb5b\n      eq\n      tag_4\n      jumpi\n      dup1\n      0xd09de08a\n      eq\n      tag_5\n      jumpi\n    tag_2:\n      revert(0x00, 0x00)\n        /* \"contracts/lesson8.1/04Create2.sol\":85:105  uint256 public count */\n    tag_3:\n      tag_6\n      tag_7\n      jump\t// in\n    tag_6:\n      mload(0x40)\n      tag_8\n      swap2\n      swap1\n      tag_9\n      jump\t// in\n    tag_8:\n      mload(0x40)\n      dup1\n      swap2\n      sub\n      swap1\n      return\n        /* \"contracts/lesson8.1/04Create2.sol\":112:132  address public owner */\n    tag_4:\n      tag_10\n      tag_11\n      jump\t// in\n    tag_10:\n      mload(0x40)\n      tag_12\n      swap2\n      swap1\n      tag_13\n      jump\t// in\n    tag_12:\n      mload(0x40)\n      dup1\n      swap2\n      sub\n      swap1\n      return\n        /* \"contracts/lesson8.1/04Create2.sol\":238:346  function increment() external {... */\n    tag_5:\n      tag_14\n      tag_15\n      jump\t// in\n    tag_14:\n      stop\n        /* \"contracts/lesson8.1/04Create2.sol\":85:105  uint256 public count */\n    tag_7:\n      sload(0x00)\n      dup2\n      jump\t// out\n        /* \"contracts/lesson8.1/04Create2.sol\":112:132  address public owner */\n    tag_11:\n      0x01\n      0x00\n      swap1\n      sload\n      swap1\n      0x0100\n      exp\n      swap1\n      div\n      0xffffffffffffffffffffffffffffffffffffffff\n      and\n      dup2\n      jump\t// out\n        /* \"contracts/lesson8.1/04Create2.sol\":238:346  function increment() external {... */\n    tag_15:\n        /* \"contracts/lesson8.1/04Create2.sol\":301:306  owner */\n      0x01\n      0x00\n      swap1\n      sload\n      swap1\n      0x0100\n      exp\n      swap1\n      div\n      0xffffffffffffffffffffffffffffffffffffffff\n      and\n        /* \"contracts/lesson8.1/04Create2.sol\":287:306  msg.sender == owner */\n      0xffffffffffffffffffffffffffffffffffffffff\n      and\n        /* \"contracts/lesson8.1/04Create2.sol\":287:297  msg.sender */\n      caller\n        /* \"contracts/lesson8.1/04Create2.sol\":287:306  msg.sender == owner */\n      0xffffffffffffffffffffffffffffffffffffffff\n      and\n      eq\n        /* \"contracts/lesson8.1/04Create2.sol\":279:320  require(msg.sender == owner, \"Not owner\") */\n      tag_17\n      jumpi\n      mload(0x40)\n      0x08c379a000000000000000000000000000000000000000000000000000000000\n      dup2\n      mstore\n      0x04\n      add\n      tag_18\n      swap1\n      tag_19\n      jump\t// in\n    tag_18:\n      mload(0x40)\n      dup1\n      swap2\n      sub\n      swap1\n      revert\n    tag_17:\n        /* \"contracts/lesson8.1/04Create2.sol\":331:336  count */\n      0x00\n      0x00\n        /* \"contracts/lesson8.1/04Create2.sol\":331:338  count++ */\n      dup2\n      sload\n      dup1\n      swap3\n      swap2\n      swap1\n      tag_20\n      swap1\n      tag_21\n      jump\t// in\n    tag_20:\n      swap2\n      swap1\n      pop\n      sstore\n      pop\n        /* \"contracts/lesson8.1/04Create2.sol\":238:346  function increment() external {... */\n      jump\t// out\n        /* \"#utility.yul\":7:84   */\n    tag_22:\n        /* \"#utility.yul\":44:51   */\n      0x00\n        /* \"#utility.yul\":73:78   */\n      dup2\n        /* \"#utility.yul\":62:78   */\n      swap1\n      pop\n        /* \"#utility.yul\":7:84   */\n      swap2\n      swap1\n      pop\n      jump\t// out\n        /* \"#utility.yul\":90:208   */\n    tag_23:\n        /* \"#utility.yul\":177:201   */\n      tag_34\n        /* \"#utility.yul\":195:200   */\n      dup2\n        /* \"#utility.yul\":177:201   */\n      tag_22\n      jump\t// in\n    tag_34:\n        /* \"#utility.yul\":172:175   */\n      dup3\n        /* \"#utility.yul\":165:202   */\n      mstore\n        /* \"#utility.yul\":90:208   */\n      pop\n      pop\n      jump\t// out\n        /* \"#utility.yul\":214:436   */\n    tag_9:\n        /* \"#utility.yul\":307:311   */\n      0x00\n        /* \"#utility.yul\":345:347   */\n      0x20\n        /* \"#utility.yul\":334:343   */\n      dup3\n        /* \"#utility.yul\":330:348   */\n      add\n        /* \"#utility.yul\":322:348   */\n      swap1\n      pop\n        /* \"#utility.yul\":358:429   */\n      tag_36\n        /* \"#utility.yul\":426:427   */\n      0x00\n        /* \"#utility.yul\":415:424   */\n      dup4\n        /* \"#utility.yul\":411:428   */\n      add\n        /* \"#utility.yul\":402:408   */\n      dup5\n        /* \"#utility.yul\":358:429   */\n      tag_23\n      jump\t// in\n    tag_36:\n        /* \"#utility.yul\":214:436   */\n      swap3\n      swap2\n      pop\n      pop\n      jump\t// out\n        /* \"#utility.yul\":442:568   */\n    tag_24:\n        /* \"#utility.yul\":479:486   */\n      0x00\n        /* \"#utility.yul\":519:561   */\n      0xffffffffffffffffffffffffffffffffffffffff\n        /* \"#utility.yul\":512:517   */\n      dup3\n        /* \"#utility.yul\":508:562   */\n      and\n        /* \"#utility.yul\":497:562   */\n      swap1\n      pop\n        /* \"#utility.yul\":442:568   */\n      swap2\n      swap1\n      pop\n      jump\t// out\n        /* \"#utility.yul\":574:670   */\n    tag_25:\n        /* \"#utility.yul\":611:618   */\n      0x00\n        /* \"#utility.yul\":640:664   */\n      tag_39\n        /* \"#utility.yul\":658:663   */\n      dup3\n        /* \"#utility.yul\":640:664   */\n      tag_24\n      jump\t// in\n    tag_39:\n        /* \"#utility.yul\":629:664   */\n      swap1\n      pop\n        /* \"#utility.yul\":574:670   */\n      swap2\n      swap1\n      pop\n      jump\t// out\n        /* \"#utility.yul\":676:794   */\n    tag_26:\n        /* \"#utility.yul\":763:787   */\n      tag_41\n        /* \"#utility.yul\":781:786   */\n      dup2\n        /* \"#utility.yul\":763:787   */\n      tag_25\n      jump\t// in\n    tag_41:\n        /* \"#utility.yul\":758:761   */\n      dup3\n        /* \"#utility.yul\":751:788   */\n      mstore\n        /* \"#utility.yul\":676:794   */\n      pop\n      pop\n      jump\t// out\n        /* \"#utility.yul\":800:1022   */\n    tag_13:\n        /* \"#utility.yul\":893:897   */\n      0x00\n        /* \"#utility.yul\":931:933   */\n      0x20\n        /* \"#utility.yul\":920:929   */\n      dup3\n        /* \"#utility.yul\":916:934   */\n      add\n        /* \"#utility.yul\":908:934   */\n      swap1\n      pop\n        /* \"#utility.yul\":944:1015   */\n      tag_43\n        /* \"#utility.yul\":1012:1013   */\n      0x00\n        /* \"#utility.yul\":1001:1010   */\n      dup4\n        /* \"#utility.yul\":997:1014   */\n      add\n        /* \"#utility.yul\":988:994   */\n      dup5\n        /* \"#utility.yul\":944:1015   */\n      tag_26\n      jump\t// in\n    tag_43:\n        /* \"#utility.yul\":800:1022   */\n      swap3\n      swap2\n      pop\n      pop\n      jump\t// out\n        /* \"#utility.yul\":1028:1197   */\n    tag_27:\n        /* \"#utility.yul\":1112:1123   */\n      0x00\n        /* \"#utility.yul\":1146:1152   */\n      dup3\n        /* \"#utility.yul\":1141:1144   */\n      dup3\n        /* \"#utility.yul\":1134:1153   */\n      mstore\n        /* \"#utility.yul\":1186:1190   */\n      0x20\n        /* \"#utility.yul\":1181:1184   */\n      dup3\n        /* \"#utility.yul\":1177:1191   */\n      add\n        /* \"#utility.yul\":1162:1191   */\n      swap1\n      pop\n        /* \"#utility.yul\":1028:1197   */\n      swap3\n      swap2\n      pop\n      pop\n      jump\t// out\n        /* \"#utility.yul\":1203:1362   */\n    tag_28:\n        /* \"#utility.yul\":1343:1354   */\n      0x4e6f74206f776e65720000000000000000000000000000000000000000000000\n        /* \"#utility.yul\":1339:1340   */\n      0x00\n        /* \"#utility.yul\":1331:1337   */\n      dup3\n        /* \"#utility.yul\":1327:1341   */\n      add\n        /* \"#utility.yul\":1320:1355   */\n      mstore\n        /* \"#utility.yul\":1203:1362   */\n      pop\n      jump\t// out\n        /* \"#utility.yul\":1368:1733   */\n    tag_29:\n        /* \"#utility.yul\":1510:1513   */\n      0x00\n        /* \"#utility.yul\":1531:1597   */\n      tag_47\n        /* \"#utility.yul\":1595:1596   */\n      0x09\n        /* \"#utility.yul\":1590:1593   */\n      dup4\n        /* \"#utility.yul\":1531:1597   */\n      tag_27\n      jump\t// in\n    tag_47:\n        /* \"#utility.yul\":1524:1597   */\n      swap2\n      pop\n        /* \"#utility.yul\":1606:1699   */\n      tag_48\n        /* \"#utility.yul\":1695:1698   */\n      dup3\n        /* \"#utility.yul\":1606:1699   */\n      tag_28\n      jump\t// in\n    tag_48:\n        /* \"#utility.yul\":1724:1726   */\n      0x20\n        /* \"#utility.yul\":1719:1722   */\n      dup3\n        /* \"#utility.yul\":1715:1727   */\n      add\n        /* \"#utility.yul\":1708:1727   */\n      swap1\n      pop\n        /* \"#utility.yul\":1368:1733   */\n      swap2\n      swap1\n      pop\n      jump\t// out\n        /* \"#utility.yul\":1739:2158   */\n    tag_19:\n        /* \"#utility.yul\":1905:1909   */\n      0x00\n        /* \"#utility.yul\":1943:1945   */\n      0x20\n        /* \"#utility.yul\":1932:1941   */\n      dup3\n        /* \"#utility.yul\":1928:1946   */\n      add\n        /* \"#utility.yul\":1920:1946   */\n      swap1\n      pop\n        /* \"#utility.yul\":1992:2001   */\n      dup2\n        /* \"#utility.yul\":1986:1990   */\n      dup2\n        /* \"#utility.yul\":1982:2002   */\n      sub\n        /* \"#utility.yul\":1978:1979   */\n      0x00\n        /* \"#utility.yul\":1967:1976   */\n      dup4\n        /* \"#utility.yul\":1963:1980   */\n      add\n        /* \"#utility.yul\":1956:2003   */\n      mstore\n        /* \"#utility.yul\":2020:2151   */\n      tag_50\n        /* \"#utility.yul\":2146:2150   */\n      dup2\n        /* \"#utility.yul\":2020:2151   */\n      tag_29\n      jump\t// in\n    tag_50:\n        /* \"#utility.yul\":2012:2151   */\n      swap1\n      pop\n        /* \"#utility.yul\":1739:2158   */\n      swap2\n      swap1\n      pop\n      jump\t// out\n        /* \"#utility.yul\":2164:2344   */\n    tag_30:\n        /* \"#utility.yul\":2212:2289   */\n      0x4e487b7100000000000000000000000000000000000000000000000000000000\n        /* \"#utility.yul\":2209:2210   */\n      0x00\n        /* \"#utility.yul\":2202:2290   */\n      mstore\n        /* \"#utility.yul\":2309:2313   */\n      0x11\n        /* \"#utility.yul\":2306:2307   */\n      0x04\n        /* \"#utility.yul\":2299:2314   */\n      mstore\n        /* \"#utility.yul\":2333:2337   */\n      0x24\n        /* \"#utility.yul\":2330:2331   */\n      0x00\n        /* \"#utility.yul\":2323:2338   */\n      revert\n        /* \"#utility.yul\":2350:2583   */\n    tag_21:\n        /* \"#utility.yul\":2389:2392   */\n      0x00\n        /* \"#utility.yul\":2412:2436   */\n      tag_53\n        /* \"#utility.yul\":2430:2435   */\n      dup3\n        /* \"#utility.yul\":2412:2436   */\n      tag_22\n      jump\t// in\n    tag_53:\n        /* \"#utility.yul\":2403:2436   */\n      swap2\n      pop\n        /* \"#utility.yul\":2458:2524   */\n      0xffffffffffffffffffffffffffffffffffffffffffffffffffffffffffffffff\n        /* \"#utility.yul\":2451:2456   */\n      dup3\n        /* \"#utility.yul\":2448:2525   */\n      sub\n        /* \"#utility.yul\":2445:2548   */\n      tag_54\n      jumpi\n        /* \"#utility.yul\":2528:2546   */\n      tag_55\n      tag_30\n      jump\t// in\n    tag_55:\n        /* \"#utility.yul\":2445:2548   */\n    tag_54:\n        /* \"#utility.yul\":2575:2576   */\n      0x01\n        /* \"#utility.yul\":2568:2573   */\n      dup3\n        /* \"#utility.yul\":2564:2577   */\n      add\n        /* \"#utility.yul\":2557:2577   */\n      swap1\n      pop\n        /* \"#utility.yul\":2350:2583   */\n      swap2\n      swap1\n      pop\n      jump\t// out\n\n    auxdata: 0xa2646970667358221220c3aab14da609f8aae4f4e866ccd526e40aa792851966f660103df20f9886948664736f6c634300081e0033\n}\n",
				"bytecode": {
					"linkReferences": {},
					"object": "608060405234801561000f575f5ffd5b50604051610418380380610418833981810160405281019061003191906100db565b8060015f6101000a81548173ffffffffffffffffffffffffffffffffffffffff021916908373ffffffffffffffffffffffffffffffffffffffff1602179055505f5f8190555050610106565b5f5ffd5b5f73ffffffffffffffffffffffffffffffffffffffff82169050919050565b5f6100aa82610081565b9050919050565b6100ba816100a0565b81146100c4575f5ffd5b50565b5f815190506100d5816100b1565b92915050565b5f602082840312156100f0576100ef61007d565b5b5f6100fd848285016100c7565b91505092915050565b610305806101135f395ff3fe608060405234801561000f575f5ffd5b506004361061003f575f3560e01c806306661abd146100435780638da5cb5b14610061578063d09de08a1461007f575b5f5ffd5b61004b610089565b6040516100589190610172565b60405180910390f35b61006961008e565b60405161007691906101ca565b60405180910390f35b6100876100b3565b005b5f5481565b60015f9054906101000a900473ffffffffffffffffffffffffffffffffffffffff1681565b60015f9054906101000a900473ffffffffffffffffffffffffffffffffffffffff1673ffffffffffffffffffffffffffffffffffffffff163373ffffffffffffffffffffffffffffffffffffffff1614610142576040517f08c379a00000000000000000000000000000000000000000000000000000000081526004016101399061023d565b60405180910390fd5b5f5f81548092919061015390610288565b9190505550565b5f819050919050565b61016c8161015a565b82525050565b5f6020820190506101855f830184610163565b92915050565b5f73ffffffffffffffffffffffffffffffffffffffff82169050919050565b5f6101b48261018b565b9050919050565b6101c4816101aa565b82525050565b5f6020820190506101dd5f8301846101bb565b92915050565b5f82825260208201905092915050565b7f4e6f74206f776e657200000000000000000000000000000000000000000000005f82015250565b5f6102276009836101e3565b9150610232826101f3565b602082019050919050565b5f6020820190508181035f8301526102548161021b565b9050919050565b7f4e487b71000000000000000000000000000000000000000000000000000000005f52601160045260245ffd5b5f6102928261015a565b91507fffffffffffffffffffffffffffffffffffffffffffffffffffffffffffffffff82036102c4576102c361025b565b5b60018201905091905056fea2646970667358221220c3aab14da609f8aae4f4e866ccd526e40aa792851966f660103df20f9886948664736f6c634300081e0033",
					"opcodes": "PUSH1 0x80 PUSH1 0x40 MSTORE CALLVALUE DUP1 ISZERO PUSH2 0xF JUMPI PUSH0 PUSH0 REVERT JUMPDEST POP PUSH1 0x40 MLOAD PUSH2 0x418 CODESIZE SUB DUP1 PUSH2 0x418 DUP4 CODECOPY DUP2 DUP2 ADD PUSH1 0x40 MSTORE DUP2 ADD SWAP1 PUSH2 0x31 SWAP2 SWAP1 PUSH2 0xDB JUMP JUMPDEST DUP1 PUSH1 0x1 PUSH0 PUSH2 0x100 EXP DUP2 SLOAD DUP2 PUSH20 0xFFFFFFFFFFFFFFFFFFFFFFFFFFFFFFFFFFFFFFFF MUL NOT AND SWAP1 DUP4 PUSH20 0xFFFFFFFFFFFFFFFFFFFFFFFFFFFFFFFFFFFFFFFF AND MUL OR SWAP1 SSTORE POP PUSH0 PUSH0 DUP2 SWAP1 SSTORE POP POP PUSH2 0x106 JUMP JUMPDEST PUSH0 PUSH0 REVERT JUMPDEST PUSH0 PUSH20 0xFFFFFFFFFFFFFFFFFFFFFFFFFFFFFFFFFFFFFFFF DUP3 AND SWAP1 POP SWAP2 SWAP1 POP JUMP JUMPDEST PUSH0 PUSH2 0xAA DUP3 PUSH2 0x81 JUMP JUMPDEST SWAP1 POP SWAP2 SWAP1 POP JUMP JUMPDEST PUSH2 0xBA DUP2 PUSH2 0xA0 JUMP JUMPDEST DUP2 EQ PUSH2 0xC4 JUMPI PUSH0 PUSH0 REVERT JUMPDEST POP JUMP JUMPDEST PUSH0 DUP2 MLOAD SWAP1 POP PUSH2 0xD5 DUP2 PUSH2 0xB1 JUMP JUMPDEST SWAP3 SWAP2 POP POP JUMP JUMPDEST PUSH0 PUSH1 0x20 DUP3 DUP5 SUB SLT ISZERO PUSH2 0xF0 JUMPI PUSH2 0xEF PUSH2 0x7D JUMP JUMPDEST JUMPDEST PUSH0 PUSH2 0xFD DUP5 DUP3 DUP6 ADD PUSH2 0xC7 JUMP JUMPDEST SWAP2 POP POP SWAP3 SWAP2 POP POP JUMP JUMPDEST PUSH2 0x305 DUP1 PUSH2 0x113 PUSH0 CODECOPY PUSH0 RETURN INVALID PUSH1 0x80 PUSH1 0x40 MSTORE CALLVALUE DUP1 ISZERO PUSH2 0xF JUMPI PUSH0 PUSH0 REVERT JUMPDEST POP PUSH1 0x4 CALLDATASIZE LT PUSH2 0x3F JUMPI PUSH0 CALLDATALOAD PUSH1 0xE0 SHR DUP1 PUSH4 0x6661ABD EQ PUSH2 0x43 JUMPI DUP1 PUSH4 0x8DA5CB5B EQ PUSH2 0x61 JUMPI DUP1 PUSH4 0xD09DE08A EQ PUSH2 0x7F JUMPI JUMPDEST PUSH0 PUSH0 REVERT JUMPDEST PUSH2 0x4B PUSH2 0x89 JUMP JUMPDEST PUSH1 0x40 MLOAD PUSH2 0x58 SWAP2 SWAP1 PUSH2 0x172 JUMP JUMPDEST PUSH1 0x40 MLOAD DUP1 SWAP2 SUB SWAP1 RETURN JUMPDEST PUSH2 0x69 PUSH2 0x8E JUMP JUMPDEST PUSH1 0x40 MLOAD PUSH2 0x76 SWAP2 SWAP1 PUSH2 0x1CA JUMP JUMPDEST PUSH1 0x40 MLOAD DUP1 SWAP2 SUB SWAP1 RETURN JUMPDEST PUSH2 0x87 PUSH2 0xB3 JUMP JUMPDEST STOP JUMPDEST PUSH0 SLOAD DUP2 JUMP JUMPDEST PUSH1 0x1 PUSH0 SWAP1 SLOAD SWAP1 PUSH2 0x100 EXP SWAP1 DIV PUSH20 0xFFFFFFFFFFFFFFFFFFFFFFFFFFFFFFFFFFFFFFFF AND DUP2 JUMP JUMPDEST PUSH1 0x1 PUSH0 SWAP1 SLOAD SWAP1 PUSH2 0x100 EXP SWAP1 DIV PUSH20 0xFFFFFFFFFFFFFFFFFFFFFFFFFFFFFFFFFFFFFFFF AND PUSH20 0xFFFFFFFFFFFFFFFFFFFFFFFFFFFFFFFFFFFFFFFF AND CALLER PUSH20 0xFFFFFFFFFFFFFFFFFFFFFFFFFFFFFFFFFFFFFFFF AND EQ PUSH2 0x142 JUMPI PUSH1 0x40 MLOAD PUSH32 0x8C379A000000000000000000000000000000000000000000000000000000000 DUP2 MSTORE PUSH1 0x4 ADD PUSH2 0x139 SWAP1 PUSH2 0x23D JUMP JUMPDEST PUSH1 0x40 MLOAD DUP1 SWAP2 SUB SWAP1 REVERT JUMPDEST PUSH0 PUSH0 DUP2 SLOAD DUP1 SWAP3 SWAP2 SWAP1 PUSH2 0x153 SWAP1 PUSH2 0x288 JUMP JUMPDEST SWAP2 SWAP1 POP SSTORE POP JUMP JUMPDEST PUSH0 DUP2 SWAP1 POP SWAP2 SWAP1 POP JUMP JUMPDEST PUSH2 0x16C DUP2 PUSH2 0x15A JUMP JUMPDEST DUP3 MSTORE POP POP JUMP JUMPDEST PUSH0 PUSH1 0x20 DUP3 ADD SWAP1 POP PUSH2 0x185 PUSH0 DUP4 ADD DUP5 PUSH2 0x163 JUMP JUMPDEST SWAP3 SWAP2 POP POP JUMP JUMPDEST PUSH0 PUSH20 0xFFFFFFFFFFFFFFFFFFFFFFFFFFFFFFFFFFFFFFFF DUP3 AND SWAP1 POP SWAP2 SWAP1 POP JUMP JUMPDEST PUSH0 PUSH2 0x1B4 DUP3 PUSH2 0x18B JUMP JUMPDEST SWAP1 POP SWAP2 SWAP1 POP JUMP JUMPDEST PUSH2 0x1C4 DUP2 PUSH2 0x1AA JUMP JUMPDEST DUP3 MSTORE POP POP JUMP JUMPDEST PUSH0 PUSH1 0x20 DUP3 ADD SWAP1 POP PUSH2 0x1DD PUSH0 DUP4 ADD DUP5 PUSH2 0x1BB JUMP JUMPDEST SWAP3 SWAP2 POP POP JUMP JUMPDEST PUSH0 DUP3 DUP3 MSTORE PUSH1 0x20 DUP3 ADD SWAP1 POP SWAP3 SWAP2 POP POP JUMP JUMPDEST PUSH32 0x4E6F74206F776E65720000000000000000000000000000000000000000000000 PUSH0 DUP3 ADD MSTORE POP JUMP JUMPDEST PUSH0 PUSH2 0x227 PUSH1 0x9 DUP4 PUSH2 0x1E3 JUMP JUMPDEST SWAP2 POP PUSH2 0x232 DUP3 PUSH2 0x1F3 JUMP JUMPDEST PUSH1 0x20 DUP3 ADD SWAP1 POP SWAP2 SWAP1 POP JUMP JUMPDEST PUSH0 PUSH1 0x20 DUP3 ADD SWAP1 POP DUP2 DUP2 SUB PUSH0 DUP4 ADD MSTORE PUSH2 0x254 DUP2 PUSH2 0x21B JUMP JUMPDEST SWAP1 POP SWAP2 SWAP1 POP JUMP JUMPDEST PUSH32 0x4E487B7100000000000000000000000000000000000000000000000000000000 PUSH0 MSTORE PUSH1 0x11 PUSH1 0x4 MSTORE PUSH1 0x24 PUSH0 REVERT JUMPDEST PUSH0 PUSH2 0x292 DUP3 PUSH2 0x15A JUMP JUMPDEST SWAP2 POP PUSH32 0xFFFFFFFFFFFFFFFFFFFFFFFFFFFFFFFFFFFFFFFFFFFFFFFFFFFFFFFFFFFFFFFF DUP3 SUB PUSH2 0x2C4 JUMPI PUSH2 0x2C3 PUSH2 0x25B JUMP JUMPDEST JUMPDEST PUSH1 0x1 DUP3 ADD SWAP1 POP SWAP2 SWAP1 POP JUMP INVALID LOG2 PUSH5 0x6970667358 0x22 SLT KECCAK256 0xC3 0xAA 0xB1 0x4D 0xA6 MULMOD EXTCALL 0xAA RETF DELEGATECALL 0xE8 PUSH7 0xCCD526E40AA792 DUP6 NOT PUSH7 0xF660103DF20F98 DUP7 SWAP5 DUP7 PUSH5 0x736F6C6343 STOP ADDMOD 0x1E STOP CALLER "
				},
				"gasEstimates": {
					"creation": {
						"codeDepositCost": "154600",
						"executionCost": "infinite",
						"totalCost": "infinite"
					},
					"external": {
						"count()": "2402",
						"increment()": "26687",
						"owner()": "2508"
					}
				},
				"methodIdentifiers": {
					"count()": "06661abd",
					"increment()": "d09de08a",
					"owner()": "8da5cb5b"
				}
			},
			"storageLayout": {
				"storage": [
					{
						"astId": 3,
						"contract": "contracts/lesson8.1/04Create2.sol:Counter",
						"label": "count",
						"offset": 0,
						"slot": "0",
						"type": "t_uint256"
					},
					{
						"astId": 5,
						"contract": "contracts/lesson8.1/04Create2.sol:Counter",
						"label": "owner",
						"offset": 0,
						"slot": "1",
						"type": "t_address"
					}
				],
				"types": {
					"t_address": {
						"encoding": "inplace",
						"label": "address",
						"numberOfBytes": "20"
					},
					"t_uint256": {
						"encoding": "inplace",
						"label": "uint256",
						"numberOfBytes": "32"
					}
				}
			},
			"userdoc": {
				"kind": "user",
				"methods": {},
				"version": 1
			}
		}
	}
}