{
	"contracts/homework/01 ConvertStu.sol": {
		"ConvertStu": {
			"abi": [
				{
					"inputs": [
						{
							"internalType": "string",
							"name": "a",
							"type": "string"
						},
						{
							"internalType": "string",
							"name": "b",
							"type": "string"
						}
					],
					"name": "compareStrings",
					"outputs": [
						{
							"internalType": "bool",
							"name": "",
							"type": "bool"
						}
					],
					"stateMutability": "pure",
					"type": "function"
				},
				{
					"inputs": [
						{
							"internalType": "address",
							"name": "addr",
							"type": "address"
						}
					],
					"name": "isZeroAddress",
					"outputs": [
						{
							"internalType": "bool",
							"name": "",
							"type": "bool"
						}
					],
					"stateMutability": "pure",
					"type": "function"
				},
				{
					"inputs": [
						{
							"internalType": "uint256",
							"name": "value",
							"type": "uint256"
						}
					],
					"name": "safeConvertToUint8",
					"outputs": [
						{
							"internalType": "uint8",
							"name": "",
							"type": "uint8"
						}
					],
					"stateMutability": "pure",
					"type": "function"
				}
			],
			"devdoc": {
				"kind": "dev",
				"methods": {},
				"version": 1
			},
			"evm": {
				"assembly": "    /* \"contracts/homework/01 ConvertStu.sol\":59:798  contract ConvertStu {... */\n  mstore(0x40, 0x80)\n  callvalue\n  dup1\n  iszero\n  tag_1\n  jumpi\n  revert(0x00, 0x00)\ntag_1:\n  pop\n  dataSize(sub_0)\n  dup1\n  dataOffset(sub_0)\n  0x00\n  codecopy\n  0x00\n  return\nstop\n\nsub_0: assembly {\n        /* \"contracts/homework/01 ConvertStu.sol\":59:798  contract ConvertStu {... */\n      mstore(0x40, 0x80)\n      callvalue\n      dup1\n      iszero\n      tag_1\n      jumpi\n      revert(0x00, 0x00)\n    tag_1:\n      pop\n      jumpi(tag_2, lt(calldatasize, 0x04))\n      shr(0xe0, calldataload(0x00))\n      dup1\n      0x18664315\n      eq\n      tag_3\n      jumpi\n      dup1\n      0xbed34bba\n      eq\n      tag_4\n      jumpi\n      dup1\n      0xc612d08d\n      eq\n      tag_5\n      jumpi\n    tag_2:\n      revert(0x00, 0x00)\n        /* \"contracts/homework/01 ConvertStu.sol\":644:795  function isZeroAddress(address addr) public pure returns (bool) {... */\n    tag_3:\n      tag_6\n      0x04\n      dup1\n      calldatasize\n      sub\n      dup2\n      add\n      swap1\n      tag_7\n      swap2\n      swap1\n      tag_8\n      jump\t// in\n    tag_7:\n      tag_9\n      jump\t// in\n    tag_6:\n      mload(0x40)\n      tag_10\n      swap2\n      swap1\n      tag_11\n      jump\t// in\n    tag_10:\n      mload(0x40)\n      dup1\n      swap2\n      sub\n      swap1\n      return\n        /* \"contracts/homework/01 ConvertStu.sol\":394:636  function compareStrings(string memory a, string memory b) ... */\n    tag_4:\n      tag_12\n      0x04\n      dup1\n      calldatasize\n      sub\n      dup2\n      add\n      swap1\n      tag_13\n      swap2\n      swap1\n      tag_14\n      jump\t// in\n    tag_13:\n      tag_15\n      jump\t// in\n    tag_12:\n      mload(0x40)\n      tag_16\n      swap2\n      swap1\n      tag_11\n      jump\t// in\n    tag_16:\n      mload(0x40)\n      dup1\n      swap2\n      sub\n      swap1\n      return\n        /* \"contracts/homework/01 ConvertStu.sol\":86:388  function safeConvertToUint8(uint256 value) public pure returns (uint8) {... */\n    tag_5:\n      tag_17\n      0x04\n      dup1\n      calldatasize\n      sub\n      dup2\n      add\n      swap1\n      tag_18\n      swap2\n      swap1\n      tag_19\n      jump\t// in\n    tag_18:\n      tag_20\n      jump\t// in\n    tag_17:\n      mload(0x40)\n      tag_21\n      swap2\n      swap1\n      tag_22\n      jump\t// in\n    tag_21:\n      mload(0x40)\n      dup1\n      swap2\n      sub\n      swap1\n      return\n        /* \"contracts/homework/01 ConvertStu.sol\":644:795  function isZeroAddress(address addr) public pure returns (bool) {... */\n    tag_9:\n        /* \"contracts/homework/01 ConvertStu.sol\":702:706  bool */\n      0x00\n        /* \"contracts/homework/01 ConvertStu.sol\":785:786  0 */\n      0x00\n        /* \"contracts/homework/01 ConvertStu.sol\":769:787  addr == address(0) */\n      0xffffffffffffffffffffffffffffffffffffffff\n      and\n        /* \"contracts/homework/01 ConvertStu.sol\":769:773  addr */\n      dup3\n        /* \"contracts/homework/01 ConvertStu.sol\":769:787  addr == address(0) */\n      0xffffffffffffffffffffffffffffffffffffffff\n      and\n      eq\n        /* \"contracts/homework/01 ConvertStu.sol\":762:787  return addr == address(0) */\n      swap1\n      pop\n        /* \"contracts/homework/01 ConvertStu.sol\":644:795  function isZeroAddress(address addr) public pure returns (bool) {... */\n      swap2\n      swap1\n      pop\n      jump\t// out\n        /* \"contracts/homework/01 ConvertStu.sol\":394:636  function compareStrings(string memory a, string memory b) ... */\n    tag_15:\n        /* \"contracts/homework/01 ConvertStu.sol\":479:483  bool */\n      0x00\n        /* \"contracts/homework/01 ConvertStu.sol\":625:626  b */\n      dup2\n        /* \"contracts/homework/01 ConvertStu.sol\":609:628  keccak256(bytes(b)) */\n      dup1\n      mload\n      swap1\n      0x20\n      add\n      keccak256\n        /* \"contracts/homework/01 ConvertStu.sol\":602:603  a */\n      dup4\n        /* \"contracts/homework/01 ConvertStu.sol\":586:605  keccak256(bytes(a)) */\n      dup1\n      mload\n      swap1\n      0x20\n      add\n      keccak256\n        /* \"contracts/homework/01 ConvertStu.sol\":586:628  keccak256(bytes(a)) == keccak256(bytes(b)) */\n      eq\n        /* \"contracts/homework/01 ConvertStu.sol\":579:628  return keccak256(bytes(a)) == keccak256(bytes(b)) */\n      swap1\n      pop\n        /* \"contracts/homework/01 ConvertStu.sol\":394:636  function compareStrings(string memory a, string memory b) ... */\n      swap3\n      swap2\n      pop\n      pop\n      jump\t// out\n        /* \"contracts/homework/01 ConvertStu.sol\":86:388  function safeConvertToUint8(uint256 value) public pure returns (uint8) {... */\n    tag_20:\n        /* \"contracts/homework/01 ConvertStu.sol\":150:155  uint8 */\n      0x00\n        /* \"contracts/homework/01 ConvertStu.sol\":222:237  type(uint8).max */\n      0xff\n        /* \"contracts/homework/01 ConvertStu.sol\":213:237  value <= type(uint8).max */\n      dup1\n      and\n        /* \"contracts/homework/01 ConvertStu.sol\":213:218  value */\n      dup3\n        /* \"contracts/homework/01 ConvertStu.sol\":213:237  value <= type(uint8).max */\n      gt\n      iszero\n        /* \"contracts/homework/01 ConvertStu.sol\":205:267  require(value <= type(uint8).max, \"Value too large for uint8\") */\n      tag_26\n      jumpi\n      mload(0x40)\n      0x08c379a000000000000000000000000000000000000000000000000000000000\n      dup2\n      mstore\n      0x04\n      add\n      tag_27\n      swap1\n      tag_28\n      jump\t// in\n    tag_27:\n      mload(0x40)\n      dup1\n      swap2\n      sub\n      swap1\n      revert\n    tag_26:\n        /* \"contracts/homework/01 ConvertStu.sol\":363:368  value */\n      dup2\n        /* \"contracts/homework/01 ConvertStu.sol\":350:369  return uint8(value) */\n      swap1\n      pop\n        /* \"contracts/homework/01 ConvertStu.sol\":86:388  function safeConvertToUint8(uint256 value) public pure returns (uint8) {... */\n      swap2\n      swap1\n      pop\n      jump\t// out\n        /* \"#utility.yul\":7:82   */\n    tag_29:\n        /* \"#utility.yul\":40:46   */\n      0x00\n        /* \"#utility.yul\":73:75   */\n      0x40\n        /* \"#utility.yul\":67:76   */\n      mload\n        /* \"#utility.yul\":57:76   */\n      swap1\n      pop\n        /* \"#utility.yul\":7:82   */\n      swap1\n      jump\t// out\n        /* \"#utility.yul\":88:205   */\n    tag_30:\n        /* \"#utility.yul\":197:198   */\n      0x00\n        /* \"#utility.yul\":194:195   */\n      0x00\n        /* \"#utility.yul\":187:199   */\n      revert\n        /* \"#utility.yul\":211:328   */\n    tag_31:\n        /* \"#utility.yul\":320:321   */\n      0x00\n        /* \"#utility.yul\":317:318   */\n      0x00\n        /* \"#utility.yul\":310:322   */\n      revert\n        /* \"#utility.yul\":334:460   */\n    tag_32:\n        /* \"#utility.yul\":371:378   */\n      0x00\n        /* \"#utility.yul\":411:453   */\n      0xffffffffffffffffffffffffffffffffffffffff\n        /* \"#utility.yul\":404:409   */\n      dup3\n        /* \"#utility.yul\":400:454   */\n      and\n        /* \"#utility.yul\":389:454   */\n      swap1\n      pop\n        /* \"#utility.yul\":334:460   */\n      swap2\n      swap1\n      pop\n      jump\t// out\n        /* \"#utility.yul\":466:562   */\n    tag_33:\n        /* \"#utility.yul\":503:510   */\n      0x00\n        /* \"#utility.yul\":532:556   */\n      tag_62\n        /* \"#utility.yul\":550:555   */\n      dup3\n        /* \"#utility.yul\":532:556   */\n      tag_32\n      jump\t// in\n    tag_62:\n        /* \"#utility.yul\":521:556   */\n      swap1\n      pop\n        /* \"#utility.yul\":466:562   */\n      swap2\n      swap1\n      pop\n      jump\t// out\n        /* \"#utility.yul\":568:690   */\n    tag_34:\n        /* \"#utility.yul\":641:665   */\n      tag_64\n        /* \"#utility.yul\":659:664   */\n      dup2\n        /* \"#utility.yul\":641:665   */\n      tag_33\n      jump\t// in\n    tag_64:\n        /* \"#utility.yul\":634:639   */\n      dup2\n        /* \"#utility.yul\":631:666   */\n      eq\n        /* \"#utility.yul\":621:684   */\n      tag_65\n      jumpi\n        /* \"#utility.yul\":680:681   */\n      0x00\n        /* \"#utility.yul\":677:678   */\n      0x00\n        /* \"#utility.yul\":670:682   */\n      revert\n        /* \"#utility.yul\":621:684   */\n    tag_65:\n        /* \"#utility.yul\":568:690   */\n      pop\n      jump\t// out\n        /* \"#utility.yul\":696:835   */\n    tag_35:\n        /* \"#utility.yul\":742:747   */\n      0x00\n        /* \"#utility.yul\":780:786   */\n      dup2\n        /* \"#utility.yul\":767:787   */\n      calldataload\n        /* \"#utility.yul\":758:787   */\n      swap1\n      pop\n        /* \"#utility.yul\":796:829   */\n      tag_67\n        /* \"#utility.yul\":823:828   */\n      dup2\n        /* \"#utility.yul\":796:829   */\n      tag_34\n      jump\t// in\n    tag_67:\n        /* \"#utility.yul\":696:835   */\n      swap3\n      swap2\n      pop\n      pop\n      jump\t// out\n        /* \"#utility.yul\":841:1170   */\n    tag_8:\n        /* \"#utility.yul\":900:906   */\n      0x00\n        /* \"#utility.yul\":949:951   */\n      0x20\n        /* \"#utility.yul\":937:946   */\n      dup3\n        /* \"#utility.yul\":928:935   */\n      dup5\n        /* \"#utility.yul\":924:947   */\n      sub\n        /* \"#utility.yul\":920:952   */\n      slt\n        /* \"#utility.yul\":917:1036   */\n      iszero\n      tag_69\n      jumpi\n        /* \"#utility.yul\":955:1034   */\n      tag_70\n      tag_30\n      jump\t// in\n    tag_70:\n        /* \"#utility.yul\":917:1036   */\n    tag_69:\n        /* \"#utility.yul\":1075:1076   */\n      0x00\n        /* \"#utility.yul\":1100:1153   */\n      tag_71\n        /* \"#utility.yul\":1145:1152   */\n      dup5\n        /* \"#utility.yul\":1136:1142   */\n      dup3\n        /* \"#utility.yul\":1125:1134   */\n      dup6\n        /* \"#utility.yul\":1121:1143   */\n      add\n        /* \"#utility.yul\":1100:1153   */\n      tag_35\n      jump\t// in\n    tag_71:\n        /* \"#utility.yul\":1090:1153   */\n      swap2\n      pop\n        /* \"#utility.yul\":1046:1163   */\n      pop\n        /* \"#utility.yul\":841:1170   */\n      swap3\n      swap2\n      pop\n      pop\n      jump\t// out\n        /* \"#utility.yul\":1176:1266   */\n    tag_36:\n        /* \"#utility.yul\":1210:1217   */\n      0x00\n        /* \"#utility.yul\":1253:1258   */\n      dup2\n        /* \"#utility.yul\":1246:1259   */\n      iszero\n        /* \"#utility.yul\":1239:1260   */\n      iszero\n        /* \"#utility.yul\":1228:1260   */\n      swap1\n      pop\n        /* \"#utility.yul\":1176:1266   */\n      swap2\n      swap1\n      pop\n      jump\t// out\n        /* \"#utility.yul\":1272:1381   */\n    tag_37:\n        /* \"#utility.yul\":1353:1374   */\n      tag_74\n        /* \"#utility.yul\":1368:1373   */\n      dup2\n        /* \"#utility.yul\":1353:1374   */\n      tag_36\n      jump\t// in\n    tag_74:\n        /* \"#utility.yul\":1348:1351   */\n      dup3\n        /* \"#utility.yul\":1341:1375   */\n      mstore\n        /* \"#utility.yul\":1272:1381   */\n      pop\n      pop\n      jump\t// out\n        /* \"#utility.yul\":1387:1597   */\n    tag_11:\n        /* \"#utility.yul\":1474:1478   */\n      0x00\n        /* \"#utility.yul\":1512:1514   */\n      0x20\n        /* \"#utility.yul\":1501:1510   */\n      dup3\n        /* \"#utility.yul\":1497:1515   */\n      add\n        /* \"#utility.yul\":1489:1515   */\n      swap1\n      pop\n        /* \"#utility.yul\":1525:1590   */\n      tag_76\n        /* \"#utility.yul\":1587:1588   */\n      0x00\n        /* \"#utility.yul\":1576:1585   */\n      dup4\n        /* \"#utility.yul\":1572:1589   */\n      add\n        /* \"#utility.yul\":1563:1569   */\n      dup5\n        /* \"#utility.yul\":1525:1590   */\n      tag_37\n      jump\t// in\n    tag_76:\n        /* \"#utility.yul\":1387:1597   */\n      swap3\n      swap2\n      pop\n      pop\n      jump\t// out\n        /* \"#utility.yul\":1603:1720   */\n    tag_38:\n        /* \"#utility.yul\":1712:1713   */\n      0x00\n        /* \"#utility.yul\":1709:1710   */\n      0x00\n        /* \"#utility.yul\":1702:1714   */\n      revert\n        /* \"#utility.yul\":1726:1843   */\n    tag_39:\n        /* \"#utility.yul\":1835:1836   */\n      0x00\n        /* \"#utility.yul\":1832:1833   */\n      0x00\n        /* \"#utility.yul\":1825:1837   */\n      revert\n        /* \"#utility.yul\":1849:1951   */\n    tag_40:\n        /* \"#utility.yul\":1890:1896   */\n      0x00\n        /* \"#utility.yul\":1941:1943   */\n      0x1f\n        /* \"#utility.yul\":1937:1944   */\n      not\n        /* \"#utility.yul\":1932:1934   */\n      0x1f\n        /* \"#utility.yul\":1925:1930   */\n      dup4\n        /* \"#utility.yul\":1921:1935   */\n      add\n        /* \"#utility.yul\":1917:1945   */\n      and\n        /* \"#utility.yul\":1907:1945   */\n      swap1\n      pop\n        /* \"#utility.yul\":1849:1951   */\n      swap2\n      swap1\n      pop\n      jump\t// out\n        /* \"#utility.yul\":1957:2137   */\n    tag_41:\n        /* \"#utility.yul\":2005:2082   */\n      0x4e487b7100000000000000000000000000000000000000000000000000000000\n        /* \"#utility.yul\":2002:2003   */\n      0x00\n        /* \"#utility.yul\":1995:2083   */\n      mstore\n        /* \"#utility.yul\":2102:2106   */\n      0x41\n        /* \"#utility.yul\":2099:2100   */\n      0x04\n        /* \"#utility.yul\":2092:2107   */\n      mstore\n        /* \"#utility.yul\":2126:2130   */\n      0x24\n        /* \"#utility.yul\":2123:2124   */\n      0x00\n        /* \"#utility.yul\":2116:2131   */\n      revert\n        /* \"#utility.yul\":2143:2424   */\n    tag_42:\n        /* \"#utility.yul\":2226:2253   */\n      tag_82\n        /* \"#utility.yul\":2248:2252   */\n      dup3\n        /* \"#utility.yul\":2226:2253   */\n      tag_40\n      jump\t// in\n    tag_82:\n        /* \"#utility.yul\":2218:2224   */\n      dup2\n        /* \"#utility.yul\":2214:2254   */\n      add\n        /* \"#utility.yul\":2356:2362   */\n      dup2\n        /* \"#utility.yul\":2344:2354   */\n      dup2\n        /* \"#utility.yul\":2341:2363   */\n      lt\n        /* \"#utility.yul\":2320:2338   */\n      0xffffffffffffffff\n        /* \"#utility.yul\":2308:2318   */\n      dup3\n        /* \"#utility.yul\":2305:2339   */\n      gt\n        /* \"#utility.yul\":2302:2364   */\n      or\n        /* \"#utility.yul\":2299:2387   */\n      iszero\n      tag_83\n      jumpi\n        /* \"#utility.yul\":2367:2385   */\n      tag_84\n      tag_41\n      jump\t// in\n    tag_84:\n        /* \"#utility.yul\":2299:2387   */\n    tag_83:\n        /* \"#utility.yul\":2407:2417   */\n      dup1\n        /* \"#utility.yul\":2403:2405   */\n      0x40\n        /* \"#utility.yul\":2396:2418   */\n      mstore\n        /* \"#utility.yul\":2186:2424   */\n      pop\n        /* \"#utility.yul\":2143:2424   */\n      pop\n      pop\n      jump\t// out\n        /* \"#utility.yul\":2430:2559   */\n    tag_43:\n        /* \"#utility.yul\":2464:2470   */\n      0x00\n        /* \"#utility.yul\":2491:2511   */\n      tag_86\n      tag_29\n      jump\t// in\n    tag_86:\n        /* \"#utility.yul\":2481:2511   */\n      swap1\n      pop\n        /* \"#utility.yul\":2520:2553   */\n      tag_87\n        /* \"#utility.yul\":2548:2552   */\n      dup3\n        /* \"#utility.yul\":2540:2546   */\n      dup3\n        /* \"#utility.yul\":2520:2553   */\n      tag_42\n      jump\t// in\n    tag_87:\n        /* \"#utility.yul\":2430:2559   */\n      swap2\n      swap1\n      pop\n      jump\t// out\n        /* \"#utility.yul\":2565:2873   */\n    tag_44:\n        /* \"#utility.yul\":2627:2631   */\n      0x00\n        /* \"#utility.yul\":2717:2735   */\n      0xffffffffffffffff\n        /* \"#utility.yul\":2709:2715   */\n      dup3\n        /* \"#utility.yul\":2706:2736   */\n      gt\n        /* \"#utility.yul\":2703:2759   */\n      iszero\n      tag_89\n      jumpi\n        /* \"#utility.yul\":2739:2757   */\n      tag_90\n      tag_41\n      jump\t// in\n    tag_90:\n        /* \"#utility.yul\":2703:2759   */\n    tag_89:\n        /* \"#utility.yul\":2777:2806   */\n      tag_91\n        /* \"#utility.yul\":2799:2805   */\n      dup3\n        /* \"#utility.yul\":2777:2806   */\n      tag_40\n      jump\t// in\n    tag_91:\n        /* \"#utility.yul\":2769:2806   */\n      swap1\n      pop\n        /* \"#utility.yul\":2861:2865   */\n      0x20\n        /* \"#utility.yul\":2855:2859   */\n      dup2\n        /* \"#utility.yul\":2851:2866   */\n      add\n        /* \"#utility.yul\":2843:2866   */\n      swap1\n      pop\n        /* \"#utility.yul\":2565:2873   */\n      swap2\n      swap1\n      pop\n      jump\t// out\n        /* \"#utility.yul\":2879:3027   */\n    tag_45:\n        /* \"#utility.yul\":2977:2983   */\n      dup3\n        /* \"#utility.yul\":2972:2975   */\n      dup2\n        /* \"#utility.yul\":2967:2970   */\n      dup4\n        /* \"#utility.yul\":2954:2984   */\n      calldatacopy\n        /* \"#utility.yul\":3018:3019   */\n      0x00\n        /* \"#utility.yul\":3009:3015   */\n      dup4\n        /* \"#utility.yul\":3004:3007   */\n      dup4\n        /* \"#utility.yul\":3000:3016   */\n      add\n        /* \"#utility.yul\":2993:3020   */\n      mstore\n        /* \"#utility.yul\":2879:3027   */\n      pop\n      pop\n      pop\n      jump\t// out\n        /* \"#utility.yul\":3033:3458   */\n    tag_46:\n        /* \"#utility.yul\":3111:3116   */\n      0x00\n        /* \"#utility.yul\":3136:3202   */\n      tag_94\n        /* \"#utility.yul\":3152:3201   */\n      tag_95\n        /* \"#utility.yul\":3194:3200   */\n      dup5\n        /* \"#utility.yul\":3152:3201   */\n      tag_44\n      jump\t// in\n    tag_95:\n        /* \"#utility.yul\":3136:3202   */\n      tag_43\n      jump\t// in\n    tag_94:\n        /* \"#utility.yul\":3127:3202   */\n      swap1\n      pop\n        /* \"#utility.yul\":3225:3231   */\n      dup3\n        /* \"#utility.yul\":3218:3223   */\n      dup2\n        /* \"#utility.yul\":3211:3232   */\n      mstore\n        /* \"#utility.yul\":3263:3267   */\n      0x20\n        /* \"#utility.yul\":3256:3261   */\n      dup2\n        /* \"#utility.yul\":3252:3268   */\n      add\n        /* \"#utility.yul\":3301:3304   */\n      dup5\n        /* \"#utility.yul\":3292:3298   */\n      dup5\n        /* \"#utility.yul\":3287:3290   */\n      dup5\n        /* \"#utility.yul\":3283:3299   */\n      add\n        /* \"#utility.yul\":3280:3305   */\n      gt\n        /* \"#utility.yul\":3277:3389   */\n      iszero\n      tag_96\n      jumpi\n        /* \"#utility.yul\":3308:3387   */\n      tag_97\n      tag_39\n      jump\t// in\n    tag_97:\n        /* \"#utility.yul\":3277:3389   */\n    tag_96:\n        /* \"#utility.yul\":3398:3452   */\n      tag_98\n        /* \"#utility.yul\":3445:3451   */\n      dup5\n        /* \"#utility.yul\":3440:3443   */\n      dup3\n        /* \"#utility.yul\":3435:3438   */\n      dup6\n        /* \"#utility.yul\":3398:3452   */\n      tag_45\n      jump\t// in\n    tag_98:\n        /* \"#utility.yul\":3117:3458   */\n      pop\n        /* \"#utility.yul\":3033:3458   */\n      swap4\n      swap3\n      pop\n      pop\n      pop\n      jump\t// out\n        /* \"#utility.yul\":3478:3818   */\n    tag_47:\n        /* \"#utility.yul\":3534:3539   */\n      0x00\n        /* \"#utility.yul\":3583:3586   */\n      dup3\n        /* \"#utility.yul\":3576:3580   */\n      0x1f\n        /* \"#utility.yul\":3568:3574   */\n      dup4\n        /* \"#utility.yul\":3564:3581   */\n      add\n        /* \"#utility.yul\":3560:3587   */\n      slt\n        /* \"#utility.yul\":3550:3672   */\n      tag_100\n      jumpi\n        /* \"#utility.yul\":3591:3670   */\n      tag_101\n      tag_38\n      jump\t// in\n    tag_101:\n        /* \"#utility.yul\":3550:3672   */\n    tag_100:\n        /* \"#utility.yul\":3708:3714   */\n      dup2\n        /* \"#utility.yul\":3695:3715   */\n      calldataload\n        /* \"#utility.yul\":3733:3812   */\n      tag_102\n        /* \"#utility.yul\":3808:3811   */\n      dup5\n        /* \"#utility.yul\":3800:3806   */\n      dup3\n        /* \"#utility.yul\":3793:3797   */\n      0x20\n        /* \"#utility.yul\":3785:3791   */\n      dup7\n        /* \"#utility.yul\":3781:3798   */\n      add\n        /* \"#utility.yul\":3733:3812   */\n      tag_46\n      jump\t// in\n    tag_102:\n        /* \"#utility.yul\":3724:3812   */\n      swap2\n      pop\n        /* \"#utility.yul\":3540:3818   */\n      pop\n        /* \"#utility.yul\":3478:3818   */\n      swap3\n      swap2\n      pop\n      pop\n      jump\t// out\n        /* \"#utility.yul\":3824:4658   */\n    tag_14:\n        /* \"#utility.yul\":3912:3918   */\n      0x00\n        /* \"#utility.yul\":3920:3926   */\n      0x00\n        /* \"#utility.yul\":3969:3971   */\n      0x40\n        /* \"#utility.yul\":3957:3966   */\n      dup4\n        /* \"#utility.yul\":3948:3955   */\n      dup6\n        /* \"#utility.yul\":3944:3967   */\n      sub\n        /* \"#utility.yul\":3940:3972   */\n      slt\n        /* \"#utility.yul\":3937:4056   */\n      iszero\n      tag_104\n      jumpi\n        /* \"#utility.yul\":3975:4054   */\n      tag_105\n      tag_30\n      jump\t// in\n    tag_105:\n        /* \"#utility.yul\":3937:4056   */\n    tag_104:\n        /* \"#utility.yul\":4123:4124   */\n      0x00\n        /* \"#utility.yul\":4112:4121   */\n      dup4\n        /* \"#utility.yul\":4108:4125   */\n      add\n        /* \"#utility.yul\":4095:4126   */\n      calldataload\n        /* \"#utility.yul\":4153:4171   */\n      0xffffffffffffffff\n        /* \"#utility.yul\":4145:4151   */\n      dup2\n        /* \"#utility.yul\":4142:4172   */\n      gt\n        /* \"#utility.yul\":4139:4256   */\n      iszero\n      tag_106\n      jumpi\n        /* \"#utility.yul\":4175:4254   */\n      tag_107\n      tag_31\n      jump\t// in\n    tag_107:\n        /* \"#utility.yul\":4139:4256   */\n    tag_106:\n        /* \"#utility.yul\":4280:4343   */\n      tag_108\n        /* \"#utility.yul\":4335:4342   */\n      dup6\n        /* \"#utility.yul\":4326:4332   */\n      dup3\n        /* \"#utility.yul\":4315:4324   */\n      dup7\n        /* \"#utility.yul\":4311:4333   */\n      add\n        /* \"#utility.yul\":4280:4343   */\n      tag_47\n      jump\t// in\n    tag_108:\n        /* \"#utility.yul\":4270:4343   */\n      swap3\n      pop\n        /* \"#utility.yul\":4066:4353   */\n      pop\n        /* \"#utility.yul\":4420:4422   */\n      0x20\n        /* \"#utility.yul\":4409:4418   */\n      dup4\n        /* \"#utility.yul\":4405:4423   */\n      add\n        /* \"#utility.yul\":4392:4424   */\n      calldataload\n        /* \"#utility.yul\":4451:4469   */\n      0xffffffffffffffff\n        /* \"#utility.yul\":4443:4449   */\n      dup2\n        /* \"#utility.yul\":4440:4470   */\n      gt\n        /* \"#utility.yul\":4437:4554   */\n      iszero\n      tag_109\n      jumpi\n        /* \"#utility.yul\":4473:4552   */\n      tag_110\n      tag_31\n      jump\t// in\n    tag_110:\n        /* \"#utility.yul\":4437:4554   */\n    tag_109:\n        /* \"#utility.yul\":4578:4641   */\n      tag_111\n        /* \"#utility.yul\":4633:4640   */\n      dup6\n        /* \"#utility.yul\":4624:4630   */\n      dup3\n        /* \"#utility.yul\":4613:4622   */\n      dup7\n        /* \"#utility.yul\":4609:4631   */\n      add\n        /* \"#utility.yul\":4578:4641   */\n      tag_47\n      jump\t// in\n    tag_111:\n        /* \"#utility.yul\":4568:4641   */\n      swap2\n      pop\n        /* \"#utility.yul\":4363:4651   */\n      pop\n        /* \"#utility.yul\":3824:4658   */\n      swap3\n      pop\n      swap3\n      swap1\n      pop\n      jump\t// out\n        /* \"#utility.yul\":4664:4741   */\n    tag_48:\n        /* \"#utility.yul\":4701:4708   */\n      0x00\n        /* \"#utility.yul\":4730:4735   */\n      dup2\n        /* \"#utility.yul\":4719:4735   */\n      swap1\n      pop\n        /* \"#utility.yul\":4664:4741   */\n      swap2\n      swap1\n      pop\n      jump\t// out\n        /* \"#utility.yul\":4747:4869   */\n    tag_49:\n        /* \"#utility.yul\":4820:4844   */\n      tag_114\n        /* \"#utility.yul\":4838:4843   */\n      dup2\n        /* \"#utility.yul\":4820:4844   */\n      tag_48\n      jump\t// in\n    tag_114:\n        /* \"#utility.yul\":4813:4818   */\n      dup2\n        /* \"#utility.yul\":4810:4845   */\n      eq\n        /* \"#utility.yul\":4800:4863   */\n      tag_115\n      jumpi\n        /* \"#utility.yul\":4859:4860   */\n      0x00\n        /* \"#utility.yul\":4856:4857   */\n      0x00\n        /* \"#utility.yul\":4849:4861   */\n      revert\n        /* \"#utility.yul\":4800:4863   */\n    tag_115:\n        /* \"#utility.yul\":4747:4869   */\n      pop\n      jump\t// out\n        /* \"#utility.yul\":4875:5014   */\n    tag_50:\n        /* \"#utility.yul\":4921:4926   */\n      0x00\n        /* \"#utility.yul\":4959:4965   */\n      dup2\n        /* \"#utility.yul\":4946:4966   */\n      calldataload\n        /* \"#utility.yul\":4937:4966   */\n      swap1\n      pop\n        /* \"#utility.yul\":4975:5008   */\n      tag_117\n        /* \"#utility.yul\":5002:5007   */\n      dup2\n        /* \"#utility.yul\":4975:5008   */\n      tag_49\n      jump\t// in\n    tag_117:\n        /* \"#utility.yul\":4875:5014   */\n      swap3\n      swap2\n      pop\n      pop\n      jump\t// out\n        /* \"#utility.yul\":5020:5349   */\n    tag_19:\n        /* \"#utility.yul\":5079:5085   */\n      0x00\n        /* \"#utility.yul\":5128:5130   */\n      0x20\n        /* \"#utility.yul\":5116:5125   */\n      dup3\n        /* \"#utility.yul\":5107:5114   */\n      dup5\n        /* \"#utility.yul\":5103:5126   */\n      sub\n        /* \"#utility.yul\":5099:5131   */\n      slt\n        /* \"#utility.yul\":5096:5215   */\n      iszero\n      tag_119\n      jumpi\n        /* \"#utility.yul\":5134:5213   */\n      tag_120\n      tag_30\n      jump\t// in\n    tag_120:\n        /* \"#utility.yul\":5096:5215   */\n    tag_119:\n        /* \"#utility.yul\":5254:5255   */\n      0x00\n        /* \"#utility.yul\":5279:5332   */\n      tag_121\n        /* \"#utility.yul\":5324:5331   */\n      dup5\n        /* \"#utility.yul\":5315:5321   */\n      dup3\n        /* \"#utility.yul\":5304:5313   */\n      dup6\n        /* \"#utility.yul\":5300:5322   */\n      add\n        /* \"#utility.yul\":5279:5332   */\n      tag_50\n      jump\t// in\n    tag_121:\n        /* \"#utility.yul\":5269:5332   */\n      swap2\n      pop\n        /* \"#utility.yul\":5225:5342   */\n      pop\n        /* \"#utility.yul\":5020:5349   */\n      swap3\n      swap2\n      pop\n      pop\n      jump\t// out\n        /* \"#utility.yul\":5355:5441   */\n    tag_51:\n        /* \"#utility.yul\":5390:5397   */\n      0x00\n        /* \"#utility.yul\":5430:5434   */\n      0xff\n        /* \"#utility.yul\":5423:5428   */\n      dup3\n        /* \"#utility.yul\":5419:5435   */\n      and\n        /* \"#utility.yul\":5408:5435   */\n      swap1\n      pop\n        /* \"#utility.yul\":5355:5441   */\n      swap2\n      swap1\n      pop\n      jump\t// out\n        /* \"#utility.yul\":5447:5559   */\n    tag_52:\n        /* \"#utility.yul\":5530:5552   */\n      tag_124\n        /* \"#utility.yul\":5546:5551   */\n      dup2\n        /* \"#utility.yul\":5530:5552   */\n      tag_51\n      jump\t// in\n    tag_124:\n        /* \"#utility.yul\":5525:5528   */\n      dup3\n        /* \"#utility.yul\":5518:5553   */\n      mstore\n        /* \"#utility.yul\":5447:5559   */\n      pop\n      pop\n      jump\t// out\n        /* \"#utility.yul\":5565:5779   */\n    tag_22:\n        /* \"#utility.yul\":5654:5658   */\n      0x00\n        /* \"#utility.yul\":5692:5694   */\n      0x20\n        /* \"#utility.yul\":5681:5690   */\n      dup3\n        /* \"#utility.yul\":5677:5695   */\n      add\n        /* \"#utility.yul\":5669:5695   */\n      swap1\n      pop\n        /* \"#utility.yul\":5705:5772   */\n      tag_126\n        /* \"#utility.yul\":5769:5770   */\n      0x00\n        /* \"#utility.yul\":5758:5767   */\n      dup4\n        /* \"#utility.yul\":5754:5771   */\n      add\n        /* \"#utility.yul\":5745:5751   */\n      dup5\n        /* \"#utility.yul\":5705:5772   */\n      tag_52\n      jump\t// in\n    tag_126:\n        /* \"#utility.yul\":5565:5779   */\n      swap3\n      swap2\n      pop\n      pop\n      jump\t// out\n        /* \"#utility.yul\":5785:5954   */\n    tag_53:\n        /* \"#utility.yul\":5869:5880   */\n      0x00\n        /* \"#utility.yul\":5903:5909   */\n      dup3\n        /* \"#utility.yul\":5898:5901   */\n      dup3\n        /* \"#utility.yul\":5891:5910   */\n      mstore\n        /* \"#utility.yul\":5943:5947   */\n      0x20\n        /* \"#utility.yul\":5938:5941   */\n      dup3\n        /* \"#utility.yul\":5934:5948   */\n      add\n        /* \"#utility.yul\":5919:5948   */\n      swap1\n      pop\n        /* \"#utility.yul\":5785:5954   */\n      swap3\n      swap2\n      pop\n      pop\n      jump\t// out\n        /* \"#utility.yul\":5960:6135   */\n    tag_54:\n        /* \"#utility.yul\":6100:6127   */\n      0x56616c756520746f6f206c6172676520666f722075696e743800000000000000\n        /* \"#utility.yul\":6096:6097   */\n      0x00\n        /* \"#utility.yul\":6088:6094   */\n      dup3\n        /* \"#utility.yul\":6084:6098   */\n      add\n        /* \"#utility.yul\":6077:6128   */\n      mstore\n        /* \"#utility.yul\":5960:6135   */\n      pop\n      jump\t// out\n        /* \"#utility.yul\":6141:6507   */\n    tag_55:\n        /* \"#utility.yul\":6283:6286   */\n      0x00\n        /* \"#utility.yul\":6304:6371   */\n      tag_130\n        /* \"#utility.yul\":6368:6370   */\n      0x19\n        /* \"#utility.yul\":6363:6366   */\n      dup4\n        /* \"#utility.yul\":6304:6371   */\n      tag_53\n      jump\t// in\n    tag_130:\n        /* \"#utility.yul\":6297:6371   */\n      swap2\n      pop\n        /* \"#utility.yul\":6380:6473   */\n      tag_131\n        /* \"#utility.yul\":6469:6472   */\n      dup3\n        /* \"#utility.yul\":6380:6473   */\n      tag_54\n      jump\t// in\n    tag_131:\n        /* \"#utility.yul\":6498:6500   */\n      0x20\n        /* \"#utility.yul\":6493:6496   */\n      dup3\n        /* \"#utility.yul\":6489:6501   */\n      add\n        /* \"#utility.yul\":6482:6501   */\n      swap1\n      pop\n        /* \"#utility.yul\":6141:6507   */\n      swap2\n      swap1\n      pop\n      jump\t// out\n        /* \"#utility.yul\":6513:6932   */\n    tag_28:\n        /* \"#utility.yul\":6679:6683   */\n      0x00\n        /* \"#utility.yul\":6717:6719   */\n      0x20\n        /* \"#utility.yul\":6706:6715   */\n      dup3\n        /* \"#utility.yul\":6702:6720   */\n      add\n        /* \"#utility.yul\":6694:6720   */\n      swap1\n      pop\n        /* \"#utility.yul\":6766:6775   */\n      dup2\n        /* \"#utility.yul\":6760:6764   */\n      dup2\n        /* \"#utility.yul\":6756:6776   */\n      sub\n        /* \"#utility.yul\":6752:6753   */\n      0x00\n        /* \"#utility.yul\":6741:6750   */\n      dup4\n        /* \"#utility.yul\":6737:6754   */\n      add\n        /* \"#utility.yul\":6730:6777   */\n      mstore\n        /* \"#utility.yul\":6794:6925   */\n      tag_133\n        /* \"#utility.yul\":6920:6924   */\n      dup2\n        /* \"#utility.yul\":6794:6925   */\n      tag_55\n      jump\t// in\n    tag_133:\n        /* \"#utility.yul\":6786:6925   */\n      swap1\n      pop\n        /* \"#utility.yul\":6513:6932   */\n      swap2\n      swap1\n      pop\n      jump\t// out\n\n    auxdata: 0xa264697066735822122010516c6ddba3a098ad16f4b47ad1d785675aac45b5b736111a9830da3519fe8f64736f6c634300081f0033\n}\n",
				"bytecode": {
					"linkReferences": {},
					"object": "6080604052348015600e575f5ffd5b5061052e8061001c5f395ff3fe608060405234801561000f575f5ffd5b506004361061003f575f3560e01c80631866431514610043578063bed34bba14610073578063c612d08d146100a3575b5f5ffd5b61005d600480360381019061005891906101de565b6100d3565b60405161006a9190610223565b60405180910390f35b61008d60048036038101906100889190610378565b61010a565b60405161009a9190610223565b60405180910390f35b6100bd60048036038101906100b89190610421565b610124565b6040516100ca9190610467565b60405180910390f35b5f5f73ffffffffffffffffffffffffffffffffffffffff168273ffffffffffffffffffffffffffffffffffffffff16149050919050565b5f8180519060200120838051906020012014905092915050565b5f60ff801682111561016b576040517f08c379a0000000000000000000000000000000000000000000000000000000008152600401610162906104da565b60405180910390fd5b819050919050565b5f604051905090565b5f5ffd5b5f5ffd5b5f73ffffffffffffffffffffffffffffffffffffffff82169050919050565b5f6101ad82610184565b9050919050565b6101bd816101a3565b81146101c7575f5ffd5b50565b5f813590506101d8816101b4565b92915050565b5f602082840312156101f3576101f261017c565b5b5f610200848285016101ca565b91505092915050565b5f8115159050919050565b61021d81610209565b82525050565b5f6020820190506102365f830184610214565b92915050565b5f5ffd5b5f5ffd5b5f601f19601f8301169050919050565b7f4e487b71000000000000000000000000000000000000000000000000000000005f52604160045260245ffd5b61028a82610244565b810181811067ffffffffffffffff821117156102a9576102a8610254565b5b80604052505050565b5f6102bb610173565b90506102c78282610281565b919050565b5f67ffffffffffffffff8211156102e6576102e5610254565b5b6102ef82610244565b9050602081019050919050565b828183375f83830152505050565b5f61031c610317846102cc565b6102b2565b90508281526020810184848401111561033857610337610240565b5b6103438482856102fc565b509392505050565b5f82601f83011261035f5761035e61023c565b5b813561036f84826020860161030a565b91505092915050565b5f5f6040838503121561038e5761038d61017c565b5b5f83013567ffffffffffffffff8111156103ab576103aa610180565b5b6103b78582860161034b565b925050602083013567ffffffffffffffff8111156103d8576103d7610180565b5b6103e48582860161034b565b9150509250929050565b5f819050919050565b610400816103ee565b811461040a575f5ffd5b50565b5f8135905061041b816103f7565b92915050565b5f602082840312156104365761043561017c565b5b5f6104438482850161040d565b91505092915050565b5f60ff82169050919050565b6104618161044c565b82525050565b5f60208201905061047a5f830184610458565b92915050565b5f82825260208201905092915050565b7f56616c756520746f6f206c6172676520666f722075696e7438000000000000005f82015250565b5f6104c4601983610480565b91506104cf82610490565b602082019050919050565b5f6020820190508181035f8301526104f1816104b8565b905091905056fea264697066735822122010516c6ddba3a098ad16f4b47ad1d785675aac45b5b736111a9830da3519fe8f64736f6c634300081f0033",
					"opcodes": "PUSH1 0x80 PUSH1 0x40 MSTORE CALLVALUE DUP1 ISZERO PUSH1 0xE JUMPI PUSH0 PUSH0 REVERT JUMPDEST POP PUSH2 0x52E DUP1 PUSH2 0x1C PUSH0 CODECOPY PUSH0 RETURN INVALID PUSH1 0x80 PUSH1 0x40 MSTORE CALLVALUE DUP1 ISZERO PUSH2 0xF JUMPI PUSH0 PUSH0 REVERT JUMPDEST POP PUSH1 0x4 CALLDATASIZE LT PUSH2 0x3F JUMPI PUSH0 CALLDATALOAD PUSH1 0xE0 SHR DUP1 PUSH4 0x18664315 EQ PUSH2 0x43 JUMPI DUP1 PUSH4 0xBED34BBA EQ PUSH2 0x73 JUMPI DUP1 PUSH4 0xC612D08D EQ PUSH2 0xA3 JUMPI JUMPDEST PUSH0 PUSH0 REVERT JUMPDEST PUSH2 0x5D PUSH1 0x4 DUP1 CALLDATASIZE SUB DUP2 ADD SWAP1 PUSH2 0x58 SWAP2 SWAP1 PUSH2 0x1DE JUMP JUMPDEST PUSH2 0xD3 JUMP JUMPDEST PUSH1 0x40 MLOAD PUSH2 0x6A SWAP2 SWAP1 PUSH2 0x223 JUMP JUMPDEST PUSH1 0x40 MLOAD DUP1 SWAP2 SUB SWAP1 RETURN JUMPDEST PUSH2 0x8D PUSH1 0x4 DUP1 CALLDATASIZE SUB DUP2 ADD SWAP1 PUSH2 0x88 SWAP2 SWAP1 PUSH2 0x378 JUMP JUMPDEST PUSH2 0x10A JUMP JUMPDEST PUSH1 0x40 MLOAD PUSH2 0x9A SWAP2 SWAP1 PUSH2 0x223 JUMP JUMPDEST PUSH1 0x40 MLOAD DUP1 SWAP2 SUB SWAP1 RETURN JUMPDEST PUSH2 0xBD PUSH1 0x4 DUP1 CALLDATASIZE SUB DUP2 ADD SWAP1 PUSH2 0xB8 SWAP2 SWAP1 PUSH2 0x421 JUMP JUMPDEST PUSH2 0x124 JUMP JUMPDEST PUSH1 0x40 MLOAD PUSH2 0xCA SWAP2 SWAP1 PUSH2 0x467 JUMP JUMPDEST PUSH1 0x40 MLOAD DUP1 SWAP2 SUB SWAP1 RETURN JUMPDEST PUSH0 PUSH0 PUSH20 0xFFFFFFFFFFFFFFFFFFFFFFFFFFFFFFFFFFFFFFFF AND DUP3 PUSH20 0xFFFFFFFFFFFFFFFFFFFFFFFFFFFFFFFFFFFFFFFF AND EQ SWAP1 POP SWAP2 SWAP1 POP JUMP JUMPDEST PUSH0 DUP2 DUP1 MLOAD SWAP1 PUSH1 0x20 ADD KECCAK256 DUP4 DUP1 MLOAD SWAP1 PUSH1 0x20 ADD KECCAK256 EQ SWAP1 POP SWAP3 SWAP2 POP POP JUMP JUMPDEST PUSH0 PUSH1 0xFF DUP1 AND DUP3 GT ISZERO PUSH2 0x16B JUMPI PUSH1 0x40 MLOAD PUSH32 0x8C379A000000000000000000000000000000000000000000000000000000000 DUP2 MSTORE PUSH1 0x4 ADD PUSH2 0x162 SWAP1 PUSH2 0x4DA JUMP JUMPDEST PUSH1 0x40 MLOAD DUP1 SWAP2 SUB SWAP1 REVERT JUMPDEST DUP2 SWAP1 POP SWAP2 SWAP1 POP JUMP JUMPDEST PUSH0 PUSH1 0x40 MLOAD SWAP1 POP SWAP1 JUMP JUMPDEST PUSH0 PUSH0 REVERT JUMPDEST PUSH0 PUSH0 REVERT JUMPDEST PUSH0 PUSH20 0xFFFFFFFFFFFFFFFFFFFFFFFFFFFFFFFFFFFFFFFF DUP3 AND SWAP1 POP SWAP2 SWAP1 POP JUMP JUMPDEST PUSH0 PUSH2 0x1AD DUP3 PUSH2 0x184 JUMP JUMPDEST SWAP1 POP SWAP2 SWAP1 POP JUMP JUMPDEST PUSH2 0x1BD DUP2 PUSH2 0x1A3 JUMP JUMPDEST DUP2 EQ PUSH2 0x1C7 JUMPI PUSH0 PUSH0 REVERT JUMPDEST POP JUMP JUMPDEST PUSH0 DUP2 CALLDATALOAD SWAP1 POP PUSH2 0x1D8 DUP2 PUSH2 0x1B4 JUMP JUMPDEST SWAP3 SWAP2 POP POP JUMP JUMPDEST PUSH0 PUSH1 0x20 DUP3 DUP5 SUB SLT ISZERO PUSH2 0x1F3 JUMPI PUSH2 0x1F2 PUSH2 0x17C JUMP JUMPDEST JUMPDEST PUSH0 PUSH2 0x200 DUP5 DUP3 DUP6 ADD PUSH2 0x1CA JUMP JUMPDEST SWAP2 POP POP SWAP3 SWAP2 POP POP JUMP JUMPDEST PUSH0 DUP2 ISZERO ISZERO SWAP1 POP SWAP2 SWAP1 POP JUMP JUMPDEST PUSH2 0x21D DUP2 PUSH2 0x209 JUMP JUMPDEST DUP3 MSTORE POP POP JUMP JUMPDEST PUSH0 PUSH1 0x20 DUP3 ADD SWAP1 POP PUSH2 0x236 PUSH0 DUP4 ADD DUP5 PUSH2 0x214 JUMP JUMPDEST SWAP3 SWAP2 POP POP JUMP JUMPDEST PUSH0 PUSH0 REVERT JUMPDEST PUSH0 PUSH0 REVERT JUMPDEST PUSH0 PUSH1 0x1F NOT PUSH1 0x1F DUP4 ADD AND SWAP1 POP SWAP2 SWAP1 POP JUMP JUMPDEST PUSH32 0x4E487B7100000000000000000000000000000000000000000000000000000000 PUSH0 MSTORE PUSH1 0x41 PUSH1 0x4 MSTORE PUSH1 0x24 PUSH0 REVERT JUMPDEST PUSH2 0x28A DUP3 PUSH2 0x244 JUMP JUMPDEST DUP2 ADD DUP2 DUP2 LT PUSH8 0xFFFFFFFFFFFFFFFF DUP3 GT OR ISZERO PUSH2 0x2A9 JUMPI PUSH2 0x2A8 PUSH2 0x254 JUMP JUMPDEST JUMPDEST DUP1 PUSH1 0x40 MSTORE POP POP POP JUMP JUMPDEST PUSH0 PUSH2 0x2BB PUSH2 0x173 JUMP JUMPDEST SWAP1 POP PUSH2 0x2C7 DUP3 DUP3 PUSH2 0x281 JUMP JUMPDEST SWAP2 SWAP1 POP JUMP JUMPDEST PUSH0 PUSH8 0xFFFFFFFFFFFFFFFF DUP3 GT ISZERO PUSH2 0x2E6 JUMPI PUSH2 0x2E5 PUSH2 0x254 JUMP JUMPDEST JUMPDEST PUSH2 0x2EF DUP3 PUSH2 0x244 JUMP JUMPDEST SWAP1 POP PUSH1 0x20 DUP2 ADD SWAP1 POP SWAP2 SWAP1 POP JUMP JUMPDEST DUP3 DUP2 DUP4 CALLDATACOPY PUSH0 DUP4 DUP4 ADD MSTORE POP POP POP JUMP JUMPDEST PUSH0 PUSH2 0x31C PUSH2 0x317 DUP5 PUSH2 0x2CC JUMP JUMPDEST PUSH2 0x2B2 JUMP JUMPDEST SWAP1 POP DUP3 DUP2 MSTORE PUSH1 0x20 DUP2 ADD DUP5 DUP5 DUP5 ADD GT ISZERO PUSH2 0x338 JUMPI PUSH2 0x337 PUSH2 0x240 JUMP JUMPDEST JUMPDEST PUSH2 0x343 DUP5 DUP3 DUP6 PUSH2 0x2FC JUMP JUMPDEST POP SWAP4 SWAP3 POP POP POP JUMP JUMPDEST PUSH0 DUP3 PUSH1 0x1F DUP4 ADD SLT PUSH2 0x35F JUMPI PUSH2 0x35E PUSH2 0x23C JUMP JUMPDEST JUMPDEST DUP2 CALLDATALOAD PUSH2 0x36F DUP5 DUP3 PUSH1 0x20 DUP7 ADD PUSH2 0x30A JUMP JUMPDEST SWAP2 POP POP SWAP3 SWAP2 POP POP JUMP JUMPDEST PUSH0 PUSH0 PUSH1 0x40 DUP4 DUP6 SUB SLT ISZERO PUSH2 0x38E JUMPI PUSH2 0x38D PUSH2 0x17C JUMP JUMPDEST JUMPDEST PUSH0 DUP4 ADD CALLDATALOAD PUSH8 0xFFFFFFFFFFFFFFFF DUP2 GT ISZERO PUSH2 0x3AB JUMPI PUSH2 0x3AA PUSH2 0x180 JUMP JUMPDEST JUMPDEST PUSH2 0x3B7 DUP6 DUP3 DUP7 ADD PUSH2 0x34B JUMP JUMPDEST SWAP3 POP POP PUSH1 0x20 DUP4 ADD CALLDATALOAD PUSH8 0xFFFFFFFFFFFFFFFF DUP2 GT ISZERO PUSH2 0x3D8 JUMPI PUSH2 0x3D7 PUSH2 0x180 JUMP JUMPDEST JUMPDEST PUSH2 0x3E4 DUP6 DUP3 DUP7 ADD PUSH2 0x34B JUMP JUMPDEST SWAP2 POP POP SWAP3 POP SWAP3 SWAP1 POP JUMP JUMPDEST PUSH0 DUP2 SWAP1 POP SWAP2 SWAP1 POP JUMP JUMPDEST PUSH2 0x400 DUP2 PUSH2 0x3EE JUMP JUMPDEST DUP2 EQ PUSH2 0x40A JUMPI PUSH0 PUSH0 REVERT JUMPDEST POP JUMP JUMPDEST PUSH0 DUP2 CALLDATALOAD SWAP1 POP PUSH2 0x41B DUP2 PUSH2 0x3F7 JUMP JUMPDEST SWAP3 SWAP2 POP POP JUMP JUMPDEST PUSH0 PUSH1 0x20 DUP3 DUP5 SUB SLT ISZERO PUSH2 0x436 JUMPI PUSH2 0x435 PUSH2 0x17C JUMP JUMPDEST JUMPDEST PUSH0 PUSH2 0x443 DUP5 DUP3 DUP6 ADD PUSH2 0x40D JUMP JUMPDEST SWAP2 POP POP SWAP3 SWAP2 POP POP JUMP JUMPDEST PUSH0 PUSH1 0xFF DUP3 AND SWAP1 POP SWAP2 SWAP1 POP JUMP JUMPDEST PUSH2 0x461 DUP2 PUSH2 0x44C JUMP JUMPDEST DUP3 MSTORE POP POP JUMP JUMPDEST PUSH0 PUSH1 0x20 DUP3 ADD SWAP1 POP PUSH2 0x47A PUSH0 DUP4 ADD DUP5 PUSH2 0x458 JUMP JUMPDEST SWAP3 SWAP2 POP POP JUMP JUMPDEST PUSH0 DUP3 DUP3 MSTORE PUSH1 0x20 DUP3 ADD SWAP1 POP SWAP3 SWAP2 POP POP JUMP JUMPDEST PUSH32 0x56616C756520746F6F206C6172676520666F722075696E743800000000000000 PUSH0 DUP3 ADD MSTORE POP JUMP JUMPDEST PUSH0 PUSH2 0x4C4 PUSH1 0x19 DUP4 PUSH2 0x480 JUMP JUMPDEST SWAP2 POP PUSH2 0x4CF DUP3 PUSH2 0x490 JUMP JUMPDEST PUSH1 0x20 DUP3 ADD SWAP1 POP SWAP2 SWAP1 POP JUMP JUMPDEST PUSH0 PUSH1 0x20 DUP3 ADD SWAP1 POP DUP2 DUP2 SUB PUSH0 DUP4 ADD MSTORE PUSH2 0x4F1 DUP2 PUSH2 0x4B8 JUMP JUMPDEST SWAP1 POP SWAP2 SWAP1 POP JUMP INVALID LOG2 PUSH5 0x6970667358 0x22 SLT KECCAK256 LT MLOAD PUSH13 0x6DDBA3A098AD16F4B47AD1D785 PUSH8 0x5AAC45B5B736111A SWAP9 ADDRESS 0xDA CALLDATALOAD NOT INVALID DUP16 PUSH5 0x736F6C6343 STOP ADDMOD 0x1F STOP CALLER "
				},
				"gasEstimates": {
					"creation": {
						"codeDepositCost": "265200",
						"executionCost": "304",
						"totalCost": "265504"
					},
					"external": {
						"compareStrings(string,string)": "infinite",
						"isZeroAddress(address)": "642",
						"safeConvertToUint8(uint256)": "739"
					}
				},
				"methodIdentifiers": {
					"compareStrings(string,string)": "bed34bba",
					"isZeroAddress(address)": "18664315",
					"safeConvertToUint8(uint256)": "c612d08d"
				}
			},
			"storageLayout": {
				"storage": [],
				"types": null
			},
			"userdoc": {
				"kind": "user",
				"methods": {},
				"version": 1
			}
		}
	}
}