{
	"contracts/VotingSystem.sol": {
		"VotingSystem": {
			"abi": [
				{
					"inputs": [],
					"name": "abstainCount",
					"outputs": [
						{
							"internalType": "uint256",
							"name": "",
							"type": "uint256"
						}
					],
					"stateMutability": "view",
					"type": "function"
				},
				{
					"inputs": [],
					"name": "getMyVote",
					"outputs": [
						{
							"internalType": "enum VotingSystem.Vote",
							"name": "",
							"type": "uint8"
						}
					],
					"stateMutability": "view",
					"type": "function"
				},
				{
					"inputs": [],
					"name": "getResults",
					"outputs": [
						{
							"internalType": "uint256",
							"name": "",
							"type": "uint256"
						},
						{
							"internalType": "uint256",
							"name": "",
							"type": "uint256"
						},
						{
							"internalType": "uint256",
							"name": "",
							"type": "uint256"
						}
					],
					"stateMutability": "view",
					"type": "function"
				},
				{
					"inputs": [
						{
							"internalType": "address",
							"name": "",
							"type": "address"
						}
					],
					"name": "hasVoted",
					"outputs": [
						{
							"internalType": "bool",
							"name": "",
							"type": "bool"
						}
					],
					"stateMutability": "view",
					"type": "function"
				},
				{
					"inputs": [],
					"name": "noCount",
					"outputs": [
						{
							"internalType": "uint256",
							"name": "",
							"type": "uint256"
						}
					],
					"stateMutability": "view",
					"type": "function"
				},
				{
					"inputs": [
						{
							"internalType": "enum VotingSystem.Vote",
							"name": "_vote",
							"type": "uint8"
						}
					],
					"name": "vote",
					"outputs": [],
					"stateMutability": "nonpayable",
					"type": "function"
				},
				{
					"inputs": [
						{
							"internalType": "address",
							"name": "",
							"type": "address"
						}
					],
					"name": "votes",
					"outputs": [
						{
							"internalType": "enum VotingSystem.Vote",
							"name": "",
							"type": "uint8"
						}
					],
					"stateMutability": "view",
					"type": "function"
				},
				{
					"inputs": [],
					"name": "yesCount",
					"outputs": [
						{
							"internalType": "uint256",
							"name": "",
							"type": "uint256"
						}
					],
					"stateMutability": "view",
					"type": "function"
				}
			],
			"devdoc": {
				"kind": "dev",
				"methods": {},
				"version": 1
			},
			"evm": {
				"assembly": "    /* \"contracts/VotingSystem.sol\":59:1134  contract VotingSystem {... */\n  mstore(0x40, 0x80)\n  callvalue\n  dup1\n  iszero\n  tag_1\n  jumpi\n  revert(0x00, 0x00)\ntag_1:\n  pop\n  dataSize(sub_0)\n  dup1\n  dataOffset(sub_0)\n  0x00\n  codecopy\n  0x00\n  return\nstop\n\nsub_0: assembly {\n        /* \"contracts/VotingSystem.sol\":59:1134  contract VotingSystem {... */\n      mstore(0x40, 0x80)\n      callvalue\n      dup1\n      iszero\n      tag_1\n      jumpi\n      revert(0x00, 0x00)\n    tag_1:\n      pop\n      jumpi(tag_2, lt(calldatasize, 0x04))\n      shr(0xe0, calldataload(0x00))\n      dup1\n      0x8cb647d3\n      gt\n      tag_11\n      jumpi\n      dup1\n      0x8cb647d3\n      eq\n      tag_7\n      jumpi\n      dup1\n      0xa2fcbad7\n      eq\n      tag_8\n      jumpi\n      dup1\n      0xb3f98adc\n      eq\n      tag_9\n      jumpi\n      dup1\n      0xd8bff5a5\n      eq\n      tag_10\n      jumpi\n      jump(tag_2)\n    tag_11:\n      dup1\n      0x09eef43e\n      eq\n      tag_3\n      jumpi\n      dup1\n      0x3e118090\n      eq\n      tag_4\n      jumpi\n      dup1\n      0x4717f97c\n      eq\n      tag_5\n      jumpi\n      dup1\n      0x5c8d9541\n      eq\n      tag_6\n      jumpi\n    tag_2:\n      revert(0x00, 0x00)\n        /* \"contracts/VotingSystem.sol\":169:210  mapping (address => bool) public hasVoted */\n    tag_3:\n      tag_12\n      0x04\n      dup1\n      calldatasize\n      sub\n      dup2\n      add\n      swap1\n      tag_13\n      swap2\n      swap1\n      tag_14\n      jump\t// in\n    tag_13:\n      tag_15\n      jump\t// in\n    tag_12:\n      mload(0x40)\n      tag_16\n      swap2\n      swap1\n      tag_17\n      jump\t// in\n    tag_16:\n      mload(0x40)\n      dup1\n      swap2\n      sub\n      swap1\n      return\n        /* \"contracts/VotingSystem.sol\":270:294  uint public abstainCount */\n    tag_4:\n      tag_18\n      tag_19\n      jump\t// in\n    tag_18:\n      mload(0x40)\n      tag_20\n      swap2\n      swap1\n      tag_21\n      jump\t// in\n    tag_20:\n      mload(0x40)\n      dup1\n      swap2\n      sub\n      swap1\n      return\n        /* \"contracts/VotingSystem.sol\":847:967  function getResults() public view returns (uint, uint, uint) {... */\n    tag_5:\n      tag_22\n      tag_23\n      jump\t// in\n    tag_22:\n      mload(0x40)\n      tag_24\n      swap4\n      swap3\n      swap2\n      swap1\n      tag_25\n      jump\t// in\n    tag_24:\n      mload(0x40)\n      dup1\n      swap2\n      sub\n      swap1\n      return\n        /* \"contracts/VotingSystem.sol\":217:237  uint public yesCount */\n    tag_6:\n      tag_26\n      tag_27\n      jump\t// in\n    tag_26:\n      mload(0x40)\n      tag_28\n      swap2\n      swap1\n      tag_21\n      jump\t// in\n    tag_28:\n      mload(0x40)\n      dup1\n      swap2\n      sub\n      swap1\n      return\n        /* \"contracts/VotingSystem.sol\":979:1131  function getMyVote() public view returns (Vote) {... */\n    tag_7:\n      tag_29\n      tag_30\n      jump\t// in\n    tag_29:\n      mload(0x40)\n      tag_31\n      swap2\n      swap1\n      tag_32\n      jump\t// in\n    tag_31:\n      mload(0x40)\n      dup1\n      swap2\n      sub\n      swap1\n      return\n        /* \"contracts/VotingSystem.sol\":244:263  uint public noCount */\n    tag_8:\n      tag_33\n      tag_34\n      jump\t// in\n    tag_33:\n      mload(0x40)\n      tag_35\n      swap2\n      swap1\n      tag_21\n      jump\t// in\n    tag_35:\n      mload(0x40)\n      dup1\n      swap2\n      sub\n      swap1\n      return\n        /* \"contracts/VotingSystem.sol\":327:815  function vote(Vote _vote) public {... */\n    tag_9:\n      tag_36\n      0x04\n      dup1\n      calldatasize\n      sub\n      dup2\n      add\n      swap1\n      tag_37\n      swap2\n      swap1\n      tag_38\n      jump\t// in\n    tag_37:\n      tag_39\n      jump\t// in\n    tag_36:\n      stop\n        /* \"contracts/VotingSystem.sol\":124:162  mapping (address => Vote) public votes */\n    tag_10:\n      tag_40\n      0x04\n      dup1\n      calldatasize\n      sub\n      dup2\n      add\n      swap1\n      tag_41\n      swap2\n      swap1\n      tag_14\n      jump\t// in\n    tag_41:\n      tag_42\n      jump\t// in\n    tag_40:\n      mload(0x40)\n      tag_43\n      swap2\n      swap1\n      tag_32\n      jump\t// in\n    tag_43:\n      mload(0x40)\n      dup1\n      swap2\n      sub\n      swap1\n      return\n        /* \"contracts/VotingSystem.sol\":169:210  mapping (address => bool) public hasVoted */\n    tag_15:\n      mstore(0x20, 0x01)\n      dup1\n      0x00\n      mstore\n      keccak256(0x00, 0x40)\n      0x00\n      swap2\n      pop\n      sload\n      swap1\n      0x0100\n      exp\n      swap1\n      div\n      0xff\n      and\n      dup2\n      jump\t// out\n        /* \"contracts/VotingSystem.sol\":270:294  uint public abstainCount */\n    tag_19:\n      sload(0x04)\n      dup2\n      jump\t// out\n        /* \"contracts/VotingSystem.sol\":847:967  function getResults() public view returns (uint, uint, uint) {... */\n    tag_23:\n        /* \"contracts/VotingSystem.sol\":890:894  uint */\n      0x00\n        /* \"contracts/VotingSystem.sol\":896:900  uint */\n      0x00\n        /* \"contracts/VotingSystem.sol\":902:906  uint */\n      0x00\n        /* \"contracts/VotingSystem.sol\":927:935  yesCount */\n      sload(0x02)\n        /* \"contracts/VotingSystem.sol\":937:944  noCount */\n      sload(0x03)\n        /* \"contracts/VotingSystem.sol\":946:958  abstainCount */\n      sload(0x04)\n        /* \"contracts/VotingSystem.sol\":919:959  return (yesCount, noCount, abstainCount) */\n      swap3\n      pop\n      swap3\n      pop\n      swap3\n      pop\n        /* \"contracts/VotingSystem.sol\":847:967  function getResults() public view returns (uint, uint, uint) {... */\n      swap1\n      swap2\n      swap3\n      jump\t// out\n        /* \"contracts/VotingSystem.sol\":217:237  uint public yesCount */\n    tag_27:\n      sload(0x02)\n      dup2\n      jump\t// out\n        /* \"contracts/VotingSystem.sol\":979:1131  function getMyVote() public view returns (Vote) {... */\n    tag_30:\n        /* \"contracts/VotingSystem.sol\":1021:1025  Vote */\n      0x00\n        /* \"contracts/VotingSystem.sol\":1046:1054  hasVoted */\n      0x01\n        /* \"contracts/VotingSystem.sol\":1046:1066  hasVoted[msg.sender] */\n      0x00\n        /* \"contracts/VotingSystem.sol\":1055:1065  msg.sender */\n      caller\n        /* \"contracts/VotingSystem.sol\":1046:1066  hasVoted[msg.sender] */\n      0xffffffffffffffffffffffffffffffffffffffff\n      and\n      0xffffffffffffffffffffffffffffffffffffffff\n      and\n      dup2\n      mstore\n      0x20\n      add\n      swap1\n      dup2\n      mstore\n      0x20\n      add\n      0x00\n      keccak256\n      0x00\n      swap1\n      sload\n      swap1\n      0x0100\n      exp\n      swap1\n      div\n      0xff\n      and\n        /* \"contracts/VotingSystem.sol\":1038:1088  require(hasVoted[msg.sender], \"You haven't voted\") */\n      tag_46\n      jumpi\n      mload(0x40)\n      0x08c379a000000000000000000000000000000000000000000000000000000000\n      dup2\n      mstore\n      0x04\n      add\n      tag_47\n      swap1\n      tag_48\n      jump\t// in\n    tag_47:\n      mload(0x40)\n      dup1\n      swap2\n      sub\n      swap1\n      revert\n    tag_46:\n        /* \"contracts/VotingSystem.sol\":1106:1111  votes */\n      0x00\n        /* \"contracts/VotingSystem.sol\":1106:1123  votes[msg.sender] */\n      0x00\n        /* \"contracts/VotingSystem.sol\":1112:1122  msg.sender */\n      caller\n        /* \"contracts/VotingSystem.sol\":1106:1123  votes[msg.sender] */\n      0xffffffffffffffffffffffffffffffffffffffff\n      and\n      0xffffffffffffffffffffffffffffffffffffffff\n      and\n      dup2\n      mstore\n      0x20\n      add\n      swap1\n      dup2\n      mstore\n      0x20\n      add\n      0x00\n      keccak256\n      0x00\n      swap1\n      sload\n      swap1\n      0x0100\n      exp\n      swap1\n      div\n      0xff\n      and\n        /* \"contracts/VotingSystem.sol\":1099:1123  return votes[msg.sender] */\n      swap1\n      pop\n        /* \"contracts/VotingSystem.sol\":979:1131  function getMyVote() public view returns (Vote) {... */\n      swap1\n      jump\t// out\n        /* \"contracts/VotingSystem.sol\":244:263  uint public noCount */\n    tag_34:\n      sload(0x03)\n      dup2\n      jump\t// out\n        /* \"contracts/VotingSystem.sol\":327:815  function vote(Vote _vote) public {... */\n    tag_39:\n        /* \"contracts/VotingSystem.sol\":416:424  hasVoted */\n      0x01\n        /* \"contracts/VotingSystem.sol\":416:436  hasVoted[msg.sender] */\n      0x00\n        /* \"contracts/VotingSystem.sol\":425:435  msg.sender */\n      caller\n        /* \"contracts/VotingSystem.sol\":416:436  hasVoted[msg.sender] */\n      0xffffffffffffffffffffffffffffffffffffffff\n      and\n      0xffffffffffffffffffffffffffffffffffffffff\n      and\n      dup2\n      mstore\n      0x20\n      add\n      swap1\n      dup2\n      mstore\n      0x20\n      add\n      0x00\n      keccak256\n      0x00\n      swap1\n      sload\n      swap1\n      0x0100\n      exp\n      swap1\n      div\n      0xff\n      and\n        /* \"contracts/VotingSystem.sol\":415:436  !hasVoted[msg.sender] */\n      iszero\n        /* \"contracts/VotingSystem.sol\":407:458  require(!hasVoted[msg.sender], \"You are voted yet\") */\n      tag_50\n      jumpi\n      mload(0x40)\n      0x08c379a000000000000000000000000000000000000000000000000000000000\n      dup2\n      mstore\n      0x04\n      add\n      tag_51\n      swap1\n      tag_52\n      jump\t// in\n    tag_51:\n      mload(0x40)\n      dup1\n      swap2\n      sub\n      swap1\n      revert\n    tag_50:\n        /* \"contracts/VotingSystem.sol\":516:521  _vote */\n      dup1\n        /* \"contracts/VotingSystem.sol\":496:501  votes */\n      0x00\n        /* \"contracts/VotingSystem.sol\":496:513  votes[msg.sender] */\n      0x00\n        /* \"contracts/VotingSystem.sol\":502:512  msg.sender */\n      caller\n        /* \"contracts/VotingSystem.sol\":496:513  votes[msg.sender] */\n      0xffffffffffffffffffffffffffffffffffffffff\n      and\n      0xffffffffffffffffffffffffffffffffffffffff\n      and\n      dup2\n      mstore\n      0x20\n      add\n      swap1\n      dup2\n      mstore\n      0x20\n      add\n      0x00\n      keccak256\n      0x00\n        /* \"contracts/VotingSystem.sol\":496:521  votes[msg.sender] = _vote */\n      0x0100\n      exp\n      dup2\n      sload\n      dup2\n      0xff\n      mul\n      not\n      and\n      swap1\n      dup4\n      0x02\n      dup2\n      gt\n      iszero\n      tag_53\n      jumpi\n      tag_54\n      tag_55\n      jump\t// in\n    tag_54:\n    tag_53:\n      mul\n      or\n      swap1\n      sstore\n      pop\n        /* \"contracts/VotingSystem.sol\":555:559  true */\n      0x01\n        /* \"contracts/VotingSystem.sol\":532:540  hasVoted */\n      dup1\n        /* \"contracts/VotingSystem.sol\":532:552  hasVoted[msg.sender] */\n      0x00\n        /* \"contracts/VotingSystem.sol\":541:551  msg.sender */\n      caller\n        /* \"contracts/VotingSystem.sol\":532:552  hasVoted[msg.sender] */\n      0xffffffffffffffffffffffffffffffffffffffff\n      and\n      0xffffffffffffffffffffffffffffffffffffffff\n      and\n      dup2\n      mstore\n      0x20\n      add\n      swap1\n      dup2\n      mstore\n      0x20\n      add\n      0x00\n      keccak256\n      0x00\n        /* \"contracts/VotingSystem.sol\":532:559  hasVoted[msg.sender] = true */\n      0x0100\n      exp\n      dup2\n      sload\n      dup2\n      0xff\n      mul\n      not\n      and\n      swap1\n      dup4\n      iszero\n      iszero\n      mul\n      or\n      swap1\n      sstore\n      pop\n        /* \"contracts/VotingSystem.sol\":609:617  Vote.Yes */\n      0x00\n        /* \"contracts/VotingSystem.sol\":600:617  _vote == Vote.Yes */\n      0x02\n      dup2\n      gt\n      iszero\n      tag_56\n      jumpi\n      tag_57\n      tag_55\n      jump\t// in\n    tag_57:\n    tag_56:\n        /* \"contracts/VotingSystem.sol\":600:605  _vote */\n      dup2\n        /* \"contracts/VotingSystem.sol\":600:617  _vote == Vote.Yes */\n      0x02\n      dup2\n      gt\n      iszero\n      tag_58\n      jumpi\n      tag_59\n      tag_55\n      jump\t// in\n    tag_59:\n    tag_58:\n      sub\n        /* \"contracts/VotingSystem.sol\":597:658  if(_vote == Vote.Yes){... */\n      tag_60\n      jumpi\n        /* \"contracts/VotingSystem.sol\":645:646  1 */\n      0x01\n        /* \"contracts/VotingSystem.sol\":633:641  yesCount */\n      0x02\n      0x00\n        /* \"contracts/VotingSystem.sol\":633:646  yesCount += 1 */\n      dup3\n      dup3\n      sload\n      tag_61\n      swap2\n      swap1\n      tag_62\n      jump\t// in\n    tag_61:\n      swap3\n      pop\n      pop\n      dup2\n      swap1\n      sstore\n      pop\n        /* \"contracts/VotingSystem.sol\":597:658  if(_vote == Vote.Yes){... */\n    tag_60:\n        /* \"contracts/VotingSystem.sol\":681:688  Vote.No */\n      0x01\n        /* \"contracts/VotingSystem.sol\":672:688  _vote == Vote.No */\n      0x02\n      dup2\n      gt\n      iszero\n      tag_63\n      jumpi\n      tag_64\n      tag_55\n      jump\t// in\n    tag_64:\n    tag_63:\n        /* \"contracts/VotingSystem.sol\":672:677  _vote */\n      dup2\n        /* \"contracts/VotingSystem.sol\":672:688  _vote == Vote.No */\n      0x02\n      dup2\n      gt\n      iszero\n      tag_65\n      jumpi\n      tag_66\n      tag_55\n      jump\t// in\n    tag_66:\n    tag_65:\n      sub\n        /* \"contracts/VotingSystem.sol\":668:728  if (_vote == Vote.No){... */\n      tag_67\n      jumpi\n        /* \"contracts/VotingSystem.sol\":715:716  1 */\n      0x01\n        /* \"contracts/VotingSystem.sol\":704:711  noCount */\n      0x03\n      0x00\n        /* \"contracts/VotingSystem.sol\":704:716  noCount += 1 */\n      dup3\n      dup3\n      sload\n      tag_68\n      swap2\n      swap1\n      tag_62\n      jump\t// in\n    tag_68:\n      swap3\n      pop\n      pop\n      dup2\n      swap1\n      sstore\n      pop\n        /* \"contracts/VotingSystem.sol\":668:728  if (_vote == Vote.No){... */\n    tag_67:\n        /* \"contracts/VotingSystem.sol\":751:763  Vote.Abstain */\n      0x02\n        /* \"contracts/VotingSystem.sol\":742:763  _vote == Vote.Abstain */\n      dup1\n      dup2\n      gt\n      iszero\n      tag_69\n      jumpi\n      tag_70\n      tag_55\n      jump\t// in\n    tag_70:\n    tag_69:\n        /* \"contracts/VotingSystem.sol\":742:747  _vote */\n      dup2\n        /* \"contracts/VotingSystem.sol\":742:763  _vote == Vote.Abstain */\n      0x02\n      dup2\n      gt\n      iszero\n      tag_71\n      jumpi\n      tag_72\n      tag_55\n      jump\t// in\n    tag_72:\n    tag_71:\n      sub\n        /* \"contracts/VotingSystem.sol\":738:808  if (_vote == Vote.Abstain){... */\n      tag_73\n      jumpi\n        /* \"contracts/VotingSystem.sol\":795:796  1 */\n      0x01\n        /* \"contracts/VotingSystem.sol\":779:791  abstainCount */\n      0x04\n      0x00\n        /* \"contracts/VotingSystem.sol\":779:796  abstainCount += 1 */\n      dup3\n      dup3\n      sload\n      tag_74\n      swap2\n      swap1\n      tag_62\n      jump\t// in\n    tag_74:\n      swap3\n      pop\n      pop\n      dup2\n      swap1\n      sstore\n      pop\n        /* \"contracts/VotingSystem.sol\":738:808  if (_vote == Vote.Abstain){... */\n    tag_73:\n        /* \"contracts/VotingSystem.sol\":327:815  function vote(Vote _vote) public {... */\n      pop\n      jump\t// out\n        /* \"contracts/VotingSystem.sol\":124:162  mapping (address => Vote) public votes */\n    tag_42:\n      mstore(0x20, 0x00)\n      dup1\n      0x00\n      mstore\n      keccak256(0x00, 0x40)\n      0x00\n      swap2\n      pop\n      sload\n      swap1\n      0x0100\n      exp\n      swap1\n      div\n      0xff\n      and\n      dup2\n      jump\t// out\n        /* \"#utility.yul\":88:205   */\n    tag_76:\n        /* \"#utility.yul\":197:198   */\n      0x00\n        /* \"#utility.yul\":194:195   */\n      0x00\n        /* \"#utility.yul\":187:199   */\n      revert\n        /* \"#utility.yul\":334:460   */\n    tag_78:\n        /* \"#utility.yul\":371:378   */\n      0x00\n        /* \"#utility.yul\":411:453   */\n      0xffffffffffffffffffffffffffffffffffffffff\n        /* \"#utility.yul\":404:409   */\n      dup3\n        /* \"#utility.yul\":400:454   */\n      and\n        /* \"#utility.yul\":389:454   */\n      swap1\n      pop\n        /* \"#utility.yul\":334:460   */\n      swap2\n      swap1\n      pop\n      jump\t// out\n        /* \"#utility.yul\":466:562   */\n    tag_79:\n        /* \"#utility.yul\":503:510   */\n      0x00\n        /* \"#utility.yul\":532:556   */\n      tag_104\n        /* \"#utility.yul\":550:555   */\n      dup3\n        /* \"#utility.yul\":532:556   */\n      tag_78\n      jump\t// in\n    tag_104:\n        /* \"#utility.yul\":521:556   */\n      swap1\n      pop\n        /* \"#utility.yul\":466:562   */\n      swap2\n      swap1\n      pop\n      jump\t// out\n        /* \"#utility.yul\":568:690   */\n    tag_80:\n        /* \"#utility.yul\":641:665   */\n      tag_106\n        /* \"#utility.yul\":659:664   */\n      dup2\n        /* \"#utility.yul\":641:665   */\n      tag_79\n      jump\t// in\n    tag_106:\n        /* \"#utility.yul\":634:639   */\n      dup2\n        /* \"#utility.yul\":631:666   */\n      eq\n        /* \"#utility.yul\":621:684   */\n      tag_107\n      jumpi\n        /* \"#utility.yul\":680:681   */\n      0x00\n        /* \"#utility.yul\":677:678   */\n      0x00\n        /* \"#utility.yul\":670:682   */\n      revert\n        /* \"#utility.yul\":621:684   */\n    tag_107:\n        /* \"#utility.yul\":568:690   */\n      pop\n      jump\t// out\n        /* \"#utility.yul\":696:835   */\n    tag_81:\n        /* \"#utility.yul\":742:747   */\n      0x00\n        /* \"#utility.yul\":780:786   */\n      dup2\n        /* \"#utility.yul\":767:787   */\n      calldataload\n        /* \"#utility.yul\":758:787   */\n      swap1\n      pop\n        /* \"#utility.yul\":796:829   */\n      tag_109\n        /* \"#utility.yul\":823:828   */\n      dup2\n        /* \"#utility.yul\":796:829   */\n      tag_80\n      jump\t// in\n    tag_109:\n        /* \"#utility.yul\":696:835   */\n      swap3\n      swap2\n      pop\n      pop\n      jump\t// out\n        /* \"#utility.yul\":841:1170   */\n    tag_14:\n        /* \"#utility.yul\":900:906   */\n      0x00\n        /* \"#utility.yul\":949:951   */\n      0x20\n        /* \"#utility.yul\":937:946   */\n      dup3\n        /* \"#utility.yul\":928:935   */\n      dup5\n        /* \"#utility.yul\":924:947   */\n      sub\n        /* \"#utility.yul\":920:952   */\n      slt\n        /* \"#utility.yul\":917:1036   */\n      iszero\n      tag_111\n      jumpi\n        /* \"#utility.yul\":955:1034   */\n      tag_112\n      tag_76\n      jump\t// in\n    tag_112:\n        /* \"#utility.yul\":917:1036   */\n    tag_111:\n        /* \"#utility.yul\":1075:1076   */\n      0x00\n        /* \"#utility.yul\":1100:1153   */\n      tag_113\n        /* \"#utility.yul\":1145:1152   */\n      dup5\n        /* \"#utility.yul\":1136:1142   */\n      dup3\n        /* \"#utility.yul\":1125:1134   */\n      dup6\n        /* \"#utility.yul\":1121:1143   */\n      add\n        /* \"#utility.yul\":1100:1153   */\n      tag_81\n      jump\t// in\n    tag_113:\n        /* \"#utility.yul\":1090:1153   */\n      swap2\n      pop\n        /* \"#utility.yul\":1046:1163   */\n      pop\n        /* \"#utility.yul\":841:1170   */\n      swap3\n      swap2\n      pop\n      pop\n      jump\t// out\n        /* \"#utility.yul\":1176:1266   */\n    tag_82:\n        /* \"#utility.yul\":1210:1217   */\n      0x00\n        /* \"#utility.yul\":1253:1258   */\n      dup2\n        /* \"#utility.yul\":1246:1259   */\n      iszero\n        /* \"#utility.yul\":1239:1260   */\n      iszero\n        /* \"#utility.yul\":1228:1260   */\n      swap1\n      pop\n        /* \"#utility.yul\":1176:1266   */\n      swap2\n      swap1\n      pop\n      jump\t// out\n        /* \"#utility.yul\":1272:1381   */\n    tag_83:\n        /* \"#utility.yul\":1353:1374   */\n      tag_116\n        /* \"#utility.yul\":1368:1373   */\n      dup2\n        /* \"#utility.yul\":1353:1374   */\n      tag_82\n      jump\t// in\n    tag_116:\n        /* \"#utility.yul\":1348:1351   */\n      dup3\n        /* \"#utility.yul\":1341:1375   */\n      mstore\n        /* \"#utility.yul\":1272:1381   */\n      pop\n      pop\n      jump\t// out\n        /* \"#utility.yul\":1387:1597   */\n    tag_17:\n        /* \"#utility.yul\":1474:1478   */\n      0x00\n        /* \"#utility.yul\":1512:1514   */\n      0x20\n        /* \"#utility.yul\":1501:1510   */\n      dup3\n        /* \"#utility.yul\":1497:1515   */\n      add\n        /* \"#utility.yul\":1489:1515   */\n      swap1\n      pop\n        /* \"#utility.yul\":1525:1590   */\n      tag_118\n        /* \"#utility.yul\":1587:1588   */\n      0x00\n        /* \"#utility.yul\":1576:1585   */\n      dup4\n        /* \"#utility.yul\":1572:1589   */\n      add\n        /* \"#utility.yul\":1563:1569   */\n      dup5\n        /* \"#utility.yul\":1525:1590   */\n      tag_83\n      jump\t// in\n    tag_118:\n        /* \"#utility.yul\":1387:1597   */\n      swap3\n      swap2\n      pop\n      pop\n      jump\t// out\n        /* \"#utility.yul\":1603:1680   */\n    tag_84:\n        /* \"#utility.yul\":1640:1647   */\n      0x00\n        /* \"#utility.yul\":1669:1674   */\n      dup2\n        /* \"#utility.yul\":1658:1674   */\n      swap1\n      pop\n        /* \"#utility.yul\":1603:1680   */\n      swap2\n      swap1\n      pop\n      jump\t// out\n        /* \"#utility.yul\":1686:1804   */\n    tag_85:\n        /* \"#utility.yul\":1773:1797   */\n      tag_121\n        /* \"#utility.yul\":1791:1796   */\n      dup2\n        /* \"#utility.yul\":1773:1797   */\n      tag_84\n      jump\t// in\n    tag_121:\n        /* \"#utility.yul\":1768:1771   */\n      dup3\n        /* \"#utility.yul\":1761:1798   */\n      mstore\n        /* \"#utility.yul\":1686:1804   */\n      pop\n      pop\n      jump\t// out\n        /* \"#utility.yul\":1810:2032   */\n    tag_21:\n        /* \"#utility.yul\":1903:1907   */\n      0x00\n        /* \"#utility.yul\":1941:1943   */\n      0x20\n        /* \"#utility.yul\":1930:1939   */\n      dup3\n        /* \"#utility.yul\":1926:1944   */\n      add\n        /* \"#utility.yul\":1918:1944   */\n      swap1\n      pop\n        /* \"#utility.yul\":1954:2025   */\n      tag_123\n        /* \"#utility.yul\":2022:2023   */\n      0x00\n        /* \"#utility.yul\":2011:2020   */\n      dup4\n        /* \"#utility.yul\":2007:2024   */\n      add\n        /* \"#utility.yul\":1998:2004   */\n      dup5\n        /* \"#utility.yul\":1954:2025   */\n      tag_85\n      jump\t// in\n    tag_123:\n        /* \"#utility.yul\":1810:2032   */\n      swap3\n      swap2\n      pop\n      pop\n      jump\t// out\n        /* \"#utility.yul\":2038:2480   */\n    tag_25:\n        /* \"#utility.yul\":2187:2191   */\n      0x00\n        /* \"#utility.yul\":2225:2227   */\n      0x60\n        /* \"#utility.yul\":2214:2223   */\n      dup3\n        /* \"#utility.yul\":2210:2228   */\n      add\n        /* \"#utility.yul\":2202:2228   */\n      swap1\n      pop\n        /* \"#utility.yul\":2238:2309   */\n      tag_125\n        /* \"#utility.yul\":2306:2307   */\n      0x00\n        /* \"#utility.yul\":2295:2304   */\n      dup4\n        /* \"#utility.yul\":2291:2308   */\n      add\n        /* \"#utility.yul\":2282:2288   */\n      dup7\n        /* \"#utility.yul\":2238:2309   */\n      tag_85\n      jump\t// in\n    tag_125:\n        /* \"#utility.yul\":2319:2391   */\n      tag_126\n        /* \"#utility.yul\":2387:2389   */\n      0x20\n        /* \"#utility.yul\":2376:2385   */\n      dup4\n        /* \"#utility.yul\":2372:2390   */\n      add\n        /* \"#utility.yul\":2363:2369   */\n      dup6\n        /* \"#utility.yul\":2319:2391   */\n      tag_85\n      jump\t// in\n    tag_126:\n        /* \"#utility.yul\":2401:2473   */\n      tag_127\n        /* \"#utility.yul\":2469:2471   */\n      0x40\n        /* \"#utility.yul\":2458:2467   */\n      dup4\n        /* \"#utility.yul\":2454:2472   */\n      add\n        /* \"#utility.yul\":2445:2451   */\n      dup5\n        /* \"#utility.yul\":2401:2473   */\n      tag_85\n      jump\t// in\n    tag_127:\n        /* \"#utility.yul\":2038:2480   */\n      swap5\n      swap4\n      pop\n      pop\n      pop\n      pop\n      jump\t// out\n        /* \"#utility.yul\":2486:2666   */\n    tag_55:\n        /* \"#utility.yul\":2534:2611   */\n      0x4e487b7100000000000000000000000000000000000000000000000000000000\n        /* \"#utility.yul\":2531:2532   */\n      0x00\n        /* \"#utility.yul\":2524:2612   */\n      mstore\n        /* \"#utility.yul\":2631:2635   */\n      0x21\n        /* \"#utility.yul\":2628:2629   */\n      0x04\n        /* \"#utility.yul\":2621:2636   */\n      mstore\n        /* \"#utility.yul\":2655:2659   */\n      0x24\n        /* \"#utility.yul\":2652:2653   */\n      0x00\n        /* \"#utility.yul\":2645:2660   */\n      revert\n        /* \"#utility.yul\":2672:2783   */\n    tag_86:\n        /* \"#utility.yul\":2751:2752   */\n      0x03\n        /* \"#utility.yul\":2744:2749   */\n      dup2\n        /* \"#utility.yul\":2741:2753   */\n      lt\n        /* \"#utility.yul\":2731:2777   */\n      tag_130\n      jumpi\n        /* \"#utility.yul\":2757:2775   */\n      tag_131\n      tag_55\n      jump\t// in\n    tag_131:\n        /* \"#utility.yul\":2731:2777   */\n    tag_130:\n        /* \"#utility.yul\":2672:2783   */\n      pop\n      jump\t// out\n        /* \"#utility.yul\":2789:2912   */\n    tag_87:\n        /* \"#utility.yul\":2832:2839   */\n      0x00\n        /* \"#utility.yul\":2861:2866   */\n      dup2\n        /* \"#utility.yul\":2850:2866   */\n      swap1\n      pop\n        /* \"#utility.yul\":2867:2906   */\n      tag_133\n        /* \"#utility.yul\":2900:2905   */\n      dup3\n        /* \"#utility.yul\":2867:2906   */\n      tag_86\n      jump\t// in\n    tag_133:\n        /* \"#utility.yul\":2789:2912   */\n      swap2\n      swap1\n      pop\n      jump\t// out\n        /* \"#utility.yul\":2918:3041   */\n    tag_88:\n        /* \"#utility.yul\":2972:2981   */\n      0x00\n        /* \"#utility.yul\":3005:3035   */\n      tag_135\n        /* \"#utility.yul\":3029:3034   */\n      dup3\n        /* \"#utility.yul\":3005:3035   */\n      tag_87\n      jump\t// in\n    tag_135:\n        /* \"#utility.yul\":2992:3035   */\n      swap1\n      pop\n        /* \"#utility.yul\":2918:3041   */\n      swap2\n      swap1\n      pop\n      jump\t// out\n        /* \"#utility.yul\":3047:3186   */\n    tag_89:\n        /* \"#utility.yul\":3138:3179   */\n      tag_137\n        /* \"#utility.yul\":3173:3178   */\n      dup2\n        /* \"#utility.yul\":3138:3179   */\n      tag_88\n      jump\t// in\n    tag_137:\n        /* \"#utility.yul\":3133:3136   */\n      dup3\n        /* \"#utility.yul\":3126:3180   */\n      mstore\n        /* \"#utility.yul\":3047:3186   */\n      pop\n      pop\n      jump\t// out\n        /* \"#utility.yul\":3192:3422   */\n    tag_32:\n        /* \"#utility.yul\":3289:3293   */\n      0x00\n        /* \"#utility.yul\":3327:3329   */\n      0x20\n        /* \"#utility.yul\":3316:3325   */\n      dup3\n        /* \"#utility.yul\":3312:3330   */\n      add\n        /* \"#utility.yul\":3304:3330   */\n      swap1\n      pop\n        /* \"#utility.yul\":3340:3415   */\n      tag_139\n        /* \"#utility.yul\":3412:3413   */\n      0x00\n        /* \"#utility.yul\":3401:3410   */\n      dup4\n        /* \"#utility.yul\":3397:3414   */\n      add\n        /* \"#utility.yul\":3388:3394   */\n      dup5\n        /* \"#utility.yul\":3340:3415   */\n      tag_89\n      jump\t// in\n    tag_139:\n        /* \"#utility.yul\":3192:3422   */\n      swap3\n      swap2\n      pop\n      pop\n      jump\t// out\n        /* \"#utility.yul\":3428:3533   */\n    tag_90:\n        /* \"#utility.yul\":3507:3508   */\n      0x03\n        /* \"#utility.yul\":3500:3505   */\n      dup2\n        /* \"#utility.yul\":3497:3509   */\n      lt\n        /* \"#utility.yul\":3487:3527   */\n      tag_141\n      jumpi\n        /* \"#utility.yul\":3523:3524   */\n      0x00\n        /* \"#utility.yul\":3520:3521   */\n      0x00\n        /* \"#utility.yul\":3513:3525   */\n      revert\n        /* \"#utility.yul\":3487:3527   */\n    tag_141:\n        /* \"#utility.yul\":3428:3533   */\n      pop\n      jump\t// out\n        /* \"#utility.yul\":3539:3690   */\n    tag_91:\n        /* \"#utility.yul\":3591:3596   */\n      0x00\n        /* \"#utility.yul\":3629:3635   */\n      dup2\n        /* \"#utility.yul\":3616:3636   */\n      calldataload\n        /* \"#utility.yul\":3607:3636   */\n      swap1\n      pop\n        /* \"#utility.yul\":3645:3684   */\n      tag_143\n        /* \"#utility.yul\":3678:3683   */\n      dup2\n        /* \"#utility.yul\":3645:3684   */\n      tag_90\n      jump\t// in\n    tag_143:\n        /* \"#utility.yul\":3539:3690   */\n      swap3\n      swap2\n      pop\n      pop\n      jump\t// out\n        /* \"#utility.yul\":3696:4037   */\n    tag_38:\n        /* \"#utility.yul\":3761:3767   */\n      0x00\n        /* \"#utility.yul\":3810:3812   */\n      0x20\n        /* \"#utility.yul\":3798:3807   */\n      dup3\n        /* \"#utility.yul\":3789:3796   */\n      dup5\n        /* \"#utility.yul\":3785:3808   */\n      sub\n        /* \"#utility.yul\":3781:3813   */\n      slt\n        /* \"#utility.yul\":3778:3897   */\n      iszero\n      tag_145\n      jumpi\n        /* \"#utility.yul\":3816:3895   */\n      tag_146\n      tag_76\n      jump\t// in\n    tag_146:\n        /* \"#utility.yul\":3778:3897   */\n    tag_145:\n        /* \"#utility.yul\":3936:3937   */\n      0x00\n        /* \"#utility.yul\":3961:4020   */\n      tag_147\n        /* \"#utility.yul\":4012:4019   */\n      dup5\n        /* \"#utility.yul\":4003:4009   */\n      dup3\n        /* \"#utility.yul\":3992:4001   */\n      dup6\n        /* \"#utility.yul\":3988:4010   */\n      add\n        /* \"#utility.yul\":3961:4020   */\n      tag_91\n      jump\t// in\n    tag_147:\n        /* \"#utility.yul\":3951:4020   */\n      swap2\n      pop\n        /* \"#utility.yul\":3907:4030   */\n      pop\n        /* \"#utility.yul\":3696:4037   */\n      swap3\n      swap2\n      pop\n      pop\n      jump\t// out\n        /* \"#utility.yul\":4043:4212   */\n    tag_92:\n        /* \"#utility.yul\":4127:4138   */\n      0x00\n        /* \"#utility.yul\":4161:4167   */\n      dup3\n        /* \"#utility.yul\":4156:4159   */\n      dup3\n        /* \"#utility.yul\":4149:4168   */\n      mstore\n        /* \"#utility.yul\":4201:4205   */\n      0x20\n        /* \"#utility.yul\":4196:4199   */\n      dup3\n        /* \"#utility.yul\":4192:4206   */\n      add\n        /* \"#utility.yul\":4177:4206   */\n      swap1\n      pop\n        /* \"#utility.yul\":4043:4212   */\n      swap3\n      swap2\n      pop\n      pop\n      jump\t// out\n        /* \"#utility.yul\":4218:4385   */\n    tag_93:\n        /* \"#utility.yul\":4358:4377   */\n      0x596f7520686176656e277420766f746564000000000000000000000000000000\n        /* \"#utility.yul\":4354:4355   */\n      0x00\n        /* \"#utility.yul\":4346:4352   */\n      dup3\n        /* \"#utility.yul\":4342:4356   */\n      add\n        /* \"#utility.yul\":4335:4378   */\n      mstore\n        /* \"#utility.yul\":4218:4385   */\n      pop\n      jump\t// out\n        /* \"#utility.yul\":4391:4757   */\n    tag_94:\n        /* \"#utility.yul\":4533:4536   */\n      0x00\n        /* \"#utility.yul\":4554:4621   */\n      tag_151\n        /* \"#utility.yul\":4618:4620   */\n      0x11\n        /* \"#utility.yul\":4613:4616   */\n      dup4\n        /* \"#utility.yul\":4554:4621   */\n      tag_92\n      jump\t// in\n    tag_151:\n        /* \"#utility.yul\":4547:4621   */\n      swap2\n      pop\n        /* \"#utility.yul\":4630:4723   */\n      tag_152\n        /* \"#utility.yul\":4719:4722   */\n      dup3\n        /* \"#utility.yul\":4630:4723   */\n      tag_93\n      jump\t// in\n    tag_152:\n        /* \"#utility.yul\":4748:4750   */\n      0x20\n        /* \"#utility.yul\":4743:4746   */\n      dup3\n        /* \"#utility.yul\":4739:4751   */\n      add\n        /* \"#utility.yul\":4732:4751   */\n      swap1\n      pop\n        /* \"#utility.yul\":4391:4757   */\n      swap2\n      swap1\n      pop\n      jump\t// out\n        /* \"#utility.yul\":4763:5182   */\n    tag_48:\n        /* \"#utility.yul\":4929:4933   */\n      0x00\n        /* \"#utility.yul\":4967:4969   */\n      0x20\n        /* \"#utility.yul\":4956:4965   */\n      dup3\n        /* \"#utility.yul\":4952:4970   */\n      add\n        /* \"#utility.yul\":4944:4970   */\n      swap1\n      pop\n        /* \"#utility.yul\":5016:5025   */\n      dup2\n        /* \"#utility.yul\":5010:5014   */\n      dup2\n        /* \"#utility.yul\":5006:5026   */\n      sub\n        /* \"#utility.yul\":5002:5003   */\n      0x00\n        /* \"#utility.yul\":4991:5000   */\n      dup4\n        /* \"#utility.yul\":4987:5004   */\n      add\n        /* \"#utility.yul\":4980:5027   */\n      mstore\n        /* \"#utility.yul\":5044:5175   */\n      tag_154\n        /* \"#utility.yul\":5170:5174   */\n      dup2\n        /* \"#utility.yul\":5044:5175   */\n      tag_94\n      jump\t// in\n    tag_154:\n        /* \"#utility.yul\":5036:5175   */\n      swap1\n      pop\n        /* \"#utility.yul\":4763:5182   */\n      swap2\n      swap1\n      pop\n      jump\t// out\n        /* \"#utility.yul\":5188:5355   */\n    tag_95:\n        /* \"#utility.yul\":5328:5347   */\n      0x596f752061726520766f74656420796574000000000000000000000000000000\n        /* \"#utility.yul\":5324:5325   */\n      0x00\n        /* \"#utility.yul\":5316:5322   */\n      dup3\n        /* \"#utility.yul\":5312:5326   */\n      add\n        /* \"#utility.yul\":5305:5348   */\n      mstore\n        /* \"#utility.yul\":5188:5355   */\n      pop\n      jump\t// out\n        /* \"#utility.yul\":5361:5727   */\n    tag_96:\n        /* \"#utility.yul\":5503:5506   */\n      0x00\n        /* \"#utility.yul\":5524:5591   */\n      tag_157\n        /* \"#utility.yul\":5588:5590   */\n      0x11\n        /* \"#utility.yul\":5583:5586   */\n      dup4\n        /* \"#utility.yul\":5524:5591   */\n      tag_92\n      jump\t// in\n    tag_157:\n        /* \"#utility.yul\":5517:5591   */\n      swap2\n      pop\n        /* \"#utility.yul\":5600:5693   */\n      tag_158\n        /* \"#utility.yul\":5689:5692   */\n      dup3\n        /* \"#utility.yul\":5600:5693   */\n      tag_95\n      jump\t// in\n    tag_158:\n        /* \"#utility.yul\":5718:5720   */\n      0x20\n        /* \"#utility.yul\":5713:5716   */\n      dup3\n        /* \"#utility.yul\":5709:5721   */\n      add\n        /* \"#utility.yul\":5702:5721   */\n      swap1\n      pop\n        /* \"#utility.yul\":5361:5727   */\n      swap2\n      swap1\n      pop\n      jump\t// out\n        /* \"#utility.yul\":5733:6152   */\n    tag_52:\n        /* \"#utility.yul\":5899:5903   */\n      0x00\n        /* \"#utility.yul\":5937:5939   */\n      0x20\n        /* \"#utility.yul\":5926:5935   */\n      dup3\n        /* \"#utility.yul\":5922:5940   */\n      add\n        /* \"#utility.yul\":5914:5940   */\n      swap1\n      pop\n        /* \"#utility.yul\":5986:5995   */\n      dup2\n        /* \"#utility.yul\":5980:5984   */\n      dup2\n        /* \"#utility.yul\":5976:5996   */\n      sub\n        /* \"#utility.yul\":5972:5973   */\n      0x00\n        /* \"#utility.yul\":5961:5970   */\n      dup4\n        /* \"#utility.yul\":5957:5974   */\n      add\n        /* \"#utility.yul\":5950:5997   */\n      mstore\n        /* \"#utility.yul\":6014:6145   */\n      tag_160\n        /* \"#utility.yul\":6140:6144   */\n      dup2\n        /* \"#utility.yul\":6014:6145   */\n      tag_96\n      jump\t// in\n    tag_160:\n        /* \"#utility.yul\":6006:6145   */\n      swap1\n      pop\n        /* \"#utility.yul\":5733:6152   */\n      swap2\n      swap1\n      pop\n      jump\t// out\n        /* \"#utility.yul\":6158:6338   */\n    tag_97:\n        /* \"#utility.yul\":6206:6283   */\n      0x4e487b7100000000000000000000000000000000000000000000000000000000\n        /* \"#utility.yul\":6203:6204   */\n      0x00\n        /* \"#utility.yul\":6196:6284   */\n      mstore\n        /* \"#utility.yul\":6303:6307   */\n      0x11\n        /* \"#utility.yul\":6300:6301   */\n      0x04\n        /* \"#utility.yul\":6293:6308   */\n      mstore\n        /* \"#utility.yul\":6327:6331   */\n      0x24\n        /* \"#utility.yul\":6324:6325   */\n      0x00\n        /* \"#utility.yul\":6317:6332   */\n      revert\n        /* \"#utility.yul\":6344:6535   */\n    tag_62:\n        /* \"#utility.yul\":6384:6387   */\n      0x00\n        /* \"#utility.yul\":6403:6423   */\n      tag_163\n        /* \"#utility.yul\":6421:6422   */\n      dup3\n        /* \"#utility.yul\":6403:6423   */\n      tag_84\n      jump\t// in\n    tag_163:\n        /* \"#utility.yul\":6398:6423   */\n      swap2\n      pop\n        /* \"#utility.yul\":6437:6457   */\n      tag_164\n        /* \"#utility.yul\":6455:6456   */\n      dup4\n        /* \"#utility.yul\":6437:6457   */\n      tag_84\n      jump\t// in\n    tag_164:\n        /* \"#utility.yul\":6432:6457   */\n      swap3\n      pop\n        /* \"#utility.yul\":6480:6481   */\n      dup3\n        /* \"#utility.yul\":6477:6478   */\n      dup3\n        /* \"#utility.yul\":6473:6482   */\n      add\n        /* \"#utility.yul\":6466:6482   */\n      swap1\n      pop\n        /* \"#utility.yul\":6501:6504   */\n      dup1\n        /* \"#utility.yul\":6498:6499   */\n      dup3\n        /* \"#utility.yul\":6495:6505   */\n      gt\n        /* \"#utility.yul\":6492:6528   */\n      iszero\n      tag_165\n      jumpi\n        /* \"#utility.yul\":6508:6526   */\n      tag_166\n      tag_97\n      jump\t// in\n    tag_166:\n        /* \"#utility.yul\":6492:6528   */\n    tag_165:\n        /* \"#utility.yul\":6344:6535   */\n      swap3\n      swap2\n      pop\n      pop\n      jump\t// out\n\n    auxdata: 0xa2646970667358221220db8e8250aa7d25b1af6e54d2f31d1f25c0351cf85b98d39c94d35ca07b15708e64736f6c634300081f0033\n}\n",
				"bytecode": {
					"linkReferences": {},
					"object": "6080604052348015600e575f5ffd5b5061085e8061001c5f395ff3fe608060405234801561000f575f5ffd5b5060043610610086575f3560e01c80638cb647d3116100595780638cb647d314610116578063a2fcbad714610134578063b3f98adc14610152578063d8bff5a51461016e57610086565b806309eef43e1461008a5780633e118090146100ba5780634717f97c146100d85780635c8d9541146100f8575b5f5ffd5b6100a4600480360381019061009f919061054a565b61019e565b6040516100b1919061058f565b60405180910390f35b6100c26101bb565b6040516100cf91906105c0565b60405180910390f35b6100e06101c1565b6040516100ef939291906105d9565b60405180910390f35b6101006101d8565b60405161010d91906105c0565b60405180910390f35b61011e6101de565b60405161012b9190610681565b60405180910390f35b61013c6102b6565b60405161014991906105c0565b60405180910390f35b61016c600480360381019061016791906106bd565b6102bc565b005b6101886004803603810190610183919061054a565b6104d0565b6040516101959190610681565b60405180910390f35b6001602052805f5260405f205f915054906101000a900460ff1681565b60045481565b5f5f5f600254600354600454925092509250909192565b60025481565b5f60015f3373ffffffffffffffffffffffffffffffffffffffff1673ffffffffffffffffffffffffffffffffffffffff1681526020019081526020015f205f9054906101000a900460ff16610268576040517f08c379a000000000000000000000000000000000000000000000000000000000815260040161025f90610742565b60405180910390fd5b5f5f3373ffffffffffffffffffffffffffffffffffffffff1673ffffffffffffffffffffffffffffffffffffffff1681526020019081526020015f205f9054906101000a900460ff16905090565b60035481565b60015f3373ffffffffffffffffffffffffffffffffffffffff1673ffffffffffffffffffffffffffffffffffffffff1681526020019081526020015f205f9054906101000a900460ff1615610346576040517f08c379a000000000000000000000000000000000000000000000000000000000815260040161033d906107aa565b60405180910390fd5b805f5f3373ffffffffffffffffffffffffffffffffffffffff1673ffffffffffffffffffffffffffffffffffffffff1681526020019081526020015f205f6101000a81548160ff021916908360028111156103a4576103a361060e565b5b02179055506001805f3373ffffffffffffffffffffffffffffffffffffffff1673ffffffffffffffffffffffffffffffffffffffff1681526020019081526020015f205f6101000a81548160ff0219169083151502179055505f60028111156104105761040f61060e565b5b8160028111156104235761042261060e565b5b0361044257600160025f82825461043a91906107f5565b925050819055505b600160028111156104565761045561060e565b5b8160028111156104695761046861060e565b5b0361048857600160035f82825461048091906107f5565b925050819055505b60028081111561049b5761049a61060e565b5b8160028111156104ae576104ad61060e565b5b036104cd57600160045f8282546104c591906107f5565b925050819055505b50565b5f602052805f5260405f205f915054906101000a900460ff1681565b5f5ffd5b5f73ffffffffffffffffffffffffffffffffffffffff82169050919050565b5f610519826104f0565b9050919050565b6105298161050f565b8114610533575f5ffd5b50565b5f8135905061054481610520565b92915050565b5f6020828403121561055f5761055e6104ec565b5b5f61056c84828501610536565b91505092915050565b5f8115159050919050565b61058981610575565b82525050565b5f6020820190506105a25f830184610580565b92915050565b5f819050919050565b6105ba816105a8565b82525050565b5f6020820190506105d35f8301846105b1565b92915050565b5f6060820190506105ec5f8301866105b1565b6105f960208301856105b1565b61060660408301846105b1565b949350505050565b7f4e487b71000000000000000000000000000000000000000000000000000000005f52602160045260245ffd5b6003811061064c5761064b61060e565b5b50565b5f81905061065c8261063b565b919050565b5f61066b8261064f565b9050919050565b61067b81610661565b82525050565b5f6020820190506106945f830184610672565b92915050565b600381106106a6575f5ffd5b50565b5f813590506106b78161069a565b92915050565b5f602082840312156106d2576106d16104ec565b5b5f6106df848285016106a9565b91505092915050565b5f82825260208201905092915050565b7f596f7520686176656e277420766f7465640000000000000000000000000000005f82015250565b5f61072c6011836106e8565b9150610737826106f8565b602082019050919050565b5f6020820190508181035f83015261075981610720565b9050919050565b7f596f752061726520766f746564207965740000000000000000000000000000005f82015250565b5f6107946011836106e8565b915061079f82610760565b602082019050919050565b5f6020820190508181035f8301526107c181610788565b9050919050565b7f4e487b71000000000000000000000000000000000000000000000000000000005f52601160045260245ffd5b5f6107ff826105a8565b915061080a836105a8565b9250828201905080821115610822576108216107c8565b5b9291505056fea2646970667358221220db8e8250aa7d25b1af6e54d2f31d1f25c0351cf85b98d39c94d35ca07b15708e64736f6c634300081f0033",
					"opcodes": "PUSH1 0x80 PUSH1 0x40 MSTORE CALLVALUE DUP1 ISZERO PUSH1 0xE JUMPI PUSH0 PUSH0 REVERT JUMPDEST POP PUSH2 0x85E DUP1 PUSH2 0x1C PUSH0 CODECOPY PUSH0 RETURN INVALID PUSH1 0x80 PUSH1 0x40 MSTORE CALLVALUE DUP1 ISZERO PUSH2 0xF JUMPI PUSH0 PUSH0 REVERT JUMPDEST POP PUSH1 0x4 CALLDATASIZE LT PUSH2 0x86 JUMPI PUSH0 CALLDATALOAD PUSH1 0xE0 SHR DUP1 PUSH4 0x8CB647D3 GT PUSH2 0x59 JUMPI DUP1 PUSH4 0x8CB647D3 EQ PUSH2 0x116 JUMPI DUP1 PUSH4 0xA2FCBAD7 EQ PUSH2 0x134 JUMPI DUP1 PUSH4 0xB3F98ADC EQ PUSH2 0x152 JUMPI DUP1 PUSH4 0xD8BFF5A5 EQ PUSH2 0x16E JUMPI PUSH2 0x86 JUMP JUMPDEST DUP1 PUSH4 0x9EEF43E EQ PUSH2 0x8A JUMPI DUP1 PUSH4 0x3E118090 EQ PUSH2 0xBA JUMPI DUP1 PUSH4 0x4717F97C EQ PUSH2 0xD8 JUMPI DUP1 PUSH4 0x5C8D9541 EQ PUSH2 0xF8 JUMPI JUMPDEST PUSH0 PUSH0 REVERT JUMPDEST PUSH2 0xA4 PUSH1 0x4 DUP1 CALLDATASIZE SUB DUP2 ADD SWAP1 PUSH2 0x9F SWAP2 SWAP1 PUSH2 0x54A JUMP JUMPDEST PUSH2 0x19E JUMP JUMPDEST PUSH1 0x40 MLOAD PUSH2 0xB1 SWAP2 SWAP1 PUSH2 0x58F JUMP JUMPDEST PUSH1 0x40 MLOAD DUP1 SWAP2 SUB SWAP1 RETURN JUMPDEST PUSH2 0xC2 PUSH2 0x1BB JUMP JUMPDEST PUSH1 0x40 MLOAD PUSH2 0xCF SWAP2 SWAP1 PUSH2 0x5C0 JUMP JUMPDEST PUSH1 0x40 MLOAD DUP1 SWAP2 SUB SWAP1 RETURN JUMPDEST PUSH2 0xE0 PUSH2 0x1C1 JUMP JUMPDEST PUSH1 0x40 MLOAD PUSH2 0xEF SWAP4 SWAP3 SWAP2 SWAP1 PUSH2 0x5D9 JUMP JUMPDEST PUSH1 0x40 MLOAD DUP1 SWAP2 SUB SWAP1 RETURN JUMPDEST PUSH2 0x100 PUSH2 0x1D8 JUMP JUMPDEST PUSH1 0x40 MLOAD PUSH2 0x10D SWAP2 SWAP1 PUSH2 0x5C0 JUMP JUMPDEST PUSH1 0x40 MLOAD DUP1 SWAP2 SUB SWAP1 RETURN JUMPDEST PUSH2 0x11E PUSH2 0x1DE JUMP JUMPDEST PUSH1 0x40 MLOAD PUSH2 0x12B SWAP2 SWAP1 PUSH2 0x681 JUMP JUMPDEST PUSH1 0x40 MLOAD DUP1 SWAP2 SUB SWAP1 RETURN JUMPDEST PUSH2 0x13C PUSH2 0x2B6 JUMP JUMPDEST PUSH1 0x40 MLOAD PUSH2 0x149 SWAP2 SWAP1 PUSH2 0x5C0 JUMP JUMPDEST PUSH1 0x40 MLOAD DUP1 SWAP2 SUB SWAP1 RETURN JUMPDEST PUSH2 0x16C PUSH1 0x4 DUP1 CALLDATASIZE SUB DUP2 ADD SWAP1 PUSH2 0x167 SWAP2 SWAP1 PUSH2 0x6BD JUMP JUMPDEST PUSH2 0x2BC JUMP JUMPDEST STOP JUMPDEST PUSH2 0x188 PUSH1 0x4 DUP1 CALLDATASIZE SUB DUP2 ADD SWAP1 PUSH2 0x183 SWAP2 SWAP1 PUSH2 0x54A JUMP JUMPDEST PUSH2 0x4D0 JUMP JUMPDEST PUSH1 0x40 MLOAD PUSH2 0x195 SWAP2 SWAP1 PUSH2 0x681 JUMP JUMPDEST PUSH1 0x40 MLOAD DUP1 SWAP2 SUB SWAP1 RETURN JUMPDEST PUSH1 0x1 PUSH1 0x20 MSTORE DUP1 PUSH0 MSTORE PUSH1 0x40 PUSH0 KECCAK256 PUSH0 SWAP2 POP SLOAD SWAP1 PUSH2 0x100 EXP SWAP1 DIV PUSH1 0xFF AND DUP2 JUMP JUMPDEST PUSH1 0x4 SLOAD DUP2 JUMP JUMPDEST PUSH0 PUSH0 PUSH0 PUSH1 0x2 SLOAD PUSH1 0x3 SLOAD PUSH1 0x4 SLOAD SWAP3 POP SWAP3 POP SWAP3 POP SWAP1 SWAP2 SWAP3 JUMP JUMPDEST PUSH1 0x2 SLOAD DUP2 JUMP JUMPDEST PUSH0 PUSH1 0x1 PUSH0 CALLER PUSH20 0xFFFFFFFFFFFFFFFFFFFFFFFFFFFFFFFFFFFFFFFF AND PUSH20 0xFFFFFFFFFFFFFFFFFFFFFFFFFFFFFFFFFFFFFFFF AND DUP2 MSTORE PUSH1 0x20 ADD SWAP1 DUP2 MSTORE PUSH1 0x20 ADD PUSH0 KECCAK256 PUSH0 SWAP1 SLOAD SWAP1 PUSH2 0x100 EXP SWAP1 DIV PUSH1 0xFF AND PUSH2 0x268 JUMPI PUSH1 0x40 MLOAD PUSH32 0x8C379A000000000000000000000000000000000000000000000000000000000 DUP2 MSTORE PUSH1 0x4 ADD PUSH2 0x25F SWAP1 PUSH2 0x742 JUMP JUMPDEST PUSH1 0x40 MLOAD DUP1 SWAP2 SUB SWAP1 REVERT JUMPDEST PUSH0 PUSH0 CALLER PUSH20 0xFFFFFFFFFFFFFFFFFFFFFFFFFFFFFFFFFFFFFFFF AND PUSH20 0xFFFFFFFFFFFFFFFFFFFFFFFFFFFFFFFFFFFFFFFF AND DUP2 MSTORE PUSH1 0x20 ADD SWAP1 DUP2 MSTORE PUSH1 0x20 ADD PUSH0 KECCAK256 PUSH0 SWAP1 SLOAD SWAP1 PUSH2 0x100 EXP SWAP1 DIV PUSH1 0xFF AND SWAP1 POP SWAP1 JUMP JUMPDEST PUSH1 0x3 SLOAD DUP2 JUMP JUMPDEST PUSH1 0x1 PUSH0 CALLER PUSH20 0xFFFFFFFFFFFFFFFFFFFFFFFFFFFFFFFFFFFFFFFF AND PUSH20 0xFFFFFFFFFFFFFFFFFFFFFFFFFFFFFFFFFFFFFFFF AND DUP2 MSTORE PUSH1 0x20 ADD SWAP1 DUP2 MSTORE PUSH1 0x20 ADD PUSH0 KECCAK256 PUSH0 SWAP1 SLOAD SWAP1 PUSH2 0x100 EXP SWAP1 DIV PUSH1 0xFF AND ISZERO PUSH2 0x346 JUMPI PUSH1 0x40 MLOAD PUSH32 0x8C379A000000000000000000000000000000000000000000000000000000000 DUP2 MSTORE PUSH1 0x4 ADD PUSH2 0x33D SWAP1 PUSH2 0x7AA JUMP JUMPDEST PUSH1 0x40 MLOAD DUP1 SWAP2 SUB SWAP1 REVERT JUMPDEST DUP1 PUSH0 PUSH0 CALLER PUSH20 0xFFFFFFFFFFFFFFFFFFFFFFFFFFFFFFFFFFFFFFFF AND PUSH20 0xFFFFFFFFFFFFFFFFFFFFFFFFFFFFFFFFFFFFFFFF AND DUP2 MSTORE PUSH1 0x20 ADD SWAP1 DUP2 MSTORE PUSH1 0x20 ADD PUSH0 KECCAK256 PUSH0 PUSH2 0x100 EXP DUP2 SLOAD DUP2 PUSH1 0xFF MUL NOT AND SWAP1 DUP4 PUSH1 0x2 DUP2 GT ISZERO PUSH2 0x3A4 JUMPI PUSH2 0x3A3 PUSH2 0x60E JUMP JUMPDEST JUMPDEST MUL OR SWAP1 SSTORE POP PUSH1 0x1 DUP1 PUSH0 CALLER PUSH20 0xFFFFFFFFFFFFFFFFFFFFFFFFFFFFFFFFFFFFFFFF AND PUSH20 0xFFFFFFFFFFFFFFFFFFFFFFFFFFFFFFFFFFFFFFFF AND DUP2 MSTORE PUSH1 0x20 ADD SWAP1 DUP2 MSTORE PUSH1 0x20 ADD PUSH0 KECCAK256 PUSH0 PUSH2 0x100 EXP DUP2 SLOAD DUP2 PUSH1 0xFF MUL NOT AND SWAP1 DUP4 ISZERO ISZERO MUL OR SWAP1 SSTORE POP PUSH0 PUSH1 0x2 DUP2 GT ISZERO PUSH2 0x410 JUMPI PUSH2 0x40F PUSH2 0x60E JUMP JUMPDEST JUMPDEST DUP2 PUSH1 0x2 DUP2 GT ISZERO PUSH2 0x423 JUMPI PUSH2 0x422 PUSH2 0x60E JUMP JUMPDEST JUMPDEST SUB PUSH2 0x442 JUMPI PUSH1 0x1 PUSH1 0x2 PUSH0 DUP3 DUP3 SLOAD PUSH2 0x43A SWAP2 SWAP1 PUSH2 0x7F5 JUMP JUMPDEST SWAP3 POP POP DUP2 SWAP1 SSTORE POP JUMPDEST PUSH1 0x1 PUSH1 0x2 DUP2 GT ISZERO PUSH2 0x456 JUMPI PUSH2 0x455 PUSH2 0x60E JUMP JUMPDEST JUMPDEST DUP2 PUSH1 0x2 DUP2 GT ISZERO PUSH2 0x469 JUMPI PUSH2 0x468 PUSH2 0x60E JUMP JUMPDEST JUMPDEST SUB PUSH2 0x488 JUMPI PUSH1 0x1 PUSH1 0x3 PUSH0 DUP3 DUP3 SLOAD PUSH2 0x480 SWAP2 SWAP1 PUSH2 0x7F5 JUMP JUMPDEST SWAP3 POP POP DUP2 SWAP1 SSTORE POP JUMPDEST PUSH1 0x2 DUP1 DUP2 GT ISZERO PUSH2 0x49B JUMPI PUSH2 0x49A PUSH2 0x60E JUMP JUMPDEST JUMPDEST DUP2 PUSH1 0x2 DUP2 GT ISZERO PUSH2 0x4AE JUMPI PUSH2 0x4AD PUSH2 0x60E JUMP JUMPDEST JUMPDEST SUB PUSH2 0x4CD JUMPI PUSH1 0x1 PUSH1 0x4 PUSH0 DUP3 DUP3 SLOAD PUSH2 0x4C5 SWAP2 SWAP1 PUSH2 0x7F5 JUMP JUMPDEST SWAP3 POP POP DUP2 SWAP1 SSTORE POP JUMPDEST POP JUMP JUMPDEST PUSH0 PUSH1 0x20 MSTORE DUP1 PUSH0 MSTORE PUSH1 0x40 PUSH0 KECCAK256 PUSH0 SWAP2 POP SLOAD SWAP1 PUSH2 0x100 EXP SWAP1 DIV PUSH1 0xFF AND DUP2 JUMP JUMPDEST PUSH0 PUSH0 REVERT JUMPDEST PUSH0 PUSH20 0xFFFFFFFFFFFFFFFFFFFFFFFFFFFFFFFFFFFFFFFF DUP3 AND SWAP1 POP SWAP2 SWAP1 POP JUMP JUMPDEST PUSH0 PUSH2 0x519 DUP3 PUSH2 0x4F0 JUMP JUMPDEST SWAP1 POP SWAP2 SWAP1 POP JUMP JUMPDEST PUSH2 0x529 DUP2 PUSH2 0x50F JUMP JUMPDEST DUP2 EQ PUSH2 0x533 JUMPI PUSH0 PUSH0 REVERT JUMPDEST POP JUMP JUMPDEST PUSH0 DUP2 CALLDATALOAD SWAP1 POP PUSH2 0x544 DUP2 PUSH2 0x520 JUMP JUMPDEST SWAP3 SWAP2 POP POP JUMP JUMPDEST PUSH0 PUSH1 0x20 DUP3 DUP5 SUB SLT ISZERO PUSH2 0x55F JUMPI PUSH2 0x55E PUSH2 0x4EC JUMP JUMPDEST JUMPDEST PUSH0 PUSH2 0x56C DUP5 DUP3 DUP6 ADD PUSH2 0x536 JUMP JUMPDEST SWAP2 POP POP SWAP3 SWAP2 POP POP JUMP JUMPDEST PUSH0 DUP2 ISZERO ISZERO SWAP1 POP SWAP2 SWAP1 POP JUMP JUMPDEST PUSH2 0x589 DUP2 PUSH2 0x575 JUMP JUMPDEST DUP3 MSTORE POP POP JUMP JUMPDEST PUSH0 PUSH1 0x20 DUP3 ADD SWAP1 POP PUSH2 0x5A2 PUSH0 DUP4 ADD DUP5 PUSH2 0x580 JUMP JUMPDEST SWAP3 SWAP2 POP POP JUMP JUMPDEST PUSH0 DUP2 SWAP1 POP SWAP2 SWAP1 POP JUMP JUMPDEST PUSH2 0x5BA DUP2 PUSH2 0x5A8 JUMP JUMPDEST DUP3 MSTORE POP POP JUMP JUMPDEST PUSH0 PUSH1 0x20 DUP3 ADD SWAP1 POP PUSH2 0x5D3 PUSH0 DUP4 ADD DUP5 PUSH2 0x5B1 JUMP JUMPDEST SWAP3 SWAP2 POP POP JUMP JUMPDEST PUSH0 PUSH1 0x60 DUP3 ADD SWAP1 POP PUSH2 0x5EC PUSH0 DUP4 ADD DUP7 PUSH2 0x5B1 JUMP JUMPDEST PUSH2 0x5F9 PUSH1 0x20 DUP4 ADD DUP6 PUSH2 0x5B1 JUMP JUMPDEST PUSH2 0x606 PUSH1 0x40 DUP4 ADD DUP5 PUSH2 0x5B1 JUMP JUMPDEST SWAP5 SWAP4 POP POP POP POP JUMP JUMPDEST PUSH32 0x4E487B7100000000000000000000000000000000000000000000000000000000 PUSH0 MSTORE PUSH1 0x21 PUSH1 0x4 MSTORE PUSH1 0x24 PUSH0 REVERT JUMPDEST PUSH1 0x3 DUP2 LT PUSH2 0x64C JUMPI PUSH2 0x64B PUSH2 0x60E JUMP JUMPDEST JUMPDEST POP JUMP JUMPDEST PUSH0 DUP2 SWAP1 POP PUSH2 0x65C DUP3 PUSH2 0x63B JUMP JUMPDEST SWAP2 SWAP1 POP JUMP JUMPDEST PUSH0 PUSH2 0x66B DUP3 PUSH2 0x64F JUMP JUMPDEST SWAP1 POP SWAP2 SWAP1 POP JUMP JUMPDEST PUSH2 0x67B DUP2 PUSH2 0x661 JUMP JUMPDEST DUP3 MSTORE POP POP JUMP JUMPDEST PUSH0 PUSH1 0x20 DUP3 ADD SWAP1 POP PUSH2 0x694 PUSH0 DUP4 ADD DUP5 PUSH2 0x672 JUMP JUMPDEST SWAP3 SWAP2 POP POP JUMP JUMPDEST PUSH1 0x3 DUP2 LT PUSH2 0x6A6 JUMPI PUSH0 PUSH0 REVERT JUMPDEST POP JUMP JUMPDEST PUSH0 DUP2 CALLDATALOAD SWAP1 POP PUSH2 0x6B7 DUP2 PUSH2 0x69A JUMP JUMPDEST SWAP3 SWAP2 POP POP JUMP JUMPDEST PUSH0 PUSH1 0x20 DUP3 DUP5 SUB SLT ISZERO PUSH2 0x6D2 JUMPI PUSH2 0x6D1 PUSH2 0x4EC JUMP JUMPDEST JUMPDEST PUSH0 PUSH2 0x6DF DUP5 DUP3 DUP6 ADD PUSH2 0x6A9 JUMP JUMPDEST SWAP2 POP POP SWAP3 SWAP2 POP POP JUMP JUMPDEST PUSH0 DUP3 DUP3 MSTORE PUSH1 0x20 DUP3 ADD SWAP1 POP SWAP3 SWAP2 POP POP JUMP JUMPDEST PUSH32 0x596F7520686176656E277420766F746564000000000000000000000000000000 PUSH0 DUP3 ADD MSTORE POP JUMP JUMPDEST PUSH0 PUSH2 0x72C PUSH1 0x11 DUP4 PUSH2 0x6E8 JUMP JUMPDEST SWAP2 POP PUSH2 0x737 DUP3 PUSH2 0x6F8 JUMP JUMPDEST PUSH1 0x20 DUP3 ADD SWAP1 POP SWAP2 SWAP1 POP JUMP JUMPDEST PUSH0 PUSH1 0x20 DUP3 ADD SWAP1 POP DUP2 DUP2 SUB PUSH0 DUP4 ADD MSTORE PUSH2 0x759 DUP2 PUSH2 0x720 JUMP JUMPDEST SWAP1 POP SWAP2 SWAP1 POP JUMP JUMPDEST PUSH32 0x596F752061726520766F74656420796574000000000000000000000000000000 PUSH0 DUP3 ADD MSTORE POP JUMP JUMPDEST PUSH0 PUSH2 0x794 PUSH1 0x11 DUP4 PUSH2 0x6E8 JUMP JUMPDEST SWAP2 POP PUSH2 0x79F DUP3 PUSH2 0x760 JUMP JUMPDEST PUSH1 0x20 DUP3 ADD SWAP1 POP SWAP2 SWAP1 POP JUMP JUMPDEST PUSH0 PUSH1 0x20 DUP3 ADD SWAP1 POP DUP2 DUP2 SUB PUSH0 DUP4 ADD MSTORE PUSH2 0x7C1 DUP2 PUSH2 0x788 JUMP JUMPDEST SWAP1 POP SWAP2 SWAP1 POP JUMP JUMPDEST PUSH32 0x4E487B7100000000000000000000000000000000000000000000000000000000 PUSH0 MSTORE PUSH1 0x11 PUSH1 0x4 MSTORE PUSH1 0x24 PUSH0 REVERT JUMPDEST PUSH0 PUSH2 0x7FF DUP3 PUSH2 0x5A8 JUMP JUMPDEST SWAP2 POP PUSH2 0x80A DUP4 PUSH2 0x5A8 JUMP JUMPDEST SWAP3 POP DUP3 DUP3 ADD SWAP1 POP DUP1 DUP3 GT ISZERO PUSH2 0x822 JUMPI PUSH2 0x821 PUSH2 0x7C8 JUMP JUMPDEST JUMPDEST SWAP3 SWAP2 POP POP JUMP INVALID LOG2 PUSH5 0x6970667358 0x22 SLT KECCAK256 0xDB DUP15 DUP3 POP 0xAA PUSH30 0x25B1AF6E54D2F31D1F25C0351CF85B98D39C94D35CA07B15708E64736F6C PUSH4 0x4300081F STOP CALLER "
				},
				"gasEstimates": {
					"creation": {
						"codeDepositCost": "428400",
						"executionCost": "459",
						"totalCost": "428859"
					},
					"external": {
						"abstainCount()": "2448",
						"getMyVote()": "4886",
						"getResults()": "infinite",
						"hasVoted(address)": "2834",
						"noCount()": "2447",
						"vote(uint8)": "infinite",
						"votes(address)": "2986",
						"yesCount()": "2492"
					}
				},
				"methodIdentifiers": {
					"abstainCount()": "3e118090",
					"getMyVote()": "8cb647d3",
					"getResults()": "4717f97c",
					"hasVoted(address)": "09eef43e",
					"noCount()": "a2fcbad7",
					"vote(uint8)": "b3f98adc",
					"votes(address)": "d8bff5a5",
					"yesCount()": "5c8d9541"
				}
			},
			"storageLayout": {
				"storage": [
					{
						"astId": 10,
						"contract": "contracts/VotingSystem.sol:VotingSystem",
						"label": "votes",
						"offset": 0,
						"slot": "0",
						"type": "t_mapping(t_address,t_enum(Vote)5)"
					},
					{
						"astId": 14,
						"contract": "contracts/VotingSystem.sol:VotingSystem",
						"label": "hasVoted",
						"offset": 0,
						"slot": "1",
						"type": "t_mapping(t_address,t_bool)"
					},
					{
						"astId": 16,
						"contract": "contracts/VotingSystem.sol:VotingSystem",
						"label": "yesCount",
						"offset": 0,
						"slot": "2",
						"type": "t_uint256"
					},
					{
						"astId": 18,
						"contract": "contracts/VotingSystem.sol:VotingSystem",
						"label": "noCount",
						"offset": 0,
						"slot": "3",
						"type": "t_uint256"
					},
					{
						"astId": 20,
						"contract": "contracts/VotingSystem.sol:VotingSystem",
						"label": "abstainCount",
						"offset": 0,
						"slot": "4",
						"type": "t_uint256"
					}
				],
				"types": {
					"t_address": {
						"encoding": "inplace",
						"label": "address",
						"numberOfBytes": "20"
					},
					"t_bool": {
						"encoding": "inplace",
						"label": "bool",
						"numberOfBytes": "1"
					},
					"t_enum(Vote)5": {
						"encoding": "inplace",
						"label": "enum VotingSystem.Vote",
						"numberOfBytes": "1"
					},
					"t_mapping(t_address,t_bool)": {
						"encoding": "mapping",
						"key": "t_address",
						"label": "mapping(address => bool)",
						"numberOfBytes": "32",
						"value": "t_bool"
					},
					"t_mapping(t_address,t_enum(Vote)5)": {
						"encoding": "mapping",
						"key": "t_address",
						"label": "mapping(address => enum VotingSystem.Vote)",
						"numberOfBytes": "32",
						"value": "t_enum(Vote)5"
					},
					"t_uint256": {
						"encoding": "inplace",
						"label": "uint256",
						"numberOfBytes": "32"
					}
				}
			},
			"userdoc": {
				"kind": "user",
				"methods": {},
				"version": 1
			}
		}
	}
}