{
	"data": {
		"bytecode": {
			"linkReferences": {},
			"object": "6080604052348015600e575f5ffd5b5061038c8061001c5f395ff3fe608060405234801561000f575f5ffd5b5060043610610034575f3560e01c8063912d1afc14610038578063c89b40b314610068575b5f5ffd5b610052600480360381019061004d9190610243565b610098565b60405161005f9190610299565b60405180910390f35b610082600480360381019061007d919061030b565b6100a2565b60405161008f9190610299565b60405180910390f35b5f81519050919050565b5f82829050905092915050565b5f604051905090565b5f5ffd5b5f5ffd5b5f5ffd5b5f601f19601f8301169050919050565b7f4e487b71000000000000000000000000000000000000000000000000000000005f52604160045260245ffd5b61010a826100c4565b810181811067ffffffffffffffff82111715610129576101286100d4565b5b80604052505050565b5f61013b6100af565b90506101478282610101565b919050565b5f67ffffffffffffffff821115610166576101656100d4565b5b602082029050602081019050919050565b5f5ffd5b5f819050919050565b61018d8161017b565b8114610197575f5ffd5b50565b5f813590506101a881610184565b92915050565b5f6101c06101bb8461014c565b610132565b905080838252602082019050602084028301858111156101e3576101e2610177565b5b835b8181101561020c57806101f8888261019a565b8452602084019350506020810190506101e5565b5050509392505050565b5f82601f83011261022a576102296100c0565b5b813561023a8482602086016101ae565b91505092915050565b5f60208284031215610258576102576100b8565b5b5f82013567ffffffffffffffff811115610275576102746100bc565b5b61028184828501610216565b91505092915050565b6102938161017b565b82525050565b5f6020820190506102ac5f83018461028a565b92915050565b5f5ffd5b5f5f83601f8401126102cb576102ca6100c0565b5b8235905067ffffffffffffffff8111156102e8576102e76102b2565b5b60208301915083602082028301111561030457610303610177565b5b9250929050565b5f5f60208385031215610321576103206100b8565b5b5f83013567ffffffffffffffff81111561033e5761033d6100bc565b5b61034a858286016102b6565b9250925050925092905056fea2646970667358221220d87518273fba99fb806ff45d492a1ffa494157187d14c17489b968583414323d64736f6c634300081e0033",
			"opcodes": "PUSH1 0x80 PUSH1 0x40 MSTORE CALLVALUE DUP1 ISZERO PUSH1 0xE JUMPI PUSH0 PUSH0 REVERT JUMPDEST POP PUSH2 0x38C DUP1 PUSH2 0x1C PUSH0 CODECOPY PUSH0 RETURN INVALID PUSH1 0x80 PUSH1 0x40 MSTORE CALLVALUE DUP1 ISZERO PUSH2 0xF JUMPI PUSH0 PUSH0 REVERT JUMPDEST POP PUSH1 0x4 CALLDATASIZE LT PUSH2 0x34 JUMPI PUSH0 CALLDATALOAD PUSH1 0xE0 SHR DUP1 PUSH4 0x912D1AFC EQ PUSH2 0x38 JUMPI DUP1 PUSH4 0xC89B40B3 EQ PUSH2 0x68 JUMPI JUMPDEST PUSH0 PUSH0 REVERT JUMPDEST PUSH2 0x52 PUSH1 0x4 DUP1 CALLDATASIZE SUB DUP2 ADD SWAP1 PUSH2 0x4D SWAP2 SWAP1 PUSH2 0x243 JUMP JUMPDEST PUSH2 0x98 JUMP JUMPDEST PUSH1 0x40 MLOAD PUSH2 0x5F SWAP2 SWAP1 PUSH2 0x299 JUMP JUMPDEST PUSH1 0x40 MLOAD DUP1 SWAP2 SUB SWAP1 RETURN JUMPDEST PUSH2 0x82 PUSH1 0x4 DUP1 CALLDATASIZE SUB DUP2 ADD SWAP1 PUSH2 0x7D SWAP2 SWAP1 PUSH2 0x30B JUMP JUMPDEST PUSH2 0xA2 JUMP JUMPDEST PUSH1 0x40 MLOAD PUSH2 0x8F SWAP2 SWAP1 PUSH2 0x299 JUMP JUMPDEST PUSH1 0x40 MLOAD DUP1 SWAP2 SUB SWAP1 RETURN JUMPDEST PUSH0 DUP2 MLOAD SWAP1 POP SWAP2 SWAP1 POP JUMP JUMPDEST PUSH0 DUP3 DUP3 SWAP1 POP SWAP1 POP SWAP3 SWAP2 POP POP JUMP JUMPDEST PUSH0 PUSH1 0x40 MLOAD SWAP1 POP SWAP1 JUMP JUMPDEST PUSH0 PUSH0 REVERT JUMPDEST PUSH0 PUSH0 REVERT JUMPDEST PUSH0 PUSH0 REVERT JUMPDEST PUSH0 PUSH1 0x1F NOT PUSH1 0x1F DUP4 ADD AND SWAP1 POP SWAP2 SWAP1 POP JUMP JUMPDEST PUSH32 0x4E487B7100000000000000000000000000000000000000000000000000000000 PUSH0 MSTORE PUSH1 0x41 PUSH1 0x4 MSTORE PUSH1 0x24 PUSH0 REVERT JUMPDEST PUSH2 0x10A DUP3 PUSH2 0xC4 JUMP JUMPDEST DUP2 ADD DUP2 DUP2 LT PUSH8 0xFFFFFFFFFFFFFFFF DUP3 GT OR ISZERO PUSH2 0x129 JUMPI PUSH2 0x128 PUSH2 0xD4 JUMP JUMPDEST JUMPDEST DUP1 PUSH1 0x40 MSTORE POP POP POP JUMP JUMPDEST PUSH0 PUSH2 0x13B PUSH2 0xAF JUMP JUMPDEST SWAP1 POP PUSH2 0x147 DUP3 DUP3 PUSH2 0x101 JUMP JUMPDEST SWAP2 SWAP1 POP JUMP JUMPDEST PUSH0 PUSH8 0xFFFFFFFFFFFFFFFF DUP3 GT ISZERO PUSH2 0x166 JUMPI PUSH2 0x165 PUSH2 0xD4 JUMP JUMPDEST JUMPDEST PUSH1 0x20 DUP3 MUL SWAP1 POP PUSH1 0x20 DUP2 ADD SWAP1 POP SWAP2 SWAP1 POP JUMP JUMPDEST PUSH0 PUSH0 REVERT JUMPDEST PUSH0 DUP2 SWAP1 POP SWAP2 SWAP1 POP JUMP JUMPDEST PUSH2 0x18D DUP2 PUSH2 0x17B JUMP JUMPDEST DUP2 EQ PUSH2 0x197 JUMPI PUSH0 PUSH0 REVERT JUMPDEST POP JUMP JUMPDEST PUSH0 DUP2 CALLDATALOAD SWAP1 POP PUSH2 0x1A8 DUP2 PUSH2 0x184 JUMP JUMPDEST SWAP3 SWAP2 POP POP JUMP JUMPDEST PUSH0 PUSH2 0x1C0 PUSH2 0x1BB DUP5 PUSH2 0x14C JUMP JUMPDEST PUSH2 0x132 JUMP JUMPDEST SWAP1 POP DUP1 DUP4 DUP3 MSTORE PUSH1 0x20 DUP3 ADD SWAP1 POP PUSH1 0x20 DUP5 MUL DUP4 ADD DUP6 DUP2 GT ISZERO PUSH2 0x1E3 JUMPI PUSH2 0x1E2 PUSH2 0x177 JUMP JUMPDEST JUMPDEST DUP4 JUMPDEST DUP2 DUP2 LT ISZERO PUSH2 0x20C JUMPI DUP1 PUSH2 0x1F8 DUP9 DUP3 PUSH2 0x19A JUMP JUMPDEST DUP5 MSTORE PUSH1 0x20 DUP5 ADD SWAP4 POP POP PUSH1 0x20 DUP2 ADD SWAP1 POP PUSH2 0x1E5 JUMP JUMPDEST POP POP POP SWAP4 SWAP3 POP POP POP JUMP JUMPDEST PUSH0 DUP3 PUSH1 0x1F DUP4 ADD SLT PUSH2 0x22A JUMPI PUSH2 0x229 PUSH2 0xC0 JUMP JUMPDEST JUMPDEST DUP2 CALLDATALOAD PUSH2 0x23A DUP5 DUP3 PUSH1 0x20 DUP7 ADD PUSH2 0x1AE JUMP JUMPDEST SWAP2 POP POP SWAP3 SWAP2 POP POP JUMP JUMPDEST PUSH0 PUSH1 0x20 DUP3 DUP5 SUB SLT ISZERO PUSH2 0x258 JUMPI PUSH2 0x257 PUSH2 0xB8 JUMP JUMPDEST JUMPDEST PUSH0 DUP3 ADD CALLDATALOAD PUSH8 0xFFFFFFFFFFFFFFFF DUP2 GT ISZERO PUSH2 0x275 JUMPI PUSH2 0x274 PUSH2 0xBC JUMP JUMPDEST JUMPDEST PUSH2 0x281 DUP5 DUP3 DUP6 ADD PUSH2 0x216 JUMP JUMPDEST SWAP2 POP POP SWAP3 SWAP2 POP POP JUMP JUMPDEST PUSH2 0x293 DUP2 PUSH2 0x17B JUMP JUMPDEST DUP3 MSTORE POP POP JUMP JUMPDEST PUSH0 PUSH1 0x20 DUP3 ADD SWAP1 POP PUSH2 0x2AC PUSH0 DUP4 ADD DUP5 PUSH2 0x28A JUMP JUMPDEST SWAP3 SWAP2 POP POP JUMP JUMPDEST PUSH0 PUSH0 REVERT JUMPDEST PUSH0 PUSH0 DUP4 PUSH1 0x1F DUP5 ADD SLT PUSH2 0x2CB JUMPI PUSH2 0x2CA PUSH2 0xC0 JUMP JUMPDEST JUMPDEST DUP3 CALLDATALOAD SWAP1 POP PUSH8 0xFFFFFFFFFFFFFFFF DUP2 GT ISZERO PUSH2 0x2E8 JUMPI PUSH2 0x2E7 PUSH2 0x2B2 JUMP JUMPDEST JUMPDEST PUSH1 0x20 DUP4 ADD SWAP2 POP DUP4 PUSH1 0x20 DUP3 MUL DUP4 ADD GT ISZERO PUSH2 0x304 JUMPI PUSH2 0x303 PUSH2 0x177 JUMP JUMPDEST JUMPDEST SWAP3 POP SWAP3 SWAP1 POP JUMP JUMPDEST PUSH0 PUSH0 PUSH1 0x20 DUP4 DUP6 SUB SLT ISZERO PUSH2 0x321 JUMPI PUSH2 0x320 PUSH2 0xB8 JUMP JUMPDEST JUMPDEST PUSH0 DUP4 ADD CALLDATALOAD PUSH8 0xFFFFFFFFFFFFFFFF DUP2 GT ISZERO PUSH2 0x33E JUMPI PUSH2 0x33D PUSH2 0xBC JUMP JUMPDEST JUMPDEST PUSH2 0x34A DUP6 DUP3 DUP7 ADD PUSH2 0x2B6 JUMP JUMPDEST SWAP3 POP SWAP3 POP POP SWAP3 POP SWAP3 SWAP1 POP JUMP INVALID LOG2 PUSH5 0x6970667358 0x22 SLT KECCAK256 0xD8 PUSH22 0x18273FBA99FB806FF45D492A1FFA494157187D14C174 DUP10 0xB9 PUSH9 0x583414323D64736F6C PUSH4 0x4300081E STOP CALLER "
		},
		"gasEstimates": {
			"creation": {
				"codeDepositCost": "181600",
				"executionCost": "224",
				"totalCost": "181824"
			},
			"external": {
				"processCalldata(uint256[])": "668",
				"processMemory(uint256[])": "infinite"
			}
		},
		"methodIdentifiers": {
			"processCalldata(uint256[])": "c89b40b3",
			"processMemory(uint256[])": "912d1afc"
		}
	},
	"abi": [
		{
			"inputs": [
				{
					"internalType": "uint256[]",
					"name": "data",
					"type": "uint256[]"
				}
			],
			"name": "processCalldata",
			"outputs": [
				{
					"internalType": "uint256",
					"name": "",
					"type": "uint256"
				}
			],
			"stateMutability": "pure",
			"type": "function"
		},
		{
			"inputs": [
				{
					"internalType": "uint256[]",
					"name": "data",
					"type": "uint256[]"
				}
			],
			"name": "processMemory",
			"outputs": [
				{
					"internalType": "uint256",
					"name": "",
					"type": "uint256"
				}
			],
			"stateMutability": "pure",
			"type": "function"
		}
	]
}