{
	"data": {
		"bytecode": {
			"linkReferences": {},
			"object": "6080604052348015600e575f5ffd5b50335f5f6101000a81548173ffffffffffffffffffffffffffffffffffffffff021916908373ffffffffffffffffffffffffffffffffffffffff1602179055505f5f9054906101000a900473ffffffffffffffffffffffffffffffffffffffff1673ffffffffffffffffffffffffffffffffffffffff165f73ffffffffffffffffffffffffffffffffffffffff167f8be0079c531659141344cd1fd0a4f28419497f9722a3daafe3b4186f6b6457e060405160405180910390a3610463806100d55f395ff3fe608060405234801561000f575f5ffd5b5060043610610034575f3560e01c80638da5cb5b14610038578063ac9a252a14610056575b5f5ffd5b610040610086565b60405161004d91906102a8565b60405180910390f35b610070600480360381019061006b91906102ef565b6100aa565b60405161007d9190610334565b60405180910390f35b5f5f9054906101000a900473ffffffffffffffffffffffffffffffffffffffff1681565b5f3373ffffffffffffffffffffffffffffffffffffffff165f5f9054906101000a900473ffffffffffffffffffffffffffffffffffffffff1673ffffffffffffffffffffffffffffffffffffffff1614610139576040517f08c379a0000000000000000000000000000000000000000000000000000000008152600401610130906103a7565b60405180910390fd5b5f73ffffffffffffffffffffffffffffffffffffffff168273ffffffffffffffffffffffffffffffffffffffff16036101a7576040517f08c379a000000000000000000000000000000000000000000000000000000000815260040161019e9061040f565b60405180910390fd5b8173ffffffffffffffffffffffffffffffffffffffff165f5f9054906101000a900473ffffffffffffffffffffffffffffffffffffffff1673ffffffffffffffffffffffffffffffffffffffff167f8be0079c531659141344cd1fd0a4f28419497f9722a3daafe3b4186f6b6457e060405160405180910390a3815f5f6101000a81548173ffffffffffffffffffffffffffffffffffffffff021916908373ffffffffffffffffffffffffffffffffffffffff16021790555060019050919050565b5f73ffffffffffffffffffffffffffffffffffffffff82169050919050565b5f61029282610269565b9050919050565b6102a281610288565b82525050565b5f6020820190506102bb5f830184610299565b92915050565b5f5ffd5b6102ce81610288565b81146102d8575f5ffd5b50565b5f813590506102e9816102c5565b92915050565b5f60208284031215610304576103036102c1565b5b5f610311848285016102db565b91505092915050565b5f8115159050919050565b61032e8161031a565b82525050565b5f6020820190506103475f830184610325565b92915050565b5f82825260208201905092915050565b7f4f6e6c79206f776e6572000000000000000000000000000000000000000000005f82015250565b5f610391600a8361034d565b915061039c8261035d565b602082019050919050565b5f6020820190508181035f8301526103be81610385565b9050919050565b7f5a65726f206164647265737300000000000000000000000000000000000000005f82015250565b5f6103f9600c8361034d565b9150610404826103c5565b602082019050919050565b5f6020820190508181035f830152610426816103ed565b905091905056fea2646970667358221220f5d16ea215187fb109a7e8f0d2efa6838eaf0217e2db116c4f1eb004dbc3adbf64736f6c634300081e0033",
			"opcodes": "PUSH1 0x80 PUSH1 0x40 MSTORE CALLVALUE DUP1 ISZERO PUSH1 0xE JUMPI PUSH0 PUSH0 REVERT JUMPDEST POP CALLER PUSH0 PUSH0 PUSH2 0x100 EXP DUP2 SLOAD DUP2 PUSH20 0xFFFFFFFFFFFFFFFFFFFFFFFFFFFFFFFFFFFFFFFF MUL NOT AND SWAP1 DUP4 PUSH20 0xFFFFFFFFFFFFFFFFFFFFFFFFFFFFFFFFFFFFFFFF AND MUL OR SWAP1 SSTORE POP PUSH0 PUSH0 SWAP1 SLOAD SWAP1 PUSH2 0x100 EXP SWAP1 DIV PUSH20 0xFFFFFFFFFFFFFFFFFFFFFFFFFFFFFFFFFFFFFFFF AND PUSH20 0xFFFFFFFFFFFFFFFFFFFFFFFFFFFFFFFFFFFFFFFF AND PUSH0 PUSH20 0xFFFFFFFFFFFFFFFFFFFFFFFFFFFFFFFFFFFFFFFF AND PUSH32 0x8BE0079C531659141344CD1FD0A4F28419497F9722A3DAAFE3B4186F6B6457E0 PUSH1 0x40 MLOAD PUSH1 0x40 MLOAD DUP1 SWAP2 SUB SWAP1 LOG3 PUSH2 0x463 DUP1 PUSH2 0xD5 PUSH0 CODECOPY PUSH0 RETURN INVALID PUSH1 0x80 PUSH1 0x40 MSTORE CALLVALUE DUP1 ISZERO PUSH2 0xF JUMPI PUSH0 PUSH0 REVERT JUMPDEST POP PUSH1 0x4 CALLDATASIZE LT PUSH2 0x34 JUMPI PUSH0 CALLDATALOAD PUSH1 0xE0 SHR DUP1 PUSH4 0x8DA5CB5B EQ PUSH2 0x38 JUMPI DUP1 PUSH4 0xAC9A252A EQ PUSH2 0x56 JUMPI JUMPDEST PUSH0 PUSH0 REVERT JUMPDEST PUSH2 0x40 PUSH2 0x86 JUMP JUMPDEST PUSH1 0x40 MLOAD PUSH2 0x4D SWAP2 SWAP1 PUSH2 0x2A8 JUMP JUMPDEST PUSH1 0x40 MLOAD DUP1 SWAP2 SUB SWAP1 RETURN JUMPDEST PUSH2 0x70 PUSH1 0x4 DUP1 CALLDATASIZE SUB DUP2 ADD SWAP1 PUSH2 0x6B SWAP2 SWAP1 PUSH2 0x2EF JUMP JUMPDEST PUSH2 0xAA JUMP JUMPDEST PUSH1 0x40 MLOAD PUSH2 0x7D SWAP2 SWAP1 PUSH2 0x334 JUMP JUMPDEST PUSH1 0x40 MLOAD DUP1 SWAP2 SUB SWAP1 RETURN JUMPDEST PUSH0 PUSH0 SWAP1 SLOAD SWAP1 PUSH2 0x100 EXP SWAP1 DIV PUSH20 0xFFFFFFFFFFFFFFFFFFFFFFFFFFFFFFFFFFFFFFFF AND DUP2 JUMP JUMPDEST PUSH0 CALLER PUSH20 0xFFFFFFFFFFFFFFFFFFFFFFFFFFFFFFFFFFFFFFFF AND PUSH0 PUSH0 SWAP1 SLOAD SWAP1 PUSH2 0x100 EXP SWAP1 DIV PUSH20 0xFFFFFFFFFFFFFFFFFFFFFFFFFFFFFFFFFFFFFFFF AND PUSH20 0xFFFFFFFFFFFFFFFFFFFFFFFFFFFFFFFFFFFFFFFF AND EQ PUSH2 0x139 JUMPI PUSH1 0x40 MLOAD PUSH32 0x8C379A000000000000000000000000000000000000000000000000000000000 DUP2 MSTORE PUSH1 0x4 ADD PUSH2 0x130 SWAP1 PUSH2 0x3A7 JUMP JUMPDEST PUSH1 0x40 MLOAD DUP1 SWAP2 SUB SWAP1 REVERT JUMPDEST PUSH0 PUSH20 0xFFFFFFFFFFFFFFFFFFFFFFFFFFFFFFFFFFFFFFFF AND DUP3 PUSH20 0xFFFFFFFFFFFFFFFFFFFFFFFFFFFFFFFFFFFFFFFF AND SUB PUSH2 0x1A7 JUMPI PUSH1 0x40 MLOAD PUSH32 0x8C379A000000000000000000000000000000000000000000000000000000000 DUP2 MSTORE PUSH1 0x4 ADD PUSH2 0x19E SWAP1 PUSH2 0x40F JUMP JUMPDEST PUSH1 0x40 MLOAD DUP1 SWAP2 SUB SWAP1 REVERT JUMPDEST DUP2 PUSH20 0xFFFFFFFFFFFFFFFFFFFFFFFFFFFFFFFFFFFFFFFF AND PUSH0 PUSH0 SWAP1 SLOAD SWAP1 PUSH2 0x100 EXP SWAP1 DIV PUSH20 0xFFFFFFFFFFFFFFFFFFFFFFFFFFFFFFFFFFFFFFFF AND PUSH20 0xFFFFFFFFFFFFFFFFFFFFFFFFFFFFFFFFFFFFFFFF AND PUSH32 0x8BE0079C531659141344CD1FD0A4F28419497F9722A3DAAFE3B4186F6B6457E0 PUSH1 0x40 MLOAD PUSH1 0x40 MLOAD DUP1 SWAP2 SUB SWAP1 LOG3 DUP2 PUSH0 PUSH0 PUSH2 0x100 EXP DUP2 SLOAD DUP2 PUSH20 0xFFFFFFFFFFFFFFFFFFFFFFFFFFFFFFFFFFFFFFFF MUL NOT AND SWAP1 DUP4 PUSH20 0xFFFFFFFFFFFFFFFFFFFFFFFFFFFFFFFFFFFFFFFF AND MUL OR SWAP1 SSTORE POP PUSH1 0x1 SWAP1 POP SWAP2 SWAP1 POP JUMP JUMPDEST PUSH0 PUSH20 0xFFFFFFFFFFFFFFFFFFFFFFFFFFFFFFFFFFFFFFFF DUP3 AND SWAP1 POP SWAP2 SWAP1 POP JUMP JUMPDEST PUSH0 PUSH2 0x292 DUP3 PUSH2 0x269 JUMP JUMPDEST SWAP1 POP SWAP2 SWAP1 POP JUMP JUMPDEST PUSH2 0x2A2 DUP2 PUSH2 0x288 JUMP JUMPDEST DUP3 MSTORE POP POP JUMP JUMPDEST PUSH0 PUSH1 0x20 DUP3 ADD SWAP1 POP PUSH2 0x2BB PUSH0 DUP4 ADD DUP5 PUSH2 0x299 JUMP JUMPDEST SWAP3 SWAP2 POP POP JUMP JUMPDEST PUSH0 PUSH0 REVERT JUMPDEST PUSH2 0x2CE DUP2 PUSH2 0x288 JUMP JUMPDEST DUP2 EQ PUSH2 0x2D8 JUMPI PUSH0 PUSH0 REVERT JUMPDEST POP JUMP JUMPDEST PUSH0 DUP2 CALLDATALOAD SWAP1 POP PUSH2 0x2E9 DUP2 PUSH2 0x2C5 JUMP JUMPDEST SWAP3 SWAP2 POP POP JUMP JUMPDEST PUSH0 PUSH1 0x20 DUP3 DUP5 SUB SLT ISZERO PUSH2 0x304 JUMPI PUSH2 0x303 PUSH2 0x2C1 JUMP JUMPDEST JUMPDEST PUSH0 PUSH2 0x311 DUP5 DUP3 DUP6 ADD PUSH2 0x2DB JUMP JUMPDEST SWAP2 POP POP SWAP3 SWAP2 POP POP JUMP JUMPDEST PUSH0 DUP2 ISZERO ISZERO SWAP1 POP SWAP2 SWAP1 POP JUMP JUMPDEST PUSH2 0x32E DUP2 PUSH2 0x31A JUMP JUMPDEST DUP3 MSTORE POP POP JUMP JUMPDEST PUSH0 PUSH1 0x20 DUP3 ADD SWAP1 POP PUSH2 0x347 PUSH0 DUP4 ADD DUP5 PUSH2 0x325 JUMP JUMPDEST SWAP3 SWAP2 POP POP JUMP JUMPDEST PUSH0 DUP3 DUP3 MSTORE PUSH1 0x20 DUP3 ADD SWAP1 POP SWAP3 SWAP2 POP POP JUMP JUMPDEST PUSH32 0x4F6E6C79206F776E657200000000000000000000000000000000000000000000 PUSH0 DUP3 ADD MSTORE POP JUMP JUMPDEST PUSH0 PUSH2 0x391 PUSH1 0xA DUP4 PUSH2 0x34D JUMP JUMPDEST SWAP2 POP PUSH2 0x39C DUP3 PUSH2 0x35D JUMP JUMPDEST PUSH1 0x20 DUP3 ADD SWAP1 POP SWAP2 SWAP1 POP JUMP JUMPDEST PUSH0 PUSH1 0x20 DUP3 ADD SWAP1 POP DUP2 DUP2 SUB PUSH0 DUP4 ADD MSTORE PUSH2 0x3BE DUP2 PUSH2 0x385 JUMP JUMPDEST SWAP1 POP SWAP2 SWAP1 POP JUMP JUMPDEST PUSH32 0x5A65726F20616464726573730000000000000000000000000000000000000000 PUSH0 DUP3 ADD MSTORE POP JUMP JUMPDEST PUSH0 PUSH2 0x3F9 PUSH1 0xC DUP4 PUSH2 0x34D JUMP JUMPDEST SWAP2 POP PUSH2 0x404 DUP3 PUSH2 0x3C5 JUMP JUMPDEST PUSH1 0x20 DUP3 ADD SWAP1 POP SWAP2 SWAP1 POP JUMP JUMPDEST PUSH0 PUSH1 0x20 DUP3 ADD SWAP1 POP DUP2 DUP2 SUB PUSH0 DUP4 ADD MSTORE PUSH2 0x426 DUP2 PUSH2 0x3ED JUMP JUMPDEST SWAP1 POP SWAP2 SWAP1 POP JUMP INVALID LOG2 PUSH5 0x6970667358 0x22 SLT KECCAK256 CREATE2 DATALOADN 0x6EA2 ISZERO XOR PUSH32 0xB109A7E8F0D2EFA6838EAF0217E2DB116C4F1EB004DBC3ADBF64736F6C634300 ADDMOD 0x1E STOP CALLER "
		},
		"gasEstimates": {
			"creation": {
				"codeDepositCost": "224600",
				"executionCost": "28209",
				"totalCost": "252809"
			},
			"external": {
				"owner()": "2485",
				"ownershipTransferred(address)": "30793"
			}
		},
		"methodIdentifiers": {
			"owner()": "8da5cb5b",
			"ownershipTransferred(address)": "ac9a252a"
		}
	},
	"abi": [
		{
			"inputs": [],
			"stateMutability": "nonpayable",
			"type": "constructor"
		},
		{
			"anonymous": false,
			"inputs": [
				{
					"indexed": true,
					"internalType": "address",
					"name": "previousOwner",
					"type": "address"
				},
				{
					"indexed": true,
					"internalType": "address",
					"name": "newOwner",
					"type": "address"
				}
			],
			"name": "OwnershipTransferred",
			"type": "event"
		},
		{
			"inputs": [],
			"name": "owner",
			"outputs": [
				{
					"internalType": "address",
					"name": "",
					"type": "address"
				}
			],
			"stateMutability": "view",
			"type": "function"
		},
		{
			"inputs": [
				{
					"internalType": "address",
					"name": "_newOwner",
					"type": "address"
				}
			],
			"name": "ownershipTransferred",
			"outputs": [
				{
					"internalType": "bool",
					"name": "",
					"type": "bool"
				}
			],
			"stateMutability": "nonpayable",
			"type": "function"
		}
	]
}