{
	"data": {
		"bytecode": {
			"linkReferences": {},
			"object": "6080604052348015600e575f5ffd5b506109518061001c5f395ff3fe608060405234801561000f575f5ffd5b5060043610610086575f3560e01c8063a214547f11610059578063a214547f146100fe578063a6158fdb1461012e578063e990b43d1461014a578063f0ba84401461017b57610086565b80633b3c4ec51461008a5780633e275690146100a657806353ed5143146100c25780638d67799e146100e0575b5f5ffd5b6100a4600480360381019061009f919061055e565b6101ab565b005b6100c060048036038101906100bb919061055e565b610264565b005b6100ca6102d4565b6040516100d79190610640565b60405180910390f35b6100e8610329565b6040516100f5919061066f565b60405180910390f35b61011860048036038101906101139190610688565b61032e565b604051610125919061066f565b60405180910390f35b6101486004803603810190610143919061055e565b6103c9565b005b610164600480360381019061015f919061055e565b6104a9565b6040516101729291906106e0565b60405180910390f35b6101956004803603810190610190919061055e565b610508565b6040516101a2919061066f565b60405180910390f35b5f5f8054905090508082106101f5576040517f08c379a00000000000000000000000000000000000000000000000000000000081526004016101ec90610761565b60405180910390fd5b5f60018261020391906107ac565b81548110610214576102136107df565b5b905f5260205f2001545f83815481106102305761022f6107df565b5b905f5260205f2001819055505f80548061024d5761024c61080c565b5b600190038181905f5260205f20015f905590555050565b60645f8054905011156102ac576040517f08c379a00000000000000000000000000000000000000000000000000000000081526004016102a390610883565b60405180910390fd5b5f81908060018154018082558091505060019003905f5260205f20015f909190919091505550565b60605f80548060200260200160405190810160405280929190818152602001828054801561031f57602002820191905f5260205f20905b81548152602001906001019080831161030b575b5050505050905090565b606481565b5f5f805490508210610375576040517f08c379a000000000000000000000000000000000000000000000000000000000815260040161036c90610761565b60405180910390fd5b5f5f8490505b8381116103be575f8181548110610395576103946107df565b5b905f5260205f200154826103a991906108a1565b915080806103b6906108d4565b91505061037b565b508091505092915050565b5f5f805490509050808210610413576040517f08c379a000000000000000000000000000000000000000000000000000000000815260040161040a90610761565b60405180910390fd5b5f8290505b60018261042591906107ac565b811015610480575f60018261043a91906108a1565b8154811061044b5761044a6107df565b5b905f5260205f2001545f8281548110610467576104666107df565b5b905f5260205f2001819055508080600101915050610418565b505f8054806104925761049161080c565b5b600190038181905f5260205f20015f905590555050565b5f5f5f5f8054905090505f5b818110156104fa57845f82815481106104d1576104d06107df565b5b905f5260205f200154036104ed57600181935093505050610503565b80806001019150506104b5565b505f5f92509250505b915091565b5f8181548110610516575f80fd5b905f5260205f20015f915090505481565b5f5ffd5b5f819050919050565b61053d8161052b565b8114610547575f5ffd5b50565b5f8135905061055881610534565b92915050565b5f6020828403121561057357610572610527565b5b5f6105808482850161054a565b91505092915050565b5f81519050919050565b5f82825260208201905092915050565b5f819050602082019050919050565b6105bb8161052b565b82525050565b5f6105cc83836105b2565b60208301905092915050565b5f602082019050919050565b5f6105ee82610589565b6105f88185610593565b9350610603836105a3565b805f5b8381101561063357815161061a88826105c1565b9750610625836105d8565b925050600181019050610606565b5085935050505092915050565b5f6020820190508181035f83015261065881846105e4565b905092915050565b6106698161052b565b82525050565b5f6020820190506106825f830184610660565b92915050565b5f5f6040838503121561069e5761069d610527565b5b5f6106ab8582860161054a565b92505060206106bc8582860161054a565b9150509250929050565b5f8115159050919050565b6106da816106c6565b82525050565b5f6040820190506106f35f8301856106d1565b6107006020830184610660565b9392505050565b5f82825260208201905092915050565b7f4f7574206f6620696e64657800000000000000000000000000000000000000005f82015250565b5f61074b600c83610707565b915061075682610717565b602082019050919050565b5f6020820190508181035f8301526107788161073f565b9050919050565b7f4e487b71000000000000000000000000000000000000000000000000000000005f52601160045260245ffd5b5f6107b68261052b565b91506107c18361052b565b92508282039050818111156107d9576107d861077f565b5b92915050565b7f4e487b71000000000000000000000000000000000000000000000000000000005f52603260045260245ffd5b7f4e487b71000000000000000000000000000000000000000000000000000000005f52603160045260245ffd5b7f417272792069732066756c6c00000000000000000000000000000000000000005f82015250565b5f61086d600c83610707565b915061087882610839565b602082019050919050565b5f6020820190508181035f83015261089a81610861565b9050919050565b5f6108ab8261052b565b91506108b68361052b565b92508282019050808211156108ce576108cd61077f565b5b92915050565b5f6108de8261052b565b91507fffffffffffffffffffffffffffffffffffffffffffffffffffffffffffffffff82036109105761090f61077f565b5b60018201905091905056fea264697066735822122032c51debd6d5a492bc6af703691d21c335498c5a178ca850a8deea601e19c0b864736f6c634300081f0033",
			"opcodes": "PUSH1 0x80 PUSH1 0x40 MSTORE CALLVALUE DUP1 ISZERO PUSH1 0xE JUMPI PUSH0 PUSH0 REVERT JUMPDEST POP PUSH2 0x951 DUP1 PUSH2 0x1C PUSH0 CODECOPY PUSH0 RETURN INVALID PUSH1 0x80 PUSH1 0x40 MSTORE CALLVALUE DUP1 ISZERO PUSH2 0xF JUMPI PUSH0 PUSH0 REVERT JUMPDEST POP PUSH1 0x4 CALLDATASIZE LT PUSH2 0x86 JUMPI PUSH0 CALLDATALOAD PUSH1 0xE0 SHR DUP1 PUSH4 0xA214547F GT PUSH2 0x59 JUMPI DUP1 PUSH4 0xA214547F EQ PUSH2 0xFE JUMPI DUP1 PUSH4 0xA6158FDB EQ PUSH2 0x12E JUMPI DUP1 PUSH4 0xE990B43D EQ PUSH2 0x14A JUMPI DUP1 PUSH4 0xF0BA8440 EQ PUSH2 0x17B JUMPI PUSH2 0x86 JUMP JUMPDEST DUP1 PUSH4 0x3B3C4EC5 EQ PUSH2 0x8A JUMPI DUP1 PUSH4 0x3E275690 EQ PUSH2 0xA6 JUMPI DUP1 PUSH4 0x53ED5143 EQ PUSH2 0xC2 JUMPI DUP1 PUSH4 0x8D67799E EQ PUSH2 0xE0 JUMPI JUMPDEST PUSH0 PUSH0 REVERT JUMPDEST PUSH2 0xA4 PUSH1 0x4 DUP1 CALLDATASIZE SUB DUP2 ADD SWAP1 PUSH2 0x9F SWAP2 SWAP1 PUSH2 0x55E JUMP JUMPDEST PUSH2 0x1AB JUMP JUMPDEST STOP JUMPDEST PUSH2 0xC0 PUSH1 0x4 DUP1 CALLDATASIZE SUB DUP2 ADD SWAP1 PUSH2 0xBB SWAP2 SWAP1 PUSH2 0x55E JUMP JUMPDEST PUSH2 0x264 JUMP JUMPDEST STOP JUMPDEST PUSH2 0xCA PUSH2 0x2D4 JUMP JUMPDEST PUSH1 0x40 MLOAD PUSH2 0xD7 SWAP2 SWAP1 PUSH2 0x640 JUMP JUMPDEST PUSH1 0x40 MLOAD DUP1 SWAP2 SUB SWAP1 RETURN JUMPDEST PUSH2 0xE8 PUSH2 0x329 JUMP JUMPDEST PUSH1 0x40 MLOAD PUSH2 0xF5 SWAP2 SWAP1 PUSH2 0x66F JUMP JUMPDEST PUSH1 0x40 MLOAD DUP1 SWAP2 SUB SWAP1 RETURN JUMPDEST PUSH2 0x118 PUSH1 0x4 DUP1 CALLDATASIZE SUB DUP2 ADD SWAP1 PUSH2 0x113 SWAP2 SWAP1 PUSH2 0x688 JUMP JUMPDEST PUSH2 0x32E JUMP JUMPDEST PUSH1 0x40 MLOAD PUSH2 0x125 SWAP2 SWAP1 PUSH2 0x66F JUMP JUMPDEST PUSH1 0x40 MLOAD DUP1 SWAP2 SUB SWAP1 RETURN JUMPDEST PUSH2 0x148 PUSH1 0x4 DUP1 CALLDATASIZE SUB DUP2 ADD SWAP1 PUSH2 0x143 SWAP2 SWAP1 PUSH2 0x55E JUMP JUMPDEST PUSH2 0x3C9 JUMP JUMPDEST STOP JUMPDEST PUSH2 0x164 PUSH1 0x4 DUP1 CALLDATASIZE SUB DUP2 ADD SWAP1 PUSH2 0x15F SWAP2 SWAP1 PUSH2 0x55E JUMP JUMPDEST PUSH2 0x4A9 JUMP JUMPDEST PUSH1 0x40 MLOAD PUSH2 0x172 SWAP3 SWAP2 SWAP1 PUSH2 0x6E0 JUMP JUMPDEST PUSH1 0x40 MLOAD DUP1 SWAP2 SUB SWAP1 RETURN JUMPDEST PUSH2 0x195 PUSH1 0x4 DUP1 CALLDATASIZE SUB DUP2 ADD SWAP1 PUSH2 0x190 SWAP2 SWAP1 PUSH2 0x55E JUMP JUMPDEST PUSH2 0x508 JUMP JUMPDEST PUSH1 0x40 MLOAD PUSH2 0x1A2 SWAP2 SWAP1 PUSH2 0x66F JUMP JUMPDEST PUSH1 0x40 MLOAD DUP1 SWAP2 SUB SWAP1 RETURN JUMPDEST PUSH0 PUSH0 DUP1 SLOAD SWAP1 POP SWAP1 POP DUP1 DUP3 LT PUSH2 0x1F5 JUMPI PUSH1 0x40 MLOAD PUSH32 0x8C379A000000000000000000000000000000000000000000000000000000000 DUP2 MSTORE PUSH1 0x4 ADD PUSH2 0x1EC SWAP1 PUSH2 0x761 JUMP JUMPDEST PUSH1 0x40 MLOAD DUP1 SWAP2 SUB SWAP1 REVERT JUMPDEST PUSH0 PUSH1 0x1 DUP3 PUSH2 0x203 SWAP2 SWAP1 PUSH2 0x7AC JUMP JUMPDEST DUP2 SLOAD DUP2 LT PUSH2 0x214 JUMPI PUSH2 0x213 PUSH2 0x7DF JUMP JUMPDEST JUMPDEST SWAP1 PUSH0 MSTORE PUSH1 0x20 PUSH0 KECCAK256 ADD SLOAD PUSH0 DUP4 DUP2 SLOAD DUP2 LT PUSH2 0x230 JUMPI PUSH2 0x22F PUSH2 0x7DF JUMP JUMPDEST JUMPDEST SWAP1 PUSH0 MSTORE PUSH1 0x20 PUSH0 KECCAK256 ADD DUP2 SWAP1 SSTORE POP PUSH0 DUP1 SLOAD DUP1 PUSH2 0x24D JUMPI PUSH2 0x24C PUSH2 0x80C JUMP JUMPDEST JUMPDEST PUSH1 0x1 SWAP1 SUB DUP2 DUP2 SWAP1 PUSH0 MSTORE PUSH1 0x20 PUSH0 KECCAK256 ADD PUSH0 SWAP1 SSTORE SWAP1 SSTORE POP POP JUMP JUMPDEST PUSH1 0x64 PUSH0 DUP1 SLOAD SWAP1 POP GT ISZERO PUSH2 0x2AC JUMPI PUSH1 0x40 MLOAD PUSH32 0x8C379A000000000000000000000000000000000000000000000000000000000 DUP2 MSTORE PUSH1 0x4 ADD PUSH2 0x2A3 SWAP1 PUSH2 0x883 JUMP JUMPDEST PUSH1 0x40 MLOAD DUP1 SWAP2 SUB SWAP1 REVERT JUMPDEST PUSH0 DUP2 SWAP1 DUP1 PUSH1 0x1 DUP2 SLOAD ADD DUP1 DUP3 SSTORE DUP1 SWAP2 POP POP PUSH1 0x1 SWAP1 SUB SWAP1 PUSH0 MSTORE PUSH1 0x20 PUSH0 KECCAK256 ADD PUSH0 SWAP1 SWAP2 SWAP1 SWAP2 SWAP1 SWAP2 POP SSTORE POP JUMP JUMPDEST PUSH1 0x60 PUSH0 DUP1 SLOAD DUP1 PUSH1 0x20 MUL PUSH1 0x20 ADD PUSH1 0x40 MLOAD SWAP1 DUP2 ADD PUSH1 0x40 MSTORE DUP1 SWAP3 SWAP2 SWAP1 DUP2 DUP2 MSTORE PUSH1 0x20 ADD DUP3 DUP1 SLOAD DUP1 ISZERO PUSH2 0x31F JUMPI PUSH1 0x20 MUL DUP3 ADD SWAP2 SWAP1 PUSH0 MSTORE PUSH1 0x20 PUSH0 KECCAK256 SWAP1 JUMPDEST DUP2 SLOAD DUP2 MSTORE PUSH1 0x20 ADD SWAP1 PUSH1 0x1 ADD SWAP1 DUP1 DUP4 GT PUSH2 0x30B JUMPI JUMPDEST POP POP POP POP POP SWAP1 POP SWAP1 JUMP JUMPDEST PUSH1 0x64 DUP2 JUMP JUMPDEST PUSH0 PUSH0 DUP1 SLOAD SWAP1 POP DUP3 LT PUSH2 0x375 JUMPI PUSH1 0x40 MLOAD PUSH32 0x8C379A000000000000000000000000000000000000000000000000000000000 DUP2 MSTORE PUSH1 0x4 ADD PUSH2 0x36C SWAP1 PUSH2 0x761 JUMP JUMPDEST PUSH1 0x40 MLOAD DUP1 SWAP2 SUB SWAP1 REVERT JUMPDEST PUSH0 PUSH0 DUP5 SWAP1 POP JUMPDEST DUP4 DUP2 GT PUSH2 0x3BE JUMPI PUSH0 DUP2 DUP2 SLOAD DUP2 LT PUSH2 0x395 JUMPI PUSH2 0x394 PUSH2 0x7DF JUMP JUMPDEST JUMPDEST SWAP1 PUSH0 MSTORE PUSH1 0x20 PUSH0 KECCAK256 ADD SLOAD DUP3 PUSH2 0x3A9 SWAP2 SWAP1 PUSH2 0x8A1 JUMP JUMPDEST SWAP2 POP DUP1 DUP1 PUSH2 0x3B6 SWAP1 PUSH2 0x8D4 JUMP JUMPDEST SWAP2 POP POP PUSH2 0x37B JUMP JUMPDEST POP DUP1 SWAP2 POP POP SWAP3 SWAP2 POP POP JUMP JUMPDEST PUSH0 PUSH0 DUP1 SLOAD SWAP1 POP SWAP1 POP DUP1 DUP3 LT PUSH2 0x413 JUMPI PUSH1 0x40 MLOAD PUSH32 0x8C379A000000000000000000000000000000000000000000000000000000000 DUP2 MSTORE PUSH1 0x4 ADD PUSH2 0x40A SWAP1 PUSH2 0x761 JUMP JUMPDEST PUSH1 0x40 MLOAD DUP1 SWAP2 SUB SWAP1 REVERT JUMPDEST PUSH0 DUP3 SWAP1 POP JUMPDEST PUSH1 0x1 DUP3 PUSH2 0x425 SWAP2 SWAP1 PUSH2 0x7AC JUMP JUMPDEST DUP2 LT ISZERO PUSH2 0x480 JUMPI PUSH0 PUSH1 0x1 DUP3 PUSH2 0x43A SWAP2 SWAP1 PUSH2 0x8A1 JUMP JUMPDEST DUP2 SLOAD DUP2 LT PUSH2 0x44B JUMPI PUSH2 0x44A PUSH2 0x7DF JUMP JUMPDEST JUMPDEST SWAP1 PUSH0 MSTORE PUSH1 0x20 PUSH0 KECCAK256 ADD SLOAD PUSH0 DUP3 DUP2 SLOAD DUP2 LT PUSH2 0x467 JUMPI PUSH2 0x466 PUSH2 0x7DF JUMP JUMPDEST JUMPDEST SWAP1 PUSH0 MSTORE PUSH1 0x20 PUSH0 KECCAK256 ADD DUP2 SWAP1 SSTORE POP DUP1 DUP1 PUSH1 0x1 ADD SWAP2 POP POP PUSH2 0x418 JUMP JUMPDEST POP PUSH0 DUP1 SLOAD DUP1 PUSH2 0x492 JUMPI PUSH2 0x491 PUSH2 0x80C JUMP JUMPDEST JUMPDEST PUSH1 0x1 SWAP1 SUB DUP2 DUP2 SWAP1 PUSH0 MSTORE PUSH1 0x20 PUSH0 KECCAK256 ADD PUSH0 SWAP1 SSTORE SWAP1 SSTORE POP POP JUMP JUMPDEST PUSH0 PUSH0 PUSH0 PUSH0 DUP1 SLOAD SWAP1 POP SWAP1 POP PUSH0 JUMPDEST DUP2 DUP2 LT ISZERO PUSH2 0x4FA JUMPI DUP5 PUSH0 DUP3 DUP2 SLOAD DUP2 LT PUSH2 0x4D1 JUMPI PUSH2 0x4D0 PUSH2 0x7DF JUMP JUMPDEST JUMPDEST SWAP1 PUSH0 MSTORE PUSH1 0x20 PUSH0 KECCAK256 ADD SLOAD SUB PUSH2 0x4ED JUMPI PUSH1 0x1 DUP2 SWAP4 POP SWAP4 POP POP POP PUSH2 0x503 JUMP JUMPDEST DUP1 DUP1 PUSH1 0x1 ADD SWAP2 POP POP PUSH2 0x4B5 JUMP JUMPDEST POP PUSH0 PUSH0 SWAP3 POP SWAP3 POP POP JUMPDEST SWAP2 POP SWAP2 JUMP JUMPDEST PUSH0 DUP2 DUP2 SLOAD DUP2 LT PUSH2 0x516 JUMPI PUSH0 DUP1 REVERT JUMPDEST SWAP1 PUSH0 MSTORE PUSH1 0x20 PUSH0 KECCAK256 ADD PUSH0 SWAP2 POP SWAP1 POP SLOAD DUP2 JUMP JUMPDEST PUSH0 PUSH0 REVERT JUMPDEST PUSH0 DUP2 SWAP1 POP SWAP2 SWAP1 POP JUMP JUMPDEST PUSH2 0x53D DUP2 PUSH2 0x52B JUMP JUMPDEST DUP2 EQ PUSH2 0x547 JUMPI PUSH0 PUSH0 REVERT JUMPDEST POP JUMP JUMPDEST PUSH0 DUP2 CALLDATALOAD SWAP1 POP PUSH2 0x558 DUP2 PUSH2 0x534 JUMP JUMPDEST SWAP3 SWAP2 POP POP JUMP JUMPDEST PUSH0 PUSH1 0x20 DUP3 DUP5 SUB SLT ISZERO PUSH2 0x573 JUMPI PUSH2 0x572 PUSH2 0x527 JUMP JUMPDEST JUMPDEST PUSH0 PUSH2 0x580 DUP5 DUP3 DUP6 ADD PUSH2 0x54A JUMP JUMPDEST SWAP2 POP POP SWAP3 SWAP2 POP POP JUMP JUMPDEST PUSH0 DUP2 MLOAD SWAP1 POP SWAP2 SWAP1 POP JUMP JUMPDEST PUSH0 DUP3 DUP3 MSTORE PUSH1 0x20 DUP3 ADD SWAP1 POP SWAP3 SWAP2 POP POP JUMP JUMPDEST PUSH0 DUP2 SWAP1 POP PUSH1 0x20 DUP3 ADD SWAP1 POP SWAP2 SWAP1 POP JUMP JUMPDEST PUSH2 0x5BB DUP2 PUSH2 0x52B JUMP JUMPDEST DUP3 MSTORE POP POP JUMP JUMPDEST PUSH0 PUSH2 0x5CC DUP4 DUP4 PUSH2 0x5B2 JUMP JUMPDEST PUSH1 0x20 DUP4 ADD SWAP1 POP SWAP3 SWAP2 POP POP JUMP JUMPDEST PUSH0 PUSH1 0x20 DUP3 ADD SWAP1 POP SWAP2 SWAP1 POP JUMP JUMPDEST PUSH0 PUSH2 0x5EE DUP3 PUSH2 0x589 JUMP JUMPDEST PUSH2 0x5F8 DUP2 DUP6 PUSH2 0x593 JUMP JUMPDEST SWAP4 POP PUSH2 0x603 DUP4 PUSH2 0x5A3 JUMP JUMPDEST DUP1 PUSH0 JUMPDEST DUP4 DUP2 LT ISZERO PUSH2 0x633 JUMPI DUP2 MLOAD PUSH2 0x61A DUP9 DUP3 PUSH2 0x5C1 JUMP JUMPDEST SWAP8 POP PUSH2 0x625 DUP4 PUSH2 0x5D8 JUMP JUMPDEST SWAP3 POP POP PUSH1 0x1 DUP2 ADD SWAP1 POP PUSH2 0x606 JUMP JUMPDEST POP DUP6 SWAP4 POP POP POP POP SWAP3 SWAP2 POP POP JUMP JUMPDEST PUSH0 PUSH1 0x20 DUP3 ADD SWAP1 POP DUP2 DUP2 SUB PUSH0 DUP4 ADD MSTORE PUSH2 0x658 DUP2 DUP5 PUSH2 0x5E4 JUMP JUMPDEST SWAP1 POP SWAP3 SWAP2 POP POP JUMP JUMPDEST PUSH2 0x669 DUP2 PUSH2 0x52B JUMP JUMPDEST DUP3 MSTORE POP POP JUMP JUMPDEST PUSH0 PUSH1 0x20 DUP3 ADD SWAP1 POP PUSH2 0x682 PUSH0 DUP4 ADD DUP5 PUSH2 0x660 JUMP JUMPDEST SWAP3 SWAP2 POP POP JUMP JUMPDEST PUSH0 PUSH0 PUSH1 0x40 DUP4 DUP6 SUB SLT ISZERO PUSH2 0x69E JUMPI PUSH2 0x69D PUSH2 0x527 JUMP JUMPDEST JUMPDEST PUSH0 PUSH2 0x6AB DUP6 DUP3 DUP7 ADD PUSH2 0x54A JUMP JUMPDEST SWAP3 POP POP PUSH1 0x20 PUSH2 0x6BC DUP6 DUP3 DUP7 ADD PUSH2 0x54A JUMP JUMPDEST SWAP2 POP POP SWAP3 POP SWAP3 SWAP1 POP JUMP JUMPDEST PUSH0 DUP2 ISZERO ISZERO SWAP1 POP SWAP2 SWAP1 POP JUMP JUMPDEST PUSH2 0x6DA DUP2 PUSH2 0x6C6 JUMP JUMPDEST DUP3 MSTORE POP POP JUMP JUMPDEST PUSH0 PUSH1 0x40 DUP3 ADD SWAP1 POP PUSH2 0x6F3 PUSH0 DUP4 ADD DUP6 PUSH2 0x6D1 JUMP JUMPDEST PUSH2 0x700 PUSH1 0x20 DUP4 ADD DUP5 PUSH2 0x660 JUMP JUMPDEST SWAP4 SWAP3 POP POP POP JUMP JUMPDEST PUSH0 DUP3 DUP3 MSTORE PUSH1 0x20 DUP3 ADD SWAP1 POP SWAP3 SWAP2 POP POP JUMP JUMPDEST PUSH32 0x4F7574206F6620696E6465780000000000000000000000000000000000000000 PUSH0 DUP3 ADD MSTORE POP JUMP JUMPDEST PUSH0 PUSH2 0x74B PUSH1 0xC DUP4 PUSH2 0x707 JUMP JUMPDEST SWAP2 POP PUSH2 0x756 DUP3 PUSH2 0x717 JUMP JUMPDEST PUSH1 0x20 DUP3 ADD SWAP1 POP SWAP2 SWAP1 POP JUMP JUMPDEST PUSH0 PUSH1 0x20 DUP3 ADD SWAP1 POP DUP2 DUP2 SUB PUSH0 DUP4 ADD MSTORE PUSH2 0x778 DUP2 PUSH2 0x73F JUMP JUMPDEST SWAP1 POP SWAP2 SWAP1 POP JUMP JUMPDEST PUSH32 0x4E487B7100000000000000000000000000000000000000000000000000000000 PUSH0 MSTORE PUSH1 0x11 PUSH1 0x4 MSTORE PUSH1 0x24 PUSH0 REVERT JUMPDEST PUSH0 PUSH2 0x7B6 DUP3 PUSH2 0x52B JUMP JUMPDEST SWAP2 POP PUSH2 0x7C1 DUP4 PUSH2 0x52B JUMP JUMPDEST SWAP3 POP DUP3 DUP3 SUB SWAP1 POP DUP2 DUP2 GT ISZERO PUSH2 0x7D9 JUMPI PUSH2 0x7D8 PUSH2 0x77F JUMP JUMPDEST JUMPDEST SWAP3 SWAP2 POP POP JUMP JUMPDEST PUSH32 0x4E487B7100000000000000000000000000000000000000000000000000000000 PUSH0 MSTORE PUSH1 0x32 PUSH1 0x4 MSTORE PUSH1 0x24 PUSH0 REVERT JUMPDEST PUSH32 0x4E487B7100000000000000000000000000000000000000000000000000000000 PUSH0 MSTORE PUSH1 0x31 PUSH1 0x4 MSTORE PUSH1 0x24 PUSH0 REVERT JUMPDEST PUSH32 0x417272792069732066756C6C0000000000000000000000000000000000000000 PUSH0 DUP3 ADD MSTORE POP JUMP JUMPDEST PUSH0 PUSH2 0x86D PUSH1 0xC DUP4 PUSH2 0x707 JUMP JUMPDEST SWAP2 POP PUSH2 0x878 DUP3 PUSH2 0x839 JUMP JUMPDEST PUSH1 0x20 DUP3 ADD SWAP1 POP SWAP2 SWAP1 POP JUMP JUMPDEST PUSH0 PUSH1 0x20 DUP3 ADD SWAP1 POP DUP2 DUP2 SUB PUSH0 DUP4 ADD MSTORE PUSH2 0x89A DUP2 PUSH2 0x861 JUMP JUMPDEST SWAP1 POP SWAP2 SWAP1 POP JUMP JUMPDEST PUSH0 PUSH2 0x8AB DUP3 PUSH2 0x52B JUMP JUMPDEST SWAP2 POP PUSH2 0x8B6 DUP4 PUSH2 0x52B JUMP JUMPDEST SWAP3 POP DUP3 DUP3 ADD SWAP1 POP DUP1 DUP3 GT ISZERO PUSH2 0x8CE JUMPI PUSH2 0x8CD PUSH2 0x77F JUMP JUMPDEST JUMPDEST SWAP3 SWAP2 POP POP JUMP JUMPDEST PUSH0 PUSH2 0x8DE DUP3 PUSH2 0x52B JUMP JUMPDEST SWAP2 POP PUSH32 0xFFFFFFFFFFFFFFFFFFFFFFFFFFFFFFFFFFFFFFFFFFFFFFFFFFFFFFFFFFFFFFFF DUP3 SUB PUSH2 0x910 JUMPI PUSH2 0x90F PUSH2 0x77F JUMP JUMPDEST JUMPDEST PUSH1 0x1 DUP3 ADD SWAP1 POP SWAP2 SWAP1 POP JUMP INVALID LOG2 PUSH5 0x6970667358 0x22 SLT KECCAK256 ORIGIN 0xC5 SAR 0xEB 0xD6 0xD5 LOG4 SWAP3 0xBC PUSH11 0xF703691D21C335498C5A17 DUP13 0xA8 POP 0xA8 0xDE 0xEA PUSH1 0x1E NOT 0xC0 0xB8 PUSH5 0x736F6C6343 STOP ADDMOD 0x1F STOP CALLER "
		},
		"gasEstimates": {
			"creation": {
				"codeDepositCost": "477000",
				"executionCost": "509",
				"totalCost": "477509"
			},
			"external": {
				"MAX_SIZE()": "392",
				"data(uint256)": "infinite",
				"findElement(uint256)": "infinite",
				"getAll()": "infinite",
				"removeOrdered(uint256)": "infinite",
				"removeUnordered(uint256)": "infinite",
				"safePush(uint256)": "48976",
				"sumRange(uint256,uint256)": "infinite"
			}
		},
		"methodIdentifiers": {
			"MAX_SIZE()": "8d67799e",
			"data(uint256)": "f0ba8440",
			"findElement(uint256)": "e990b43d",
			"getAll()": "53ed5143",
			"removeOrdered(uint256)": "a6158fdb",
			"removeUnordered(uint256)": "3b3c4ec5",
			"safePush(uint256)": "3e275690",
			"sumRange(uint256,uint256)": "a214547f"
		}
	},
	"abi": [
		{
			"inputs": [],
			"name": "MAX_SIZE",
			"outputs": [
				{
					"internalType": "uint256",
					"name": "",
					"type": "uint256"
				}
			],
			"stateMutability": "view",
			"type": "function"
		},
		{
			"inputs": [
				{
					"internalType": "uint256",
					"name": "",
					"type": "uint256"
				}
			],
			"name": "data",
			"outputs": [
				{
					"internalType": "uint256",
					"name": "",
					"type": "uint256"
				}
			],
			"stateMutability": "view",
			"type": "function"
		},
		{
			"inputs": [
				{
					"internalType": "uint256",
					"name": "value",
					"type": "uint256"
				}
			],
			"name": "findElement",
			"outputs": [
				{
					"internalType": "bool",
					"name": "",
					"type": "bool"
				},
				{
					"internalType": "uint256",
					"name": "",
					"type": "uint256"
				}
			],
			"stateMutability": "view",
			"type": "function"
		},
		{
			"inputs": [],
			"name": "getAll",
			"outputs": [
				{
					"internalType": "uint256[]",
					"name": "",
					"type": "uint256[]"
				}
			],
			"stateMutability": "view",
			"type": "function"
		},
		{
			"inputs": [
				{
					"internalType": "uint256",
					"name": "index",
					"type": "uint256"
				}
			],
			"name": "removeOrdered",
			"outputs": [],
			"stateMutability": "nonpayable",
			"type": "function"
		},
		{
			"inputs": [
				{
					"internalType": "uint256",
					"name": "index",
					"type": "uint256"
				}
			],
			"name": "removeUnordered",
			"outputs": [],
			"stateMutability": "nonpayable",
			"type": "function"
		},
		{
			"inputs": [
				{
					"internalType": "uint256",
					"name": "value",
					"type": "uint256"
				}
			],
			"name": "safePush",
			"outputs": [],
			"stateMutability": "nonpayable",
			"type": "function"
		},
		{
			"inputs": [
				{
					"internalType": "uint256",
					"name": "start",
					"type": "uint256"
				},
				{
					"internalType": "uint256",
					"name": "end",
					"type": "uint256"
				}
			],
			"name": "sumRange",
			"outputs": [
				{
					"internalType": "uint256",
					"name": "",
					"type": "uint256"
				}
			],
			"stateMutability": "view",
			"type": "function"
		}
	]
}