{
	"data": {
		"bytecode": {
			"linkReferences": {},
			"object": "6080604052348015600e575f5ffd5b506106b48061001c5f395ff3fe608060405234801561000f575f5ffd5b506004361061004a575f3560e01c80633a96fdd71461004e5780634a1e4dbf1461007e5780636bdbf8e6146100ae578063a1c51915146100cc575b5f5ffd5b61006860048036038101906100639190610394565b6100ea565b6040516100759190610424565b60405180910390f35b6100986004803603810190610093919061043d565b610190565b6040516100a5919061049c565b60405180910390f35b6100b661019a565b6040516100c39190610515565b60405180910390f35b6100d4610237565b6040516100e19190610550565b60405180910390f35b5f6002826040516100fb91906105ad565b602060405180830381855afa158015610116573d5f5f3e3d5ffd5b5050506040513d601f19601f8201168201806040525081019061013991906105f6565b60028460405161014991906105ad565b602060405180830381855afa158015610164573d5f5f3e3d5ffd5b5050506040513d601f19601f8201168201806040525081019061018791906105f6565b14905092915050565b5f81519050919050565b60605f6040518060400160405280600681526020017f68656c6c6f20000000000000000000000000000000000000000000000000000081525090505f6040518060400160405280600581526020017f776f726c640000000000000000000000000000000000000000000000000000008152509050818160405160200161022192919061065b565b6040516020818303038152906040529250505090565b5f5f60ff90506001810191505090565b5f604051905090565b5f5ffd5b5f5ffd5b5f5ffd5b5f5ffd5b5f601f19601f8301169050919050565b7f4e487b71000000000000000000000000000000000000000000000000000000005f52604160045260245ffd5b6102a682610260565b810181811067ffffffffffffffff821117156102c5576102c4610270565b5b80604052505050565b5f6102d7610247565b90506102e3828261029d565b919050565b5f67ffffffffffffffff82111561030257610301610270565b5b61030b82610260565b9050602081019050919050565b828183375f83830152505050565b5f610338610333846102e8565b6102ce565b9050828152602081018484840111156103545761035361025c565b5b61035f848285610318565b509392505050565b5f82601f83011261037b5761037a610258565b5b813561038b848260208601610326565b91505092915050565b5f5f604083850312156103aa576103a9610250565b5b5f83013567ffffffffffffffff8111156103c7576103c6610254565b5b6103d385828601610367565b925050602083013567ffffffffffffffff8111156103f4576103f3610254565b5b61040085828601610367565b9150509250929050565b5f8115159050919050565b61041e8161040a565b82525050565b5f6020820190506104375f830184610415565b92915050565b5f6020828403121561045257610451610250565b5b5f82013567ffffffffffffffff81111561046f5761046e610254565b5b61047b84828501610367565b91505092915050565b5f819050919050565b61049681610484565b82525050565b5f6020820190506104af5f83018461048d565b92915050565b5f81519050919050565b5f82825260208201905092915050565b8281835e5f83830152505050565b5f6104e7826104b5565b6104f181856104bf565b93506105018185602086016104cf565b61050a81610260565b840191505092915050565b5f6020820190508181035f83015261052d81846104dd565b905092915050565b5f60ff82169050919050565b61054a81610535565b82525050565b5f6020820190506105635f830184610541565b92915050565b5f81519050919050565b5f81905092915050565b5f61058782610569565b6105918185610573565b93506105a18185602086016104cf565b80840191505092915050565b5f6105b8828461057d565b915081905092915050565b5f819050919050565b6105d5816105c3565b81146105df575f5ffd5b50565b5f815190506105f0816105cc565b92915050565b5f6020828403121561060b5761060a610250565b5b5f610618848285016105e2565b91505092915050565b5f81905092915050565b5f610635826104b5565b61063f8185610621565b935061064f8185602086016104cf565b80840191505092915050565b5f610666828561062b565b9150610672828461062b565b9150819050939250505056fea2646970667358221220833170a1b82d0a8ba010c2095e0bbf81d94f2320a932f509fa796455987bf93464736f6c634300081e0033",
			"opcodes": "PUSH1 0x80 PUSH1 0x40 MSTORE CALLVALUE DUP1 ISZERO PUSH1 0xE JUMPI PUSH0 PUSH0 REVERT JUMPDEST POP PUSH2 0x6B4 DUP1 PUSH2 0x1C PUSH0 CODECOPY PUSH0 RETURN INVALID PUSH1 0x80 PUSH1 0x40 MSTORE CALLVALUE DUP1 ISZERO PUSH2 0xF JUMPI PUSH0 PUSH0 REVERT JUMPDEST POP PUSH1 0x4 CALLDATASIZE LT PUSH2 0x4A JUMPI PUSH0 CALLDATALOAD PUSH1 0xE0 SHR DUP1 PUSH4 0x3A96FDD7 EQ PUSH2 0x4E JUMPI DUP1 PUSH4 0x4A1E4DBF EQ PUSH2 0x7E JUMPI DUP1 PUSH4 0x6BDBF8E6 EQ PUSH2 0xAE JUMPI DUP1 PUSH4 0xA1C51915 EQ PUSH2 0xCC JUMPI JUMPDEST PUSH0 PUSH0 REVERT JUMPDEST PUSH2 0x68 PUSH1 0x4 DUP1 CALLDATASIZE SUB DUP2 ADD SWAP1 PUSH2 0x63 SWAP2 SWAP1 PUSH2 0x394 JUMP JUMPDEST PUSH2 0xEA JUMP JUMPDEST PUSH1 0x40 MLOAD PUSH2 0x75 SWAP2 SWAP1 PUSH2 0x424 JUMP JUMPDEST PUSH1 0x40 MLOAD DUP1 SWAP2 SUB SWAP1 RETURN JUMPDEST PUSH2 0x98 PUSH1 0x4 DUP1 CALLDATASIZE SUB DUP2 ADD SWAP1 PUSH2 0x93 SWAP2 SWAP1 PUSH2 0x43D JUMP JUMPDEST PUSH2 0x190 JUMP JUMPDEST PUSH1 0x40 MLOAD PUSH2 0xA5 SWAP2 SWAP1 PUSH2 0x49C JUMP JUMPDEST PUSH1 0x40 MLOAD DUP1 SWAP2 SUB SWAP1 RETURN JUMPDEST PUSH2 0xB6 PUSH2 0x19A JUMP JUMPDEST PUSH1 0x40 MLOAD PUSH2 0xC3 SWAP2 SWAP1 PUSH2 0x515 JUMP JUMPDEST PUSH1 0x40 MLOAD DUP1 SWAP2 SUB SWAP1 RETURN JUMPDEST PUSH2 0xD4 PUSH2 0x237 JUMP JUMPDEST PUSH1 0x40 MLOAD PUSH2 0xE1 SWAP2 SWAP1 PUSH2 0x550 JUMP JUMPDEST PUSH1 0x40 MLOAD DUP1 SWAP2 SUB SWAP1 RETURN JUMPDEST PUSH0 PUSH1 0x2 DUP3 PUSH1 0x40 MLOAD PUSH2 0xFB SWAP2 SWAP1 PUSH2 0x5AD JUMP JUMPDEST PUSH1 0x20 PUSH1 0x40 MLOAD DUP1 DUP4 SUB DUP2 DUP6 GAS STATICCALL ISZERO DUP1 ISZERO PUSH2 0x116 JUMPI RETURNDATASIZE PUSH0 PUSH0 RETURNDATACOPY RETURNDATASIZE PUSH0 REVERT JUMPDEST POP POP POP PUSH1 0x40 MLOAD RETURNDATASIZE PUSH1 0x1F NOT PUSH1 0x1F DUP3 ADD AND DUP3 ADD DUP1 PUSH1 0x40 MSTORE POP DUP2 ADD SWAP1 PUSH2 0x139 SWAP2 SWAP1 PUSH2 0x5F6 JUMP JUMPDEST PUSH1 0x2 DUP5 PUSH1 0x40 MLOAD PUSH2 0x149 SWAP2 SWAP1 PUSH2 0x5AD JUMP JUMPDEST PUSH1 0x20 PUSH1 0x40 MLOAD DUP1 DUP4 SUB DUP2 DUP6 GAS STATICCALL ISZERO DUP1 ISZERO PUSH2 0x164 JUMPI RETURNDATASIZE PUSH0 PUSH0 RETURNDATACOPY RETURNDATASIZE PUSH0 REVERT JUMPDEST POP POP POP PUSH1 0x40 MLOAD RETURNDATASIZE PUSH1 0x1F NOT PUSH1 0x1F DUP3 ADD AND DUP3 ADD DUP1 PUSH1 0x40 MSTORE POP DUP2 ADD SWAP1 PUSH2 0x187 SWAP2 SWAP1 PUSH2 0x5F6 JUMP JUMPDEST EQ SWAP1 POP SWAP3 SWAP2 POP POP JUMP JUMPDEST PUSH0 DUP2 MLOAD SWAP1 POP SWAP2 SWAP1 POP JUMP JUMPDEST PUSH1 0x60 PUSH0 PUSH1 0x40 MLOAD DUP1 PUSH1 0x40 ADD PUSH1 0x40 MSTORE DUP1 PUSH1 0x6 DUP2 MSTORE PUSH1 0x20 ADD PUSH32 0x68656C6C6F200000000000000000000000000000000000000000000000000000 DUP2 MSTORE POP SWAP1 POP PUSH0 PUSH1 0x40 MLOAD DUP1 PUSH1 0x40 ADD PUSH1 0x40 MSTORE DUP1 PUSH1 0x5 DUP2 MSTORE PUSH1 0x20 ADD PUSH32 0x776F726C64000000000000000000000000000000000000000000000000000000 DUP2 MSTORE POP SWAP1 POP DUP2 DUP2 PUSH1 0x40 MLOAD PUSH1 0x20 ADD PUSH2 0x221 SWAP3 SWAP2 SWAP1 PUSH2 0x65B JUMP JUMPDEST PUSH1 0x40 MLOAD PUSH1 0x20 DUP2 DUP4 SUB SUB DUP2 MSTORE SWAP1 PUSH1 0x40 MSTORE SWAP3 POP POP POP SWAP1 JUMP JUMPDEST PUSH0 PUSH0 PUSH1 0xFF SWAP1 POP PUSH1 0x1 DUP2 ADD SWAP2 POP POP SWAP1 JUMP JUMPDEST PUSH0 PUSH1 0x40 MLOAD SWAP1 POP SWAP1 JUMP JUMPDEST PUSH0 PUSH0 REVERT JUMPDEST PUSH0 PUSH0 REVERT JUMPDEST PUSH0 PUSH0 REVERT JUMPDEST PUSH0 PUSH0 REVERT JUMPDEST PUSH0 PUSH1 0x1F NOT PUSH1 0x1F DUP4 ADD AND SWAP1 POP SWAP2 SWAP1 POP JUMP JUMPDEST PUSH32 0x4E487B7100000000000000000000000000000000000000000000000000000000 PUSH0 MSTORE PUSH1 0x41 PUSH1 0x4 MSTORE PUSH1 0x24 PUSH0 REVERT JUMPDEST PUSH2 0x2A6 DUP3 PUSH2 0x260 JUMP JUMPDEST DUP2 ADD DUP2 DUP2 LT PUSH8 0xFFFFFFFFFFFFFFFF DUP3 GT OR ISZERO PUSH2 0x2C5 JUMPI PUSH2 0x2C4 PUSH2 0x270 JUMP JUMPDEST JUMPDEST DUP1 PUSH1 0x40 MSTORE POP POP POP JUMP JUMPDEST PUSH0 PUSH2 0x2D7 PUSH2 0x247 JUMP JUMPDEST SWAP1 POP PUSH2 0x2E3 DUP3 DUP3 PUSH2 0x29D JUMP JUMPDEST SWAP2 SWAP1 POP JUMP JUMPDEST PUSH0 PUSH8 0xFFFFFFFFFFFFFFFF DUP3 GT ISZERO PUSH2 0x302 JUMPI PUSH2 0x301 PUSH2 0x270 JUMP JUMPDEST JUMPDEST PUSH2 0x30B DUP3 PUSH2 0x260 JUMP JUMPDEST SWAP1 POP PUSH1 0x20 DUP2 ADD SWAP1 POP SWAP2 SWAP1 POP JUMP JUMPDEST DUP3 DUP2 DUP4 CALLDATACOPY PUSH0 DUP4 DUP4 ADD MSTORE POP POP POP JUMP JUMPDEST PUSH0 PUSH2 0x338 PUSH2 0x333 DUP5 PUSH2 0x2E8 JUMP JUMPDEST PUSH2 0x2CE JUMP JUMPDEST SWAP1 POP DUP3 DUP2 MSTORE PUSH1 0x20 DUP2 ADD DUP5 DUP5 DUP5 ADD GT ISZERO PUSH2 0x354 JUMPI PUSH2 0x353 PUSH2 0x25C JUMP JUMPDEST JUMPDEST PUSH2 0x35F DUP5 DUP3 DUP6 PUSH2 0x318 JUMP JUMPDEST POP SWAP4 SWAP3 POP POP POP JUMP JUMPDEST PUSH0 DUP3 PUSH1 0x1F DUP4 ADD SLT PUSH2 0x37B JUMPI PUSH2 0x37A PUSH2 0x258 JUMP JUMPDEST JUMPDEST DUP2 CALLDATALOAD PUSH2 0x38B DUP5 DUP3 PUSH1 0x20 DUP7 ADD PUSH2 0x326 JUMP JUMPDEST SWAP2 POP POP SWAP3 SWAP2 POP POP JUMP JUMPDEST PUSH0 PUSH0 PUSH1 0x40 DUP4 DUP6 SUB SLT ISZERO PUSH2 0x3AA JUMPI PUSH2 0x3A9 PUSH2 0x250 JUMP JUMPDEST JUMPDEST PUSH0 DUP4 ADD CALLDATALOAD PUSH8 0xFFFFFFFFFFFFFFFF DUP2 GT ISZERO PUSH2 0x3C7 JUMPI PUSH2 0x3C6 PUSH2 0x254 JUMP JUMPDEST JUMPDEST PUSH2 0x3D3 DUP6 DUP3 DUP7 ADD PUSH2 0x367 JUMP JUMPDEST SWAP3 POP POP PUSH1 0x20 DUP4 ADD CALLDATALOAD PUSH8 0xFFFFFFFFFFFFFFFF DUP2 GT ISZERO PUSH2 0x3F4 JUMPI PUSH2 0x3F3 PUSH2 0x254 JUMP JUMPDEST JUMPDEST PUSH2 0x400 DUP6 DUP3 DUP7 ADD PUSH2 0x367 JUMP JUMPDEST SWAP2 POP POP SWAP3 POP SWAP3 SWAP1 POP JUMP JUMPDEST PUSH0 DUP2 ISZERO ISZERO SWAP1 POP SWAP2 SWAP1 POP JUMP JUMPDEST PUSH2 0x41E DUP2 PUSH2 0x40A JUMP JUMPDEST DUP3 MSTORE POP POP JUMP JUMPDEST PUSH0 PUSH1 0x20 DUP3 ADD SWAP1 POP PUSH2 0x437 PUSH0 DUP4 ADD DUP5 PUSH2 0x415 JUMP JUMPDEST SWAP3 SWAP2 POP POP JUMP JUMPDEST PUSH0 PUSH1 0x20 DUP3 DUP5 SUB SLT ISZERO PUSH2 0x452 JUMPI PUSH2 0x451 PUSH2 0x250 JUMP JUMPDEST JUMPDEST PUSH0 DUP3 ADD CALLDATALOAD PUSH8 0xFFFFFFFFFFFFFFFF DUP2 GT ISZERO PUSH2 0x46F JUMPI PUSH2 0x46E PUSH2 0x254 JUMP JUMPDEST JUMPDEST PUSH2 0x47B DUP5 DUP3 DUP6 ADD PUSH2 0x367 JUMP JUMPDEST SWAP2 POP POP SWAP3 SWAP2 POP POP JUMP JUMPDEST PUSH0 DUP2 SWAP1 POP SWAP2 SWAP1 POP JUMP JUMPDEST PUSH2 0x496 DUP2 PUSH2 0x484 JUMP JUMPDEST DUP3 MSTORE POP POP JUMP JUMPDEST PUSH0 PUSH1 0x20 DUP3 ADD SWAP1 POP PUSH2 0x4AF PUSH0 DUP4 ADD DUP5 PUSH2 0x48D JUMP JUMPDEST SWAP3 SWAP2 POP POP JUMP JUMPDEST PUSH0 DUP2 MLOAD SWAP1 POP SWAP2 SWAP1 POP JUMP JUMPDEST PUSH0 DUP3 DUP3 MSTORE PUSH1 0x20 DUP3 ADD SWAP1 POP SWAP3 SWAP2 POP POP JUMP JUMPDEST DUP3 DUP2 DUP4 MCOPY PUSH0 DUP4 DUP4 ADD MSTORE POP POP POP JUMP JUMPDEST PUSH0 PUSH2 0x4E7 DUP3 PUSH2 0x4B5 JUMP JUMPDEST PUSH2 0x4F1 DUP2 DUP6 PUSH2 0x4BF JUMP JUMPDEST SWAP4 POP PUSH2 0x501 DUP2 DUP6 PUSH1 0x20 DUP7 ADD PUSH2 0x4CF JUMP JUMPDEST PUSH2 0x50A DUP2 PUSH2 0x260 JUMP JUMPDEST DUP5 ADD SWAP2 POP POP SWAP3 SWAP2 POP POP JUMP JUMPDEST PUSH0 PUSH1 0x20 DUP3 ADD SWAP1 POP DUP2 DUP2 SUB PUSH0 DUP4 ADD MSTORE PUSH2 0x52D DUP2 DUP5 PUSH2 0x4DD JUMP JUMPDEST SWAP1 POP SWAP3 SWAP2 POP POP JUMP JUMPDEST PUSH0 PUSH1 0xFF DUP3 AND SWAP1 POP SWAP2 SWAP1 POP JUMP JUMPDEST PUSH2 0x54A DUP2 PUSH2 0x535 JUMP JUMPDEST DUP3 MSTORE POP POP JUMP JUMPDEST PUSH0 PUSH1 0x20 DUP3 ADD SWAP1 POP PUSH2 0x563 PUSH0 DUP4 ADD DUP5 PUSH2 0x541 JUMP JUMPDEST SWAP3 SWAP2 POP POP JUMP JUMPDEST PUSH0 DUP2 MLOAD SWAP1 POP SWAP2 SWAP1 POP JUMP JUMPDEST PUSH0 DUP2 SWAP1 POP SWAP3 SWAP2 POP POP JUMP JUMPDEST PUSH0 PUSH2 0x587 DUP3 PUSH2 0x569 JUMP JUMPDEST PUSH2 0x591 DUP2 DUP6 PUSH2 0x573 JUMP JUMPDEST SWAP4 POP PUSH2 0x5A1 DUP2 DUP6 PUSH1 0x20 DUP7 ADD PUSH2 0x4CF JUMP JUMPDEST DUP1 DUP5 ADD SWAP2 POP POP SWAP3 SWAP2 POP POP JUMP JUMPDEST PUSH0 PUSH2 0x5B8 DUP3 DUP5 PUSH2 0x57D JUMP JUMPDEST SWAP2 POP DUP2 SWAP1 POP SWAP3 SWAP2 POP POP JUMP JUMPDEST PUSH0 DUP2 SWAP1 POP SWAP2 SWAP1 POP JUMP JUMPDEST PUSH2 0x5D5 DUP2 PUSH2 0x5C3 JUMP JUMPDEST DUP2 EQ PUSH2 0x5DF JUMPI PUSH0 PUSH0 REVERT JUMPDEST POP JUMP JUMPDEST PUSH0 DUP2 MLOAD SWAP1 POP PUSH2 0x5F0 DUP2 PUSH2 0x5CC JUMP JUMPDEST SWAP3 SWAP2 POP POP JUMP JUMPDEST PUSH0 PUSH1 0x20 DUP3 DUP5 SUB SLT ISZERO PUSH2 0x60B JUMPI PUSH2 0x60A PUSH2 0x250 JUMP JUMPDEST JUMPDEST PUSH0 PUSH2 0x618 DUP5 DUP3 DUP6 ADD PUSH2 0x5E2 JUMP JUMPDEST SWAP2 POP POP SWAP3 SWAP2 POP POP JUMP JUMPDEST PUSH0 DUP2 SWAP1 POP SWAP3 SWAP2 POP POP JUMP JUMPDEST PUSH0 PUSH2 0x635 DUP3 PUSH2 0x4B5 JUMP JUMPDEST PUSH2 0x63F DUP2 DUP6 PUSH2 0x621 JUMP JUMPDEST SWAP4 POP PUSH2 0x64F DUP2 DUP6 PUSH1 0x20 DUP7 ADD PUSH2 0x4CF JUMP JUMPDEST DUP1 DUP5 ADD SWAP2 POP POP SWAP3 SWAP2 POP POP JUMP JUMPDEST PUSH0 PUSH2 0x666 DUP3 DUP6 PUSH2 0x62B JUMP JUMPDEST SWAP2 POP PUSH2 0x672 DUP3 DUP5 PUSH2 0x62B JUMP JUMPDEST SWAP2 POP DUP2 SWAP1 POP SWAP4 SWAP3 POP POP POP JUMP INVALID LOG2 PUSH5 0x6970667358 0x22 SLT KECCAK256 DUP4 BALANCE PUSH17 0xA1B82D0A8BA010C2095E0BBF81D94F2320 0xA9 ORIGIN CREATE2 MULMOD STATICCALL PUSH26 0x6455987BF93464736F6C634300081E0033000000000000000000 "
		},
		"gasEstimates": {
			"creation": {
				"codeDepositCost": "343200",
				"executionCost": "378",
				"totalCost": "343578"
			},
			"external": {
				"compare(string,string)": "infinite",
				"concat()": "infinite",
				"getB()": "400",
				"getStringLen(string)": "infinite"
			}
		},
		"methodIdentifiers": {
			"compare(string,string)": "3a96fdd7",
			"concat()": "6bdbf8e6",
			"getB()": "a1c51915",
			"getStringLen(string)": "4a1e4dbf"
		}
	},
	"abi": [
		{
			"inputs": [
				{
					"internalType": "string",
					"name": "a",
					"type": "string"
				},
				{
					"internalType": "string",
					"name": "b",
					"type": "string"
				}
			],
			"name": "compare",
			"outputs": [
				{
					"internalType": "bool",
					"name": "",
					"type": "bool"
				}
			],
			"stateMutability": "pure",
			"type": "function"
		},
		{
			"inputs": [],
			"name": "concat",
			"outputs": [
				{
					"internalType": "string",
					"name": "",
					"type": "string"
				}
			],
			"stateMutability": "pure",
			"type": "function"
		},
		{
			"inputs": [],
			"name": "getB",
			"outputs": [
				{
					"internalType": "uint8",
					"name": "",
					"type": "uint8"
				}
			],
			"stateMutability": "pure",
			"type": "function"
		},
		{
			"inputs": [
				{
					"internalType": "string",
					"name": "str",
					"type": "string"
				}
			],
			"name": "getStringLen",
			"outputs": [
				{
					"internalType": "uint256",
					"name": "",
					"type": "uint256"
				}
			],
			"stateMutability": "pure",
			"type": "function"
		}
	]
}